:020000040000FA
:06000000020107021DBF12
:03002B0002205858
:0300330002203A6E
:03003B000220722E
:03004300021FEEAB
:03005300021E3258
:03006B000220145C
:10008300021C73E5C754F84401F5C7790122000047
:100093000080FB120086B900030200F1E4791A78AC
:1000A30002B800028004F709D8FCE4791C7802B88E
:1000B30000028004F709D8FCE490028178AB790F41
:1000C3008002F0A3D8FCD9FA7A2B7B119001377800
:1000D300DA79018015E493A3AD82AE838A828B83A0
:1000E300F0A3AA82AB838D828E83D8E9D9E7758288
:1000F300C67583C9740312011975829175830074DF
:100103000012011975D00075813F751881751902A8
:10011300759F00020096C09FF59FE473D09F22D085
:1001230083D082C09FE493C0E0740193C0E0740263
:1001330093F59F228A039C03C6039003FF0000B438
:10014300000028002800283075A000A000A000A00F
:100153000000080008E001F000100010001000107B
:10016300001000100050005000500010001000D08C
:10017300070000000000000F0001000500307507B4
:10018300001000010081FF0000FF020202978601B8
:1001930000008086028F860100008111028B860198
:1001A3000000B102028F86010000821102898601DC
:1001B3000000C702FFFF0100FF2002978601000035
:1001C3008386028F86010000B01102918600000031
:1001D3000000028D86030000A403F20AF20AF20A69
:1001E300F20AF20AF20AF20AF20AF20AF20AF20A2C
:1001F300F20AF20AC00CDE0CBA0C01E803053F1048
:1002030002FFFFFF00FEFF544A475104011201227F
:10021300A5C203120122BBC203120122E8C20312C8
:10022300012218C30312012239C3031201226AC334
:1002330003120122BBC303120122D2C30312012200
:100243006CBC0312012283BC03120122B2BC031251
:100253000122EBBC0312012213BD0312012241BD93
:100263000312012258BD031201226FBD03120122A2
:1002730085BD03120122ACBD03120122BFBD0312CF
:100283000122D5BD03120122FDBD0312012204A9DF
:100293000212012203AA021201222DAA0212012232
:1002A30082AA02120122A3AA02120122BCAA0212EA
:1002B3000122BEAA02120122DFAA02120122E2AB2C
:1002C300021201229FAC021201226CAD0212012222
:1002D300D0AD0212012267AE021201226AAE0212EF
:1002E3000122F0AE0212012233AF0212012285AFC6
:1002F30002120122BCAF0212012242B002120122F9
:10030300CBB00212012214B10212012221B1021256
:10031300012224B10212012282B1021201229AB1F6
:100323000212012214B20212012217B20212012296
:100333003AB2021201223DB202120122E4B20212C7
:10034300012207B3021201221FB3021201224FB38B
:10035300021201225CB3021201225FB302120122D4
:10036300CBB302120122B9B4021201226FB50212F9
:10037300012211C002120122ECC0021201221AC191
:10038300021201229AC102120122BAC102120122EF
:10039300F8C1021201224BC202120122B3C202129D
:1003A300012244C3021201220FC4021201221EC7FA
:1003B300021201228AC802120122ADC802120122CE
:1003C30040AA03120122D1AB0312012222AC031271
:1003D300012281AC031201228FAC03120122B8ACBB
:1003E300031201223D8503120122658503120122B6
:1003F300938503120122CA85031201223286031256
:1004030001227B8603120122C6860312012204877E
:10041300031201224187031201226F870312012273
:100423001688031201222088031201222D88031249
:1004330001226088031201222289031201222E89DC
:100443000312012246890312012250890312012259
:10045300CE8903120122E5C503120122F3C503125B
:1004630001220BC60312012223C6031201223BC63B
:100473000312012210EF01120122AEEF0112012239
:1004830026F0011201223BF10112012275F1011242
:1004930001221EF201120122F3F20112012257F48A
:1004A30001120122AEF40112012235F501120122DB
:1004B3001CF60112012269F601120122F7F601125C
:1004C30001221BF701120122F0F80112012231F976
:1004D3000112012253F90112012218FA0112012219
:1004E300DEFA0112012213FD01120122309F0312D1
:1004F3000122469F031201226C9F0312012294A042
:10050300031201229EA003120122F7A1031201226A
:10051300F7A2031201225F8A03120122018B031245
:100523000122348B031201227E8B03120122388DA8
:10053300031201221EB0011201229CB001120122FA
:10054300ACB0011201228FB101120122BDB101121F
:100553000122C8B101120122B2B2011201224EB32B
:100563000112012252B50112012209B7011201221F
:1005730085B70112012262B80112012290BB011258
:1005830001222EBC011201228BBD01120122FEBEEB
:1005930001120122A7BF01120122F0BF01120122A1
:1005A30027C001120122CCC0011201224AC101124B
:1005B300012290D101120122E5D1011201222AD395
:1005C300011201223AD3011201225DD30112012249
:1005D300A8D3011201224DD40112012243D50112E5
:1005E30001220DD60112012285D701120122C7D79C
:1005F3000112012265D8011201228BD801120122B6
:1006030079DA011201227EDA011201225FDC011282
:100613000122B3DC0112012215DD011201223DDDAD
:1006230001120122E1DD01120122A3DE01120122E6
:10063300D4DE01120122D7DE011201221FDF0112D3
:10064300012261DF01120122C8DF0112012262B41B
:100653000312012275B4031201227EB40312012294
:1006630097B403120122E2B403120122BDB50312AF
:1006730001224CB60312012297B6031201229D5A9E
:1006830000120122AD5A00120122105B0012012256
:10069300555B00120122055C00120122DE5C001290
:1006A3000122075D00120122375D001201224B5F18
:1006B30000120122276100120122076300120122A6
:1006C3003F6400120122B86600120122A4670012DF
:1006D3000122EA6800120122F76900120122396A35
:1006E30000120122716A001201228B6A0012012298
:1006F300F36A001201228D6F001201222E70001284
:100703000122827000120122A97000120122E770F7
:10071300001201220671001201225A7100120122F5
:10072300627200120122EB72001201226FF30212B5
:10073300012279F30212012215F402120122E0F4DC
:1007430002120122FFF40212012225F502120122F4
:1007530064F5021201229CF502120122C5F5021270
:100763000122FFF50212012214F602120122E1F620
:100773000212012204F70212012226F702120122B9
:100783003BF702120122C5F702120122FFF7021200
:10079300012273F802120122BCF802120122E6F8C8
:1007A300021201220BF902120122449B03120122BD
:1007B3000E9C03120122F19C03120122679D031276
:1007C3000122A99D03120122D69E03120122CF8D7D
:1007D30002120122F88D02120122118E021201224D
:1007E300568F0212012234900212012253900212F8
:1007F3000122E090021201222391021201225B9254
:1008030002120122C79202120122BD940212012296
:100813004B9702120122DE9702120122B2980212B2
:100823000122559902120122689A02120122FE9AAC
:1008330002120122EAFE0212012253FF02120122D6
:10084300A7FF02120122D6FF02120122DB8E03123E
:100853000122488F03120122938F031201228890F1
:10086300031201228491031201226E9203120122C8
:100873009AE002120122E1E002120122BAE102121D
:100883000122B5E20212012294E30212012200E4E2
:10089300021201221CE50212012283E50212012247
:1008A30086E502120122B1E50212012222E60212BA
:1008B3000122C5E602120122DAE60212012222E730
:1008C300021201223BE7021201223EE70212012239
:1008D300D0AD031201220CAE031201224AAE031261
:1008E300012214AF0312012287AF03120122C2AF08
:1008F3000312012200B00312012230B003120122BD
:1009030057B003120122C2B00312012204B1031231
:100913000122A28601120122C088011201226F8ADC
:10092300011201221F8B011201226A8B0112012283
:10093300B58B01120122C78B01120122078C011210
:1009430001223C8C01120122888C01120122B78CF6
:1009530001120122DA8C01120122618D011201229E
:100963004D8E011201228B8F011201228D900112F3
:1009730001226992011201228D9701120122D3975C
:1009830001120122119801120122469A0112012239
:10099300BDB8031201225DBA03120122E420001242
:1009A30001227B2100120122C12100120122F72220
:1009B300001201228E2400120122062500120122B8
:1009C3004825001201229825001201220327001254
:1009D30001226E29001201224A2A00120122692AE9
:1009E30000120122882A001201228B2A00120122FE
:1009F300112C00120122062D00120122022E0012D8
:100A03000122722E00120122E42E00120122632F12
:100A1300001201223E300012012245310012012250
:100A2300243200120122AF32001201221D330012C0
:100A33000122913300120122BA33001201227934C8
:100A430000120122883700120122D137001201223D
:100A53001438001201229738001201223B39001288
:100A63000122CC3900120122F139001201223B3A52
:100A730000120122653A00120122AA3A0012012251
:100A8300253B001201227F3B00120122D33C0012BE
:100A93000122903D00120122633E001201220080D8
:100AA300021201225080021201225C8002120122F2
:100AB300398102120122698102120122A1810212EB
:100AC3000122208202120122588202120122AA82EA
:100AD30002120122E782021201220C850212012274
:100AE3003887021201223389021201220E8B02126D
:100AF3000122F37F00120122AAED02120122DCF18E
:100B0300021201222CF302120122FEC10112012260
:100B1300D0C801120122D6C80112012286CB0112CC
:100B23000122008003120122AC80031201227A8188
:100B330003120122A48103120122F2830312012270
:100B4300913E00120122DB3E001201228D4B001266
:100B530001220E4D00120122064E0012012265549D
:100B6300001201226055001201229D55001201223C
:100B7300C055001201220256001201220C56001227
:100B83000122F85600120122EC5700120122855867
:100B9300001201224CB1031201224AB203120122B4
:100BA300A0B203120122DEB2031201223BB30312ED
:100BB3000122B8B303120122C1B303120122CDB340
:100BC30003120122E0B3031201221CB40312012217
:100BD30032B40312012262E7021201226FE702120A
:100BE300012289E702120122C8E70212012206E864
:100BF300021201226BE80212012280E80212012292
:100C030097E802120122A5E802120122B4E80212B7
:100C13000122C9E802120122DEE802120122E9E8F8
:100C230002120122F5E80212012202E90212012254
:100C330011E9021201221CE90212012241E9021206
:100C43000122EAE902120122FFE90212012214EA57
:100C5300021201222EEA0212012249EA02120122A1
:100C630066EA0212012271EA021201222DEB02123C
:100C7300012219EC021201223EEC0212012248EC7D
:100C8300021201225CEC021201227BEC021201220D
:100C9300DCEC02120122E2EC02120122E8EC021265
:100CA3000122EEEC02120122FAEC021201222DEDD6
:100CB30002120122DAB50212012206B60212012241
:100CC300EAB60212012284B9021201229ABA02126E
:100CD3000122B7BB021201225ABC0212012200BD3B
:100CE300021201227A9B02120122FC9B02120122B0
:100CF300A59C02120122ED9D02120122FB9F02120A
:100D03000122E1A00212012216A10212012238A13E
:100D130002120122E1A102120122B1A30212012255
:100D2300DAA30212012252A40212012284A40212A3
:100D3300012291A402120122DCA40212012200A5C5
:100D43000212012251A7021201225BA80212012200
:100D5300B7A80212012292E001120122A3E10112BB
:100D6300012287E20112012291E201120122B3E280
:100D730001120122BFE20112012263E401120122E6
:100D830090E401120122A6E501120122FBE5011202
:100D930001224AE7011201221FE8011201227BE826
:100DA30001120122E6E8011201221BE901120122CC
:100DB3005EE90112012228EC0112012240EC01122A
:100DC3000122D1EC01120122DFEC011201222CEDF0
:100DD300011201223AED01120122A6ED01120122B4
:100DE30021EE0112012278EE01120122B3BA03129D
:100DF3000122D8BA031201224EBB03120122ABD93E
:100E030002120122B4D902120122BDD90212012217
:100E130095DA0212012246DC0212012276DC02126A
:100E23000122A1DC02120122D1DC02120122FCDC2C
:100E33000212012230DD021201225CDD02120122C4
:100E43009FDD02120122CADD0212012211DE02120B
:100E5300012266DE02120122A8DE0212012202DF53
:100E6300021201222DDF021201227CDF0212012273
:100E7300ACDF02120122D7DF02120122FADF0212D3
:100E8300012220C8031201224CC80312012279C88F
:100E93000312012283C80312012293C80312012201
:100EA30033F90212012272F902120122FBF9021232
:100EB30001220EFA0212012259FA021201228DFABC
:100EC30002120122CCFA02120122DBFA02120122DF
:100ED3008DFB02120122E6FB0212012235FC0212F3
:100EE30001228BFC0212012280FD0212012275FEF7
:100EF30002120122B2FE0212012207C903120122C9
:100F03005F9C011201225D9E01120122DE9F0112EC
:100F13000122E0A00112012268A101120122EDA128
:100F23000112012216A20112012266A2011201225C
:100F330059A601120122CAA601120122B6A7011263
:100F43000122F0A70112012230A80112012263A994
:100F53000112012294A901120122E7A9011201221F
:100F630030AA011201229EAA01120122D0AA011263
:100F73000122EAAA01120122DCAB01120122ECAB2D
:100F8300011201229BAD01120122B2AD0112012215
:100F9300E4AD0112012266AF01120122DFAF01129B
:100FA3000122D4C603120122E5C60312012219CA83
:100FB3000312012258CA03120122EAFF011201227D
:100FC30083C70312012293C703120122AEC7031280
:100FD300012216C803120122E9C3031201226DC4C0
:100FE30003120122D5C4031201224C7E00120122F6
:100FF300727E00120122D57E00120122EF7E0012C2
:1010030001220C7F001201225F7F00120122B87FB0
:101013000012012201A30312012238A303120122A9
:10102300A8A303120122BDA303120122C4A4031225
:1010330001228AA503120122A9A503120122CEA52A
:101043000312012203A6031201221BA6031201228B
:101053006CA603120122A1A603120122BBA603124E
:10106300012234A70312012209A803120122DBA9DA
:1010730003120122309303120122C09303120122AF
:101083003E9403120122C2940312012254950312C7
:101093000122109603120122DD9603120122E79624
:1010A30003120122F696031201220C970312012266
:1010B3001F97031201222997031201223C9703125F
:1010C30001229EBF03120122C7BF03120122F0BFF8
:1010D300031201228AC003120122A2C003120122B9
:1010E300E4C003120122C9D102120122D3D1021298
:1010F300012213D2021201225CD20212012296D2E1
:1011030002120122ECD2021201220BD3021201229B
:1011130093D5021201229CD502120122EDD50212AF
:10112300012216D60212012220D60212012291D6E2
:10113300021201221FD70212012274D702120122C6
:10114300A3D7021201221FD8021201225CD8021275
:10115300012293D802120122A5D802120122C4D877
:1011630002120122CDD8021201227FD902120122DA
:101173000FBE031201225FBE03120122D1BE03126E
:10118300012239BF0312012222FD011201224CFD6B
:101193000112012213FE01120122EFFE01120122AC
:1011A30077FF01120122EEC403120122C1B603121A
:1011B3000122F7B6031201222AB70312012283B8D0
:1011C300031201229DC803120122B3C80312012294
:1011D300BDC80312012267C903120122E5C9021225
:1011E3000122A2CA02120122DDCA021201220ECB7F
:1011F3000212012270CB02120122BCCB0212012285
:1012030027CC02120122A1CC02120122A0CD02128C
:10121300012227CF02120122AACF0212012210D0EB
:101223000212012223D0021201221ED10212012234
:101233006BD1021201223F97031201225597031229
:101243000122F997031201223898031201225598BB
:1012530003120122869803120122D398031201225A
:10126300079903120122429903120122379B0312A9
:10127300012229C10312012237C103120122A2C193
:1012830003120122FCC1031201221AC2031201221A
:101293005273001201225C7400120122DE750012E7
:1012A3000122ED7600120122BD77001201229B7804
:1012B300001201222B790012012249790012012226
:1012C300F17B00120122297C00120122A57C00126D
:1012D3000122D07D0012012299CA0312012262CA9F
:1012E30003120122C5CA03120122EECA03E066708B
:1012F3001008A3E066700A08A3E066700408A3E080
:101303006622C3E7960809E7960809E7960809E7FE
:101313009622C3E09608A3E09608A3E09608A3E00C
:101323009622C008C3E096F50808A3E09642080891
:10133300A3E096420808A3E09645087001D3D008BD
:1013430022080808EAC0E0EBC0E086F0E7A4FA1838
:101353000986F0E7A42AFA180986F0E7A42AFA18FE
:101363000986F0E7A42AFA1986F0E7A4FBE5F02A38
:10137300FA190886F0E7A42BFBE5F03AFA19088678
:10138300F0E7A42BFBE5F03AFA18180986F0E7A476
:10139300C5F02BFBE43AFA1908E7C5F0C6A426F614
:1013A300E5F03BFBE43AFA1886F0E7A4F6E5F0082B
:1013B30026F6E43B08F6E43A08F6D0E0FBD0E0FA80
:1013C30022E4CFC0E0E4CEC0E0E4CDC0E0E4CCC092
:1013D300E075F020E626F608E633F608E633F6086D
:1013E300E633F6181818EC33FCED33FDEE33FEEF5D
:1013F30033FFC3EC9709ED9709EE9709EF97191996
:1014030019400FFFEC97FC09ED97FD09EE97FE19C4
:101413001906D5F0BFECF709EDF709EEF709EFF779
:10142300191919D0E0FCD0E0FDD0E0FED0E0FF2296
:101433006016080808C6C313C618C613C618C61311
:10144300C618C613C6D5E0EA227009080808226048
:1014530016181818C6C333C608C633C608C633C61B
:1014630008C633C6D5E0EA22E627F60809E637F6CA
:101473000809E637F60809E637F622E026F608A358
:10148300E036F608A3E036F608A3E036F622E026B7
:10149300F008A3E036F008A3E036F008A3E036F046
:1014A30022C3E697F60809E697F60809E697F608D1
:1014B30009E697F622C3E096F008A3E096F008A3A6
:1014C300E096F008A3E096F022E657F60809E657FF
:1014D300F60809E657F60809E657F622E056F60835
:1014E300A3E056F608A3E056F608A3E056F622E07A
:1014F30056F008A3E056F008A3E056F008A3E05620
:10150300F022E066F608A3E066F608A3E066F608B4
:10151300A3E066F622E0F608A3E0F608A3E0F608E7
:10152300A3E0F622E6F008A3E6F008A3E6F008A39A
:10153300E6F022E0FAA3E0FBA3E0FCA3E0FD22EA4D
:10154300F0A3EBF0A3ECF0A3EDF022E0F8A3E0F9B5
:10155300A3E0FAA3E0FB22E8F0A3E9F0A3EAF0A3F7
:10156300EBF022CAC0E0E6F0A308DAFAD0E0FA22F0
:10157300CAC0E0E0A3C582CCC582C583CDC583F0D4
:10158300A3C582CCC582C583CDC583DAE6D0E0CAC4
:1015930022C3E498F8E499F91215D58026C3E49A96
:1015A300FAE49BFBE920E7E91215D5E498F8E499FE
:1015B300F922C3E498F8E499F91215D5E498F8E40C
:1015C30099F9C3E49AFAE49BFB22EB20E7CFE920E5
:1015D300E7E0B90010BB0008E88AF084F8AAF0221B
:1015E300E4FBC8FA22EB70227B10C833C8C933C9A5
:1015F300335007C39AC3DBF280069A50012ADBEA11
:10160300C833F4C8C933F4C9FA2275F008E4C833FF
:10161300C8C933C933C99AC99B5004C92AC93BD520
:10162300F0ECFBC833F4C8E4C9FA22600D08C6A283
:10163300E713C618C613C6D5E0F322600C08C6C369
:1016430013C618C613C6D5E0F422700422600D1821
:10165300C6C333C608C633C6D5E0F418222518100E
:10166300AF08F518400C15198008F5184002151934
:10167300D2AF2200C0D0251810AF08F518500C05C2
:10168300198008F51850020519D2AFD0D0222518B9
:10169300F58210AF08F518400C15198008F51840AD
:1016A300021519D2AF85198322C5822518C582C5B3
:1016B30083351910AF07F5198582188007F5198549
:1016C3008218D2AFC583222518F582E43519F58334
:1016D300222518F8E43519F9222518FAE43519FBFF
:1016E300222518FCE43519FD22E4732518C582C0B0
:1016F300E0E51934FFC583C0E0E518C3958224F8FB
:1017030010AF08858319858218800885831985821F
:1017130018D2AFCEF0A3E520F0A37808E608F0A333
:10172300DEFAEFF0A3E58124FAF8E608F0A3E60871
:10173300F0A3E608F0A30808E608F0A3E608F0A380
:1017430015811581D0E0FED0E0F815811581158152
:10175300E8C0E0EEC0E0222518C582C0E0E51934F8
:10176300FFC583C0E0E518C3958224F910AF08854F
:1017730083198582188008858319858218D2AFCE94
:10178300F0A3E520F0A37808E608F0A3DEFAEFF073
:10179300A3E58124FBF8E608F0A3E608F0A3080814
:1017A300E608F0A3E608F0A315811581D0E0FED08A
:1017B300E0F815811581E8C0E0EEC0E022851983C9
:1017C300851882E0A3FEE0A3F5207808E0A3F608DD
:1017D300DFFAE0A3FFE0A3C0E0E0A3C0E0E0A3C022
:1017E300E0E0A3C0E0E0A3C0E010AF088582188565
:1017F30083198008858218858319D2AFD083D0825C
:1018030002011F851983851882E0A3FEE0A3F5205A
:101813007808E0A3F608DFFAE0A3FFE0A3C0E0E066
:10182300A3C0E0E0A3C0E0E0A3C0E010AF0885825E
:10183300188583198008858218858319D2AFD083D0
:10184300D08222C0D02518C582C0E0E51934FFC577
:1018530083C0E0E518C3958224F310AF088583198C
:101863008582188008858319858218D2AFC8F0A3B2
:10187300E9F0A3EAF0A3EBF0A37908E709F0A3D812
:10188300FAECF0A3EDF0A3EEF0A3EFF0A3D0E0F0B9
:10189300A3D0E0F0A3D0E0F0A3E520F0A3E5F0F0BF
:1018A300A322851983851882E0C0E0A3E0F9A3E0B1
:1018B300FAA3E0FBA37808E0F608A3DFFAE0FCA3B1
:1018C300E0FDA3E0FEA3E0FFA3E0C0E0A3E0C0E0EF
:1018D300A3E0F5D0A3E0F520A3E0A3F5F010AF0853
:1018E3008583198582188008858319858218D2AF6C
:1018F300D082D083D0E0F8D0E03274048006740242
:1019030080027401C0E0F404121691D0E01215664F
:10191300227404800474028000CCC0E0EDC0E0E5D2
:1019230018C39CCCAD1950011D10AF068C188D192E
:1019330080068C188D19D2AF121573D0E0FDD0E05C
:10194300FC22D083D082E9C0E0E493A3C386F0C530
:10195300F095F0F908E493A386F0C5F095F0700BC9
:10196300E493A3C3994005E9048002A3E475F0025C
:10197300A42582F582E5F03583F583D0E0F9E4937D
:10198300A3C0E0E493C0E022D083D082ECC0E0EDBA
:10199300C0E0E493A3FCE493A3FDED4C600D1219A6
:1019A300D7EC24FFFCED34FFFD80EFE493A3FCE4CC
:1019B30093A3FDED4C600D121A16EC24FFFCED34DD
:1019C300FFFD80EFD0E0FDD0E0FCE493A3C0E0E4B2
:1019D30093C0E022C0E0C3E4939608740193961881
:1019E300400FE493667008087401936618700070E2
:1019F30019A3A3C3E49396087401939618A3A34071
:101A03000DD0E0D0E0D0E00219C7A3A3A3A3A3A302
:101A1300D0E022C0E0C0F088F0E493667008087458
:101A2300019366187000A8F0A3A3700BD0F0D0E068
:0E1A3300D0E0D0E00219C7A3A3D0F0D0E0228B
:101A440074F512175AEAFEEBFFEE2434F8EF340073
:101A5400F988088909EE2435F582EF3400F583E02E
:101A6400F8EE2437F582EF3400F583E0F50AEC85CF
:101A74000AF0A4FCAAF0850AF0EDA42AFDE82CF8EB
:101A8400E43DF97A257B001215D5EA85088285099B
:101A940083F05407F87401B800028004C333D8FCFF
:101AA400C0E0E0131313541FF8EE28F8EF3400F9E4
:101AB400E8245DF582E93400F583D0E0F8E058606D
:101AC40008EE2434F582EF801EEE2436F582EF34DE
:101AD40000F583E0F5F0EA84A8F0EE28F8EF34008E
:101AE400F9E82438F582E93400F583E0F97F04024B
:101AF400180674F512175AEAFEEBFFEE2434F58249
:101B0400EF3400F583E0C0E0EE2435F582EF3400D5
:101B1400F583D0E0F08E828F83A3A3A3A3A3A3A312
:101B2400C082C0838E828F83A3A3A3A3A3E0F8A360
:101B3400E0F9D083D082E0C398F508A3E099F509D1
:101B4400EE2480F582EF3400F583E064017069EEE1
:101B54002481F582EF3400F583E0F8A3E0F98E8266
:101B64008F83A3A3A3A3A3A3A3E0FCA3E0FD8E827E
:101B74008F83A3A3A3A3A3E0FAA3E0FBC3EA9CEB94
:101B84009D5027C3EC98ED99402EC3EA98EB9950E9
:101B9400277CE27D07EEFAEFFB120A38EE2480F58B
:101BA40082EF3400F583E4F0800EC3EA98EB9940A9
:101BB400E0C3EC98ED9950D9EE2434F8EF3400F9F1
:101BC400E8FCE9FDEE2435F582EF3400F583E0F816
:101BD400EE2437F582EF3400F583E0F50AE5088555
:101BE4000AF0A4F508AAF0850AF0E509A42AF50983
:101BF400E82508F8E43509F97A257B001215D5EAB9
:101C04008C828D83F05407F87401B800028004C3F9
:101C140033D8FCC0E0E0131313541FF8EE28F8EF98
:101C24003400F9E8245DF582E93400F583D0E0F866
:101C3400E0586008EE2434F582EF801EEE2436F579
:101C440082EF3400F583E0F5F0EA84A8F0EE28F89A
:101C5400EF3400F9E82438F582E93400F583E0F93B
:101C6400121FE0021AF10000851A87851BC622C0E4
:101C7400E0C0D0E8C0E0E9C0E0EAC0E0EBC0E0ECDE
:101C8400C0E0EDC0E0C008C009C00AC00BC082C0FB
:101C940083C0F0759B00906182E0A2E64003021DC0
:101CA40051E591A2E64003021D517591BF9004993C
:101CB400E064057008120BB2120BBE8003120BB85D
:101CC400751A00120C18E990049AF07900120BFAB4
:101CD4001209A87A017B00900498E0F91211469049
:101CE4007803E064426003021D9A900817E014F040
:101CF4006003021D9AC2AF121CFE00781DD0E0F6EC
:101D040018D0E0F6E59F5407F970059085EC800340
:101D14009085E87808121518E9C4C0E0781CE655E7
:101D240008F50808E65509F509740B780812163EFB
:101D3400D0E02508F8906270E0A2E740F8E8C333E9
:101D4400906272F0906270E0D2E0F08049E0A2E527
:101D54005024E591A2E5501E7591DF900499E0644A
:101D64000D70139004BBE004F064287002E4F07A70
:101D740000E0F9120CA8906181E0A2E35009E5E9C2
:101D8400A2E3500375E9F7A3E0A2E75009E591A2A5
:101D9400E7500375917FD0F0D083D082D00BD00A66
:101DA400D009D008D0E0FDD0E0FCD0E0FBD0E0FAD0
:101DB400D0E0F9D0E0F8D0D0D0E032C0E0C0D0C05C
:101DC40082C083906183E0A2E05009E5BFA2E050A5
:101DD4000375BFFEE0A2E15009E5BFA2E15003751F
:101DE400BFFDE0A2E25009E5BFA2E2500375BFFBCC
:101DF400E0A2E35009E5BFA2E3500375BFF7E0A2F8
:101E0400E45009E5BFA2E4500375BFEFE0A2E5503A
:101E140009E5BFA2E5500375BFDFE0A2E65009E57E
:101E2400BFA2E6500375BFBFD083D0828088C0E0D4
:101E3400C0D0E8C0E0E9C0E0EAC0E0EBC0E0ECC03C
:101E4400E0EDC0E0C0F0E5A7A2E6500FE5A1A2E6F0
:101E5400500953A7BF75A1BF121E97E5A7A2E5506D
:101E64000CE5A1A2E5500653A7DF75A1DFE5A7A203
:101E7400E15009E5A1A2E1500375A1FDE5A7A2E2A5
:101E8400500CE5A1A2E2500653A7FB75A1FBD0F0CC
:101E9400021DA874F812175A751A01900499E06487
:101EA400067015120B6A8A828B83A3A3A3A3A3A330
:101EB400E0FAA3E0FB120BA0A2AFE433FED2AF9092
:101EC400049FE0640170187A207B00900498E0F984
:101ED40012125A7A207B00900498E0F912114C9067
:101EE4006182E0D2E6F0900816E0602185C61B808E
:101EF4001690049EE064017008E5C654F84405F5A4
:101F0400C653BEFC121C6C7401651A60E4EEA2E0B8
:101F140092AF7F0102180674F112175A8A088B09CE
:101F24008C0A8D0B740F1216CA780C121518908631
:101F34001C78081214DF90861C780C1214DF7808C1
:101F4400790C12130550157808790C1214A4908694
:101F5400607808121325401579018013780C7908EC
:101F64001214A4908660780C12132540EB79007F3C
:101F74000802180674ED12175A8A088B098C0A8D08
:101F84000B74131216CA780C12151890861C780854
:101F94001214DF90861C780C1214DF780C79081266
:101FA400130540117808790C1214A4AA08AB09ACE3
:101FB4000AAD0B802275100075110075120075139F
:101FC400017810790C1214A47810790812146BAAF1
:101FD40010AB11AC12AD137F0C021806C082C08383
:101FE400E9906000F0D083D08222C0E074F212182D
:101FF40046A2AFE433FED2AFC2C0E5D1A2E450069C
:1020040053D1EF1210BCEEA2E092AF7F010218A5EB
:10201400C0E074F2121846A2AFE433FED2AFE589F1
:10202400A2E1500312100E758900C2C5EEA2E0921F
:10203400AF7F010218A5C0E074F2121846A2AFE403
:1020440033FED2AFE58BA2E0500312100E758B0065
:10205400C2E880D8C0E0C0D0E8C0E0A8A8D2AFC22F
:10206400C7E8A2E792AFD0E0F8D0D0D0E032C0E029
:10207400C0D0E8C0E0E9C0E0EAC0E0EBC0E0C08264
:10208400C083A2AFE433F9D2AF901044E0F8A3E0E8
:10209400687008539AFBA374018022C2E99010442B
:1020A400E0F8740128F074C428F582E4340FF58351
:1020B400E0F5C1901044E0C394804002E4F0E9A24A
:1020C400E092AFD083D082D0E0FBD0E0FAD0E0F948
:1020D400D0E0F8D0D0D0E032FFFFFFFFFFFFFFFFDA
:1020E400C082C0839061907404F0A37448F0A37418
:1020F40002F09061807440F09061BC7403F09061D0
:10210400877419F0906265741BF090619C740DF0F3
:1021140090619A7433F0A37455F09061A0743AF00E
:10212400900814E064017009C29190049D74678062
:102134000590049D7461F09020E2E493906186F030
:102144009020DCE493F46027E493540FF8906185C5
:10215400E0686012E5C654804449F5C6E59E547FA4
:10216400644970F8E8F053C680E59E547F70FA79AC
:1021740005120C8A022541C082C083E5A8F853A841
:102184007E906181E4F0A3F0A3F0C2BA539AFEC238
:1021940089759B00C2C275E90075910075BF007511
:1021A400A91175B905906181F0A374C0F0A3E4F09E
:1021B400D2BA439A0174805842A8022541C082C011
:1021C4008374F812166090049BE0F8A3E0F9E849E0
:1021D40070030222EF90049BE05440602379088549
:1021E4001882851983AA82AB83120AAA851882856C
:1021F4001983AA82AB8312079290049BE054BFF028
:10220400E054806010790C7A387B08120AAA900492
:102214009BE0547FF0E0A2E0503190619A7433F077
:10222400A37455F09061A0743AF0900814E064012E
:102234007009C29190049D7467800590049D746137
:10224400F012079890049BE054FEF0E054026031D1
:1022540090619A743FF0A3745AF09061A0747FF077
:10226400900814E064017009D29190049D74718007
:102274000590049D746AF012079890049BE054FD45
:10228400F0E0540460139020E0E493906186F0122F
:10229400079E90049BE054FBF0E0540860139020E8
:1022A400E1E493906186F012079E90049BE054F75A
:1022B400F0E0541060139020E2E493906186F012F1
:1022C400079E90049BE054EFF0E05420600A12074C
:1022D4009E90049BE054DFF0A3E05401600D1209CA
:1022E400B41207A490049CE054FEF074081216760D
:1022F40002254174EC1216EE74F4121660851882ED
:10230400851983AC82AD837583867582107404123B
:1023140015739020E093F46003022484907808E01D
:10232400C39402500302246474041216CAAC82AD2E
:10233400837583857582B374081215738518828535
:10234400198385821285831374041216CAAC82AD74
:1023540083750EFF750FFF7FFF7E00750C48750DAA
:1023640078801574086E70030223F774096E700385
:102374000223F7740A6E607B850C82850D837808CE
:102384001215188C828D83A909E50AC9F88810747E
:10239400187808121433E5104508F8C3E098A3E050
:1023A40099850C82850D83780812151840188C8243
:1023B4008D8374187808121433E5104508F8E0C3C7
:1023C40098F8A3E0801C74187808121433E51045BB
:1023D40008FAE9FB8C828D83E0F8A3E0F9EAC3985C
:1023E400F8EB99F9C3E8950EE9950F5006880E8924
:1023F4000FEEFF0EE50C2404F50CE50D3400F50D8D
:10240400EEC39413500302236774FF650E700474C3
:10241400FF650F60238F087402780812164D744804
:102424002508F58274783509F5837808121518851E
:102434001282851383E508F0EC24020C0CED3400C1
:10244400FD851282851383A3858212858313740C00
:102454001216CAE5826C7003E5836D60030223558E
:10246400750801750900780812190174021216CA58
:10247400AC82AD837A387B08120FDE7402121676B2
:10248400740C1216767F0C0217C0C082C083906150
:10249400AE7468F0A3746AF090624574FBF0A30410
:1024A400F053F4FD43FE029008147401F09061A00F
:1024B400E0643A90619A70237433F0A37455F090F9
:1024C40061A0743AF0740164017009C29190049D92
:1024D4007467802890049D74618021743FF0A37414
:1024E4005AF09061A0747FF0740164017009D29174
:1024F40090049D7471800590049D746A8000F002BC
:102504002541C082C0839007F2E0640170159007F2
:10251400F8E064016009E0700AA3E06401700479E2
:102524000C8012900809E06401700890080FE064C0
:102534000160EC7900022541E0F9121FE0D083D05C
:102544008202011FC082C0839007FC7425F09007AB
:10255400FA7401F0A3E4F07A01FB120C069007E888
:10256400E02416F8A3E03400F98882898374D8F053
:10257400A37409F09007F9E0640170169007F8E07D
:1025840070107901120C66120C36120C607900126C
:102594000C7280A9C082C08374FA1216609007F18D
:1025A400E0640170081209C09007F1E4F075E1F1EC
:1025B4009007E8E02415F8A3E03400F988828983C1
:1025C4007401F09007F3E0640170769085DCC082BA
:1025D400851882851983AC82AD83758385D0827416
:1025E4000612157375D90D9007EAE0C4333354C04D
:1025F4004403F5D978E8790788828983A3A3A3E003
:10260400F5D988828983A3A882A983E864EE70033C
:10261400E9640770E3851882851983A882A98388F1
:10262400828983E0F5D9A3A882A98374061216CA05
:10263400E582687003E5836970E575E19579018049
:10264400027900120C0C9011D17422F0A3740BF0D7
:10265400A37428F0A3740BF0A37422F0A3740BF0FA
:10266400A37422F0A3740BF0A374F2F0A3740AF021
:10267400A374F2F0A3740AF0A3742EF0A3740BF005
:102684009011DF74F2F0A3740AF0A374F2F0A3744F
:102694000AF0A374F2F0A3740AF0A374F2F0A37422
:1026A4000AF0A374F2F0A3740AF0A374F2F0A37412
:1026B4000AF09007EAE0F97AEB7B07120BE890073F
:1026C400FCE0F9121FE07901120C12908614121525
:1026D40036120C2A90862C121536120BF47900123D
:1026E4000C7E9007E8E02414F8A3E03400F9888213
:1026F40089837416F09004997405F0040222F1742D
:10270400F71216EE8908A808E875F006A4C8AAF01E
:102714002AF974C928FE740439FF900801E0F97A93
:10272400027B08120BE890080FE0701A7900120C73
:10273400489007DBE0700B79007ADC7B07120BEE24
:102744008009790180F37901120C4875E1F175D99A
:1027540023900801E0C4333354C04405F5D978FF0D
:10276400790788828983A3A3A3E0F5D98882898322
:10277400A3A882A983E864057003E9640870E3757B
:10278400D90075D90075D90075D90075D90075D9E6
:1027940000EEF8EFF9E82404FAE93400FBE8242217
:1027A400F582E93400F583E0F5D988828983A3A80A
:1027B40082A983EA687002EB6970E2EEF8EFF9E847
:1027C40024031AE93400FBE82426F582E93400F5F1
:1027D40083E0F5D988828983A3A882A983EA6870F3
:1027E40002EB6970E2EE242BF582EF3400F583E00E
:1027F400F5D9EEF8EFF9E824021AE93400FBE824ED
:102804002CF582E93400F583E0F5D988828983A325
:10281400A882A983EA687002EB6970E2EEF8EFF926
:10282400E8242EF582E93400F583E0F5D98882891D
:1028340083A3A882A983EA687002EB6970E2EEF8C8
:10284400EFF9E82430F582E93400F583E0F5D9881E
:10285400828983A3A882A983EA687002EB6970E283
:10286400EEF8EFF9E82432F582E93400F583E0F577
:10287400D988828983A3A882A983EA687002EB6954
:1028840070E2EEF8EFF9E824050A0A0AE93400FBDD
:10289400E8245DF582E93400F583E0F5D98882897E
:1028A40083A3A882A983EA687002EB6970E2EE242C
:1028B40037F582EF3400F583E0541FF8EE242AF54F
:1028C40082EF3400F583E0C43354E048F5D975E170
:1028D400959011D174F8F0A3740AF0A374FEF0A3D8
:1028E400740AF0A374F2F0A3740AF0A374F2F0A3D0
:1028F400740AF0A374F2F0A3740AF0A374F2F0A3C0
:10290400740AF0A37404F0A3740BF09011DF74F252
:10291400F0A3740AF0A374F2F0A3740AF0A374F29F
:10292400F0A3740AF0A374F2F0A3740AF0A374F28F
:10293400F0A3740AF0A374F2F0A3740AF090080EE2
:10294400E0F9121FE0908614121536120C2A9086B4
:102954002C121536120BF490600DE4F07901120C70
:102964007E9004997406F0022F5E74EC1216EE90B9
:1029740007FFE0F8A3E0F5838882A3A3781012157B
:1029840018900810E0FAF875F006A4C8ACF02CF919
:1029940074F728F582740439F583E0FEA3E0FFEEB2
:1029A400C333FEEF33FF8E0CF50D750E00750F006B
:1029B40085100885110985120A85130B9086047801
:1029C4000812147E78081218FD85100885110985EF
:1029D400120A85130B7808790C12146B7810790C91
:1029E4001213C4E4F50EF50F7808790C1214A48AB6
:1029F4000C750D007403780C12164D7808790C12BE
:102A0400146B90861C78081214DFAA08AB09AC0A70
:102A1400AD0B121F7874041216768A088B09A80865
:102A2400A909C3EE98EF995006E82EF8E93FF9E8B2
:102A340090600EF0E9A3F0EEA3F0EFA3F090600D28
:102A440074C1F0022489C082C0839007E8E0F8A32F
:102A5400E0F5838882A3A3A3A3A3A3E4F0A3F09047
:102A640007FC02253CC082C0839007FFE0F8A3E086
:102A7400F5838882A3A3A3A3A3A3E4F0A3F09008FF
:102A84000E02253C02011F74F61216EE9061D0E08E
:102A9400F87480C398FCEA2483F582EB3400F58350
:102AA400E06004780480027800E8240EF8ECC3980F
:102AB4005003022C0C7E0C900818E4F0EA2477F5FD
:102AC40082EB3400F583E0900819F0EA2478FCEBFB
:102AD4003400FD781A79087F028C828D83E0888225
:102AE4008983F08C828D83A3AC82AD8388828983B1
:102AF400A3A882A9831FEF70E0EA247AFCEB3400D8
:102B0400FD7F028C828D83E088828983F08C828DA4
:102B140083A3AC82AD8388828983A3A882A9831FFF
:102B2400EF70E0EA247CFCEB3400FD7F028C828DA4
:102B340083E088828983F08C828D83A3AC82AD8309
:102B440088828983A3A882A9831FEF70E0EA247E88
:102B5400FCEB3400FD7F028C828D83E088828983C4
:102B6400F08C828D83A3AC82AD8388828983A3A8F1
:102B740082A9831FEF70E0EA2475FCEB3400FD8A20
:102B8400828B83A3A3A3A3A3E0F508A3E0F5098C98
:102B9400828D83E02508F0A3E03509F07F028C8262
:102BA4008D83E088828983F08C828D83A3AC82AD8F
:102BB4008388828983A3A882A9831FEF70E0EA2413
:102BC40083F582EB3400F583E06019750818750904
:102BD4000878081219017C0C7903120AE6740212AF
:102BE40016767E1074012EF5D975D9037582187581
:102BF4008308EEFFE0F5D9A31FEF70F875E195792E
:102C040004120C3079018002790002314074F6120A
:102C140016EE9061D0E0F87480C398FCEA2483F542
:102C240082EB3400F583E06004780480027800E8E5
:102C3400240AF8ECC3985003022D01750808900883
:102C4400187401F07CE27D07781979087E058C827E
:102C54008D83E088828983F08C828D83A3AC82ADDE
:102C64008388828983A3A882A9831EEE70E0EA2464
:102C740081FCEB3400FD8A828B83A3A3A3A3A3E08E
:102C8400FEA3E0FF8C828D83E02EF0A3E03FF07E74
:102C9400028C828D83E088828983F08C828D83A369
:102CA400AC82AD8388828983A3A882A9831EEE7037
:102CB400E0EA2483F582EB3400F583E0601A7508BA
:102CC4001875090878081219017C087903120AE6B4
:102CD400740212167675080C74012508F5D975D995
:102CE40003758218758308AE08E0F5D9A31EEE704B
:102CF400F875E1957904120C3079018002790002AB
:102D0400314074F71216EEEAFEEBFF9061D0E060FA
:102D140003022DFD75D91875D90375D903EEF8EFA3
:102D2400F9E82408FAE93400FBE8249CF582E93444
:102D340000F583E0F5D988828983A3A882A983EA70
:102D4400687002EB6970E2EEF8EFF9E82402FAE940
:102D54003400FBE824A4F582E93400F583E0F5D9D6
:102D640088828983A3A882A983EA687002EB6970C8
:102D7400E2EE2494F582EF3400F583E5822408F82A
:102D8400E5833400F9E0F5D9A3E865827003E965C9
:102D94008370F2EE2488F582EF3400F583E5822413
:102DA40004F8E5833400F9E0F5D9A3E865827003FB
:102DB400E9658370F275E1957908EE2494FAEF34AD
:102DC40000FB120A9E7904EE2488FAEF3400FB1209
:102DD4000A9E7904120C30EE2470F582EF3400F56B
:102DE40083E0F8A3E0F9EE2472F582EF3400F58372
:102DF400E8F0A3E9F0790180027900022F5E74F60D
:102E04001216EEEAFEEBFF9008187406F075081827
:102E140075090878081219017C017903120AE6740D
:102E24000212167675D90675D9037582187583084A
:102E3400E0F5D9A3E582641D7004E583640870F0AD
:102E440075E195900499E06408701EEE2470F58293
:102E5400EF3400F583E0F8A3E0F9EE2472F582EF95
:102E64003400F583E8F0A3E9F0790102314074F607
:102E74001216EEEAFEEBFF9061D0E0705E90081847
:102E8400740AF075081875090878081219017C018C
:102E94007903120AE6740212167675D90675D903F7
:102EA400758218758308E0F5D9A3E582641D700462
:102EB400E583640870F075E195EE2470F582EF34D3
:102EC40000F583E0F8A3E0F9EE2472F582EF340014
:102ED400F583E8F0A3E9F07901800279000231403A
:102EE40074F61216EEEAFEEBFF9061D0E07066789D
:102EF40001900818740BF0900499E0640770197538
:102F0400081875090878081219017C017903120A56
:102F1400E674021216767805740128F5D975D9037A
:102F2400758218758308E8FAE0F5D9A31AEA70F8EF
:102F340075E195EE2470F582EF3400F583E0F8A393
:102F4400E0F9EE2472F582EF3400F583E8F0A3E9AA
:102F5400F07901800279000231407F010217C074C8
:102F6400F61216EEEAFEEBFF9061D0E0F87480C32F
:102F740098FAEE2483F582EF3400F583E060047858
:102F84000480027800E8240BF8EAC3985003023066
:102F9400397D099008187408F0EE24E5F8EF340040
:102FA400F97A197B087C0888828983E08A828B837A
:102FB400F088828983A3A882A9838A828B83A3AAA7
:102FC40082AB831CEC70E0EE2483F582EF3400F5D1
:102FD40083E0601D75081875090878081219017CCA
:102FE400097903EEFAEFFB120AE674021216767DF3
:102FF4000D74012DF5D975D9037582187583088D63
:1030040008E0F5D9A31508E50870F675E19579048B
:10301400120C30EE2470F582EF3400F583E0F8A34F
:10302400E0F9EE2472F582EF3400F583E8F0A3E9C9
:10303400F079018002790002314074F61216EEEA4A
:10304400FEEBFF9061D0E0F87480C398FAEE24831D
:10305400F582EF3400F583E06004780480027800A0
:10306400E82408F8EAC398500302313E7D0690082C
:1030740018740CF09004B6E0900819F07AB77B0449
:10308400781A79087C028A828B83E088828983F0AB
:103094008A828B83A3AA82AB8388828983A3A88232
:1030A400A9831CEC70E07AB97B047C028A828B834E
:1030B400E088828983F08A828B83A3AA82AB838887
:1030C400828983A3A882A9831CEC70E0EE2483F593
:1030D40082EF3400F583E0601D75081875090878DF
:1030E400081219017C067903EEFAEFFB120AE67462
:1030F400021216767D0A74012DF5D975D9037582ED
:10310400187583088D08E0F5D9A31508E50870F64D
:1031140075E1957904120C30EE2470F582EF3400D9
:10312400F583E0F8A3E0F9EE2472F582EF3400F5BC
:1031340083E8F0A3E9F07901800279007F020217A5
:10314400C074F61216EEEAFEEBFF9061D0E0F8745C
:1031540080C398FAEE2483F582EF3400F583E060AF
:1031640004780480027800E82404F8EAC398500341
:1031740002321F7802900818E8F0EE24F7F582EF87
:103184003400F583E0900819F0EE2483F582EF34DF
:1031940000F583E0601B7508187509087808121992
:1031A400017C027903EEFA120AE6740212167678AA
:1031B40006740128F5D975D90375821875830888B2
:1031C40008E0F5D9A31508E50870F675E195EE2435
:1031D40074F582EF3400F583E4F0EE2480F582EF99
:1031E4003400F583E4F0EE241DF582EF3400F5831A
:1031F400E4F0A3F07904120C30EE240DF582EF34E0
:1032040000F583E0F8A3E0F9EE2472F582EF3400D0
:10321400F583E8F0A3E9F0790180027900023140F6
:1032240074F61216EE9061D0E0F87480C398FCEA4C
:103234002483F582EB3400F583E060047804800293
:103244007800E82404F8ECC398405B7902900818ED
:103254007407F0EA24F8F582EB3400F583E0900873
:1032640019F0EA2483F582EB3400F583E0601875E5
:10327400081875090878081219017C0209120AE66F
:1032840074021216767906740129F5D975D9037575
:103294008218758308E9F8E0F5D9A318E870F87581
:1032A400E19579018002790002314074F51216EE3D
:1032B400E9FCA2AFE433F50AC2AF7D0080010DEA58
:1032C400246FF582EB3400F583E0F8EDC398501ACF
:1032D4008D08EA2508F8EB3400F9E8246BF582E957
:1032E4003400F583E06C70D68024EA246FF8EB3464
:1032F40000F9E0FEEA2EFAEB3400FBEA246BF582D7
:10330400EB3400F583ECF088828983E004F0E50A6D
:10331400A2E092AF7F030217C074F61216EEA2AFBA
:10332400E433FDC2AFEA246FF582EB3400F583E0A9
:1033340014F07C0060368C08EA2508F8EB3400F9B8
:10334400E8246CF582E93400F583E0C0E0E8246BFE
:10335400F582E93400F583D0E0F00CEA246FF582BD
:10336400EB3400F583E0F8ECC39840CAEA246EF528
:1033740082EB3400F58374FFF0EA246AF582EB34BF
:1033840000F583E4F0EDA2E092AF023140C082C0C8
:1033940083E5A8F8C2AFEA246BF582EB3400F58329
:1033A400E9F0EA246AF582EB3400F583E4F0E8A25C
:1033B400E792AF02254174F31216EEEAFEEBFFEC3E
:1033C400FAEDFB8A828B83A3A3A3A3E0541FF0EE40
:1033D4002436F582EF3400F583E4F0F50AEEFCEFD1
:1033E400FD8A828B83E0C0E0EC245DF582ED34003D
:1033F400F583D0E0F0750B00E50A33333354F8F568
:103404000C8A828B83E0F508750900E50B780812B5
:10341400162EE508A2E0502FEE2436F8EF3400F91A
:1034240088828983E0F508EE2508F508EF3400F575
:1034340009E5082438F582E5093400F583E50CF044
:1034440088828983E004F0050B050CE50BC394081E
:1034540040AF050A8A828B83A3AA82AB838C828DB8
:1034640083A3AC82AD83E50AC3940550030233E51C
:103474007F050217C074F71216EE9004C5E06403CA
:1034840070077A007B00022F5E7B0078C579048880
:10349400828983A3A3A3A3A3A3E06003023773EBEE
:1034A400F875F006A4C8AAF02AF974C928F87404B7
:1034B40039F988828983A3A37401F088828983A35C
:1034C400A3A3E4F0EB88828983A3A3A3A3F0E82455
:1034D40062F582E93400F5837401F0E82465F5822D
:1034E400E93400F583E4F0A3F0E82468F582E934D4
:1034F40000F5837401F088828983A3A3A3A3A3E4C2
:10350400F0A3F088828983A3A3A3A3A3A3A3F0A316
:10351400F0E8240FF582E93400F5837401F0E8241F
:1035240035F582E93400F583E4F09085FC12153614
:10353400E82418F582E93400F583121542E8241CC6
:10354400F582E93400F583E4F0E8241DF582E934DA
:1035540000F583E4F0A3F0E82480F582E93400F573
:1035640083E4F0E82474F582E93400F583E4F0E8B8
:103574002469F582E93400F5837480F0E8246AF55F
:1035840082E93400F583E4F0E8246FF582E934003D
:10359400F583E4F0E82467F582E93400F583E4F088
:1035A400E824EDF582E93400F583E4F0E824EEF54F
:1035B40082E93400F583E4F0E824EFF582E934008D
:1035C400F583E4F0E824F0F582E93400F583E4F0CF
:1035D400E824F1F582E93400F583E4F0A3F0E8246B
:1035E400F3F582E93400F583E4F0A3F0E824F6F57A
:1035F40082E93400F583E4F0E82483F582E93400B9
:10360400F583E4F0E824D3F582E93400F583E4F0AB
:10361400E824D4F582E93400F583E4F09085FC12C3
:103624001536E824D5F582E93400F5831215429065
:1036340085FC121536E824D9F582E93400F58312A5
:103644001542E824DFF582E93400F583E4F0E82448
:10365400E1F582E93400F583E4F0E824DDF582E95C
:103664003400F583E4F0E824E2F582E93400F583DC
:10367400E4F0E824E3F582E93400F583E4F0E82497
:10368400F9F582E93400F583E4F0A3F0E824FBF5CE
:1036940082E93400F583E4F0A3F0E824FDF582E93F
:1036A4003400F583E4F0A3F0E824FFF582E9340064
:1036B400F583E4F0A3F0E8FAE9FBEA2404FCEB3434
:1036C40000FDEA246BF582EB3400F58374FFF08A85
:1036D400828B83A3AA82AB83EC6A7002ED6B70E2E7
:1036E400E8FAE9FB7CE27D078C828D83E0C0E0EAA6
:1036F400245DF582EB3400F583D0E0F08C828D8379
:10370400A3AC82AD838A828B83A3AA82AB83EC644D
:10371400E77003ED640770D0E8FAE9FB7CAC7D0444
:103724008C828D83A3E0C0E0EA24E5F582EB3400CB
:10373400F583D0E0F08C828D83A3AC82AD838A8242
:103744008B83A3AA82AB83EC64B47003ED6404702E
:10375400CF9004C5E004F06401700D88828983A3CE
:10376400A3A3A3E09004C7F0E8FAE9FB02348A0BB0
:10377400E82406F8E93401F9EBC394034003023466
:1037840086023493C082C0838A828B83A3A3A3E07E
:10379400600F8A828B83A3A3A3E4F09004C6E01491
:1037A400F09004C5E014F070069004C774FFF08A2A
:1037B400828B83A3A3E4F09007E7E0700D9004C626
:1037C400E0640170057900120BFA022541C082C041
:1037D4008378C5790488828983A3A3A3A3A3A3A31D
:1037E400E4F088828983A3A3A3A3A3A3F0E8240617
:1037F400F8E93401F9E864D77003E9640770D690F6
:1038040004C5E4F0A3F0A374FFF075E1F1022541CF
:1038140074F31216EE750800750900750C00750A2C
:10382400C9750B04AE0AAF0B8E828F83A3A3A3E0EA
:10383400603FE5084509700AEEF8EFF98808890940
:10384400802F850882850983E0F8A3E0F5838882C8
:10385400A3A31219148E828F83E0F8A3E0F5838862
:1038640082A3A3121536121F1B7404121676E96084
:10387400C7050CEE2406F50AEF3401F50BE50CC37D
:10388400940340A0850882850983A3A3A3A3E0F938
:1038940002347474F61216EE78FF79FF7508007E10
:1038A400C97F04EEFCEFFD8C828D83A3A3A3E060AB
:1038B4006474FF68700374FF697025EC2474F582E6
:1038C400ED3400F583E064017011EC247AF582EDA7
:1038D4003400F583E0F8A3E0F9803AEC242E80ED7F
:1038E400EC2474F582ED3400F583E064017014EC8B
:1038F400247AF582ED3400F583C3E098A3E099506F
:103904001480C7EC242EF582ED3400F583C3E098CF
:10391400A3E09940C60508EE2406FEEF3401FFE556
:1039240008C3940350030238A7C3EA98EB994004F0
:10393400E8FAE9FB02314074F61216EEEAFEEBFFF8
:103944008E828F83A3A3A3E0600F8E828F83A3A3B1
:10395400A3E4F09004C6E014F09004C5E014F07001
:10396400069004C774FFF08E828F83A3A3E4F090C3
:1039740007E7E0700D9004C6E06401700579001259
:103984000BFAEE2465F582EF3400F583E0F8A3E04A
:10399400F9E8496029EE2465F8EF3400F9880889CC
:1039A400098882F583E0FCA3E0FD9004C7E0FA7B7C
:1039B400001207C8850882850983E4F0A3F0EEFAB3
:1039C400EFFB120B6402314074F71216EEEAFEEBC1
:1039D400FF8E828F83A3A3A3A3E0FA7B00120810B7
:1039E400EEFAEFFB120A5C120B46022F5EC082C095
:1039F400837C007AC97B04EAF8EBF988828983A383
:103A0400A3A3E0601EE8246FF582E93400F583E0A7
:103A14006011E8246BF582E93400F583E0700479E1
:103A24000180110CEA2406FAEB3401FBECC3940385
:103A340040C57900022541C082C08378AC790488EE
:103A4400828983A3E4F088828983A3A882A983E876
:103A540064B47003E9640470E69004AD7401022553
:103A640002C082C08374FC1216609085FC12153665
:103A7400851882851983121542120AA4E9851882D1
:103A8400851983F0120AA474011216CAE9F0120A05
:103A9400A474021216CAE9F08518828519831215D6
:103AA4003674040222F174F61216EEEAFEEBFFEC11
:103AB4002403F8ED3400F988088909EC2407F8EDAB
:103AC4003400F9E8FCE9FD8C828D83E0F8A3E0F989
:103AD400850882850983E0FAA3E0FB1215D5EE245C
:103AE4000DF582EF3400F583E8F0A3E9F08C828DC4
:103AF40083E0F8A3E0F9850882850983E0FAA3E06E
:103B0400FB1215D58B09EA45096013EE240DF582E5
:103B1400EF3400F583E02401F0A3E03400F0023137
:103B24004074F61216EEEAFEEBFFEE242EF582EF59
:103B34003400F583E0FCA3E0FD780079FAECFAEDBB
:103B4400FB1215D5EE2470F582EF3400F583E8F00E
:103B5400A3E9F0780079FAECFAEDFB1215D58B099C
:103B6400EA45096013EE2470F582EF3400F583E032
:103B74002401F0A3E03400F002314074F01216EE98
:103B8400EAFEEBFF74101216CA7808121518120B0D
:103B9400CA8A0C8B0D8C0E8D0F908600780C121433
:103BA4007E90861C780C1214DF780C1218FD8E821D
:103BB4008F83E0F8A3E0F5838882A3A3121536125D
:103BC4001F1B7404121676E96003023CCC8E828FAC
:103BD40083E02402F8A3E03400F9E8FAE9FB8A82DE
:103BE4008B83780812149190861C78081215188A11
:103BF400828B8378081214F2EE240BF582EF3400E2
:103C0400F583C082C0838E828F83A3A3A3A3A3E082
:103C14002401F8A3E03400F9D083D082E068700373
:103C2400A3E06970057901023CCE8E828F83A3A341
:103C3400A3A3A3A3A3E02401F0A3E03400F0EE24A3
:103C440074F582EF3400F583E064017036EE247578
:103C5400F582EF3400F583E0F8A3E0F98E828F83D8
:103C6400A3A3A3A3A3A3A3E0687003A3E0697013B1
:103C7400EE2475F582EF3400F583E02401F0A3E02F
:103C84003400F0EE2480F582EF3400F583E0640123
:103C94007036EE2481F582EF3400F583E0F8A3E07A
:103CA400F98E828F83A3A3A3A3A3A3A3E0687003C5
:103CB400A3E0697013EE2481F582EF3400F583E00C
:103CC4002401F0A3E03400F079007F080217C074E7
:103CD400F71216EE9004C7E0F875F006A4C8AAF02F
:103CE4002AF974C928FE740439FF8028EE2465F883
:103CF400EF3400F988828983E0FCA3E0FD8882899F
:103D040083E4F0A3F08E828F83A3A3A3A3E0FA7BC2
:103D1400001207C8EE2465F582EF3400F583E0F85D
:103D2400A3E0F9E849604FEE2464F582EF3400F52E
:103D340083E0F5087808121905EE2463F582EF3460
:103D440000F583E0F9EE2465F582EF3400F583E0B5
:103D5400FCA3E0FDEEFAEFFB120A92740112167650
:103D6400E96089EE2465F582EF3400F583E0F8A379
:103D7400E0F9E84970137C007D008E828F83A3A351
:103D8400A3A3E0FA7B001207C8022F5E74F2121696
:103D9400EEEAFEEBFF890A740E1216CAE0FAEE246C
:103DA40062F582EF3400F583E064016003023E5C57
:103DB4009061D0E0F87480C398F50CEE2483F5820A
:103DC400EF3400F583E06004780480027800890809
:103DD400E928F8E43400F9E824020808E93400F991
:103DE400E50C98E499A2D265D0334068EA70057571
:103DF4000B028003750B01E0603975090078081225
:103E040019017A187B08120AC8740212167675080A
:103E1400187509087808121901AC0AA90BEEFAEF13
:103E2400FB120AE674021216767404250AF50A7C5B
:103E3400187D087401250AF5D9850BD9E50A600DAA
:103E44008C828D83F8E0F5D9A318E870F875E195B4
:103E5400790080067907800279FF7F060217C0C0C7
:103E640082C083E960208C828D83E08A828B83F018
:103E74008C828D83A3AC82AD838A828B83A3AA8236
:103E8400AB8319E970E0ECFAEDFB022541C082C076
:103E9400837869790888828983A3A3A3A3A3A3E46D
:103EA400F088828983A3A3A3A3A374FFF0E8241852
:103EB400F8E93400F9E864C97003E9640870D6903D
:103EC400086B74FFF090086AE4F0900869F09008B9
:103ED4006CF0A3F00255B974EC1216EE90086CE085
:103EE400F508A3E0F509E508450970061209A802DA
:103EF4004B88850882850983E014601814601524B2
:103F0400FE601124C4700302464A24C070030246B2
:103F14004A024B88E0F9120B588A0A8B0BAE0AAF9F
:103F24000B9004C6E070030242C8120A50E9F87507
:103F3400F006A4C8AAF02AF974C928F50C74043947
:103F4400F50D850C82F583E0F50AA3E0F50BAC0AC8
:103F5400FDEEFAEFFB120B52E9F50E7402650E70DA
:103F6400030242878E828F83E024FE600A24FE705F
:103F74000302417F024B88EE65087003EF65096018
:103F8400211209C69007F9E0640170169007F8E061
:103F940070107901120C66120C36120C6079001242
:103FA4000C6CE50E6021E5082415F582E509340062
:103FB400F583E060129007F4E0F8A3E0F9A3E06869
:103FC4007003A3E0697026120BCA8A0C8B0D8C0E49
:103FD4008D0F908624780C12147E90861C780C1217
:103FE40014DF8E828F83A3A3780C121527E508248F
:103FF40015F582E5093400F583E0640160030240AD
:10400400A5850A82850B83A3A3780C1215189086C4
:104014003C780C12147E780C1218FD8E828F83A3C8
:10402400A3C082C0839007F6E0F508A3E085080CDE
:10403400F50DE4F50EF50FD083D082780C12147EC2
:10404400AA0CAB0DAC0EAD0F121F1B740412167626
:10405400E9703C8E828F83A3A3C082C0839007F64D
:10406400E0F508A3E0F509E4F50AF50BD083D08266
:10407400780812147E90861C78081214DFEE240E41
:10408400F582EF3400F5837808121527024177850D
:104094000A82850B83A3A3780812151890863C80A6
:1040A400CFEE240EF582EF3400F5831219148E82BC
:1040B4008F83A3A3121536121F1B7404121676E9FC
:1040C40064016003024177850A82850B83A3A37888
:1040D4000C12151890863C780C12147E780C121869
:1040E400FD8E828F83A3A3C082C0839007F6E0F580
:1040F40008A3E085080CF50DE4F50EF50FD083D088
:1041040082780C12147EAA0CAB0DAC0EAD0F121FEC
:104114001B7404121676E9701F8E828F83A3A3C0CA
:1041240082C0839007F6E0F508A3E0F509E4F50AF8
:10413400F50BD083D0828010850A82850B83A3A3DC
:10414400780812151890863C780812147E90861C04
:1041540078081214DFEE240EF582EF3400F583782C
:10416400081215279007FCE0642770047425800268
:10417400E004F090086B7402024B80EE6508700353
:10418400EF65096031900810E0F91209CC850882C6
:10419400850983E06402701E9007F9E064017016DB
:1041A4009007F8E070107900120C66120C36120CAD
:1041B400607901120C6CE50E601290080AE0F8A315
:1041C400E0F9A3E0687003A3E0697026120BCA8AC1
:1041D4000C8B0D8C0E8D0F908624780C12147E900F
:1041E400861C780C1214DF8E828F83A3A3780C12A2
:1041F4001527850A82850B83A3A3780C12151890C2
:10420400863C780C12147E780C1218FD8E828F83F3
:10421400A3A3C082C08390080CE0F508A3E085083E
:104224000CF50DE4F50EF50FD083D082780C121442
:104234007EAA0CAB0DAC0EAD0F121F1B740412162C
:1042440076E9701F8E828F83A3A3C082C0839008F7
:104254000CE0F508A3E0F509E4F50AF50BD083D0EA
:10426400828010850A82850B83A3A378081215180F
:1042740090863C780812147E90861C78081214DF0D
:10428400024B69850882850983E0640270139007F4
:10429400F9E06401700B9007F8E070057900120CE6
:1042A40066E50C2404FEE50D3400FF8E828F83E066
:1042B400F9120B8E8E828F83E09004C7F0AA0AABAA
:1042C4000B024B85EE65087003EF65098E828F83C0
:1042D40060030244ACE024FE600A24FE700302443E
:1042E40007024B81EE2415F582EF3400F583E0607C
:1042F400419007F4E0F8A3E0F9A3E0687003A3E0B9
:1043040069602F120BCA8A088B098C0A8D0B908660
:104314006C780812147E78081218FD8E828F83A39D
:10432400A3121536121F1B7404121676E9600302D9
:104334004B81120BCA8A088B098C0A8D0B90862438
:10434400780812147E90861C78081214DF8E828FEF
:1043540083A3A37808121527EE2415F582EF340001
:10436400F583E0640170348E828F83A3A3C082C07E
:10437400839007F6E0F508A3E0F509E4F50AF50BE8
:10438400D083D082780812147EEE240EF582EF34A6
:1043940000F5837808121527024B81EE240EF5826E
:1043A400EF3400F5831219148E828F83A3A31215A0
:1043B40036121F1B7404121676E964016003024B63
:1043C400818E828F83A3A3C082C0839007F6E0F519
:1043D40008A3E0F509E4F50AF50BD083D082780848
:1043E40012147EEE240EF582EF3400F58378081261
:1043F40015279007FCE0642770057425024B80E0C4
:104404000480F990080AE0F8A3E0F9A3E0687003D7
:10441400A3E069602C120BCA8A088B098C0A8D0BE5
:1044240090866C780812147E78081218FD8E828F9C
:1044340083A3A3121536121F1B7404121676E97097
:1044440064EE2402F508EF3400F509120BCA8A0C55
:104454008B0D8C0E8D0F908624780C12147E908612
:104464001C780C1214DF850882850983780C1215D8
:1044740027850882850983C082C08390080CE0F5F3
:1044840008A3E0F509E4F50AF50BD083D082780897
:1044940012147EEE240EF582EF3400F583780812B0
:1044A40015271209D2024B81E024FE600A24FE7013
:1044B40003024572024B881209C69007F9E06401B1
:1044C40070169007F8E070107901120C66120C3621
:1044D400120C607900120C6C9007F4E0F8A3E0F978
:1044E400A3E0687003A3E069602F120BCA8A088BEB
:1044F400098C0A8D0B90866C780812147E78081249
:1045040018FD8E828F83A3A3121536121F1B740409
:10451400121676E96003024177EE2402F508EF34BF
:1045240000F509120BCA8A0C8B0D8C0E8D0F908628
:1045340024780C12147E90861C780C1214DF8508E3
:1045440082850983780C121527850882850983C022
:1045540082C0839007F6E0F508A3E0F509E4F50AC4
:10456400F50BD083D082780812147E024081900823
:1045740010E0F91209CC850882850983E064027091
:104584001E9007F9E0640170169007F8E070107946
:1045940000120C66120C36120C607901120C6C902D
:1045A400080AE0F8A3E0F9A3E0687003A3E06960F7
:1045B4002C120BCA8A088B098C0A8D0B90866C7896
:1045C4000812147E78081218FD8E828F83A3A3121A
:1045D4001536121F1B7404121676E97066EE240257
:1045E400F8EF3400F988088909120BCA8A0C8B0D7C
:1045F4008C0E8D0F908624780C12147E90861C7875
:104604000C1214DF850882850983780C121527851E
:104614000882850983C082C08390080CE0F508A352
:10462400E0F509E4F50AF50BD083D082780812147A
:104634007EEE240EF582EF3400F5837808121527F8
:104644001209D2024B7B9004C6E070030249E012C7
:104654000A50E9F875F006A4C8AAF02AF974C92822
:10466400F510740439F511851082F583E0F508A37B
:10467400E0F5099004C7E0F875F006A4C8AAF02A8A
:10468400F974C928F50C740439F50D90086AE054DE
:10469400077003024909A3E0F9120B588A0A8B0B2D
:1046A400AE0AAF0BAC08AD09120B52E9F50E740259
:1046B400650E7003024909850C82850D83A3A3A3AB
:1046C400A3E0F875F08AA4C8AAF02AF974CE28F5F4
:1046D4000A740839F50BAA0AFB120B82AA0AAB0B5F
:1046E400120B7C75128075130078121219017C006C
:1046F4007D60E50A2406FAE50B3401FB120AC8744E
:1047040002121676A80AA90B906195E0C0E0E8248D
:1047140086F582E93401F583D0E0F0906196E0C03B
:10472400E0E82487F582E93401F583D0E0F0906174
:1047340097E0C0E0E82488F582E93401F583D0E00D
:10474400F0906198E0C0E0E82489F582E93401F54D
:1047540083D0E0F08E828F83E024FE600A24FE7012
:10476400030248440249091209C69007F9E06401AA
:1047740070119007F8E0700B120C36120C6079007F
:10478400120C6CE50E60129007F4E0F8A3E0F9A3B4
:10479400E0687003A3E0697026120BCA8A0C8B0DC3
:1047A4008C0E8D0F908624780C12147E90861C78C3
:1047B4000C1214DF8E828F83A3A3780C1215278525
:1047C4000882850983A3A3780C12151890863C7877
:1047D4000C12147E780C1218FD8E828F83A3A3C052
:1047E40082C0839007F6E0F50CA3E0F50DE4F50E26
:1047F400F50FD083D082780C12147EAA0CAB0DACCA
:104804000EAD0F121F1B7404121676E9701F8E82F0
:104814008F83A3A3C082C0839007F6E0F508A3E0CA
:10482400F509E4F50AF50BD083D08280108508825F
:10483400850983A3A3780812151890863C02407456
:10484400900810E0F91209CCE50E601290080AE015
:10485400F8A3E0F9A3E0687003A3E0697026120BE3
:10486400CA8A0C8B0D8C0E8D0F908624780C121432
:104874007E90861C780C1214DF8E828F83A3A3781B
:104884000C121527850882850983A3A3780C1215B9
:104894001890863C780C12147E780C1218FD8E82C7
:1048A4008F83A3A3C082C08390080CE0F50CA3E01F
:1048B400F50DE4F50EF50FD083D082780C12147E3A
:1048C400AA0CAB0DAC0EAD0F121F1B74041216769E
:1048D400E9701F8E828F83A3A3C082C08390080CCB
:1048E400E0F508A3E0F509E4F50AF50BD083D082DE
:1048F4008010850882850983A3A37808121518906F
:10490400863C024277E510650C7004E511650D7074
:10491400030249D9850C82850D83A3A3A3E0700308
:104924000249BD850C82850D83A3A3A3A3E0F8757A
:10493400F08AA4C8AAF02AF974CE28FE740839FFB4
:10494400EEFAEFFB120B82EEFAEFFB120B7C750A08
:1049540080750B00780A1219017C007D60EE240634
:10496400FAEF3401FB120AC87402121676906195AC
:10497400E0C0E0EE2486F582EF3401F583D0E0F068
:10498400906196E0C0E0EE2487F582EF3401F58370
:10499400D0E0F0906197E0C0E0EE2488F582EF3437
:1049A40001F583D0E0F0906198E0C0E0EE2489F551
:1049B40082EF3401F583D0E0F0E5102404FEE51124
:1049C4003400FF8E828F83E0F9120B8E8E828F83E8
:1049D400E09004C7F0AA08AB09024B8590086AE08E
:1049E40054077003024B88A3E0F9120B588A088B12
:1049F40009AE08AF098E828F83E024FE600A24FE8C
:104A04007003024ACF024B881209C69007F9E0648A
:104A14000170169007F8E070107901120C66120C00
:104A240036120C607900120C6C9007F4E0F8A3E0E5
:104A3400F9A3E0687003A3E069602C120BCA8A082A
:104A44008B098C0A8D0B90866C780812147E78087A
:104A54001218FD8E828F83A3A3121536121F1B74A6
:104A640004121676E97061EE2402F508EF3400F5BD
:104A740009120BCA8A0C8B0D8C0E8D0F908624782C
:104A84000C12147E90861C780C1214DF8508828523
:104A94000983780C121527850882850983C082C092
:104AA400839007F6E0F508A3E0F509E4F50AF50BB1
:104AB400D083D082780812147EEE240EF582EF346F
:104AC40000F5837808121527024177900810E0F961
:104AD4001209CC90080AE0F8A3E0F9A3E068700397
:104AE400A3E069602C120BCA8A088B098C0A8D0B0F
:104AF40090866C780812147E78081218FD8E828FC6
:104B040083A3A3121536121F1B7404121676E970C0
:104B140063EE2402F8EF3400F988088909120BCAFD
:104B24008A0C8B0D8C0E8D0F908624780C12147EBB
:104B340090861C780C1214DF850882850983780C12
:104B4400121527850882850983C082C08390080CCA
:104B5400E0F508A3E0F509E4F50AF50BD083D0826B
:104B6400780812147EEE240EF582EF3400F5837873
:104B7400081215271209D290086B7404F0EEFAEFAC
:104B8400FB120B4C7F0C0217C074F01216EEEAFEF7
:104B9400EBFFEE2402F8EF3400F988088909EE24CB
:104BA40006F8EF3400F9880A890B8882F583121914
:104BB40018850882850983121536120BA674021211
:104BC4001676850A82850B83121918850882850951
:104BD40083121536120B9A7402121676EE240EF511
:104BE40082EF3400F583121536120BAC8E828F835C
:104BF400E06440701CEE2412F8EF3400F9888289D6
:104C040083E0906064F088828983A3E0906065808B
:104C140006906064E4F0A3F090086CEEF0A3EFF06B
:104C2400EE2416F582EF3400F583E0F8A3E0F58373
:104C340088821216EC906054E4F0A3F0A3F0A3F081
:104C4400A3F0A3F0A3F0A3F0A3F0A3F0A3F0A3F0C8
:104C5400906182E0C2E6F07591BFEE2415F582EF13
:104C64003400F583E064017003120BDCE5E170FCB1
:104C7400EE2414F582EF3400F583E0F46003E0F5EC
:104C8400E1EE2415F582EF3400F5837401F090040D
:104C94009FE06401706F120BCA8A088B098C0A8D1D
:104CA4000B78081218FD8E828F83A3A31215361277
:104CB4001F7874041216768A088B098C0A8D0B905F
:104CC4008640780C1215187808790C121344740372
:104CD4007808121433E50824F4F508E5093401F5DD
:104CE40009900816E060031211A6E4F50AF50B78A2
:104CF400081218FD7A207B00900498E0F912124EF5
:104D040074041216767F080217C074EC1216EEEAC9
:104D1400FEEBFF8C088D09EE4F70057902024E03FD
:104D2400120BCA8A0C8B0D8C0E8D0F908648780C52
:104D340012147E90861C780C1214DF8E828F83E00E
:104D44006402701F9007F4E0F8A3E0F9A3E0687030
:104D540003A3E06970248E828F83A3A3780C1215B9
:104D6400278017E06404701290080AE0F8A3E0F9C1
:104D7400A3E0687003A3E06960DC780C1218FD8579
:104D84000882850983A3A3121536121F78740412AE
:104D940016768A108B118C128D139086547810120B
:104DA40013254003024D1F850882850983A3A37838
:104DB40008121518908674780812147E7808121850
:104DC400FD8E828F83A3A3121536121F1B74041247
:104DD4001676E96003024D1F908658780C12147EF3
:104DE400780C1218FD8E828F83A3A3121536121F1E
:104DF4001B7404121676E9700479008002790102AA
:104E04004B8874F01216EE890874FF65086003027B
:104E14004F9290086AE05407700302545E7A007857
:104E240069790888828983A3A3A3A3A3E064047097
:104E340050EA75F018A4F8A9F0746F28F582740884
:104E440039F583E0640170487A00786979088882CA
:104E54008983A3A3A3A3A3E064046003024EEA88A6
:104E6400828983A3A3A3A3A3A3E064017078EA7552
:104E7400F018A4F8A9F0746E28FA740839FB0254E7
:104E8400620AE82418F8E93400F9EAC39404409368
:104E94007A007869790888828983A3A3A3A3A3E00D
:104EA40064017057EA75F018A4F8A9F0746F28F536
:104EB40082740839F583E06401704F7A0078697967
:104EC4000888828983A3A3A3A3A3E06401600302E7
:104ED4004F6E88828983A3A3A3A3A3A3E064016084
:104EE40003024F6E80880AE82418F8E93400F9EACE
:104EF400C394045003024E5202545E0AE82418F884
:104F0400E93400F9EAC39404408C7A00786979089A
:104F140088828983A3A3A3A3A3E064027061EA75D2
:104F2400F018A4F8A9F0746F28F582740839F58391
:104F3400E0640170597A007869790888828983A3CA
:104F4400A3A3A3A3E06402707A88828983A3A3A3A2
:104F5400A3A3A3E06401706BEA75F018A4F8A9F0A8
:104F6400746E28FA740839FB806F0AE82418F8E98B
:104F74003400F9EAC394045003024EC502545E0A95
:104F8400E82418F8E93400F9EAC3940440827A006A
:104F94007869790888828983A3A3A3A3A3E0650819
:104FA400703D88828983A3A3A3A3A3A3E0640170B3
:104FB4002EEA75F018A4F8A9F0746E28FE74083966
:104FC400FF802F0AE82418F8E93400F9EAC39404AE
:104FD4005003024F3F7A007B0002546202545E0A7F
:104FE400E82418F8E93400F9EAC3940440A67E00E2
:104FF4007F007A007869790888828983A3A3A3A3B0
:10500400A3E06508701BEA75F018A4F8A9F0746FA2
:1050140028F582740839F583E0640170137A0180FD
:10502400110AE82418F8E93400F9EAC3940440C8E2
:105034007A00E50814600F1470030251FB24FE701B
:105044000302535580967B007869790888828983A6
:10505400A3A3A3A3A3E064027055EB75F018A4F80E
:10506400A9F0746F28F582740839F583E06401703F
:105074004D7B007869790888828983A3A3A3A3A3BD
:10508400E06402600302513188828983A3A3A3A34D
:10509400A3A3E064016003025131EB75F018A4F896
:1050A400A9F0746E28F50A740839F50B0251490BFE
:1050B400E82418F8E93400F9EBC39404408E7B002B
:1050C4007869790888828983A3A3A3A3A3E06404ED
:1050D4006003025185EB75F018A4F8A9F0746F28E9
:1050E400F582740839F583E0640160030251977B0B
:1050F400007869790888828983A3A3A3A3A3E064C1
:105104000460030251A288828983A3A3A3A3A3A357
:10511400E0640160030251A2EB75F018A4F8A9F051
:10512400746E28F50A740839F50B0251BA0BE82499
:1051340018F8E93400F9EBC39404500302507B756A
:105144000A00750B00EAA2E040030251ED850A82D1
:10515400850B83A3A3780C12151890865C780C1227
:10516400147E780C1218FD8E828F83A3A312153639
:10517400121F1B7404121676E9706EEEFAEF024EDB
:10518400810BE82418F8E93400F9EBC394045003C4
:105194000250C8EAA2E05058EEFAEFFB80560BE842
:1051A4002418F8E93400F9EBC3940450030250F9CD
:1051B400750A00750B00EAA2E0502E850A82850B61
:1051C40083A3A3780C12151890865C780C12147EB5
:1051D400780C1218FD8E828F83A3A3121536121F2A
:1051E4001B7404121676E96092AA0AAB0B0254628D
:1051F4007A007B000254627B00786979088882898E
:1052040083A3A3A3A3A3E064047052EB75F018A4D2
:10521400F8A9F0746F28F582740839F583E0640105
:10522400704A7B007869790888828983A3A3A3A341
:10523400A3E0640460030252C988828983A3A3A300
:10524400A3A3A3E06401707DEB75F018A4F8A9F0A2
:10525400746E28F50A740839F50B0252E10BE82440
:1052640018F8E93400F9EBC3940440917B007869A1
:10527400790888828983A3A3A3A3A3E064016003BC
:1052840002531DEB75F018A4F8A9F0746F28F58289
:10529400740839F583E06401600302532F7B0078BE
:1052A40069790888828983A3A3A3A3A3E064016026
:1052B4000302533A88828983A3A3A3A3A3A3E0642C
:1052C40001707380830BE82418F8E93400F9EBC308
:1052D4009404500302522C750A00750B00EAA2E0F4
:1052E40040030251ED850A82850B83A3A3780C1237
:1052F400151890865C780C12147E780C1218FD8EAA
:10530400828F83A3A3121536121F1B740412167600
:10531400E960030251ED02517F0BE82418F8E934E7
:1053240000F9EBC394045003025276EAA2E0501A47
:10533400EEFAEFFB80180BE82418F8E93400F9EBD7
:10534400C3940450030252A7808D7A007B00025458
:10535400627B007869790888828983A3A3A3A3A3C5
:10536400E064017040EB75F018A4F8A9F0746F289C
:10537400F582740839F583E0640170387B0078693C
:10538400790888828983A3A3A3A3A3E064016003AB
:1053940002541A88828983A3A3A3A3A3A3E064016C
:1053A400707402524C0BE82418F8E93400F9EBC38A
:1053B400940440A37B007869790888828983A3A335
:1053C400A3A3A3E064027063EB75F018A4F8A9F03A
:1053D400746F28F582740839F583E06401705B7B8F
:1053E400007869790888828983A3A3A3A3A3E064CE
:1053F40002704F88828983A3A3A3A3A3A3E06401BB
:105404007040EB75F018A4F8A9F0746E28F50A74CE
:105414000839F50B80410BE82418F8E93400F9EB5E
:10542400C3940450030253860252DB0BE82418F899
:10543400E93400F9EBC394044080EAA2E0501B0273
:10544400517F0BE82418F8E93400F9EBC3940440C5
:1054540094750A00750B000252E17A007B00024D3C
:105464000974F61216EE89097508007869790888B6
:10547400828983A3A3A3A3A3A3E06003025541E508
:105484000875F018A4F8A9F0746E28FE740839FFA2
:105494008E828F83A37401F08E828F83E509F012CC
:1054A4000BCA8E828F83A3A31215428E828F83A38D
:1054B400A3A3A3A3A3E4F0A3F09085F8121536EEFA
:1054C400240EF582EF3400F583121542EE2414F510
:1054D40082EF3400F5837401F0EE2415F582EF3485
:1054E40000F5837401F0EE2416F582EF3400F583A1
:1054F400E4F0A3F090086AE04509F0900869E0043C
:10550400F06401600C74806509600674406509707C
:1055140019E50875F018A4F8A9F0746E28F8740851
:1055240039F990086CE8F0A3E9F0E50875F018A4DF
:10553400F8A9F0746E28FA740839FB80180508E895
:105544002418F8E93400F9E508C39404500302541C
:10555400737A007B0080007F020217C0C082C08380
:105564008A828B83E0F8A3E0F98A828B83E4F0A338
:10557400F088828983A3F088828983E0F4F8900814
:105584006AE058F0900869E014F0700B90086CE43D
:10559400F0A3F0900499F0801CC082C08390086945
:1055A400E0600A90086CE0FAA3E0FB80047A007BD8
:1055B400008002E0F9D083D08202011FC082C08340
:1055C400E9FB7A007869790888828983A3A3A3A375
:1055D400A3E06B7016EA75F018A4F8A9F0746F28AC
:1055E400F582740839F583E0F980110AE82418F883
:1055F400E93400F9EAC3940440CE790080B7C0824C
:10560400C0839008690255B774F61216EEEAFEEBF1
:10561400FF9061D0E0C0E0EE2400F582EF3401F5A4
:1056240083D0E0F09061D7E0FA9061D5E0C39A545A
:105634007FC0E0EE2401F582EF3401F583D0E0F081
:10564400EE2402F8EF3401F99061D6E0C39A547F56
:1056540088828983F0701A9061C5E0A2E45012E058
:10566400A2E7500DEE2402F582EF3401F583748035
:10567400F0120C90EE2401F582EF3401F583E07012
:1056840034EE2402F582EF3401F583E07027906153
:10569400C5E0A2E4501FE0A2E7501AEE2402F5820E
:1056A400EF3401F5837480F0EE2401F582EF3401C8
:1056B400F5837480F075E1957800EE2400F582EFAF
:1056C4003401F583E060279061D3E0C0E08808EE00
:1056D4002508F582EF3400F583D0E0F008EE2400CD
:1056E400F582EF3401F583E0F9E8C39940D975E117
:1056F4009102555B74F61216EEEAFEEBFF9061C858
:10570400E0C0E0EE2403F582EF3401F583D0E0F04D
:105714009061CFE0FA9061CDE0C39A547FC0E0EE8F
:105724002404F582EF3401F583D0E0F0EE2405F88B
:10573400EF3401F99061CEE0C39A547F8882898363
:10574400F0701A9061C5E0A2E05012E0A2E3500D9F
:10575400EE2405F582EF3401F5837480F0120C9683
:10576400EE2404F582EF3401F583E07034EE240571
:10577400F582EF3401F583E070279061C5E0A2E083
:10578400501FE0A2E3501AEE2405F582EF3401F530
:10579400837480F0EE2404F582EF3401F583748081
:1057A400F0120C9C7A00EE2403F582EF3401F583A9
:1057B400E0602F9061CBE0C0E08A08EE2508F8EFA6
:1057C4003400F9E82480F582E93400F583D0E0F070
:1057D4000AEE2403F582EF3401F583E0F8EAC39876
:1057E40040D175E18102555B74F41216EE8908A864
:1057F40008E875F08AA4C8AAF02AF974CE28FE74C1
:105804000839FFEEFAEFFB120B82EEFAEFFB120BF4
:105814007C750A80750B00780A1219017C007D6082
:10582400EE2406FAEF3401FB120AC874021216764B
:10583400906195E0C0E0EE2486F582EF3401F583B3
:10584400D0E0F0906196E0C0E0EE2487F582EF347A
:1058540001F583D0E0F0906197E0C0E0EE2488F594
:1058640082EF3401F583D0E0F0906198E0C0E0EE7F
:105874002489F582EF3401F583D0E0F07F04021728
:10588400C074F21216EE8908A808E875F08AA4C854
:10589400AAF02AF974CE28F8740839F99061C6E0A0
:1058A400FDE054F0F075E1817C00E82403F582E921
:1058B4003401F583E0602B8C0AE8250AFAE9340008
:1058C400FBEA2480F582EB3400F583E09061CAF0B2
:1058D4000CE82403F582E93401F583E0FAECC39A79
:1058E40040D5E82405F582E93401F583E0600490AD
:1058F40061CEF0E82404F582E93401F583E0600424
:105904009061CDF0ED9061C6F0A808E875F08AA426
:10591400C8AAF02AF974CE28F8740839F9E0FCE032
:10592400540FF075E1917A00E82400F582E934011E
:10593400F583E060238A0AE8250AF582E93400F554
:1059440083E09061D2F00AE82400F582E93401F59D
:1059540083E0FBEAC39B40DDE82402F582E93401DD
:10596400F583E060049061D6F0E82401F582E9341F
:1059740001F583E060049061D5F0EC9061C6F08598
:105984000882AE82EEF875F08AA4C8AAF02AF974E7
:10599400CE28F50A740839F50B750C80750D00785E
:1059A4000C121901E50A2406FCE50B3401FD7A000A
:1059B4007B60120AC87402121676A80AA90BE8249E
:1059C40086F582E93401F583E0906195F0E8248757
:1059D400F582E93401F583E0906196F0E82488F5D6
:1059E40082E93401F583E0906197F0E82489F58237
:1059F400E93401F583E0906198F0EE75F006A4CEE9
:105A0400A8F028FF74C92EF58274043FF583E0F8EA
:105A1400A3E0F5838882E0648070419011D1740A18
:105A2400F0A3740BF0A374F2F0A3740AF0A3740A45
:105A3400F0A3740BF0A3740AF0A3740BF0A374F234
:105A4400F0A3740AF0A3740AF0A3740BF0A3741007
:105A5400F0A3740BF0900499740880059004997471
:105A640007F09011DF74F2F0A3740AF0A374F2F05B
:105A7400A3740AF0A374F2F0A3740AF0A374F2F00E
:105A8400A3740AF0A374F2F0A3740AF0A374F2F0FE
:105A9400A3740AF07F060217C0C082C083E9901184
:105AA400AFF0D083D08202011F74F61216EEE99093
:105AB4000364F07CA47D037AFF7BFF1207087A005D
:105AC4008A087509007402780812164D7465250851
:105AD400F874033509125AFCA3F00AEAC39403408C
:105AE400DF7905120696900364E0F91205BE7A2068
:105AF4007B071208D602707DF98882898374FF12AD
:105B04005B09E4F022F0A3126F0AA32274F41216C4
:105B1400EE8A088B09EB54806030900364E0F9123C
:105B2400112E8A0A8B0BAE0AAF0BEE4F60138E82D6
