:020000040000FA
:06000000020107021DCB06
:03002B000220644C
:0300330002204662
:03003B0002207E22
:03004300021FFA9F
:03005300021E3E4C
:03006B0002202050
:10008300021C7FE5C754F84401F5C779012200003B
:100093000080FB120086B900030200F1E4791A78AC
:1000A30002B800028004F709D8FCE4791C7802B88E
:1000B30000028004F709D8FCE49002817894790F58
:1000C3008002F0A3D8FCD9FA7A147B119001377817
:1000D300D479018015E493A3AD82AE838A828B83A6
:1000E300F0A3AA82AB838D828E83D8E9D9E7758288
:1000F300157583CB7403120119758291758300748E
:100103000012011975D00075813F751881751902A8
:10011300759F00020096C09FF59FE473D09F22D085
:1001230083D082C09FE493C0E0740193C0E0740263
:1001330093F59F229603A803D2039C03FF0000B408
:10014300000028002800283075A000A000A000A00F
:100153000000080008E001F000100010001000107B
:10016300001000100050005000500010001000D08C
:10017300070000000000000F0001000500307507B4
:10018300001000010081FF0000FF02020217870137
:10019300000008870211870100006A11020D870120
:1001A3000000B1020211870100006B11020B8701ED
:1001B3000000C702FFFF0100FF20021787010000B4
:1001C30005870211870100009911021387000000BF
:1001D3000000020F87030000A4030A0B0A0B0A0B9B
:1001E3000A0B0A0B0A0B0A0B0A0B0A0B0A0B0A0B64
:1001F3000A0B0A0BD80CF60CD20C01E803053F10CE
:1002030002FFFFFF00FEFF1201227FC30312012240
:1002130095C303120122C2C303120122F2C30312C4
:10022300012209C4031201222AC4031201225BC45E
:1002330003120122ACC403120122C3C4031201221C
:10024300C9BB03120122E0BB031201220FBC03123C
:10025300012248BC0312012270BC031201229EBC7E
:1002630003120122B5BC03120122CCBC03120122EA
:10027300E2BC0312012209BD031201221CBD0312B9
:10028300012232BD031201225ABD0312012204A925
:100293000212012203AA021201222DAA0212012232
:1002A30082AA02120122A3AA02120122BCAA0212EA
:1002B3000122BEAA02120122DFAA02120122E2AB2C
:1002C300021201229FAC021201226CAD0212012222
:1002D300D0AD0212012267AE021201226AAE0212EF
:1002E3000122F0AE0212012233AF0212012285AFC6
:1002F3000212012288AF02120122BFAF02120122B1
:10030300E6AF021201227CB00212012205B10212F1
:1003130001224EB1021201225BB1021201225EB12F
:1003230002120122BCB102120122D4B10212012233
:100333004EB20212012251B20212012274B202120F
:10034300012277B2021201221EB30212012241B32B
:100353000212012259B30212012289B302120122AD
:1003630096B30212012299B30212012205B40212BA
:100373000122F3B402120122A9B50212012258C0CC
:100383000212012233C10212012261C102120122AF
:10039300E1C10212012201C2021201223FC2021272
:1003A300012292C202120122FAC2021201228BC35B
:1003B3000212012256C40212012265C7021201224F
:1003C300D1C802120122F4C802120122C7AA0312E1
:1003D300012258AC03120122A9AC0312012208AD79
:1003E3000312012216AD031201223FAD03120122B3
:1003F3003D850312012265850312012293850312B1
:100403000122CA85031201223286031201227B864E
:1004130003120122C686031201220487031201225A
:100423004187031201226F870312012216880312E8
:1004330001222088031201222D88031201226088E1
:10044300031201222289031201222E89031201229F
:10045300468903120122508903120122CE89031215
:100463000122E3C703120122F1C70312012209C8C3
:100473000312012221C80312012239C803120122E7
:10048300EDEF011201228BF00112012203F101129F
:10049300012218F20112012252F201120122FBF28F
:1004A30001120122D0F30112012234F501120122BB
:1004B3008BF50112012212F601120122F9F6011243
:1004C300012246F701120122D4F701120122F8F7A3
:1004D30001120122CDF9011201220EFA01120122A9
:1004E30030FA01120122F5FA01120122BBFB0112BB
:1004F3000122F0FD0112012257A3031201226DA371
:100503000312012293A303120122BBA403120122AB
:10051300C5A4031201221EA6031201221EA7031261
:1005230001225F8A03120122018B03120122348B01
:10053300031201227E8B03120122388D0312012242
:10054300A0B0011201221EB1011201222EB101122B
:10055300012211B2011201221BB20112012249B27E
:100563000112012254B2011201222DB30112012200
:100573008FB3011201222BB4011201222FB60112F3
:100583000122E6B70112012262B8011201223FB92A
:10059300011201226DBC011201220BBD01120122C5
:1005A30068BE01120122DBBF0112012284C00112C5
:1005B3000122CDC00112012204C101120122A9C1ED
:1005C3000112012227C2011201226DD2011201225E
:1005D300C2D20112012207D40112012217D401123F
:1005E30001223AD40112012285D4011201222AD513
:1005F3000112012220D601120122EAD601120122A0
:1006030062D801120122A4D80112012242D9011297
:10061300012268D90112012256DB011201225BDBA0
:10062300011201223CDD0112012290DD011201229F
:10063300F2DD011201221ADE01120122BEDE0112D5
:10064300012280DF01120122B1DF01120122B4DF96
:1006530001120122FCDF011201223EE001120122FC
:10066300A5E001120122B1B703120122C4B703129C
:100673000122CDB703120122E6B70312012231B8DA
:10068300031201220CB9031201229BB903120122A6
:10069300E6B903120122A95A00120122B95A001223
:1006A30001221C5B00120122615B00120122115C1A
:1006B30000120122EA5C00120122135D00120122E2
:1006C300435D00120122575F0012012233610012C1
:1006D30001221363001201224B6400120122C4663B
:1006E30000120122B06700120122F66800120122F3
:1006F300036A00120122456A001201227D6A001278
:100703000122976A00120122FF6A00120122996FE7
:10071300001201223A70001201228E70001201228F
:10072300B57000120122F37000120122127100123F
:1007330001226671001201226E7200120122F77209
:1007430000120122B6F302120122C0F302120122A7
:100753005CF40212012227F50212012246F502126D
:1007630001226CF502120122ABF502120122E3F51C
:10077300021201220CF60212012246F60212012293
:100783005BF60212012228F7021201224BF7021232
:1007930001226DF70212012282F7021201220CF8E4
:1007A3000212012246F802120122BAF802120122B1
:1007B30003F9021201222DF90212012252F9021247
:1007C30001226B9F0312012235A00312012218A1FB
:1007D300031201228EA103120122D0A103120122CE
:1007E300FDA203120122CF8D02120122F88D021203
:1007F3000122118E02120122568F0212012234901D
:1008030002120122539002120122E09002120122ED
:100813002391021201225B9202120122C792021259
:100823000122BD94021201224B9702120122DE978C
:1008330002120122B29802120122559902120122D8
:10084300689A02120122FE9A02120122DAC40312EA
:10085300012243C50312012297C503120122C6C513
:1008630003120122DB8E03120122488F031201229D
:10087300938F0312012288900312012284910312A1
:1008830001226E9203120122E1E00212012228E109
:100893000212012201E202120122FCE202120122EF
:1008A300DBE30212012247E40212012263E5021292
:1008B3000122CAE502120122CDE502120122F8E566
:1008C3000212012269E6021201220CE7021201223E
:1008D30021E70212012269E70212012282E70212D2
:1008E300012285E70212012257AE0312012293AEC1
:1008F30003120122D1AE031201229BAF0312012284
:100903000EB00312012249B00312012287B0031271
:100913000122B7B003120122DEB00312012249B152
:10092300031201228BB10312012224870112012237
:10093300428901120122F18A01120122A18B0112C3
:100943000122EC8B01120122378C01120122498C06
:1009530001120122898C01120122BE8C0112012293
:100963000A8D01120122398D011201225C8D0112BF
:100973000122E38D01120122CF8E011201220D907B
:10098300011201220F9101120122EB9201120122A5
:100993000F98011201225598011201229398011216
:1009A3000122C89A01120122FFFD011201229FFFB9
:1009B30001120122F02000120122872100120122DC
:1009C300CD21001201220323001201229A240012D6
:1009D3000122122500120122542500120122A4250E
:1009E300001201220F27001201227A29001201228C
:1009F300562A00120122752A00120122942A00129B
:100A03000122972A001201221D2C00120122122D0D
:100A1300001201220E2E001201227E2E001201224C
:100A2300F02E001201226F2F001201224A30001211
:100A33000122513100120122303200120122BB3255
:100A4300001201222933001201229D3300120122D8
:100A5300C63300120122853400120122943700129A
:100A63000122DD3700120122203800120122A338AF
:100A730000120122473900120122D8390012012243
:100A8300FD3900120122473A00120122713A001285
:100A93000122B63A00120122313B001201228B3BA4
:100AA30000120122DF3C001201229C3D00120122B0
:100AB3006F3E0012012200800212012250800212B6
:100AC30001225C8002120122398102120122698112
:100AD30002120122A18102120122208202120122AA
:100AE300588202120122AA8202120122E782021212
:100AF30001220C8502120122388702120122338956
:100B0300021201220E8B02120122FB7F001201222C
:100B1300F1ED0212012223F20212012273F30212F7
:100B23000122DBC201120122ADC901120122B3C9A4
:100B33000112012263CC011201220080031201225F
:100B4300AC80031201227A8103120122A4810312D1
:100B53000122F283031201229D3E00120122E73E8D
:100B630000120122994B001201221A4D0012012298
:100B7300124E001201227154001201226C55001210
:100B83000122A95500120122CC55001201220E5652
:100B930000120122185600120122045700120122EA
:100BA300F85700120122915800120122D3B1031207
:100BB3000122D1B20312012227B30312012265B32A
:100BC30003120122C2B3031201223FB40312012212
:100BD30048B40312012254B40312012267B403126E
:100BE3000122A3B403120122B9B403120122A9E71B
:100BF30002120122B6E702120122D0E702120122F9
:100C03000FE8021201224DE802120122B2E8021299
:100C13000122C7E802120122DEE802120122ECE8F7
:100C230002120122FBE80212012210E90212012240
:100C330025E90212012230E9021201223CE90212E3
:100C4300012249E90212012258E90212012263E951
:100C53000212012288E90212012231EA0212012260
:100C630046EA021201225BEA0212012275EA02122B
:100C7300012290EA02120122ADEA02120122B8EA2D
:100C83000212012274EB0212012260EC0212012211
:100C930085EC021201228FEC02120122A3EC021254
:100CA3000122C2EC0212012223ED0212012229EDDC
:100CB300021201222FED0212012235ED021201224E
:100CC30041ED0212012274ED0212012221B6021239
:100CD30001224DB60212012231B702120122CBB911
:100CE30002120122E1BA02120122FEBB0212012208
:100CF300A1BC0212012247BD021201227A9B0212F9
:100D03000122FC9B02120122A59C02120122ED9DED
:100D130002120122FB9F02120122E1A00212012210
:100D230016A10212012238A102120122E1A102122C
:100D33000122B1A302120122DAA30212012252A458
:100D43000212012284A40212012291A4021201229E
:100D5300DCA40212012200A50212012251A70212F1
:100D630001225BA802120122B7A8021201226FE13D
:100D73000112012280E20112012264E30112012225
:100D83006EE30112012290E3011201229CE301129E
:100D9300012240E5011201226DE50112012283E6E1
:100DA30001120122D8E60112012227E801120122D1
:100DB300FCE80112012258E901120122C3E90112E0
:100DC3000122F8E9011201223BEA0112012205ED99
:100DD300011201221DED01120122AEED01120122C9
:100DE300BCED0112012209EE0112012217EE0112DC
:100DF300012283EE01120122FEEE0112012255EFC0
:100E03000112012210BA0312012235BA0312012280
:100E1300ABBA03120122F2D902120122FBD9021248
:100E2300012204DA02120122DCDA021201228DDC31
:100E330002120122BDDC02120122E8DC02120122AD
:100E430018DD0212012243DD0212012277DD0212B4
:100E53000122A3DD02120122E6DD0212012211DECC
:100E63000212012258DE02120122ADDE0212012219
:100E7300EFDE0212012249DF0212012274DF0212A5
:100E83000122C3DF02120122F3DF021201221EE05C
:100E93000212012241E0021201226FC90312012250
:100EA3009BC903120122C8C903120122D2C903122A
:100EB3000122E2C9031201227AF902120122B9F9CD
:100EC3000212012242FA0212012255FA02120122EF
:100ED300A0FA02120122D4FA0212012213FB021217
:100EE300012222FB02120122D4FB021201222DFC59
:100EF300021201227CFC02120122D2FC0212012204
:100F0300C7FD02120122BCFE02120122F9FE0212E7
:100F1300012256CA03120122E19C01120122DF9E23
:100F23000112012260A00112012262A10112012219
:100F3300EAA1011201226FA20112012298A2011259
:100F43000122E8A201120122DBA6011201224CA711
:100F53000112012238A80112012272A801120122F2
:100F6300B2A801120122E5A90112012216AA011257
:100F7300012269AA01120122B2AA0112012220ABA5
:100F83000112012252AB011201226CAB01120122A8
:100F93005EAC011201226EAC011201221DAE0112E0
:100FA300012234AE0112012266AE01120122E8AF22
:100FB3000112012261B00112012231FF021201224A
:100FC30042FF0212012268CB03120122A7CB0312B4
:100FD30001223DCC03120122D2C803120122E2C82E
:100FE30003120122FDC80312012265C90312012263
:100FF300E7C5031201226BC603120122D3C60312F3
:10100300012286C003120122AFC0031201221CC1B8
:10101300031201226FC103120122C8C1031201226C
:10102300309303120122679303120122D793031211
:101033000122EC9303120122F394031201227A9505
:10104300031201224096031201225F96031201222A
:10105300849603120122B99603120122D196031238
:10106300012222970312012228A70312012242A779
:1010730003120122BBA70312012290A8031201222B
:1010830062AA03120122579703120122E797031260
:101093000122659803120122E998031201227B9928
:1010A30003120122379A03120122049B0312012225
:1010B3000E9B031201221D9B03120122339B031279
:1010C3000122469B03120122509B03120122639BC0
:1010D30003120122FBBE0312012224BF03120122C9
:1010E3004DBF03120122E7BF03120122FFBF031208
:1010F300012241C00312012210D2021201221AD28C
:10110300021201225AD202120122A3D20212012296
:10111300DDD20212012233D30212012252D3021270
:101123000122DAD502120122E3D50212012234D6BA
:10113300021201225DD60212012267D60212012297
:10114300D8D60212012266D702120122BBD702129D
:101153000122EAD70212012266D802120122A3D881
:1011630002120122DAD802120122ECD80212012261
:101173000BD90212012214D902120122C6D902127A
:1011830001226CBD03120122BCBD031201222EBE3B
:101193000312012296BE03120122E9B403120122B3
:1011A30013B503120122DAB503120122B6B60312F4
:1011B30001223EB703120122ECC603120122FF7D76
:1011C30000120122357E00120122687E00120122E4
:1011D300C17F00120122ECC90312012202CA0312C9
:1011E30001220CCA03120122B6CA031201222CCA1D
:1011F30002120122E9CA0212012224CB02120122A5
:1012030055CB02120122B7CB0212012203CC0212E8
:1012130001226ECC02120122E8CC02120122E7CD98
:10122300021201226ECF02120122F1CF0212012219
:1012330057D0021201226AD00212012265D1021292
:101243000122B2D102120122669B031201227C9B6E
:1012530003120122209C031201225F9C031201222C
:101263007C9C03120122AD9C03120122FA9C0312FF
:1012730001222E9D03120122699D031201225E9F0A
:101283000312012203C20312012211C2031201221B
:101293007CC203120122D6C203120122F4C203123A
:1012A30001225E73001201226274001201229575FD
:1012B300001201225177001201222F78001201221D
:1012C300CA7800120122EF7800120122557B001226
:1012D3000122C07B001201225E7C00120122837D69
:1012E30000120122E8CB03120122B1CB0312012227
:1012F30014CC03120122E0FF02E066701008A3E0A1
:1013030066700A08A3E066700408A3E06622C3E7D8
:10131300960809E7960809E7960809E79622C3E0C5
:101323009608A3E09608A3E09608A3E09622C008D7
:10133300C3E096F50808A3E096420808A3E09642A6
:101343000808A3E09645087001D3D00822080808CE
:10135300EAC0E0EBC0E086F0E7A4FA180986F0E7FC
:10136300A42AFA180986F0E7A42AFA180986F0E7EE
:10137300A42AFA1986F0E7A4FBE5F02AFA190886ED
:10138300F0E7A42BFBE5F03AFA190886F0E7A42B63
:10139300FBE5F03AFA18180986F0E7A4C5F02BFB31
:1013A300E43AFA1908E7C5F0C6A426F6E5F03BFBD4
:1013B300E43AFA1886F0E7A4F6E5F00826F6E43BEB
:1013C30008F6E43A08F6D0E0FBD0E0FA22E4CFC016
:1013D300E0E4CEC0E0E4CDC0E0E4CCC0E075F020B2
:1013E300E626F608E633F608E633F608E633F6189B
:1013F3001818EC33FCED33FDEE33FEEF33FFC3EC93
:101403009709ED9709EE9709EF97191919400FFFFF
:10141300EC97FC09ED97FD09EE97FE191906D5F037
:10142300BFECF709EDF709EEF709EFF7191919D032
:10143300E0FCD0E0FDD0E0FED0E0FF22601608081B
:1014430008C6C313C618C613C618C613C618C613D0
:10145300C6D5E0EA22700908080822601618181891
:10146300C6C333C608C633C608C633C608C633C6A2
:10147300D5E0EA22E627F60809E637F60809E63753
:10148300F60809E637F622E026F608A3E036F60862
:10149300A3E036F608A3E036F622E026F008A3E040
:1014A30036F008A3E036F008A3E036F022C3E6974F
:1014B300F60809E697F60809E697F60809E697F6A7
:1014C30022C3E096F008A3E096F008A3E096F008A4
:1014D300A3E096F022E657F60809E657F60809E670
:1014E30057F60809E657F622E056F608A3E056F643
:1014F30008A3E056F608A3E056F622E056F008A348
:10150300E056F008A3E056F008A3E056F022E066A8
:10151300F608A3E066F608A3E066F608A3E066F61D
:1015230022E0F608A3E0F608A3E0F608A3E0F6221B
:10153300E6F008A3E6F008A3E6F008A3E6F022E04D
:10154300FAA3E0FBA3E0FCA3E0FD22EAF0A3EBF0A7
:10155300A3ECF0A3EDF022E0F8A3E0F9A3E0FAA3F3
:10156300E0FB22E8F0A3E9F0A3EAF0A3EBF022CA40
:10157300C0E0E6F0A308DAFAD0E0FA22CAC0E0E05D
:10158300A3C582CCC582C583CDC583F0A3C582CC58
:10159300C582C583CDC583DAE6D0E0CA22C3E49809
:1015A300F8E499F91215E18026C3E49AFAE49BFB67
:1015B300E920E7E91215E1E498F8E499F922C3E494
:1015C30098F8E499F91215E1E498F8E499F9C3E479
:1015D3009AFAE49BFB22EB20E7CFE920E7E0B9008E
:1015E30010BB0008E88AF084F8AAF022E4FBC8FAEA
:1015F30022EB70227B10C833C8C933C9335007C3E9
:101603009AC3DBF280069A50012ADBEAC833F4C896
:10161300C933F4C9FA2275F008E4C833C8C933C919
:1016230033C99AC99B5004C92AC93BD5F0ECFBC8FE
:1016330033F4C8E4C9FA22600D08C6A2E713C6183A
:10164300C613C6D5E0F322600C08C6C313C618C67A
:1016530013C6D5E0F422700422600D18C6C333C646
:1016630008C633C6D5E0F41822251810AF08F518BC
:10167300400C15198008F51840021519D2AF220045
:10168300C0D0251810AF08F518500C05198008F5BF
:101693001850020519D2AFD0D0222518F58210AF09
:1016A30008F518400C15198008F51840021519D2D1
:1016B300AF85198322C5822518C582C583351910C4
:1016C300AF07F5198582188007F519858218D2AFFF
:1016D300C583222518F582E43519F583222518F8E8
:1016E300E43519F9222518FAE43519FB222518FCEB
:1016F300E43519FD22E4732518C582C0E0E51934E9
:10170300FFC583C0E0E518C3958224F810AF0885B0
:1017130083198582188008858319858218D2AFCEF4
:10172300F0A3E520F0A37808E608F0A3DEFAEFF0D3
:10173300A3E58124FAF8E608F0A3E608F0A3E60897
:10174300F0A30808E608F0A3E608F0A315811581C5
:10175300D0E0FED0E0F8158115811581E8C0E0EEF8
:10176300C0E0222518C582C0E0E51934FFC583C057
:10177300E0E518C3958224F910AF088583198582A3
:10178300188008858319858218D2AFCEF0A3E5208F
:10179300F0A37808E608F0A3DEFAEFF0A3E58124CE
:1017A300FBF8E608F0A3E608F0A30808E608F0A3B0
:1017B300E608F0A315811581D0E0FED0E0F815818D
:1017C3001581E8C0E0EEC0E022851983851882E028
:1017D300A3FEE0A3F5207808E0A3F608DFFAE0A370
:1017E300FFE0A3C0E0E0A3C0E0E0A3C0E0E0A3C04B
:1017F300E0E0A3C0E010AF08858218858319800854
:10180300858218858319D2AFD083D08202011F85C8
:101813001983851882E0A3FEE0A3F5207808E0A3EE
:10182300F608DFFAE0A3FFE0A3C0E0E0A3C0E0E036
:10183300A3C0E0E0A3C0E010AF0885821885831938
:101843008008858218858319D2AFD083D08222C0C5
:10185300D02518C582C0E0E51934FFC583C0E0E593
:1018630018C3958224F310AF0885831985821880E5
:1018730008858319858218D2AFC8F0A3E9F0A3EADB
:10188300F0A3EBF0A37908E709F0A3D8FAECF0A3EF
:10189300EDF0A3EEF0A3EFF0A3D0E0F0A3D0E0F0DF
:1018A300A3D0E0F0A3E520F0A3E5F0F0A32285198F
:1018B30083851882E0C0E0A3E0F9A3E0FAA3E0FB8C
:1018C300A37808E0F608A3DFFAE0FCA3E0FDA3E0B9
:1018D300FEA3E0FFA3E0C0E0A3E0C0E0A3E0F5D0F7
:1018E300A3E0F520A3E0A3F5F010AF0885831985E5
:1018F30082188008858319858218D2AFD082D0835D
:10190300D0E0F8D0E03274048006740280027401DF
:10191300C0E0F40412169DD0E01215722274048004
:101923000474028000CCC0E0EDC0E0E518C39CCC99
:10193300AD1950011D10AF068C188D1980068C1837
:101943008D19D2AF12157FD0E0FDD0E0FC22D083F9
:10195300D082E9C0E0E493A3C386F0C5F095F0F923
:1019630008E493A386F0C5F095F0700BE493A3C34A
:10197300994005E9048002A3E475F002A42582F5E9
:1019830082E5F03583F583D0E0F9E493A3C0E0E486
:1019930093C0E022D083D082ECC0E0EDC0E0E493BA
:1019A300A3FCE493A3FDED4C600D1219E3EC24FFBB
:1019B300FCED34FFFD80EFE493A3FCE493A3FDED82
:1019C3004C600D121A22EC24FFFCED34FFFD80EF76
:1019D300D0E0FDD0E0FCE493A3C0E0E493C0E022B8
:1019E300C0E0C3E49396087401939618400FE49300
:1019F30066700808740193661870007019A3A3C376
:101A0300E49396087401939618A3A3400DD0E0D0F5
:101A1300E0D0E00219D3A3A3A3A3A3A3D0E022C0E1
:101A2300E0C0F088F0E493667008087401936618C8
:101A33007000A8F0A3A3700BD0F0D0E0D0E0D0E00A
:0A1A43000219D3A3A3D0F0D0E022D3
:101A500074F5121766EAFEEBFFEE2434F8EF34005B
:101A6000F988088909EE2435F582EF3400F583E022
:101A7000F8EE2437F582EF3400F583E0F50AEC85C3
:101A80000AF0A4FCAAF0850AF0EDA42AFDE82CF8DF
:101A9000E43DF97A257B001215E1EA850882850983
:101AA00083F05407F87401B800028004C333D8FCF3
:101AB000C0E0E0131313541FF8EE28F8EF3400F9D8
:101AC000E8245DF582E93400F583D0E0F8E0586061
:101AD00008EE2434F582EF801EEE2436F582EF34D2
:101AE00000F583E0F5F0EA84A8F0EE28F8EF340082
:101AF000F9E82438F582E93400F583E0F97F04023F
:101B0000181274F5121766EAFEEBFFEE2434F58224
:101B1000EF3400F583E0C0E0EE2435F582EF3400C9
:101B2000F583D0E0F08E828F83A3A3A3A3A3A3A306
:101B3000C082C0838E828F83A3A3A3A3A3E0F8A354
:101B4000E0F9D083D082E0C398F508A3E099F509C5
:101B5000EE2480F582EF3400F583E064017069EED5
:101B60002481F582EF3400F583E0F8A3E0F98E825A
:101B70008F83A3A3A3A3A3A3A3E0FCA3E0FD8E8272
:101B80008F83A3A3A3A3A3E0FAA3E0FBC3EA9CEB88
:101B90009D5027C3EC98ED99402EC3EA98EB9950DD
:101BA000277CE27D07EEFAEFFB120A50EE2480F567
:101BB00082EF3400F583E4F0800EC3EA98EB99409D
:101BC000E0C3EC98ED9950D9EE2434F8EF3400F9E5
:101BD000E8FCE9FDEE2435F582EF3400F583E0F80A
:101BE000EE2437F582EF3400F583E0F50AE5088549
:101BF0000AF0A4F508AAF0850AF0E509A42AF50977
:101C0000E82508F8E43509F97A257B001215E1EAA0
:101C10008C828D83F05407F87401B800028004C3ED
:101C200033D8FCC0E0E0131313541FF8EE28F8EF8C
:101C30003400F9E8245DF582E93400F583D0E0F85A
:101C4000E0586008EE2434F582EF801EEE2436F56D
:101C500082EF3400F583E0F5F0EA84A8F0EE28F88E
:101C6000EF3400F9E82438F582E93400F583E0F92F
:101C7000121FEC021AFD0000851A87851BC622C0C0
:101C8000E0C0D0E8C0E0E9C0E0EAC0E0EBC0E0ECD2
:101C9000C0E0EDC0E0C008C009C00AC00BC082C0EF
:101CA00083C0F0759B00906182E0A2E64003021DB4
:101CB0005DE591A2E64003021D5D7591BF90049918
:101CC000E064057008120BCA120BD68003120BD009
:101CD000751A00120C30E990049AF07900120C1277
:101CE0001209C07A017B00900498E0F91211589013
:101CF0007803E064426003021DA6900817E014F028
:101D00006003021DA6C2AF121D0A00781DD0E0F6C6
:101D100018D0E0F6E59F5407F9700590868280039D
:101D20009086A27808121524E9C4C0E0781CE65514
:101D300008F50808E65509F509740B780812164AE3
:101D4000D0E02508F8906270E0A2E740F8E8C333DD
:101D5000906272F0906270E0D2E0F08049E0A2E51B
:101D60005024E591A2E5501E7591DF900499E0643E
:101D70000D70139004BBE004F064287002E4F07A64
:101D800000E0F9120CC0906181E0A2E35009E5E99E
:101D9000A2E3500375E9F7A3E0A2E75009E591A299
:101DA000E7500375917FD0F0D083D082D00BD00A5A
:101DB000D009D008D0E0FDD0E0FCD0E0FBD0E0FAC4
:101DC000D0E0F9D0E0F8D0D0D0E032C0E0C0D0C050
:101DD00082C083906183E0A2E05009E5BFA2E05099
:101DE0000375BFFEE0A2E15009E5BFA2E150037513
:101DF000BFFDE0A2E25009E5BFA2E2500375BFFBC0
:101E0000E0A2E35009E5BFA2E3500375BFF7E0A2EB
:101E1000E45009E5BFA2E4500375BFEFE0A2E5502E
:101E200009E5BFA2E5500375BFDFE0A2E65009E572
:101E3000BFA2E6500375BFBFD083D0828088C0E0C8
:101E4000C0D0E8C0E0E9C0E0EAC0E0EBC0E0ECC030
:101E5000E0EDC0E0C0F0E5A7A2E6500FE5A1A2E6E4
:101E6000500953A7BF75A1BF121EA3E5A7A2E55055
:101E70000CE5A1A2E5500653A7DF75A1DFE5A7A2F7
:101E8000E15009E5A1A2E1500375A1FDE5A7A2E299
:101E9000500CE5A1A2E2500653A7FB75A1FBD0F0C0
:101EA000021DB474F8121766751A01900499E06463
:101EB000067015120B828A828B83A3A3A3A3A3A30C
:101EC000E0FAA3E0FB120BB8A2AFE433FED2AF906E
:101ED000049FE0640170187A207B00900498E0F978
:101EE00012126C7A207B00900498E0F912115E9037
:101EF0006182E0D2E6F0900816E0602185C61B8082
:101F00001690049EE064017008E5C654F84405F597
:101F1000C653BEFC121C787401651A60E4EEA2E0A0
:101F200092AF7F0102181274F11217668A088B09AA
:101F30008C0A8D0B740F1216D6780C12152490860D
:101F40009678081214EB908696780C1214EB7808A9
:101F5000790C12131150157808790C1214B0908670
:101F6000C27808121331401579018013780C790872
:101F70001214B09086C2780C12133140EB79007FB6
:101F80000802181274ED1217668A088B098C0A8DE4
:101F90000B74131216D6780C1215249086967808B6
:101FA0001214EB908696780C1214EB780C790812C8
:101FB000131140117808790C1214B0AA08AB09ACBF
:101FC0000AAD0B8022751000751100751200751393
:101FD000017810790C1214B078107908121477AACD
:101FE00010AB11AC12AD137F0C021812C082C0836B
:101FF000E9906000F0D083D08222C0E074F2121821
:1020000052A2AFE433FED2AFC2C0E5D1A2E4500683
:1020100053D1EF1210CEEEA2E092AF7F010218B1C1
:10202000C0E074F2121852A2AFE433FED2AFE589D9
:10203000A2E1500312101A758900C2C5EEA2E09207
:10204000AF7F010218B1C0E074F2121852A2AFE4DF
:1020500033FED2AFE58BA2E0500312101A758B004D
:10206000C2E880D8C0E0C0D0E8C0E0A8A8D2AFC223
:10207000C7E8A2E792AFD0E0F8D0D0D0E032C0E01D
:10208000C0D0E8C0E0E9C0E0EAC0E0EBC0E0C08258
:10209000C083A2AFE433F9D2AF901044E0F8A3E0DC
:1020A000687008539AFBA374018022C2E99010441F
:1020B000E0F8740128F074C428F582E4340FF58345
:1020C000E0F5C1901044E0C394804002E4F0E9A23E
:1020D000E092AFD083D082D0E0FBD0E0FAD0E0F93C
:1020E000D0E0F8D0D0D0E032FFFFFFFFFFFFFFFFCE
:1020F000C082C0839061907404F0A37448F0A3740C
:1021000002F09061807440F09061BC7403F09061C3
:10211000877419F0906265741BF090619C740DF0E7
:1021200090619A7433F0A37455F09061A0743AF002
:10213000900814E064017009C29190049D74678056
:102140000590049D7461F09020EEE493906186F018
:102150009020E8E493F46027E493540FF8906185AD
:10216000E0686012E5C654804449F5C6E59E547F98
:10217000644970F8E8F053C680E59E547F70FA79A0
:1021800005120CA202254DC082C083E5A8F853A811
:102190007E906181E4F0A3F0A3F0C2BA539AFEC22C
:1021A00089759B00C2C275E90075910075BF007505
:1021B000A91175B905906181F0A374C0F0A3E4F092
:1021C000D2BA439A0174805842A802254DC082C0F9
:1021D0008374F812166C90049BE0F8A3E0F9E849C8
:1021E00070030222FB90049BE05440602379088531
:1021F0001882851983AA82AB83120AC28518828548
:102200001983AA82AB831207AA90049BE054BFF003
:10221000E054806010790C7A387B08120AC290046E
:102220009BE0547FF0E0A2E0503190619A7433F06B
:10223000A37455F09061A0743AF0900814E0640122
:102240007009C29190049D7467800590049D74612B
:10225000F01207B090049BE054FEF0E054026031AD
:1022600090619A743FF0A3745AF09061A0747FF06B
:10227000900814E064017009D29190049D747180FB
:102280000590049D746AF01207B090049BE054FD21
:10229000F0E0540460139020ECE493906186F01217
:1022A00007B690049BE054FBF0E0540860139020C4
:1022B000EDE493906186F01207B690049BE054F72A
:1022C000F0E0541060139020EEE493906186F012D9
:1022D00007B690049BE054EFF0E05420600A120728
:1022E000B690049BE054DFF0A3E05401600D1209A6
:1022F000CC1207BC90049CE054FEF07408121682C5
:1023000002254D74EC1216FA74F412166C851882BC
:10231000851983AC82AD8375838675828A740412B5
:10232000157F9020EC93F46003022490907808E0ED
:10233000C39402500302247074041216D6AC82AD0A
:1023400083758386758241740812157F851882858E
:10235000198385821285831374041216D6AC82AD5C
:1023600083750EFF750FFF7FFF7E00750C48750D9E
:1023700078801574086E700302240374096E70036C
:10238000022403740A6E607B850C82850D837808B5
:102390001215248C828D83A909E50AC9F888107466
:1023A00018780812143FE5104508F8C3E098A3E038
:1023B00099850C82850D83780812152440188C822B
:1023C0008D837418780812143FE5104508F8E0C3AF
:1023D00098F8A3E0801C7418780812143FE51045A3
:1023E00008FAE9FB8C828D83E0F8A3E0F9EAC39850
:1023F000F8EB99F9C3E8950EE9950F5006880E8918
:102400000FEEFF0EE50C2404F50CE50D3400F50D80
:10241000EEC39413500302237374FF650E700474AB
:10242000FF650F60238F08740278081216597448EC
:102430002508F58274783509F58378081215248506
:102440001282851383E508F0EC24020C0CED3400B5
:10245000FD851282851383A3858212858313740CF4
:102460001216D6E5826C7003E5836D60030223616A
:10247000750801750900780812190D74021216D634
:10248000AC82AD837A3B7B08120FF674021216827F
:10249000740C1216827F0C0217CCC082C08390612C
:1024A000AE7468F0A3746AF090624574FBF0A30404
:1024B000F053F4FD43FE029008147401F09061A003
:1024C000E0643A90619A70237433F0A37455F090ED
:1024D00061A0743AF0740164017009C29190049D86
:1024E0007467802890049D74618021743FF0A37408
:1024F0005AF09061A0747FF0740164017009D29168
:1025000090049D7471800590049D746A8000F002AF
:10251000254DC082C0839007F2E0640170159007DA
:10252000F8E064016009E0700AA3E06401700479D6
:102530000C8012900809E06401700890080FE064B4
:102540000160EC790002254DE0F9121FECD083D038
:102550008202011FC082C0839007FC7425F090079F
:10256000FA7401F0A3E4F07A01FB120C1E9007E864
:10257000E02416F8A3E03400F98882898374F0F02F
:10258000A37409F09007F9E0640170169007F8E071
:1025900070107901120C7E120C4E120C7879001218
:1025A0000C8A80A9C082C08374FA12166C9007F15D
:1025B000E0640170081209D89007F1E4F075E1F1C8
:1025C0009007E8E02415F8A3E03400F988828983B5
:1025D0007401F09007F3E064017076908670C08219
:1025E000851882851983AC82AD83758386D0827409
:1025F0000612157F75D90D9007EAE0C4333354C035
:102600004403F5D978E8790788828983A3A3A3E0F6
:10261000F5D988828983A3A882A983E864EE700330
:10262000E9640770E3851882851983A882A98388E5
:10263000828983E0F5D9A3A882A98374061216D6ED
:10264000E582687003E5836970E575E1957901803D
:10265000027900120C249011BA743AF0A3740BF0B2
:10266000A37440F0A3740BF0A3743AF0A3740BF0BE
:10267000A3743AF0A3740BF0A3740AF0A3740BF0E4
:10268000A3740AF0A3740BF0A37446F0A3740BF0C8
:102690009011C8740AF0A3740BF0A3740AF0A37429
:1026A0000BF0A3740AF0A3740BF0A3740AF0A374E4
:1026B0000BF0A3740AF0A3740BF0A3740AF0A374D4
:1026C0000BF09007EAE0F97AEB7B07120C00900719
:1026D000FCE0F9121FEC7901120C2A90868E12157B
:1026E00042120C429086A6121542120C0C7900126E
:1026F0000C969007E8E02414F8A3E03400F98882EF
:1027000089837416F09004997405F0040222FD7414
:10271000F71216FA8908A808E875F006A4C8AAF006
:102720002AF974C928FE740439FF900801E0F97A87
:10273000027B08120C0090080FE0701A7900120C4E
:10274000609007DBE0700B79007ADC7B07120C06E7
:102750008009790180F37901120C6075E1F175D976
:1027600023900801E0C4333354C04405F5D978FF01
:10277000790788828983A3A3A3E0F5D98882898316
:10278000A3A882A983E864057003E9640870E3756F
:10279000D90075D90075D90075D90075D90075D9DA
:1027A00000EEF8EFF9E82404FAE93400FBE824220B
:1027B000F582E93400F583E0F5D988828983A3A8FE
:1027C00082A983EA687002EB6970E2EEF8EFF9E83B
:1027D00024031AE93400FBE82426F582E93400F5E5
:1027E00083E0F5D988828983A3A882A983EA6870E7
:1027F00002EB6970E2EE242BF582EF3400F583E002
:10280000F5D9EEF8EFF9E824021AE93400FBE824E0
:102810002CF582E93400F583E0F5D988828983A319
:10282000A882A983EA687002EB6970E2EEF8EFF91A
:10283000E8242EF582E93400F583E0F5D988828911
:1028400083A3A882A983EA687002EB6970E2EEF8BC
:10285000EFF9E82430F582E93400F583E0F5D98812
:10286000828983A3A882A983EA687002EB6970E277
:10287000EEF8EFF9E82432F582E93400F583E0F56B
:10288000D988828983A3A882A983EA687002EB6948
:1028900070E2EEF8EFF9E824050A0A0AE93400FBD1
:1028A000E8245DF582E93400F583E0F5D988828972
:1028B00083A3A882A983EA687002EB6970E2EE2420
:1028C00037F582EF3400F583E0541FF8EE242AF543
:1028D00082EF3400F583E0C43354E048F5D975E164
:1028E000959011BA7410F0A3740BF0A37416F0A3B2
:1028F000740BF0A3740AF0A3740BF0A3740AF0A392
:10290000740BF0A3740AF0A3740BF0A3740AF0A381
:10291000740BF0A3741CF0A3740BF09011C8740A2C
:10292000F0A3740BF0A3740AF0A3740BF0A3740A61
:10293000F0A3740BF0A3740AF0A3740BF0A3740A51
:10294000F0A3740BF0A3740AF0A3740BF090080EBC
:10295000E0F9121FEC90868E121542120C429086FE
:10296000A6121542120C0C90600DE4F07901120CC5
:10297000969004997406F0022F6A74EC1216FA907D
:1029800007FFE0F8A3E0F5838882A3A3781012156F
:1029900024900810E0FAF875F006A4C8ACF02CF901
:1029A00074F728F582740439F583E0FEA3E0FFEEA6
:1029B000C333FEEF33FF8E0CF50D750E00750F005F
:1029C00085100885110985120A85130B90867A787F
:1029D0000812148A780812190985100885110985CA
:1029E000120A85130B7808790C1214777810790C79
:1029F0001213D0E4F50EF50F7808790C1214B08A92
:102A00000C750D007403780C1216597808790C12A5
:102A1000147790869678081214EBAA08AB09AC0AD2
:102A2000AD0B121F8474041216828A088B09A80841
:102A3000A909C3EE98EF995006E82EF8E93FF9E8A6
:102A400090600EF0E9A3F0EEA3F0EFA3F090600D1C
:102A500074C1F0022495C082C0839007E8E0F8A317
:102A6000E0F5838882A3A3A3A3A3A3E4F0A3F0903B
:102A700007FC022548C082C0839007FFE0F8A3E06E
:102A8000F5838882A3A3A3A3A3A3E4F0A3F09008F3
:102A90000E02254802011F74F61216FA9061D0E06A
:102AA000F87480C398FCEA2483F582EB3400F58344
:102AB000E06004780480027800E8240EF8ECC39803
:102AC0005003022C187E0C900818E4F0EA2477F5E5
:102AD00082EB3400F583E0900819F0EA2478FCEBEF
:102AE0003400FD781A79087F028C828D83E0888219
:102AF0008983F08C828D83A3AC82AD8388828983A5
:102B0000A3A882A9831FEF70E0EA247AFCEB3400CB
:102B1000FD7F028C828D83E088828983F08C828D98
:102B200083A3AC82AD8388828983A3A882A9831FF3
:102B3000EF70E0EA247CFCEB3400FD7F028C828D98
:102B400083E088828983F08C828D83A3AC82AD83FD
:102B500088828983A3A882A9831FEF70E0EA247E7C
:102B6000FCEB3400FD7F028C828D83E088828983B8
:102B7000F08C828D83A3AC82AD8388828983A3A8E5
:102B800082A9831FEF70E0EA2475FCEB3400FD8A14
:102B9000828B83A3A3A3A3A3E0F508A3E0F5098C8C
:102BA000828D83E02508F0A3E03509F07F028C8256
:102BB0008D83E088828983F08C828D83A3AC82AD83
:102BC0008388828983A3A882A9831FEF70E0EA2407
:102BD00083F582EB3400F583E060197508187509F8
:102BE00008780812190D7C0C7903120AFE7402127F
:102BF00016827E1074012EF5D975D9037582187569
:102C00008308EEFFE0F5D9A31FEF70F875E1957921
:102C100004120C4879018002790002314C74F612DA
:102C200016FA9061D0E0F87480C398FCEA2483F52A
:102C300082EB3400F583E06004780480027800E8D9
:102C4000240AF8ECC3985003022D0D75080890086B
:102C5000187401F07CE27D07781979087E058C8272
:102C60008D83E088828983F08C828D83A3AC82ADD2
:102C70008388828983A3A882A9831EEE70E0EA2458
:102C800081FCEB3400FD8A828B83A3A3A3A3A3E082
:102C9000FEA3E0FF8C828D83E02EF0A3E03FF07E68
:102CA000028C828D83E088828983F08C828D83A35D
:102CB000AC82AD8388828983A3A882A9831EEE702B
:102CC000E0EA2483F582EB3400F583E0601A7508AE
:102CD00018750908780812190D7C087903120AFE84
:102CE000740212168275080C74012508F5D975D97D
:102CF00003758218758308AE08E0F5D9A31EEE703F
:102D0000F875E1957904120C487901800279000286
:102D1000314C74F71216FAEAFEEBFF9061D0E060D6
:102D200003022E0975D91875D90375D903EEF8EF8A
:102D3000F9E82408FAE93400FBE8249CF582E93438
:102D400000F583E0F5D988828983A3A882A983EA64
:102D5000687002EB6970E2EEF8EFF9E82402FAE934
:102D60003400FBE824A4F582E93400F583E0F5D9CA
:102D700088828983A3A882A983EA687002EB6970BC
:102D8000E2EE2494F582EF3400F583E5822408F81E
:102D9000E5833400F9E0F5D9A3E865827003E965BD
:102DA0008370F2EE2488F582EF3400F583E5822407
:102DB00004F8E5833400F9E0F5D9A3E865827003EF
:102DC000E9658370F275E1957908EE2494FAEF34A1
:102DD00000FB120AB67904EE2488FAEF3400FB12E5
:102DE0000AB67904120C48EE2470F582EF3400F52F
:102DF00083E0F8A3E0F9EE2472F582EF3400F58366
:102E0000E8F0A3E9F0790180027900022F6A74F6F4
:102E10001216FAEAFEEBFF9008187406F07508180F
:102E2000750908780812190D7C017903120AFE74DD
:102E30000212168275D90675D90375821875830832
:102E4000E0F5D9A3E582641D7004E583640870F0A1
:102E500075E195900499E06408701EEE2470F58287
:102E6000EF3400F583E0F8A3E0F9EE2472F582EF89
:102E70003400F583E8F0A3E9F0790102314C74F6EF
:102E80001216FAEAFEEBFF9061D0E0705E9008182F
:102E9000740AF0750818750908780812190D7C0174
:102EA0007903120AFE740212168275D90675D903C7
:102EB000758218758308E0F5D9A3E582641D700456
:102EC000E583640870F075E195EE2470F582EF34C7
:102ED00000F583E0F8A3E0F9EE2472F582EF340008
:102EE000F583E8F0A3E9F079018002790002314C22
:102EF00074F61216FAEAFEEBFF9061D0E070667885
:102F000001900818740BF0900499E064077019752B
:102F10000818750908780812190D7C017903120A3E
:102F2000FE74021216827805740128F5D975D9034A
:102F3000758218758308E8FAE0F5D9A31AEA70F8E3
:102F400075E195EE2470F582EF3400F583E0F8A387
:102F5000E0F9EE2472F582EF3400F583E8F0A3E99E
:102F6000F079018002790002314C7F010217CC74A4
:102F7000F61216FAEAFEEBFF9061D0E0F87480C317
:102F800098FAEE2483F582EF3400F583E06004784C
:102F90000480027800E8240BF8EAC398500302305A
:102FA000457D099008187408F0EE24E5F8EF340028
:102FB000F97A197B087C0888828983E08A828B836E
:102FC000F088828983A3A882A9838A828B83A3AA9B
:102FD00082AB831CEC70E0EE2483F582EF3400F5C5
:102FE00083E0601D750818750908780812190D7CB2
:102FF000097903EEFAEFFB120AFE74021216827DC3
:103000000D74012DF5D975D9037582187583088D56
:1030100008E0F5D9A31508E50870F675E19579047F
:10302000120C48EE2470F582EF3400F583E0F8A32B
:10303000E0F9EE2472F582EF3400F583E8F0A3E9BD
:10304000F079018002790002314C74F61216FAEA26
:10305000FEEBFF9061D0E0F87480C398FAEE248311
:10306000F582EF3400F583E0600478048002780094
:10307000E82408F8EAC398500302314A7D06900814
:1030800018740CF09004B6E0900819F07AB77B043D
:10309000781A79087C028A828B83E088828983F09F
:1030A0008A828B83A3AA82AB8388828983A3A88226
:1030B000A9831CEC70E07AB97B047C028A828B8342
:1030C000E088828983F08A828B83A3AA82AB83887B
:1030D000828983A3A882A9831CEC70E0EE2483F587
:1030E00082EF3400F583E0601D75081875090878D3
:1030F0000812190D7C067903EEFAEFFB120AFE7432
:10310000021216827D0A74012DF5D975D9037582D4
:10311000187583088D08E0F5D9A31508E50870F641
:1031200075E1957904120C48EE2470F582EF3400B5
:10313000F583E0F8A3E0F9EE2472F582EF3400F5B0
:1031400083E8F0A3E9F07901800279007F02021799
:10315000CC74F61216FAEAFEEBFF9061D0E0F87438
:1031600080C398FAEE2483F582EF3400F583E060A3
:1031700004780480027800E82404F8EAC398500335
:1031800002322B7802900818E8F0EE24F7F582EF6F
:103190003400F583E0900819F0EE2483F582EF34D3
:1031A00000F583E0601B7508187509087808121986
:1031B0000D7C027903EEFA120AFE7402121682786E
:1031C00006740128F5D975D90375821875830888A6
:1031D00008E0F5D9A31508E50870F675E195EE2429
:1031E00074F582EF3400F583E4F0EE2480F582EF8D
:1031F0003400F583E4F0EE241DF582EF3400F5830E
:10320000E4F0A3F07904120C48EE240DF582EF34BB
:1032100000F583E0F8A3E0F9EE2472F582EF3400C4
:10322000F583E8F0A3E9F079018002790002314CDE
:1032300074F61216FA9061D0E0F87480C398FCEA34
:103240002483F582EB3400F583E060047804800287
:103250007800E82404F8ECC398405B7902900818E1
:103260007407F0EA24F8F582EB3400F583E0900867
:1032700019F0EA2483F582EB3400F583E0601875D9
:103280000818750908780812190D7C0209120AFE3F
:1032900074021216827906740129F5D975D903755D
:1032A0008218758308E9F8E0F5D9A318E870F87575
:1032B000E19579018002790002314C74F51216FA19
:1032C000E9FCA2AFE433F50AC2AF7D0080010DEA4C
:1032D000246FF582EB3400F583E0F8EDC398501AC3
:1032E0008D08EA2508F8EB3400F9E8246BF582E94B
:1032F0003400F583E06C70D68024EA246FF8EB3458
:1033000000F9E0FEEA2EFAEB3400FBEA246BF582CA
:10331000EB3400F583ECF088828983E004F0E50A61
:10332000A2E092AF7F030217CC74F61216FAA2AF96
:10333000E433FDC2AFEA246FF582EB3400F583E09D
:1033400014F07C0060368C08EA2508F8EB3400F9AC
:10335000E8246CF582E93400F583E0C0E0E8246BF2
:10336000F582E93400F583D0E0F00CEA246FF582B1
:10337000EB3400F583E0F8ECC39840CAEA246EF51C
:1033800082EB3400F58374FFF0EA246AF582EB34B3
:1033900000F583E4F0EDA2E092AF02314CC082C0B0
:1033A00083E5A8F8C2AFEA246BF582EB3400F5831D
:1033B000E9F0EA246AF582EB3400F583E4F0E8A250
:1033C000E792AF02254D74F31216FAEAFEEBFFEC1A
:1033D000FAEDFB8A828B83A3A3A3A3E0541FF0EE34
:1033E0002436F582EF3400F583E4F0F50AEEFCEFC5
:1033F000FD8A828B83E0C0E0EC245DF582ED340031
:10340000F583D0E0F0750B00E50A33333354F8F55B
:103410000C8A828B83E0F508750900E50B780812A9
:10342000163AE508A2E0502FEE2436F8EF3400F902
:1034300088828983E0F508EE2508F508EF3400F569
:1034400009E5082438F582E5093400F583E50CF038
:1034500088828983E004F0050B050CE50BC3940812
:1034600040AF050A8A828B83A3AA82AB838C828DAC
:1034700083A3AC82AD83E50AC3940550030233F104
:103480007F050217CC74F71216FA9004C5E06403A6
:1034900070077A007B00022F6A7B0078C579048868
:1034A000828983A3A3A3A3A3A3E0600302377FEBD6
:1034B000F875F006A4C8AAF02AF974C928F87404AB
:1034C00039F988828983A3A37401F088828983A350
:1034D000A3A3E4F0EB88828983A3A3A3A3F0E82449
:1034E00062F582E93400F5837401F0E82465F58221
:1034F000E93400F583E4F0A3F0E82468F582E934C8
:1035000000F5837401F088828983A3A3A3A3A3E4B5
:10351000F0A3F088828983A3A3A3A3A3A3A3F0A30A
:10352000F0E8240FF582E93400F5837401F0E82413
:1035300035F582E93400F583E4F09086DE12154219
:10354000E82418F582E93400F58312154EE8241CAE
:10355000F582E93400F583E4F0E8241DF582E934CE
:1035600000F583E4F0A3F0E82480F582E93400F567
:1035700083E4F0E82474F582E93400F583E4F0E8AC
:103580002469F582E93400F5837480F0E8246AF553
:1035900082E93400F583E4F0E8246FF582E9340031
:1035A000F583E4F0E82467F582E93400F583E4F07C
:1035B000E824EDF582E93400F583E4F0E824EEF543
:1035C00082E93400F583E4F0E824EFF582E9340081
:1035D000F583E4F0E824F0F582E93400F583E4F0C3
:1035E000E824F1F582E93400F583E4F0A3F0E8245F
:1035F000F3F582E93400F583E4F0A3F0E824F6F56E
:1036000082E93400F583E4F0E82483F582E93400AC
:10361000F583E4F0E824D3F582E93400F583E4F09F
:10362000E824D4F582E93400F583E4F09086DE12D4
:103630001542E824D5F582E93400F58312154E9041
:1036400086DE121542E824D9F582E93400F58312AA
:10365000154EE824DFF582E93400F583E4F0E82430
:10366000E1F582E93400F583E4F0E824DDF582E950
:103670003400F583E4F0E824E2F582E93400F583D0
:10368000E4F0E824E3F582E93400F583E4F0E8248B
:10369000F9F582E93400F583E4F0A3F0E824FBF5C2
:1036A00082E93400F583E4F0A3F0E824FDF582E933
:1036B0003400F583E4F0A3F0E824FFF582E9340058
:1036C000F583E4F0A3F0E8FAE9FBEA2404FCEB3428
:1036D00000FDEA246BF582EB3400F58374FFF08A79
:1036E000828B83A3AA82AB83EC6A7002ED6B70E2DB
:1036F000E8FAE9FB7CE27D078C828D83E0C0E0EA9A
:10370000245DF582EB3400F583D0E0F08C828D836C
:10371000A3AC82AD838A828B83A3AA82AB83EC6441
:10372000E77003ED640770D0E8FAE9FB7CAC7D0438
:103730008C828D83A3E0C0E0EA24E5F582EB3400BF
:10374000F583D0E0F08C828D83A3AC82AD838A8236
:103750008B83A3AA82AB83EC64B47003ED64047022
:10376000CF9004C5E004F06401700D88828983A3C2
:10377000A3A3A3E09004C7F0E8FAE9FB0234960B98
:10378000E82406F8E93401F9EBC39403400302345A
:103790009202349FC082C0838A828B83A3A3A3E05A
:1037A000600F8A828B83A3A3A3E4F09004C6E01485
:1037B000F09004C5E014F070069004C774FFF08A1E
:1037C000828B83A3A3E4F09007E7E0700D9004C61A
:1037D000E0640170057900120C1202254DC082C010
:1037E0008378C5790488828983A3A3A3A3A3A3A311
:1037F000E4F088828983A3A3A3A3A3A3F0E824060B
:10380000F8E93401F9E864D77003E9640770D690E9
:1038100004C5E4F0A3F0A374FFF075E1F102254DB7
:1038200074F31216FA750800750900750C00750A14
:10383000C9750B04AE0AAF0B8E828F83A3A3A3E0DE
:10384000603FE5084509700AEEF8EFF98808890934
:10385000802F850882850983E0F8A3E0F5838882BC
:10386000A3A31219208E828F83E0F8A3E0F583884A
:1038700082A3A3121542121F277404121682E96054
:10388000C7050CEE2406F50AEF3401F50BE50CC371
:10389000940340A0850882850983A3A3A3A3E0F92C
:1038A00002348074F61216FA78FF79FF7508007EEC
:1038B000C97F04EEFCEFFD8C828D83A3A3A3E0609F
:1038C0006474FF68700374FF697025EC2474F582DA
:1038D000ED3400F583E064017011EC247AF582ED9B
:1038E0003400F583E0F8A3E0F9803AEC242E80ED73
:1038F000EC2474F582ED3400F583E064017014EC7F
:10390000247AF582ED3400F583C3E098A3E0995062
:103910001480C7EC242EF582ED3400F583C3E098C3
:10392000A3E09940C60508EE2406FEEF3401FFE54A
:1039300008C3940350030238B3C3EA98EB994004D8
:10394000E8FAE9FB02314C74F61216FAEAFEEBFFD4
:103950008E828F83A3A3A3E0600F8E828F83A3A3A5
:10396000A3E4F09004C6E014F09004C5E014F070F5
:10397000069004C774FFF08E828F83A3A3E4F090B7
:1039800007E7E0700D9004C6E0640170057900124D
:103990000C12EE2465F582EF3400F583E0F8A3E025
:1039A000F9E8496029EE2465F8EF3400F9880889C0
:1039B000098882F583E0FCA3E0FD9004C7E0FA7B70
:1039C000001207E0850882850983E4F0A3F0EEFA8F
:1039D000EFFB120B7C02314C74F71216FAEAFEEB85
:1039E000FF8E828F83A3A3A3A3E0FA7B0012082893
:1039F000EEFAEFFB120A74120B5E022F6AC082C04D
:103A0000837C007AC97B04EAF8EBF988828983A376
:103A1000A3A3E0601EE8246FF582E93400F583E09B
:103A20006011E8246BF582E93400F583E0700479D5
:103A30000180110CEA2406FAEB3401FBECC3940379
:103A400040C5790002254DC082C08378AC790488D6
:103A5000828983A3E4F088828983A3A882A983E86A
:103A600064B47003E9640470E69004AD7401022547
:103A70000EC082C08374FC12166C9086DE12154252
:103A800085188285198312154E120ABCE9851882A1
:103A9000851983F0120ABC74011216D6E9F0120AD5
:103AA000BC74021216D6E9F08518828519831215A6
:103AB0004274040222FD74F61216FAEAFEEBFFECE1
:103AC0002403F8ED3400F988088909EC2407F8ED9F
:103AD0003400F9E8FCE9FD8C828D83E0F8A3E0F97D
:103AE000850882850983E0FAA3E0FB1215E1EE2444
:103AF0000DF582EF3400F583E8F0A3E9F08C828DB8
:103B000083E0F8A3E0F9850882850983E0FAA3E061
:103B1000FB1215E18B09EA45096013EE240DF582CD
:103B2000EF3400F583E02401F0A3E03400F002312B
:103B30004C74F61216FAEAFEEBFFEE242EF582EF35
:103B40003400F583E0FCA3E0FD780079FAECFAEDAF
:103B5000FB1215E1EE2470F582EF3400F583E8F0F6
:103B6000A3E9F0780079FAECFAEDFB1215E18B0984
:103B7000EA45096013EE2470F582EF3400F583E026
:103B80002401F0A3E03400F002314C74F01216FA74
:103B9000EAFEEBFF74101216D67808121524120BE9
:103BA000E28A0C8B0D8C0E8D0F908676780C121499
:103BB0008A908696780C1214EB780C1219098E8272
:103BC0008F83E0F8A3E0F5838882A3A31215421245
:103BD0001F277404121682E96003023CD88E828F7C
:103BE00083E02402F8A3E03400F9E8FAE9FB8A82D2
:103BF0008B83780812149D90869678081215248A73
:103C0000828B8378081214FEEE240BF582EF3400C9
:103C1000F583C082C0838E828F83A3A3A3A3A3E076
:103C20002401F8A3E03400F9D083D082E068700367
:103C3000A3E06970057901023CDA8E828F83A3A329
:103C4000A3A3A3A3A3E02401F0A3E03400F0EE2497
:103C500074F582EF3400F583E064017036EE24756C
:103C6000F582EF3400F583E0F8A3E0F98E828F83CC
:103C7000A3A3A3A3A3A3A3E0687003A3E0697013A5
:103C8000EE2475F582EF3400F583E02401F0A3E023
:103C90003400F0EE2480F582EF3400F583E0640117
:103CA0007036EE2481F582EF3400F583E0F8A3E06E
:103CB000F98E828F83A3A3A3A3A3A3A3E0687003B9
:103CC000A3E0697013EE2481F582EF3400F583E000
:103CD0002401F0A3E03400F079007F080217CC74CF
:103CE000F71216FA9004C7E0F875F006A4C8AAF017
:103CF0002AF974C928FE740439FF8028EE2465F877
:103D0000EF3400F988828983E0FCA3E0FD88828992
:103D100083E4F0A3F08E828F83A3A3A3A3E0FA7BB6
:103D2000001207E0EE2465F582EF3400F583E0F839
:103D3000A3E0F9E849604FEE2464F582EF3400F522
:103D400083E0F5087808121911EE2463F582EF3448
:103D500000F583E0F9EE2465F582EF3400F583E0A9
:103D6000FCA3E0FDEEFAEFFB120AAA740112168220
:103D7000E96089EE2465F582EF3400F583E0F8A36D
:103D8000E0F9E84970137C007D008E828F83A3A345
:103D9000A3A3E0FA7B001207E0022F6A74F2121666
:103DA000FAEAFEEBFF890A740E1216D6E0FAEE2448
:103DB00062F582EF3400F583E064016003023E683F
:103DC0009061D0E0F87480C398F50CEE2483F582FE
:103DD000EF3400F583E060047804800278008908FD
:103DE000E928F8E43400F9E824020808E93400F985
:103DF000E50C98E499A2D265D0334068EA70057565
:103E00000B028003750B01E0603975090078081218
:103E1000190D7A187B08120AE074021216827508CE
:103E200018750908780812190DAC0AA90BEEFAEFFB
:103E3000FB120AFE74021216827404250AF50A7C2B
:103E4000187D087401250AF5D9850BD9E50A600D9E
:103E50008C828D83F8E0F5D9A318E870F875E195A8
:103E6000790080067907800279FF7F060217CCC0AF
:103E700082C083E960208C828D83E08A828B83F00C
:103E80008C828D83A3AC82AD838A828B83A3AA822A
:103E9000AB8319E970E0ECFAEDFB02254DC082C05E
:103EA000837869790888828983A3A3A3A3A3A3E461
:103EB000F088828983A3A3A3A3A374FFF0E8241846
:103EC000F8E93400F9E864C97003E9640870D69031
:103ED000086B74FFF090086AE4F0900869F09008AD
:103EE0006CF0A3F00255C574EC1216FA90086CE061
:103EF000F508A3E0F509E508450970061209C002B6
:103F00004B94850882850983E01460181460152499
:103F1000FE601124C4700302465624C0700302469A
:103F200056024B94E0F9120B708A0A8B0BAE0AAF63
:103F30000B9004C6E070030242D4120A68E9F875D7
:103F4000F006A4C8AAF02AF974C928F50C7404393B
:103F5000F50D850C82F583E0F50AA3E0F50BAC0ABC
:103F6000FDEEFAEFFB120B6AE9F50E7402650E70B6
:103F7000030242938E828F83E024FE600A24FE7047
:103F80000302418B024B94EE65087003EF650960F4
:103F9000211209DE9007F9E0640170169007F8E03D
:103FA00070107901120C7E120C4E120C78790012EE
:103FB0000C84E50E6021E5082415F582E50934003E
:103FC000F583E060129007F4E0F8A3E0F9A3E0685D
:103FD0007003A3E0697026120BE28A0C8B0D8C0E25
:103FE0008D0F908686780C12148A908696780C1223
:103FF00014EB8E828F83A3A3780C121533E508246B
:1040000015F582E5093400F583E0640160030240A0
:10401000B1850A82850B83A3A3780C1215249086A0
:104020007E780C12148A780C1219098E828F83A361
:10403000A3C082C0839007F6E0F508A3E085080CD2
:10404000F50DE4F50EF50FD083D082780C12148AAA
:10405000AA0CAB0DAC0EAD0F121F27740412168202
:10406000E9703C8E828F83A3A3C082C0839007F641
:10407000E0F508A3E0F509E4F50AF50BD083D0825A
:10408000780812148A90869678081214EBEE240EA3
:10409000F582EF3400F583780812153302418385E9
:1040A0000A82850B83A3A3780812152490867E804C
:1040B000CFEE240EF582EF3400F5831219208E82A4
:1040C0008F83A3A3121542121F277404121682E9CC
:1040D00064016003024183850A82850B83A3A37870
:1040E0000C12152490867E780C12148A780C121902
:1040F000098E828F83A3A3C082C0839007F6E0F568
:1041000008A3E085080CF50DE4F50EF50FD083D07B
:1041100082780C12148AAA0CAB0DAC0EAD0F121FD4
:10412000277404121682E9701F8E828F83A3A3C0A6
:1041300082C0839007F6E0F508A3E0F509E4F50AEC
:10414000F50BD083D0828010850A82850B83A3A3D0
:10415000780812152490867E780812148A90869624
:1041600078081214EBEE240EF582EF3400F5837814
:10417000081215339007FCE0642770047425800250
:10418000E004F090086B7402024B8CEE650870033B
:10419000EF65096031900810E0F91209E4850882A2
:1041A000850983E06402701E9007F9E064017016CF
:1041B0009007F8E070107900120C7E120C4E120C71
:1041C000787901120C84E50E601290080AE0F8A3D9
:1041D000E0F9A3E0687003A3E0697026120BE28A9D
:1041E0000C8B0D8C0E8D0F908686780C12148A9095
:1041F0008696780C1214EB8E828F83A3A3780C1210
:104200001533850A82850B83A3A3780C121524909D
:10421000867E780C12148A780C1219098E828F838C
:10422000A3A3C082C08390080CE0F508A3E0850832
:104230000CF50DE4F50EF50FD083D082780C121436
:104240008AAA0CAB0DAC0EAD0F121F277404121608
:1042500082E9701F8E828F83A3A3C082C0839008DF
:104260000CE0F508A3E0F509E4F50AF50BD083D0DE
:10427000828010850A82850B83A3A37808121524F7
:1042800090867E780812148A90869678081214EB2D
:10429000024B75850882850983E0640270139007DC
:1042A000F9E06401700B9007F8E070057900120CDA
:1042B0007EE50C2404FEE50D3400FF8E828F83E042
:1042C000F9120BA68E828F83E09004C7F0AA0AAB86
:1042D0000B024B91EE65087003EF65098E828F83A8
:1042E00060030244B8E024FE600A24FE7003024426
:1042F00013024B8DEE2415F582EF3400F583E06058
:10430000419007F4E0F8A3E0F9A3E0687003A3E0AC
:1043100069602F120BE28A088B098C0A8D0B90863C
:10432000DA780812148A78081219098E828F83A30A
:10433000A3121542121F277404121682E9600302A9
:104340004B8D120BE28A088B098C0A8D0B908686A6
:10435000780812148A90869678081214EB8E828F51
:1043600083A3A37808121533EE2415F582EF3400E9
:10437000F583E0640170348E828F83A3A3C082C072
:10438000839007F6E0F508A3E0F509E4F50AF50BDC
:10439000D083D082780812148AEE240EF582EF348E
:1043A00000F5837808121533024B8DEE240EF5824A
:1043B000EF3400F5831219208E828F83A3A3121588
:1043C00042121F277404121682E964016003024B33
:1043D0008D8E828F83A3A3C082C0839007F6E0F501
:1043E00008A3E0F509E4F50AF50BD083D08278083C
:1043F00012148AEE240EF582EF3400F58378081249
:1044000015339007FCE0642770057425024B8CE09F
:104410000480F990080AE0F8A3E0F9A3E0687003CB
:10442000A3E069602C120BE28A088B098C0A8D0BC1
:104430009086DA780812148A78081219098E828F09
:1044400083A3A3121542121F277404121682E97067
:1044500064EE2402F508EF3400F509120BE28A0C31
:104460008B0D8C0E8D0F908686780C12148A908698
:1044700096780C1214EB850882850983780C121546
:1044800033850882850983C082C08390080CE0F5DB
:1044900008A3E0F509E4F50AF50BD083D08278088B
:1044A00012148AEE240EF582EF3400F58378081298
:1044B00015331209EA024B8DE024FE600A24FE70D7
:1044C0000302457E024B941209DE9007F9E0640175
:1044D00070169007F8E070107901120C7E120C4EE5
:1044E000120C787900120C849007F4E0F8A3E0F93C
:1044F000A3E0687003A3E069602F120BE28A088BC7
:10450000098C0A8D0B9086DA780812148A780812C2
:1045100019098E828F83A3A3121542121F277404D8
:10452000121682E96003024183EE2402F508EF349B
:1045300000F509120BE28A0C8B0D8C0E8D0F908604
:1045400086780C12148A908696780C1214EB8508E3
:1045500082850983780C121533850882850983C00A
:1045600082C0839007F6E0F508A3E0F509E4F50AB8
:10457000F50BD083D082780812148A02408D9008FF
:1045800010E0F91209E4850882850983E06402706D
:104590001E9007F9E0640170169007F8E07010793A
:1045A00000120C7E120C4E120C787901120C8490C1
:1045B000080AE0F8A3E0F9A3E0687003A3E06960EB
:1045C0002C120BE28A088B098C0A8D0B9086DA7804
:1045D0000812148A78081219098E828F83A3A312F5
:1045E0001542121F277404121682E97066EE240227
:1045F000F8EF3400F988088909120BE28A0C8B0D58
:104600008C0E8D0F908686780C12148A9086967880
:104610000C1214EB850882850983780C12153385FA
:104620000882850983C082C08390080CE0F508A346
:10463000E0F509E4F50AF50BD083D082780812146E
:104640008AEE240EF582EF3400F5837808121533D4
:104650001209EA024B879004C6E070030249EC128B
:104660000A68E9F875F006A4C8AAF02AF974C928FE
:10467000F510740439F511851082F583E0F508A36F
:10468000E0F5099004C7E0F875F006A4C8AAF02A7E
:10469000F974C928F50C740439F50D90086AE054D2
:1046A000077003024915A3E0F9120B708A0A8B0BFD
:1046B000AE0AAF0BAC08AD09120B6AE9F50E740235
:1046C000650E7003024915850C82850D83A3A3A393
:1046D000A3E0F875F08AA4C8AAF02AF974CE28F5E8
:1046E0000A740839F50BAA0AFB120B9AAA0AAB0B3B
:1046F000120B94751280751300781212190D7C003C
:104700007D60E50A2406FAE50B3401FB120AE07429
:1047100002121682A80AA90B906195E0C0E0E82475
:1047200086F582E93401F583D0E0F0906196E0C02F
:10473000E0E82487F582E93401F583D0E0F0906168
:1047400097E0C0E0E82488F582E93401F583D0E001
:10475000F0906198E0C0E0E82489F582E93401F541
:1047600083D0E0F08E828F83E024FE600A24FE7006
:10477000030248500249151209DE9007F9E064016E
:1047800070119007F8E0700B120C4E120C78790043
:10479000120C84E50E60129007F4E0F8A3E0F9A390
:1047A000E0687003A3E0697026120BE28A0C8B0D9F
:1047B0008C0E8D0F908686780C12148A90869678CF
:1047C0000C1214EB8E828F83A3A3780C1215338501
:1047D0000882850983A3A3780C12152490867E781D
:1047E0000C12148A780C1219098E828F83A3A3C02D
:1047F00082C0839007F6E0F50CA3E0F50DE4F50E1A
:10480000F50FD083D082780C12148AAA0CAB0DACB1
:104810000EAD0F121F277404121682E9701F8E82CC
:104820008F83A3A3C082C0839007F6E0F508A3E0BE
:10483000F509E4F50AF50BD083D082801085088253
:10484000850983A3A3780812152490867E024080F0
:10485000900810E0F91209E4E50E601290080AE0F1
:10486000F8A3E0F9A3E0687003A3E0697026120BD7
:10487000E28A0C8B0D8C0E8D0F908686780C1214AC
:104880008A908696780C1214EB8E828F83A3A3787D
:104890000C121533850882850983A3A3780C1215A1
:1048A0002490867E780C12148A780C1219098E8254
:1048B0008F83A3A3C082C08390080CE0F50CA3E013
:1048C000F50DE4F50EF50FD083D082780C12148A22
:1048D000AA0CAB0DAC0EAD0F121F2774041216827A
:1048E000E9701F8E828F83A3A3C082C08390080CBF
:1048F000E0F508A3E0F509E4F50AF50BD083D082D2
:104900008010850882850983A3A378081215249056
:10491000867E024283E510650C7004E511650D701A
:10492000030249E5850C82850D83A3A3A3E07003F0
:104930000249C9850C82850D83A3A3A3A3E0F87562
:10494000F08AA4C8AAF02AF974CE28FE740839FFA8
:10495000EEFAEFFB120B9AEEFAEFFB120B94750ACC
:1049600080750B00780A12190D7C007D60EE24061C
:10497000FAEF3401FB120AE074021216829061957C
:10498000E0C0E0EE2486F582EF3401F583D0E0F05C
:10499000906196E0C0E0EE2487F582EF3401F58364
:1049A000D0E0F0906197E0C0E0EE2488F582EF342B
:1049B00001F583D0E0F0906198E0C0E0EE2489F545
:1049C00082EF3401F583D0E0F0E5102404FEE51118
:1049D0003400FF8E828F83E0F9120BA68E828F83C4
:1049E000E09004C7F0AA08AB09024B9190086AE076
:1049F00054077003024B94A3E0F9120B708A088BE2
:104A000009AE08AF098E828F83E024FE600A24FE7F
:104A10007003024ADB024B941209DE9007F9E0644E
:104A20000170169007F8E070107901120C7E120CDC
:104A30004E120C787900120C849007F4E0F8A3E091
:104A4000F9A3E0687003A3E069602C120BE28A0806
:104A50008B098C0A8D0B9086DA780812148A7808F4
:104A60001219098E828F83A3A3121542121F277475
:104A700004121682E97061EE2402F508EF3400F5A5
:104A800009120BE28A0C8B0D8C0E8D0F90868678A6
:104A90000C12148A908696780C1214EB8508828585
:104AA0000983780C121533850882850983C082C07A
:104AB000839007F6E0F508A3E0F509E4F50AF50BA5
:104AC000D083D082780812148AEE240EF582EF3457
:104AD00000F5837808121533024183900810E0F93D
:104AE0001209E490080AE0F8A3E0F9A3E068700373
:104AF000A3E069602C120BE28A088B098C0A8D0BEB
:104B00009086DA780812148A78081219098E828F32
:104B100083A3A3121542121F277404121682E97090
:104B200063EE2402F8EF3400F988088909120BE2D9
:104B30008A0C8B0D8C0E8D0F908686780C12148A41
:104B4000908696780C1214EB850882850983780C80
:104B5000121533850882850983C082C08390080CB2
:104B6000E0F508A3E0F509E4F50AF50BD083D0825F
:104B7000780812148AEE240EF582EF3400F583785B
:104B8000081215331209EA90086B7404F0EEFAEF7C
:104B9000FB120B647F0C0217CC74F01216FAEAFEBB
:104BA000EBFFEE2402F8EF3400F988088909EE24BF
:104BB00006F8EF3400F9880A890B8882F583121908
:104BC00024850882850983121542120BBE740212D5
:104BD0001682850A82850B8312192485088285092D
:104BE00083121542120BB27402121682EE240EF5D5
:104BF00082EF3400F583121542120BC48E828F832C
:104C0000E06440701CEE2412F8EF3400F9888289C9
:104C100083E0906064F088828983A3E0906065807F
:104C200006906064E4F0A3F090086CEEF0A3EFF05F
:104C3000EE2416F582EF3400F583E0F8A3E0F58367
:104C400088821216F8906054E4F0A3F0A3F0A3F069
:104C5000A3F0A3F0A3F0A3F0A3F0A3F0A3F0A3F0BC
:104C6000906182E0C2E6F07591BFEE2415F582EF07
:104C70003400F583E064017003120BF4E5E170FC8D
:104C8000EE2414F582EF3400F583E0F46003E0F5E0
:104C9000E1EE2415F582EF3400F5837401F0900401
:104CA0009FE06401706F120BE28A088B098C0A8DF9
:104CB0000B78081219098E828F83A3A31215421252
:104CC0001F8474041216828A088B098C0A8D0B903B
:104CD00086FA780C1215247808790C121350740394
:104CE000780812143FE50824F4F508E5093401F5C5
:104CF00009900816E060031211B8E4F50AF50B7884
:104D0000081219097A207B00900498E0F9121260C9
:104D100074041216827F080217CC74EC1216FAEA99
:104D2000FEEBFF8C088D09EE4F70057902024E0FE5
:104D3000120BE28A0C8B0D8C0E8D0F9086EA780C8C
:104D400012148A908696780C1214EB8E828F83E070
:104D50006402701F9007F4E0F8A3E0F9A3E0687024
:104D600003A3E06970248E828F83A3A3780C1215AD
:104D7000338017E06404701290080AE0F8A3E0F9A9
:104D8000A3E0687003A3E06960DC780C1219098560
:104D90000882850983A3A3121542121F847404128A
:104DA00016828A108B118C128D139086AA7810129D
:104DB00013314003024D2B850882850983A3A37814
:104DC000081215249086FE780812148A78081219A1
:104DD000098E828F83A3A3121542121F2774041217
:104DE0001682E96003024D2B9086B2780C12148A69
:104DF000780C1219098E828F83A3A3121542121FF9
:104E0000277404121682E970047900800279010285
:104E10004B9474F01216FA890874FF650860030257
:104E20004F9E90086AE05407700302546A7A007833
:104E300069790888828983A3A3A3A3A3E06404708B
:104E400050EA75F018A4F8A9F0746F28F582740878
:104E500039F583E0640170487A00786979088882BE
:104E60008983A3A3A3A3A3E064046003024EF6888E
:104E7000828983A3A3A3A3A3A3E064017078EA7546
:104E8000F018A4F8A9F0746E28FA740839FB0254DB
:104E90006E0AE82418F8E93400F9EAC39404409350
:104EA0007A007869790888828983A3A3A3A3A3E001
:104EB00064017057EA75F018A4F8A9F0746F28F52A
:104EC00082740839F583E06401704F7A007869795B
:104ED0000888828983A3A3A3A3A3E06401600302DB
:104EE0004F7A88828983A3A3A3A3A3A3E06401606C
:104EF00003024F7A80880AE82418F8E93400F9EAB6
:104F0000C394045003024E5E02546A0AE82418F85F
:104F1000E93400F9EAC39404408C7A00786979088E
:104F200088828983A3A3A3A3A3E064027061EA75C6
:104F3000F018A4F8A9F0746F28F582740839F58385
:104F4000E0640170597A007869790888828983A3BE
:104F5000A3A3A3A3E06402707A88828983A3A3A396
:104F6000A3A3A3E06401706BEA75F018A4F8A9F09C
:104F7000746E28FA740839FB806F0AE82418F8E97F
:104F80003400F9EAC394045003024ED102546A0A71
:104F9000E82418F8E93400F9EAC3940440827A005E
:104FA0007869790888828983A3A3A3A3A3E065080D
:104FB000703D88828983A3A3A3A3A3A3E0640170A7
:104FC0002EEA75F018A4F8A9F0746E28FE7408395A
:104FD000FF802F0AE82418F8E93400F9EAC39404A2
:104FE0005003024F4B7A007B0002546E02546A0A4F
:104FF000E82418F8E93400F9EAC3940440A67E00D6
:105000007F007A007869790888828983A3A3A3A3A3
:10501000A3E06508701BEA75F018A4F8A9F0746F96
:1050200028F582740839F583E0640170137A0180F1
:10503000110AE82418F8E93400F9EAC3940440C8D6
:105040007A00E50814600F14700302520724FE7002
:105050000302536180967B0078697908888289838E
:10506000A3A3A3A3A3E064027055EB75F018A4F802
:10507000A9F0746F28F582740839F583E064017033
:105080004D7B007869790888828983A3A3A3A3A3B1
:10509000E06402600302513D88828983A3A3A3A335
:1050A000A3A3E06401600302513DEB75F018A4F87E
:1050B000A9F0746E28F50A740839F50B0251550BE6
:1050C000E82418F8E93400F9EBC39404408E7B001F
:1050D0007869790888828983A3A3A3A3A3E06404E1
:1050E0006003025191EB75F018A4F8A9F0746F28D1
:1050F000F582740839F583E0640160030251A37BF3
:10510000007869790888828983A3A3A3A3A3E064B4
:105110000460030251AE88828983A3A3A3A3A3A33F
:10512000E0640160030251AEEB75F018A4F8A9F039
:10513000746E28F50A740839F50B0251C60BE82481
:1051400018F8E93400F9EBC3940450030250877552
:105150000A00750B00EAA2E040030251F9850A82B9
:10516000850B83A3A3780C1215249086B6780C12B5
:10517000148A780C1219098E828F83A3A312154208
:10518000121F277404121682E9706EEEFAEF024EB7
:105190008D0BE82418F8E93400F9EBC394045003AC
:1051A0000250D4EAA2E05058EEFAEFFB80560BE82A
:1051B0002418F8E93400F9EBC394045003025105B4
:1051C000750A00750B00EAA2E0502E850A82850B55
:1051D00083A3A3780C1215249086B6780C12148A37
:1051E000780C1219098E828F83A3A3121542121F05
:1051F000277404121682E96092AA0AAB0B02546E5D
:105200007A007B0002546E7B007869790888828975
:1052100083A3A3A3A3A3E064047052EB75F018A4C6
:10522000F8A9F0746F28F582740839F583E06401F9
:10523000704A7B007869790888828983A3A3A3A335
:10524000A3E0640460030252D588828983A3A3A3E8
:10525000A3A3A3E06401707DEB75F018A4F8A9F096
:10526000746E28F50A740839F50B0252ED0BE82428
:1052700018F8E93400F9EBC3940440917B00786995
:10528000790888828983A3A3A3A3A3E064016003B0
:10529000025329EB75F018A4F8A9F0746F28F58271
:1052A000740839F583E06401600302533B7B0078A6
:1052B00069790888828983A3A3A3A3A3E06401601A
:1052C0000302534688828983A3A3A3A3A3A3E06414
:1052D00001707380830BE82418F8E93400F9EBC3FC
:1052E00094045003025238750A00750B00EAA2E0DC
:1052F00040030251F9850A82850B83A3A3780C121F
:1053000015249086B6780C12148A780C1219098E1E
:10531000828F83A3A3121542121F277404121682D0
:10532000E960030251F902518B0BE82418F8E934C3
:1053300000F9EBC394045003025282EAA2E0501A2F
:10534000EEFAEFFB80180BE82418F8E93400F9EBCB
:10535000C3940450030252B3808D7A007B00025440
:105360006E7B007869790888828983A3A3A3A3A3AD
:10537000E064017040EB75F018A4F8A9F0746F2890
:10538000F582740839F583E0640170387B00786930
:10539000790888828983A3A3A3A3A3E0640160039F
:1053A00002542688828983A3A3A3A3A3A3E0640154
:1053B00070740252580BE82418F8E93400F9EBC372
:1053C000940440A37B007869790888828983A3A329
:1053D000A3A3A3E064027063EB75F018A4F8A9F02E
:1053E000746F28F582740839F583E06401705B7B83
:1053F000007869790888828983A3A3A3A3A3E064C2
:1054000002704F88828983A3A3A3A3A3A3E06401AE
:105410007040EB75F018A4F8A9F0746E28F50A74C2
:105420000839F50B80410BE82418F8E93400F9EB52
:10543000C3940450030253920252E70BE82418F875
:10544000E93400F9EBC394044080EAA2E0501B0267
:10545000518B0BE82418F8E93400F9EBC3940440AD
:1054600094750A00750B000252ED7A007B00024D24
:105470001574F61216FA8909750800786979088892
:10548000828983A3A3A3A3A3A3E0600302554DE5F0
:105490000875F018A4F8A9F0746E28FE740839FF96
:1054A0008E828F83A37401F08E828F83E509F012C0
:1054B0000BE28E828F83A3A312154E8E828F83A35D
:1054C000A3A3A3A3A3E4F0A3F09086E2121542EEF7
:1054D000240EF582EF3400F58312154EEE2414F5F8
:1054E00082EF3400F5837401F0EE2415F582EF3479
:1054F00000F5837401F0EE2416F582EF3400F58395
:10550000E4F0A3F090086AE04509F0900869E0042F
:10551000F06401600C748065096006744065097070
:1055200019E50875F018A4F8A9F0746E28F8740845
:1055300039F990086CE8F0A3E9F0E50875F018A4D3
:10554000F8A9F0746E28FA740839FB80180508E889
:105550002418F8E93400F9E508C394045003025410
:105560007F7A007B0080007F020217CCC082C0835C
:105570008A828B83E0F8A3E0F98A828B83E4F0A32C
:10558000F088828983A3F088828983E0F4F8900808
:105590006AE058F0900869E014F0700B90086CE431
:1055A000F0A3F0900499F0801CC082C08390086939
:1055B000E0600A90086CE0FAA3E0FB80047A007BCC
:1055C000008002E0F9D083D08202011FC082C08334
:1055D000E9FB7A007869790888828983A3A3A3A369
:1055E000A3E06B7016EA75F018A4F8A9F0746F28A0
:1055F000F582740839F583E0F980110AE82418F877
:10560000E93400F9EAC3940440CE790080B7C0823F
:10561000C0839008690255C374F61216FAEAFEEBCD
:10562000FF9061D0E0C0E0EE2400F582EF3401F598
:1056300083D0E0F09061D7E0FA9061D5E0C39A544E
:105640007FC0E0EE2401F582EF3401F583D0E0F075
:10565000EE2402F8EF3401F99061D6E0C39A547F4A
:1056600088828983F0701A9061C5E0A2E45012E04C
:10567000A2E7500DEE2402F582EF3401F583748029
:10568000F0120CA8EE2401F582EF3401F583E070EE
:1056900034EE2402F582EF3401F583E07027906147
:1056A000C5E0A2E4501FE0A2E7501AEE2402F58202
:1056B000EF3401F5837480F0EE2401F582EF3401BC
:1056C000F5837480F075E1957800EE2400F582EFA3
:1056D0003401F583E060279061D3E0C0E08808EEF4
:1056E0002508F582EF3400F583D0E0F008EE2400C1
:1056F000F582EF3401F583E0F9E8C39940D975E10B
:105700009102556774F61216FAEAFEEBFF9061C833
:10571000E0C0E0EE2403F582EF3401F583D0E0F041
:105720009061CFE0FA9061CDE0C39A547FC0E0EE83
:105730002404F582EF3401F583D0E0F0EE2405F87F
:10574000EF3401F99061CEE0C39A547F8882898357
:10575000F0701A9061C5E0A2E05012E0A2E3500D93
:10576000EE2405F582EF3401F5837480F0120CAE5F
:10577000EE2404F582EF3401F583E07034EE240565
:10578000F582EF3401F583E070279061C5E0A2E077
:10579000501FE0A2E3501AEE2405F582EF3401F524
:1057A000837480F0EE2404F582EF3401F583748075
:1057B000F0120CB47A00EE2403F582EF3401F58385
:1057C000E0602F9061CBE0C0E08A08EE2508F8EF9A
:1057D0003400F9E82480F582E93400F583D0E0F064
:1057E0000AEE2403F582EF3401F583E0F8EAC3986A
:1057F00040D175E18102556774F41216FA8908A840
:1058000008E875F08AA4C8AAF02AF974CE28FE74B4
:105810000839FFEEFAEFFB120B9AEEFAEFFB120BD0
:1058200094750A80750B00780A12190D7C007D6052
:10583000EE2406FAEF3401FB120AE074021216821B
:10584000906195E0C0E0EE2486F582EF3401F583A7
:10585000D0E0F0906196E0C0E0EE2487F582EF346E
:1058600001F583D0E0F0906197E0C0E0EE2488F588
:1058700082EF3401F583D0E0F0906198E0C0E0EE73
:105880002489F582EF3401F583D0E0F07F0402171C
:10589000CC74F21216FA8908A808E875F08AA4C830
:1058A000AAF02AF974CE28F8740839F99061C6E094
:1058B000FDE054F0F075E1817C00E82403F582E915
:1058C0003401F583E0602B8C0AE8250AFAE93400FC
:1058D000FBEA2480F582EB3400F583E09061CAF0A6
:1058E0000CE82403F582E93401F583E0FAECC39A6D
:1058F00040D5E82405F582E93401F583E0600490A1
:1059000061CEF0E82404F582E93401F583E0600417
:105910009061CDF0ED9061C6F0A808E875F08AA41A
:10592000C8AAF02AF974CE28F8740839F9E0FCE026
:10593000540FF075E1917A00E82400F582E9340112
:10594000F583E060238A0AE8250AF582E93400F548
:1059500083E09061D2F00AE82400F582E93401F591
:1059600083E0FBEAC39B40DDE82402F582E93401D1
:10597000F583E060049061D6F0E82401F582E93413
:1059800001F583E060049061D5F0EC9061C6F0858C
:105990000882AE82EEF875F08AA4C8AAF02AF974DB
:1059A000CE28F50A740839F50B750C80750D007852
:1059B0000C12190DE50A2406FCE50B3401FD7A00F2
:1059C0007B60120AE07402121682A80AA90BE8246E
:1059D00086F582E93401F583E0906195F0E824874B
:1059E000F582E93401F583E0906196F0E82488F5CA
:1059F00082E93401F583E0906197F0E82489F5822B
:105A0000E93401F583E0906198F0EE75F006A4CEDC
:105A1000A8F028FF74C92EF58274043FF583E0F8DE
:105A2000A3E0F5838882E0648070419011BA74220B
:105A3000F0A3740BF0A3740AF0A3740BF0A3742208
:105A4000F0A3740BF0A37422F0A3740BF0A3740AF8
:105A5000F0A3740BF0A37422F0A3740BF0A37428CA
:105A6000F0A3740BF0900499740880059004997465
:105A700007F09011C8740AF0A3740BF0A3740AF035
:105A8000A3740BF0A3740AF0A3740BF0A3740AF0D0
:105A9000A3740BF0A3740AF0A3740BF0A3740AF0C0
:105AA000A3740BF07F060217CCC082C083E990116B
:105AB00098F0D083D08202011F74F61216FAE99092
:105AC0000364F07CA47D037AFF7BFF1207207A0039
:105AD0008A08750900740278081216597465250839
:105AE000F874033509125B08A3F00AEAC394034073
:105AF000DF79051206AE900364E0F91205D67A3814
:105B00007B071208EE027089F98882898374FF127C
:105B10005B15E4F022F0A3126F16A32274F41216A0
:105B2000FA8A088B09EB54806030900364E0F91224
