:020000040000FA
:06000000020107021D4B86
:03002B00021FE4CD
:03003300021FC6E3
:03003B00021FFEA3
:03004300021F7A1F
:03005300021DBECD
:03006B00021FA0D1
:10008300021BFFE5C754F84401F5C77901220000BC
:100093000080FB120086B900030200F1E4791A78AC
:1000A30002B800028004F709D8FCE4791C7802B88E
:1000B30000028004F709D8FCE49002817882790F6A
:1000C3008002F0A3D8FCD9FA7A027B119001377829
:1000D300DA79018015E493A3AD82AE838A828B83A0
:1000E300F0A3AA82AB838D828E83D8E9D9E7758288
:1000F300A775837F7400120119758291758300744B
:100103000012011975D00075813F751881751902A8
:10011300759F00020096C09FF59FE473D09F22D085
:1001230083D082C09FE493C0E0740193C0E0740263
:1001330093F59F2284039603C0038A03FF0000B450
:10014300000028002800283075A000A000A000A00F
:100153000000080008E001F000100010001000107B
:10016300001000100050005000500010001000D08C
:10017300070000000000000F0001000500307507B4
:10018300001000010081FF0000FF020202FE830154
:100193000000FB83020E8401000058110202840157
:1001A3000000B102020E8401000059110212840101
:1001B3000000C702FFFF0100FF2002FE83010000D1
:1001C300F883020E840100008711021084000000EE
:1001D3000000021484030000A403E60AE60AE60A08
:1001E300E60AE60AE60AE60AE60AE60AE60AE60A8C
:1001F300E60AE60AB40CD20CAE0C01E803053F1084
:1002030002FFFFFF00FEFF544A475104011201227F
:1002130068B6031201227EB603120122ABB60312A3
:100223000122DBB603120122FCB6031201222DB711
:10023300031201227EB70312012295B70312012292
:1002430043B0031201225AB00312012289B00312F0
:100253000122C2B003120122EAB00312012218B133
:10026300031201222FB10312012246B1031201220C
:100273005CB10312012283B10312012296B103126E
:100283000122ACB103120122D4B103120122DE72A6
:1002930000120122DD7300120122077400120122F1
:1002A3005C74001201227D74001201229674001204
:1002B3000122987400120122B97400120122BC7544
:1002C30000120122797600120122467700120122E0
:1002D300AA77001201224178001201224478001209
:1002E3000122CA78001201220D79001201225F79DE
:1002F300001201229679001201221C7A00120122B7
:10030300A57A00120122EE7A00120122F17A00127C
:1003130001224F7B00120122677B00120122E17B45
:1003230000120122E47B00120122077C0012012249
:100333000A7C00120122B17C00120122D47C00123B
:100343000122EC7C001201221C7D00120122297D76
:10035300001201222C7D00120122987D001201223D
:10036300867E001201223C7F0012012276BD02121A
:10037300012251BE021201227FBE02120122FFBEE0
:10038300021201221FBF021201225DBF02120122CB
:10039300B0BF0212012218C002120122A9C0021228
:1003A300012274C10212012283C402120122EFC589
:1003B3000212012212C602120122A899031201227B
:1003C300399B031201228A9B03120122E99B031228
:1003D3000122F79B03120122209C031201220080B9
:1003E30003120122288003120122568003120122E4
:1003F3008D8003120122F580031201223E81031234
:100403000122898103120122C7810312012204827E
:1004130003120122328203120122D9820312012222
:10042300E38203120122F0820312012223830312C7
:100433000122E58303120122F183031201220984BD
:100443000312012213840312012291840312012255
:10045300B5BA03120122C3BA03120122DBBA031293
:100463000122F3BA031201220BBB031201225EEC39
:1004730001120122FCEC0112012274ED011201228E
:1004830089EE01120122C3EE011201226CEF011267
:10049300012241F001120122A5F101120122FCF116
:1004A3000112012283F2011201226AF301120122D5
:1004B300B7F30112012245F40112012269F401127A
:1004C30001223EF6011201227FF601120122A1F65A
:1004D3000112012266F7011201222CF801120122F6
:1004E30061FA01120122D79503120122ED9503123D
:1004F30001221396031201223B970312012245970F
:10050300031201229E98031201229E9903120122D3
:10051300228503120122C48503120122F7850312E7
:100523000122418603120122FB870312012293ADAC
:100533000112012211AE0112012221AE0112012288
:1005430004AF0112012227AF0112012286AF01126B
:1005530001229CB001120122A0B20112012257B460
:1005630001120122D3B401120122B0B501120122FA
:10057300DEB8011201227CB901120122D9BA01129B
:1005830001224CBC01120122F5BC011201223EBD25
:100593000112012275BD011201221ABE01120122AC
:1005A30098BE01120122DECE0112012233CF0112C5
:1005B300012278D00112012288D001120122ABD08E
:1005C30001120122F6D0011201229BD10112012254
:1005D30091D2011201225BD301120122D3D4011261
:1005E300012215D501120122B3D501120122D9D559
:1005F30001120122C7D701120122CCD70112012215
:10060300ADD90112012201DA0112012263DA0112CA
:1006130001228BDA011201222FDB01120122F1DB0D
:100623000112012222DC0112012225DC0112012226
:100633006DDC01120122AFDC0112012216DD011271
:10064300012292A603120122A5A603120122AEA63D
:1006530003120122C7A60312012212A703120122C9
:10066300EDA7031201227CA803120122C7A80312DB
:100673000122295A00120122395A001201229C5ADE
:1006830000120122E15A00120122915B00120122A1
:100693006A5C00120122935C00120122C35C001207
:1006A3000122D75E00120122B3600012012293627D
:1006B30000120122CB6300120122446600120122C0
:1006C300306700120122766800120122836900124A
:1006D3000122C56900120122FD6900120122176A75
:1006E300001201227F6A00120122196F00120122F7
:1006F300BA6F001201220E7000120122357000122F
:100703000122737000120122927000120122E6701E
:1007130000120122EE7100120122777200120122EF
:10072300D4F002120122DEF0021201227AF1021247
:10073300012245F20212012264F2021201228AF21C
:1007430002120122C9F20212012201F30212012252
:100753002AF30212012264F30212012279F3021234
:10076300012246F40212012269F4021201228BF4DF
:1007730002120122A0F4021201222AF5021201221E
:1007830064F502120122D8F50212012221F60212A7
:1007930001224BF60212012270F602120122EB91A2
:1007A30003120122B592031201229893031201222C
:1007B3000E94031201225094031201227D95031219
:1007C3000122CF8D02120122F88D02120122118E15
:1007D30002120122568F02120122349002120122C8
:1007E300539002120122E09002120122239102127D
:1007F30001225B9202120122C79202120122BD94CE
:10080300021201224B9702120122DE9702120122E9
:10081300B29802120122559902120122689A021219
:100823000122FE9A02120122ACB70312012215B86B
:100833000312012269B80312012298B8031201229C
:100843009E89031201220B8A03120122568A031284
:1008530001224B8B03120122478C03120122318D9B
:1008630003120122FFDD0212012246DE02120122DF
:100873001FDF021201221AE002120122F9E0021222
:10088300012265E10212012281E202120122E8E261
:1008930002120122EBE20212012216E302120122EA
:1008A30087E3021201222AE4021201223FE4021228
:1008B300012287E402120122A0E402120122A3E42E
:1008C30002120122389D03120122749D0312012298
:1008D300B29D031201227C9E03120122EF9E03129A
:1008E30001222A9F03120122689F03120122989F6B
:1008F30003120122BF9F031201222AA00312012225
:100903006CA0031201221784011201223586011201
:100913000122E48701120122948801120122DF8857
:10092300011201222A89011201223C8901120122AA
:100933007C8901120122B18901120122FD89011270
:1009430001222C8A011201224F8A01120122D68A26
:1009530001120122C28B01120122008D0112012218
:10096300028E01120122DE8F011201220295011271
:100973000122489501120122869501120122BB979B
:1009830001120122EDAA031201228DAC03120122EE
:100993007020001201220721001201224D210012B2
:1009A30001228322001201221A240012012292241E
:1009B30000120122D4240012012224250012012254
:1009C3008F2600120122FA2800120122D6290012D2
:1009D3000122F52900120122142A00120122172AEA
:1009E300001201229D2B00120122922C00120122DF
:1009F3008E2D00120122FE2D00120122702E0012F4
:100A03000122EF2E00120122CA2F00120122D1303F
:100A130000120122B031001201223B3200120122E6
:100A2300A932001201221D330012012246330012A3
:100A330001220534001201221437001201225D370E
:100A430000120122A03700120122233800120122D2
:100A5300C738001201225839001201227D390012D1
:100A63000122C73900120122F13900120122363A5C
:100A730000120122B13A001201220B3B00120122A3
:100A83005F3C001201221C3D00120122EF3D0012C7
:100A930001220080021201225080021201225C8096
:100AA30002120122398102120122698102120122FA
:100AB300A181021201222082021201225882021213
:100AC3000122AA8202120122E782021201220C856C
:100AD30002120122388702120122338902120122F3
:100AE3000E8B02120122FA7F001201220FEB021277
:100AF300012241EF0212012291F0021201224CBFA6
:100B0300011201221EC60112012224C60112012272
:100B1300D4C80112012298F60212012244F70212EC
:100B2300012212F8021201223CF8021201228AFA6F
:100B3300021201221D3E00120122673E0012012211
:100B4300194B001201229A4C00120122924D0012FD
:100B53000122F15300120122EC5400120122295503
:100B6300001201224C55001201228E55001201225F
:100B73009855001201228456001201227857001260
:100B83000122115800120122B4A003120122B2A1C2
:100B93000312012208A20312012246A20312012218
:100BA300A3A20312012220A30312012229A30312E9
:100BB300012235A30312012248A30312012284A3B5
:100BC300031201229AA303120122C7E40212012293
:100BD300D4E402120122EEE4021201222DE50212F4
:100BE30001226BE502120122D0E502120122E5E5A2
:100BF30002120122FCE5021201220AE6021201227C
:100C030019E6021201222EE60212012243E6021223
:100C130001224EE6021201225AE60212012267E67F
:100C23000212012276E60212012281E60212012259
:100C3300A6E6021201224FE70212012264E7021222
:100C4300012279E70212012293E702120122AEE7A1
:100C530002120122CBE702120122D6E7021201227D
:100C630092E8021201227EE902120122A3E9021292
:100C73000122ADE902120122C1E902120122E0E9D7
:100C83000212012241EA0212012247EA0212012260
:100C93004DEA0212012253EA021201225FEA021212
:100CA300012292EA021201223FB3021201226BB324
:100CB300021201224FB402120122E9B602120122EA
:100CC300FFB7021201221CB902120122BFB902129C
:100CD300012265BA021201227A9B02120122FC9BB5
:100CE30002120122A59C02120122ED9D0212012291
:100CF300FB9F02120122E1A00212012216A102129D
:100D0300012238A102120122E1A102120122B1A3A0
:100D130002120122DAA30212012252A402120122B8
:100D230084A40212012291A402120122DCA4021261
:100D3300012200A50212012251A7021201225BA87F
:100D430002120122B7A802120122E0DD01120122E0
:100D5300F1DE01120122D5DF01120122DFDF0112D0
:100D6300012201E0011201220DE001120122B1E191
:100D730001120122DEE101120122F4E20112012239
:100D830049E30112012298E4011201226DE50112E7
:100D93000122C9E50112012234E60112012269E6AA
:100DA30001120122ACE60112012276E901120122AD
:100DB3008EE9011201221FEA011201222DEA01121A
:100DC30001227AEA0112012288EA01120122F4EADD
:100DD300011201226FEB01120122C6EB0112012263
:100DE300E3AC0312012208AD031201227EAD03120C
:100DF300012210D70212012219D70212012222D78F
:100E030002120122FAD702120122ABD902120122E5
:100E1300DBD90212012206DA0212012236DA0212A9
:100E2300012261DA0212012295DA02120122C1DAE9
:100E33000212012204DB021201222FDB0212012221
:100E430076DB02120122CBDB021201220DDC02123D
:100E5300012267DC0212012292DC02120122E1DC90
:100E63000212012211DD021201223CDD02120122D3
:100E73005FDD02120122E8BC0312012214BD03123A
:100E8300012241BD031201224BBD031201225BBDAE
:100E93000312012270FA01120122AFFA0112012298
:100EA30038FB011201224BFB0112012296FB0112B6
:100EB3000122D5FB01120122E4FB0112012296FC5F
:100EC30001120122EFFC011201223EFD0112012257
:100ED30094FD0112012289FE011201227EFF0112FB
:100EE3000122BBFF01120122CFBD03120122D499BB
:100EF30001120122D29B01120122539D01120122F0
:100F0300559E01120122DD9E01120122629F0112F0
:100F130001228B9F01120122DB9F01120122CEA32A
:100F2300011201223FA4011201222BA50112012269
:100F330065A501120122A5A501120122D8A601125D
:100F4300012209A7011201225CA701120122A5A710
:100F53000112012213A80112012245A80112012244
:100F63005FA80112012251A90112012261A90112F4
:100F7300012210AB0112012227AB0112012259AB4E
:100F830001120122DBAC0112012254AD0112012234
:100F9300A4BB03120122B5BB031201228EBE0312AE
:100FA3000122CDBE03120122E4FF0212012253BC2F
:100FB3000312012263BC0312012278BC0312012233
:100FC300DEBC03120122B9B8031201223DB9031298
:100FD3000122A5B9031201229CAE03120122C2AE63
:100FE3000312012225AF031201223FAF0312012294
:100FF3005CAF03120122AFAF0312012208B0031248
:10100300012281BF03120122D5FB0212012265FCDA
:1010130002120122E3FC0212012267FD02120122E5
:10102300F9FD02120122B5FE0212012282FF021211
:1010330001228CFF021201229BFF02120122B1FF47
:1010430002120122C4FF02120122CEFF0212012268
:10105300E1FF0212012275B3031201229EB30312B0
:101063000122C7B30312012261B40312012279B42E
:1010730003120122BBB4031201222ECF021201225A
:1010830038CF0212012278CF02120122C1CF0212FD
:101093000122FBCF0212012251D00212012270D091
:1010A30002120122F8D20212012201D302120122FA
:1010B30052D3021201227BD30212012285D30212E0
:1010C3000122F6D30212012284D402120122D9D4BE
:1010D3000212012208D50212012284D50212012232
:1010E300C1D502120122F8D5021201220AD6021238
:1010F300012229D60212012232D602120122E4D69B
:1011030002120122E6B10312012236B203120122B6
:10111300A8B20312012210B303120122CAA30312BD
:101123000122F4A303120122BBA40312012297A5F7
:10113300031201221FA603120122BEB903120122C8
:10114300F1A80312012227A9031201225AA90312AB
:101153000122B3AA0312012265BD031201227BBD42
:101163000312012285BD031201222FBE03120122A5
:101173004AC70212012207C80212012242C8021200
:10118300012273C802120122D5C80212012221C909
:10119300021201228CC90212012206CA0212012282
:1011A30005CB021201228CCC021201220FCD0212B6
:1011B300012275CD0212012288CD0212012283CEB3
:1011C30002120122D0CE02120122F38D0312012258
:1011D300098E03120122AD8E03120122EC8E03123B
:1011E3000122098F031201223A8F03120122878FF2
:1011F30003120122BB8F03120122F68F0312012275
:1012030000B5031201220EB50312012279B50312B0
:101213000122BFB503120122DDB50312012204A985
:10122300021201220EAA0212012289AB021201222A
:101233004CAC02120122E9AC02120122C9AD021226
:10124300012255AE021201226CAE021201220AB132
:101253000212012248B102120122A1B1021201229B
:10126300C3B2021201220EBF03120122D7BE031220
:1012730001223ABF0312012263BF03E06670100824
:10128300A3E066700A08A3E066700408A3E0662280
:10129300C3E7960809E7960809E7960809E796223F
:1012A300C3E09608A3E09608A3E09608A3E096227D
:1012B300C008C3E096F50808A3E096420808A3E037
:1012C30096420808A3E09645087001D3D008220887
:1012D3000808EAC0E0EBC0E086F0E7A4FA18098644
:1012E300F0E7A42AFA180986F0E7A42AFA1809866F
:1012F300F0E7A42AFA1986F0E7A4FBE5F02AFA1925
:101303000886F0E7A42BFBE5F03AFA190886F0E724
:10131300A42BFBE5F03AFA18180986F0E7A4C5F008
:101323002BFBE43AFA1908E7C5F0C6A426F6E5F064
:101333003BFBE43AFA1886F0E7A4F6E5F00826F654
:10134300E43B08F6E43A08F6D0E0FBD0E0FA22E406
:10135300CFC0E0E4CEC0E0E4CDC0E0E4CCC0E075B3
:10136300F020E626F608E633F608E633F608E63319
:10137300F6181818EC33FCED33FDEE33FEEF33FFB4
:10138300C3EC9709ED9709EE9709EF9719191940DF
:101393000FFFEC97FC09ED97FD09EE97FE1919066F
:1013A300D5F0BFECF709EDF709EEF709EFF71919D7
:1013B30019D0E0FCD0E0FDD0E0FED0E0FF226016C3
:1013C300080808C6C313C618C613C618C613C6181A
:1013D300C613C6D5E0EA2270090808082260161869
:1013E3001818C6C333C608C633C608C633C608C6EC
:1013F30033C6D5E0EA22E627F60809E637F60809F8
:10140300E637F60809E637F622E026F608A3E036C3
:10141300F608A3E036F608A3E036F622E026F00845
:10142300A3E036F008A3E036F008A3E036F022C3C9
:10143300E697F60809E697F60809E697F60809E637
:1014430097F622C3E096F008A3E096F008A3E0968F
:10145300F008A3E096F022E657F60809E657F608E7
:1014630009E657F60809E657F622E056F608A3E020
:1014730056F608A3E056F608A3E056F622E056F027
:1014830008A3E056F008A3E056F008A3E056F022C4
:10149300E066F608A3E066F608A3E066F608A3E0B4
:1014A30066F622E0F608A3E0F608A3E0F608A3E058
:1014B300F622E6F008A3E6F008A3E6F008A3E6F0B8
:1014C30022E0FAA3E0FBA3E0FCA3E0FD22EAF0A301
:1014D300EBF0A3ECF0A3EDF022E0F8A3E0F9A3E036
:1014E300FAA3E0FB22E8F0A3E9F0A3EAF0A3EBF010
:1014F30022CAC0E0E6F0A308DAFAD0E0FA22CAC0B2
:10150300E0E0A3C582CCC582C583CDC583F0A3C566
:1015130082CCC582C583CDC583DAE6D0E0CA22C3B7
:10152300E498F8E499F91215638026C3E49AFAE47F
:101533009BFBE920E7E9121563E498F8E499F922A3
:10154300C3E498F8E499F9121563E498F8E499F977
:10155300C3E49AFAE49BFB22EB20E7CFE920E7E020
:10156300B90010BB0008E88AF084F8AAF022E4FB73
:10157300C8FA22EB70227B10C833C8C933C9335071
:1015830007C39AC3DBF280069A50012ADBEAC83309
:10159300F4C8C933F4C9FA2275F008E4C833C8C9DA
:1015A30033C933C99AC99B5004C92AC93BD5F0EC46
:1015B300FBC833F4C8E4C9FA22600D08C6A2E713D6
:1015C300C618C613C6D5E0F322600C08C6C313C6FB
:1015D30018C613C6D5E0F422700422600D18C6C3E2
:1015E30033C608C633C6D5E0F41822251810AF0851
:1015F300F518400C15198008F51840021519D2AFDB
:101603002200C0D0251810AF08F518500C0519801A
:1016130008F51850020519D2AFD0D0222518F5824B
:1016230010AF08F518400C15198008F5184002157D
:1016330019D2AF85198322C5822518C582C5833582
:101643001910AF07F5198582188007F519858218D7
:10165300D2AFC583222518F582E43519F5832225F7
:1016630018F8E43519F9222518FAE43519FB22256F
:1016730018FCE43519FD22E4732518C582C0E0E5A2
:101683001934FFC583C0E0E518C3958224F810AF71
:10169300088583198582188008858319858218D265
:1016A300AFCEF0A3E520F0A37808E608F0A3DEFAB6
:1016B300EFF0A3E58124FAF8E608F0A3E608F0A327
:1016C300E608F0A30808E608F0A3E608F0A31581EE
:1016D3001581D0E0FED0E0F8158115811581E8C0B1
:1016E300E0EEC0E0222518C582C0E0E51934FFC54D
:1016F30083C0E0E518C3958224F910AF08858319E8
:101703008582188008858319858218D2AFCEF0A30D
:10171300E520F0A37808E608F0A3DEFAEFF0A3E5EE
:101723008124FBF8E608F0A3E608F0A30808E6081E
:10173300F0A3E608F0A315811581D0E0FED0E0F810
:1017430015811581E8C0E0EEC0E022851983851874
:1017530082E0A3FEE0A3F5207808E0A3F608DFFA11
:10176300E0A3FFE0A3C0E0E0A3C0E0E0A3C0E0E0AB
:10177300A3C0E0E0A3C0E010AF08858218858319F9
:101783008008858218858319D2AFD083D082020165
:101793001F851983851882E0A3FEE0A3F52078084E
:1017A300E0A3F608DFFAE0A3FFE0A3C0E0E0A3C0F4
:1017B300E0E0A3C0E0E0A3C0E010AF088582188595
:1017C30083198008858218858319D2AFD083D0828C
:1017D30022C0D02518C582C0E0E51934FFC583C0F7
:1017E300E0E518C3958224F310AF08858319858239
:1017F300188008858319858218D2AFC8F0A3E9F051
:10180300A3EAF0A3EBF0A37908E709F0A3D8FAEC75
:10181300F0A3EDF0A3EEF0A3EFF0A3D0E0F0A3D09C
:10182300E0F0A3D0E0F0A3E520F0A3E5F0F0A322DD
:10183300851983851882E0C0E0A3E0F9A3E0FAA349
:10184300E0FBA37808E0F608A3DFFAE0FCA3E0FDE1
:10185300A3E0FEA3E0FFA3E0C0E0A3E0C0E0A3E0B9
:10186300F5D0A3E0F520A3E0A3F5F010AF0885833E
:10187300198582188008858319858218D2AFD08292
:10188300D083D0E0F8D0E032740480067402800282
:101893007401C0E0F40412161FD0E01214F4227491
:1018A30004800474028000CCC0E0EDC0E0E518C3FE
:1018B3009CCCAD1950011D10AF068C188D198006F4
:1018C3008C188D19D2AF121501D0E0FDD0E0FC22A7
:1018D300D083D082E9C0E0E493A3C386F0C5F0953A
:1018E300F0F908E493A386F0C5F095F0700BE49348
:1018F300A3C3994005E9048002A3E475F002A4257B
:1019030082F582E5F03583F583D0E0F9E493A3C053
:10191300E0E493C0E022D083D082ECC0E0EDC0E0ED
:10192300E493A3FCE493A3FDED4C600D121965EC65
:1019330024FFFCED34FFFD80EFE493A3FCE493A3C9
:10194300FDED4C600D1219A4EC24FFFCED34FFFDFA
:1019530080EFD0E0FDD0E0FCE493A3C0E0E493C0CB
:10196300E022C0E0C3E49396087401939618400FF5
:10197300E49366700808740193661870007019A3E5
:10198300A3C3E49396087401939618A3A3400DD0C0
:10199300E0D0E0D0E0021955A3A3A3A3A3A3D0E012
:1019A30022C0E0C0F088F0E49366700808740193E5
:1019B30066187000A8F0A3A3700BD0F0D0E0D0E0BD
:0C19C300D0E0021955A3A3D0F0D0E02220
:1019D00074F51216E8EAFEEBFFEE2434F8EF34005B
:1019E000F988088909EE2435F582EF3400F583E0A3
:1019F000F8EE2437F582EF3400F583E0F50AEC8544
:101A00000AF0A4FCAAF0850AF0EDA42AFDE82CF85F
:101A1000E43DF97A257B00121563EA850882850981
:101A200083F05407F87401B800028004C333D8FC73
:101A3000C0E0E0131313541FF8EE28F8EF3400F958
:101A4000E8245DF582E93400F583D0E0F8E05860E1
:101A500008EE2434F582EF801EEE2436F582EF3452
:101A600000F583E0F5F0EA84A8F0EE28F8EF340002
:101A7000F9E82438F582E93400F583E0F97F0402BF
:101A8000179474F51216E8EAFEEBFFEE2434F582A3
:101A9000EF3400F583E0C0E0EE2435F582EF34004A
:101AA000F583D0E0F08E828F83A3A3A3A3A3A3A387
:101AB000C082C0838E828F83A3A3A3A3A3E0F8A3D5
:101AC000E0F9D083D082E0C398F508A3E099F50946
:101AD000EE2480F582EF3400F583E064017069EE56
:101AE0002481F582EF3400F583E0F8A3E0F98E82DB
:101AF0008F83A3A3A3A3A3A3A3E0FCA3E0FD8E82F3
:101B00008F83A3A3A3A3A3E0FAA3E0FBC3EA9CEB08
:101B10009D5027C3EC98ED99402EC3EA98EB99505D
:101B2000277CE27D07EEFAEFFB120A2CEE2480F50B
:101B300082EF3400F583E4F0800EC3EA98EB99401D
:101B4000E0C3EC98ED9950D9EE2434F8EF3400F965
:101B5000E8FCE9FDEE2435F582EF3400F583E0F88A
:101B6000EE2437F582EF3400F583E0F50AE50885C9
:101B70000AF0A4F508AAF0850AF0E509A42AF509F7
:101B8000E82508F8E43509F97A257B00121563EA9F
:101B90008C828D83F05407F87401B800028004C36E
:101BA00033D8FCC0E0E0131313541FF8EE28F8EF0D
:101BB0003400F9E8245DF582E93400F583D0E0F8DB
:101BC000E0586008EE2434F582EF801EEE2436F5EE
:101BD00082EF3400F583E0F5F0EA84A8F0EE28F80F
:101BE000EF3400F9E82438F582E93400F583E0F9B0
:101BF000121F6C021A7D0000851A87851BC622C041
:101C0000E0C0D0E8C0E0E9C0E0EAC0E0EBC0E0EC52
:101C1000C0E0EDC0E0C008C009C00AC00BC082C06F
:101C200083C0F0759B00906182E0A2E64003021C35
:101C3000DDE591A2E64003021CDD7591BF90049999
:101C4000E064057008120BA6120BB28003120BACF5
:101C5000751A00120C0CE990049AF07900120BEE40
:101C600012099C7A017B00900498E0F91210DA9036
:101C70007803E064426003021D26900817E014F028
:101C80006003021D26C2AF121C8A00781DD0E0F648
:101C900018D0E0F6E59F5407F970059083D48003CF
:101CA0009083D078081214A6E9C4C0E0781CE655E9
:101CB00008F50808E65509F509740B78081215CCE3
:101CC000D0E02508F8906270E0A2E740F8E8C3335E
:101CD000906272F0906270E0D2E0F08049E0A2E59C
:101CE0005024E591A2E5501E7591DF900499E064BF
:101CF0000D70139004BBE004F064287002E4F07AE5
:101D000000E0F9120C9C906181E0A2E35009E5E942
:101D1000A2E3500375E9F7A3E0A2E75009E591A219
:101D2000E7500375917FD0F0D083D082D00BD00ADA
:101D3000D009D008D0E0FDD0E0FCD0E0FBD0E0FA44
:101D4000D0E0F9D0E0F8D0D0D0E032C0E0C0D0C0D0
:101D500082C083906183E0A2E05009E5BFA2E05019
:101D60000375BFFEE0A2E15009E5BFA2E150037593
:101D7000BFFDE0A2E25009E5BFA2E2500375BFFB40
:101D8000E0A2E35009E5BFA2E3500375BFF7E0A26C
:101D9000E45009E5BFA2E4500375BFEFE0A2E550AF
:101DA00009E5BFA2E5500375BFDFE0A2E65009E5F3
:101DB000BFA2E6500375BFBFD083D0828088C0E049
:101DC000C0D0E8C0E0E9C0E0EAC0E0EBC0E0ECC0B1
:101DD000E0EDC0E0C0F0E5A7A2E6500FE5A1A2E665
:101DE000500953A7BF75A1BF121E23E5A7A2E55056
:101DF0000CE5A1A2E5500653A7DF75A1DFE5A7A278
:101E0000E15009E5A1A2E1500375A1FDE5A7A2E219
:101E1000500CE5A1A2E2500653A7FB75A1FBD0F040
:101E2000021D3474F81216E8751A01900499E064E2
:101E3000067015120B5E8A828B83A3A3A3A3A3A3B0
:101E4000E0FAA3E0FB120B94A2AFE433FED2AF9012
:101E5000049FE0640170187A207B00900498E0F9F8
:101E60001211EE7A207B00900498E0F91210E090B5
:101E70006182E0D2E6F0900816E0602185C61B8002
:101E80001690049EE064017008E5C654F84405F518
:101E9000C653BEFC121BF87401651A60E4EEA2E0A2
:101EA00092AF7F0102179474F11216E88A088B0929
:101EB0008C0A8D0B740F121658780C1214A690838E
:101EC000F4780812146D9083F4780C12146D78086D
:101ED000790C12129350157808790C1214329083F1
:101EE000A478081212B3401579018013780C790890
:101EF0001214329083A4780C1212B340EB79007F55
:101F00000802179474ED1216E88A088B098C0A8D62
:101F10000B7413121658780C1214A69083F47808D8
:101F200012146D9083F4780C12146D780C790812E9
:101F3000129340117808790C121432AA08AB09AC3C
:101F40000AAD0B8022751000751100751200751313
:101F5000017810790C121432781079081213F9AA4A
:101F600010AB11AC12AD137F0C021794C082C0836A
:101F7000E9906000F0D083D08222C0E074F21217A2
:101F8000D4A2AFE433FED2AFC2C0E5D1A2E4500682
:101F900053D1EF121050EEA2E092AF7F010218333E
:101FA000C0E074F21217D4A2AFE433FED2AFE589D9
:101FB000A2E15003120FFC758900C2C5EEA2E092A7
:101FC000AF7F01021833C0E074F21217D4A2AFE45D
:101FD00033FED2AFE58BA2E05003120FFC758B00ED
:101FE000C2E880D8C0E0C0D0E8C0E0A8A8D2AFC2A4
:101FF000C7E8A2E792AFD0E0F8D0D0D0E032C0E09E
:10200000C0D0E8C0E0E9C0E0EAC0E0EBC0E0C082D8
:10201000C083A2AFE433F9D2AF90101CE0F8A3E084
:10202000687008539AFBA374018022C2E990101CC7
:10203000E0F8740128F0749C28F582E4340FF583ED
:10204000E0F5C190101CE0C394804002E4F0E9A2E6
:10205000E092AFD083D082D0E0FBD0E0FAD0E0F9BC
:10206000D0E0F8D0D0D0E032FFFFFFFFFFFFFFFF4E
:10207000C082C0839061907404F0A37448F0A3748C
:1020800002F09061807440F09061BC7403F0906144
:10209000877419F0906265741BF090619C740DF068
:1020A00090619A7433F0A37455F09061A0743AF083
:1020B000900814E064017009C29190049D746780D7
:1020C0000590049D7461F090206EE493906186F019
:1020D000902068E493F46027E493540FF8906185AE
:1020E000E0686012E5C654804449F5C6E59E547F19
:1020F000644970F8E8F053C680E59E547F70FA7921
:1021000005120C7E0224CDC082C083E5A8F853A836
:102110007E906181E4F0A3F0A3F0C2BA539AFEC2AC
:1021200089759B00C2C275E90075910075BF007585
:10213000A91175B905906181F0A374C0F0A3E4F012
:10214000D2BA439A0174805842A80224CDC082C0FA
:102150008374F81215EE90049BE0F8A3E0F9E849C7
:10216000700302227B90049BE05440602379088531
:102170001882851983AA82AB83120A9E85188285EC
:102180001983AA82AB8312078690049BE054BFF0A8
:10219000E054806010790C7A387B08120A9E900413
:1021A0009BE0547FF0E0A2E0503190619A7433F0EC
:1021B000A37455F09061A0743AF0900814E06401A3
:1021C0007009C29190049D7467800590049D7461AC
:1021D000F012078C90049BE054FEF0E05402603152
:1021E00090619A743FF0A3745AF09061A0747FF0EC
:1021F000900814E064017009D29190049D7471807C
:102200000590049D746AF012078C90049BE054FDC5
:10221000F0E05404601390206CE493906186F01217
:10222000079290049BE054FBF0E054086013902068
:102230006DE493906186F012079290049BE054F74E
:10224000F0E05410601390206EE493906186F012D9
:10225000079290049BE054EFF0E05420600A1207CC
:102260009290049BE054DFF0A3E05401600D12094A
:10227000A812079890049CE054FEF074081216040B
:102280000224CD74EC12167C74F41215EE851882BB
:10229000851983AC82AD837583837582E8740412DB
:1022A000150190206C93F46003022410907808E0EC
:1022B000C3940250030223F07404121658AC82AD8A
:1022C000837583837582337408121501851882859E
:1022D00019838582128583137404121658AC82AD5B
:1022E00083750EFF750FFF7FFF7E00750C48750D1F
:1022F00078801574086E700302238374096E70036E
:10230000022383740A6E607B850C82850D837808B6
:102310001214A68C828D83A909E50AC9F888107465
:102320001878081213C1E5104508F8C3E098A3E037
:1023300099850C82850D8378081214A640188C822A
:102340008D83741878081213C1E5104508F8E0C3AE
:1023500098F8A3E0801C741878081213C1E51045A2
:1023600008FAE9FB8C828D83E0F8A3E0F9EAC398D0
:10237000F8EB99F9C3E8950EE9950F5006880E8998
:102380000FEEFF0EE50C2404F50CE50D3400F50D01
:10239000EEC3941350030222F374FF650E700474AD
:1023A000FF650F60238F08740278081215DB7448EC
:1023B0002508F58274783509F58378081214A68506
:1023C0001282851383E508F0EC24020C0CED340036
:1023D000FD851282851383A3858212858313740C75
:1023E000121658E5826C7003E5836D60030222E1EA
:1023F000750801750900780812188F7402121658B2
:10240000AC82AD837A1B7B08120FCC7402121604C7
:10241000740C1216047F0C02174EC082C0839061A8
:10242000AE7468F0A3746AF090624574FBF0A30484
:10243000F053F4FD43FE029008147401F09061A083
:10244000E0643A90619A70237433F0A37455F0906D
:1024500061A0743AF0740164017009C29190049D06
:102460007467802890049D74618021743FF0A37488
:102470005AF09061A0747FF0740164017009D291E8
:1024800090049D7471800590049D746A8000F00230
:1024900024CDC082C0839007F2E0640170159007DC
:1024A000F8E064016009E0700AA3E0640170047957
:1024B0000C8012900809E06401700890080FE06435
:1024C0000160EC79000224CDE0F9121F6CD083D0BA
:1024D0008202011FC082C0839007FC7425F0900720
:1024E000FA7401F0A3E4F07A01FB120BFA9007E80A
:1024F000E02416F8A3E03400F98882898374CCF0D4
:10250000A37409F09007F9E0640170169007F8E0F1
:1025100070107901120C5A120C2A120C5479001204
:102520000C6680A9C082C08374FA1215EE9007F180
:10253000E0640170081209B49007F1E4F075E1F16C
:102540009007E8E02415F8A3E03400F98882898335
:102550007401F09007F3E064017076908362C082AA
:10256000851882851983AC82AD83758383D082748C
:102570000612150175D90D9007EAE0C4333354C033
:102580004403F5D978E8790788828983A3A3A3E077
:10259000F5D988828983A3A882A983E864EE7003B1
:1025A000E9640770E3851882851983A882A9838866
:1025B000828983E0F5D9A3A882A9837406121658EC
:1025C000E582687003E5836970E575E195790180BE
:1025D000027900120C009011A87416F0A3740BF08D
:1025E000A3741CF0A3740BF0A37416F0A3740BF087
:1025F000A37416F0A3740BF0A374E6F0A3740AF0AE
:10260000A374E6F0A3740AF0A37422F0A3740BF091
:102610009011B674E6F0A3740AF0A374E6F0A37404
:102620000AF0A374E6F0A3740AF0A374E6F0A374AE
:102630000AF0A374E6F0A3740AF0A374E6F0A3749E
:102640000AF09007EAE0F97AEB7B07120BDC9007BF
:10265000FCE0F9121F6C7901120C069083EC121445
:10266000C4120C1E9083781214C4120BE879001265
:102670000C729007E8E02414F8A3E03400F9888293
:1026800089837416F09004997405F00402227D7415
:10269000F712167C8908A808E875F006A4C8AAF005
:1026A0002AF974C928FE740439FF900801E0F97A08
:1026B000027B08120BDC90080FE0701A7900120CF4
:1026C0003C9007DBE0700B79007ADC7B07120BE2B1
:1026D0008009790180F37901120C3C75E1F175D91B
:1026E00023900801E0C4333354C04405F5D978FF82
:1026F000790788828983A3A3A3E0F5D98882898397
:10270000A3A882A983E864057003E9640870E375EF
:10271000D90075D90075D90075D90075D90075D95A
:1027200000EEF8EFF9E82404FAE93400FBE824228B
:10273000F582E93400F583E0F5D988828983A3A87E
:1027400082A983EA687002EB6970E2EEF8EFF9E8BB
:1027500024031AE93400FBE82426F582E93400F565
:1027600083E0F5D988828983A3A882A983EA687067
:1027700002EB6970E2EE242BF582EF3400F583E082
:10278000F5D9EEF8EFF9E824021AE93400FBE82461
:102790002CF582E93400F583E0F5D988828983A39A
:1027A000A882A983EA687002EB6970E2EEF8EFF99B
:1027B000E8242EF582E93400F583E0F5D988828992
:1027C00083A3A882A983EA687002EB6970E2EEF83D
:1027D000EFF9E82430F582E93400F583E0F5D98893
:1027E000828983A3A882A983EA687002EB6970E2F8
:1027F000EEF8EFF9E82432F582E93400F583E0F5EC
:10280000D988828983A3A882A983EA687002EB69C8
:1028100070E2EEF8EFF9E824050A0A0AE93400FB51
:10282000E8245DF582E93400F583E0F5D9888289F2
:1028300083A3A882A983EA687002EB6970E2EE24A0
:1028400037F582EF3400F583E0541FF8EE242AF5C3
:1028500082EF3400F583E0C43354E048F5D975E1E4
:10286000959011A874ECF0A3740AF0A374F2F0A38D
:10287000740AF0A374E6F0A3740AF0A374E6F0A35C
:10288000740AF0A374E6F0A3740AF0A374E6F0A34C
:10289000740AF0A374F8F0A3740AF09011B674E609
:1028A000F0A3740AF0A374E6F0A3740AF0A374E62C
:1028B000F0A3740AF0A374E6F0A3740AF0A374E61C
:1028C000F0A3740AF0A374E6F0A3740AF090080E63
:1028D000E0F9121F6C9083EC1214C4120C1E90834A
:1028E000781214C4120BE890600DE4F07901120C18
:1028F000729004997406F0022EEA74EC12167C9021
:1029000007FFE0F8A3E0F5838882A3A378101214F0
:10291000A6900810E0FAF875F006A4C8ACF02CF9FF
:1029200074F728F582740439F583E0FEA3E0FFEE26
:10293000C333FEEF33FF8E0CF50D750E00750F00DF
:1029400085100885110985120A85130B9083DC78A0
:102950000812140C780812188B8510088511098547
:10296000120A85130B7808790C1213F97810790C78
:10297000121352E4F50EF50F7808790C1214328A0E
:102980000C750D007403780C1215DB7808790C12A5
:1029900013F99083F4780812146DAA08AB09AC0AF5
:1029A000AD0B121F0474041216048A088B09A808C0
:1029B000A909C3EE98EF995006E82EF8E93FF9E827
:1029C00090600EF0E9A3F0EEA3F0EFA3F090600D9D
:1029D00074C1F0022415C082C0839007E8E0F8A318
:1029E000E0F5838882A3A3A3A3A3A3E4F0A3F090BC
:1029F00007FC0224C8C082C0839007FFE0F8A3E070
:102A0000F5838882A3A3A3A3A3A3E4F0A3F0900873
:102A10000E0224C802011F74F612167C9061D0E0E9
:102A2000F87480C398FCEA2483F582EB3400F583C4
:102A3000E06004780480027800E8240EF8ECC39883
:102A40005003022B987E0C900818E4F0EA2477F5E6
:102A500082EB3400F583E0900819F0EA2478FCEB6F
:102A60003400FD781A79087F028C828D83E0888299
:102A70008983F08C828D83A3AC82AD838882898325
:102A8000A3A882A9831FEF70E0EA247AFCEB34004C
:102A9000FD7F028C828D83E088828983F08C828D19
:102AA00083A3AC82AD8388828983A3A882A9831F74
:102AB000EF70E0EA247CFCEB3400FD7F028C828D19
:102AC00083E088828983F08C828D83A3AC82AD837E
:102AD00088828983A3A882A9831FEF70E0EA247EFD
:102AE000FCEB3400FD7F028C828D83E08882898339
:102AF000F08C828D83A3AC82AD8388828983A3A866
:102B000082A9831FEF70E0EA2475FCEB3400FD8A94
:102B1000828B83A3A3A3A3A3E0F508A3E0F5098C0C
:102B2000828D83E02508F0A3E03509F07F028C82D6
:102B30008D83E088828983F08C828D83A3AC82AD03
:102B40008388828983A3A882A9831FEF70E0EA2487
:102B500083F582EB3400F583E06019750818750978
:102B600008780812188F7C0C7903120ADA740212A2
:102B700016047E1074012EF5D975D9037582187567
:102B80008308EEFFE0F5D9A31FEF70F875E19579A2
:102B900004120C247901800279000230CC74F61200
:102BA000167C9061D0E0F87480C398FCEA2483F529
:102BB00082EB3400F583E06004780480027800E85A
:102BC000240AF8ECC3985003022C8D75080890086D
:102BD000187401F07CE27D07781979087E058C82F3
:102BE0008D83E088828983F08C828D83A3AC82AD53
:102BF0008388828983A3A882A9831EEE70E0EA24D9
:102C000081FCEB3400FD8A828B83A3A3A3A3A3E002
:102C1000FEA3E0FF8C828D83E02EF0A3E03FF07EE8
:102C2000028C828D83E088828983F08C828D83A3DD
:102C3000AC82AD8388828983A3A882A9831EEE70AB
:102C4000E0EA2483F582EB3400F583E0601A75082E
:102C500018750908780812188F7C087903120ADAA7
:102C6000740212160475080C74012508F5D975D97B
:102C700003758218758308AE08E0F5D9A31EEE70BF
:102C8000F875E1957904120C24790180027900022B
:102C900030CC74F712167CEAFEEBFF9061D0E06056
:102CA00003022D8975D91875D90375D903EEF8EF8C
:102CB000F9E82408FAE93400FBE8249CF582E934B9
:102CC00000F583E0F5D988828983A3A882A983EAE5
:102CD000687002EB6970E2EEF8EFF9E82402FAE9B5
:102CE0003400FBE824A4F582E93400F583E0F5D94B
:102CF00088828983A3A882A983EA687002EB69703D
:102D0000E2EE2494F582EF3400F583E5822408F89E
:102D1000E5833400F9E0F5D9A3E865827003E9653D
:102D20008370F2EE2488F582EF3400F583E5822487
:102D300004F8E5833400F9E0F5D9A3E8658270036F
:102D4000E9658370F275E1957908EE2494FAEF3421
:102D500000FB120A927904EE2488FAEF3400FB1289
:102D60000A927904120C24EE2470F582EF3400F5F7
:102D700083E0F8A3E0F9EE2472F582EF3400F583E6
:102D8000E8F0A3E9F0790180027900022EEA74F6F6
:102D900012167CEAFEEBFF9008187406F07508180E
:102DA000750908780812188F7C017903120ADA7401
:102DB0000212160475D90675D90375821875830831
:102DC000E0F5D9A3E582641D7004E583640870F022
:102DD00075E195900499E06408701EEE2470F58208
:102DE000EF3400F583E0F8A3E0F9EE2472F582EF0A
:102DF0003400F583E8F0A3E9F079010230CC74F6F1
:102E000012167CEAFEEBFF9061D0E0705E9008182D
:102E1000740AF0750818750908780812188F7C0173
:102E20007903120ADA740212160475D90675D903E9
:102E3000758218758308E0F5D9A3E582641D7004D6
:102E4000E583640870F075E195EE2470F582EF3447
:102E500000F583E0F8A3E0F9EE2472F582EF340088
:102E6000F583E8F0A3E9F07901800279000230CC23
:102E700074F612167CEAFEEBFF9061D0E070667883
:102E800001900818740BF0900499E06407701975AC
:102E90000818750908780812188F7C017903120A3E
:102EA000DA74021216047805740128F5D975D9036D
:102EB000758218758308E8FAE0F5D9A31AEA70F864
:102EC00075E195EE2470F582EF3400F583E0F8A308
:102ED000E0F9EE2472F582EF3400F583E8F0A3E91F
:102EE000F07901800279000230CC7F0102174E7424
:102EF000F612167CEAFEEBFF9061D0E0F87480C316
:102F000098FAEE2483F582EF3400F583E0600478CC
:102F10000480027800E8240BF8EAC3985003022FDB
:102F2000C57D099008187408F0EE24E5F8EF340028
:102F3000F97A197B087C0888828983E08A828B83EE
:102F4000F088828983A3A882A9838A828B83A3AA1B
:102F500082AB831CEC70E0EE2483F582EF3400F545
:102F600083E0601D750818750908780812188F7CB1
:102F7000097903EEFAEFFB120ADA74021216047DE5
:102F80000D74012DF5D975D9037582187583088DD7
:102F900008E0F5D9A31508E50870F675E195790400
:102FA000120C24EE2470F582EF3400F583E0F8A3D0
:102FB000E0F9EE2472F582EF3400F583E8F0A3E93E
:102FC000F07901800279000230CC74F612167CEAA6
:102FD000FEEBFF9061D0E0F87480C398FAEE248392
:102FE000F582EF3400F583E0600478048002780015
:102FF000E82408F8EAC39850030230CA7D06900816
:1030000018740CF09004B6E0900819F07AB77B04BD
:10301000781A79087C028A828B83E088828983F01F
:103020008A828B83A3AA82AB8388828983A3A882A6
:10303000A9831CEC70E07AB97B047C028A828B83C2
:10304000E088828983F08A828B83A3AA82AB8388FB
:10305000828983A3A882A9831CEC70E0EE2483F507
:1030600082EF3400F583E0601D7508187509087853
:103070000812188F7C067903EEFAEFFB120ADA7455
:10308000021216047D0A74012DF5D975D9037582D3
:10309000187583088D08E0F5D9A31508E50870F6C2
:1030A00075E1957904120C24EE2470F582EF34005A
:1030B000F583E0F8A3E0F9EE2472F582EF3400F531
:1030C00083E8F0A3E9F07901800279007F0202171A
:1030D0004E74F612167CEAFEEBFF9061D0E0F874B5
:1030E00080C398FAEE2483F582EF3400F583E06024
:1030F00004780480027800E82404F8EAC3985003B6
:103100000231AB7802900818E8F0EE24F7F582EF70
:103110003400F583E0900819F0EE2483F582EF3453
:1031200000F583E0601B7508187509087808121807
:103130008F7C027903EEFA120ADA7402121604780E
:1031400006740128F5D975D9037582187583088826
:1031500008E0F5D9A31508E50870F675E195EE24A9
:1031600074F582EF3400F583E4F0EE2480F582EF0D
:103170003400F583E4F0EE241DF582EF3400F5838E
:10318000E4F0A3F07904120C24EE240DF582EF3460
:1031900000F583E0F8A3E0F9EE2472F582EF340045
:1031A000F583E8F0A3E9F07901800279000230CCE0
:1031B00074F612167C9061D0E0F87480C398FCEA33
:1031C0002483F582EB3400F583E060047804800208
:1031D0007800E82404F8ECC398405B790290081862
:1031E0007407F0EA24F8F582EB3400F583E09008E8
:1031F00019F0EA2483F582EB3400F583E06018755A
:103200000818750908780812188F7C0209120ADA62
:1032100074021216047906740129F5D975D903755B
:103220008218758308E9F8E0F5D9A318E870F875F5
:10323000E1957901800279000230CC74F512167C98
:10324000E9FCA2AFE433F50AC2AF7D0080010DEACC
:10325000246FF582EB3400F583E0F8EDC398501A43
:103260008D08EA2508F8EB3400F9E8246BF582E9CB
:103270003400F583E06C70D68024EA246FF8EB34D8
:1032800000F9E0FEEA2EFAEB3400FBEA246BF5824B
:10329000EB3400F583ECF088828983E004F0E50AE2
:1032A000A2E092AF7F0302174E74F612167CA2AF13
:1032B000E433FDC2AFEA246FF582EB3400F583E01E
:1032C00014F07C0060368C08EA2508F8EB3400F92D
:1032D000E8246CF582E93400F583E0C0E0E8246B73
:1032E000F582E93400F583D0E0F00CEA246FF58232
:1032F000EB3400F583E0F8ECC39840CAEA246EF59D
:1033000082EB3400F58374FFF0EA246AF582EB3433
:1033100000F583E4F0EDA2E092AF0230CCC082C0B1
:1033200083E5A8F8C2AFEA246BF582EB3400F5839D
:10333000E9F0EA246AF582EB3400F583E4F0E8A2D0
:10334000E792AF0224CD74F312167CEAFEEBFFEC99
:10335000FAEDFB8A828B83A3A3A3A3E0541FF0EEB4
:103360002436F582EF3400F583E4F0F50AEEFCEF45
:10337000FD8A828B83E0C0E0EC245DF582ED3400B1
:10338000F583D0E0F0750B00E50A33333354F8F5DC
:103390000C8A828B83E0F508750900E50B7808122A
:1033A00015BCE508A2E0502FEE2436F8EF3400F902
:1033B00088828983E0F508EE2508F508EF3400F5EA
:1033C00009E5082438F582E5093400F583E50CF0B9
:1033D00088828983E004F0050B050CE50BC3940893
:1033E00040AF050A8A828B83A3AA82AB838C828D2D
:1033F00083A3AC82AD83E50AC39405500302337105
:103400007F0502174E74F712167C9004C5E0640322
:1034100070077A007B00022EEA7B0078C579048869
:10342000828983A3A3A3A3A3A3E060030236FFEBD7
:10343000F875F006A4C8AAF02AF974C928F874042B
:1034400039F988828983A3A37401F088828983A3D0
:10345000A3A3E4F0EB88828983A3A3A3A3F0E824C9
:1034600062F582E93400F5837401F0E82465F582A1
:10347000E93400F583E4F0A3F0E82468F582E93448
:1034800000F5837401F088828983A3A3A3A3A3E436
:10349000F0A3F088828983A3A3A3A3A3A3A3F0A38B
:1034A000F0E8240FF582E93400F5837401F0E82494
:1034B00035F582E93400F583E4F09083681214C492
:1034C000E82418F582E93400F5831214D0E8241CAE
:1034D000F582E93400F583E4F0E8241DF582E9344F
:1034E00000F583E4F0A3F0E82480F582E93400F5E8
:1034F00083E4F0E82474F582E93400F583E4F0E82D
:103500002469F582E93400F5837480F0E8246AF5D3
:1035100082E93400F583E4F0E8246FF582E93400B1
:10352000F583E4F0E82467F582E93400F583E4F0FC
:10353000E824EDF582E93400F583E4F0E824EEF5C3
:1035400082E93400F583E4F0E824EFF582E9340001
:10355000F583E4F0E824F0F582E93400F583E4F043
:10356000E824F1F582E93400F583E4F0A3F0E824DF
:10357000F3F582E93400F583E4F0A3F0E824F6F5EE
:1035800082E93400F583E4F0E82483F582E934002D
:10359000F583E4F0E824D3F582E93400F583E4F020
:1035A000E824D4F582E93400F583E4F090836812CE
:1035B00014C4E824D5F582E93400F5831214D090C0
:1035C00083681214C4E824D9F582E93400F5831223
:1035D00014D0E824DFF582E93400F583E4F0E82430
:1035E000E1F582E93400F583E4F0E824DDF582E9D1
:1035F0003400F583E4F0E824E2F582E93400F58351
:10360000E4F0E824E3F582E93400F583E4F0E8240B
:10361000F9F582E93400F583E4F0A3F0E824FBF542
:1036200082E93400F583E4F0A3F0E824FDF582E9B3
:103630003400F583E4F0A3F0E824FFF582E93400D8
:10364000F583E4F0A3F0E8FAE9FBEA2404FCEB34A8
:1036500000FDEA246BF582EB3400F58374FFF08AF9
:10366000828B83A3AA82AB83EC6A7002ED6B70E25B
:10367000E8FAE9FB7CE27D078C828D83E0C0E0EA1A
:10368000245DF582EB3400F583D0E0F08C828D83ED
:10369000A3AC82AD838A828B83A3AA82AB83EC64C2
:1036A000E77003ED640770D0E8FAE9FB7CAC7D04B9
:1036B0008C828D83A3E0C0E0EA24E5F582EB340040
:1036C000F583D0E0F08C828D83A3AC82AD838A82B7
:1036D0008B83A3AA82AB83EC64B47003ED640470A3
:1036E000CF9004C5E004F06401700D88828983A343
:1036F000A3A3A3E09004C7F0E8FAE9FB0234160B99
:10370000E82406F8E93401F9EBC3940340030234DA
:103710001202341FC082C0838A828B83A3A3A3E0DA
:10372000600F8A828B83A3A3A3E4F09004C6E01405
:10373000F09004C5E014F070069004C774FFF08A9E
:10374000828B83A3A3E4F09007E7E0700D9004C69A
:10375000E0640170057900120BEE0224CDC082C036
:103760008378C5790488828983A3A3A3A3A3A3A391
:10377000E4F088828983A3A3A3A3A3A3F0E824068B
:10378000F8E93401F9E864D77003E9640770D6906A
:1037900004C5E4F0A3F0A374FFF075E1F10224CDB9
:1037A00074F312167C750800750900750C00750A13
:1037B000C9750B04AE0AAF0B8E828F83A3A3A3E05F
:1037C000603FE5084509700AEEF8EFF988088909B5
:1037D000802F850882850983E0F8A3E0F58388823D
:1037E000A3A31218A28E828F83E0F8A3E0F583884A
:1037F00082A3A31214C4121EA77404121604E96053
:10380000C7050CEE2406F50AEF3401F50BE50CC3F1
:10381000940340A0850882850983A3A3A3A3E0F9AC
:1038200002340074F612167C78FF79FF7508007E6A
:10383000C97F04EEFCEFFD8C828D83A3A3A3E0601F
:103840006474FF68700374FF697025EC2474F5825A
:10385000ED3400F583E064017011EC247AF582ED1B
:103860003400F583E0F8A3E0F9803AEC242E80EDF3
:10387000EC2474F582ED3400F583E064017014ECFF
:10388000247AF582ED3400F583C3E098A3E09950E3
:103890001480C7EC242EF582ED3400F583C3E09844
:1038A000A3E09940C60508EE2406FEEF3401FFE5CB
:1038B00008C394035003023833C3EA98EB994004D9
:1038C000E8FAE9FB0230CC74F612167CEAFEEBFF54
:1038D0008E828F83A3A3A3E0600F8E828F83A3A326
:1038E000A3E4F09004C6E014F09004C5E014F07076
:1038F000069004C774FFF08E828F83A3A3E4F09038
:1039000007E7E0700D9004C6E064017005790012CD
:103910000BEEEE2465F582EF3400F583E0F8A3E0CA
:10392000F9E8496029EE2465F8EF3400F988088940
:10393000098882F583E0FCA3E0FD9004C7E0FA7BF0
:10394000001207BC850882850983E4F0A3F0EEFA33
:10395000EFFB120B580230CC74F712167CEAFEEB28
:10396000FF8E828F83A3A3A3A3E0FA7B0012080437
:10397000EEFAEFFB120A50120B3A022EEAC082C096
:10398000837C007AC97B04EAF8EBF988828983A3F7
:10399000A3A3E0601EE8246FF582E93400F583E01C
:1039A0006011E8246BF582E93400F583E070047956
:1039B0000180110CEA2406FAEB3401FBECC39403FA
:1039C00040C579000224CDC082C08378AC790488D8
:1039D000828983A3E4F088828983A3A882A983E8EB
:1039E00064B47003E9640470E69004AD74010224C9
:1039F0008EC082C08374FC1215EE9083681214C4CA
:103A00008518828519831214D0120A98E9851882C4
:103A1000851983F0120A987401121658E9F0120AF7
:103A2000987402121658E9F08518828519831214C9
:103A3000C4740402227D74F612167CEAFEEBFFECDD
:103A40002403F8ED3400F988088909EC2407F8ED1F
:103A50003400F9E8FCE9FD8C828D83E0F8A3E0F9FD
:103A6000850882850983E0FAA3E0FB121563EE2442
:103A70000DF582EF3400F583E8F0A3E9F08C828D38
:103A800083E0F8A3E0F9850882850983E0FAA3E0E2
:103A9000FB1215638B09EA45096013EE240DF582CC
:103AA000EF3400F583E02401F0A3E03400F00230AD
:103AB000CC74F612167CEAFEEBFFEE242EF582EFB4
:103AC0003400F583E0FCA3E0FD780079FAECFAED30
:103AD000FB121563EE2470F582EF3400F583E8F0F5
:103AE000A3E9F0780079FAECFAEDFB1215638B0983
:103AF000EA45096013EE2470F582EF3400F583E0A7
:103B00002401F0A3E03400F00230CC74F012167CF3
:103B1000EAFEEBFF741012165878081214A6120B66
:103B2000BE8A0C8B0D8C0E8D0F9083D8780C1214DE
:103B30000C9083F4780C12146D780C12188B8E8212
:103B40008F83E0F8A3E0F5838882A3A31214C41244
:103B50001EA77404121604E96003023C588E828F7B
:103B600083E02402F8A3E03400F9E8FAE9FB8A8252
:103B70008B83780812141F9083F478081214A68A95
:103B8000828B837808121480EE240BF582EF3400C8
:103B9000F583C082C0838E828F83A3A3A3A3A3E0F7
:103BA0002401F8A3E03400F9D083D082E0687003E8
:103BB000A3E06970057901023C5A8E828F83A3A32A
:103BC000A3A3A3A3A3E02401F0A3E03400F0EE2418
:103BD00074F582EF3400F583E064017036EE2475ED
:103BE000F582EF3400F583E0F8A3E0F98E828F834D
:103BF000A3A3A3A3A3A3A3E0687003A3E069701326
:103C0000EE2475F582EF3400F583E02401F0A3E0A3
:103C10003400F0EE2480F582EF3400F583E0640197
:103C20007036EE2481F582EF3400F583E0F8A3E0EE
:103C3000F98E828F83A3A3A3A3A3A3A3E068700339
:103C4000A3E0697013EE2481F582EF3400F583E080
:103C50002401F0A3E03400F079007F0802174E74CD
:103C6000F712167C9004C7E0F875F006A4C8AAF015
:103C70002AF974C928FE740439FF8028EE2465F8F7
:103C8000EF3400F988828983E0FCA3E0FD88828913
:103C900083E4F0A3F08E828F83A3A3A3A3E0FA7B37
:103CA000001207BCEE2465F582EF3400F583E0F8DE
:103CB000A3E0F9E849604FEE2464F582EF3400F5A3
:103CC00083E0F5087808121893EE2463F582EF3448
:103CD00000F583E0F9EE2465F582EF3400F583E02A
:103CE000FCA3E0FDEEFAEFFB120A86740112160443
:103CF000E96089EE2465F582EF3400F583E0F8A3EE
:103D0000E0F9E84970137C007D008E828F83A3A3C5
:103D1000A3A3E0FA7B001207BC022EEA74F212168B
:103D20007CEAFEEBFF890A740E121658E0FAEE24C4
:103D300062F582EF3400F583E064016003023DE840
:103D40009061D0E0F87480C398F50CEE2483F5827E
:103D5000EF3400F583E0600478048002780089087D
:103D6000E928F8E43400F9E824020808E93400F905
:103D7000E50C98E499A2D265D0334068EA700575E5
:103D80000B028003750B01E0603975090078081299
:103D9000188F7A187B08120ABC7402121604750870
:103DA00018750908780812188FAC0AA90BEEFAEFFB
:103DB000FB120ADA74021216047404250AF50A7C4E
:103DC000187D087401250AF5D9850BD9E50A600D1F
:103DD0008C828D83F8E0F5D9A318E870F875E19529
:103DE000790080067907800279FF7F0602174EC0AE
:103DF00082C083E960208C828D83E08A828B83F08D
:103E00008C828D83A3AC82AD838A828B83A3AA82AA
:103E1000AB8319E970E0ECFAEDFB0224CDC082C05F
:103E2000837869790888828983A3A3A3A3A3A3E4E1
:103E3000F088828983A3A3A3A3A374FFF0E82418C6
:103E4000F8E93400F9E864C97003E9640870D690B1
:103E5000086B74FFF090086AE4F0900869F090082D
:103E60006CF0A3F002554574EC12167C90086CE0DF
:103E7000F508A3E0F509E5084509700612099C025A
:103E80004B14850882850983E0146018146015249A
:103E9000FE601124C470030245D624C0700302459D
:103EA000D6024B14E0F9120B4C8A0A8B0BAE0AAF08
:103EB0000B9004C6E07003024254120A44E9F875FC
:103EC000F006A4C8AAF02AF974C928F50C740439BC
:103ED000F50D850C82F583E0F50AA3E0F50BAC0A3D
:103EE000FDEEFAEFFB120B46E9F50E7402650E705B
:103EF000030242138E828F83E024FE600A24FE7048
:103F00000302410B024B14EE65087003EF65096074
:103F1000211209BA9007F9E0640170169007F8E0E1
:103F200070107901120C5A120C2A120C54790012DA
:103F30000C60E50E6021E5082415F582E5093400E2
:103F4000F583E060129007F4E0F8A3E0F9A3E068DD
:103F50007003A3E0697026120BBE8A0C8B0D8C0EC9
:103F60008D0F9083C4780C12140C9083F4780C128B
:103F7000146D8E828F83A3A3780C1214B5E50824E8
:103F800015F582E5093400F583E064016003024021
:103F900031850A82850B83A3A3780C1214A6908323
:103FA000C0780C12140C780C12188B8E828F83A39D
:103FB000A3C082C0839007F6E0F508A3E085080C53
:103FC000F50DE4F50EF50FD083D082780C12140CA9
:103FD000AA0CAB0DAC0EAD0F121EA7740412160482
:103FE000E9703C8E828F83A3A3C082C0839007F6C2
:103FF000E0F508A3E0F509E4F50AF50BD083D082DB
:10400000780812140C9083F4780812146DEE240EC4
:10401000F582EF3400F58378081214B50241038568
:104020000A82850B83A3A378081214A69083C0800C
:10403000CFEE240EF582EF3400F5831218A28E82A3
:104040008F83A3A31214C4121EA77404121604E9CA
:1040500064016003024103850A82850B83A3A37870
:104060000C1214A69083C0780C12140C780C121841
:104070008B8E828F83A3A3C082C0839007F6E0F566
:1040800008A3E085080CF50DE4F50EF50FD083D0FC
:1040900082780C12140CAA0CAB0DAC0EAD0F121ED4
:1040A000A77404121604E9701F8E828F83A3A3C025
:1040B00082C0839007F6E0F508A3E0F509E4F50A6D
:1040C000F50BD083D0828010850A82850B83A3A351
:1040D00078081214A69083C0780812140C9083F408
:1040E000780812146DEE240EF582EF3400F5837813
:1040F000081214B59007FCE0642770047425800250
:10410000E004F090086B7402024B0CEE650870033B
:10411000EF65096031900810E0F91209C085088246
:10412000850983E06402701E9007F9E0640170164F
:104130009007F8E070107900120C5A120C2A120C39
:10414000547901120C60E50E601290080AE0F8A3A1
:10415000E0F9A3E0687003A3E0697026120BBE8A41
:104160000C8B0D8C0E8D0F9083C4780C12140C9058
:1041700083F4780C12146D8E828F83A3A3780C12B3
:1041800014B5850A82850B83A3A3780C1214A6901C
:1041900083C0780C12140C780C12188B8E828F83CB
:1041A000A3A3C082C08390080CE0F508A3E08508B3
:1041B0000CF50DE4F50EF50FD083D082780C1214B7
:1041C0000CAA0CAB0DAC0EAD0F121EA77404121688
:1041D00004E9701F8E828F83A3A3C082C0839008DE
:1041E0000CE0F508A3E0F509E4F50AF50BD083D05F
:1041F000828010850A82850B83A3A378081214A6F7
:104200009083C0780812140C9083F4780812146D0F
:10421000024AF5850882850983E0640270139007DD
:10422000F9E06401700B9007F8E070057900120C5A
:104230005AE50C2404FEE50D3400FF8E828F83E0E6
:10424000F9120B828E828F83E09004C7F0AA0AAB2A
:104250000B024B11EE65087003EF65098E828F83A8
:104260006003024438E024FE600A24FE7003024327
:1042700093024B0DEE2415F582EF3400F583E060D8
:10428000419007F4E0F8A3E0F9A3E0687003A3E02D
:1042900069602F120BBE8A088B098C0A8D0B9083E4
:1042A000E0780812140C780812188B8E828F83A382
:1042B000A31214C4121EA77404121604E9600302A8
:1042C0004B0D120BBE8A088B098C0A8D0B9083C490
:1042D000780812140C9083F4780812146D8E828F73
:1042E00083A3A378081214B5EE2415F582EF3400E9
:1042F000F583E0640170348E828F83A3A3C082C0F3
:10430000839007F6E0F508A3E0F509E4F50AF50B5C
:10431000D083D082780812140CEE240EF582EF348C
:1043200000F58378081214B5024B0DEE240EF582C9
:10433000EF3400F5831218A28E828F83A3A3121488
:10434000C4121EA77404121604E964016003024B30
:104350000D8E828F83A3A3C082C0839007F6E0F501
:1043600008A3E0F509E4F50AF50BD083D0827808BC
:1043700012140CEE240EF582EF3400F58378081247
:1043800014B59007FCE0642770057425024B0CE01F
:104390000480F990080AE0F8A3E0F9A3E06870034C
:1043A000A3E069602C120BBE8A088B098C0A8D0B66
:1043B0009083E0780812140C780812188B8E828F84
:1043C00083A3A31214C4121EA77404121604E97066
:1043D00064EE2402F508EF3400F509120BBE8A0CD6
:1043E0008B0D8C0E8D0F9083C4780C12140C90835F
:1043F000F4780C12146D850882850983780C1214E8
:10440000B5850882850983C082C08390080CE0F5D9
:1044100008A3E0F509E4F50AF50BD083D08278080B
:1044200012140CEE240EF582EF3400F58378081296
:1044300014B51209C6024B0DE024FE600A24FE707A
:10444000030244FE024B141209BA9007F9E064011A
:1044500070169007F8E070107901120C5A120C2AAD
:10446000120C547900120C609007F4E0F8A3E0F904
:10447000A3E0687003A3E069602F120BBE8A088B6B
:10448000098C0A8D0B9083E0780812140C780812BE
:10449000188B8E828F83A3A31214C4121EA77404D8
:1044A000121604E96003024103EE2402F508EF341A
:1044B00000F509120BBE8A0C8B0D8C0E8D0F9083AC
:1044C000C4780C12140C9083F4780C12146D8508C7
:1044D00082850983780C1214B5850882850983C00A
:1044E00082C0839007F6E0F508A3E0F509E4F50A39
:1044F000F50BD083D082780812140C02400D90087E
:1045000010E0F91209C0850882850983E064027011
:104510001E9007F9E0640170169007F8E0701079BA
:1045200000120C5A120C2A120C547901120C6090D1
:10453000080AE0F8A3E0F9A3E0687003A3E069606B
:104540002C120BBE8A088B098C0A8D0B9083E078A5
:104550000812140C780812188B8E828F83A3A31272
:1045600014C4121EA77404121604E97066EE240225
:10457000F8EF3400F988088909120BBE8A0C8B0DFC
:104580008C0E8D0F9083C4780C12140C9083F478E9
:104590000C12146D850882850983780C1214B58578
:1045A0000882850983C082C08390080CE0F508A3C7
:1045B000E0F509E4F50AF50BD083D08278081214EF
:1045C0000CEE240EF582EF3400F58378081214B552
:1045D0001209C6024B079004C6E0700302496C1230
:1045E0000A44E9F875F006A4C8AAF02AF974C928A3
:1045F000F510740439F511851082F583E0F508A3F0
:10460000E0F5099004C7E0F875F006A4C8AAF02AFE
:10461000F974C928F50C740439F50D90086AE05452
:10462000077003024895A3E0F9120B4C8A0A8B0B22
:10463000AE0AAF0BAC08AD09120B46E9F50E7402D9
:10464000650E7003024895850C82850D83A3A3A394
:10465000A3E0F875F08AA4C8AAF02AF974CE28F568
:104660000A740839F50BAA0AFB120B76AA0AAB0BDF
:10467000120B70751280751300781212188F7C005F
:104680007D60E50A2406FAE50B3401FB120ABC74CE
:1046900002121604A80AA90B906195E0C0E0E82474
:1046A00086F582E93401F583D0E0F0906196E0C0B0
:1046B000E0E82487F582E93401F583D0E0F09061E9
:1046C00097E0C0E0E82488F582E93401F583D0E082
:1046D000F0906198E0C0E0E82489F582E93401F5C2
:1046E00083D0E0F08E828F83E024FE600A24FE7087
:1046F000030247D00248951209BA9007F9E0640115
:1047000070119007F8E0700B120C2A120C5479000B
:10471000120C60E50E60129007F4E0F8A3E0F9A334
:10472000E0687003A3E0697026120BBE8A0C8B0D43
:104730008C0E8D0F9083C4780C12140C9083F47837
:104740000C12146D8E828F83A3A3780C1214B5857E
:104750000882850983A3A3780C1214A69083C078DD
:104760000C12140C780C12188B8E828F83A3A3C0AA
:1047700082C0839007F6E0F50CA3E0F50DE4F50E9A
:10478000F50FD083D082780C12140CAA0CAB0DACB0
:104790000EAD0F121EA77404121604E9701F8E824C
:1047A0008F83A3A3C082C0839007F6E0F508A3E03F
:1047B000F509E4F50AF50BD083D0828010850882D4
:1047C000850983A3A378081214A69083C002400031
:1047D000900810E0F91209C0E50E601290080AE096
:1047E000F8A3E0F9A3E0687003A3E0697026120B58
:1047F000BE8A0C8B0D8C0E8D0F9083C4780C121416
:104800000C9083F4780C12146D8E828F83A3A3789E
:104810000C1214B5850882850983A3A3780C1214A1
:10482000A69083C0780C12140C780C12188B8E8210
:104830008F83A3A3C082C08390080CE0F50CA3E093
:10484000F50DE4F50EF50FD083D082780C12140C20
:10485000AA0CAB0DAC0EAD0F121EA77404121604F9
:10486000E9701F8E828F83A3A3C082C08390080C3F
:10487000E0F508A3E0F509E4F50AF50BD083D08252
:104880008010850882850983A3A378081214A69056
:1048900083C0024203E510650C7004E511650D70DC
:1048A00003024965850C82850D83A3A3A3E07003F1
:1048B000024949850C82850D83A3A3A3A3E0F87563
:1048C000F08AA4C8AAF02AF974CE28FE740839FF29
:1048D000EEFAEFFB120B76EEFAEFFB120B70750A95
:1048E00080750B00780A12188F7C007D60EE24061C
:1048F000FAEF3401FB120ABC74021216049061959F
:10490000E0C0E0EE2486F582EF3401F583D0E0F0DC
:10491000906196E0C0E0EE2487F582EF3401F583E4
:10492000D0E0F0906197E0C0E0EE2488F582EF34AB
:1049300001F583D0E0F0906198E0C0E0EE2489F5C5
:1049400082EF3401F583D0E0F0E5102404FEE51198
:104950003400FF8E828F83E0F9120B828E828F8368
:10496000E09004C7F0AA08AB09024B1190086AE076
:1049700054077003024B14A3E0F9120B4C8A088B06
:1049800009AE08AF098E828F83E024FE600A24FE00
:104990007003024A5B024B141209BA9007F9E064F3
:1049A0000170169007F8E070107901120C5A120C81
:1049B0002A120C547900120C609007F4E0F8A3E07E
:1049C000F9A3E0687003A3E069602C120BBE8A08AB
:1049D0008B098C0A8D0B9083E0780812140C7808F0
:1049E00012188B8E828F83A3A31214C4121EA77475
:1049F00004121604E97061EE2402F508EF3400F5A4
:104A000009120BBE8A0C8B0D8C0E8D0F9083C4780F
:104A10000C12140C9083F4780C12146D85088285A6
:104A20000983780C1214B5850882850983C082C079
:104A3000839007F6E0F508A3E0F509E4F50AF50B25
:104A4000D083D082780812140CEE240EF582EF3455
:104A500000F58378081214B5024103900810E0F9BC
:104A60001209C090080AE0F8A3E0F9A3E068700317
:104A7000A3E069602C120BBE8A088B098C0A8D0B8F
:104A80009083E0780812140C780812188B8E828FAD
:104A900083A3A31214C4121EA77404121604E9708F
:104AA00063EE2402F8EF3400F988088909120BBE7E
:104AB0008A0C8B0D8C0E8D0F9083C4780C12140C05
:104AC0009083F4780C12146D850882850983780C24
:104AD0001214B5850882850983C082C08390080CB2
:104AE000E0F508A3E0F509E4F50AF50BD083D082E0
:104AF000780812140CEE240EF582EF3400F583785A
:104B0000081214B51209C690086B7404F0EEFAEF9F
:104B1000FB120B407F0C02174E74F012167CEAFE5B
:104B2000EBFFEE2402F8EF3400F988088909EE243F
:104B300006F8EF3400F9880A890B8882F583121889
:104B4000A68508828509831214C4120B9A74021276
:104B50001604850A82850B831218A68508828509AA
:104B6000831214C4120B8E7402121604EE240EF576
:104B700082EF3400F5831214C4120BA08E828F834F
:104B8000E06440701CEE2412F8EF3400F98882894A
:104B900083E0906064F088828983A3E09060658000
:104BA00006906064E4F0A3F090086CEEF0A3EFF0E0
:104BB000EE2416F582EF3400F583E0F8A3E0F583E8
:104BC000888212167A906054E4F0A3F0A3F0A3F068
:104BD000A3F0A3F0A3F0A3F0A3F0A3F0A3F0A3F03D
:104BE000906182E0C2E6F07591BFEE2415F582EF88
:104BF0003400F583E064017003120BD0E5E170FC32
:104C0000EE2414F582EF3400F583E0F46003E0F560
:104C1000E1EE2415F582EF3400F5837401F0900481
:104C20009FE06401706F120BBE8A088B098C0A8D9D
:104C30000B780812188B8E828F83A3A31214C412D0
:104C40001F0474041216048A088B098C0A8D0B90B9
:104C500083B4780C1214A67808790C1212D274035B
:104C600078081213C1E50824F4F508E5093401F5C4
:104C700009900816E0600312113AE4F50AF50B7882
:104C80000812188B7A207B00900498E0F91211E248
:104C900074041216047F0802174E74EC12167CEA94
:104CA000FEEBFF8C088D09EE4F70057902024D8FE7
:104CB000120BBE8A0C8B0D8C0E8D0F9083BC780C62
:104CC00012140C9083F4780C12146D8E828F83E092
:104CD0006402701F9007F4E0F8A3E0F9A3E06870A5
:104CE00003A3E06970248E828F83A3A3780C12142F
:104CF000B58017E06404701290080AE0F8A3E0F9A8
:104D0000A3E0687003A3E06960DC780C12188B855F
:104D10000882850983A3A31214C4121F0474041209
:104D200016048A108B118C128D139083B078101298
:104D300012B34003024CAB850882850983A3A37894
:104D4000081214A6908398780812140C7808121888
:104D50008B8E828F83A3A31214C4121EA774041215
:104D60001604E96003024CAB9083AC780C12140C6F
:104D7000780C12188B8E828F83A3A31214C4121E78
:104D8000A77404121604E970047900800279010204
:104D90004B1474F012167C890874FF6508600302D6
:104DA0004F1E90086AE0540770030253EA7A0078B5
:104DB00069790888828983A3A3A3A3A3E06404700C
:104DC00050EA75F018A4F8A9F0746F28F5827408F9
:104DD00039F583E0640170487A007869790888823F
:104DE0008983A3A3A3A3A3E064046003024E76888F
:104DF000828983A3A3A3A3A3A3E064017078EA75C7
:104E0000F018A4F8A9F0746E28FA740839FB02535C
:104E1000EE0AE82418F8E93400F9EAC39404409350
:104E20007A007869790888828983A3A3A3A3A3E081
:104E300064017057EA75F018A4F8A9F0746F28F5AA
:104E400082740839F583E06401704F7A00786979DB
:104E50000888828983A3A3A3A3A3E064016003025B
:104E60004EFA88828983A3A3A3A3A3A3E06401606D
:104E700003024EFA80880AE82418F8E93400F9EAB7
:104E8000C394045003024DDE0253EA0AE82418F8E2
:104E9000E93400F9EAC39404408C7A00786979080F
:104EA00088828983A3A3A3A3A3E064027061EA7547
:104EB000F018A4F8A9F0746F28F582740839F58306
:104EC000E0640170597A007869790888828983A33F
:104ED000A3A3A3A3E06402707A88828983A3A3A317
:104EE000A3A3A3E06401706BEA75F018A4F8A9F01D
:104EF000746E28FA740839FB806F0AE82418F8E900
:104F00003400F9EAC394045003024E510253EA0AF2
:104F1000E82418F8E93400F9EAC3940440827A00DE
:104F20007869790888828983A3A3A3A3A3E065088D
:104F3000703D88828983A3A3A3A3A3A3E064017027
:104F40002EEA75F018A4F8A9F0746E28FE740839DA
:104F5000FF802F0AE82418F8E93400F9EAC3940422
:104F60005003024ECB7A007B000253EE0253EA0A52
:104F7000E82418F8E93400F9EAC3940440A67E0056
:104F80007F007A007869790888828983A3A3A3A324
:104F9000A3E06508701BEA75F018A4F8A9F0746F17
:104FA00028F582740839F583E0640170137A018072
:104FB000110AE82418F8E93400F9EAC3940440C857
:104FC0007A00E50814600F14700302518724FE7004
:104FD000030252E180967B00786979088882898390
:104FE000A3A3A3A3A3E064027055EB75F018A4F883
:104FF000A9F0746F28F582740839F583E0640170B4
:105000004D7B007869790888828983A3A3A3A3A331
:10501000E0640260030250BD88828983A3A3A3A336
:10502000A3A3E0640160030250BDEB75F018A4F87F
:10503000A9F0746E28F50A740839F50B0250D50BE7
:10504000E82418F8E93400F9EBC39404408E7B009F
:105050007869790888828983A3A3A3A3A3E0640461
:105060006003025111EB75F018A4F8A9F0746F28D1
:10507000F582740839F583E0640160030251237BF3
:10508000007869790888828983A3A3A3A3A3E06435
:1050900004600302512E88828983A3A3A3A3A3A340
:1050A000E06401600302512EEB75F018A4F8A9F03A
:1050B000746E28F50A740839F50B0251460BE82482
:1050C00018F8E93400F9EBC3940450030250077553
:1050D0000A00750B00EAA2E04003025179850A82BA
:1050E000850B83A3A3780C1214A69083A8780C12C6
:1050F000140C780C12188B8E828F83A3A31214C405
:10510000121EA77404121604E9706EEEFAEF024E36
:105110000D0BE82418F8E93400F9EBC394045003AC
:10512000025054EAA2E05058EEFAEFFB80560BE82A
:105130002418F8E93400F9EBC394045003025085B5
:10514000750A00750B00EAA2E0502E850A82850BD5
:1051500083A3A3780C1214A69083A8780C12140CC5
:10516000780C12188B8E828F83A3A31214C4121E84
:10517000A77404121604E96092AA0AAB0B0253EE5C
:105180007A007B000253EE7B007869790888828977
:1051900083A3A3A3A3A3E064047052EB75F018A447
:1051A000F8A9F0746F28F582740839F583E064017A
:1051B000704A7B007869790888828983A3A3A3A3B6
:1051C000A3E06404600302525588828983A3A3A3E9
:1051D000A3A3A3E06401707DEB75F018A4F8A9F017
:1051E000746E28F50A740839F50B02526D0BE82429
:1051F00018F8E93400F9EBC3940440917B00786916
:10520000790888828983A3A3A3A3A3E06401600330
:105210000252A9EB75F018A4F8A9F0746F28F58272
:10522000740839F583E0640160030252BB7B0078A7
:1052300069790888828983A3A3A3A3A3E06401609A
:10524000030252C688828983A3A3A3A3A3A3E06415
:1052500001707380830BE82418F8E93400F9EBC37C
:10526000940450030251B8750A00750B00EAA2E0DD
:105270004003025179850A82850B83A3A3780C121F
:1052800014A69083A8780C12140C780C12188B8E2C
:10529000828F83A3A31214C4121EA77404121604CF
:1052A000E9600302517902510B0BE82418F8E93444
:1052B00000F9EBC394045003025202EAA2E0501A30
:1052C000EEFAEFFB80180BE82418F8E93400F9EB4C
:1052D000C394045003025233808D7A007B00025342
:1052E000EE7B007869790888828983A3A3A3A3A3AE
:1052F000E064017040EB75F018A4F8A9F0746F2811
:10530000F582740839F583E0640170387B007869B0
:10531000790888828983A3A3A3A3A3E0640160031F
:105320000253A688828983A3A3A3A3A3A3E0640155
:1053300070740251D80BE82418F8E93400F9EBC373
:10534000940440A37B007869790888828983A3A3A9
:10535000A3A3A3E064027063EB75F018A4F8A9F0AE
:10536000746F28F582740839F583E06401705B7B03
:10537000007869790888828983A3A3A3A3A3E06442
:1053800002704F88828983A3A3A3A3A3A3E064012F
:105390007040EB75F018A4F8A9F0746E28F50A7443
:1053A0000839F50B80410BE82418F8E93400F9EBD3
:1053B000C3940450030253120252670BE82418F8F6
:1053C000E93400F9EBC394044080EAA2E0501B02E8
:1053D000510B0BE82418F8E93400F9EBC3940440AE
:1053E00094750A00750B0002526D7A007B00024C26
:1053F0009574F612167C8909750800786979088811
:10540000828983A3A3A3A3A3A3E060030254CDE5F1
:105410000875F018A4F8A9F0746E28FE740839FF16
:105420008E828F83A37401F08E828F83E509F01240
:105430000BBE8E828F83A3A31214D08E828F83A380
:10544000A3A3A3A3A3E4F0A3F09083801214C4EE5B
:10545000240EF582EF3400F5831214D0EE2414F5F7
:1054600082EF3400F5837401F0EE2415F582EF34F9
:1054700000F5837401F0EE2416F582EF3400F58315
:10548000E4F0A3F090086AE04509F0900869E004B0
:10549000F06401600C7480650960067440650970F1
:1054A00019E50875F018A4F8A9F0746E28F87408C6
:1054B00039F990086CE8F0A3E9F0E50875F018A454
:1054C000F8A9F0746E28FA740839FB80180508E80A
:1054D0002418F8E93400F9E508C394045003025392
:1054E000FF7A007B0080007F0202174EC082C083DB
:1054F0008A828B83E0F8A3E0F98A828B83E4F0A3AD
:10550000F088828983A3F088828983E0F4F8900888
:105510006AE058F0900869E014F0700B90086CE4B1
:10552000F0A3F0900499F0801CC082C083900869B9
:10553000E0600A90086CE0FAA3E0FB80047A007B4C
:10554000008002E0F9D083D08202011FC082C083B4
:10555000E9FB7A007869790888828983A3A3A3A3E9
:10556000A3E06B7016EA75F018A4F8A9F0746F2820
:10557000F582740839F583E0F980110AE82418F8F7
:10558000E93400F9EAC3940440CE790080B7C082C0
:10559000C08390086902554374F612167CEAFEEB4C
:1055A000FF9061D0E0C0E0EE2400F582EF3401F519
:1055B00083D0E0F09061D7E0FA9061D5E0C39A54CF
:1055C0007FC0E0EE2401F582EF3401F583D0E0F0F6
:1055D000EE2402F8EF3401F99061D6E0C39A547FCB
:1055E00088828983F0701A9061C5E0A2E45012E0CD
:1055F000A2E7500DEE2402F582EF3401F5837480AA
:10560000F0120C84EE2401F582EF3401F583E07092
:1056100034EE2402F582EF3401F583E070279061C7
:10562000C5E0A2E4501FE0A2E7501AEE2402F58282
:10563000EF3401F5837480F0EE2401F582EF34013C
:10564000F5837480F075E1957800EE2400F582EF23
:105650003401F583E060279061D3E0C0E08808EE74
:105660002508F582EF3400F583D0E0F008EE240041
:10567000F582EF3401F583E0F9E8C39940D975E18B
:10568000910254E774F612167CEAFEEBFF9061C8B3
:10569000E0C0E0EE2403F582EF3401F583D0E0F0C2
:1056A0009061CFE0FA9061CDE0C39A547FC0E0EE04
:1056B0002404F582EF3401F583D0E0F0EE2405F800
:1056C000EF3401F99061CEE0C39A547F88828983D8
:1056D000F0701A9061C5E0A2E05012E0A2E3500D14
:1056E000EE2405F582EF3401F5837480F0120C8A04
:1056F000EE2404F582EF3401F583E07034EE2405E6
:10570000F582EF3401F583E070279061C5E0A2E0F7
:10571000501FE0A2E3501AEE2405F582EF3401F5A4
:10572000837480F0EE2404F582EF3401F5837480F5
:10573000F0120C907A00EE2403F582EF3401F58329
:10574000E0602F9061CBE0C0E08A08EE2508F8EF1A
:105750003400F9E82480F582E93400F583D0E0F0E4
:105760000AEE2403F582EF3401F583E0F8EAC398EA
:1057700040D175E1810254E774F412167C8908A8BF
:1057800008E875F08AA4C8AAF02AF974CE28FE7435
:105790000839FFEEFAEFFB120B76EEFAEFFB120B75
:1057A00070750A80750B00780A12188F7C007D6076
:1057B000EE2406FAEF3401FB120ABC74021216043E
:1057C000906195E0C0E0EE2486F582EF3401F58328
:1057D000D0E0F0906196E0C0E0EE2487F582EF34EF
:1057E00001F583D0E0F0906197E0C0E0EE2488F509
:1057F00082EF3401F583D0E0F0906198E0C0E0EEF4
:105800002489F582EF3401F583D0E0F07F0402179C
:105810004E74F212167C8908A808E875F08AA4C8AC
:10582000AAF02AF974CE28F8740839F99061C6E014
:10583000FDE054F0F075E1817C00E82403F582E995
:105840003401F583E0602B8C0AE8250AFAE934007C
:10585000FBEA2480F582EB3400F583E09061CAF026
:105860000CE82403F582E93401F583E0FAECC39AED
:1058700040D5E82405F582E93401F583E060049021
:1058800061CEF0E82404F582E93401F583E0600498
:105890009061CDF0ED9061C6F0A808E875F08AA49B
:1058A000C8AAF02AF974CE28F8740839F9E0FCE0A7
:1058B000540FF075E1917A00E82400F582E9340193
:1058C000F583E060238A0AE8250AF582E93400F5C9
:1058D00083E09061D2F00AE82400F582E93401F512
:1058E00083E0FBEAC39B40DDE82402F582E9340152
:1058F000F583E060049061D6F0E82401F582E93494
:1059000001F583E060049061D5F0EC9061C6F0850C
:105910000882AE82EEF875F08AA4C8AAF02AF9745B
:10592000CE28F50A740839F50B750C80750D0078D2
:105930000C12188FE50A2406FCE50B3401FD7A00F1
:105940007B60120ABC7402121604A80AA90BE82490
:1059500086F582E93401F583E0906195F0E82487CB
:10596000F582E93401F583E0906196F0E82488F54A
:1059700082E93401F583E0906197F0E82489F582AB
:10598000E93401F583E0906198F0EE75F006A4CE5D
:10599000A8F028FF74C92EF58274043FF583E0F85F
:1059A000A3E0F5838882E0648070419011A874FEC2
:1059B000F0A3740AF0A374E6F0A3740AF0A374FED3
:1059C000F0A3740AF0A374FEF0A3740AF0A374E6C3
:1059D000F0A3740AF0A374FEF0A3740AF0A3740495
:1059E000F0A3740BF09004997408800590049974E6
:1059F00007F09011B674E6F0A3740AF0A374E6F011
:105A0000A3740AF0A374E6F0A3740AF0A374E6F09A
:105A1000A3740AF0A374E6F0A3740AF0A374E6F08A
:105A2000A3740AF07F0602174EC082C083E990116A
:105A300086F0D083D08202011F74F612167CE990A2
:105A40000364F07CA47D037AFF7BFF1206FC7A00DE
:105A50008A08750900740278081215DB7465250838
:105A6000F874033509125A88A3F00AEAC394034074
:105A7000DF790512068A900364E0F91205B27A1400
:105A80007B071208CA027009F98882898374FF12A1
:105A90005A95E4F022F0A3126E96A32274F4121623
:105AA0007C8A088B09EB54806030900364E0F91223
:105AB00010C28A0A8B0BAE0AAF0BEE4F60138E82B8
:105AC0008F83E064B0700312069CEEFAEFFB1210B5
:105AD000B0AA08E5096480FB80047A007B00025CC0
:105AE0006574F212167C74FC1215EEEAFEEBFF747C
:105AF00012121658126EDFEE4F7003025B847402AE
:105B0000121658EEF0A3EF125EC0ECF0A3ED125E99
:105B1000C0AA82AB831205ACE9F50A706AE50845B4
:105B20000960648E828F83126EC0EE4F60567A06D3
