:020000040000FA
:06000000020107021DC30E
:03002B0002205C54
:0300330002203E6A
:03003B000220762A
:03004300021FF2A7
:03005300021E3654
:03006B0002201858
:10008300021C77E5C754F84401F5C7790122000043
:100093000080FB120086B900030200F1E4791A78AC
:1000A30002B800028004F709D8FCE4791C7802B88E
:1000B30000028004F709D8FCE4900281788B790F61
:1000C3008002F0A3D8FCD9FA7A0B7B119001377820
:1000D300D479018015E493A3AD82AE838A828B83A6
:1000E300F0A3AA82AB838D828E83D8E9D9E7758288
:1000F300277583CA7403120119758291758300747D
:100103000012011975D00075813F751881751902A8
:10011300759F00020096C09FF59FE473D09F22D085
:1001230083D082C09FE493C0E0740193C0E0740263
:1001330093F59F229603A803D2039C03FF0000B408
:10014300000028002800283075A000A000A000A00F
:100153000000080008E001F000100010001000107B
:10016300001000100050005000500010001000D08C
:10017300070000000000000F0001000500307507B4
:10018300001000010081FF0000FF0202028A8601C5
:1001930000007586028486010000611102808601D9
:1001A3000000B1020284860100006211027E860112
:1001B3000000C702FFFF0100FF20028A8601000042
:1001C3007886028486010000901102868600000072
:1001D3000000028286030000A4030A0B0A0B0A0B29
:1001E3000A0B0A0B0A0B0A0B0A0B0A0B0A0B0A0B64
:1001F3000A0B0A0BD80CF60CD20C01E803053F10CE
:1002030002FFFFFF00FEFF1201220EC303120122B1
:1002130024C30312012251C30312012281C3031217
:10022300012298C303120122B9C303120122EAC3B4
:10023300031201223BC40312012252C403120122FE
:1002430060BB0312012277BB03120122A6BB031278
:100253000122DFBB0312012207BC0312012235BCBA
:10026300031201224CBC0312012263BC03120122BC
:1002730079BC03120122A0BC03120122B3BC0312F6
:100283000122C9BC03120122F1BC0312012204A9F9
:100293000212012203AA021201222DAA0212012232
:1002A30082AA02120122A3AA02120122BCAA0212EA
:1002B3000122BEAA02120122DFAA02120122E2AB2C
:1002C300021201229FAC021201226CAD0212012222
:1002D300D0AD0212012267AE021201226AAE0212EF
:1002E3000122F0AE0212012233AF0212012285AFC6
:1002F3000212012288AF02120122BFAF02120122B1
:10030300E6AF021201227CB00212012205B10212F1
:1003130001224EB1021201225BB1021201225EB12F
:1003230002120122BCB102120122D4B10212012233
:100333004EB20212012251B20212012274B202120F
:10034300012277B2021201221EB30212012241B32B
:100353000212012259B30212012289B302120122AD
:1003630096B30212012299B30212012205B40212BA
:100373000122F3B402120122A9B50212012257C0CD
:100383000212012232C10212012260C102120122B1
:10039300E0C10212012200C2021201223EC2021275
:1003A300012291C202120122F9C2021201228AC35E
:1003B3000212012255C40212012264C70212012251
:1003C300D0C802120122F3C802120122C7AA0312E3
:1003D300012258AC03120122A9AC0312012208AD79
:1003E3000312012216AD031201223FAD03120122B3
:1003F3003D850312012265850312012293850312B1
:100403000122CA85031201223286031201227B864E
:1004130003120122C686031201220487031201225A
:100423004187031201226F870312012216880312E8
:1004330001222088031201222D88031201226088E1
:10044300031201222289031201222E89031201229F
:10045300468903120122508903120122CE89031215
:10046300012272C70312012280C70312012298C717
:1004730003120122B0C703120122C8C703120122CB
:1004830060EF01120122FEEF0112012276F0011248
:1004930001228BF101120122C5F1011201226EF238
:1004A3000112012243F301120122A7F401120122D6
:1004B300FEF40112012285F5011201226CF60112EC
:1004C3000122B9F60112012247F7011201226BF74B
:1004D3000112012240F90112012281F901120122C4
:1004E300A3F90112012268FA011201222EFB011263
:1004F300012263FD0112012257A3031201226DA3FE
:100503000312012293A303120122BBA403120122AB
:10051300C5A4031201221EA6031201221EA7031261
:1005230001225F8A03120122018B03120122348B01
:10053300031201227E8B03120122388D0312012242
:1005430013B00112012291B001120122A1B00112D4
:10055300012284B1011201228EB101120122BCB128
:1005630001120122C7B101120122A0B2011201221C
:1005730002B3011201229EB301120122A2B501129C
:10058300012259B701120122D5B701120122B2B8D3
:1005930001120122E0BB011201227EBC01120122E1
:1005A300DBBD011201224EBF01120122F7BF01126E
:1005B300012240C00112012277C0011201221CC195
:1005C300011201229AC101120122E0D1011201227A
:1005D30035D2011201227AD3011201228AD30112E8
:1005E3000122ADD301120122F8D3011201229DD4BD
:1005F3000112012293D5011201225DD601120122BB
:10060300D5D70112012217D801120122B5D8011240
:100613000122DBD801120122C9DA01120122CEDA4A
:1006230001120122AFDC0112012203DD01120122BA
:1006330065DD011201228DDD0112012231DE01127D
:100643000122F3DE0112012224DF0112012227DF3E
:10065300011201226FDF01120122B1DF0112012217
:1006630018E0011201228D7D00120122A07D0012EB
:100673000122A97D00120122C27D001201220D7EFA
:1006830000120122E87E00120122777F001201226C
:10069300C27F00120122A15A00120122B15A001294
:1006A3000122145B00120122595B00120122095C32
:1006B30000120122E25C001201220B5D00120122F2
:1006C3003B5D001201224F5F001201222B610012D9
:1006D30001220B6300120122436400120122BC6653
:1006E30000120122A86700120122EE680012012203
:1006F300FB69001201223D6A00120122756A001291
:1007030001228F6A00120122F76A00120122916FFF
:10071300001201223270001201228670001201229F
:10072300AD7000120122EB70001201220A71001257
:1007330001225E7100120122667200120122EF7221
:1007430000120122B5F302120122BFF302120122A9
:100753005BF40212012226F50212012245F5021270
:1007630001226BF502120122AAF502120122E2F51F
:10077300021201220BF60212012245F60212012295
:100783005AF60212012227F7021201224AF7021235
:1007930001226CF70212012281F7021201220BF8E7
:1007A3000212012245F802120122B9F802120122B3
:1007B30002F9021201222CF90212012251F902124A
:1007C30001226B9F0312012235A00312012218A1FB
:1007D300031201228EA103120122D0A103120122CE
:1007E300FDA203120122CF8D02120122F88D021203
:1007F3000122118E02120122568F0212012234901D
:1008030002120122539002120122E09002120122ED
:100813002391021201225B9202120122C792021259
:100823000122BD94021201224B9702120122DE978C
:1008330002120122B29802120122559902120122D8
:10084300689A02120122FE9A0212012269C403125B
:100853000122D2C40312012226C50312012255C567
:1008630003120122DB8E03120122488F031201229D
:10087300938F0312012288900312012284910312A1
:1008830001226E9203120122E0E00212012227E10B
:100893000212012200E202120122FBE202120122F1
:1008A300DAE30212012246E40212012262E5021295
:1008B3000122C9E502120122CCE502120122F7E569
:1008C3000212012268E6021201220BE70212012240
:1008D30020E70212012268E70212012281E70212D5
:1008E300012284E70212012257AE0312012293AEC2
:1008F30003120122D1AE031201229BAF0312012284
:100903000EB00312012249B00312012287B0031271
:100913000122B7B003120122DEB00312012249B152
:10092300031201228BB103120122978601120122C5
:10093300B58801120122648A01120122148B01126B
:1009430001225F8B01120122AA8B01120122BC8BAF
:1009530001120122FC8B01120122318C01120122AE
:100963007D8C01120122AC8C01120122CF8C011269
:100973000122568D01120122428E01120122808F23
:10098300011201228290011201225E9201120122C0
:10099300829701120122C8970112012206980112BF
:1009A30001223B9A01120122B1B70312012251B96C
:1009B30003120122E820001201227F2100120122EA
:1009C300C52100120122FB220012012292240012EF
:1009D30001220A25001201224C25001201229C2526
:1009E300001201220727001201227229001201229C
:1009F3004E2A001201226D2A001201228C2A0012B3
:100A030001228F2A00120122152C001201220A2D25
:100A130000120122062E00120122762E001201225C
:100A2300E82E00120122672F001201224230001229
:100A33000122493100120122283200120122B3326D
:100A430000120122213300120122953300120122E8
:100A5300BE33001201227D34001201228C370012B2
:100A63000122D537001201221838001201229B38C7
:100A7300001201223F3900120122D0390012012253
:100A8300F539001201223F3A00120122693A00129D
:100A93000122AE3A00120122293B00120122833BBC
:100AA30000120122D73C00120122943D00120122C0
:100AB300673E0012012200800212012250800212BE
:100AC30001225C8002120122398102120122698112
:100AD30002120122A18102120122208202120122AA
:100AE300588202120122AA8202120122E782021212
:100AF30001220C8502120122388702120122338956
:100B0300021201220E8B02120122EC7F001201223B
:100B1300F0ED0212012222F20212012272F30212FA
:100B230001224EC20112012220C90112012226C94B
:100B330001120122D6CB01120122008003120122ED
:100B4300AC80031201227A8103120122A4810312D1
:100B53000122F28303120122953E00120122DF3E9D
:100B630000120122914B00120122124D00120122A8
:100B73000A4E001201226954001201226455001228
:100B83000122A15500120122C4550012012206566A
:100B930000120122105600120122FC5600120122FB
:100BA300F05700120122895800120122D3B1031217
:100BB3000122D1B20312012227B30312012265B32A
:100BC30003120122C2B3031201223FB40312012212
:100BD30048B40312012254B40312012267B403126E
:100BE3000122A3B403120122B9B403120122A8E71C
:100BF30002120122B5E702120122CFE702120122FB
:100C03000EE8021201224CE802120122B1E802129C
:100C13000122C6E802120122DDE802120122EBE8FA
:100C230002120122FAE8021201220FE90212012242
:100C330024E9021201222FE9021201223BE90212E6
:100C4300012248E90212012257E90212012262E954
:100C53000212012287E90212012230EA0212012262
:100C630045EA021201225AEA0212012274EA02122E
:100C730001228FEA02120122ACEA02120122B7EA30
:100C83000212012273EB021201225FEC0212012213
:100C930084EC021201228EEC02120122A2EC021257
:100CA3000122C1EC0212012222ED0212012228EDDF
:100CB300021201222EED0212012234ED0212012250
:100CC30040ED0212012273ED02120122567300124B
:100CD300012282730012012266740012012200773E
:100CE3000012012216780012012233790012012228
:100CF300D679001201227C7A001201227A9B021219
:100D03000122FC9B02120122A59C02120122ED9DED
:100D130002120122FB9F02120122E1A00212012210
:100D230016A10212012238A102120122E1A102122C
:100D33000122B1A302120122DAA30212012252A458
:100D43000212012284A40212012291A4021201229E
:100D5300DCA40212012200A50212012251A70212F1
:100D630001225BA802120122B7A802120122E2E0CB
:100D730001120122F3E101120122D7E20112012241
:100D8300E1E20112012203E3011201220FE3011246
:100D93000122B3E401120122E0E401120122F6E58B
:100DA300011201224BE6011201229AE701120122EC
:100DB3006FE801120122CBE80112012236E9011288
:100DC30001226BE901120122AEE90112012278EC42
:100DD3000112012290EC0112012221ED01120122E4
:100DE3002FED011201227CED011201228AED011285
:100DF3000122F6ED0112012271EE01120122C8EE69
:100E030001120122A7B903120122CCB90312012254
:100E130042BA03120122F1D902120122FAD90212B3
:100E2300012203DA02120122DBDA021201228CDC34
:100E330002120122BCDC02120122E7DC02120122AF
:100E430017DD0212012242DD0212012276DD0212B7
:100E53000122A2DD02120122E5DD0212012210DECF
:100E63000212012257DE02120122ACDE021201221B
:100E7300EEDE0212012248DF0212012273DF0212A8
:100E83000122C2DF02120122F2DF021201221DE05F
:100E93000212012240E0021201226EFF011201221E
:100EA3009AFF01120122C7FF01120122D1FF011291
:100EB3000122E1FF0112012279F902120122B8F99C
:100EC3000212012241FA0212012254FA02120122F1
:100ED3009FFA02120122D3FA0212012212FB02121A
:100EE300012221FB02120122D3FB021201222CFC5C
:100EF300021201227BFC02120122D1FC0212012206
:100F0300C6FD02120122BBFE02120122F8FE0212EA
:100F1300012268C903120122549C01120122529E2C
:100F230001120122D39F01120122D5A00112012235
:100F33005DA101120122E2A1011201220BA2011201
:100F430001225BA2011201224EA601120122BFA6B9
:100F530001120122ABA701120122E5A7011201220E
:100F630025A80112012258A90112012289A90112FF
:100F73000122DCA90112012225AA0112012293AA4E
:100F830001120122C5AA01120122DFAA01120122C4
:100F9300D1AB01120122E1AB0112012290AD01128A
:100FA3000122A7AD01120122D9AD011201225BAFCB
:100FB30001120122D4AF0112012230FF02120122D9
:100FC30041FF021201227ACA03120122B9CA031293
:100FD3000122EBFF0112012261C80312012271C831
:100FE300031201228CC803120122F4C80312012246
:100FF30076C503120122FAC50312012262C6031247
:1010030001221DC00312012246C003120122B3C0F4
:101013000312012206C1031201225FC1031201223E
:10102300309303120122679303120122D793031211
:101033000122EC9303120122F394031201227A9505
:10104300031201224096031201225F96031201222A
:10105300849603120122B99603120122D196031238
:10106300012222970312012228A70312012242A779
:1010730003120122BBA70312012290A8031201222B
:1010830062AA03120122579703120122E797031260
:101093000122659803120122E998031201227B9928
:1010A30003120122379A03120122049B0312012225
:1010B3000E9B031201221D9B03120122339B031279
:1010C3000122469B03120122509B03120122639BC0
:1010D3000312012292BE03120122BBBE031201229C
:1010E300E4BE031201227EBF0312012296BF031244
:1010F3000122D8BF031201220FD20212012219D2F8
:101103000212012259D202120122A2D20212012298
:10111300DCD20212012232D30212012251D3021273
:101123000122D9D502120122E2D50212012233D6BD
:10113300021201225CD60212012266D60212012299
:10114300D7D60212012265D702120122BAD70212A0
:101153000122E9D70212012265D802120122A2D884
:1011630002120122D9D802120122EBD80212012263
:101173000AD90212012213D902120122C5D902127D
:10118300012203BD0312012253BD03120122C5BD77
:10119300031201222DBE03120122E9B4031201221C
:1011A30013B503120122DAB503120122B6B60312F4
:1011B30001223EB7031201227BC60312012272FDF4
:1011C30001120122A8FD01120122DBFD01120122FD
:1011D30034FF01120122FEC80312012214C90312B3
:1011E30001221EC903120122C8C9031201222BCAFC
:1011F30002120122E8CA0212012223CB02120122A7
:1012030054CB02120122B6CB0212012202CC0212EB
:1012130001226DCC02120122E7CC02120122E6CD9B
:10122300021201226DCF02120122F0CF021201221B
:1012330056D00212012269D00212012264D1021295
:101243000122B1D102120122669B031201227C9B6F
:1012530003120122209C031201225F9C031201222C
:101263007C9C03120122AD9C03120122FA9C0312FF
:1012730001222E9D03120122699D031201225E9F0A
:10128300031201229AC103120122A8C103120122EF
:1012930013C20312012265C20312012283C2031285
:1012A300012221B6021201222AB702120122F9B742
:1012B300021201225BBA021201223BBB021201227B
:1012C3007BBB02120122A4BD021201220FBE021235
:1012D3000122B2BE02120122DBBF02120122FACAAC
:1012E30003120122C3CA0312012226CB03120122D5
:1012F300DFFF02E066701008A3E066700A08A3E04F
:1013030066700408A3E06622C3E7960809E7960817
:1013130009E7960809E79622C3E09608A3E0960832
:10132300A3E09608A3E09622C008C3E096F5080858
:10133300A3E096420808A3E096420808A3E0964576
:10134300087001D3D00822080808EAC0E0EBC0E027
:1013530086F0E7A4FA180986F0E7A42AFA180986A2
:10136300F0E7A42AFA180986F0E7A42AFA1986F006
:10137300E7A4FBE5F02AFA190886F0E7A42BFBE5BE
:10138300F03AFA190886F0E7A42BFBE5F03AFA18CD
:10139300180986F0E7A4C5F02BFBE43AFA1908E72D
:1013A300C5F0C6A426F6E5F03BFBE43AFA1886F04E
:1013B300E7A4F6E5F00826F6E43B08F6E43A08F677
:1013C300D0E0FBD0E0FA22E4CFC0E0E4CEC0E0E41A
:1013D300CDC0E0E4CCC0E075F020E626F608E633A5
:1013E300F608E633F608E633F6181818EC33FCED86
:1013F30033FDEE33FEEF33FFC3EC9709ED9709EEB0
:101403009709EF97191919400FFFEC97FC09ED970E
:10141300FD09EE97FE191906D5F0BFECF709EDF7B4
:1014230009EEF709EFF7191919D0E0FCD0E0FDD068
:10143300E0FED0E0FF226016080808C6C313C618F2
:10144300C613C618C613C618C613C6D5E0EA22705B
:1014530009080808226016181818C6C333C608C638
:1014630033C608C633C608C633C6D5E0EA22E62724
:10147300F60809E637F60809E637F60809E637F607
:1014830022E026F608A3E036F608A3E036F608A322
:10149300E036F622E026F008A3E036F008A3E036B3
:1014A300F008A3E036F022C3E697F60809E697F6BC
:1014B3000809E697F60809E697F622C3E096F008CE
:1014C300A3E096F008A3E096F008A3E096F022E6E6
:1014D30057F60809E657F60809E657F60809E657E6
:1014E300F622E056F608A3E056F608A3E056F608FF
:1014F300A3E056F622E056F008A3E056F008A3E076
:1015030056F008A3E056F022E066F608A3E066F67C
:1015130008A3E066F608A3E066F622E0F608A3E077
:10152300F608A3E0F608A3E0F622E6F008A3E6F047
:1015330008A3E6F008A3E6F022E0FAA3E0FBA3E0A9
:10154300FCA3E0FD22EAF0A3EBF0A3ECF0A3EDF0A3
:1015530022E0F8A3E0F9A3E0FAA3E0FB22E8F0A37A
:10156300E9F0A3EAF0A3EBF022CAC0E0E6F0A30897
:10157300DAFAD0E0FA22CAC0E0E0A3C582CCC58281
:10158300C583CDC583F0A3C582CCC582C583CDC534
:1015930083DAE6D0E0CA22C3E498F8E499F9121595
:1015A300DB8026C3E49AFAE49BFBE920E7E9121502
:1015B300DBE498F8E499F922C3E498F8E499F91282
:1015C30015DBE498F8E499F9C3E49AFAE49BFB2267
:1015D300EB20E7CFE920E7E0B90010BB0008E88A79
:1015E300F084F8AAF022E4FBC8FA22EB70227B1005
:1015F300C833C8C933C9335007C39AC3DBF2800663
:101603009A50012ADBEAC833F4C8C933F4C9FA2271
:1016130075F008E4C833C8C933C933C99AC99B50A4
:1016230004C92AC93BD5F0ECFBC833F4C8E4C9FAB2
:1016330022600D08C6A2E713C618C613C6D5E0F389
:1016430022600C08C6C313C618C613C6D5E0F4221D
:10165300700422600D18C6C333C608C633C6D5E06E
:10166300F41822251810AF08F518400C1519800836
:10167300F51840021519D2AF2200C0D0251810AFBB
:1016830008F518500C05198008F51850020519D2F1
:10169300AFD0D0222518F58210AF08F518400C15ED
:1016A300198008F51840021519D2AF85198322C590
:1016B300822518C582C583351910AF07F5198582B0
:1016C300188007F519858218D2AFC583222518F52E
:1016D30082E43519F583222518F8E43519F9222512
:1016E30018FAE43519FB222518FCE43519FD22E428
:1016F300732518C582C0E0E51934FFC583C0E0E552
:1017030018C3958224F810AF088583198582188041
:1017130008858319858218D2AFCEF0A3E520F0A304
:101723007808E608F0A3DEFAEFF0A3E58124FAF8DF
:10173300E608F0A3E608F0A3E608F0A30808E60825
:10174300F0A3E608F0A315811581D0E0FED0E0F800
:10175300158115811581E8C0E0EEC0E0222518C58A
:1017630082C0E0E51934FFC583C0E0E518C3958264
:1017730024F910AF08858319858218800885831999
:10178300858218D2AFCEF0A3E520F0A37808E6084F
:10179300F0A3DEFAEFF0A3E58124FBF8E608F0A35B
:1017A300E608F0A30808E608F0A3E608F0A315810D
:1017B3001581D0E0FED0E0F815811581E8C0E0EE98
:1017C300C0E022851983851882E0A3FEE0A3F520FB
:1017D3007808E0A3F608DFFAE0A3FFE0A3C0E0E0A7
:1017E300A3C0E0E0A3C0E0E0A3C0E0E0A3C0E0103A
:1017F300AF08858218858319800885821885831927
:10180300D2AFD083D08202011F851983851882E06D
:10181300A3FEE0A3F5207808E0A3F608DFFAE0A32F
:10182300FFE0A3C0E0E0A3C0E0E0A3C0E0E0A3C00A
:10183300E010AF0885821885831980088582188592
:101843008319D2AFD083D08222C0D02518C582C0DD
:10185300E0E51934FFC583C0E0E518C3958224F39E
:1018630010AF0885831985821880088583198582BE
:1018730018D2AFC8F0A3E9F0A3EAF0A3EBF0A37981
:1018830008E709F0A3D8FAECF0A3EDF0A3EEF0A378
:10189300EFF0A3D0E0F0A3D0E0F0A3D0E0F0A3E515
:1018A30020F0A3E5F0F0A322851983851882E0C018
:1018B300E0A3E0F9A3E0FAA3E0FBA37808E0F608CD
:1018C300A3DFFAE0FCA3E0FDA3E0FEA3E0FFA3E0B7
:1018D300C0E0A3E0C0E0A3E0F5D0A3E0F520A3E0DF
:1018E300A3F5F010AF0885831985821880088583D6
:1018F30019858218D2AFD082D083D0E0F8D0E032FD
:1019030074048006740280027401C0E0F4041216A9
:1019130097D0E012156C227404800474028000CC0A
:10192300C0E0EDC0E0E518C39CCCAD1950011D101B
:10193300AF068C188D1980068C188D19D2AF12152D
:1019430079D0E0FDD0E0FC22D083D082E9C0E0E48E
:1019530093A3C386F0C5F095F0F908E493A386F04A
:10196300C5F095F0700BE493A3C3994005E9048097
:1019730002A3E475F002A42582F582E5F03583F530
:1019830083D0E0F9E493A3C0E0E493C0E022D083E2
:10199300D082ECC0E0EDC0E0E493A3FCE493A3FDAC
:1019A300ED4C600D1219DDEC24FFFCED34FFFD80DE
:1019B300EFE493A3FCE493A3FDED4C600D121A1C1A
:1019C300EC24FFFCED34FFFD80EFD0E0FDD0E0FC24
:1019D300E493A3C0E0E493C0E022C0E0C3E49396A1
:1019E300087401939618400FE49366700808740115
:1019F30093661870007019A3A3C3E4939608740147
:101A0300939618A3A3400DD0E0D0E0D0E00219CD07
:101A1300A3A3A3A3A3A3D0E022C0E0C0F088F0E473
:101A2300936670080874019366187000A8F0A3A366
:101A3300700BD0F0D0E0D0E0D0E00219CDA3A3D05A
:041A4300F0D0E022DD
:101A480074F5121760EAFEEBFFEE2434F8EF340069
:101A5800F988088909EE2435F582EF3400F583E02A
:101A6800F8EE2437F582EF3400F583E0F50AEC85CB
:101A78000AF0A4FCAAF0850AF0EDA42AFDE82CF8E7
:101A8800E43DF97A257B001215DBEA850882850991
:101A980083F05407F87401B800028004C333D8FCFB
:101AA800C0E0E0131313541FF8EE28F8EF3400F9E0
:101AB800E8245DF582E93400F583D0E0F8E0586069
:101AC80008EE2434F582EF801EEE2436F582EF34DA
:101AD80000F583E0F5F0EA84A8F0EE28F8EF34008A
:101AE800F9E82438F582E93400F583E0F97F040247
:101AF800180C74F5121760EAFEEBFFEE2434F58239
:101B0800EF3400F583E0C0E0EE2435F582EF3400D1
:101B1800F583D0E0F08E828F83A3A3A3A3A3A3A30E
:101B2800C082C0838E828F83A3A3A3A3A3E0F8A35C
:101B3800E0F9D083D082E0C398F508A3E099F509CD
:101B4800EE2480F582EF3400F583E064017069EEDD
:101B58002481F582EF3400F583E0F8A3E0F98E8262
:101B68008F83A3A3A3A3A3A3A3E0FCA3E0FD8E827A
:101B78008F83A3A3A3A3A3E0FAA3E0FBC3EA9CEB90
:101B88009D5027C3EC98ED99402EC3EA98EB9950E5
:101B9800277CE27D07EEFAEFFB120A50EE2480F56F
:101BA80082EF3400F583E4F0800EC3EA98EB9940A5
:101BB800E0C3EC98ED9950D9EE2434F8EF3400F9ED
:101BC800E8FCE9FDEE2435F582EF3400F583E0F812
:101BD800EE2437F582EF3400F583E0F50AE5088551
:101BE8000AF0A4F508AAF0850AF0E509A42AF5097F
:101BF800E82508F8E43509F97A257B001215DBEAAF
:101C08008C828D83F05407F87401B800028004C3F5
:101C180033D8FCC0E0E0131313541FF8EE28F8EF94
:101C28003400F9E8245DF582E93400F583D0E0F862
:101C3800E0586008EE2434F582EF801EEE2436F575
:101C480082EF3400F583E0F5F0EA84A8F0EE28F896
:101C5800EF3400F9E82438F582E93400F583E0F937
:101C6800121FE4021AF50000851A87851BC622C0D8
:101C7800E0C0D0E8C0E0E9C0E0EAC0E0EBC0E0ECDA
:101C8800C0E0EDC0E0C008C009C00AC00BC082C0F7
:101C980083C0F0759B00906182E0A2E64003021DBC
:101CA80055E591A2E64003021D557591BF90049930
:101CB800E064057008120BCA120BD68003120BD011
:101CC800751A00120C30E990049AF07900120C127F
:101CD8001209C07A017B00900498E0F9121158901B
:101CE8007803E064426003021D9E900817E014F038
:101CF8006003021D9EC2AF121D0200781DD0E0F6DF
:101D080018D0E0F6E59F5407F970059086358003F2
:101D1800908641780812151EE9C4C0E0781CE65583
:101D280008F50808E65509F509740B7808121644F1
:101D3800D0E02508F8906270E0A2E740F8E8C333E5
:101D4800906272F0906270E0D2E0F08049E0A2E523
:101D58005024E591A2E5501E7591DF900499E06446
:101D68000D70139004BBE004F064287002E4F07A6C
:101D780000E0F9120CC0906181E0A2E35009E5E9A6
:101D8800A2E3500375E9F7A3E0A2E75009E591A2A1
:101D9800E7500375917FD0F0D083D082D00BD00A62
:101DA800D009D008D0E0FDD0E0FCD0E0FBD0E0FACC
:101DB800D0E0F9D0E0F8D0D0D0E032C0E0C0D0C058
:101DC80082C083906183E0A2E05009E5BFA2E050A1
:101DD8000375BFFEE0A2E15009E5BFA2E15003751B
:101DE800BFFDE0A2E25009E5BFA2E2500375BFFBC8
:101DF800E0A2E35009E5BFA2E3500375BFF7E0A2F4
:101E0800E45009E5BFA2E4500375BFEFE0A2E55036
:101E180009E5BFA2E5500375BFDFE0A2E65009E57A
:101E2800BFA2E6500375BFBFD083D0828088C0E0D0
:101E3800C0D0E8C0E0E9C0E0EAC0E0EBC0E0ECC038
:101E4800E0EDC0E0C0F0E5A7A2E6500FE5A1A2E6EC
:101E5800500953A7BF75A1BF121E9BE5A7A2E55065
:101E68000CE5A1A2E5500653A7DF75A1DFE5A7A2FF
:101E7800E15009E5A1A2E1500375A1FDE5A7A2E2A1
:101E8800500CE5A1A2E2500653A7FB75A1FBD0F0C8
:101E9800021DAC74F8121760751A01900499E06479
:101EA800067015120B828A828B83A3A3A3A3A3A314
:101EB800E0FAA3E0FB120BB8A2AFE433FED2AF9076
:101EC800049FE0640170187A207B00900498E0F980
:101ED80012126C7A207B00900498E0F912115E903F
:101EE8006182E0D2E6F0900816E0602185C61B808A
:101EF8001690049EE064017008E5C654F84405F5A0
:101F0800C653BEFC121C707401651A60E4EEA2E0B0
:101F180092AF7F0102180C74F11217608A088B09BE
:101F28008C0A8D0B740F1216D0780C12151E908522
:101F3800F578081214E59085F5780C1214E5780800
:101F4800790C12130B50157808790C1214AA908684
:101F58006D780812132B401579018013780C7908D5
:101F68001214AA90866D780C12132B40EB79007F1F
:101F78000802180C74ED1217608A088B098C0A8DF8
:101F88000B74131216D0780C12151E9085F578086C
:101F98001214E59085F5780C1214E5780C7908127E
:101FA800130B40117808790C1214AAAA08AB09ACD3
:101FB8000AAD0B802275100075110075120075139B
:101FC800017810790C1214AA78107908121471AAE1
:101FD80010AB11AC12AD137F0C02180CC082C08379
:101FE800E9906000F0D083D08222C0E074F2121829
:101FF8004CA2AFE433FED2AFC2C0E5D1A2E4500692
:1020080053D1EF1210CEEEA2E092AF7F010218ABCF
:10201800C0E074F212184CA2AFE433FED2AFE589E7
:10202800A2E1500312101A758900C2C5EEA2E0920F
:10203800AF7F010218ABC0E074F212184CA2AFE4F3
:1020480033FED2AFE58BA2E0500312101A758B0055
:10205800C2E880D8C0E0C0D0E8C0E0A8A8D2AFC22B
:10206800C7E8A2E792AFD0E0F8D0D0D0E032C0E025
:10207800C0D0E8C0E0E9C0E0EAC0E0EBC0E0C08260
:10208800C083A2AFE433F9D2AF901044E0F8A3E0E4
:10209800687008539AFBA374018022C2E990104427
:1020A800E0F8740128F074C428F582E4340FF5834D
:1020B800E0F5C1901044E0C394804002E4F0E9A246
:1020C800E092AFD083D082D0E0FBD0E0FAD0E0F944
:1020D800D0E0F8D0D0D0E032FFFFFFFFFFFFFFFFD6
:1020E800C082C0839061907404F0A37448F0A37414
:1020F80002F09061807440F09061BC7403F09061CC
:10210800877419F0906265741BF090619C740DF0EF
:1021180090619A7433F0A37455F09061A0743AF00A
:10212800900814E064017009C29190049D7467805E
:102138000590049D7461F09020E6E493906186F028
:102148009020E0E493F46027E493540FF8906185BD
:10215800E0686012E5C654804449F5C6E59E547FA0
:10216800644970F8E8F053C680E59E547F70FA79A8
:1021780005120CA2022545C082C083E5A8F853A821
:102188007E906181E4F0A3F0A3F0C2BA539AFEC234
:1021980089759B00C2C275E90075910075BF00750D
:1021A800A91175B905906181F0A374C0F0A3E4F09A
:1021B800D2BA439A0174805842A8022545C082C009
:1021C8008374F812166690049BE0F8A3E0F9E849D6
:1021D80070030222F390049BE05440602379088541
:1021E8001882851983AA82AB83120AC28518828550
:1021F8001983AA82AB831207AA90049BE054BFF00C
:10220800E054806010790C7A387B08120AC2900476
:102218009BE0547FF0E0A2E0503190619A7433F073
:10222800A37455F09061A0743AF0900814E064012A
:102238007009C29190049D7467800590049D746133
:10224800F01207B090049BE054FEF0E054026031B5
:1022580090619A743FF0A3745AF09061A0747FF073
:10226800900814E064017009D29190049D74718003
:102278000590049D746AF01207B090049BE054FD29
:10228800F0E0540460139020E4E493906186F01227
:1022980007B690049BE054FBF0E0540860139020CC
:1022A800E5E493906186F01207B690049BE054F73A
:1022B800F0E0541060139020E6E493906186F012E9
:1022C80007B690049BE054EFF0E05420600A120730
:1022D800B690049BE054DFF0A3E05401600D1209AE
:1022E800CC1207BC90049CE054FEF0740812167CD3
:1022F80002254574EC1216F474F4121666851882D9
:10230800851983AC82AD8375838675820D7404123A
:1023180015799020E493F46003022488907808E00B
:10232800C39402500302246874041216D0AC82AD20
:10233800837583857582BC74081215798518828522
:10234800198385821285831374041216D0AC82AD6A
:1023580083750EFF750FFF7FFF7E00750C48750DA6
:1023680078801574086E70030223FB74096E70037D
:102378000223FB740A6E607B850C82850D837808C6
:1023880012151E8C828D83A909E50AC9F888107474
:10239800187808121439E5104508F8C3E098A3E046
:1023A80099850C82850D83780812151E40188C8239
:1023B8008D8374187808121439E5104508F8E0C3BD
:1023C80098F8A3E0801C74187808121439E51045B1
:1023D80008FAE9FB8C828D83E0F8A3E0F9EAC39858
:1023E800F8EB99F9C3E8950EE9950F5006880E8920
:1023F8000FEEFF0EE50C2404F50CE50D3400F50D89
:10240800EEC39413500302236B74FF650E700474BB
:10241800FF650F60238F08740278081216537448FA
:102428002508F58274783509F583780812151E8514
:102438001282851383E508F0EC24020C0CED3400BD
:10244800FD851282851383A3858212858313740CFC
:102458001216D0E5826C7003E5836D600302235980
:10246800750801750900780812190774021216D048
:10247800AC82AD837A397B08120FF6740212167C8F
:10248800740C12167C7F0C0217C6C082C083906140
:10249800AE7468F0A3746AF090624574FBF0A3040C
:1024A800F053F4FD43FE029008147401F09061A00B
:1024B800E0643A90619A70237433F0A37455F090F5
:1024C80061A0743AF0740164017009C29190049D8E
:1024D8007467802890049D74618021743FF0A37410
:1024E8005AF09061A0747FF0740164017009D29170
:1024F80090049D7471800590049D746A8000F002B8
:102508002545C082C0839007F2E0640170159007EA
:10251800F8E064016009E0700AA3E06401700479DE
:102528000C8012900809E06401700890080FE064BC
:102538000160EC7900022545E0F9121FE4D083D050
:102548008202011FC082C0839007FC7425F09007A7
:10255800FA7401F0A3E4F07A01FB120C1E9007E86C
:10256800E02416F8A3E03400F98882898374F0F037
:10257800A37409F09007F9E0640170169007F8E079
:1025880070107901120C7E120C4E120C7879001220
:102598000C8A80A9C082C08374FA1216669007F16B
:1025A800E0640170081209D89007F1E4F075E1F1D0
:1025B8009007E8E02415F8A3E03400F988828983BD
:1025C8007401F09007F3E0640170769085D1C082C1
:1025D800851882851983AC82AD83758385D0827412
:1025E8000612157975D90D9007EAE0C4333354C043
:1025F8004403F5D978E8790788828983A3A3A3E0FF
:10260800F5D988828983A3A882A983E864EE700338
:10261800E9640770E3851882851983A882A98388ED
:10262800828983E0F5D9A3A882A98374061216D0FB
:10263800E582687003E5836970E575E19579018045
:10264800027900120C249011B1743AF0A3740BF0C3
:10265800A37440F0A3740BF0A3743AF0A3740BF0C6
:10266800A3743AF0A3740BF0A3740AF0A3740BF0EC
:10267800A3740AF0A3740BF0A37446F0A3740BF0D0
:102688009011BF740AF0A3740BF0A3740AF0A3743A
:102698000BF0A3740AF0A3740BF0A3740AF0A374EC
:1026A8000BF0A3740AF0A3740BF0A3740AF0A374DC
:1026B8000BF09007EAE0F97AEB7B07120C00900721
:1026C800FCE0F9121FE47901120C2A9085ED12152D
:1026D8003C120C4290860112153C120C0C79001227
:1026E8000C969007E8E02414F8A3E03400F98882F7
:1026F80089837416F09004997405F0040222F57425
:10270800F71216F48908A808E875F006A4C8AAF014
:102718002AF974C928FE740439FF900801E0F97A8F
:10272800027B08120C0090080FE0701A7900120C56
:10273800609007DBE0700B79007ADC7B07120C06EF
:102748008009790180F37901120C6075E1F175D97E
:1027580023900801E0C4333354C04405F5D978FF09
:10276800790788828983A3A3A3E0F5D9888289831E
:10277800A3A882A983E864057003E9640870E37577
:10278800D90075D90075D90075D90075D90075D9E2
:1027980000EEF8EFF9E82404FAE93400FBE8242213
:1027A800F582E93400F583E0F5D988828983A3A806
:1027B80082A983EA687002EB6970E2EEF8EFF9E843
:1027C80024031AE93400FBE82426F582E93400F5ED
:1027D80083E0F5D988828983A3A882A983EA6870EF
:1027E80002EB6970E2EE242BF582EF3400F583E00A
:1027F800F5D9EEF8EFF9E824021AE93400FBE824E9
:102808002CF582E93400F583E0F5D988828983A321
:10281800A882A983EA687002EB6970E2EEF8EFF922
:10282800E8242EF582E93400F583E0F5D988828919
:1028380083A3A882A983EA687002EB6970E2EEF8C4
:10284800EFF9E82430F582E93400F583E0F5D9881A
:10285800828983A3A882A983EA687002EB6970E27F
:10286800EEF8EFF9E82432F582E93400F583E0F573
:10287800D988828983A3A882A983EA687002EB6950
:1028880070E2EEF8EFF9E824050A0A0AE93400FBD9
:10289800E8245DF582E93400F583E0F5D98882897A
:1028A80083A3A882A983EA687002EB6970E2EE2428
:1028B80037F582EF3400F583E0541FF8EE242AF54B
:1028C80082EF3400F583E0C43354E048F5D975E16C
:1028D800959011B17410F0A3740BF0A37416F0A3C3
:1028E800740BF0A3740AF0A3740BF0A3740AF0A39A
:1028F800740BF0A3740AF0A3740BF0A3740AF0A38A
:10290800740BF0A3741CF0A3740BF09011BF740A3D
:10291800F0A3740BF0A3740AF0A3740BF0A3740A69
:10292800F0A3740BF0A3740AF0A3740BF0A3740A59
:10293800F0A3740BF0A3740AF0A3740BF090080EC4
:10294800E0F9121FE49085ED12153C120C429086B6
:102958000112153C120C0C90600DE4F07901120C78
:10296800969004997406F0022F6274EC1216F49093
:1029780007FFE0F8A3E0F5838882A3A37810121577
:102988001E900810E0FAF875F006A4C8ACF02CF90F
:1029980074F728F582740439F583E0FEA3E0FFEEAE
:1029A800C333FEEF33FF8E0CF50D750E00750F0067
:1029B80085100885110985120A85130B90861978E8
:1029C80008121484780812190385100885110985DE
:1029D800120A85130B7808790C1214717810790C87
:1029E8001213CAE4F50EF50F7808790C1214AA8AA6
:1029F8000C750D007403780C1216537808790C12B4
:102A080014719085F578081214E5AA08AB09AC0A88
:102A1800AD0B121F7C740412167C8A088B09A80857
:102A2800A909C3EE98EF995006E82EF8E93FF9E8AE
:102A380090600EF0E9A3F0EEA3F0EFA3F090600D24
:102A480074C1F002248DC082C0839007E8E0F8A327
:102A5800E0F5838882A3A3A3A3A3A3E4F0A3F09043
:102A680007FC022540C082C0839007FFE0F8A3E07E
:102A7800F5838882A3A3A3A3A3A3E4F0A3F09008FB
:102A88000E02254002011F74F61216F49061D0E080
:102A9800F87480C398FCEA2483F582EB3400F5834C
:102AA800E06004780480027800E8240EF8ECC3980B
:102AB8005003022C107E0C900818E4F0EA2477F5F5
:102AC80082EB3400F583E0900819F0EA2478FCEBF7
:102AD8003400FD781A79087F028C828D83E0888221
:102AE8008983F08C828D83A3AC82AD8388828983AD
:102AF800A3A882A9831FEF70E0EA247AFCEB3400D4
:102B0800FD7F028C828D83E088828983F08C828DA0
:102B180083A3AC82AD8388828983A3A882A9831FFB
:102B2800EF70E0EA247CFCEB3400FD7F028C828DA0
:102B380083E088828983F08C828D83A3AC82AD8305
:102B480088828983A3A882A9831FEF70E0EA247E84
:102B5800FCEB3400FD7F028C828D83E088828983C0
:102B6800F08C828D83A3AC82AD8388828983A3A8ED
:102B780082A9831FEF70E0EA2475FCEB3400FD8A1C
:102B8800828B83A3A3A3A3A3E0F508A3E0F5098C94
:102B9800828D83E02508F0A3E03509F07F028C825E
:102BA8008D83E088828983F08C828D83A3AC82AD8B
:102BB8008388828983A3A882A9831FEF70E0EA240F
:102BC80083F582EB3400F583E06019750818750900
:102BD8000878081219077C0C7903120AFE7402128D
:102BE800167C7E1074012EF5D975D9037582187577
:102BF8008308EEFFE0F5D9A31FEF70F875E195792A
:102C080004120C4879018002790002314474F612EA
:102C180016F49061D0E0F87480C398FCEA2483F538
:102C280082EB3400F583E06004780480027800E8E1
:102C3800240AF8ECC3985003022D0575080890087B
:102C4800187401F07CE27D07781979087E058C827A
:102C58008D83E088828983F08C828D83A3AC82ADDA
:102C68008388828983A3A882A9831EEE70E0EA2460
:102C780081FCEB3400FD8A828B83A3A3A3A3A3E08A
:102C8800FEA3E0FF8C828D83E02EF0A3E03FF07E70
:102C9800028C828D83E088828983F08C828D83A365
:102CA800AC82AD8388828983A3A882A9831EEE7033
:102CB800E0EA2483F582EB3400F583E0601A7508B6
:102CC8001875090878081219077C087903120AFE92
:102CD800740212167C75080C74012508F5D975D98B
:102CE80003758218758308AE08E0F5D9A31EEE7047
:102CF800F875E1957904120C48790180027900028F
:102D0800314474F71216F4EAFEEBFF9061D0E060EC
:102D180003022E0175D91875D90375D903EEF8EF9A
:102D2800F9E82408FAE93400FBE8249CF582E93440
:102D380000F583E0F5D988828983A3A882A983EA6C
:102D4800687002EB6970E2EEF8EFF9E82402FAE93C
:102D58003400FBE824A4F582E93400F583E0F5D9D2
:102D680088828983A3A882A983EA687002EB6970C4
:102D7800E2EE2494F582EF3400F583E5822408F826
:102D8800E5833400F9E0F5D9A3E865827003E965C5
:102D98008370F2EE2488F582EF3400F583E582240F
:102DA80004F8E5833400F9E0F5D9A3E865827003F7
:102DB800E9658370F275E1957908EE2494FAEF34A9
:102DC80000FB120AB67904EE2488FAEF3400FB12ED
:102DD8000AB67904120C48EE2470F582EF3400F537
:102DE80083E0F8A3E0F9EE2472F582EF3400F5836E
:102DF800E8F0A3E9F0790180027900022F6274F605
:102E08001216F4EAFEEBFF9008187406F07508181D
:102E180075090878081219077C017903120AFE74EB
:102E28000212167C75D90675D90375821875830840
:102E3800E0F5D9A3E582641D7004E583640870F0A9
:102E480075E195900499E06408701EEE2470F5828F
:102E5800EF3400F583E0F8A3E0F9EE2472F582EF91
:102E68003400F583E8F0A3E9F0790102314474F6FF
:102E78001216F4EAFEEBFF9061D0E0705E9008183D
:102E8800740AF075081875090878081219077C0182
:102E98007903120AFE740212167C75D90675D903D5
:102EA800758218758308E0F5D9A3E582641D70045E
:102EB800E583640870F075E195EE2470F582EF34CF
:102EC80000F583E0F8A3E0F9EE2472F582EF340010
:102ED800F583E8F0A3E9F079018002790002314432
:102EE80074F61216F4EAFEEBFF9061D0E070667893
:102EF80001900818740BF0900499E0640770197534
:102F0800081875090878081219077C017903120A4C
:102F1800FE740212167C7805740128F5D975D90358
:102F2800758218758308E8FAE0F5D9A31AEA70F8EB
:102F380075E195EE2470F582EF3400F583E0F8A38F
:102F4800E0F9EE2472F582EF3400F583E8F0A3E9A6
:102F5800F07901800279000231447F010217C674BA
:102F6800F61216F4EAFEEBFF9061D0E0F87480C325
:102F780098FAEE2483F582EF3400F583E060047854
:102F88000480027800E8240BF8EAC3985003023062
:102F98003D7D099008187408F0EE24E5F8EF340038
:102FA800F97A197B087C0888828983E08A828B8376
:102FB800F088828983A3A882A9838A828B83A3AAA3
:102FC80082AB831CEC70E0EE2483F582EF3400F5CD
:102FD80083E0601D75081875090878081219077CC0
:102FE800097903EEFAEFFB120AFE740212167C7DD1
:102FF8000D74012DF5D975D9037582187583088D5F
:1030080008E0F5D9A31508E50870F675E195790487
:10301800120C48EE2470F582EF3400F583E0F8A333
:10302800E0F9EE2472F582EF3400F583E8F0A3E9C5
:10303800F079018002790002314474F61216F4EA3C
:10304800FEEBFF9061D0E0F87480C398FAEE248319
:10305800F582EF3400F583E060047804800278009C
:10306800E82408F8EAC39850030231427D06900824
:1030780018740CF09004B6E0900819F07AB77B0445
:10308800781A79087C028A828B83E088828983F0A7
:103098008A828B83A3AA82AB8388828983A3A8822E
:1030A800A9831CEC70E07AB97B047C028A828B834A
:1030B800E088828983F08A828B83A3AA82AB838883
:1030C800828983A3A882A9831CEC70E0EE2483F58F
:1030D80082EF3400F583E0601D75081875090878DB
:1030E800081219077C067903EEFAEFFB120AFE7440
:1030F8000212167C7D0A74012DF5D975D9037582E3
:10310800187583088D08E0F5D9A31508E50870F649
:1031180075E1957904120C48EE2470F582EF3400BD
:10312800F583E0F8A3E0F9EE2472F582EF3400F5B8
:1031380083E8F0A3E9F07901800279007F020217A1
:10314800C674F61216F4EAFEEBFF9061D0E0F8744C
:1031580080C398FAEE2483F582EF3400F583E060AB
:1031680004780480027800E82404F8EAC39850033D
:103178000232237802900818E8F0EE24F7F582EF7F
:103188003400F583E0900819F0EE2483F582EF34DB
:1031980000F583E0601B750818750908780812198E
:1031A800077C027903EEFA120AFE740212167C7882
:1031B80006740128F5D975D90375821875830888AE
:1031C80008E0F5D9A31508E50870F675E195EE2431
:1031D80074F582EF3400F583E4F0EE2480F582EF95
:1031E8003400F583E4F0EE241DF582EF3400F58316
:1031F800E4F0A3F07904120C48EE240DF582EF34C4
:1032080000F583E0F8A3E0F9EE2472F582EF3400CC
:10321800F583E8F0A3E9F0790180027900023144EE
:1032280074F61216F49061D0E0F87480C398FCEA42
:103238002483F582EB3400F583E06004780480028F
:103248007800E82404F8ECC398405B7902900818E9
:103258007407F0EA24F8F582EB3400F583E090086F
:1032680019F0EA2483F582EB3400F583E0601875E1
:10327800081875090878081219077C0209120AFE4D
:10328800740212167C7906740129F5D975D903756B
:103298008218758308E9F8E0F5D9A318E870F8757D
:1032A800E19579018002790002314474F51216F42F
:1032B800E9FCA2AFE433F50AC2AF7D0080010DEA54
:1032C800246FF582EB3400F583E0F8EDC398501ACB
:1032D8008D08EA2508F8EB3400F9E8246BF582E953
:1032E8003400F583E06C70D68024EA246FF8EB3460
:1032F80000F9E0FEEA2EFAEB3400FBEA246BF582D3
:10330800EB3400F583ECF088828983E004F0E50A69
:10331800A2E092AF7F030217C674F61216F4A2AFAA
:10332800E433FDC2AFEA246FF582EB3400F583E0A5
:1033380014F07C0060368C08EA2508F8EB3400F9B4
:10334800E8246CF582E93400F583E0C0E0E8246BFA
:10335800F582E93400F583D0E0F00CEA246FF582B9
:10336800EB3400F583E0F8ECC39840CAEA246EF524
:1033780082EB3400F58374FFF0EA246AF582EB34BB
:1033880000F583E4F0EDA2E092AF023144C082C0C0
:1033980083E5A8F8C2AFEA246BF582EB3400F58325
:1033A800E9F0EA246AF582EB3400F583E4F0E8A258
:1033B800E792AF02254574F31216F4EAFEEBFFEC30
:1033C800FAEDFB8A828B83A3A3A3A3E0541FF0EE3C
:1033D8002436F582EF3400F583E4F0F50AEEFCEFCD
:1033E800FD8A828B83E0C0E0EC245DF582ED340039
:1033F800F583D0E0F0750B00E50A33333354F8F564
:103408000C8A828B83E0F508750900E50B780812B1
:103418001634E508A2E0502FEE2436F8EF3400F910
:1034280088828983E0F508EE2508F508EF3400F571
:1034380009E5082438F582E5093400F583E50CF040
:1034480088828983E004F0050B050CE50BC394081A
:1034580040AF050A8A828B83A3AA82AB838C828DB4
:1034680083A3AC82AD83E50AC3940550030233E914
:103478007F050217C674F71216F49004C5E06403BA
:1034880070077A007B00022F627B0078C579048878
:10349800828983A3A3A3A3A3A3E06003023777EBE6
:1034A800F875F006A4C8AAF02AF974C928F87404B3
:1034B80039F988828983A3A37401F088828983A358
:1034C800A3A3E4F0EB88828983A3A3A3A3F0E82451
:1034D80062F582E93400F5837401F0E82465F58229
:1034E800E93400F583E4F0A3F0E82468F582E934D0
:1034F80000F5837401F088828983A3A3A3A3A3E4BE
:10350800F0A3F088828983A3A3A3A3A3A3A3F0A312
:10351800F0E8240FF582E93400F5837401F0E8241B
:1035280035F582E93400F583E4F090862112153CE4
:10353800E82418F582E93400F583121548E8241CBC
:10354800F582E93400F583E4F0E8241DF582E934D6
:1035580000F583E4F0A3F0E82480F582E93400F56F
:1035680083E4F0E82474F582E93400F583E4F0E8B4
:103578002469F582E93400F5837480F0E8246AF55B
:1035880082E93400F583E4F0E8246FF582E9340039
:10359800F583E4F0E82467F582E93400F583E4F084
:1035A800E824EDF582E93400F583E4F0E824EEF54B
:1035B80082E93400F583E4F0E824EFF582E9340089
:1035C800F583E4F0E824F0F582E93400F583E4F0CB
:1035D800E824F1F582E93400F583E4F0A3F0E82467
:1035E800F3F582E93400F583E4F0A3F0E824F6F576
:1035F80082E93400F583E4F0E82483F582E93400B5
:10360800F583E4F0E824D3F582E93400F583E4F0A7
:10361800E824D4F582E93400F583E4F09086211299
:10362800153CE824D5F582E93400F5831215489055
:10363800862112153CE824D9F582E93400F5831275
:103648001548E824DFF582E93400F583E4F0E8243E
:10365800E1F582E93400F583E4F0E824DDF582E958
:103668003400F583E4F0E824E2F582E93400F583D8
:10367800E4F0E824E3F582E93400F583E4F0E82493
:10368800F9F582E93400F583E4F0A3F0E824FBF5CA
:1036980082E93400F583E4F0A3F0E824FDF582E93B
:1036A8003400F583E4F0A3F0E824FFF582E9340060
:1036B800F583E4F0A3F0E8FAE9FBEA2404FCEB3430
:1036C80000FDEA246BF582EB3400F58374FFF08A81
:1036D800828B83A3AA82AB83EC6A7002ED6B70E2E3
:1036E800E8FAE9FB7CE27D078C828D83E0C0E0EAA2
:1036F800245DF582EB3400F583D0E0F08C828D8375
:10370800A3AC82AD838A828B83A3AA82AB83EC6449
:10371800E77003ED640770D0E8FAE9FB7CAC7D0440
:103728008C828D83A3E0C0E0EA24E5F582EB3400C7
:10373800F583D0E0F08C828D83A3AC82AD838A823E
:103748008B83A3AA82AB83EC64B47003ED6404702A
:10375800CF9004C5E004F06401700D88828983A3CA
:10376800A3A3A3E09004C7F0E8FAE9FB02348E0BA8
:10377800E82406F8E93401F9EBC394034003023462
:103788008A023497C082C0838A828B83A3A3A3E072
:10379800600F8A828B83A3A3A3E4F09004C6E0148D
:1037A800F09004C5E014F070069004C774FFF08A26
:1037B800828B83A3A3E4F09007E7E0700D9004C622
:1037C800E0640170057900120C12022545C082C020
:1037D8008378C5790488828983A3A3A3A3A3A3A319
:1037E800E4F088828983A3A3A3A3A3A3F0E8240613
:1037F800F8E93401F9E864D77003E9640770D690F2
:1038080004C5E4F0A3F0A374FFF075E1F1022545C7
:1038180074F31216F4750800750900750C00750A22
:10382800C9750B04AE0AAF0B8E828F83A3A3A3E0E6
:10383800603FE5084509700AEEF8EFF9880889093C
:10384800802F850882850983E0F8A3E0F5838882C4
:10385800A3A312191A8E828F83E0F8A3E0F5838858
:1038680082A3A312153C121F1F740412167CE96070
:10387800C7050CEE2406F50AEF3401F50BE50CC379
:10388800940340A0850882850983A3A3A3A3E0F934
:1038980002347874F61216F478FF79FF7508007E02
:1038A800C97F04EEFCEFFD8C828D83A3A3A3E060A7
:1038B8006474FF68700374FF697025EC2474F582E2
:1038C800ED3400F583E064017011EC247AF582EDA3
:1038D8003400F583E0F8A3E0F9803AEC242E80ED7B
:1038E800EC2474F582ED3400F583E064017014EC87
:1038F800247AF582ED3400F583C3E098A3E099506B
:103908001480C7EC242EF582ED3400F583C3E098CB
:10391800A3E09940C60508EE2406FEEF3401FFE552
:1039280008C3940350030238ABC3EA98EB994004E8
:10393800E8FAE9FB02314474F61216F4EAFEEBFFEA
:103948008E828F83A3A3A3E0600F8E828F83A3A3AD
:10395800A3E4F09004C6E014F09004C5E014F070FD
:10396800069004C774FFF08E828F83A3A3E4F090BF
:1039780007E7E0700D9004C6E06401700579001255
:103988000C12EE2465F582EF3400F583E0F8A3E02D
:10399800F9E8496029EE2465F8EF3400F9880889C8
:1039A800098882F583E0FCA3E0FD9004C7E0FA7B78
:1039B800001207E0850882850983E4F0A3F0EEFA97
:1039C800EFFB120B7C02314474F71216F4EAFEEB9B
:1039D800FF8E828F83A3A3A3A3E0FA7B001208289B
:1039E800EEFAEFFB120A74120B5E022F62C082C05D
:1039F800837C007AC97B04EAF8EBF988828983A37F
:103A0800A3A3E0601EE8246FF582E93400F583E0A3
:103A18006011E8246BF582E93400F583E0700479DD
:103A28000180110CEA2406FAEB3401FBECC3940381
:103A380040C57900022545C082C08378AC790488E6
:103A4800828983A3E4F088828983A3A882A983E872
:103A580064B47003E9640470E69004AD740102254F
:103A680006C082C08374FC12166690862112153C2B
:103A7800851882851983121548120ABCE9851882AF
:103A8800851983F0120ABC74011216D0E9F0120AE3
:103A9800BC74021216D0E9F08518828519831215B4
:103AA8003C74040222F574F61216F4EAFEEBFFECFD
:103AB8002403F8ED3400F988088909EC2407F8EDA7
:103AC8003400F9E8FCE9FD8C828D83E0F8A3E0F985
:103AD800850882850983E0FAA3E0FB1215DBEE2452
:103AE8000DF582EF3400F583E8F0A3E9F08C828DC0
:103AF80083E0F8A3E0F9850882850983E0FAA3E06A
:103B0800FB1215DB8B09EA45096013EE240DF582DB
:103B1800EF3400F583E02401F0A3E03400F0023133
:103B28004474F61216F4EAFEEBFFEE242EF582EF4B
:103B38003400F583E0FCA3E0FD780079FAECFAEDB7
:103B4800FB1215DBEE2470F582EF3400F583E8F004
:103B5800A3E9F0780079FAECFAEDFB1215DB8B0992
:103B6800EA45096013EE2470F582EF3400F583E02E
:103B78002401F0A3E03400F002314474F01216F48A
:103B8800EAFEEBFF74101216D0780812151E120BFD
:103B9800E28A0C8B0D8C0E8D0F908631780C1214E6
:103BA800849085F5780C1214E5780C1219038E822E
:103BB8008F83E0F8A3E0F5838882A3A312153C1253
:103BC8001F1F740412167CE96003023CD08E828F9A
:103BD80083E02402F8A3E03400F9E8FAE9FB8A82DA
:103BE8008B8378081214979085F5780812151E8A29
:103BF800828B8378081214F8EE240BF582EF3400D8
:103C0800F583C082C0838E828F83A3A3A3A3A3E07E
:103C18002401F8A3E03400F9D083D082E06870036F
:103C2800A3E06970057901023CD28E828F83A3A339
:103C3800A3A3A3A3A3E02401F0A3E03400F0EE249F
:103C480074F582EF3400F583E064017036EE247574
:103C5800F582EF3400F583E0F8A3E0F98E828F83D4
:103C6800A3A3A3A3A3A3A3E0687003A3E0697013AD
:103C7800EE2475F582EF3400F583E02401F0A3E02B
:103C88003400F0EE2480F582EF3400F583E064011F
:103C98007036EE2481F582EF3400F583E0F8A3E076
:103CA800F98E828F83A3A3A3A3A3A3A3E0687003C1
:103CB800A3E0697013EE2481F582EF3400F583E008
:103CC8002401F0A3E03400F079007F080217C674DD
:103CD800F71216F49004C7E0F875F006A4C8AAF025
:103CE8002AF974C928FE740439FF8028EE2465F87F
:103CF800EF3400F988828983E0FCA3E0FD8882899B
:103D080083E4F0A3F08E828F83A3A3A3A3E0FA7BBE
:103D1800001207E0EE2465F582EF3400F583E0F841
:103D2800A3E0F9E849604FEE2464F582EF3400F52A
:103D380083E0F508780812190BEE2463F582EF3456
:103D480000F583E0F9EE2465F582EF3400F583E0B1
:103D5800FCA3E0FDEEFAEFFB120AAA740112167C2E
:103D6800E96089EE2465F582EF3400F583E0F8A375
:103D7800E0F9E84970137C007D008E828F83A3A34D
:103D8800A3A3E0FA7B001207E0022F6274F2121676
:103D9800F4EAFEEBFF890A740E1216D0E0FAEE245C
:103DA80062F582EF3400F583E064016003023E604F
:103DB8009061D0E0F87480C398F50CEE2483F58206
:103DC800EF3400F583E06004780480027800890805
:103DD800E928F8E43400F9E824020808E93400F98D
:103DE800E50C98E499A2D265D0334068EA7005756D
:103DF8000B028003750B01E0603975090078081221
:103E080019077A187B08120AE0740212167C7508E2
:103E1800187509087808121907AC0AA90BEEFAEF09
:103E2800FB120AFE740212167C7404250AF50A7C39
:103E3800187D087401250AF5D9850BD9E50A600DA6
:103E48008C828D83F8E0F5D9A318E870F875E195B0
:103E5800790080067907800279FF7F060217C6C0BD
:103E680082C083E960208C828D83E08A828B83F014
:103E78008C828D83A3AC82AD838A828B83A3AA8232
:103E8800AB8319E970E0ECFAEDFB022545C082C06E
:103E9800837869790888828983A3A3A3A3A3A3E469
:103EA800F088828983A3A3A3A3A374FFF0E824184E
:103EB800F8E93400F9E864C97003E9640870D69039
:103EC800086B74FFF090086AE4F0900869F09008B5
:103ED8006CF0A3F00255BD74EC1216F490086CE077
:103EE800F508A3E0F509E508450970061209C002BE
:103EF8004B8C850882850983E014601814601524AA
:103F0800FE601124C4700302464E24C070030246AA
:103F18004E024B8CE0F9120B708A0A8B0BAE0AAF7B
:103F28000B9004C6E070030242CC120A68E9F875E7
:103F3800F006A4C8AAF02AF974C928F50C74043943
:103F4800F50D850C82F583E0F50AA3E0F50BAC0AC4
:103F5800FDEEFAEFFB120B6AE9F50E7402650E70BE
:103F68000302428B8E828F83E024FE600A24FE7057
:103F780003024183024B8CEE65087003EF6509600C
:103F8800211209DE9007F9E0640170169007F8E045
:103F980070107901120C7E120C4E120C78790012F6
:103FA8000C84E50E6021E5082415F582E509340046
:103FB800F583E060129007F4E0F8A3E0F9A3E06865
:103FC8007003A3E0697026120BE28A0C8B0D8C0E2D
:103FD8008D0F908659780C1214849085F5780C1200
:103FE80014E58E828F83A3A3780C12152DE508247F
:103FF80015F582E5093400F583E0640160030240A9
:10400800A9850A82850B83A3A3780C12151E9086B6
:1040180065780C121484780C1219038E828F83A38E
:10402800A3C082C0839007F6E0F508A3E085080CDA
:10403800F50DE4F50EF50FD083D082780C121484B8
:10404800AA0CAB0DAC0EAD0F121F1F740412167C18
:10405800E9703C8E828F83A3A3C082C0839007F649
:10406800E0F508A3E0F509E4F50AF50BD083D08262
:1040780078081214849085F578081214E5EE240E59
:10408800F582EF3400F583780812152D02417B85FF
:104098000A82850B83A3A3780812151E9086658073
:1040A800CFEE240EF582EF3400F58312191A8E82B2
:1040B8008F83A3A312153C121F1F740412167CE9E8
:1040C8006401600302417B850A82850B83A3A37880
:1040D8000C12151E908665780C121484780C12192F
:1040E800038E828F83A3A3C082C0839007F6E0F576
:1040F80008A3E085080CF50DE4F50EF50FD083D084
:1041080082780C121484AA0CAB0DAC0EAD0F121FE2
:104118001F740412167CE9701F8E828F83A3A3C0BC
:1041280082C0839007F6E0F508A3E0F509E4F50AF4
:10413800F50BD083D0828010850A82850B83A3A3D8
:10414800780812151E90866578081214849085F5F3
:1041580078081214E5EE240EF582EF3400F5837822
:104168000812152D9007FCE064277004742580025E
:10417800E004F090086B7402024B84EE650870034B
:10418800EF65096031900810E0F91209E4850882AA
:10419800850983E06402701E9007F9E064017016D7
:1041A8009007F8E070107900120C7E120C4E120C79
:1041B800787901120C84E50E601290080AE0F8A3E1
:1041C800E0F9A3E0687003A3E0697026120BE28AA5
:1041D8000C8B0D8C0E8D0F908659780C12148490D0
:1041E80085F5780C1214E58E828F83A3A3780C12C0
:1041F800152D850A82850B83A3A3780C12151E90B2
:104208008665780C121484780C1219038E828F83B9
:10421800A3A3C082C08390080CE0F508A3E085083A
:104228000CF50DE4F50EF50FD083D082780C12143E
:1042380084AA0CAB0DAC0EAD0F121F1F740412161E
:104248007CE9701F8E828F83A3A3C082C0839008ED
:104258000CE0F508A3E0F509E4F50AF50BD083D0E6
:10426800828010850A82850B83A3A3780812151E05
:1042780090866578081214849085F578081214E5FC
:10428800024B6D850882850983E0640270139007EC
:10429800F9E06401700B9007F8E070057900120CE2
:1042A8007EE50C2404FEE50D3400FF8E828F83E04A
:1042B800F9120BA68E828F83E09004C7F0AA0AAB8E
:1042C8000B024B89EE65087003EF65098E828F83B8
:1042D80060030244B0E024FE600A24FE7003024436
:1042E8000B024B85EE2415F582EF3400F583E06070
:1042F800419007F4E0F8A3E0F9A3E0687003A3E0B5
:1043080069602F120BE28A088B098C0A8D0B908644
:104318001D780812148478081219038E828F83A3DB
:10432800A312153C121F1F740412167CE9600302C5
:104338004B85120BE28A088B098C0A8D0B908659E3
:1043480078081214849085F578081214E58E828F07
:1043580083A3A3780812152DEE2415F582EF3400F7
:10436800F583E0640170348E828F83A3A3C082C07A
:10437800839007F6E0F508A3E0F509E4F50AF50BE4
:10438800D083D0827808121484EE240EF582EF349C
:1043980000F583780812152D024B85EE240EF58260
:1043A800EF3400F58312191A8E828F83A3A3121596
:1043B8003C121F1F740412167CE964016003024B4F
:1043C800858E828F83A3A3C082C0839007F6E0F511
:1043D80008A3E0F509E4F50AF50BD083D082780844
:1043E800121484EE240EF582EF3400F58378081257
:1043F800152D9007FCE0642770057425024B84E0B6
:104408000480F990080AE0F8A3E0F9A3E0687003D3
:10441800A3E069602C120BE28A088B098C0A8D0BC9
:1044280090861D780812148478081219038E828FDA
:1044380083A3A312153C121F1F740412167CE97083
:1044480064EE2402F508EF3400F509120BE28A0C39
:104458008B0D8C0E8D0F908659780C1214849085D4
:10446800F5780C1214E5850882850983780C1215F5
:104478002D850882850983C082C08390080CE0F5E9
:1044880008A3E0F509E4F50AF50BD083D082780893
:10449800121484EE240EF582EF3400F583780812A6
:1044A800152D1209EA024B85E024FE600A24FE70ED
:1044B80003024576024B8C1209DE9007F9E064018D
:1044C80070169007F8E070107901120C7E120C4EED
:1044D800120C787900120C849007F4E0F8A3E0F944
:1044E800A3E0687003A3E069602F120BE28A088BCF
:1044F800098C0A8D0B90861D78081214847808128E
:1045080019038E828F83A3A312153C121F1F7404F4
:1045180012167CE9600302417BEE2402F508EF34B1
:1045280000F509120BE28A0C8B0D8C0E8D0F90860C
:1045380059780C1214849085F5780C1214E58508C6
:1045480082850983780C12152D850882850983C018
:1045580082C0839007F6E0F508A3E0F509E4F50AC0
:10456800F50BD083D0827808121484024085900815
:1045780010E0F91209E4850882850983E064027075
:104588001E9007F9E0640170169007F8E070107942
:1045980000120C7E120C4E120C787901120C8490C9
:1045A800080AE0F8A3E0F9A3E0687003A3E06960F3
:1045B8002C120BE28A088B098C0A8D0B90861D78C9
:1045C8000812148478081219038E828F83A3A31209
:1045D800153C121F1F740412167CE97066EE240243
:1045E800F8EF3400F988088909120BE28A0C8B0D60
:1045F8008C0E8D0F908659780C1214849085F5785E
:104608000C1214E5850882850983780C12152D850E
:104618000882850983C082C08390080CE0F508A34E
:10462800E0F509E4F50AF50BD083D0827808121476
:1046380084EE240EF582EF3400F583780812152DE8
:104648001209EA024B7F9004C6E070030249E412A3
:104658000A68E9F875F006A4C8AAF02AF974C92806
:10466800F510740439F511851082F583E0F508A377
:10467800E0F5099004C7E0F875F006A4C8AAF02A86
:10468800F974C928F50C740439F50D90086AE054DA
:1046980007700302490DA3E0F9120B708A0A8B0B0D
:1046A800AE0AAF0BAC08AD09120B6AE9F50E74023D
:1046B800650E700302490D850C82850D83A3A3A3A3
:1046C800A3E0F875F08AA4C8AAF02AF974CE28F5F0
:1046D8000A740839F50BAA0AFB120B9AAA0AAB0B43
:1046E800120B9475128075130078121219077C004A
:1046F8007D60E50A2406FAE50B3401FB120AE07432
:104708000212167CA80AA90B906195E0C0E0E82483
:1047180086F582E93401F583D0E0F0906196E0C037
:10472800E0E82487F582E93401F583D0E0F0906170
:1047380097E0C0E0E82488F582E93401F583D0E009
:10474800F0906198E0C0E0E82489F582E93401F549
:1047580083D0E0F08E828F83E024FE600A24FE700E
:104768000302484802490D1209DE9007F9E0640186
:1047780070119007F8E0700B120C4E120C7879004B
:10478800120C84E50E60129007F4E0F8A3E0F9A398
:10479800E0687003A3E0697026120BE28A0C8B0DA7
:1047A8008C0E8D0F908659780C1214849085F578AC
:1047B8000C1214E58E828F83A3A3780C12152D8515
:1047C8000882850983A3A3780C12151E9086657844
:1047D8000C121484780C1219038E828F83A3A3C041
:1047E80082C0839007F6E0F50CA3E0F50DE4F50E22
:1047F800F50FD083D082780C121484AA0CAB0DACC0
:104808000EAD0F121F1F740412167CE9701F8E82E2
:104818008F83A3A3C082C0839007F6E0F508A3E0C6
:10482800F509E4F50AF50BD083D08280108508825B
:10483800850983A3A3780812151E9086650240781F
:10484800900810E0F91209E4E50E601290080AE0F9
:10485800F8A3E0F9A3E0687003A3E0697026120BDF
:10486800E28A0C8B0D8C0E8D0F908659780C1214E1
:10487800849085F5780C1214E58E828F83A3A37833
:104888000C12152D850882850983A3A3780C1215AF
:104898001E908665780C121484780C1219038E8287
:1048A8008F83A3A3C082C08390080CE0F50CA3E01B
:1048B800F50DE4F50EF50FD083D082780C12148430
:1048C800AA0CAB0DAC0EAD0F121F1F740412167C90
:1048D800E9701F8E828F83A3A3C082C08390080CC7
:1048E800E0F508A3E0F509E4F50AF50BD083D082DA
:1048F8008010850882850983A3A3780812151E9065
:10490800866502427BE510650C7004E511650D7043
:10491800030249DD850C82850D83A3A3A3E0700300
:104928000249C1850C82850D83A3A3A3A3E0F87572
:10493800F08AA4C8AAF02AF974CE28FE740839FFB0
:10494800EEFAEFFB120B9AEEFAEFFB120B94750AD4
:1049580080750B00780A1219077C007D60EE24062A
:10496800FAEF3401FB120AE0740212167C9061958A
:10497800E0C0E0EE2486F582EF3401F583D0E0F064
:10498800906196E0C0E0EE2487F582EF3401F5836C
:10499800D0E0F0906197E0C0E0EE2488F582EF3433
:1049A80001F583D0E0F0906198E0C0E0EE2489F54D
:1049B80082EF3401F583D0E0F0E5102404FEE51120
:1049C8003400FF8E828F83E0F9120BA68E828F83CC
:1049D800E09004C7F0AA08AB09024B8990086AE086
:1049E80054077003024B8CA3E0F9120B708A088BF2
:1049F80009AE08AF098E828F83E024FE600A24FE88
:104A08007003024AD3024B8C1209DE9007F9E06466
:104A18000170169007F8E070107901120C7E120CE4
:104A28004E120C787900120C849007F4E0F8A3E099
:104A3800F9A3E0687003A3E069602C120BE28A080E
:104A48008B098C0A8D0B90861D78081214847808BF
:104A58001219038E828F83A3A312153C121F1F7491
:104A68000412167CE97061EE2402F508EF3400F5B3
:104A780009120BE28A0C8B0D8C0E8D0F90865978DB
:104A88000C1214849085F5780C1214E5850882853B
:104A98000983780C12152D850882850983C082C088
:104AA800839007F6E0F508A3E0F509E4F50AF50BAD
:104AB800D083D0827808121484EE240EF582EF3465
:104AC80000F583780812152D02417B900810E0F953
:104AD8001209E490080AE0F8A3E0F9A3E06870037B
:104AE800A3E069602C120BE28A088B098C0A8D0BF3
:104AF80090861D780812148478081219038E828F04
:104B080083A3A312153C121F1F740412167CE970AC
:104B180063EE2402F8EF3400F988088909120BE2E1
:104B28008A0C8B0D8C0E8D0F908659780C1214847C
:104B38009085F5780C1214E5850882850983780C30
:104B480012152D850882850983C082C08390080CC0
:104B5800E0F508A3E0F509E4F50AF50BD083D08267
:104B68007808121484EE240EF582EF3400F5837869
:104B78000812152D1209EA90086B7404F0EEFAEF8A
:104B8800FB120B647F0C0217C674F01216F4EAFECF
:104B9800EBFFEE2402F8EF3400F988088909EE24C7
:104BA80006F8EF3400F9880A890B8882F583121910
:104BB8001E85088285098312153C120BBE740212E9
:104BC800167C850A82850B8312191E850882850941
:104BD8008312153C120BB2740212167CEE240EF5E9
:104BE80082EF3400F58312153C120BC48E828F833A
:104BF800E06440701CEE2412F8EF3400F9888289D2
:104C080083E0906064F088828983A3E09060658087
:104C180006906064E4F0A3F090086CEEF0A3EFF067
:104C2800EE2416F582EF3400F583E0F8A3E0F5836F
:104C380088821216F2906054E4F0A3F0A3F0A3F077
:104C4800A3F0A3F0A3F0A3F0A3F0A3F0A3F0A3F0C4
:104C5800906182E0C2E6F07591BFEE2415F582EF0F
:104C68003400F583E064017003120BF4E5E170FC95
:104C7800EE2414F582EF3400F583E0F46003E0F5E8
:104C8800E1EE2415F582EF3400F5837401F0900409
:104C98009FE06401706F120BE28A088B098C0A8D01
:104CA8000B78081219038E828F83A3A312153C1266
:104CB8001F7C740412167C8A088B098C0A8D0B9051
:104CC8008649780C12151E7808790C12134A740359
:104CD8007808121439E50824F4F508E5093401F5D3
:104CE80009900816E060031211B8E4F50AF50B788C
:104CF800081219037A207B00900498E0F9121260D8
:104D0800740412167C7F080217C674EC1216F4EAB3
:104D1800FEEBFF8C088D09EE4F70057902024E07F5
:104D2800120BE28A0C8B0D8C0E8D0F908629780C55
:104D38001214849085F5780C1214E58E828F83E026
:104D48006402701F9007F4E0F8A3E0F9A3E068702C
:104D580003A3E06970248E828F83A3A3780C1215B5
:104D68002D8017E06404701290080AE0F8A3E0F9B7
:104D7800A3E0687003A3E06960DC780C121903856E
:104D88000882850983A3A312153C121F7C740412A0
:104D9800167C8A108B118C128D1390864578101210
:104DA800132B4003024D23850882850983A3A3782A
:104DB8000812151E90862D78081214847808121986
:104DC800038E828F83A3A312153C121F1F74041233
:104DD800167CE96003024D2390864D780C121484EA
:104DE800780C1219038E828F83A3A312153C121F0D
:104DF8001F740412167CE97004790080027901029C
:104E08004B8C74F01216F4890874FF65086003026D
:104E18004F9690086AE0540770030254627A00784B
:104E280069790888828983A3A3A3A3A3E064047093
:104E380050EA75F018A4F8A9F0746F28F582740880
:104E480039F583E0640170487A00786979088882C6
:104E58008983A3A3A3A3A3E064046003024EEE889E
:104E6800828983A3A3A3A3A3A3E064017078EA754E
:104E7800F018A4F8A9F0746E28FA740839FB0254E3
:104E8800660AE82418F8E93400F9EAC39404409360
:104E98007A007869790888828983A3A3A3A3A3E009
:104EA80064017057EA75F018A4F8A9F0746F28F532
:104EB80082740839F583E06401704F7A0078697963
:104EC8000888828983A3A3A3A3A3E06401600302E3
:104ED8004F7288828983A3A3A3A3A3A3E06401607C
:104EE80003024F7280880AE82418F8E93400F9EAC6
:104EF800C394045003024E560254620AE82418F878
:104F0800E93400F9EAC39404408C7A007869790896
:104F180088828983A3A3A3A3A3E064027061EA75CE
:104F2800F018A4F8A9F0746F28F582740839F5838D
:104F3800E0640170597A007869790888828983A3C6
:104F4800A3A3A3A3E06402707A88828983A3A3A39E
:104F5800A3A3A3E06401706BEA75F018A4F8A9F0A4
:104F6800746E28FA740839FB806F0AE82418F8E987
:104F78003400F9EAC394045003024EC90254620A89
:104F8800E82418F8E93400F9EAC3940440827A0066
:104F98007869790888828983A3A3A3A3A3E0650815
:104FA800703D88828983A3A3A3A3A3A3E0640170AF
:104FB8002EEA75F018A4F8A9F0746E28FE74083962
:104FC800FF802F0AE82418F8E93400F9EAC39404AA
:104FD8005003024F437A007B000254660254620A6F
:104FE800E82418F8E93400F9EAC3940440A67E00DE
:104FF8007F007A007869790888828983A3A3A3A3AC
:10500800A3E06508701BEA75F018A4F8A9F0746F9E
:1050180028F582740839F583E0640170137A0180F9
:10502800110AE82418F8E93400F9EAC3940440C8DE
:105038007A00E50814600F1470030251FF24FE7013
:105048000302535980967B0078697908888289839E
:10505800A3A3A3A3A3E064027055EB75F018A4F80A
:10506800A9F0746F28F582740839F583E06401703B
:105078004D7B007869790888828983A3A3A3A3A3B9
:10508800E06402600302513588828983A3A3A3A345
:10509800A3A3E064016003025135EB75F018A4F88E
:1050A800A9F0746E28F50A740839F50B02514D0BF6
:1050B800E82418F8E93400F9EBC39404408E7B0027
:1050C8007869790888828983A3A3A3A3A3E06404E9
:1050D8006003025189EB75F018A4F8A9F0746F28E1
:1050E800F582740839F583E06401600302519B7B03
:1050F800007869790888828983A3A3A3A3A3E064BD
:105108000460030251A688828983A3A3A3A3A3A34F
:10511800E0640160030251A6EB75F018A4F8A9F049
:10512800746E28F50A740839F50B0251BE0BE82491
:1051380018F8E93400F9EBC39404500302507F7562
:105148000A00750B00EAA2E040030251F1850A82C9
:10515800850B83A3A3780C12151E908651780C1228
:105168001484780C1219038E828F83A3A312153C22
:10517800121F1F740412167CE9706EEEFAEF024ECD
:10518800850BE82418F8E93400F9EBC394045003BC
:105198000250CCEAA2E05058EEFAEFFB80560BE83A
:1051A8002418F8E93400F9EBC3940450030250FDC5
:1051B800750A00750B00EAA2E0502E850A82850B5D
:1051C80083A3A3780C12151E908651780C121484B0
:1051D800780C1219038E828F83A3A312153C121F19
:1051E8001F740412167CE96092AA0AAB0B0254667B
:1051F8007A007B000254667B007869790888828986
:1052080083A3A3A3A3A3E064047052EB75F018A4CE
:10521800F8A9F0746F28F582740839F583E0640101
:10522800704A7B007869790888828983A3A3A3A33D
:10523800A3E0640460030252CD88828983A3A3A3F8
:10524800A3A3A3E06401707DEB75F018A4F8A9F09E
:10525800746E28F50A740839F50B0252E50BE82438
:1052680018F8E93400F9EBC3940440917B0078699D
:10527800790888828983A3A3A3A3A3E064016003B8
:10528800025321EB75F018A4F8A9F0746F28F58281
:10529800740839F583E0640160030253337B0078B6
:1052A80069790888828983A3A3A3A3A3E064016022
:1052B8000302533E88828983A3A3A3A3A3A3E06424
:1052C80001707380830BE82418F8E93400F9EBC304
:1052D80094045003025230750A00750B00EAA2E0EC
:1052E80040030251F1850A82850B83A3A3780C122F
:1052F800151E908651780C121484780C1219038E9E
:10530800828F83A3A312153C121F1F740412167CEC
:10531800E960030251F10251830BE82418F8E934DB
:1053280000F9EBC39404500302527AEAA2E0501A3F
:10533800EEFAEFFB80180BE82418F8E93400F9EBD3
:10534800C3940450030252AB808D7A007B00025450
:10535800667B007869790888828983A3A3A3A3A3BD
:10536800E064017040EB75F018A4F8A9F0746F2898
:10537800F582740839F583E0640170387B00786938
:10538800790888828983A3A3A3A3A3E064016003A7
:1053980002541E88828983A3A3A3A3A3A3E0640164
:1053A80070740252500BE82418F8E93400F9EBC382
:1053B800940440A37B007869790888828983A3A331
:1053C800A3A3A3E064027063EB75F018A4F8A9F036
:1053D800746F28F582740839F583E06401705B7B8B
:1053E800007869790888828983A3A3A3A3A3E064CA
:1053F80002704F88828983A3A3A3A3A3A3E06401B7
:105408007040EB75F018A4F8A9F0746E28F50A74CA
:105418000839F50B80410BE82418F8E93400F9EB5A
:10542800C39404500302538A0252DF0BE82418F88D
:10543800E93400F9EBC394044080EAA2E0501B026F
:1054480051830BE82418F8E93400F9EBC3940440BD
:1054580094750A00750B000252E57A007B00024D34
:105468000D74F61216F489097508007869790888A8
:10547800828983A3A3A3A3A3A3E06003025545E500
:105488000875F018A4F8A9F0746E28FE740839FF9E
:105498008E828F83A37401F08E828F83E509F012C8
:1054A8000BE28E828F83A3A31215488E828F83A36B
:1054B800A3A3A3A3A3E4F0A3F090861112153CEED6
:1054C800240EF582EF3400F583121548EE2414F506
:1054D80082EF3400F5837401F0EE2415F582EF3481
:1054E80000F5837401F0EE2416F582EF3400F5839D
:1054F800E4F0A3F090086AE04509F0900869E00438
:10550800F06401600C748065096006744065097078
:1055180019E50875F018A4F8A9F0746E28F874084D
:1055280039F990086CE8F0A3E9F0E50875F018A4DB
:10553800F8A9F0746E28FA740839FB80180508E891
:105548002418F8E93400F9E508C394045003025418
:10555800777A007B0080007F020217C6C082C08372
:105568008A828B83E0F8A3E0F98A828B83E4F0A334
:10557800F088828983A3F088828983E0F4F8900810
:105588006AE058F0900869E014F0700B90086CE439
:10559800F0A3F0900499F0801CC082C08390086941
:1055A800E0600A90086CE0FAA3E0FB80047A007BD4
:1055B800008002E0F9D083D08202011FC082C0833C
:1055C800E9FB7A007869790888828983A3A3A3A371
:1055D800A3E06B7016EA75F018A4F8A9F0746F28A8
:1055E800F582740839F583E0F980110AE82418F87F
:1055F800E93400F9EAC3940440CE790080B7C08248
:10560800C0839008690255BB74F61216F4EAFEEBE3
:10561800FF9061D0E0C0E0EE2400F582EF3401F5A0
:1056280083D0E0F09061D7E0FA9061D5E0C39A5456
:105638007FC0E0EE2401F582EF3401F583D0E0F07D
:10564800EE2402F8EF3401F99061D6E0C39A547F52
:1056580088828983F0701A9061C5E0A2E45012E054
:10566800A2E7500DEE2402F582EF3401F583748031
:10567800F0120CA8EE2401F582EF3401F583E070F6
:1056880034EE2402F582EF3401F583E0702790614F
:10569800C5E0A2E4501FE0A2E7501AEE2402F5820A
:1056A800EF3401F5837480F0EE2401F582EF3401C4
:1056B800F5837480F075E1957800EE2400F582EFAB
:1056C8003401F583E060279061D3E0C0E08808EEFC
:1056D8002508F582EF3400F583D0E0F008EE2400C9
:1056E800F582EF3401F583E0F9E8C39940D975E113
:1056F8009102555F74F61216F4EAFEEBFF9061C84A
:10570800E0C0E0EE2403F582EF3401F583D0E0F049
:105718009061CFE0FA9061CDE0C39A547FC0E0EE8B
:105728002404F582EF3401F583D0E0F0EE2405F887
:10573800EF3401F99061CEE0C39A547F888289835F
:10574800F0701A9061C5E0A2E05012E0A2E3500D9B
:10575800EE2405F582EF3401F5837480F0120CAE67
:10576800EE2404F582EF3401F583E07034EE24056D
:10577800F582EF3401F583E070279061C5E0A2E07F
:10578800501FE0A2E3501AEE2405F582EF3401F52C
:10579800837480F0EE2404F582EF3401F58374807D
:1057A800F0120CB47A00EE2403F582EF3401F5838D
:1057B800E0602F9061CBE0C0E08A08EE2508F8EFA2
:1057C8003400F9E82480F582E93400F583D0E0F06C
:1057D8000AEE2403F582EF3401F583E0F8EAC39872
:1057E80040D175E18102555F74F41216F48908A856
:1057F80008E875F08AA4C8AAF02AF974CE28FE74BD
:105808000839FFEEFAEFFB120B9AEEFAEFFB120BD8
:1058180094750A80750B00780A1219077C007D6060
:10582800EE2406FAEF3401FB120AE0740212167C29
:10583800906195E0C0E0EE2486F582EF3401F583AF
:10584800D0E0F0906196E0C0E0EE2487F582EF3476
:1058580001F583D0E0F0906197E0C0E0EE2488F590
:1058680082EF3401F583D0E0F0906198E0C0E0EE7B
:105878002489F582EF3401F583D0E0F07F04021724
:10588800C674F21216F48908A808E875F08AA4C844
:10589800AAF02AF974CE28F8740839F99061C6E09C
:1058A800FDE054F0F075E1817C00E82403F582E91D
:1058B8003401F583E0602B8C0AE8250AFAE9340004
:1058C800FBEA2480F582EB3400F583E09061CAF0AE
:1058D8000CE82403F582E93401F583E0FAECC39A75
:1058E80040D5E82405F582E93401F583E0600490A9
:1058F80061CEF0E82404F582E93401F583E0600420
:105908009061CDF0ED9061C6F0A808E875F08AA422
:10591800C8AAF02AF974CE28F8740839F9E0FCE02E
:10592800540FF075E1917A00E82400F582E934011A
:10593800F583E060238A0AE8250AF582E93400F550
:1059480083E09061D2F00AE82400F582E93401F599
:1059580083E0FBEAC39B40DDE82402F582E93401D9
:10596800F583E060049061D6F0E82401F582E9341B
:1059780001F583E060049061D5F0EC9061C6F08594
:105988000882AE82EEF875F08AA4C8AAF02AF974E3
:10599800CE28F50A740839F50B750C80750D00785A
:1059A8000C121907E50A2406FCE50B3401FD7A0000
:1059B8007B60120AE0740212167CA80AA90BE8247C
:1059C80086F582E93401F583E0906195F0E8248753
:1059D800F582E93401F583E0906196F0E82488F5D2
:1059E80082E93401F583E0906197F0E82489F58233
:1059F800E93401F583E0906198F0EE75F006A4CEE5
:105A0800A8F028FF74C92EF58274043FF583E0F8E6
:105A1800A3E0F5838882E0648070419011B174221C
:105A2800F0A3740BF0A3740AF0A3740BF0A3742210
:105A3800F0A3740BF0A37422F0A3740BF0A3740A00
:105A4800F0A3740BF0A37422F0A3740BF0A37428D2
:105A5800F0A3740BF090049974088005900499746D
:105A680007F09011BF740AF0A3740BF0A3740AF046
:105A7800A3740BF0A3740AF0A3740BF0A3740AF0D8
:105A8800A3740BF0A3740AF0A3740BF0A3740AF0C8
:105A9800A3740BF07F060217C6C082C083E9901179
:105AA8008FF0D083D08202011F74F61216F4E990A9
:105AB8000364F07CA47D037AFF7BFF1207207A0041
:105AC8008A08750900740278081216537465250847
:105AD800F874033509125B00A3F00AEAC394034083
:105AE800DF79051206AE900364E0F91205D67A381C
:105AF8007B071208EE027081F98882898374FF128D
:105B08005B0DE4F022F0A3126F0EA32274F41216B8
:105B1800F48A088B09EB54806030900364E0F91232
