:020000040000FA
:0600000002011A021D8B33
:03002B000222C8E6
:03005300021DFE8D
:03006B0002229FCF
:10008300021C3FE5C754F84401F5C779012200007B
:100093000080FB120086B90003020104E4791B7897
:1000A30002B800028004F709D8FCE4791D7802B88D
:1000B30000028004F709D8FCE490028178FC790DF2
:1000C3008002F0A3D8FCD9FA781A90014A7A01BACF
:1000D30000028007E493A3F608DAF97A7C7B0F9099
:1000E300014B78DB79018015E493A3AD82AE838A5B
:1000F300828B83F0A3AA82AB838D828E83D8E9D9C6
:10010300E77582F47583C2740312012C75829175AD
:100113008300740012012C75D00075813F7518811E
:10012300751902759F00020096C09FF59FE473D076
:100133009F22D083D082C09FE493C0E0740193C018
:10014300E0740293F59F22019903AB03D5039F0348
:10015300FF0000B4000028002800283075A000A08C
:1001630000A000A00000080008E001F0001000104B
:10017300001000100010001000500050005000103C
:10018300001000D0070000000000000F0001000570
:1001930000307507001000010081FF0000FF02021C
:1001A30002C283010000B38302BC83010000D20FAB
:1001B30002B883010000B10202BC83010000D30F27
:1001C30002B683010000C702FFFF0100FF2002C245
:1001D30083010000B08302BC83010000011002BE52
:1001E30083000000000002BA83030000A403010B94
:1001F300010B010B010B010B010B010B010B010B9C
:10020300010B010B010B010BE10CFF0CDB0C01E8F3
:1002130003053F100203FFFFFF00FEFF544A47514F
:100223000401120135F4B9031201350ABA031201AC
:100233003537BA0312013567BA0312013588BA0399
:10024300120135B9BA031201350ABB031201352174
:10025300BB03120135CFB303120135E6B303120119
:100263003515B4031201354EB40312013576B403C8
:10027300120135A4B403120135BBB403120135D204
:10028300B403120135E8B4031201350FB5031201AB
:100293003522B50312013538B50312013560B503B4
:1002A30012013504A90212013503AA021201352DE8
:1002B300AA0212013582AA02120135A3AA0212016F
:1002C30035BCAA02120135BEAA02120135DFAA0209
:1002D300120135E2AB021201359FAC021201356CFB
:1002E300AD02120135D0AD0212013567AE02120123
:1002F300356AAE02120135F0AE0212013533AF0298
:1003030012013585AF02120135BCAF02120135422D
:10031300B002120135CBB00212013514B102120141
:100323003517B10212013575B1021201358DB102D3
:1003330012013507B2021201350AB2021201352D3C
:10034300B20212013530B202120135D7B2021201E4
:1003530035FAB20212013512B30212013542B30269
:100363001201354FB30212013552B302120135BEE9
:10037300B302120135ACB40212013562B5021201A7
:1003830035DEBF02120135B9C002120135E7C002E2
:1003930012013567C10212013587C102120135C549
:1003A300C10212013518C20212013580C2021201C4
:1003B3003511C302120135DCC302120135EBC6024B
:1003C30012013557C8021201357AC802120135C22B
:1003D300A10312013553A303120135A4A303120190
:1003E3003503A40312013511A4031201353AA40302
:1003F300120135008003120135288003120135569E
:1004030080031201358D8003120135F5800312013B
:10041300353E8103120135898103120135C78103FA
:10042300120135048203120135328203120135D9D8
:100433008203120135E38203120135F082031201B4
:1004430035238303120135E58303120135F1830359
:100453001201350984031201351384031201359106
:10046300840312013558BF0312013566BF0312011D
:10047300357EBF0312013596BF03120135AEBF03AC
:1004830012013516EC01120135B4EC011201352CC1
:10049300ED0112013541EE011201357BEE0112012E
:1004A3003524EF01120135F9EF011201355DF10138
:1004B300120135B4F1011201353BF201120135226B
:1004C300F3011201356FF301120135FDF30112013E
:1004D3003521F401120135F6F50112013537F60124
:1004E30012013559F6011201351EF701120135E4E7
:1004F300F70112013519FA01120135549A03120159
:10050300356A9A03120135909A03120135B89B0399
:10051300120135C29B031201351B9D031201351BCA
:100523009E03120135228503120135C4850312018E
:1005330035F78503120135418603120135FB870325
:100543001201354BAD01120135C9AD01120135D987
:10055300AD01120135BCAE01120135DFAE0112014E
:10056300353EAF0112013554B00112013558B201C5
:100573001201350FB4011201358BB4011201356834
:10058300B50112013596B80112013534B9011201D2
:100593003591BA0112013504BC01120135ADBC011C
:1005A300120135F6BC011201352DBD01120135D200
:1005B300BD0112013550BE0112013596CE01120163
:1005C30035EBCE0112013530D00112013540D00197
:1005D30012013563D001120135AED001120135533A
:1005E300D10112013549D20112013513D301120190
:1005F300358BD401120135CDD4011201356BD501F0
:1006030012013591D5011201357FD70112013584CD
:10061300D70112013565D901120135B9D90112018A
:10062300351BDA0112013543DA01120135E7DA012C
:10063300120135A9DB01120135DADB01120135DDC7
:10064300DB0112013525DC0112013567DC011201E2
:1006530035CEDC0112013596AB03120135A9AB038C
:10066300120135B2AB03120135CBAB0312013516C0
:10067300AC03120135F1AC0312013580AD03120155
:1006830035CBAD03120135D65C00120135E65C00B3
:10069300120135495D001201358E5D001201353EB0
:1006A3005E00120135175F00120135405F00120131
:1006B30035705F00120135846100120135606300FB
:1006C300120135406500120135786600120135F1DB
:1006D3006800120135DD6900120135236B00120138
:1006E30035306C00120135726C00120135AA6C00B2
:1006F300120135C46C001201352C6D00120135C690
:100703007100120135677200120135BB72001201CC
:1007130035E272001201352073001201353F730078
:100723001201359373001201359B740012013524B5
:1007330075001201357CED0212013586ED021201BE
:100743003522EE02120135EDEE021201350CEF02F5
:1007530012013532EF0212013571EF02120135A990
:10076300EF02120135D2EF021201350CF002120131
:100773003521F002120135EEF00212013511F102BA
:1007830012013533F10212013548F102120135D25B
:10079300F1021201350CF20212013580F20212014C
:1007A30035C9F202120135F3F20212013518F302D0
:1007B300120135689603120135329703120135157C
:1007C30098031201358B9803120135CD980312015A
:1007D30035FA9903120135CF8D02120135F88D02D6
:1007E300120135118E02120135568F021201353472
:1007F3009002120135539002120135E0900212016A
:10080300352391021201355B9202120135C7920220
:10081300120135BD94021201354B9702120135DEE8
:100823009702120135B2980212013555990212014D
:1008330035689A02120135FE9A021201354FBC0344
:10084300120135B8BC031201350CBD031201353B4F
:10085300BD031201350E8E031201357B8E03120187
:1008630035C68E03120135BB8F03120135B79003D2
:10087300120135A191031201356CE002120135B367
:10088300E0021201358CE10212013587E202120106
:100893003566E302120135D2E302120135EEE402BA
:1008A30012013555E50212013558E502120135836F
:1008B300E502120135F4E50212013597E602120151
:1008C30035ACE602120135F4E6021201350DE702FA
:1008D30012013510E70212013552A5031201358EBC
:1008E300A503120135CCA50312013596A603120107
:1008F3003509A70312013544A70312013582A70363
:10090300120135B2A703120135D9A70312013544E9
:10091300A80312013586A803120135CF8301120102
:1009230035ED85011201359C87011201354C880193
:10093300120135978801120135E28801120135F45D
:1009430088011201353489011201356989011201C7
:1009530035B58901120135E48901120135078A0190
:100963001201358E8A011201357A8B01120135B8D5
:100973008C01120135BA8D01120135968F011201D6
:1009830035BA94011201350095011201353E9501E6
:1009930012013573970112013520B003120135C0DE
:1009A300B103120135F02200120135872300120131
:1009B30035B42300120135FA230012013530250026
:1009C300120135C726001201353F27001201358178
:1009D3002700120135D127001201353C29001201ED
:1009E30035A72B00120135832C00120135A22C00F0
:1009F300120135C12C00120135C42C001201354AF5
:100A03002E001201353F2F001201353B3000120139
:100A130035AB30001201351D31001201359C310018
:100A23001201357732001201357E33001201355D34
:100A33003400120135E83400120135563500120135
:100A430035CA3500120135F33500120135B23600CF
:100A5300120135C139001201350A3A001201354D30
:100A63003A00120135D03A00120135743B001201ED
:100A730035053C001201352A3C00120135743C0057
:100A83001201359E3C00120135E33C001201355E34
:100A93003D00120135B83D001201350C3F00120133
:100AA30035C93F001201359C400012013500800218
:100AB3001201355080021201355C80021201353972
:100AC3008102120135698102120135A181021201ED
:100AD30035208202120135588202120135AA8202A0
:100AE300120135E782021201350C850212013538F5
:100AF30087021201353389021201350E8B0212016E
:100B030035EE7F0012013528FA011201355AFE0134
:100B1300120135AAFF0112013504BF01120135D6B6
:100B2300C501120135DCC5011201358CC801120162
:100B330035C3F8021201356FF9021201353DFA028D
:100B430012013567FA02120135B5FC02120135CAEA
:100B53004000120135144100120135C64D00120147
:100B630035474F001201353F50001201359E5600A4
:100B7300120135995700120135D65700120135F984
:100B830057001201353B5800120135455800120138
:100B930035315900120135255A00120135BE5A006C
:100BA300120135259E03120135BB9E03120135D177
:100BB3009E031201354B9F03120135A19F031201BE
:100BC30035DF9F031201353CA003120135B9A003A1
:100BD300120135C2A003120135CEA003120135E183
:100BE300A0031201351DA10312013533A103120124
:100BF3003592A10312013534E70212013541E702B0
:100C03001201355BE7021201359AE702120135D86A
:100C1300E7021201353DE80212013552E8021201E2
:100C23003569E80212013577E80212013586E802D8
:100C33001201359BE802120135B0E802120135BBFF
:100C4300E802120135C7E802120135D4E8021201A5
:100C530035E3E802120135EEE80212013513E90229
:100C6300120135BCE902120135D1E902120135E660
:100C7300E90212013500EA021201351BEA021201F0
:100C83003538EA0212013543EA02120135FFEA025E
:100C9300120135EBEB0212013510EC021201351A89
:100CA300EC021201352EEC021201354DEC02120159
:100CB30035AEEC02120135B4EC02120135BAEC0286
:100CC300120135C0EC02120135CCEC02120135FFE2
:100CD300EC021201358B7500120135B77500120154
:100CE300359B76001201353579001201354B7A00B8
:100CF300120135687B001201350B7C00120135B1FE
:100D03007C001201357A9B02120135FC9B02120111
:100D130035A59C02120135ED9D02120135FB9F02A0
:100D2300120135E1A00212013516A1021201353874
:100D3300A102120135E1A102120135B1A302120190
:100D430035DAA30212013552A40212013584A4023A
:100D530012013591A402120135DCA40212013500FF
:100D6300A50212013551A7021201355BA802120137
:100D730035B7A80212013598DD01120135A9DE014C
:100D83001201358DDF0112013597DF01120135B9EB
:100D9300DF01120135C5DF0112013569E1011201DD
:100DA3003596E101120135ACE20112013501E3018F
:100DB30012013550E40112013525E5011201358197
:100DC300E501120135ECE50112013521E6011201BD
:100DD3003564E6011201352EE90112013546E901B8
:100DE300120135D7E901120135E5E9011201353266
:100DF300EA0112013540EA01120135ACEA011201A0
:100E03003527EB011201357EEB0112013516B203D2
:100E13001201353BB203120135B1B2031201357D24
:100E2300D90212013586D9021201358FD902120176
:100E33003567DA0212013518DC0212013548DC028B
:100E430012013573DC02120135A3DC02120135CE27
:100E5300DC0212013502DD021201352EDD02120120
:100E63003571DD021201359CDD02120135E3DD022D
:100E730012013538DE021201357ADE02120135D451
:100E8300DE02120135FFDE021201354EDF021201CE
:100E9300357EDF02120135A9DF02120135CCDF02F4
:100EA300120135B8C103120135E4C1031201351132
:100EB300C2031201351BC2031201352BC2031201F7
:100EC3003540F3021201357FF30212013508F402B3
:100ED3001201351BF40212013566F402120135A525
:100EE300F402120135B4F40212013566F50212015F
:100EF30035BFF5021201350EF60212013564F60212
:100F030012013559F7021201354EF8021201358BE1
:100F1300F80212013535C2031201358C9901120111
:100F2300358A9B011201350B9D011201350D9E017E
:100F3300120135959E011201351A9F0112013543A5
:100F43009F01120135939F0112013586A3011201FE
:100F530035F7A301120135E3A4011201351DA501E3
:100F63001201355DA50112013590A601120135C1AB
:100F7300A60112013514A7011201355DA701120163
:100F830035CBA701120135FDA70112013517A801C1
:100F930012013509A90112013519A901120135C838
:100FA300AA01120135DFAA0112013511AB011201A9
:100FB3003593AC011201350CAD01120135E5220068
:100FC300120135EDFF0112013547C00312013557F8
:100FD300C00312013569C0031201351DC10312019B
:100FE300355CBD03120135E0BD0312013548BE0374
:100FF30012013538BB0312013554BB03120135AB63
:10100300BB03120135B6BB03120135CFBB0312017B
:101013003518BC0312013543BC0312013546BC032A
:101023001201356392031201357D9203120135F6E5
:101033009203120135CB93031201359D95031201DF
:1010430035029603120135559603120135F87F00D8
:10105300120135F5AD0312013576AF03120135D711
:10106300AF031201351DB003120135CAC3031201C8
:1010730035CFC303120135D6C303120135D8C303D9
:1010830012013501B7031201352AB7031201355393
:10109300B703120135EDB70312013505B803120189
:1010A3003547B803120135B2C902120135BCC90272
:1010B300120135FCC90212013545CA021201357FFE
:1010C300CA02120135D5CA02120135F4CA0212014D
:1010D300357CCD0212013585CD02120135D6CD0204
:1010E300120135FFCD0212013509CE021201357A04
:1010F300CE0212013508CF021201355DCF02120173
:10110300358CCF0212013508D00212013545D002C9
:101113001201357CD0021201358ED002120135AD99
:10112300D002120135B6D0021201356DD10212017F
:101133003572B503120135C2B50312013534B60356
:101143001201359CB603120135CEA803120135F8FE
:10115300A803120135BFA9031201359BAA0312018B
:101163003523AB0312013561BE0312013500FE02C4
:1011730012013536FE0212013569FE02120135C233
:10118300FF0212013523C10312013539C1031201D4
:101193003543C1031201358DC10312013595C203D5
:1011A30012013599D10212013556D202120135913D
:1011B300D202120135C2D20212013524D302120126
:1011C3003570D302120135DBD30212013555D40237
:1011D30012013554D502120135DBD6021201355EF8
:1011E300D702120135C4D702120135D7D702120133
:1011F30035D2D8021201351FD9021201359E890357
:10120300120135B48903120135558A03120135944D
:101213008A03120135B18A03120135E28A031201EE
:10122300352F8B03120135638B031201359E8B031C
:101233001201359B8D03120135018E031201358C8A
:10124300B8031201359AB80312013505B903120127
:10125300354BB90312013569B903120135CDB50216
:10126300120135D3B60212013553B80212013516F5
:10127300B902120135A9B90212013589BA02120164
:101283003510BB0212013527BB02120135AEBD0278
:10129300120135ECBD0212013545BE021201356261
:1012A300BF02120135C27F001201354CC303120184
:1012B3003583C303120135ACC303E066701008A382
:1012C300E066700A08A3E066700408A3E06622C320
:1012D300E7960809E7960809E7960809E79622C3FF
:1012E300E09608A3E09608A3E09608A3E09622C040
:1012F30008C3E096F50808A3E096420808A3E09621
:10130300420808A3E09645087001D3D008220808D4
:1013130008EAC0E0EBC0E086F0E7A4FA180986F01B
:10132300E7A42AFA180986F0E7A42AFA180986F02E
:10133300E7A42AFA1986F0E7A4FBE5F02AFA1908CC
:1013430086F0E7A42BFBE5F03AFA190886F0E7A448
:101353002BFBE5F03AFA18180986F0E7A4C5F02B41
:10136300FBE43AFA1908E7C5F0C6A426F6E5F03B14
:10137300FBE43AFA1886F0E7A4F6E5F00826F6E46B
:101383003B08F6E43A08F6D0E0FBD0E0FA22E4CFDB
:10139300C0E0E4CEC0E0E4CDC0E0E4CCC0E075F052
:1013A30020E626F608E633F608E633F608E633F6D3
:1013B300181818EC33FCED33FDEE33FEEF33FFC3A7
:1013C300EC9709ED9709EE9709EF97191919400F53
:1013D300FFEC97FC09ED97FD09EE97FE191906D569
:1013E300F0BFECF709EDF709EEF709EFF719191953
:1013F300D0E0FCD0E0FDD0E0FED0E0FF2260160894
:101403000808C6C313C618C613C618C613C618C61B
:1014130013C6D5E0EA2270090808082260161818D6
:1014230018C6C333C608C633C608C633C608C63390
:10143300C6D5E0EA22E627F60809E637F60809E604
:1014430037F60809E637F622E026F608A3E036F673
:1014530008A3E036F608A3E036F622E026F008A358
:10146300E036F008A3E036F008A3E036F022C3E646
:1014730097F60809E697F60809E697F60809E69746
:10148300F622C3E096F008A3E096F008A3E096F0F6
:1014930008A3E096F022E657F60809E657F608098E
:1014A300E657F60809E657F622E056F608A3E05693
:1014B300F608A3E056F608A3E056F622E056F00835
:1014C300A3E056F008A3E056F008A3E056F022E0AC
:1014D30066F608A3E066F608A3E066F608A3E066EE
:1014E300F622E0F608A3E0F608A3E0F608A3E0F688
:1014F30022E6F008A3E6F008A3E6F008A3E6F0224C
:10150300E0FAA3E0FBA3E0FCA3E0FD22EAF0A3EBF7
:10151300F0A3ECF0A3EDF022E0F8A3E0F9A3E0FAE6
:10152300A3E0FB22E8F0A3E9F0A3EAF0A3EBF022A7
:10153300CAC0E0E6F0A308DAFAD0E0FA22CAC0E0B3
:10154300E0A3C582CCC582C583CDC583F0A3C58284
:10155300CCC582C583CDC583DAE6D0E0CA22C3E415
:1015630098F8E499F91215A28026C3E49AFAE49B49
:10157300FBE920E7E91215A2E498F8E499F922C3FC
:10158300E498F8E499F91215A2E498F8E499F9C3F8
:10159300E49AFAE49BFB22EB20E7CFE920E7E0B9EA
:1015A3000010BB0008E88AF084F8AAF022E4FBC824
:1015B300FA22EB70227B10C833C8C933C9335007F2
:1015C300C39AC3DBF280069A50012ADBEAC833F4DC
:1015D300C8C933F4C9FA2275F008E4C833C8C9335B
:1015E300C933C99AC99B5004C92AC93BD5F0ECFB3E
:1015F300C833F4C8E4C9FA22600D08C6A2E713C6CB
:1016030018C613C6D5E0F322600C08C6C313C61868
:10161300C613C6D5E0F422700422600D18C6C33386
:10162300C608C633C6D5E0F41822251810AF08F54E
:1016330018400C15198008F51840021519D2AF226D
:1016430000C0D0251810AF08F518500C05198008F4
:10165300F51850020519D2AFD0D0222518F5821003
:10166300AF08F518400C15198008F5184002151934
:10167300D2AF85198322C5822518C582C583351942
:1016830010AF07F5198582188007F519858218D2DE
:10169300AFC583222518F582E43519F58322251871
:1016A300F8E43519F9222518FAE43519FB2225182F
:1016B300FCE43519FD22E4732518C582C0E0E51961
:1016C30034FFC583C0E0E518C3958224F810AF0842
:1016D3008583198582188008858319858218D2AF7E
:1016E300CEF0A3E520F0A37808E608F0A3DEFAEF36
:1016F300F0A3E58124FAF8E608F0A3E608F0A3E6F0
:1017030008F0A30808E608F0A3E608F0A31581157E
:1017130081D0E0FED0E0F8158115811581E8C0E0A5
:10172300EEC0E0222518C582C0E0E51934FFC58369
:10173300C0E0E518C3958224F910AF0885831985A5
:1017430082188008858319858218D2AFCEF0A3E56D
:1017530020F0A37808E608F0A3DEFAEFF0A3E58112
:1017630024FBF8E608F0A3E608F0A30808E608F06F
:10177300A3E608F0A315811581D0E0FED0E0F815AB
:10178300811581E8C0E0EEC0E022851983851882C7
:10179300E0A3FEE0A3F5207808E0A3F608DFFAE073
:1017A300A3FFE0A3C0E0E0A3C0E0E0A3C0E0E0A3A8
:1017B300C0E0E0A3C0E010AF0885821885831980DC
:1017C30008858218858319D2AFD083D08202013273
:1017D300851983851882E0A3FEE0A3F5207808E04D
:1017E300A3F608DFFAE0A3FFE0A3C0E0E0A3C0E0B4
:1017F300E0A3C0E0E0A3C0E010AF088582188583B2
:10180300198008858218858319D2AFD083D08222AC
:10181300C0D02518C582C0E0E51934FFC583C0E0F8
:10182300E518C3958224F310AF08858319858218C0
:101833008008858319858218D2AFC8F0A3E9F0A385
:10184300EAF0A3EBF0A37908E709F0A3D8FAECF0E8
:10185300A3EDF0A3EEF0A3EFF0A3D0E0F0A3D0E06C
:10186300F0A3D0E0F0A3E520F0A3E5F0F0A32285F8
:101873001983851882E0C0E0A3E0F9A3E0FAA3E0AE
:10188300FBA37808E0F608A3DFFAE0FCA3E0FDA3DE
:10189300E0FEA3E0FFA3E0C0E0A3E0C0E0A3E0F527
:1018A300D0A3E0F520A3E0A3F5F010AF08858319DA
:1018B3008582188008858319858218D2AFD082D09B
:1018C30083D0E0F8D0E0327404800674028002749E
:1018D30001C0E0F40412165ED0E012153322740442
:1018E300800474028000CCC0E0EDC0E0E518C39C26
:1018F300CCAD1950011D10AF068C188D1980068CC4
:10190300188D19D2AF121540D0E0FDD0E0FC22D0E3
:1019130083D082E9C0E0E493A3C386F0C5F095F0D9
:10192300F908E493A386F0C5F095F0700BE493A354
:10193300C3994005E9048002A3E475F002A425825B
:10194300F582E5F03583F583D0E0F9E493A3C0E0B5
:10195300E493C0E022D083D082ECC0E0EDC0E0E4A9
:1019630093A3FCE493A3FDED4C600D1219A4EC24A6
:10197300FFFCED34FFFD80EFE493A3FCE493A3FDB0
:10198300ED4C600D1219E3EC24FFFCED34FFFD80F8
:10199300EFD0E0FDD0E0FCE493A3C0E0E493C0E02B
:1019A30022C0E0C3E49396087401939618400FE4B1
:1019B3009366700808740193661870007019A3A3E6
:1019C300C3E49396087401939618A3A3400DD0E043
:1019D300D0E0D0E0021994A3A3A3A3A3A3D0E02251
:1019E300C0E0C0F088F0E493667008087401936661
:1019F300187000A8F0A3A3700BD0F0D0E0D0E0D013
:0B1A0300E0021994A3A3D0F0D0E02271
:101A100074F5121727EAFEEBFFEE2434F8EF3400DA
:101A2000F988088909EE2435F582EF3400F583E062
:101A3000F8EE2437F582EF3400F583E0F50AEC8503
:101A40000AF0A4FCAAF0850AF0EDA42AFDE82CF81F
:101A5000E43DF97A257B001215A2EA850882850902
:101A600083F05407F87401B800028004C333D8FC33
:101A7000C0E0E0131313541FF8EE28F8EF3400F918
:101A8000E8245DF582E93400F583D0E0F8E05860A1
:101A900008EE2434F582EF801EEE2436F582EF3412
:101AA00000F583E0F5F0EA84A8F0EE28F8EF3400C2
:101AB000F9E82438F582E93400F583E0F97F04027F
:101AC00017D374F5121727EAFEEBFFEE2434F582E4
:101AD000EF3400F583E0C0E0EE2435F582EF34000A
:101AE000F583D0E0F08E828F83A3A3A3A3A3A3A347
:101AF000C082C0838E828F83A3A3A3A3A3E0F8A395
:101B0000E0F9D083D082E0C398F508A3E099F50905
:101B1000EE2480F582EF3400F583E064017069EE15
:101B20002481F582EF3400F583E0F8A3E0F98E829A
:101B30008F83A3A3A3A3A3A3A3E0FCA3E0FD8E82B2
:101B40008F83A3A3A3A3A3E0FAA3E0FBC3EA9CEBC8
:101B50009D5027C3EC98ED99402EC3EA98EB99501D
:101B6000277CE27D07EEFAEFFB120A47EE2480F5B0
:101B700082EF3400F583E4F0800EC3EA98EB9940DD
:101B8000E0C3EC98ED9950D9EE2434F8EF3400F925
:101B9000E8FCE9FDEE2435F582EF3400F583E0F84A
:101BA000EE2437F582EF3400F583E0F50AE5088589
:101BB0000AF0A4F508AAF0850AF0E509A42AF509B7
:101BC000E82508F8E43509F97A257B001215A2EA20
:101BD0008C828D83F05407F87401B800028004C32E
:101BE00033D8FCC0E0E0131313541FF8EE28F8EFCD
:101BF0003400F9E8245DF582E93400F583D0E0F89B
:101C0000E0586008EE2434F582EF801EEE2436F5AD
:101C100082EF3400F583E0F5F0EA84A8F0EE28F8CE
:101C2000EF3400F9E82438F582E93400F583E0F96F
:101C3000122291021ABD0000851B87851CC622C096
:101C4000E0C0D0E8C0E0E9C0E0EAC0E0EBC0E0EC12
:101C5000C0E0EDC0E0C008C009C00AC00BC082C02F
:101C600083C0F0759B00906182E0A2E64003021DF4
:101C70001DE591A2E64003021D1D7591BF900499D8
:101C8000E064057008120BCD120BD98003120BD340
:101C9000751B00120C39E990049AF07900120C1BA4
:101CA0001209B77A017B00900498E0F912110790AD
:101CB0007803E064426003021D66900817E014F0A8
:101CC0006003021D66C2AF121CCA00781ED0E0F687
:101CD00018D0E0F6E59F5407F9700590831480034F
:101CE00090830078081214E5E9C4C0E0781DE65539
:101CF00008F50808E65509F509740B780812160B63
:101D0000D0E02508F8906270E0A2E740F8E8C3331D
:101D1000906272F0906270E0D2E0F08049E0A2E55B
:101D20005024E591A2E5501E7591DF900499E0647E
:101D30000D70139004BBE004F064287002E4F07AA4
:101D400000E0F9120CC9906181E0A2E35009E5E9D5
:101D5000A2E3500375E9F7A3E0A2E75009E591A2D9
:101D6000E7500375917FD0F0D083D082D00BD00A9A
:101D7000D009D008D0E0FDD0E0FCD0E0FBD0E0FA04
:101D8000D0E0F9D0E0F8D0D0D0E032C0E0C0D0C090
:101D900082C083906183E0A2E05009E5BFA2E050D9
:101DA0000375BFFEE0A2E15009E5BFA2E150037553
:101DB000BFFDE0A2E25009E5BFA2E2500375BFFB00
:101DC000E0A2E35009E5BFA2E3500375BFF7E0A22C
:101DD000E45009E5BFA2E4500375BFEFE0A2E5506F
:101DE00009E5BFA2E5500375BFDFE0A2E65009E5B3
:101DF000BFA2E6500375BFBFD083D0828088C0E009
:101E0000C0D0E8C0E0E9C0E0EAC0E0EBC0E0ECC070
:101E1000E0EDC0E0C0F0E5A7A2E6500FE5A1A2E624
:101E2000500953A7BF75A1BF121E63E5A7A2E550D5
:101E30000CE5A1A2E5500653A7DF75A1DFE5A7A237
:101E4000E15009E5A1A2E1500375A1FDE5A7A2E2D9
:101E5000500CE5A1A2E2500653A7FB75A1FBD0F000
:101E6000021D7474F8121727751B01900499E06421
:101E7000067015120B798A828B83A3A3A3A3A3A355
:101E8000E0FAA3E0FB120BBBA2AFE433FED2AF90AB
:101E9000049FE0640170187A207B00900498E0F9B8
:101EA0001212217A207B00900498E0F912110D9013
:101EB0006182E0D2E6F0900816E0602185C61C80C1
:101EC0001690049EE064017008E5C654F84405F5D8
:101ED000C653BEFC121C387401651B60E4EEA2E020
:101EE00092AF7F010217D374EB12172774FA121600
:101EF0002D8A088B098C148D15900499E024F7C362
:101F000094055006908308022049120B798A0A8BA7
:101F10000BAE0AAF0BEE4F7003022046AC08AD09C2
:101F2000851882851983AA82AB83120BEB8E828F70
:101F300083A3A378081214E590832878081214ACC0
:101F4000851882851983780C1214E5908328780C03
:101F50001214AC7808790C1212D2501F7808790C40
:101F600012147190834078081212F24047850810CD
:101F7000850911850A12850B138041850C10850D8A
:101F800011850E12850F1378107908121471908341
:101F90004078101212F2501C751000751100751265
:101FA000007513017810790C1214717810790812E9
:101FB0001438800890830878101214E5740978109A
:101FC00012141990832C78081214E57810790812ED
:101FD00013918E828F83A3A3A3A3A3A3E0F8A3E00E
:101FE000F97AD07B031215A288088909E4F50AF56D
:101FF0000B781079081214387404121697E0F8A3BD
:10200000E0F97AD07B031215A2E8FA8A08E4F50910
:10201000781079081212D2500778107908121471CA
:10202000900499E06408600AE064066005E06405D5
:10203000701C90837878101212F2501290832478DA
:102040001012144B800890837078101214E58514D8
:102050008285158378101214F474061216437F0ECD
:102060000217D374F7121727120BFD900814E064BF
:10207000017010906245E4F0A3F053F4F343FE0CBA
:102080005390F3120BA9E5C654804449F5C6E59E6A
:10209000547F644970F8906185740FF0900812E0E5
:1020A000F47002A3E0604E900813E0600814601B17
:1020B00014602E8040750801750900900812E078C0
:1020C0000812161AE508F45280802A75080175096D
:1020D00000900812E0780812161AE508F452908071
:1020E00014750801750900900812E0780812161A94
:1020F000E508F452A079007F020217D374F7121793
:1021000027E9FEEAFF74016E700C7A807B00900470
:1021100098E0F91211079022E8E493F46008E49340
:10212000F91209AB800953C680E59E547F70FA12FC
:102130000BAF900814E0640170031209C3900812F9
:10214000E0F47002A3E0604B900813E060081460B4
:102150001A14602C803D750801750900900812E082
:10216000780812161AE5084280802875080175095A
:1021700000900812E0780812161AE50842908013C1
:10218000750801750900900812E0780812161AE522
:102190000842A0120BFD120B798A088B09A808A926
:1021A00009E8496015E5E170FCE82414F582E9349A
:1021B00000F583E0F46003E0F5E174016F700A7AE2
:1021C00001900498E0F91211910220F774F11217AE
:1021D000278A088B098C0A8D0B740F121697780CBE
:1021E0001214E590832878081214AC908328780C98
:1021F0001214AC7808790C1212D250157808790CA8
:1022000012147190834078081212F24015790180FF
:1022100013780C7908121471908340780C1212F222
:1022200040EB79007F080217D374ED1217278A0854
:102230008B098C0A8D0B7413121697780C1214E507
:1022400090832878081214AC908328780C1214AC70
:10225000780C79081212D240117808790C12147196
:10226000AA08AB09AC0AAD0B8022751000751100ED
:102270007512007513017810790C121471781079A9
:1022800008121438AA10AB11AC12AD137F0C021750
:10229000D3C082C083E9906000F0D083D08222C096
:1022A000E074F2121813A2AFE433FED2AFE589A2B4
:1022B000E05003121011758900C2C5751A00EEA214
:1022C000E092AF7F01021872C0E0C0D0E8C0E0A881
:1022D000A8D2AFC2C7751A00E8A2E792AFD0E0F863
:1022E000D0D0D0E032020132FFFFFFFFFFFFFFFF3F
:1022F000C082C0839061907404F0A37448F0A3740A
:1023000002F09061807440F09061BC7403F09061C1
:10231000877419F0906265741BF090619C740DF0E5
:1023200090619A7433F0A37455F09061A0743AF000
:10233000900814E064017009C29190049D74678054
:102340000590049D7461F09022EEE493906186F014
:102350009022E8E493F46027E493540FF8906185A9
:10236000E0686012E5C654804449F5C6E59E547F96
:10237000644970F8E8F053C680E59E547F70FA799E
:1023800005120CAB02277AC082C083E9540FF99082
:102390006185E0696012E5C654804449F5C6E59E52
:1023A000547F644970F8E9F053C680E59E547F700D
:1023B000FA02277AC082C083E5A8F853A87E90610C
:1023C00081E4F0A3F0A3F0C2BA539AFEC289759BD0
:1023D00000C2C275E90075910075BF0075A911753D
:1023E000B905906181F0A374C0F0A3E4F0D2BA43C0
:1023F0009A0174805842A802277AC082C08374F878
:1024000012162D90049BE0F8A3E0F9E8497003024E
:10241000252890049BE05440602379088518828524
:102420001983AA82AB83120AB9851882851983AAF7
:1024300082AB8312079B90049BE054BFF0E0548072
:102440006010790C7A387B08120AB990049BE0542A
:102450007FF0E0A2E0503190619A7433F0A374559C
:10246000F09061A0743AF0900814E064017009C221
:102470009190049D7467800590049D7461F012072B
:10248000A190049BE054FEF0E05402603190619A08
:10249000743FF0A3745AF09061A0747FF090081418
:1024A000E064017009D29190049D747180059004DC
:1024B0009D746AF01207A190049BE054FDF0E05473
:1024C0000460139022ECE493906186F01207A790C9
:1024D000049BE054FBF0E0540860139022EDE49379
:1024E000906186F01207A790049BE054F7F0E05447
:1024F0001060139022EEE493906186F01207A7908B
:10250000049BE054EFF0E05420600A1207A7900407
:102510009BE054DFF0A3E05401600D1209C31207E1
:10252000AD90049CE054FEF0740812164302277A22
:1025300074EC1216BB74F412162D8518828519835B
:10254000AC82AD83758383758274740412154090D8
:1025500022EC93F460030226BD907808E0C3940255
:10256000500302269D7404121697AC82AD837583C6
:10257000827582CB7408121540851882851983856F
:1025800082128583137404121697AC82AD83750E84
:10259000FF750FFF7FFF7E00750C48750D78801565
:1025A00074086E700302263074096E7003022630C0
:1025B000740A6E607B850C82850D8378081214E5A1
:1025C0008C828D83A909E50AC9F8881074187808E7
:1025D000121400E5104508F8C3E098A3E099850CB3
:1025E00082850D8378081214E540188C828D8374DF
:1025F000187808121400E5104508F8E0C398F8A30D
:10260000E0801C74187808121400E5104508FAE9F7
:10261000FB8C828D83E0F8A3E0F9EAC398F8EB998C
:10262000F9C3E8950EE9950F5006880E890FEEFF65
:102630000EE50C2404F50CE50D3400F50DEEC39405
:102640001350030225A074FF650E700474FF650F1C
:1026500060238F087402780812161A74482508F54A
:102660008274783509F58378081214E5851282851D
:102670001383E508F0EC24020C0CED3400FD851208
:1026800082851383A3858212858313740C12169797
:10269000E5826C7003E5836D600302258E75080189
:1026A00075090078081218CE7402121697AC82AD24
:1026B000837ABB7B08120FE77402121643740C1264
:1026C00016437F0C02178DC082C0839061AE746880
:1026D000F0A3746AF090624574FBF0A304F053F425
:1026E000FD43FE029008147401F09061A0E0643A8A
:1026F00090619A70237433F0A37455F09061A074C4
:102700003AF0740164017009C29190049D7467806D
:102710002890049D74618021743FF0A3745AF09056
:1027200061A0747FF0740164017009D29190049DDE
:102730007471800590049D746A8000F002277AC04D
:1027400082C0839007F2E0640170159007F8E0649E
:10275000016009E0700AA3E064017004790C801242
:10276000900809E06401700890080FE0640160ECD3
:10277000790002277AE0F9122291D083D0820201F7
:1027800032C082C0839007FC7425F09007FA740170
:10279000F0A3E4F07A01FB120C279007E8E024167E
:1027A000F8A3E03400F98882898374E7F0A3740900
:1027B000F09007F9E0640170169007F8E070107966
:1027C00001120C87120C57120C817900120C9380A5
:1027D000A9C082C08374FA12162D9007F1E064013B
:1027E00070081209CF9007F1E4F075E1F19007E865
:1027F000E02415F8A3E03400F9888289837401F09D
:102800009007F3E0640170769082E8C082851882B8
:10281000851983AC82AD83758382D08274061215CC
:102820004075D90D9007EAE0C4333354C04403F532
:10283000D978E8790788828983A3A3A3E0F5D988AA
:10284000828983A3A882A983E864EE7003E9640700
:1028500070E3851882851983A882A9838882898379
:10286000E0F5D9A3A882A9837406121697E58268B9
:102870007003E5836970E575E1957901800279005F
:10288000120C2D9010227431F0A3740BF0A3743746
:10289000F0A3740BF0A37431F0A3740BF0A37431A4
:1028A000F0A3740BF0A37401F0A3740BF0A37401F4
:1028B000F0A3740BF0A3743DF0A3740BF0901030F0
:1028C0007401F0A3740BF0A37401F0A3740BF0A3D4
:1028D0007401F0A3740BF0A37401F0A3740BF0A3C4
:1028E0007401F0A3740BF0A37401F0A3740BF090C7
:1028F00007EAE0F97AEB7B07120C099007FCE0F994
:102900001222917901120C33908360121503120C7C
:102910004B90833C121503120C157900120C9F90FA
:1029200007E8E02414F8A3E03400F988828983746E
:1029300016F09004997405F00402252A74F7121613
:10294000BB8908A808E875F006A4C8AAF02AF9749B
:10295000C928FE740439FF900801E0F97A027B0867
:10296000120C0990080FE0701A7900120C69900798
:10297000DBE0700B79007ADC7B07120C0F800979A1
:102980000180F37901120C6975E1F175D923900882
:1029900001E0C4333354C04405F5D978FF79078882
:1029A000828983A3A3A3E0F5D988828983A3A8821F
:1029B000A983E864057003E9640870E375D90075BC
:1029C000D90075D90075D90075D90075D900EEF810
:1029D000EFF9E82404FAE93400FBE82422F582E95F
:1029E0003400F583E0F5D988828983A3A882A9837E
:1029F000EA687002EB6970E2EEF8EFF9E824031A76
:102A0000E93400FBE82426F582E93400F583E0F59B
:102A1000D988828983A3A882A983EA687002EB69B6
:102A200070E2EE242BF582EF3400F583E0F5D9EE69
:102A3000F8EFF9E824021AE93400FBE8242CF582C7
:102A4000E93400F583E0F5D988828983A3A882A9B7
:102A500083EA687002EB6970E2EEF8EFF9E8242E81
:102A6000F582E93400F583E0F5D988828983A3A84B
:102A700082A983EA687002EB6970E2EEF8EFF9E888
:102A80002430F582E93400F583E0F5D98882898322
:102A9000A3A882A983EA687002EB6970E2EEF8EFFE
:102AA000F9E82432F582E93400F583E0F5D988822B
:102AB0008983A3A882A983EA687002EB6970E2EEB9
:102AC000F8EFF9E824050A0A0AE93400FBE8245D76
:102AD000F582E93400F583E0F5D988828983A3A8DB
:102AE00082A983EA687002EB6970E2EE2437F5820E
:102AF000EF3400F583E0541FF8EE242AF582EF341A
:102B000000F583E0C43354E048F5D975E1959010A1
:102B1000227407F0A3740BF0A3740DF0A3740BF0F0
:102B2000A37401F0A3740BF0A37401F0A3740BF071
:102B3000A37401F0A3740BF0A37401F0A3740BF061
:102B4000A37413F0A3740BF09010307401F0A3740D
:102B50000BF0A37401F0A3740BF0A37401F0A37441
:102B60000BF0A37401F0A3740BF0A37401F0A37431
:102B70000BF0A37401F0A3740BF090080EE0F912AF
:102B80002291908360121503120C4B90833C121516
:102B900003120C1590600DE4F07901120C9F900463
:102BA000997406F002319774EC1216BB9007FFE09F
:102BB000F8A3E0F5838882A3A378101214E59008A7
:102BC00010E0FAF875F006A4C8ACF02CF974F728F8
:102BD000F582740439F583E0FEA3E0FFEEC333FE13
:102BE000EF33FF8E0CF50D750E00750F0085100884
:102BF00085110985120A85130B90837C78081214BD
:102C00004B78081218CA85100885110985120A85A3
:102C1000130B7808790C1214387810790C12139170
:102C2000E4F50EF50F7808790C1214718A0C750D05
:102C3000007403780C12161A7808790C1214389064
:102C4000832878081214ACAA08AB09AC0AAD0B12A1
:102C5000222974041216438A088B09A808A909C3FB
:102C6000EE98EF995006E82EF8E93FF9E890600EEB
:102C7000F0E9A3F0EEA3F0EFA3F090600D74C1F0C3
:102C80000226C2C082C0839007E8E0F8A3E0F58383
:102C90008882A3A3A3A3A3A3E4F0A3F09007FC025C
:102CA0002775C082C0839007FFE0F8A3E0F5838812
:102CB00082A3A3A3A3A3A3E4F0A3F090080E02278A
:102CC0007502013274F61216BB9061D0E0F8748080
:102CD000C398FCEA2483F582EB3400F583E06004BA
:102CE000780480027800E8240EF8ECC398500302C0
:102CF0002E457E0C900818E4F0EA2477F582EB3438
:102D000000F583E0900819F0EA2478FCEB3400FD2C
:102D1000781A79087F028C828D83E088828983F01B
:102D20008C828D83A3AC82AD8388828983A3A882A1
:102D3000A9831FEF70E0EA247AFCEB3400FD7F02E8
:102D40008C828D83E088828983F08C828D83A3AC12
:102D500082AD8388828983A3A882A9831FEF70E054
:102D6000EA247CFCEB3400FD7F028C828D83E088BA
:102D7000828983F08C828D83A3AC82AD8388828923
:102D800083A3A882A9831FEF70E0EA247EFCEB34C2
:102D900000FD7F028C828D83E088828983F08C82A3
:102DA0008D83A3AC82AD8388828983A3A882A98303
:102DB0001FEF70E0EA2475FCEB3400FD8A828B8300
:102DC000A3A3A3A3A3E0F508A3E0F5098C828D8358
:102DD000E02508F0A3E03509F07F028C828D83E0C6
:102DE00088828983F08C828D83A3AC82AD838882B4
:102DF0008983A3A882A9831FEF70E0EA2483F58268
:102E0000EB3400F583E06019750818750908780837
:102E10001218CE7C0C7903120AF574021216437E46
:102E20001074012EF5D975D903758218758308EED3
:102E3000FFE0F5D9A31FEF70F875E1957904120C46
:102E40005179018002790002337974F61216BB9031
:102E500061D0E0F87480C398FCEA2483F582EB34F7
:102E600000F583E06004780480027800E8240AF822
:102E7000ECC3985003022F3A7508089008187401A3
:102E8000F07CE27D07781979087E058C828D83E0DD
:102E900088828983F08C828D83A3AC82AD83888203
:102EA0008983A3A882A9831EEE70E0EA2481FCEB4B
:102EB0003400FD8A828B83A3A3A3A3A3E0FEA3E037
:102EC000FF8C828D83E02EF0A3E03FF07E028C82A7
:102ED0008D83E088828983F08C828D83A3AC82AD60
:102EE0008388828983A3A882A9831EEE70E0EA24E6
:102EF00083F582EB3400F583E0601A7508187509D4
:102F00000878081218CE7C087903120AF5740212A8
:102F1000164375080C74012508F5D975D903758217
:102F200018758308AE08E0F5D9A31EEE70F875E1B8
:102F3000957904120C517901800279000233797479
:102F4000F71216BBEAFEEBFF9061D0E0600302309F
:102F50003675D91875D90375D903EEF8EFF9E82459
:102F600008FAE93400FBE8249CF582E93400F58393
:102F7000E0F5D988828983A3A882A983EA687002D0
:102F8000EB6970E2EEF8EFF9E82402FAE93400FBAD
:102F9000E824A4F582E93400F583E0F5D988828934
:102FA00083A3A882A983EA687002EB6970E2EE2429
:102FB00094F582EF3400F583E5822408F8E5833444
:102FC00000F9E0F5D9A3E865827003E9658370F242
:102FD000EE2488F582EF3400F583E5822404F8E5D9
:102FE000833400F9E0F5D9A3E865827003E96583CD
:102FF00070F275E1957908EE2494FAEF3400FB1233
:103000000AAD7904EE2488FAEF3400FB120AAD7998
:1030100004120C51EE2470F582EF3400F583E0F8D1
:10302000A3E0F9EE2472F582EF3400F583E8F0A313
:10303000E9F079018002790002319774F61216BB2B
:10304000EAFEEBFF9008187406F075081875090879
:1030500078081218CE7C017903120AF57402121650
:103060004375D90675D903758218758308E0F5D9BB
:10307000A3E582641D7004E583640870F075E19532
:10308000900499E06408701EEE2470F582EF34001D
:10309000F583E0F8A3E0F9EE2472F582EF3400F551
:1030A00083E8F0A3E9F0790102337974F61216BBD4
:1030B000EAFEEBFF9061D0E0705E900818740AF0B1
:1030C00075081875090878081218CE7C0179031262
:1030D0000AF5740212164375D90675D9037582185C
:1030E000758308E0F5D9A3E582641D7004E5836467
:1030F0000870F075E195EE2470F582EF3400F583E9
:10310000E0F8A3E0F9EE2472F582EF3400F583E8ED
:10311000F0A3E9F079018002790002337974F612A4
:1031200016BBEAFEEBFF9061D0E070667801900874
:1031300018740BF0900499E06407701975081875FD
:10314000090878081218CE7C017903120AF5740276
:103150001216437805740128F5D975D903758218BC
:10316000758308E8FAE0F5D9A31AEA70F875E195D5
:10317000EE2470F582EF3400F583E0F8A3E0F9EE79
:103180002472F582EF3400F583E8F0A3E9F07901C9
:10319000800279000233797F0102178D74F61216CE
:1031A000BBEAFEEBFF9061D0E0F87480C398FAEEC2
:1031B0002483F582EF3400F583E060047804800214
:1031C0007800E8240BF8EAC39850030232727D09B4
:1031D0009008187408F0EE24E5F8EF3400F97A1935
:1031E0007B087C0888828983E08A828B83F08882CE
:1031F0008983A3A882A9838A828B83A3AA82AB83B3
:103200001CEC70E0EE2483F582EF3400F583E0607F
:103210001D75081875090878081218CE7C097903FD
:10322000EEFAEFFB120AF574021216437D0D7401DB
:103230002DF5D975D9037582187583088D08E0F5C9
:10324000D9A31508E50870F675E1957904120C51BB
:10325000EE2470F582EF3400F583E0F8A3E0F9EE98
:103260002472F582EF3400F583E8F0A3E9F07901E8
:103270008002790002337974F61216BBEAFEEBFF86
:103280009061D0E0F87480C398FAEE2483F582EF61
:103290003400F583E06004780480027800E82408B4
:1032A000F8EAC39850030233777D06900818740C2F
:1032B000F09004B6E0900819F07AB77B04781A7998
:1032C000087C028A828B83E088828983F08A828BE1
:1032D00083A3AA82AB8388828983A3A882A9831C43
:1032E000EC70E07AB97B047C028A828B83E088826E
:1032F0008983F08A828B83A3AA82AB8388828983A5
:10330000A3A882A9831CEC70E0EE2483F582EF343D
:1033100000F583E0601D7508187509087808121813
:10332000CE7C067903EEFAEFFB120AF57402121650
:10333000437D0A74012DF5D975D9037582187583FB
:10334000088D08E0F5D9A31508E50870F675E19534
:103350007904120C51EE2470F582EF3400F583E00D
:10336000F8A3E0F9EE2472F582EF3400F583E8F07B
:10337000A3E9F07901800279007F0202178D74F6CB
:103380001216BBEAFEEBFF9061D0E0F87480C398A0
:10339000FAEE2483F582EF3400F583E060047804CC
:1033A00080027800E82404F8EAC3985003023458F5
:1033B0007802900818E8F0EE24F7F582EF3400F573
:1033C00083E0900819F0EE2483F582EF3400F58352
:1033D000E0601B75081875090878081218CE7C0281
:1033E0007903EEFA120AF574021216437806740194
:1033F00028F5D975D9037582187583088808E0F512
:10340000D9A31508E50870F675E195EE2474F582E8
:10341000EF3400F583E4F0EE2480F582EF3400F51C
:1034200083E4F0EE241DF582EF3400F583E4F0A38D
:10343000F07904120C51EE240DF582EF3400F5837F
:10344000E0F8A3E0F9EE2472F582EF3400F583E8AA
:10345000F0A3E9F079018002790002337974F61261
:1034600016BB9061D0E0F87480C398FCEA2483F521
:1034700082EB3400F583E06004780480027800E891
:103480002404F8ECC398405B79029008187407F0A4
:10349000EA24F8F582EB3400F583E0900819F0EAAD
:1034A0002483F582EB3400F583E060187508187505
:1034B000090878081218CE7C0209120AF574021263
:1034C00016437906740129F5D975D90375821875E3
:1034D0008308E9F8E0F5D9A318E870F875E1957963
:1034E000018002790002337974F51216BBE9FCA25F
:1034F000AFE433F50AC2AF7D0080010DEA246FF519
:1035000082EB3400F583E0F8EDC398501A8D08EA99
:103510002508F8EB3400F9E8246BF582E93400F56E
:1035200083E06C70D68024EA246FF8EB3400F9E075
:10353000FEEA2EFAEB3400FBEA246BF582EB340052
:10354000F583ECF088828983E004F0E50AA2E0923A
:10355000AF7F0302178D74F61216BBA2AFE433FDE2
:10356000C2AFEA246FF582EB3400F583E014F07CFF
:103570000060368C08EA2508F8EB3400F9E8246C82
:10358000F582E93400F583E0C0E0E8246BF582E9D8
:103590003400F583D0E0F00CEA246FF582EB3400C0
:1035A000F583E0F8ECC39840CAEA246EF582EB3468
:1035B00000F58374FFF0EA246AF582EB3400F583AA
:1035C000E4F0EDA2E092AF023379C082C083E5A8B7
:1035D000F8C2AFEA246BF582EB3400F583E9F0EA38
:1035E000246AF582EB3400F583E4F0E8A2E792AFB9
:1035F00002277A74F31216BBEAFEEBFFECFAEDFB3E
:103600008A828B83A3A3A3A3E0541FF0EE2436F594
:1036100082EF3400F583E4F0F50AEEFCEFFD8A82D8
:103620008B83E0C0E0EC245DF582ED3400F583D0BF
:10363000E0F0750B00E50A33333354F8F50C8A8259
:103640008B83E0F508750900E50B78081215FBE59A
:1036500008A2E0502FEE2436F8EF3400F988828972
:1036600083E0F508EE2508F508EF3400F509E508D4
:103670002438F582E5093400F583E50CF088828969
:1036800083E004F0050B050CE50BC3940840AF057F
:103690000A8A828B83A3AA82AB838C828D83A3AC9C
:1036A00082AD83E50AC39405500302361E7F0502EE
:1036B000178D74F71216BB9004C5E0640370077A87
:1036C000007B000231977B0078C57904888289836A
:1036D000A3A3A3A3A3A3E060030239ACEBF875F0A6
:1036E00006A4C8AAF02AF974C928F8740439F9881C
:1036F000828983A3A37401F088828983A3A3A3E4AE
:10370000F0EB88828983A3A3A3A3F0E82462F58267
:10371000E93400F5837401F0E82465F582E93400AA
:10372000F583E4F0A3F0E82468F582E93400F5833A
:103730007401F088828983A3A3A3A3A3E4F0A3F078
:1037400088828983A3A3A3A3A3A3A3F0A3F0E8245F
:103750000FF582E93400F5837401F0E82435F58231
:10376000E93400F583E4F0908370121503E824181F
:10377000F582E93400F58312150FE8241CF582E97F
:103780003400F583E4F0E8241DF582E93400F58384
:10379000E4F0A3F0E82480F582E93400F583E4F056
:1037A000E82474F582E93400F583E4F0E82469F54F
:1037B00082E93400F5837480F0E8246AF582E93404
:1037C00000F583E4F0E8246FF582E93400F583E442
:1037D000F0E82467F582E93400F583E4F0E824EDAD
:1037E000F582E93400F583E4F0E824EEF582E9346B
:1037F00000F583E4F0E824EFF582E93400F583E492
:10380000F0E824F0F582E93400F583E4F0E824F1EF
:10381000F582E93400F583E4F0A3F0E824F3F582BF
:10382000E93400F583E4F0A3F0E824F6F582E93406
:1038300000F583E4F0E82483F582E93400F583E4BD
:10384000F0E824D3F582E93400F583E4F0E824D4E9
:10385000F582E93400F583E4F0908370121503E8F3
:1038600024D5F582E93400F58312150F9083701288
:103870001503E824D9F582E93400F58312150FE821
:1038800024DFF582E93400F583E4F0E824E1F582F1
:10389000E93400F583E4F0E824DDF582E93400F54D
:1038A00083E4F0E824E2F582E93400F583E4F0E80B
:1038B00024E3F582E93400F583E4F0E824F9F582A5
:1038C000E93400F583E4F0A3F0E824FBF582E93461
:1038D00000F583E4F0A3F0E824FDF582E93400F577
:1038E00083E4F0A3F0E824FFF582E93400F583E4F3
:1038F000F0A3F0E8FAE9FBEA2404FCEB3400FDEA6B
:10390000246BF582EB3400F58374FFF08A828B839D
:10391000A3AA82AB83EC6A7002ED6B70E2E8FAE96D
:10392000FB7CE27D078C828D83E0C0E0EA245DF5BC
:1039300082EB3400F583D0E0F08C828D83A3AC82DF
:10394000AD838A828B83A3AA82AB83EC64E7700386
:10395000ED640770D0E8FAE9FB7CAC7D048C828DC5
:1039600083A3E0C0E0EA24E5F582EB3400F583D0E0
:10397000E0F08C828D83A3AC82AD838A828B83A39B
:10398000AA82AB83EC64B47003ED640470CF90043E
:10399000C5E004F06401700D88828983A3A3A3A30A
:1039A000E09004C7F0E8FAE9FB0236C30BE824060E
:1039B000F8E93401F9EBC3940340030236BF023641
:1039C000CCC082C0838A828B83A3A3A3E0600F8ACA
:1039D000828B83A3A3A3E4F09004C6E014F09004C8
:1039E000C5E014F070069004C774FFF08A828B83E0
:1039F000A3A3E4F09007E7E0700D9004C6E0640133
:103A000070057900120C1B02277AC082C08378C52A
:103A1000790488828983A3A3A3A3A3A3A3E4F08842
:103A2000828983A3A3A3A3A3A3F0E82406F8E9341F
:103A300001F9E864D77003E9640770D69004C5E41F
:103A4000F0A3F0A374FFF075E1F102277A74F3128A
:103A500016BB750800750900750C00750AC9750B51
:103A600004AE0AAF0B8E828F83A3A3A3E0603FE571
:103A7000084509700AEEF8EFF988088909802F8552
:103A80000882850983E0F8A3E0F5838882A3A31266
:103A900018E18E828F83E0F8A3E0F5838882A3A3E8
:103AA0001215031221CC7404121643E960C7050CE9
:103AB000EE2406F50AEF3401F50BE50CC394034040
:103AC000A0850882850983A3A3A3A3E0F90236ADEC
:103AD00074F61216BB78FF79FF7508007EC97F0463
:103AE000EEFCEFFD8C828D83A3A3A3E0606474FFE2
:103AF00068700374FF697025EC2474F582ED34005E
:103B0000F583E064017011EC247AF582ED3400F560
:103B100083E0F8A3E0F9803AEC242E80EDEC2474E5
:103B2000F582ED3400F583E064017014EC247AF53D
:103B300082ED3400F583C3E098A3E099501480C768
:103B4000EC242EF582ED3400F583C3E098A3E099D0
:103B500040C60508EE2406FEEF3401FFE508C394D5
:103B6000035003023AE0C3EA98EB994004E8FAE90B
:103B7000FB02337974F61216BBEAFEEBFF8E828FDE
:103B800083A3A3A3E0600F8E828F83A3A3A3E4F09B
:103B90009004C6E014F09004C5E014F070069004A0
:103BA000C774FFF08E828F83A3A3E4F09007E7E051
:103BB000700D9004C6E0640170057900120C1BEED4
:103BC0002465F582EF3400F583E0F8A3E0F9E849D5
:103BD0006029EE2465F8EF3400F9880889098882A5
:103BE000F583E0FCA3E0FD9004C7E0FA7B00120738
:103BF000D1850882850983E4F0A3F0EEFAEFFB1289
:103C00000B7302337974F71216BBEAFEEBFF8E8258
:103C10008F83A3A3A3A3E0FA7B00120819EEFAEFA7
:103C2000FB120A6B120B55023197C082C0837C00D5
:103C30007AC97B04EAF8EBF988828983A3A3A3E01D
:103C4000601EE8246FF582E93400F583E06011E836
:103C5000246BF582E93400F583E07004790180116A
:103C60000CEA2406FAEB3401FBECC3940340C5795B
:103C70000002277AC082C08378AC79048882898365
:103C8000A3E4F088828983A3A882A983E864B4703E
:103C900003E9640470E69004AD740102273BC0821E
:103CA000C08374FC12162D90837012150385188240
:103CB00085198312150F120AB3E9851882851983B5
:103CC000F0120AB37401121697E9F0120AB37402E3
:103CD000121697E9F085188285198312150374046A
:103CE00002252A74F61216BBEAFEEBFFEC2403F859
:103CF000ED3400F988088909EC2407F8ED3400F95F
:103D0000E8FCE9FD8C828D83E0F8A3E0F985088268
:103D1000850983E0FAA3E0FB1215A2EE240DF582DB
:103D2000EF3400F583E8F0A3E9F08C828D83E0F8AE
:103D3000A3E0F9850882850983E0FAA3E0FB121568
:103D4000A28B09EA45096013EE240DF582EF3400D9
:103D5000F583E02401F0A3E03400F002337974F637
:103D60001216BBEAFEEBFFEE242EF582EF3400F5CF
:103D700083E0FCA3E0FD780079FAECFAEDFB121584
:103D8000A2EE2470F582EF3400F583E8F0A3E9F0A9
:103D9000780079FAECFAEDFB1215A28B09EA4509D5
:103DA0006013EE2470F582EF3400F583E02401F017
:103DB000A3E03400F002337974F01216BBEAFEEB94
:103DC000FF741012169778081214E5120BE58A0C8E
:103DD0008B0D8C0E8D0F9083A8780C12144B908352
:103DE00028780C1214AC780C1218CA8E828F83E0DB
:103DF000F8A3E0F5838882A3A31215031221CC74E3
:103E000004121643E96003023F058E828F83E0248B
:103E100002F8A3E03400F9E8FAE9FB8A828B8378A0
:103E20000812145E90832878081214E58A828B8326
:103E300078081214BFEE240BF582EF3400F583C02E
:103E400082C0838E828F83A3A3A3A3A3E02401F85F
:103E5000A3E03400F9D083D082E0687003A3E06966
:103E600070057901023F078E828F83A3A3A3A3A3CA
:103E7000A3A3E02401F0A3E03400F0EE2474F58263
:103E8000EF3400F583E064017036EE2475F582EFBF
:103E90003400F583E0F8A3E0F98E828F83A3A3A317
:103EA000A3A3A3A3E0687003A3E0697013EE2475D5
:103EB000F582EF3400F583E02401F0A3E03400F054
:103EC000EE2480F582EF3400F583E064017036EE75
:103ED0002481F582EF3400F583E0F8A3E0F98E82C7
:103EE0008F83A3A3A3A3A3A3A3E0687003A3E069A4
:103EF0007013EE2481F582EF3400F583E02401F0A5
:103F0000A3E03400F079007F0802178D74F71216D1
:103F1000BB9004C7E0F875F006A4C8AAF02AF974AB
:103F2000C928FE740439FF8028EE2465F8EF3400B8
:103F3000F988828983E0FCA3E0FD88828983E4F02C
:103F4000A3F08E828F83A3A3A3A3E0FA7B001207C2
:103F5000D1EE2465F582EF3400F583E0F8A3E0F9B3
:103F6000E849604FEE2464F582EF3400F583E0F514
:103F70000878081218D2EE2463F582EF3400F58336
:103F8000E0F9EE2465F582EF3400F583E0FCA3E070
:103F9000FDEEFAEFFB120AA17401121643E96089E3
:103FA000EE2465F582EF3400F583E0F8A3E0F9E84C
:103FB0004970137C007D008E828F83A3A3A3A3E0AE
:103FC000FA7B001207D102319774F21216BBEAFE97
:103FD000EBFF890A740E121697E0FAEE2462F5825E
:103FE000EF3400F583E0640160030240959061D0F6
:103FF000E0F87480C398F50CEE2483F582EF34006A
:10400000F583E060047804800278008908E928F8E4
:10401000E43400F9E824020808E93400F9E50C98D2
:10402000E499A2D265D0334068EA7005750B02802E
:1040300003750B01E0603975090078081218CE7A13
:10404000187B08120AD774021216437508187509EE
:104050000878081218CEAC0AA90BEEFAEFFB120A88
:10406000F574021216437404250AF50A7C187D08BB
:104070007401250AF5D9850BD9E50A600D8C828D6E
:1040800083F8E0F5D9A318E870F875E19579008018
:10409000067907800279FF7F0602178DC082C083F0
:1040A000E960208C828D83E08A828B83F08C828D04
:1040B00083A3AC82AD838A828B83A3AA82AB83194C
:1040C000E970E0ECFAEDFB02277AC082C0837869E0
:1040D000790888828983A3A3A3A3A3A3E4F0888299
:1040E0008983A3A3A3A3A374FFF0E82418F8E934F9
:1040F00000F9E864C97003E9640870D690086B742D
:10410000FFF090086AE4F0900869F090086CF0A362
:10411000F00257F274EC1216BB90086CE0F508A39D
:10412000E0F509E508450970061209B7024DC18599
:104130000882850983E014601814601524FE60115C
:1041400024C4700302488324C07003024883024DD4
:10415000C1E0F9120B678A0A8B0BAE0AAF0B900411
:10416000C6E07003024501120A5FE9F875F006A483
:10417000C8AAF02AF974C928F50C740439F50D851C
:104180000C82F583E0F50AA3E0F50BAC0AFDEEFA2C
:10419000EFFB120B61E9F50E7402650E7003024429
:1041A000C08E828F83E024FE600A24FE70030243E7
:1041B000B8024DC1EE65087003EF65096021120970
:1041C000D59007F9E0640170169007F8E070107957
:1041D00001120C87120C57120C817900120C8DE51C
:1041E0000E6021E5082415F582E5093400F583E029
:1041F00060129007F4E0F8A3E0F9A3E0687003A36D
:10420000E0697026120BE58A0C8B0D8C0E8D0F90D9
:104210008394780C12144B908328780C1214AC8E73
:10422000828F83A3A3780C1214F4E5082415F58279
:10423000E5093400F583E0640160030242DE850A8B
:1042400082850B83A3A3780C1214E5908390780CDD
:1042500012144B780C1218CA8E828F83A3A3C082CB
:10426000C0839007F6E0F508A3E085080CF50DE49F
:10427000F50EF50FD083D082780C12144BAA0CAB3C
:104280000DAC0EAD0F1221CC7404121643E9703C34
:104290008E828F83A3A3C082C0839007F6E0F508C7
:1042A000A3E0F509E4F50AF50BD083D08278081273
:1042B000144B90832878081214ACEE240EF582EF8C
:1042C0003400F58378081214F40243B0850A82851D
:1042D0000B83A3A378081214E590839080CFEE247B
:1042E0000EF582EF3400F5831218E18E828F83A3DE
:1042F000A31215031221CC7404121643E964016061
:10430000030243B0850A82850B83A3A3780C1214A1
:10431000E5908390780C12144B780C1218CA8E8298
:104320008F83A3A3C082C0839007F6E0F508A3E0C3
:1043300085080CF50DE4F50EF50FD083D082780CCE
:1043400012144BAA0CAB0DAC0EAD0F1221CC7404A1
:10435000121643E9701F8E828F83A3A3C082C0838D
:104360009007F6E0F508A3E0F509E4F50AF50BD0AF
:1043700083D0828010850A82850B83A3A3780812DC
:1043800014E5908390780812144B908328780812D3
:1043900014ACEE240EF582EF3400F5837808121485
:1043A000F49007FCE06427700474258002E004F0B8
:1043B00090086B7402024DB9EE65087003EF650951
:1043C0006031900810E0F91209DB850882850983C5
:1043D000E06402701E9007F9E0640170169007F81F
:1043E000E070107900120C87120C57120C817901C1
:1043F000120C8DE50E601290080AE0F8A3E0F9A314
:10440000E0687003A3E0697026120BE58A0C8B0D3F
:104410008C0E8D0F908394780C12144B9083287817
:104420000C1214AC8E828F83A3A3780C1214F48523
:104430000A82850B83A3A3780C1214E590839078ED
:104440000C12144B780C1218CA8E828F83A3A3C04F
:1044500082C08390080CE0F508A3E085080CF50DF8
:10446000E4F50EF50FD083D082780C12144BAA0C11
:10447000AB0DAC0EAD0F1221CC7404121643E970D3
:104480001F8E828F83A3A3C082C08390080CE0F5A7
:1044900008A3E0F509E4F50AF50BD083D08280107B
:1044A000850A82850B83A3A378081214E590839074
:1044B000780812144B90832878081214AC024DA28D
:1044C000850882850983E0640270139007F9E0642F
:1044D00001700B9007F8E070057900120C87E50C6D
:1044E0002404FEE50D3400FF8E828F83E0F9120B69
:1044F0009D8E828F83E09004C7F0AA0AAB0B024D19
:10450000BEEE65087003EF65098E828F836003023B
:1045100046E5E024FE600A24FE7003024640024D98
:10452000BAEE2415F582EF3400F583E06041900780
:10453000F4E0F8A3E0F9A3E0687003A3E069602F5A
:10454000120BE58A088B098C0A8D0B90836C780816
:1045500012144B78081218CA8E828F83A3A31215E7
:10456000031221CC7404121643E96003024DBA12FF
:104570000BE58A088B098C0A8D0B908394780812BE
:10458000144B90832878081214AC8E828F83A3A3D7
:1045900078081214F4EE2415F582EF3400F583E068
:1045A000640170348E828F83A3A3C082C08390077E
:1045B000F6E0F508A3E0F509E4F50AF50BD083D0A1
:1045C00082780812144BEE240EF582EF3400F58346
:1045D00078081214F4024DBAEE240EF582EF34007E
:1045E000F5831218E18E828F83A3A3121503122183
:1045F000CC7404121643E964016003024DBA8E8242
:104600008F83A3A3C082C0839007F6E0F508A3E0E0
:10461000F509E4F50AF50BD083D082780812144B23
:10462000EE240EF582EF3400F58378081214F4902E
:1046300007FCE0642770057425024DB9E00480F999
:1046400090080AE0F8A3E0F9A3E0687003A3E0692A
:10465000602C120BE58A088B098C0A8D0B90836CF9
:10466000780812144B78081218CA8E828F83A3A37D
:104670001215031221CC7404121643E97064EE245F
:1046800002F508EF3400F509120BE58A0C8B0D8C4E
:104690000E8D0F908394780C12144B908328780C15
:1046A0001214AC850882850983780C1214F48508ED
:1046B00082850983C082C08390080CE0F508A3E0DE
:1046C000F509E4F50AF50BD083D082780812144B73
:1046D000EE240EF582EF3400F58378081214F412FC
:1046E00009E1024DBAE024FE600A24FE700302478D
:1046F000AB024DC11209D59007F9E0640170169024
:1047000007F8E070107901120C87120C57120C8117
:104710007900120C8D9007F4E0F8A3E0F9A3E068AB
:104720007003A3E069602F120BE58A088B098C0ADD
:104730008D0B90836C780812144B78081218CA8E6F
:10474000828F83A3A31215031221CC740412164383
:10475000E960030243B0EE2402F508EF3400F509E6
:10476000120BE58A0C8B0D8C0E8D0F908394780CB8
:1047700012144B908328780C1214AC85088285099A
:1047800083780C1214F4850882850983C082C08363
:104790009007F6E0F508A3E0F509E4F50AF50BD07B
:1047A00083D082780812144B0242BA900810E0F9C4
:1047B0001209DB850882850983E06402701E900778
:1047C000F9E0640170169007F8E070107900120C9F
:1047D00087120C57120C817901120C8D90080AE097
:1047E000F8A3E0F9A3E0687003A3E069602C120B62
:1047F000E58A088B098C0A8D0B90836C780812145B
:104800004B78081218CA8E828F83A3A31215031245
:1048100021CC7404121643E97066EE2402F8EF34DA
:1048200000F988088909120BE58A0C8B0D8C0E8D16
:104830000F908394780C12144B908328780C1214E8
:10484000AC850882850983780C1214F4850882856A
:104850000983C082C08390080CE0F508A3E0F50945
:10486000E4F50AF50BD083D082780812144BEE24BD
:104870000EF582EF3400F58378081214F41209E182
:10488000024DB49004C6E07003024C19120A5FE9AD
:10489000F875F006A4C8AAF02AF974C928F51074AE
:1048A0000439F511851082F583E0F508A3E0F509D8
:1048B0009004C7E0F875F006A4C8AAF02AF974C9F4
:1048C00028F50C740439F50D90086AE0540770035C
:1048D000024B42A3E0F9120B678A0A8B0BAE0AAFB8
:1048E0000BAC08AD09120B61E9F50E7402650E7090
:1048F00003024B42850C82850D83A3A3A3A3E0F89A
:1049000075F08AA4C8AAF02AF974CE28F50A7408AA
:1049100039F50BAA0AFB120B91AA0AAB0B120B8BEF
:1049200075128075130078121218CE7C007D60E538
:104930000A2406FAE50B3401FB120AD77402121698
:1049400043A80AA90B906195E0C0E0E82486F582AF
:10495000E93401F583D0E0F0906196E0C0E0E8240E
:1049600087F582E93401F583D0E0F0906197E0C0EB
:10497000E0E82488F582E93401F583D0E0F0906125
:1049800098E0C0E0E82489F582E93401F583D0E0BD
:10499000F08E828F83E024FE600A24FE7003024AB8
:1049A0007D024B421209D59007F9E0640170119025
:1049B00007F8E0700B120C57120C817900120C8D65
:1049C000E50E60129007F4E0F8A3E0F9A3E0687048
:1049D00003A3E0697026120BE58A0C8B0D8C0E8DFB
:1049E0000F908394780C12144B908328780C121437
:1049F000AC8E828F83A3A3780C1214F48508828571
:104A00000983A3A3780C1214E5908390780C1214F8
:104A10004B780C1218CA8E828F83A3A3C082C083E6
:104A20009007F6E0F50CA3E0F50DE4F50EF50FD0D8
:104A300083D082780C12144BAA0CAB0DAC0EAD0FC8
:104A40001221CC7404121643E9701F8E828F83A347
:104A5000A3C082C0839007F6E0F508A3E0F509E45F
:104A6000F50AF50BD083D0828010850882850983F2
:104A7000A3A378081214E59083900242AD90081029
:104A8000E0F91209DBE50E601290080AE0F8A3E0F5
:104A9000F9A3E0687003A3E0697026120BE58A0CA5
:104AA0008B0D8C0E8D0F908394780C12144B908389
:104AB00028780C1214AC8E828F83A3A3780C121466
:104AC000F4850882850983A3A3780C1214E59083EA
:104AD00090780C12144B780C1218CA8E828F83A314
:104AE000A3C082C08390080CE0F50CA3E0F50DE4B0
:104AF000F50EF50FD083D082780C12144BAA0CABB4
:104B00000DAC0EAD0F1221CC7404121643E9701FC8
:104B10008E828F83A3A3C082C08390080CE0F50827
:104B2000A3E0F509E4F50AF50BD083D08280108567
:104B30000882850983A3A378081214E59083900264
:104B400044B0E510650C7004E511650D7003024C6E
:104B500012850C82850D83A3A3A3E07003024BF69C
:104B6000850C82850D83A3A3A3A3E0F875F08AA426
:104B7000C8AAF02AF974CE28FE740839FFEEFAEFBD
:104B8000FB120B91EEFAEFFB120B8B750A80750B83
:104B900000780A1218CE7C007D60EE2406FAEF340D
:104BA00001FB120AD77402121643906195E0C0E02F
:104BB000EE2486F582EF3401F583D0E0F090619623
:104BC000E0C0E0EE2487F582EF3401F583D0E0F019
:104BD000906197E0C0E0EE2488F582EF3401F58320
:104BE000D0E0F0906198E0C0E0EE2489F582EF34E7
:104BF00001F583D0E0F0E5102404FEE5113400FF58
:104C00008E828F83E0F9120B9D8E828F83E0900459
:104C1000C7F0AA08AB09024DBE90086AE0540770BD
:104C200003024DC1A3E0F9120B678A088B09AE0895
:104C3000AF098E828F83E024FE600A24FE70030297
:104C40004D08024DC11209D59007F9E064017016B4
:104C50009007F8E070107901120C87120C57120CB3
:104C6000817900120C8D9007F4E0F8A3E0F9A3E03D
:104C7000687003A3E069602C120BE58A088B098C2D
:104C80000A8D0B90836C780812144B78081218CA9E
:104C90008E828F83A3A31215031221CC74041216E3
:104CA00043E97061EE2402F508EF3400F509120BB8
:104CB000E58A0C8B0D8C0E8D0F908394780C12145A
:104CC0004B908328780C1214AC8508828509837870
:104CD0000C1214F4850882850983C082C083900772
:104CE000F6E0F508A3E0F509E4F50AF50BD083D06A
:104CF00082780812144BEE240EF582EF3400F5830F
:104D000078081214F40243B0900810E0F91209DB9D
:104D100090080AE0F8A3E0F9A3E0687003A3E06953
:104D2000602C120BE58A088B098C0A8D0B90836C22
:104D3000780812144B78081218CA8E828F83A3A3A6
:104D40001215031221CC7404121643E97063EE2489
:104D500002F8EF3400F988088909120BE58A0C8BF8
:104D60000D8C0E8D0F908394780C12144B90832829
:104D7000780C1214AC850882850983780C1214F41F
:104D8000850882850983C082C08390080CE0F508FD
:104D9000A3E0F509E4F50AF50BD083D08278081278
:104DA000144BEE240EF582EF3400F58378081214CC
:104DB000F41209E190086B7404F0EEFAEFFB120BA9
:104DC0005B7F0C02178D74F01216BBEAFEEBFFEE50
:104DD0002402F8EF3400F988088909EE2406F8EF78
:104DE0003400F9880A890B8882F5831218E5850852
:104DF00082850983121503120BC1740212164385B2
:104E00000A82850B831218E58508828509831215AD
:104E100003120BB57402121643EE240EF582EF3422
:104E200000F583121503120BC78E828F83E0644056
:104E3000701CEE2412F8EF3400F988828983E09028
:104E40006064F088828983A3E0906065800690604A
:104E500064E4F0A3F090086CEEF0A3EFF0EE2416FB
:104E6000F582EF3400F583E0F8A3E0F58388821241
:104E700016B9906054E4F0A3F0A3F0A3F0A3F0A35C
:104E8000F0A3F0A3F0A3F0A3F0A3F0A3F09061824D
:104E9000E0C2E6F07591BFEE2415F582EF3400F51F
:104EA00083E064017003120BFDE5E170FCEE241455
:104EB000F582EF3400F583E0F46003E0F5E1EE24E1
:104EC00015F582EF3400F5837401F090049FE064DF
:104ED00001706F120BE58A088B098C0A8D0B78081C
:104EE0001218CA8E828F83A3A3121503122229746B
:104EF000041216438A088B098C0A8D0B90838C78D8
:104F00000C1214E57808790C121311740378081246
:104F10001400E50824F4F508E5093401F5099008C2
:104F200016E06003121167E4F50AF50B7808121811
:104F3000CA7A207B00900498E0F9121215740412CA
:104F400016437F0802178D74EC1216BBEAFEEBFFC6
:104F50008C088D09EE4F7005790202503C120BE56A
:104F60008A0C8B0D8C0E8D0F908308780C12144BCD
:104F7000908328780C1214AC8E828F83E0640270C8
:104F80001F9007F4E0F8A3E0F9A3E0687003A3E042
:104F90006970248E828F83A3A3780C1214F4801777
:104FA000E06404701290080AE0F8A3E0F9A3E06856
:104FB0007003A3E06960DC780C1218CA850882854A
:104FC0000983A3A312150312222974041216438A1B
:104FD000108B118C128D1390838878101212F2406E
:104FE00003024F58850882850983A3A37808121409
:104FF000E5908320780812144B78081218CA8E8224
:105000008F83A3A31215031221CC7404121643E953
:105010006003024F58908380780C12144B780C1266
:1050200018CA8E828F83A3A31215031221CC740495
:10503000121643E97004790080027901024DC174AF
:10504000F01216BB890874FF650860030251CB900B
:10505000086AE0540770030256977A007869790865
:1050600088828983A3A3A3A3A3E064047050EA7594
:10507000F018A4F8A9F0746F28F582740839F58344
:10508000E0640170487A007869790888828983A38E
:10509000A3A3A3A3E064046003025123888289834D
:1050A000A3A3A3A3A3A3E064017078EA75F018A4F6
:1050B000F8A9F0746E28FA740839FB02569B0AE8C6
:1050C0002418F8E93400F9EAC3940440937A00788C
:1050D00069790888828983A3A3A3A3A3E0640170EC
:1050E00057EA75F018A4F8A9F0746F28F5827408CF
:1050F00039F583E06401704F7A0078697908888215
:105100008983A3A3A3A3A3E0640160030251A7883A
:10511000828983A3A3A3A3A3A3E064016003025134
:10512000A780880AE82418F8E93400F9EAC394044F
:10513000500302508B0256970AE82418F8E934000D
:10514000F9EAC39404408C7A0078697908888289E6
:1051500083A3A3A3A3A3E064027061EA75F018A47B
:10516000F8A9F0746F28F582740839F583E06401BA
:1051700070597A007869790888828983A3A3A3A3E8
:10518000A3E06402707A88828983A3A3A3A3A3A364
:10519000E06401706BEA75F018A4F8A9F0746E2849
:1051A000FA740839FB806F0AE82418F8E93400F92A
:1051B000EAC3940450030250FE0256970AE82418EA
:1051C000F8E93400F9EAC3940440827A00786979F6
:1051D0000888828983A3A3A3A3A3E06508703D8800
:1051E000828983A3A3A3A3A3A3E06401702EEA751D
:1051F000F018A4F8A9F0746E28FE740839FF802F07
:105200000AE82418F8E93400F9EAC39404500302C8
:1052100051787A007B0002569B0256970AE82418C0
:10522000F8E93400F9EAC3940440A67E007F007ACE
:10523000007869790888828983A3A3A3A3A3E06582
:1052400008701BEA75F018A4F8A9F0746F28F582AD
:10525000740839F583E0640170137A0180110AE85B
:105260002418F8E93400F9EAC3940440C87A00E548
:105270000814600F14700302543424FE70030255A6
:105280008E80967B007869790888828983A3A3A39E
:10529000A3A3E064027055EB75F018A4F8A9F074AC
:1052A0006F28F582740839F583E06401704D7B0046
:1052B0007869790888828983A3A3A3A3A3E0640201
:1052C000600302536A88828983A3A3A3A3A3A3E0F4
:1052D0006401600302536AEB75F018A4F8A9F07436
:1052E0006E28F50A740839F50B0253820BE824186E
:1052F000F8E93400F9EBC39404408E7B00786979B7
:105300000888828983A3A3A3A3A3E06404600302A3
:1053100053BEEB75F018A4F8A9F0746F28F58274E9
:105320000839F583E0640160030253D07B0078699B
:10533000790888828983A3A3A3A3A3E064046003FC
:105340000253DB88828983A3A3A3A3A3A3E0640100
:1053500060030253DBEB75F018A4F8A9F0746E2813
:10536000F50A740839F50B0253F30BE82418F8E931
:105370003400F9EBC3940450030252B4750A00756B
:105380000B00EAA2E04003025426850A82850B83C3
:10539000A3A3780C1214E5908368780C12144B7850
:1053A0000C1218CA8E828F83A3A31215031221CC6C
:1053B0007404121643E9706EEEFAEF0250BA0BE86D
:1053C0002418F8E93400F9EBC394045003025301A4
:1053D000EAA2E05058EEFAEFFB80560BE82418F8EA
:1053E000E93400F9EBC394045003025332750A0008
:1053F000750B00EAA2E0502E850A82850B83A3A3D9
:10540000780C1214E5908368780C12144B780C1207
:1054100018CA8E828F83A3A31215031221CC7404A1
:10542000121643E96092AA0AAB0B02569B7A007BE4
:105430000002569B7B007869790888828983A3A340
:10544000A3A3A3E064047052EB75F018A4F8A9F0CC
:10545000746F28F582740839F583E06401704A7B23
:10546000007869790888828983A3A3A3A3A3E06451
:1054700004600302550288828983A3A3A3A3A3A384
:10548000E06401707DEB75F018A4F8A9F0746E2843
:10549000F50A740839F50B02551A0BE82418F8E9D7
:1054A0003400F9EBC3940440917B00786979088853
:1054B000828983A3A3A3A3A3E064016003025556DA
:1054C000EB75F018A4F8A9F0746F28F58274083908
:1054D000F583E0640160030255687B007869790810
:1054E00088828983A3A3A3A3A3E064016003025578
:1054F0007388828983A3A3A3A3A3A3E06401707329
:1055000080830BE82418F8E93400F9EBC3940450C5
:1055100003025465750A00750B00EAA2E04003021D
:105520005426850A82850B83A3A3780C1214E59078
:105530008368780C12144B780C1218CA8E828F83F1
:10554000A3A31215031221CC7404121643E96003BD
:105550000254260253B80BE82418F8E93400F9EB9A
:10556000C3940450030254AFEAA2E0501AEEFAEFDB
:10557000FB80180BE82418F8E93400F9EBC3940415
:1055800050030254E0808D7A007B0002569B7B0022
:105590007869790888828983A3A3A3A3A3E064011F
:1055A0007040EB75F018A4F8A9F0746F28F58274B8
:1055B0000839F583E0640170387B007869790888E0
:1055C000828983A3A3A3A3A3E064016003025653CB
:1055D00088828983A3A3A3A3A3A3E06401707402B8
:1055E00054850BE82418F8E93400F9EBC39404401F
:1055F000A37B007869790888828983A3A3A3A3A3E6
:10560000E064027063EB75F018A4F8A9F0746F28D9
:10561000F582740839F583E06401705B7B0078697A
:10562000790888828983A3A3A3A3A3E06402704FAF
:1056300088828983A3A3A3A3A3A3E064017040EBA2
:1056400075F018A4F8A9F0746E28F50A740839F5F5
:105650000B80410BE82418F8E93400F9EBC39404FB
:1056600050030255BF0255140BE82418F8E9340022
:10567000F9EBC394044080EAA2E0501B0253B80B3C
:10568000E82418F8E93400F9EBC394044094750A4F
:1056900000750B0002551A7A007B00024F4274F627
:1056A0001216BB8909750800786979088882898390
:1056B000A3A3A3A3A3A3E0600302577AE50875F0B0
:1056C00018A4F8A9F0746E28FE740839FF8E828F32
:1056D00083A37401F08E828F83E509F0120BE58EAF
:1056E000828F83A3A312150F8E828F83A3A3A3A3FC
:1056F000A3A3E4F0A3F0908348121503EE240EF563
:1057000082EF3400F58312150FEE2414F582EF3486
:1057100000F5837401F0EE2415F582EF3400F58373
:105720007401F0EE2416F582EF3400F583E4F0A363
:10573000F090086AE04509F0900869E004F064011F
:10574000600C748065096006744065097019E5088D
:1057500075F018A4F8A9F0746E28F8740839F99057
:10576000086CE8F0A3E9F0E50875F018A4F8A9F0D2
:10577000746E28FA740839FB80180508E82418F8B4
:10578000E93400F9E508C3940450030256AC7A00EA
:105790007B0080007F0202178DC082C0838A828BCB
:1057A00083E0F8A3E0F98A828B83E4F0A3F0888297
:1057B0008983A3F088828983E0F4F890086AE0582E
:1057C000F0900869E014F0700B90086CE4F0A3F01E
:1057D000900499F0801CC082C083900869E0600A40
:1057E00090086CE0FAA3E0FB80047A007B00800262
:1057F000E0F9D083D082020132C082C083E9FB7A13
:10580000007869790888828983A3A3A3A3A3E06BA6
:105810007016EA75F018A4F8A9F0746F28F5827470
:105820000839F583E0F980110AE82418F8E9340012
:10583000F9EAC3940440CE790080B7C082C0839057
:1058400008690257F074F61216BBEAFEEBFF90618E
:10585000D0E0C0E0EE2400F582EF3401F583D0E023
:10586000F09061D7E0FA9061D5E0C39A547FC0E030
:10587000EE2401F582EF3401F583D0E0F0EE24024E
:10588000F8EF3401F99061D6E0C39A547F88828999
:1058900083F0701A9061C5E0A2E45012E0A2E750D4
:1058A0000DEE2402F582EF3401F5837480F0120CC2
:1058B000B1EE2401F582EF3401F583E07034EE247B
:1058C00002F582EF3401F583E070279061C5E0A214
:1058D000E4501FE0A2E7501AEE2402F582EF3401F3
:1058E000F5837480F0EE2401F582EF3401F58374C2
:1058F00080F075E1957800EE2400F582EF3401F533
:1059000083E060279061D3E0C0E08808EE2508F5C9
:1059100082EF3400F583D0E0F008EE2400F582EF4A
:105920003401F583E0F9E8C39940D975E191025754
:105930009474F61216BBEAFEEBFF9061C8E0C0E07B
:10594000EE2403F582EF3401F583D0E0F09061CFCF
:10595000E0FA9061CDE0C39A547FC0E0EE2404F5F4
:1059600082EF3401F583D0E0F0EE2405F8EF340146
:10597000F99061CEE0C39A547F88828983F0701ACF
:105980009061C5E0A2E05012E0A2E3500DEE2405C4
:10599000F582EF3401F5837480F0120CB7EE240425
:1059A000F582EF3401F583E07034EE2405F582EFE3
:1059B0003401F583E070279061C5E0A2E0501FE05C
:1059C000A2E3501AEE2405F582EF3401F5837480CA
:1059D000F0EE2404F582EF3401F5837480F0120CAC
:1059E000BD7A00EE2403F582EF3401F583E0602FE9
:1059F0009061CBE0C0E08A08EE2508F8EF3400F9AA
:105A0000E82480F582E93400F583D0E0F00AEE2442
:105A100003F582EF3401F583E0F8EAC39840D175CD
:105A2000E18102579474F41216BB8908A808E8753E
:105A3000F08AA4C8AAF02AF974CE28FE740839FFA7
:105A4000EEFAEFFB120B91EEFAEFFB120B8B750ADD
:105A500080750B00780A1218CE7C007D60EE24065B
:105A6000FAEF3401FB120AD77402121643906195C3
:105A7000E0C0E0EE2486F582EF3401F583D0E0F05B
:105A8000906196E0C0E0EE2487F582EF3401F58363
:105A9000D0E0F0906197E0C0E0EE2488F582EF342A
:105AA00001F583D0E0F0906198E0C0E0EE2489F544
:105AB00082EF3401F583D0E0F07F0402178D74F299
:105AC0001216BB8908A808E875F08AA4C8AAF02AAB
:105AD000F974CE28F8740839F99061C6E0FDE054F5
:105AE000F0F075E1817C00E82403F582E93401F5EA
:105AF00083E0602B8C0AE8250AFAE93400FBEA24EB
:105B000080F582EB3400F583E09061CAF00CE82464
:105B100003F582E93401F583E0FAECC39A40D5E855
:105B20002405F582E93401F583E060049061CEF04C
:105B3000E82404F582E93401F583E060049061CD46
