:020000040000FA
:06000000020107021D5F72
:03002B00021FF8B9
:03003300021FDACF
:03003B000220128E
:03004300021F8E0B
:03005300021DD2B9
:03006B00021FB4BD
:10008300021C13E5C754F84401F5C77901220000A7
:100093000080FB120086B900030200F1E4791A78AC
:1000A30002B800028004F709D8FCE4791C7802B88E
:1000B30000028004F709D8FCE49002817882790F6A
:1000C3008002F0A3D8FCD9FA7A027B119001377829
:1000D300DA79018015E493A3AD82AE838A828B83A0
:1000E300F0A3AA82AB838D828E83D8E9D9E7758288
:1000F300277583BF74031201197582917583007488
:100103000012011975D00075813F751881751902A8
:10011300759F00020096C09FF59FE473D09F22D085
:1001230083D082C09FE493C0E0740193C0E0740263
:1001330093F59F228A039C03C6039003FF0000B438
:10014300000028002800283075A000A000A000A00F
:100153000000080008E001F000100010001000107B
:10016300001000100050005000500010001000D08C
:10017300070000000000000F0001000500307507B4
:10018300001000010081FF0000FF0202021584013C
:100193000000128402238401000058110219840113
:1001A3000000B102022384010000591102298401D5
:1001B3000000C702FFFF0100FF20021584010000B9
:1001C3000F840223840100008711022784000000AA
:1001D3000000022B84030000A403F20AF20AF20ACD
:1001E300F20AF20AF20AF20AF20AF20AF20AF20A2C
:1001F300F20AF20AC00CDE0CBA0C01E803053F1048
:1002030002FFFFFF00FEFF544A475104011201227F
:1002130061B70312012277B703120122A4B70312B5
:100223000122D4B703120122F5B70312012226B823
:100233000312012277B8031201228EB8031201229E
:100243003CB10312012253B10312012282B1031202
:100253000122BBB103120122E3B10312012211B245
:100263000312012228B2031201223FB20312012218
:1002730055B2031201227CB2031201228FB2031280
:100283000122A5B203120122CDB203120122F2729E
:1002930000120122F173001201221B7400120122C9
:1002A300707400120122917400120122AA740012C8
:1002B3000122AC7400120122CD7400120122D07508
:1002C300001201228D76001201225A7700120122B8
:1002D300BE770012012255780012012258780012CD
:1002E3000122DE78001201222179001201227379A2
:1002F30000120122AA7900120122307A001201228F
:10030300B97A00120122027B001201220F7B001234
:100313000122127B00120122707B00120122887BD2
:1003230000120122027C00120122057C001201222C
:10033300287C001201222B7C00120122D27C0012A5
:100343000122F57C001201220D7D001201223D7D68
:10035300001201224A7D001201224D7D001201226A
:10036300B97D00120122A77E001201225D7F0012D7
:100373000122B0BD021201228BBE02120122B9BEBC
:100383000212012239BF0212012259BF02120122B5
:1003930097BF02120122EABF0212012252C00212C7
:1003A3000122E3C002120122AEC102120122BDC426
:1003B3000212012229C6021201224CC60212012294
:1003C300B79D03120122489F03120122999F031232
:1003D3000122F89F0312012206A0031201222FA07B
:1003E300031201220080031201222880031201223A
:1003F3005680031201228D8003120122F58003121D
:1004030001223E8103120122898103120122C78145
:1004130003120122048203120122328203120122F7
:10042300D98203120122E38203120122F082031212
:100433000122238303120122E58303120122F183A4
:1004430003120122098403120122138403120122DD
:10045300918403120122AEBB03120122BCBB03121F
:100463000122D4BB03120122ECBB0312012204BC00
:10047300031201229CEC011201223AED0112012226
:10048300B2ED01120122C7EE0112012201EF0112A6
:100493000122AAEF011201227FF001120122E3F1EE
:1004A300011201223AF201120122C1F201120122C8
:1004B300A8F301120122F5F30112012283F40112C0
:1004C3000122A7F4011201227CF601120122BDF6DA
:1004D30001120122DFF601120122A4F70112012207
:1004E3006AF8011201229FFA01120122E69903120E
:1004F3000122FC9903120122229A031201224A9B30
:1005030003120122549B03120122AD9C0312012208
:10051300AD9D03120122228503120122C485031219
:100523000122F78503120122418603120122FB8770
:1005330003120122AAAD0112012228AE01120122E7
:1005430038AE011201221BAF0112012249AF011281
:10055300012254AF011201223EB001120122DAB08E
:1005630001120122DEB20112012295B4011201220D
:1005730011B501120122EEB5011201221CB90112BB
:100583000122BAB90112012217BB011201228ABC4E
:100593000112012233BD011201227CBD011201228D
:1005A300B3BD0112012258BE01120122D6BE0112AF
:1005B30001221CCF0112012271CF01120122B6D0F8
:1005C30001120122C6D001120122E9D00112012237
:1005D30034D101120122D9D101120122CFD2011249
:1005E300012299D30112012211D50112012253D5FF
:1005F30001120122F1D50112012217D601120122A3
:1006030005D8011201220AD801120122EBD90112E5
:1006130001223FDA01120122A1DA01120122C9DA11
:10062300011201226DDB011201222FDC01120122D2
:1006330060DC0112012263DC01120122ABDC011236
:100643000122EDDC0112012254DD011201228BA7EC
:10065300031201229EA703120122A7A7031201225C
:10066300C0A7031201220BA803120122E6A803125A
:10067300012275A903120122C0A9031201223D5AC6
:10068300001201224D5A00120122B05A0012012217
:10069300F55A00120122A55B001201227E5C0012B2
:1006A3000122A75C00120122D75C00120122EB5E3B
:1006B30000120122C76000120122A7620012012268
:1006C300DF63001201225866001201224467001200
:1006D30001228A6800120122976900120122D96956
:1006E30000120122116A001201222B6A0012012258
:1006F300936A001201222D6F00120122CE6F0012A5
:100703000122227000120122497000120122877017
:1007130000120122A67000120122FA7000120122B7
:100723000272001201228B72001201220EF10212D8
:10073300012218F102120122B4F1021201227FF206
:10074300021201229EF202120122C4F202120122BB
:1007530003F3021201223BF30212012264F3021299
:1007630001229EF302120122B3F30212012280F44A
:1007730002120122A3F402120122C5F40212012281
:10078300DAF40212012264F5021201229EF502122A
:10079300012212F6021201225BF60212012285F6F1
:1007A30002120122AAF602120122FA950312012271
:1007B300C49603120122A797031201221D98031264
:1007C30001225F98031201228C9903120122CF8D1B
:1007D30002120122F88D02120122118E021201224D
:1007E300568F0212012234900212012253900212F8
:1007F3000122E090021201222391021201225B9254
:1008030002120122C79202120122BD940212012296
:100813004B9702120122DE9702120122B2980212B2
:100823000122559902120122689A02120122FE9AAC
:1008330002120122A5B8031201220EB903120122EA
:1008430062B90312012291B9031201229E89031294
:1008530001220B8A03120122568A031201224B8BB7
:1008630003120122478C03120122318D031201224C
:1008730039DE0212012280DE0212012259DF021246
:10088300012254E00212012233E1021201229FE10C
:1008930002120122BBE20212012222E3021201220E
:1008A30025E30212012250E302120122C1E30212E4
:1008B300012264E40212012279E402120122C1E45A
:1008C30002120122DAE402120122DDE40212012201
:1008D30047A10312012283A103120122C1A1031222
:1008E30001228BA203120122FEA20312012239A3C9
:1008F3000312012277A303120122A7A303120122E9
:10090300CEA30312012239A4031201227BA40312F2
:1009130001222E84011201224C8601120122FB873F
:1009230001120122AB8801120122F6880112012271
:100933004189011201225389011201229389011273
:100943000122C88901120122148A01120122438A59
:1009530001120122668A01120122ED8A011201228B
:10096300D98B01120122178D01120122198E011256
:100973000122F58F011201221995011201225F95BF
:10098300011201229D9501120122D2970112012227
:10099300E6AB0312012286AD03120122842000126A
:1009A30001221B2100120122612100120122972240
:1009B300001201222E2400120122A6240012012279
:1009C300E82400120122382500120122A326001276
:1009D30001220E2900120122EA2900120122092A0A
:1009E30000120122282A001201222B2A00120122BE
:1009F300B12B00120122A62C00120122A22D0012FB
:100A03000122122E00120122842E00120122032F32
:100A130000120122DE2F00120122E5300012012212
:100A2300C431001201224F3200120122BD320012E2
:100A330001223133001201225A33001201221934E8
:100A430000120122283700120122713700120122FD
:100A5300B43700120122373800120122DB380012AA
:100A630001226C3900120122913900120122DB3973
:100A730000120122053A001201224A3A0012012211
:100A8300C53A001201221F3B00120122733C0012DF
:100A93000122303D00120122033E00120122008098
:100AA300021201225080021201225C8002120122F2
:100AB300398102120122698102120122A1810212EB
:100AC3000122208202120122588202120122AA82EA
:100AD30002120122E782021201220C850212012274
:100AE3003887021201223389021201220E8B02126D
:100AF300012246C00312012249EB021201227BEFBD
:100B030002120122CBF0021201228ABF011201223A
:100B13005CC60112012262C60112012212C901122E
:100B23000122AEFA011201225AFB0112012228FC12
:100B33000112012252FC01120122A0FE0112012224
:100B4300313E001201227B3E001201222D4B001286
:100B53000122AE4C00120122A64D001201220554BF
:100B6300001201220055001201223D5500120122FC
:100B7300605500120122A25500120122AC55001249
:100B830001229856001201228C5700120122255887
:100B93000012012289FC0212012287FD02120122A6
:100BA300DDFD021201221BFE0212012278FE021257
:100BB3000122F5FE02120122FEFE021201220AFFA9
:100BC300021201221DFF0212012259FF0212012209
:100BD3006FFF0212012201E5021201220EE5021249
:100BE300012228E50212012267E502120122A5E58E
:100BF300021201220AE6021201221FE60212012258
:100C030036E60212012244E60212012253E60212E0
:100C1300012268E6021201227DE60212012288E621
:100C23000212012294E602120122A1E6021201221B
:100C3300B0E602120122BBE602120122E0E6021232
:100C4300012289E7021201229EE702120122B3E781
:100C530002120122CDE702120122E8E70212012269
:100C630005E80212012210E802120122CCE8021266
:100C73000122B8E902120122DDE902120122E7E9A9
:100C830002120122FBE9021201221AEA02120122D4
:100C93007BEA0212012281EA0212012287EA02128E
:100CA30001228DEA0212012299EA02120122CCEA00
:100CB3000212012279B302120122A5B30212012208
:100CC30089B40212012223B70212012239B8021297
:100CD300012256B902120122F9B9021201229FBA66
:100CE300021201227A9B02120122FC9B02120122B0
:100CF300A59C02120122ED9D02120122FB9F02120A
:100D03000122E1A00212012216A10212012238A13E
:100D130002120122E1A102120122B1A30212012255
:100D2300DAA30212012252A40212012284A40212A3
:100D3300012291A402120122DCA40212012200A5C5
:100D43000212012251A7021201225BA80212012200
:100D5300B7A8021201221EDE011201222FDF0112A7
:100D6300012213E0011201221DE0011201223FE0E2
:100D7300011201224BE001120122EFE101120122D3
:100D83001CE20112012232E30112012287E3011264
:100D93000122D6E401120122ABE50112012207E68A
:100DA3000112012272E601120122A7E601120122B9
:100DB300EAE601120122B4E901120122CCE901128F
:100DC30001225DEA011201226BEA01120122B8EA53
:100DD30001120122C6EA0112012232EB01120122A1
:100DE300ADEB0112012204EC01120122DCAD03126E
:100DF300012201AE0312012277AE031201224AD768
:100E03000212012253D7021201225CD702120122DD
:100E130034D802120122E5D90212012215DA021294
:100E2300012240DA0212012270DA021201229BDA55
:100E330002120122CFDA02120122FBDA021201228C
:100E43003EDB0212012269DB02120122B0DB021235
:100E5300012205DC0212012247DC02120122A1DC7D
:100E630002120122CCDC021201221BDD021201223A
:100E73004BDD0212012276DD0212012299DD0212FC
:100E83000122E1BD031201220DBE031201223ABE6B
:100E93000312012244BE0312012254BE0312012293
:100EA300D2F60212012211F7021201229AF702125C
:100EB3000122ADF702120122F8F7021201222CF8E7
:100EC300021201226BF8021201227AF802120122A5
:100ED3002CF90212012285F902120122D4F902121D
:100EE30001222AFA021201221FFB0212012214FC20
:100EF3000212012251FC021201229FFF021201225F
:100F0300EB9901120122E99B011201226A9D011250
:100F130001226C9E01120122F49E01120122799F8B
:100F230001120122A29F01120122F29F011201224A
:100F3300E5A30112012256A40112012242A50112C6
:100F430001227CA501120122BCA501120122EFA6F8
:100F53000112012220A70112012273A7011201220B
:100F6300BCA7011201222AA8011201225CA80112C6
:100F7300012276A80112012268A90112012278A98F
:100F83000112012227AB011201223EAB0112012201
:100F930070AB01120122F2AC011201226BAD0112FE
:100FA30001229DBC03120122AEBC031201227ABFAF
:100FB30003120122B9BF03120122EBFF0112012226
:100FC3004CBD031201225CBD0312012271BD031249
:100FD3000122D7BD03120122B2B90312012236BA8C
:100FE300031201229EBA0312012295AF03120122BA
:100FF300BBAF031201221EB00312012238B0031249
:10100300012255B003120122A8B00312012201B13B
:101013000312012236C003120122F38D03120122AF
:10102300838E03120122018F03120122858F031283
:101033000122179003120122D39003120122A091DF
:1010430003120122AA9103120122B9910312012270
:10105300CF9103120122E29103120122EC910312B8
:101063000122FF91031201226EB40312012297B4ED
:1010730003120122C0B4031201225AB50312012242
:1010830072B503120122B4B50312012268CF021212
:10109300012272CF02120122B2CF02120122FBCF30
:1010A3000212012235D0021201228BD00212012238
:1010B300AAD00212012232D3021201223BD302121E
:1010C30001228CD302120122B5D302120122BFD313
:1010D3000212012230D402120122BED402120122D2
:1010E30013D50212012242D502120122BED50212E9
:1010F3000122FBD50212012232D60212012244D66A
:101103000212012263D6021201226CD602120122BC
:101113001ED702120122DFB2031201222FB30312E0
:101123000122A1B30312012209B403120122C3A4B1
:1011330003120122EDA403120122B4A5031201221A
:1011430090A60312012218A703120122B7BA0312B1
:101153000122EAA90312012220AA0312012253AA9F
:1011630003120122ACAB031201225EBE0312012261
:1011730074BE031201227EBE03120122C8BE0312F3
:10118300012284C70212012241C8021201227CC833
:1011930002120122ADC8021201220FC9021201225A
:1011A3005BC902120122C6C90212012240CA0212FD
:1011B30001223FCB02120122C6CC0212012249CDE9
:1011C30002120122AFCD02120122C2CD021201226C
:1011D300BDCE021201220ACF021201220292031291
:1011E3000122189203120122BC9203120122FB92E4
:1011F30003120122189303120122499303120122BD
:10120300969303120122CA93031201220594031237
:101213000122F9B50312012207B60312012272B6A5
:1012230003120122B8B603120122D6B60312012219
:1012330004A9021201220EAA0212012289AB021290
:10124300012272AC0212012213AD02120122F1AD8E
:10125300021201227DAE021201229BAE0212012272
:1012630039B10212012277B102120122D0B1021266
:101273000122FDB202120122C3BF03120122C87F61
:1012830000120122EFBF0312012218C003E06670AF
:101293001008A3E066700A08A3E066700408A3E0E0
:1012A3006622C3E7960809E7960809E7960809E75F
:1012B3009622C3E09608A3E09608A3E09608A3E06D
:1012C3009622C008C3E096F50808A3E096420808F2
:1012D300A3E096420808A3E09645087001D3D0081E
:1012E30022080808EAC0E0EBC0E086F0E7A4FA1899
:1012F3000986F0E7A42AFA180986F0E7A42AFA185F
:101303000986F0E7A42AFA1986F0E7A4FBE5F02A98
:10131300FA190886F0E7A42BFBE5F03AFA190886D8
:10132300F0E7A42BFBE5F03AFA18180986F0E7A4D6
:10133300C5F02BFBE43AFA1908E7C5F0C6A426F674
:10134300E5F03BFBE43AFA1886F0E7A4F6E5F0088B
:1013530026F6E43B08F6E43A08F6D0E0FBD0E0FAE0
:1013630022E4CFC0E0E4CEC0E0E4CDC0E0E4CCC0F2
:10137300E075F020E626F608E633F608E633F608CD
:10138300E633F6181818EC33FCED33FDEE33FEEFBD
:1013930033FFC3EC9709ED9709EE9709EF971919F6
:1013A30019400FFFEC97FC09ED97FD09EE97FE1925
:1013B3001906D5F0BFECF709EDF709EEF709EFF7DA
:1013C300191919D0E0FCD0E0FDD0E0FED0E0FF22F7
:1013D3006016080808C6C313C618C613C618C61372
:1013E300C618C613C6D5E0EA2270090808082260A9
:1013F30016181818C6C333C608C633C608C633C67C
:1014030008C633C6D5E0EA22E627F60809E637F62A
:101413000809E637F60809E637F622E026F608A3B8
:10142300E036F608A3E036F608A3E036F622E02617
:10143300F008A3E036F008A3E036F008A3E036F0A6
:1014430022C3E697F60809E697F60809E697F60831
:1014530009E697F622C3E096F008A3E096F008A306
:10146300E096F008A3E096F022E657F60809E6575F
:10147300F60809E657F60809E657F622E056F60895
:10148300A3E056F608A3E056F608A3E056F622E0DA
:1014930056F008A3E056F008A3E056F008A3E05680
:1014A300F022E066F608A3E066F608A3E066F60815
:1014B300A3E066F622E0F608A3E0F608A3E0F60848
:1014C300A3E0F622E6F008A3E6F008A3E6F008A3FB
:1014D300E6F022E0FAA3E0FBA3E0FCA3E0FD22EAAE
:1014E300F0A3EBF0A3ECF0A3EDF022E0F8A3E0F916
:1014F300A3E0FAA3E0FB22E8F0A3E9F0A3EAF0A358
:10150300EBF022CAC0E0E6F0A308DAFAD0E0FA2250
:10151300CAC0E0E0A3C582CCC582C583CDC583F034
:10152300A3C582CCC582C583CDC583DAE6D0E0CA24
:1015330022C3E498F8E499F91215758026C3E49A56
:10154300FAE49BFBE920E7E9121575E498F8E499BE
:10155300F922C3E498F8E499F9121575E498F8E4CC
:1015630099F9C3E49AFAE49BFB22EB20E7CFE92045
:10157300E7E0B90010BB0008E88AF084F8AAF0227B
:10158300E4FBC8FA22EB70227B10C833C8C933C905
:10159300335007C39AC3DBF280069A50012ADBEA71
:1015A300C833F4C8C933F4C9FA2275F008E4C83360
:1015B300C8C933C933C99AC99B5004C92AC93BD581
:1015C300F0ECFBC833F4C8E4C9FA22600D08C6A2E4
:1015D300E713C618C613C6D5E0F322600C08C6C3CA
:1015E30013C618C613C6D5E0F422700422600D1882
:1015F300C6C333C608C633C6D5E0F418222518106F
:10160300AF08F518400C15198008F5184002151994
:10161300D2AF2200C0D0251810AF08F518500C0522
:10162300198008F51850020519D2AFD0D022251819
:10163300F58210AF08F518400C15198008F518400D
:10164300021519D2AF85198322C5822518C582C513
:1016530083351910AF07F5198582188007F51985A9
:101663008218D2AFC583222518F582E43519F58394
:10167300222518F8E43519F9222518FAE43519FB5F
:10168300222518FCE43519FD22E4732518C582C010
:10169300E0E51934FFC583C0E0E518C3958224F85B
:1016A30010AF088583198582188008858319858280
:1016B30018D2AFCEF0A3E520F0A37808E608F0A394
:1016C300DEFAEFF0A3E58124FAF8E608F0A3E608D2
:1016D300F0A3E608F0A30808E608F0A3E608F0A3E1
:1016E30015811581D0E0FED0E0F8158115811581B3
:1016F300E8C0E0EEC0E0222518C582C0E0E5193459
:10170300FFC583C0E0E518C3958224F910AF0885AF
:1017130083198582188008858319858218D2AFCEF4
:10172300F0A3E520F0A37808E608F0A3DEFAEFF0D3
:10173300A3E58124FBF8E608F0A3E608F0A3080874
:10174300E608F0A3E608F0A315811581D0E0FED0EA
:10175300E0F815811581E8C0E0EEC0E02285198329
:10176300851882E0A3FEE0A3F5207808E0A3F6083D
:10177300DFFAE0A3FFE0A3C0E0E0A3C0E0E0A3C082
:10178300E0E0A3C0E0E0A3C0E010AF0885821885C5
:1017930083198008858218858319D2AFD083D082BC
:1017A30002011F851983851882E0A3FEE0A3F520BB
:1017B3007808E0A3F608DFFAE0A3FFE0A3C0E0E0C7
:1017C300A3C0E0E0A3C0E0E0A3C0E010AF088582BF
:1017D300188583198008858218858319D2AFD08331
:1017E300D08222C0D02518C582C0E0E51934FFC5D8
:1017F30083C0E0E518C3958224F310AF08858319ED
:101803008582188008858319858218D2AFC8F0A312
:10181300E9F0A3EAF0A3EBF0A37908E709F0A3D872
:10182300FAECF0A3EDF0A3EEF0A3EFF0A3D0E0F019
:10183300A3D0E0F0A3D0E0F0A3E520F0A3E5F0F01F
:10184300A322851983851882E0C0E0A3E0F9A3E011
:10185300FAA3E0FBA37808E0F608A3DFFAE0FCA311
:10186300E0FDA3E0FEA3E0FFA3E0C0E0A3E0C0E04F
:10187300A3E0F5D0A3E0F520A3E0A3F5F010AF08B3
:101883008583198582188008858319858218D2AFCC
:10189300D082D083D0E0F8D0E032740480067402A2
:1018A30080027401C0E0F404121631D0E012150670
:1018B300227404800474028000CCC0E0EDC0E0E533
:1018C30018C39CCCAD1950011D10AF068C188D198F
:1018D30080068C188D19D2AF121513D0E0FDD0E01D
:1018E300FC22D083D082E9C0E0E493A3C386F0C591
:1018F300F095F0F908E493A386F0C5F095F0700B2A
:10190300E493A3C3994005E9048002A3E475F002BC
:10191300A42582F582E5F03583F583D0E0F9E493DD
:10192300A3C0E0E493C0E022D083D082ECC0E0ED1A
:10193300C0E0E493A3FCE493A3FDED4C600D121906
:1019430077EC24FFFCED34FFFD80EFE493A3FCE48C
:1019530093A3FDED4C600D1219B6EC24FFFCED349E
:10196300FFFD80EFD0E0FDD0E0FCE493A3C0E0E412
:1019730093C0E022C0E0C3E49396087401939618E1
:10198300400FE49366700808740193661870007042
:1019930019A3A3C3E49396087401939618A3A340D1
:1019A3000DD0E0D0E0D0E0021967A3A3A3A3A3A3C3
:1019B300D0E022C0E0C0F088F0E4936670080874B9
:1019C300019366187000A8F0A3A3700BD0F0D0E0C9
:0E19D300D0E0D0E0021967A3A3D0F0D0E0224C
:1019E40074F51216FAEAFEEBFFEE2434F8EF340035
:1019F400F988088909EE2435F582EF3400F583E08F
:101A0400F8EE2437F582EF3400F583E0F50AEC852F
:101A14000AF0A4FCAAF0850AF0EDA42AFDE82CF84B
:101A2400E43DF97A257B00121575EA85088285095B
:101A340083F05407F87401B800028004C333D8FC5F
:101A4400C0E0E0131313541FF8EE28F8EF3400F944
:101A5400E8245DF582E93400F583D0E0F8E05860CD
:101A640008EE2434F582EF801EEE2436F582EF343E
:101A740000F583E0F5F0EA84A8F0EE28F8EF3400EE
:101A8400F9E82438F582E93400F583E0F97F0402AB
:101A940017A674F51216FAEAFEEBFFEE2434F5826B
:101AA400EF3400F583E0C0E0EE2435F582EF340036
:101AB400F583D0E0F08E828F83A3A3A3A3A3A3A373
:101AC400C082C0838E828F83A3A3A3A3A3E0F8A3C1
:101AD400E0F9D083D082E0C398F508A3E099F50932
:101AE400EE2480F582EF3400F583E064017069EE42
:101AF4002481F582EF3400F583E0F8A3E0F98E82C7
:101B04008F83A3A3A3A3A3A3A3E0FCA3E0FD8E82DE
:101B14008F83A3A3A3A3A3E0FAA3E0FBC3EA9CEBF4
:101B24009D5027C3EC98ED99402EC3EA98EB995049
:101B3400277CE27D07EEFAEFFB120A38EE2480F5EB
:101B440082EF3400F583E4F0800EC3EA98EB994009
:101B5400E0C3EC98ED9950D9EE2434F8EF3400F951
:101B6400E8FCE9FDEE2435F582EF3400F583E0F876
:101B7400EE2437F582EF3400F583E0F50AE50885B5
:101B84000AF0A4F508AAF0850AF0E509A42AF509E3
:101B9400E82508F8E43509F97A257B00121575EA79
:101BA4008C828D83F05407F87401B800028004C35A
:101BB40033D8FCC0E0E0131313541FF8EE28F8EFF9
:101BC4003400F9E8245DF582E93400F583D0E0F8C7
:101BD400E0586008EE2434F582EF801EEE2436F5DA
:101BE40082EF3400F583E0F5F0EA84A8F0EE28F8FB
:101BF400EF3400F9E82438F582E93400F583E0F99C
:101C0400121F80021A910000851A87851BC622C004
:101C1400E0C0D0E8C0E0E9C0E0EAC0E0EBC0E0EC3E
:101C2400C0E0EDC0E0C008C009C00AC00BC082C05B
:101C340083C0F0759B00906182E0A2E64003021C21
:101C4400F1E591A2E64003021CF17591BF9004995D
:101C5400E064057008120BB2120BBE8003120BB8BD
:101C6400751A00120C18E990049AF07900120BFA14
:101C74001209A87A017B00900498E0F91210EC9004
:101C84007803E064426003021D3A900817E014F000
:101C94006003021D3AC2AF121C9E00781DD0E0F60C
:101CA40018D0E0F6E59F5407F970059083EB8003A4
:101CB4009083E778081214B8E9C4C0E0781CE655AC
:101CC40008F50808E65509F509740B78081215DEBD
:101CD400D0E02508F8906270E0A2E740F8E8C3334A
:101CE400906272F0906270E0D2E0F08049E0A2E588
:101CF4005024E591A2E5501E7591DF900499E064AB
:101D04000D70139004BBE004F064287002E4F07AD0
:101D140000E0F9120CA8906181E0A2E35009E5E922
:101D2400A2E3500375E9F7A3E0A2E75009E591A205
:101D3400E7500375917FD0F0D083D082D00BD00AC6
:101D4400D009D008D0E0FDD0E0FCD0E0FBD0E0FA30
:101D5400D0E0F9D0E0F8D0D0D0E032C0E0C0D0C0BC
:101D640082C083906183E0A2E05009E5BFA2E05005
:101D74000375BFFEE0A2E15009E5BFA2E15003757F
:101D8400BFFDE0A2E25009E5BFA2E2500375BFFB2C
:101D9400E0A2E35009E5BFA2E3500375BFF7E0A258
:101DA400E45009E5BFA2E4500375BFEFE0A2E5509B
:101DB40009E5BFA2E5500375BFDFE0A2E65009E5DF
:101DC400BFA2E6500375BFBFD083D0828088C0E035
:101DD400C0D0E8C0E0E9C0E0EAC0E0EBC0E0ECC09D
:101DE400E0EDC0E0C0F0E5A7A2E6500FE5A1A2E651
:101DF400500953A7BF75A1BF121E37E5A7A2E5502E
:101E04000CE5A1A2E5500653A7DF75A1DFE5A7A263
:101E1400E15009E5A1A2E1500375A1FDE5A7A2E205
:101E2400500CE5A1A2E2500653A7FB75A1FBD0F02C
:101E3400021D4874F81216FA751A01900499E064A8
:101E4400067015120B6A8A828B83A3A3A3A3A3A390
:101E5400E0FAA3E0FB120BA0A2AFE433FED2AF90F2
:101E6400049FE0640170187A207B00900498E0F9E4
:101E74001212007A207B00900498E0F91210F2907C
:101E84006182E0D2E6F0900816E0602185C61B80EE
:101E94001690049EE064017008E5C654F84405F504
:101EA400C653BEFC121C0C7401651A60E4EEA2E079
:101EB40092AF7F010217A674F11216FA8A088B09F1
:101EC4008C0A8D0B740F12166A780C1214B8908455
:101ED4000B780812147F90840B780C12147F780806
:101EE400790C1212A550157808790C1214449083B9
:101EF400BB78081212C5401579018013780C790853
:101F04001214449083BB780C1212C540EB79007F05
:101F1400080217A674ED1216FA8A088B098C0A8D2A
:101F24000B741312166A780C1214B890840B780888
:101F340012147F90840B780C12147F780C79081299
:101F440012A540117808790C121444AA08AB09AC04
:101F54000AAD0B80227510007511007512007513FF
:101F6400017810790C1214447810790812140BAA11
:101F740010AB11AC12AD137F0C0217A6C082C08344
:101F8400E9906000F0D083D08222C0E074F212178E
:101F9400E6A2AFE433FED2AFC2C0E5D1A2E450065C
:101FA40053D1EF121062EEA2E092AF7F0102184506
:101FB400C0E074F21217E6A2AFE433FED2AFE589B3
:101FC400A2E1500312100E758900C2C5EEA2E09280
:101FD400AF7F01021845C0E074F21217E6A2AFE425
:101FE40033FED2AFE58BA2E0500312100E758B00C6
:101FF400C2E880D8C0E0C0D0E8C0E0A8A8D2AFC290
:10200400C7E8A2E792AFD0E0F8D0D0D0E032C0E089
:10201400C0D0E8C0E0E9C0E0EAC0E0EBC0E0C082C4
:10202400C083A2AFE433F9D2AF90101CE0F8A3E070
:10203400687008539AFBA374018022C2E990101CB3
:10204400E0F8740128F0749C28F582E4340FF583D9
:10205400E0F5C190101CE0C394804002E4F0E9A2D2
:10206400E092AFD083D082D0E0FBD0E0FAD0E0F9A8
:10207400D0E0F8D0D0D0E032FFFFFFFFFFFFFFFF3A
:10208400C082C0839061907404F0A37448F0A37478
:1020940002F09061807440F09061BC7403F0906130
:1020A400877419F0906265741BF090619C740DF054
:1020B40090619A7433F0A37455F09061A0743AF06F
:1020C400900814E064017009C29190049D746780C3
:1020D4000590049D7461F0902082E493906186F0F1
:1020E40090207CE493F46027E493540FF890618586
:1020F400E0686012E5C654804449F5C6E59E547F05
:10210400644970F8E8F053C680E59E547F70FA790C
:1021140005120C8A0224E1C082C083E5A8F853A802
:102124007E906181E4F0A3F0A3F0C2BA539AFEC298
:1021340089759B00C2C275E90075910075BF007571
:10214400A91175B905906181F0A374C0F0A3E4F0FE
:10215400D2BA439A0174805842A80224E1C082C0D2
:102164008374F812160090049BE0F8A3E0F9E849A0
:10217400700302228F90049BE05440602379088509
:102184001882851983AA82AB83120AAA85188285CC
:102194001983AA82AB8312079290049BE054BFF088
:1021A400E054806010790C7A387B08120AAA9004F3
:1021B4009BE0547FF0E0A2E0503190619A7433F0D8
:1021C400A37455F09061A0743AF0900814E064018F
:1021D4007009C29190049D7467800590049D746198
:1021E400F012079890049BE054FEF0E05402603132
:1021F40090619A743FF0A3745AF09061A0747FF0D8
:10220400900814E064017009D29190049D74718067
:102214000590049D746AF012079890049BE054FDA5
:10222400F0E054046013902080E493906186F012EF
:10223400079E90049BE054FBF0E054086013902048
:1022440081E493906186F012079E90049BE054F71A
:10225400F0E054106013902082E493906186F012B1
:10226400079E90049BE054EFF0E05420600A1207AC
:102274009E90049BE054DFF0A3E05401600D12092A
:10228400B41207A490049CE054FEF07408121616CD
:102294000224E174EC12168E74F41216008518826E
:1022A400851983AC82AD837583837582FF740412B0
:1022B400151390208093F46003022424907808E09E
:1022C400C394025003022404740412166AAC82AD4F
:1022D4008375838375825274081215138518828559
:1022E4001983858212858313740412166AAC82AD35
:1022F40083750EFF750FFF7FFF7E00750C48750D0B
:1023040078801574086E700302239774096E700345
:10231400022397740A6E607B850C82850D8378088E
:102324001214B88C828D83A909E50AC9F88810743F
:102334001878081213D3E5104508F8C3E098A3E011
:1023440099850C82850D8378081214B840188C8204
:102354008D83741878081213D3E5104508F8E0C388
:1023640098F8A3E0801C741878081213D3E510457C
:1023740008FAE9FB8C828D83E0F8A3E0F9EAC398BC
:10238400F8EB99F9C3E8950EE9950F5006880E8984
:102394000FEEFF0EE50C2404F50CE50D3400F50DED
:1023A400EEC39413500302230774FF650E70047484
:1023B400FF650F60238F08740278081215ED7448C6
:1023C4002508F58274783509F58378081214B885E0
:1023D4001282851383E508F0EC24020C0CED340022
:1023E400FD851282851383A3858212858313740C61
:1023F40012166AE5826C7003E5836D60030222F5B0
:1024040075080175090078081218A1740212166A79
:10241400AC82AD837A207B08120FDE74021216168A
:10242400740C1216167F0C021760C082C083906170
:10243400AE7468F0A3746AF090624574FBF0A30470
:10244400F053F4FD43FE029008147401F09061A06F
:10245400E0643A90619A70237433F0A37455F09059
:1024640061A0743AF0740164017009C29190049DF2
:102474007467802890049D74618021743FF0A37474
:102484005AF09061A0747FF0740164017009D291D4
:1024940090049D7471800590049D746A8000F0021C
:1024A40024E1C082C0839007F2E0640170159007B4
:1024B400F8E064016009E0700AA3E0640170047943
:1024C4000C8012900809E06401700890080FE06421
:1024D4000160EC79000224E1E0F9121F80D083D07E
:1024E4008202011FC082C0839007FC7425F090070C
:1024F400FA7401F0A3E4F07A01FB120C069007E8E9
:10250400E02416F8A3E03400F98882898374D8F0B3
:10251400A37409F09007F9E0640170169007F8E0DD
:1025240070107901120C66120C36120C60790012CC
:102534000C7280A9C082C08374FA1216009007F14D
:10254400E0640170081209C09007F1E4F075E1F14C
:102554009007E8E02415F8A3E03400F98882898321
:102564007401F09007F3E064017076908361C08297
:10257400851882851983AC82AD83758383D0827478
:102584000612151375D90D9007EAE0C4333354C00D
:102594004403F5D978E8790788828983A3A3A3E063
:1025A400F5D988828983A3A882A983E864EE70039D
:1025B400E9640770E3851882851983A882A9838852
:1025C400828983E0F5D9A3A882A983740612166AC6
:1025D400E582687003E5836970E575E195790180AA
:1025E400027900120C0C9011A87422F0A3740BF061
:1025F400A37428F0A3740BF0A37422F0A3740BF05B
:10260400A37422F0A3740BF0A374F2F0A3740AF081
:10261400A374F2F0A3740AF0A3742EF0A3740BF065
:102624009011B674F2F0A3740AF0A374F2F0A374D8
:102634000AF0A374F2F0A3740AF0A374F2F0A37482
:102644000AF0A374F2F0A3740AF0A374F2F0A37472
:102654000AF09007EAE0F97AEB7B07120BE890079F
:10266400FCE0F9121F807901120C129084031214F9
:10267400D6120C2A90839B1214D6120BF4790012F2
:102684000C7E9007E8E02414F8A3E03400F9888273
:1026940089837416F09004997405F00402229174ED
:1026A400F712168E8908A808E875F006A4C8AAF0DF
:1026B4002AF974C928FE740439FF900801E0F97AF4
:1026C400027B08120BE890080FE0701A7900120CD4
:1026D400489007DBE0700B79007ADC7B07120BEE85
:1026E4008009790180F37901120C4875E1F175D9FB
:1026F40023900801E0C4333354C04405F5D978FF6E
:10270400790788828983A3A3A3E0F5D98882898382
:10271400A3A882A983E864057003E9640870E375DB
:10272400D90075D90075D90075D90075D90075D946
:1027340000EEF8EFF9E82404FAE93400FBE8242277
:10274400F582E93400F583E0F5D988828983A3A86A
:1027540082A983EA687002EB6970E2EEF8EFF9E8A7
:1027640024031AE93400FBE82426F582E93400F551
:1027740083E0F5D988828983A3A882A983EA687053
:1027840002EB6970E2EE242BF582EF3400F583E06E
:10279400F5D9EEF8EFF9E824021AE93400FBE8244D
:1027A4002CF582E93400F583E0F5D988828983A386
:1027B400A882A983EA687002EB6970E2EEF8EFF987
:1027C400E8242EF582E93400F583E0F5D98882897E
:1027D40083A3A882A983EA687002EB6970E2EEF829
:1027E400EFF9E82430F582E93400F583E0F5D9887F
:1027F400828983A3A882A983EA687002EB6970E2E4
:10280400EEF8EFF9E82432F582E93400F583E0F5D7
:10281400D988828983A3A882A983EA687002EB69B4
:1028240070E2EEF8EFF9E824050A0A0AE93400FB3D
:10283400E8245DF582E93400F583E0F5D9888289DE
:1028440083A3A882A983EA687002EB6970E2EE248C
:1028540037F582EF3400F583E0541FF8EE242AF5AF
:1028640082EF3400F583E0C43354E048F5D975E1D0
:10287400959011A874F8F0A3740AF0A374FEF0A361
:10288400740AF0A374F2F0A3740AF0A374F2F0A330
:10289400740AF0A374F2F0A3740AF0A374F2F0A320
:1028A400740AF0A37404F0A3740BF09011B674F2DC
:1028B400F0A3740AF0A374F2F0A3740AF0A374F200
:1028C400F0A3740AF0A374F2F0A3740AF0A374F2F0
:1028D400F0A3740AF0A374F2F0A3740AF090080E43
:1028E400E0F9121F809084031214D6120C2A9083EC
:1028F4009B1214D6120BF490600DE4F07901120CC3
:102904007E9004997406F0022EFE74EC12168E90DA
:1029140007FFE0F8A3E0F5838882A3A378101214DC
:10292400B8900810E0FAF875F006A4C8ACF02CF9D9
:1029340074F728F582740439F583E0FEA3E0FFEE12
:10294400C333FEEF33FF8E0CF50D750E00750F00CB
:1029540085100885110985120A85130B9083F37875
:102964000812141E780812189D851008851109850F
:10297400120A85130B7808790C12140B7810790C51
:10298400121364E4F50EF50F7808790C1214448AD6
:102994000C750D007403780C1215ED7808790C127F
:1029A400140B90840B780812147FAA08AB09AC0AA4
:1029B400AD0B121F1874041216168A088B09A80886
:1029C400A909C3EE98EF995006E82EF8E93FF9E813
:1029D40090600EF0E9A3F0EEA3F0EFA3F090600D89
:1029E40074C1F0022429C082C0839007E8E0F8A3F0
:1029F400E0F5838882A3A3A3A3A3A3E4F0A3F090A8
:102A040007FC0224DCC082C0839007FFE0F8A3E047
:102A1400F5838882A3A3A3A3A3A3E4F0A3F090085F
:102A24000E0224DC02011F74F612168E9061D0E0AF
:102A3400F87480C398FCEA2483F582EB3400F583B0
:102A4400E06004780480027800E8240EF8ECC3986F
:102A54005003022BAC7E0C900818E4F0EA2477F5BE
:102A640082EB3400F583E0900819F0EA2478FCEB5B
:102A74003400FD781A79087F028C828D83E0888285
:102A84008983F08C828D83A3AC82AD838882898311
:102A9400A3A882A9831FEF70E0EA247AFCEB340038
:102AA400FD7F028C828D83E088828983F08C828D05
:102AB40083A3AC82AD8388828983A3A882A9831F60
:102AC400EF70E0EA247CFCEB3400FD7F028C828D05
:102AD40083E088828983F08C828D83A3AC82AD836A
:102AE40088828983A3A882A9831FEF70E0EA247EE9
:102AF400FCEB3400FD7F028C828D83E08882898325
:102B0400F08C828D83A3AC82AD8388828983A3A851
:102B140082A9831FEF70E0EA2475FCEB3400FD8A80
:102B2400828B83A3A3A3A3A3E0F508A3E0F5098CF8
:102B3400828D83E02508F0A3E03509F07F028C82C2
:102B44008D83E088828983F08C828D83A3AC82ADEF
:102B54008388828983A3A882A9831FEF70E0EA2473
:102B640083F582EB3400F583E06019750818750964
:102B74000878081218A17C0C7903120AE674021270
:102B840016167E1074012EF5D975D9037582187541
:102B94008308EEFFE0F5D9A31FEF70F875E195798E
:102BA40004120C307901800279000230E074F612CC
:102BB400168E9061D0E0F87480C398FCEA2483F503
:102BC40082EB3400F583E06004780480027800E846
:102BD400240AF8ECC3985003022CA1750808900845
:102BE400187401F07CE27D07781979087E058C82DF
:102BF4008D83E088828983F08C828D83A3AC82AD3F
:102C04008388828983A3A882A9831EEE70E0EA24C4
:102C140081FCEB3400FD8A828B83A3A3A3A3A3E0EE
:102C2400FEA3E0FF8C828D83E02EF0A3E03FF07ED4
:102C3400028C828D83E088828983F08C828D83A3C9
:102C4400AC82AD8388828983A3A882A9831EEE7097
:102C5400E0EA2483F582EB3400F583E0601A75081A
:102C64001875090878081218A17C087903120AE675
:102C7400740212161675080C74012508F5D975D955
:102C840003758218758308AE08E0F5D9A31EEE70AB
:102C9400F875E1957904120C30790180027900020B
:102CA40030E074F712168EEAFEEBFF9061D0E0601C
:102CB40003022D9D75D91875D90375D903EEF8EF64
:102CC400F9E82408FAE93400FBE8249CF582E934A5
:102CD40000F583E0F5D988828983A3A882A983EAD1
:102CE400687002EB6970E2EEF8EFF9E82402FAE9A1
:102CF4003400FBE824A4F582E93400F583E0F5D937
:102D040088828983A3A882A983EA687002EB697028
:102D1400E2EE2494F582EF3400F583E5822408F88A
:102D2400E5833400F9E0F5D9A3E865827003E96529
:102D34008370F2EE2488F582EF3400F583E5822473
:102D440004F8E5833400F9E0F5D9A3E8658270035B
:102D5400E9658370F275E1957908EE2494FAEF340D
:102D640000FB120A9E7904EE2488FAEF3400FB1269
:102D74000A9E7904120C30EE2470F582EF3400F5CB
:102D840083E0F8A3E0F9EE2472F582EF3400F583D2
:102D9400E8F0A3E9F0790180027900022EFE74F6CE
:102DA40012168EEAFEEBFF9008187406F0750818E8
:102DB40075090878081218A17C017903120AE674CF
:102DC4000212161675D90675D9037582187583080B
:102DD400E0F5D9A3E582641D7004E583640870F00E
:102DE40075E195900499E06408701EEE2470F582F4
:102DF400EF3400F583E0F8A3E0F9EE2472F582EFF6
:102E04003400F583E8F0A3E9F079010230E074F6C8
:102E140012168EEAFEEBFF9061D0E0705E90081807
:102E2400740AF075081875090878081218A17C014D
:102E34007903120AE6740212161675D90675D903B7
:102E4400758218758308E0F5D9A3E582641D7004C2
:102E5400E583640870F075E195EE2470F582EF3433
:102E640000F583E0F8A3E0F9EE2472F582EF340074
:102E7400F583E8F0A3E9F07901800279000230E0FB
:102E840074F612168EEAFEEBFF9061D0E07066785D
:102E940001900818740BF0900499E0640770197598
:102EA400081875090878081218A17C017903120A18
:102EB400E674021216167805740128F5D975D9033B
:102EC400758218758308E8FAE0F5D9A31AEA70F850
:102ED40075E195EE2470F582EF3400F583E0F8A3F4
:102EE400E0F9EE2472F582EF3400F583E8F0A3E90B
:102EF400F07901800279000230E07F0102176074EA
:102F0400F612168EEAFEEBFF9061D0E0F87480C3EF
:102F140098FAEE2483F582EF3400F583E0600478B8
:102F24000480027800E8240BF8EAC3985003022FC7
:102F3400D97D099008187408F0EE24E5F8EF340000
:102F4400F97A197B087C0888828983E08A828B83DA
:102F5400F088828983A3A882A9838A828B83A3AA07
:102F640082AB831CEC70E0EE2483F582EF3400F531
:102F740083E0601D75081875090878081218A17C8B
:102F8400097903EEFAEFFB120AE674021216167DB3
:102F94000D74012DF5D975D9037582187583088DC3
:102FA40008E0F5D9A31508E50870F675E1957904EC
:102FB400120C30EE2470F582EF3400F583E0F8A3B0
:102FC400E0F9EE2472F582EF3400F583E8F0A3E92A
:102FD400F07901800279000230E074F612168EEA6C
:102FE400FEEBFF9061D0E0F87480C398FAEE24837E
:102FF400F582EF3400F583E0600478048002780001
:10300400E82408F8EAC39850030230DE7D069008ED
:1030140018740CF09004B6E0900819F07AB77B04A9
:10302400781A79087C028A828B83E088828983F00B
:103034008A828B83A3AA82AB8388828983A3A88292
:10304400A9831CEC70E07AB97B047C028A828B83AE
:10305400E088828983F08A828B83A3AA82AB8388E7
:10306400828983A3A882A9831CEC70E0EE2483F5F3
:1030740082EF3400F583E0601D750818750908783F
:10308400081218A17C067903EEFAEFFB120AE67423
:10309400021216167D0A74012DF5D975D9037582AD
:1030A400187583088D08E0F5D9A31508E50870F6AE
:1030B40075E1957904120C30EE2470F582EF34003A
:1030C400F583E0F8A3E0F9EE2472F582EF3400F51D
:1030D40083E8F0A3E9F07901800279007F02021706
:1030E4006074F612168EEAFEEBFF9061D0E0F8747D
:1030F40080C398FAEE2483F582EF3400F583E06010
:1031040004780480027800E82404F8EAC3985003A1
:103114000231BF7802900818E8F0EE24F7F582EF48
:103124003400F583E0900819F0EE2483F582EF343F
:1031340000F583E0601B75081875090878081218F3
:10314400A17C027903EEFA120AE6740212161678CA
:1031540006740128F5D975D9037582187583088812
:1031640008E0F5D9A31508E50870F675E195EE2495
:1031740074F582EF3400F583E4F0EE2480F582EFF9
:103184003400F583E4F0EE241DF582EF3400F5837A
:10319400E4F0A3F07904120C30EE240DF582EF3440
:1031A40000F583E0F8A3E0F9EE2472F582EF340031
:1031B400F583E8F0A3E9F07901800279000230E0B8
:1031C40074F612168E9061D0E0F87480C398FCEA0D
:1031D4002483F582EB3400F583E0600478048002F4
:1031E4007800E82404F8ECC398405B79029008184E
:1031F4007407F0EA24F8F582EB3400F583E09008D4
:1032040019F0EA2483F582EB3400F583E060187545
:10321400081875090878081218A17C0209120AE630
:1032240074021216167906740129F5D975D9037535
:103234008218758308E9F8E0F5D9A318E870F875E1
:10324400E1957901800279000230E074F512168E5E
:10325400E9FCA2AFE433F50AC2AF7D0080010DEAB8
:10326400246FF582EB3400F583E0F8EDC398501A2F
:103274008D08EA2508F8EB3400F9E8246BF582E9B7
:103284003400F583E06C70D68024EA246FF8EB34C4
:1032940000F9E0FEEA2EFAEB3400FBEA246BF58237
:1032A400EB3400F583ECF088828983E004F0E50ACE
:1032B400A2E092AF7F0302176074F612168EA2AFDB
:1032C400E433FDC2AFEA246FF582EB3400F583E00A
:1032D40014F07C0060368C08EA2508F8EB3400F919
:1032E400E8246CF582E93400F583E0C0E0E8246B5F
:1032F400F582E93400F583D0E0F00CEA246FF5821E
:10330400EB3400F583E0F8ECC39840CAEA246EF588
:1033140082EB3400F58374FFF0EA246AF582EB341F
:1033240000F583E4F0EDA2E092AF0230E0C082C089
:1033340083E5A8F8C2AFEA246BF582EB3400F58389
:10334400E9F0EA246AF582EB3400F583E4F0E8A2BC
:10335400E792AF0224E174F312168EEAFEEBFFEC5F
:10336400FAEDFB8A828B83A3A3A3A3E0541FF0EEA0
:103374002436F582EF3400F583E4F0F50AEEFCEF31
:10338400FD8A828B83E0C0E0EC245DF582ED34009D
:10339400F583D0E0F0750B00E50A33333354F8F5C8
:1033A4000C8A828B83E0F508750900E50B78081216
:1033B40015CEE508A2E0502FEE2436F8EF3400F9DC
:1033C40088828983E0F508EE2508F508EF3400F5D6
:1033D40009E5082438F582E5093400F583E50CF0A5
:1033E40088828983E004F0050B050CE50BC394087F
:1033F40040AF050A8A828B83A3AA82AB838C828D19
:1034040083A3AC82AD83E50AC394055003023385DC
:103414007F0502176074F712168E9004C5E06403EA
:1034240070077A007B00022EFE7B0078C579048841
:10343400828983A3A3A3A3A3A3E06003023713EBAE
:10344400F875F006A4C8AAF02AF974C928F8740417
:1034540039F988828983A3A37401F088828983A3BC
:10346400A3A3E4F0EB88828983A3A3A3A3F0E824B5
:1034740062F582E93400F5837401F0E82465F5828D
:10348400E93400F583E4F0A3F0E82468F582E93434
:1034940000F5837401F088828983A3A3A3A3A3E422
:1034A400F0A3F088828983A3A3A3A3A3A3A3F0A377
:1034B400F0E8240FF582E93400F5837401F0E82480
:1034C40035F582E93400F583E4F090838F1214D645
:1034D400E82418F582E93400F5831214E2E8241C88
:1034E400F582E93400F583E4F0E8241DF582E9343B
:1034F40000F583E4F0A3F0E82480F582E93400F5D4
:1035040083E4F0E82474F582E93400F583E4F0E818
:103514002469F582E93400F5837480F0E8246AF5BF
:1035240082E93400F583E4F0E8246FF582E934009D
:10353400F583E4F0E82467F582E93400F583E4F0E8
:10354400E824EDF582E93400F583E4F0E824EEF5AF
:1035540082E93400F583E4F0E824EFF582E93400ED
:10356400F583E4F0E824F0F582E93400F583E4F02F
:10357400E824F1F582E93400F583E4F0A3F0E824CB
:10358400F3F582E93400F583E4F0A3F0E824F6F5DA
:1035940082E93400F583E4F0E82483F582E9340019
:1035A400F583E4F0E824D3F582E93400F583E4F00C
:1035B400E824D4F582E93400F583E4F090838F1293
:1035C40014D6E824D5F582E93400F5831214E29088
:1035D400838F1214D6E824D9F582E93400F58312D6
:1035E40014E2E824DFF582E93400F583E4F0E8240A
:1035F400E1F582E93400F583E4F0E824DDF582E9BD
:103604003400F583E4F0E824E2F582E93400F5833C
:10361400E4F0E824E3F582E93400F583E4F0E824F7
:10362400F9F582E93400F583E4F0A3F0E824FBF52E
:1036340082E93400F583E4F0A3F0E824FDF582E99F
:103644003400F583E4F0A3F0E824FFF582E93400C4
:10365400F583E4F0A3F0E8FAE9FBEA2404FCEB3494
:1036640000FDEA246BF582EB3400F58374FFF08AE5
:10367400828B83A3AA82AB83EC6A7002ED6B70E247
:10368400E8FAE9FB7CE27D078C828D83E0C0E0EA06
:10369400245DF582EB3400F583D0E0F08C828D83D9
:1036A400A3AC82AD838A828B83A3AA82AB83EC64AE
:1036B400E77003ED640770D0E8FAE9FB7CAC7D04A5
:1036C4008C828D83A3E0C0E0EA24E5F582EB34002C
:1036D400F583D0E0F08C828D83A3AC82AD838A82A3
:1036E4008B83A3AA82AB83EC64B47003ED6404708F
:1036F400CF9004C5E004F06401700D88828983A32F
:10370400A3A3A3E09004C7F0E8FAE9FB02342A0B70
:10371400E82406F8E93401F9EBC3940340030234C6
:1037240026023433C082C0838A828B83A3A3A3E09E
:10373400600F8A828B83A3A3A3E4F09004C6E014F1
:10374400F09004C5E014F070069004C774FFF08A8A
:10375400828B83A3A3E4F09007E7E0700D9004C686
:10376400E0640170057900120BFA0224E1C082C002
:103774008378C5790488828983A3A3A3A3A3A3A37D
:10378400E4F088828983A3A3A3A3A3A3F0E8240677
:10379400F8E93401F9E864D77003E9640770D69056
:1037A40004C5E4F0A3F0A374FFF075E1F10224E191
:1037B40074F312168E750800750900750C00750AED
:1037C400C9750B04AE0AAF0B8E828F83A3A3A3E04B
:1037D400603FE5084509700AEEF8EFF988088909A1
:1037E400802F850882850983E0F8A3E0F583888229
:1037F400A3A31218B48E828F83E0F8A3E0F5838824
:1038040082A3A31214D6121EBB7404121616E96006
:10381400C7050CEE2406F50AEF3401F50BE50CC3DD
:10382400940340A0850882850983A3A3A3A3E0F998
:1038340002341474F612168E78FF79FF7508007E30
:10384400C97F04EEFCEFFD8C828D83A3A3A3E0600B
:103854006474FF68700374FF697025EC2474F58246
:10386400ED3400F583E064017011EC247AF582ED07
:103874003400F583E0F8A3E0F9803AEC242E80EDDF
:10388400EC2474F582ED3400F583E064017014ECEB
:10389400247AF582ED3400F583C3E098A3E09950CF
:1038A4001480C7EC242EF582ED3400F583C3E09830
:1038B400A3E09940C60508EE2406FEEF3401FFE5B7
:1038C40008C394035003023847C3EA98EB994004B1
:1038D400E8FAE9FB0230E074F612168EEAFEEBFF1A
:1038E4008E828F83A3A3A3E0600F8E828F83A3A312
:1038F400A3E4F09004C6E014F09004C5E014F07062
:10390400069004C774FFF08E828F83A3A3E4F09023
:1039140007E7E0700D9004C6E064017005790012B9
:103924000BFAEE2465F582EF3400F583E0F8A3E0AA
:10393400F9E8496029EE2465F8EF3400F98808892C
:10394400098882F583E0FCA3E0FD9004C7E0FA7BDC
:10395400001207C8850882850983E4F0A3F0EEFA13
:10396400EFFB120B640230E074F712168EEAFEEBE2
:10397400FF8E828F83A3A3A3A3E0FA7B0012081017
:10398400EEFAEFFB120A5C120B46022EFEC082C056
:10399400837C007AC97B04EAF8EBF988828983A3E3
:1039A400A3A3E0601EE8246FF582E93400F583E008
:1039B4006011E8246BF582E93400F583E070047942
:1039C4000180110CEA2406FAEB3401FBECC39403E6
:1039D40040C579000224E1C082C08378AC790488B0
:1039E400828983A3E4F088828983A3A882A983E8D7
:1039F40064B47003E9640470E69004AD74010224B5
:103A0400A2C082C08374FC12160090838F1214D655
:103A14008518828519831214E2120AA4E985188292
:103A2400851983F0120AA4740112166AE9F0120AC5
:103A3400A4740212166AE9F0851882851983121497
:103A4400D6740402229174F612168EEAFEEBFFEC91
:103A54002403F8ED3400F988088909EC2407F8ED0B
:103A64003400F9E8FCE9FD8C828D83E0F8A3E0F9E9
:103A7400850882850983E0FAA3E0FB121575EE241C
:103A84000DF582EF3400F583E8F0A3E9F08C828D24
:103A940083E0F8A3E0F9850882850983E0FAA3E0CE
:103AA400FB1215758B09EA45096013EE240DF582A6
:103AB400EF3400F583E02401F0A3E03400F0023099
:103AC400E074F612168EEAFEEBFFEE242EF582EF7A
:103AD4003400F583E0FCA3E0FD780079FAECFAED1C
:103AE400FB121575EE2470F582EF3400F583E8F0CF
:103AF400A3E9F0780079FAECFAEDFB1215758B095D
:103B0400EA45096013EE2470F582EF3400F583E092
:103B14002401F0A3E03400F00230E074F012168EB9
:103B2400EAFEEBFF741012166A78081214B8120B2E
:103B3400CA8A0C8B0D8C0E8D0F9083EF780C1214A7
:103B44001E90840B780C12147F780C12189D8E82B0
:103B54008F83E0F8A3E0F5838882A3A31214D6121E
:103B64001EBB7404121616E96003023C6C8E828F2D
:103B740083E02402F8A3E03400F9E8FAE9FB8A823E
:103B84008B83780812143190840B78081214B88A45
:103B9400828B837808121492EE240BF582EF3400A2
:103BA400F583C082C0838E828F83A3A3A3A3A3E0E3
:103BB4002401F8A3E03400F9D083D082E0687003D4
:103BC400A3E06970057901023C6E8E828F83A3A302
:103BD400A3A3A3A3A3E02401F0A3E03400F0EE2404
:103BE40074F582EF3400F583E064017036EE2475D9
:103BF400F582EF3400F583E0F8A3E0F98E828F8339
:103C0400A3A3A3A3A3A3A3E0687003A3E069701311
:103C1400EE2475F582EF3400F583E02401F0A3E08F
:103C24003400F0EE2480F582EF3400F583E0640183
:103C34007036EE2481F582EF3400F583E0F8A3E0DA
:103C4400F98E828F83A3A3A3A3A3A3A3E068700325
:103C5400A3E0697013EE2481F582EF3400F583E06C
:103C64002401F0A3E03400F079007F0802176074A7
:103C7400F712168E9004C7E0F875F006A4C8AAF0EF
:103C84002AF974C928FE740439FF8028EE2465F8E3
:103C9400EF3400F988828983E0FCA3E0FD888289FF
:103CA40083E4F0A3F08E828F83A3A3A3A3E0FA7B23
:103CB400001207C8EE2465F582EF3400F583E0F8BE
:103CC400A3E0F9E849604FEE2464F582EF3400F58F
:103CD40083E0F50878081218A5EE2463F582EF3422
:103CE40000F583E0F9EE2465F582EF3400F583E016
:103CF400FCA3E0FDEEFAEFFB120A92740112161611
:103D0400E96089EE2465F582EF3400F583E0F8A3D9
:103D1400E0F9E84970137C007D008E828F83A3A3B1
:103D2400A3A3E0FA7B001207C8022EFE74F2121657
:103D34008EEAFEEBFF890A740E12166AE0FAEE248C
:103D440062F582EF3400F583E064016003023DFC18
:103D54009061D0E0F87480C398F50CEE2483F5826A
:103D6400EF3400F583E06004780480027800890869
:103D7400E928F8E43400F9E824020808E93400F9F1
:103D8400E50C98E499A2D265D0334068EA700575D1
:103D94000B028003750B01E0603975090078081285
:103DA40018A17A187B08120AC8740212161675082C
:103DB4001875090878081218A1AC0AA90BEEFAEFD5
:103DC400FB120AE674021216167404250AF50A7C1C
:103DD400187D087401250AF5D9850BD9E50A600D0B
:103DE4008C828D83F8E0F5D9A318E870F875E19515
:103DF400790080067907800279FF7F06021760C088
:103E040082C083E960208C828D83E08A828B83F078
:103E14008C828D83A3AC82AD838A828B83A3AA8296
:103E2400AB8319E970E0ECFAEDFB0224E1C082C037
:103E3400837869790888828983A3A3A3A3A3A3E4CD
:103E4400F088828983A3A3A3A3A374FFF0E82418B2
:103E5400F8E93400F9E864C97003E9640870D6909D
:103E6400086B74FFF090086AE4F0900869F0900819
:103E74006CF0A3F002555974EC12168E90086CE0A5
:103E8400F508A3E0F509E508450970061209A8023A
:103E94004B28850882850983E01460181460152472
:103EA400FE601124C470030245EA24C07003024575
:103EB400EA024B28E0F9120B588A0A8B0BAE0AAFC0
:103EC4000B9004C6E07003024268120A50E9F875C8
:103ED400F006A4C8AAF02AF974C928F50C740439A8
:103EE400F50D850C82F583E0F50AA3E0F50BAC0A29
:103EF400FDEEFAEFFB120B52E9F50E7402650E703B
:103F0400030242278E828F83E024FE600A24FE701F
:103F14000302411F024B28EE65087003EF65096038
:103F2400211209C69007F9E0640170169007F8E0C1
:103F340070107901120C66120C36120C60790012A2
:103F44000C6CE50E6021E5082415F582E5093400C2
:103F5400F583E060129007F4E0F8A3E0F9A3E068C9
:103F64007003A3E0697026120BCA8A0C8B0D8C0EA9
:103F74008D0F9083DB780C12141E90840B780C1236
:103F8400147F8E828F83A3A3780C1214C7E50824B0
:103F940015F582E5093400F583E06401600302400D
:103FA40045850A82850B83A3A3780C1214B89083E9
:103FB400FB780C12141E780C12189D8E828F83A32A
:103FC400A3C082C0839007F6E0F508A3E085080C3F
:103FD400F50DE4F50EF50FD083D082780C12141E83
:103FE400AA0CAB0DAC0EAD0F121EBB740412161648
:103FF400E9703C8E828F83A3A3C082C0839007F6AE
:10400400E0F508A3E0F509E4F50AF50BD083D082C6
:10401400780812141E90840B780812147FEE240E74
:10402400F582EF3400F58378081214C7024117852E
:104034000A82850B83A3A378081214B89083FB80AB
:10404400CFEE240EF582EF3400F5831218B48E827D
:104054008F83A3A31214D6121EBB7404121616E97E
:1040640064016003024117850A82850B83A3A37848
:104074000C1214B89083FB780C12141E780C1218CE
:104084009D8E828F83A3A3C082C0839007F6E0F540
:1040940008A3E085080CF50DE4F50EF50FD083D0E8
:1040A40082780C12141EAA0CAB0DAC0EAD0F121EAE
:1040B400BB7404121616E9701F8E828F83A3A3C0EB
:1040C40082C0839007F6E0F508A3E0F509E4F50A59
:1040D400F50BD083D0828010850A82850B83A3A33D
:1040E40078081214B89083FB780812141E90840B7D
:1040F400780812147FEE240EF582EF3400F58378ED
:10410400081214C79007FCE0642770047425800229
:10411400E004F090086B7402024B20EE6508700313
:10412400EF65096031900810E0F91209CC85088226
:10413400850983E06402701E9007F9E0640170163B
:104144009007F8E070107900120C66120C36120C0D
:10415400607901120C6CE50E601290080AE0F8A375
:10416400E0F9A3E0687003A3E0697026120BCA8A21
:104174000C8B0D8C0E8D0F9083DB780C12141E901B
:10418400840B780C12147F8E828F83A3A3780C1275
:1041940014C7850A82850B83A3A3780C1214B890E4
:1041A40083FB780C12141E780C12189D8E828F8358
:1041B400A3A3C082C08390080CE0F508A3E085089F
:1041C4000CF50DE4F50EF50FD083D082780C1214A3
:1041D4001EAA0CAB0DAC0EAD0F121EBB740412164E
:1041E40016E9701F8E828F83A3A3C082C0839008B8
:1041F4000CE0F508A3E0F509E4F50AF50BD083D04B
:10420400828010850A82850B83A3A378081214B8D0
:104214009083FB780812141E90840B780812147F84
:10422400024B09850882850983E0640270139007B4
:10423400F9E06401700B9007F8E070057900120C46
:1042440066E50C2404FEE50D3400FF8E828F83E0C6
:10425400F9120B8E8E828F83E09004C7F0AA0AAB0A
:104264000B024B25EE65087003EF65098E828F8380
:10427400600302444CE024FE600A24FE70030243FF
:10428400A7024B21EE2415F582EF3400F583E0609C
:10429400419007F4E0F8A3E0F9A3E0687003A3E019
:1042A40069602F120BCA8A088B098C0A8D0B9083C4
:1042B4007F780812141E780812189D8E828F83A3AB
:1042C400A31214D6121EBB7404121616E96003025C
:1042D4004B21120BCA8A088B098C0A8D0B9083DB45
:1042E400780812141E90840B780812147F8E828F23
:1042F40083A3A378081214C7EE2415F582EF3400C3
:10430400F583E0640170348E828F83A3A3C082C0DE
:10431400839007F6E0F508A3E0F509E4F50AF50B48
:10432400D083D082780812141EEE240EF582EF3466
:1043340000F58378081214C7024B21EE240EF5828F
:10434400EF3400F5831218B48E828F83A3A3121462
:10435400D6121EBB7404121616E964016003024BE4
:10436400218E828F83A3A3C082C0839007F6E0F5D9
:1043740008A3E0F509E4F50AF50BD083D0827808A8
:1043840012141EEE240EF582EF3400F58378081221
:1043940014C79007FCE0642770057425024B20E0E5
:1043A4000480F990080AE0F8A3E0F9A3E068700338
:1043B400A3E069602C120BCA8A088B098C0A8D0B46
:1043C40090837F780812141E780812189D8E828FAD
:1043D40083A3A31214D6121EBB7404121616E9701A
:1043E40064EE2402F508EF3400F509120BCA8A0CB6
:1043F4008B0D8C0E8D0F9083DB780C12141E908421
:104404000B780C12147F850882850983780C1214AA
:10441400C7850882850983C082C08390080CE0F5B3
:1044240008A3E0F509E4F50AF50BD083D0827808F7
:1044340012141EEE240EF582EF3400F58378081270
:1044440014C71209D2024B21E024FE600A24FE7034
:1044540003024512024B281209C69007F9E06401D1
:1044640070169007F8E070107901120C66120C3681
:10447400120C607900120C6C9007F4E0F8A3E0F9D8
:10448400A3E0687003A3E069602F120BCA8A088B4B
:10449400098C0A8D0B90837F780812141E780812F9
:1044A400189D8E828F83A3A31214D6121EBB74048C
:1044B400121616E96003024117EE2402F508EF34E0
:1044C40000F509120BCA8A0C8B0D8C0E8D0F90838C
:1044D400DB780C12141E90840B780C12147F850860
:1044E40082850983780C1214C7850882850983C0E4
:1044F40082C0839007F6E0F508A3E0F509E4F50A25
:10450400F50BD083D082780812141E024021900843
:1045140010E0F91209CC850882850983E0640270F1
:104524001E9007F9E0640170169007F8E0701079A6
:1045340000120C66120C36120C607901120C6C908D
:10454400080AE0F8A3E0F9A3E0687003A3E0696057
:104554002C120BCA8A088B098C0A8D0B90837F78E6
:104564000812141E780812189D8E828F83A3A3123A
:1045740014D6121EBB7404121616E97066EE2402D9
:10458400F8EF3400F988088909120BCA8A0C8B0DDC
:104594008C0E8D0F9083DB780C12141E90840B7894
:1045A4000C12147F850882850983780C1214C78540
:1045B4000882850983C082C08390080CE0F508A3B3
:1045C400E0F509E4F50AF50BD083D08278081214DB
:1045D4001EEE240EF582EF3400F58378081214C71A
:1045E4001209D2024B1B9004C6E0700302498012E8
:1045F4000A50E9F875F006A4C8AAF02AF974C92883
:10460400F510740439F511851082F583E0F508A3DB
:10461400E0F5099004C7E0F875F006A4C8AAF02AEA
:10462400F974C928F50C740439F50D90086AE0543E
:104634000770030248A9A3E0F9120B588A0A8B0BEE
:10464400AE0AAF0BAC08AD09120B52E9F50E7402B9
:10465400650E70030248A9850C82850D83A3A3A36C
:10466400A3E0F875F08AA4C8AAF02AF974CE28F554
:104674000A740839F50BAA0AFB120B82AA0AAB0BBF
:10468400120B7C75128075130078121218A17C002D
:104694007D60E50A2406FAE50B3401FB120AC874AE
:1046A40002121616A80AA90B906195E0C0E0E8244E
:1046B40086F582E93401F583D0E0F0906196E0C09C
:1046C400E0E82487F582E93401F583D0E0F09061D5
:1046D40097E0C0E0E82488F582E93401F583D0E06E
:1046E400F0906198E0C0E0E82489F582E93401F5AE
:1046F40083D0E0F08E828F83E024FE600A24FE7073
:10470400030247E40248A91209C69007F9E06401CC
:1047140070119007F8E0700B120C36120C607900DF
:10472400120C6CE50E60129007F4E0F8A3E0F9A314
:10473400E0687003A3E0697026120BCA8A0C8B0D23
:104744008C0E8D0F9083DB780C12141E90840B78E2
:104754000C12147F8E828F83A3A3780C1214C78546
:104764000882850983A3A3780C1214B89083FB787C
:104774000C12141E780C12189D8E828F83A3A3C072
:1047840082C0839007F6E0F50CA3E0F50DE4F50E86
:10479400F50FD083D082780C12141EAA0CAB0DAC8A
:1047A4000EAD0F121EBB7404121616E9701F8E8212
:1047B4008F83A3A3C082C0839007F6E0F508A3E02B
:1047C400F509E4F50AF50BD083D0828010850882C0
:1047D400850983A3A378081214B89083FB024014BC
:1047E400900810E0F91209CCE50E601290080AE076
:1047F400F8A3E0F9A3E0687003A3E0697026120B44
:10480400CA8A0C8B0D8C0E8D0F9083DB780C1214DE
:104814001E90840B780C12147F8E828F83A3A3784E
:104824000C1214C7850882850983A3A3780C12147B
:10483400B89083FB780C12141E780C12189D8E828B
:104844008F83A3A3C082C08390080CE0F50CA3E07F
:10485400F50DE4F50EF50FD083D082780C12141EFA
:10486400AA0CAB0DAC0EAD0F121EBB7404121616BF
:10487400E9701F8E828F83A3A3C082C08390080C2B
:10488400E0F508A3E0F509E4F50AF50BD083D0823E
:104894008010850882850983A3A378081214B89030
:1048A40083FB024217E510650C7004E511650D7079
:1048B40003024979850C82850D83A3A3A3E07003C9
:1048C40002495D850C82850D83A3A3A3A3E0F8753B
:1048D400F08AA4C8AAF02AF974CE28FE740839FF15
:1048E400EEFAEFFB120B82EEFAEFFB120B7C750A69
:1048F40080750B00780A1218A17C007D60EE2406F6
:10490400FAEF3401FB120AC874021216169061956C
:10491400E0C0E0EE2486F582EF3401F583D0E0F0C8
:10492400906196E0C0E0EE2487F582EF3401F583D0
:10493400D0E0F0906197E0C0E0EE2488F582EF3497
:1049440001F583D0E0F0906198E0C0E0EE2489F5B1
:1049540082EF3401F583D0E0F0E5102404FEE51184
:104964003400FF8E828F83E0F9120B8E8E828F8348
:10497400E09004C7F0AA08AB09024B2590086AE04E
:1049840054077003024B28A3E0F9120B588A088BD2
:1049940009AE08AF098E828F83E024FE600A24FEEC
:1049A4007003024A6F024B281209C69007F9E064AB
:1049B4000170169007F8E070107901120C66120C61
:1049C40036120C607900120C6C9007F4E0F8A3E046
:1049D400F9A3E0687003A3E069602C120BCA8A088B
:1049E4008B098C0A8D0B90837F780812141E78082B
:1049F40012189D8E828F83A3A31214D6121EBB7429
:104A040004121616E97061EE2402F508EF3400F57D
:104A140009120BCA8A0C8B0D8C0E8D0F9083DB78D8
:104A24000C12141E90840B780C12147F8508828556
:104A34000983780C1214C7850882850983C082C053
:104A4400839007F6E0F508A3E0F509E4F50AF50B11
:104A5400D083D082780812141EEE240EF582EF342F
:104A640000F58378081214C7024117900810E0F982
:104A74001209CC90080AE0F8A3E0F9A3E0687003F7
:104A8400A3E069602C120BCA8A088B098C0A8D0B6F
:104A940090837F780812141E780812189D8E828FD6
:104AA40083A3A31214D6121EBB7404121616E97043
:104AB40063EE2402F8EF3400F988088909120BCA5E
:104AC4008A0C8B0D8C0E8D0F9083DB780C12141EC8
:104AD40090840B780C12147F850882850983780CE6
:104AE4001214C7850882850983C082C08390080C8C
:104AF400E0F508A3E0F509E4F50AF50BD083D082CC
:104B0400780812141EEE240EF582EF3400F5837833
:104B1400081214C71209D290086B7404F0EEFAEF6D
:104B2400FB120B4C7F0C02176074F012168EEAFE17
:104B3400EBFFEE2402F8EF3400F988088909EE242B
:104B440006F8EF3400F9880A890B8882F583121875
:104B5400B88508828509831214D6120BA674021232
:104B64001616850A82850B831218B8850882850972
:104B7400831214D6120B9A7402121616EE240EF532
:104B840082EF3400F5831214D6120BAC8E828F831D
:104B9400E06440701CEE2412F8EF3400F988828936
:104BA40083E0906064F088828983A3E090606580EC
:104BB40006906064E4F0A3F090086CEEF0A3EFF0CC
:104BC400EE2416F582EF3400F583E0F8A3E0F583D4
:104BD400888212168C906054E4F0A3F0A3F0A3F042
:104BE400A3F0A3F0A3F0A3F0A3F0A3F0A3F0A3F029
:104BF400906182E0C2E6F07591BFEE2415F582EF74
:104C04003400F583E064017003120BDCE5E170FC11
:104C1400EE2414F582EF3400F583E0F46003E0F54C
:104C2400E1EE2415F582EF3400F5837401F090046D
:104C34009FE06401706F120BCA8A088B098C0A8D7D
:104C44000B780812189D8E828F83A3A31214D61298
:104C54001F1874041216168A088B098C0A8D0B907F
:104C640083CB780C1214B87808790C1212E474030C
:104C740078081213D3E50824F4F508E5093401F59E
:104C840009900816E0600312114CE4F50AF50B785C
:104C94000812189D7A207B00900498E0F91211F410
:104CA40074041216167F0802176074EC12168EEA4A
:104CB400FEEBFF8C088D09EE4F70057902024DA3BF
:104CC400120BCA8A0C8B0D8C0E8D0F9083D3780C2B
:104CD40012141E90840B780C12147F8E828F83E042
:104CE4006402701F9007F4E0F8A3E0F9A3E0687091
:104CF40003A3E06970248E828F83A3A3780C12141B
:104D0400C78017E06404701290080AE0F8A3E0F981
:104D1400A3E0687003A3E06960DC780C12189D8539
:104D24000882850983A3A31214D6121F18740412CF
:104D340016168A108B118C128D139083C77810125B
:104D440012C54003024CBF850882850983A3A3785A
:104D5400081214B89083A7780812141E7808121841
:104D64009D8E828F83A3A31214D6121EBB740412C9
:104D74001616E96003024CBF9083C3780C12141E0C
:104D8400780C12189D8E828F83A3A31214D6121E40
:104D9400BB7404121616E9700479008002790102CA
:104DA4004B2874F012168E890874FF65086003029C
:104DB4004F3290086AE0540770030253FE7A007879
:104DC40069790888828983A3A3A3A3A3E0640470F8
:104DD40050EA75F018A4F8A9F0746F28F5827408E5
:104DE40039F583E0640170487A007869790888822B
:104DF4008983A3A3A3A3A3E064046003024E8A8867
:104E0400828983A3A3A3A3A3A3E064017078EA75B2
:104E1400F018A4F8A9F0746E28FA740839FB025447
:104E2400020AE82418F8E93400F9EAC39404409328
:104E34007A007869790888828983A3A3A3A3A3E06D
:104E440064017057EA75F018A4F8A9F0746F28F596
:104E540082740839F583E06401704F7A00786979C7
:104E64000888828983A3A3A3A3A3E0640160030247
:104E74004F0E88828983A3A3A3A3A3A3E064016044
:104E840003024F0E80880AE82418F8E93400F9EA8E
:104E9400C394045003024DF20253FE0AE82418F8A6
:104EA400E93400F9EAC39404408C7A0078697908FB
:104EB40088828983A3A3A3A3A3E064027061EA7533
:104EC400F018A4F8A9F0746F28F582740839F583F2
:104ED400E0640170597A007869790888828983A32B
:104EE400A3A3A3A3E06402707A88828983A3A3A303
:104EF400A3A3A3E06401706BEA75F018A4F8A9F009
:104F0400746E28FA740839FB806F0AE82418F8E9EB
:104F14003400F9EAC394045003024E650253FE0AB6
:104F2400E82418F8E93400F9EAC3940440827A00CA
:104F34007869790888828983A3A3A3A3A3E0650879
:104F4400703D88828983A3A3A3A3A3A3E064017013
:104F54002EEA75F018A4F8A9F0746E28FE740839C6
:104F6400FF802F0AE82418F8E93400F9EAC394040E
:104F74005003024EDF7A007B000254020253FE0A01
:104F8400E82418F8E93400F9EAC3940440A67E0042
:104F94007F007A007869790888828983A3A3A3A310
:104FA400A3E06508701BEA75F018A4F8A9F0746F03
:104FB40028F582740839F583E0640170137A01805E
:104FC400110AE82418F8E93400F9EAC3940440C843
:104FD4007A00E50814600F14700302519B24FE70DC
:104FE400030252F580967B00786979088882898368
:104FF400A3A3A3A3A3E064027055EB75F018A4F86F
:10500400A9F0746F28F582740839F583E06401709F
:105014004D7B007869790888828983A3A3A3A3A31D
:10502400E0640260030250D188828983A3A3A3A30E
:10503400A3A3E0640160030250D1EB75F018A4F857
:10504400A9F0746E28F50A740839F50B0250E90BBF
:10505400E82418F8E93400F9EBC39404408E7B008B
:105064007869790888828983A3A3A3A3A3E064044D
:105074006003025125EB75F018A4F8A9F0746F28A9
:10508400F582740839F583E0640160030251377BCB
:10509400007869790888828983A3A3A3A3A3E06421
:1050A40004600302514288828983A3A3A3A3A3A318
:1050B400E064016003025142EB75F018A4F8A9F012
:1050C400746E28F50A740839F50B02515A0BE8245A
:1050D40018F8E93400F9EBC39404500302501B752B
:1050E4000A00750B00EAA2E0400302518D850A8292
:1050F400850B83A3A3780C1214B89083BF780C1289
:10510400141E780C12189D8E828F83A3A31214D6BA
:10511400121EBB7404121616E9706EEEFAEF024EFC
:10512400210BE82418F8E93400F9EBC39404500384
:10513400025068EAA2E05058EEFAEFFB80560BE802
:105144002418F8E93400F9EBC3940450030250998D
:10515400750A00750B00EAA2E0502E850A82850BC1
:1051640083A3A3780C1214B89083BF780C12141E76
:10517400780C12189D8E828F83A3A31214D6121E4C
:10518400BB7404121616E96092AA0AAB0B0254020D
:105194007A007B000254027B00786979088882894E
:1051A40083A3A3A3A3A3E064047052EB75F018A433
:1051B400F8A9F0746F28F582740839F583E0640166
:1051C400704A7B007869790888828983A3A3A3A3A2
:1051D400A3E06404600302526988828983A3A3A3C1
:1051E400A3A3A3E06401707DEB75F018A4F8A9F003
:1051F400746E28F50A740839F50B0252810BE82401
:1052040018F8E93400F9EBC3940440917B00786901
:10521400790888828983A3A3A3A3A3E0640160031C
:105224000252BDEB75F018A4F8A9F0746F28F5824A
:10523400740839F583E0640160030252CF7B00787F
:1052440069790888828983A3A3A3A3A3E064016086
:10525400030252DA88828983A3A3A3A3A3A3E064ED
:1052640001707380830BE82418F8E93400F9EBC368
:10527400940450030251CC750A00750B00EAA2E0B5
:10528400400302518D850A82850B83A3A3780C12F7
:1052940014B89083BF780C12141E780C12189D8ECB
:1052A400828F83A3A31214D6121EBB740412161683
:1052B400E9600302518D02511F0BE82418F8E93408
:1052C40000F9EBC394045003025216EAA2E0501A08
:1052D400EEFAEFFB80180BE82418F8E93400F9EB38
:1052E400C394045003025247808D7A007B00025419
:1052F400027B007869790888828983A3A3A3A3A386
:10530400E064017040EB75F018A4F8A9F0746F28FC
:10531400F582740839F583E0640170387B0078699C
:10532400790888828983A3A3A3A3A3E0640160030B
:105334000253BA88828983A3A3A3A3A3A3E064012D
:1053440070740251EC0BE82418F8E93400F9EBC34B
:10535400940440A37B007869790888828983A3A395
:10536400A3A3A3E064027063EB75F018A4F8A9F09A
:10537400746F28F582740839F583E06401705B7BEF
:10538400007869790888828983A3A3A3A3A3E0642E
:1053940002704F88828983A3A3A3A3A3A3E064011B
:1053A4007040EB75F018A4F8A9F0746E28F50A742F
:1053B4000839F50B80410BE82418F8E93400F9EBBF
:1053C400C39404500302532602527B0BE82418F8BA
:1053D400E93400F9EBC394044080EAA2E0501B02D4
:1053E400511F0BE82418F8E93400F9EBC394044086
:1053F40094750A00750B000252817A007B00024CFE
:10540400A974F612168E89097508007869790888D6
:10541400828983A3A3A3A3A3A3E060030254E1E5C9
:105424000875F018A4F8A9F0746E28FE740839FF02
:105434008E828F83A37401F08E828F83E509F0122C
:105444000BCA8E828F83A3A31214E28E828F83A34E
:10545400A3A3A3A3A3E4F0A3F09083971214D6EE1E
:10546400240EF582EF3400F5831214E2EE2414F5D1
:1054740082EF3400F5837401F0EE2415F582EF34E5
:1054840000F5837401F0EE2416F582EF3400F58301
:10549400E4F0A3F090086AE04509F0900869E0049C
:1054A400F06401600C7480650960067440650970DD
:1054B40019E50875F018A4F8A9F0746E28F87408B2
:1054C40039F990086CE8F0A3E9F0E50875F018A440
:1054D400F8A9F0746E28FA740839FB80180508E8F6
:1054E4002418F8E93400F9E508C39404500302547D
:1054F400137A007B0080007F02021760C082C083A1
:105504008A828B83E0F8A3E0F98A828B83E4F0A398
:10551400F088828983A3F088828983E0F4F8900874
:105524006AE058F0900869E014F0700B90086CE49D
:10553400F0A3F0900499F0801CC082C083900869A5
:10554400E0600A90086CE0FAA3E0FB80047A007B38
:10555400008002E0F9D083D08202011FC082C083A0
:10556400E9FB7A007869790888828983A3A3A3A3D5
:10557400A3E06B7016EA75F018A4F8A9F0746F280C
:10558400F582740839F583E0F980110AE82418F8E3
:10559400E93400F9EAC3940440CE790080B7C082AC
:1055A400C08390086902555774F612168EEAFEEB12
:1055B400FF9061D0E0C0E0EE2400F582EF3401F505
:1055C40083D0E0F09061D7E0FA9061D5E0C39A54BB
:1055D4007FC0E0EE2401F582EF3401F583D0E0F0E2
:1055E400EE2402F8EF3401F99061D6E0C39A547FB7
:1055F40088828983F0701A9061C5E0A2E45012E0B9
:10560400A2E7500DEE2402F582EF3401F583748095
:10561400F0120C90EE2401F582EF3401F583E07072
:1056240034EE2402F582EF3401F583E070279061B3
:10563400C5E0A2E4501FE0A2E7501AEE2402F5826E
:10564400EF3401F5837480F0EE2401F582EF340128
:10565400F5837480F075E1957800EE2400F582EF0F
:105664003401F583E060279061D3E0C0E08808EE60
:105674002508F582EF3400F583D0E0F008EE24002D
:10568400F582EF3401F583E0F9E8C39940D975E177
:10569400910254FB74F612168EEAFEEBFF9061C879
:1056A400E0C0E0EE2403F582EF3401F583D0E0F0AE
:1056B4009061CFE0FA9061CDE0C39A547FC0E0EEF0
:1056C4002404F582EF3401F583D0E0F0EE2405F8EC
:1056D400EF3401F99061CEE0C39A547F88828983C4
:1056E400F0701A9061C5E0A2E05012E0A2E3500D00
:1056F400EE2405F582EF3401F5837480F0120C96E4
:10570400EE2404F582EF3401F583E07034EE2405D1
:10571400F582EF3401F583E070279061C5E0A2E0E3
:10572400501FE0A2E3501AEE2405F582EF3401F590
:10573400837480F0EE2404F582EF3401F5837480E1
:10574400F0120C9C7A00EE2403F582EF3401F58309
:10575400E0602F9061CBE0C0E08A08EE2508F8EF06
:105764003400F9E82480F582E93400F583D0E0F0D0
:105774000AEE2403F582EF3401F583E0F8EAC398D6
:1057840040D175E1810254FB74F412168E8908A885
:1057940008E875F08AA4C8AAF02AF974CE28FE7421
:1057A4000839FFEEFAEFFB120B82EEFAEFFB120B55
:1057B4007C750A80750B00780A1218A17C007D6044
:1057C400EE2406FAEF3401FB120AC874021216160C
:1057D400906195E0C0E0EE2486F582EF3401F58314
:1057E400D0E0F0906196E0C0E0EE2487F582EF34DB
:1057F40001F583D0E0F0906197E0C0E0EE2488F5F5
:1058040082EF3401F583D0E0F0906198E0C0E0EEDF
:105814002489F582EF3401F583D0E0F07F04021788
:105824006074F212168E8908A808E875F08AA4C874
:10583400AAF02AF974CE28F8740839F99061C6E000
:10584400FDE054F0F075E1817C00E82403F582E981
:105854003401F583E0602B8C0AE8250AFAE9340068
:10586400FBEA2480F582EB3400F583E09061CAF012
:105874000CE82403F582E93401F583E0FAECC39AD9
:1058840040D5E82405F582E93401F583E06004900D
:1058940061CEF0E82404F582E93401F583E0600484
:1058A4009061CDF0ED9061C6F0A808E875F08AA487
:1058B400C8AAF02AF974CE28F8740839F9E0FCE093
:1058C400540FF075E1917A00E82400F582E934017F
:1058D400F583E060238A0AE8250AF582E93400F5B5
:1058E40083E09061D2F00AE82400F582E93401F5FE
:1058F40083E0FBEAC39B40DDE82402F582E934013E
:10590400F583E060049061D6F0E82401F582E9347F
:1059140001F583E060049061D5F0EC9061C6F085F8
:105924000882AE82EEF875F08AA4C8AAF02AF97447
:10593400CE28F50A740839F50B750C80750D0078BE
:105944000C1218A1E50A2406FCE50B3401FD7A00CB
:105954007B60120AC87402121616A80AA90BE8245E
:1059640086F582E93401F583E0906195F0E82487B7
:10597400F582E93401F583E0906196F0E82488F536
:1059840082E93401F583E0906197F0E82489F58297
:10599400E93401F583E0906198F0EE75F006A4CE49
:1059A400A8F028FF74C92EF58274043FF583E0F84B
:1059B400A3E0F5838882E0648070419011A8740AA2
:1059C400F0A3740BF0A374F2F0A3740AF0A3740AA6
:1059D400F0A3740BF0A3740AF0A3740BF0A374F295
:1059E400F0A3740AF0A3740AF0A3740BF0A3741068
:1059F400F0A3740BF09004997408800590049974D2
:105A040007F09011B674F2F0A3740AF0A374F2F0E4
:105A1400A3740AF0A374F2F0A3740AF0A374F2F06E
:105A2400A3740AF0A374F2F0A3740AF0A374F2F05E
:105A3400A3740AF07F06021760C082C083E9901144
:105A440086F0D083D08202011F74F612168EE9907C
:105A54000364F07CA47D037AFF7BFF1207087A00BD
:105A64008A08750900740278081215ED7465250812
:105A7400F874033509125A9CA3F00AEAC39403404C
:105A8400DF7905120696900364E0F91205BE7A20C8
:105A94007B071208D602701DF98882898374FF126D
:105AA4005AA9E4F022F0A3126EAAA32274F41216E7
:105AB4008E8A088B09EB54806030900364E0F912FD
:105AC40010D48A0A8B0BAE0AAF0BEE4F60138E8292
:105AD4008F83E064B070031206A8EEFAEFFB121095
:105AE400C2AA08E5096480FB80047A007B00025C9A
:105AF4007974F212168E74FC121600EAFEEBFF742F
:105B04001212166A126EF3EE4F7003025B9874025F
:105B140012166AEEF0A3EF125ED4ECF0A3ED125E5F
:105B2400D4AA82AB831205B8E9F50A706AE5084580
