:020000040000FA
:06000000020107021C9F33
:03002B00021F1B96
:03003300021EFAB0
:03005300021D1279
:03006B00021ECEA4
:03007B00021EE87A
:10008300021B53E5C754F84401F5C7790122000068
:100093000080FB120086B900030200F1E4791A78AC
:1000A30002B800028004F709D8FCE4791C7802B88E
:1000B30000028004F709D8FCE490028178EB790D03
:1000C3008002F0A3D8FCD9FA7A6B7B0F90013778C2
:1000D300DA79018015E493A3AD82AE838A828B83A0
:1000E300F0A3AA82AB838D828E83D8E9D9E7758288
:1000F300A07583B17403120119758291758300741D
:100103000012011975D00075813F751881751902A8
:10011300759F00020096C09FF59FE473D09F22D085
:1001230083D082C09FE493C0E0740193C0E0740263
:1001330093F59F2284039603C0038A03FF0000B450
:10014300000028002800283075A000A000A000A00F
:100153000000080008E001F000100010001000107B
:10016300001000100050005000500010001000D08C
:10017300070000000000000F0001000500307507B4
:10018300001000010081FF0000FF020202748101E0
:1001930000006781026E81010000C10F026C8101C2
:1001A3000000B102026E81010000C20F02708101E2
:1001B3000000C702FFFF0100FF200274810100005D
:1001C3006481026E81010000F00F027E8100000055
:1001D3000000026A81030000A403E60AE60AE60AB5
:1001E300E60AE60AE60AE60AE60AE60AE60AE60A8C
:1001F300E60AE60AB40CD20CAE0C01E803053F1084
:1002030002FFFFFF00FEFF544A475104011201227F
:10021300BDA903120122D3A90312012200AA0312CA
:10022300012230AA0312012251AA0312012282AA37
:1002330003120122D3AA03120122EAAA0312012202
:1002430080A60312012297A603120122C6A6031257
:100253000122FFA60312012227A70312012255A799
:10026300031201226CA70312012283A703120122A6
:1002730099A703120122C0A703120122D3A70312D5
:100283000122E9A70312012211A803120122359BBF
:1002930002120122349C021201225E9C02120122EC
:1002A300B39C02120122D49C02120122ED9C021281
:1002B3000122EF9C02120122109D02120122139EC1
:1002C30002120122D09E021201229D9F02120122DC
:1002D30001A00212012298A0021201229BA0021285
:1002E300012221A10212012264A102120122B6A15C
:1002F30002120122EDA10212012273A202120122B3
:10030300FCA20212012245A30212012248A30212F7
:100313000122A6A302120122BEA30212012238A4C3
:10032300021201223BA4021201225EA40212012244
:1003330061A40212012208A5021201222BA50212B6
:10034300012243A50212012273A50212012280A5F4
:100353000212012283A502120122EFA50212012239
:10036300DDA60212012293A70212012235B2021264
:10037300012210B3021201223EB302120122BEB3C4
:1003830002120122DEB3021201221CB40212012264
:100393006FB402120122D7B40212012268B502120D
:1003A300012233B60212012242B902120122AEBA6D
:1003B30002120122D1BA02120122E58F0312012295
:1003C300769103120122C79103120122269203128E
:1003D30001223492031201225D9203120122BCED29
:1003E30002120122E4ED0212012212EE0212012294
:1003F30049EE02120122B1EE02120122FAEE0212BA
:10040300012245EF0212012283EF02120122C0EF03
:1004130002120122EEEF0212012295F002120122D2
:100423009FF002120122ACF002120122DFF002124D
:100433000122A1F102120122ADF102120122C5F142
:1004430002120122CFF1021201224DF20212012205
:10045300FBAE0312012209AF0312012221AF0312E3
:10046300012239AF0312012251AF03120122AE71EF
:10047300001201224C7200120122C47200120122E6
:10048300D97300120122137400120122BC740012EA
:100493000122917500120122F576001201224C7798
:1004A30000120122D37700120122BA78001201222E
:1004B300077900120122957900120122B9790012FD
:1004C30001228E7B00120122CF7B00120122F17BDD
:1004D30000120122B67C001201227C7D001201224F
:1004E300B17F001201222BFC0212012241FC0212F5
:1004F300012267FC021201228FFD0212012299FDE3
:1005030002120122F2FE02120122F2FF0212012262
:10051300AFF70212012251F80212012284F80212EB
:100523000122CEF80212012288FA02120122FDAA48
:10053300011201227BAB011201228BAB01120122BA
:100543006EAC0112012291AC01120122F0AC011236
:10055300012206AE011201220AB001120122C1B129
:10056300011201223DB2011201221AB3011201222A
:1005730048B601120122E6B60112012243B8011264
:100583000122B6B9011201225FBA01120122A8BAEF
:1005930001120122DFBA0112012284BB01120122DE
:1005A30002BC0112012248CC011201229DCC01128E
:1005B3000122E2CD01120122F2CD0112012215CE58
:1005C3000112012260CE0112012205CF0112012284
:1005D300FBCF01120122C5D0011201223DD201122B
:1005E30001227FD2011201221DD30112012243D322
:1005F3000112012231D50112012236D50112012245
:1006030017D7011201226BD701120122CDD7011294
:100613000122F5D70112012299D8011201225BD9D7
:10062300011201228CD9011201228FD90112012258
:10063300D7D90112012219DA0112012280DA01123B
:100643000122CF9C03120122E29C03120122EB9CA4
:1006530003120122049D031201224F9D0312012262
:100663002A9E03120122B99E03120122049F031240
:100673000122F958001201220959001201226C5972
:1006830000120122B15900120122615A0012012203
:100693003A5B00120122635B00120122935B00129A
:1006A3000122A75D00120122835F00120122636110
:1006B300001201229B620012012214650012012222
:1006C30000660012012246670012012253680012DD
:1006D3000122956800120122CD6800120122E76809
:1006E300001201224F6900120122E96D001201225A
:1006F3008A6E00120122DE6E00120122056F0012C3
:100703000122436F00120122626F00120122B66FB1
:1007130000120122BE700012012247710012012251
:1007230061DD021201226BDD0212012207DE0212D9
:100733000122D2DE02120122F1DE0212012217DFB0
:100743000212012256DF021201228EDF021201225F
:10075300B7DF02120122F1DF0212012206E00212C8
:100763000122D3E002120122F6E00212012218E173
:10077300021201222DE102120122B7E1021201222B
:10078300F1E10212012265E202120122AEE202123B
:100793000122D8E202120122FDE2021201225A884A
:1007A30003120122248903120122078A0312012260
:1007B3007D8A03120122BF8A03120122EC8B0312EA
:1007C30001220080021201222980021201224280AA
:1007D3000212012287810212012265820212012282
:1007E3008482021201221183021201225483021213
:1007F30001228C8402120122F88402120122EE8665
:10080300021201227C89021201220F8A02120122A2
:10081300E38A02120122868B02120122998C0212B0
:1008230001222F8D0212012201AB031201226AABB6
:1008330003120122BEAB03120122EDAB031201220C
:100843000080031201226D8003120122B88003127B
:100853000122AD8103120122A98203120122938393
:10086300031201228CCA02120122D3CA02120122EC
:10087300ACCB02120122A7CC0212012286CD0212B6
:100883000122F2CD021201220ECF0212012275CFF4
:100893000212012278CF02120122A3CF02120122F7
:1008A30014D002120122B7D002120122CCD00212BC
:1008B300012214D1021201222DD10212012230D1C0
:1008C30002120122759303120122B1930312012232
:1008D300EF9303120122B994031201222C95031200
:1008E3000122679503120122A59503120122D595D2
:1008F30003120122FC9503120122679603120122BF
:10090300A996031201228181011201229F83011200
:1009130001224E8501120122FE8501120122498620
:1009230001120122948601120122A68601120122DC
:10093300E686011201221B87011201226787011239
:100943000122968701120122B987011201224088F0
:10095300011201222C89011201226A8A0112012249
:100963006C8B01120122488D011201226C9201123B
:100973000122B29201120122F09201120122259565
:10098300011201222AA103120122CAA20312012287
:10099300401F00120122D71F001201221D20001246
:1009A3000122532100120122EA22001201226223B2
:1009B30000120122A42300120122F42300120122B7
:1009C3005F2500120122CA2700120122A628001265
:1009D3000122C52800120122E42800120122E7287F
:1009E300001201226D2A00120122622B0012012241
:1009F3005E2C00120122CE2C00120122402D001287
:100A03000122BF2D001201229A2E00120122A12FD2
:100A1300001201228030001201220B310012012248
:100A2300793100120122ED31001201221632001237
:100A33000122D53200120122E435001201222D36A3
:100A430000120122703600120122F3360012012235
:100A53009737001201222838001201224D38001264
:100A63000122973800120122C138001201220639EF
:100A730000120122813900120122DB390012012206
:100A83002F3B00120122EC3B00120122BF3C00125B
:100A93000122C8E90112012218EA0112012224EA03
:100AA3000112012201EB0112012231EB0112012299
:100AB30069EB01120122E8EB0112012220EC011281
:100AC300012272EC01120122AFEC01120122D4EED9
:100AD3000112012200F101120122FBF20112012293
:100AE300D6F401120122FCFF021201229CD702124A
:100AF3000122CEDB021201221EDD02120122B6BC4C
:100B03000112012288C3011201228EC301120122A4
:100B13003EC6011201227FE8021201222BE90212D2
:100B23000122F9E90212012223EA0212012271ECE5
:100B330002120122ED3C00120122373D0012012274
:100B4300E949001201226A4B00120122624C001291
:100B53000122C15200120122BC5300120122F95397
:100B6300001201221C54001201225E5400120122C1
:100B730068540012012254550012012248560012F3
:100B83000122E15600120122F19603120122EF978E
:100B930003120122459803120122839803120122B2
:100BA300E098031201225D99031201226699031250
:100BB3000122729903120122859903120122C1991C
:100BC30003120122D7990312012254D102120122E6
:100BD30061D1021201227BD102120122BAD1021287
:100BE3000122F8D1021201225DD20212012272D235
:100BF3000212012289D20212012297D20212012289
:100C0300A6D202120122BBD202120122D0D20212B8
:100C13000122DBD202120122E7D202120122F4D214
:100C23000212012203D3021201220ED30212012265
:100C330033D302120122DCD302120122F1D30212B6
:100C4300012206D40212012220D4021201223BD433
:100C53000212012258D40212012263D40212012289
:100C63001FD5021201220BD60212012230D6021224
:100C730001223AD6021201224ED6021201226DD669
:100C830002120122CED602120122D4D6021201226E
:100C9300DAD602120122E0D602120122ECD60212A7
:100CA30001221FD702120122FEA7021201222AA843
:100CB300021201220EA902120122A8AB0212012282
:100CC300BEAC02120122DBAD021201227EAE021281
:100CD300012224AF02120122AB8D021201222D8EBA
:100CE30002120122D68E021201221E90021201224A
:100CF3002C92021201221293021201224793021232
:100D03000122699302120122129402120122E29536
:100D1300021201220B960212012283960212012271
:100D2300B59602120122C296021201220D970212F7
:100D330001223197021201228299021201228C9A16
:100D430002120122E89A021201224ADB0112012255
:100D53005BDC011201223FDD0112012249DD011298
:100D630001226BDD0112012277DD011201221BDF5B
:100D73000112012248DF011201225EE00112012269
:100D8300B3E00112012202E201120122D7E20112B1
:100D9300012233E3011201229EE301120122D3E374
:100DA3000112012216E401120122E0E601120122DE
:100DB300F8E60112012289E70112012297E70112E5
:100DC3000122E4E701120122F2E7011201225EE8A7
:100DD30001120122D9E80112012230E90112012294
:100DE30020A30312012245A303120122BBA3031272
:100DF30001229DC302120122A6C302120122AFC324
:100E03000212012287C40212012238C602120122F1
:100E130068C60212012293C602120122C3C602123D
:100E23000122EEC60212012222C7021201224EC77C
:100E33000212012291C702120122BCC7021201222F
:100E430003C80212012258C8021201229AC80212D0
:100E53000122F4C8021201221FC9021201226EC923
:100E6300021201229EC902120122C9C902120122E1
:100E7300ECC9021201227BFF01120122A7FF01121A
:100E83000122D4FF01120122DEFF01120122EEFF33
:100E930001120122DEF2021201221DF302120122CB
:100EA300A6F302120122B9F30212012204F4021280
:100EB300012243F40212012252F402120122ABF482
:100EC30002120122FAF40212012250F50212012247
:100ED30045F6021201223AF70212012277F70212B3
:100EE3000122E1B0031201223E97011201223C9933
:100EF30001120122BD9A01120122BF9B011201229C
:100F0300479C01120122CC9C01120122F59C011283
:100F13000122459D0112012238A101120122A9A13A
:100F23000112012295A201120122CFA20112012274
:100F33000FA30112012242A40112012273A4011280
:100F43000122C6A4011201220FA5011201227DA5CF
:100F530001120122AFA501120122C9A5011201222A
:100F6300BBA601120122CBA6011201227AA801120B
:100F7300012291A801120122C3A80112012245AA4C
:100F830001120122BEAA01120122F8FF011201225D
:100F9300351F00120122EC7F00120122EAAF031277
:100FA3000122FAAF031201220CB00312012274B022
:100FB300031201220EAC0312012292AC031201228E
:100FC300FAAC03120122D9A403120122FFA40312D3
:100FD300012262A5031201227CA50312012299A515
:100FE30003120122ECA50312012245A603120122DA
:100FF300468C03120122608C03120122D98C031246
:101003000122AE8D03120122808F031201220AAE48
:101013000312012233AE031201225CAE031201223A
:1010230074AE03120122B6AE0312012225E30212AB
:1010330001222FE3021201226FE302120122B8E31D
:1010430002120122F2E30212012248E402120122F7
:1010530067E40212012270E402120122C1E40212C7
:101063000122EAE402120122F4E40212012265E5FC
:1010730002120122F3E50212012248E602120122C2
:1010830077E602120122F3E60212012230E702128E
:10109300012267E70212012279E70212012298E78F
:1010A30002120122A1E70212012253E802120122D5
:1010B30023A80312012273A803120122E5A8031235
:1010C30001224DA903120122079A03120122319A28
:1010D30003120122F89A03120122D49B0312012264
:1010E3005C9C0312012213AD031201222E9F0312F3
:1010F3000122649F03120122979F03120122F0A091
:101103000312012277B0031201228DB003120122D0
:1011130097B00312012241B10312012297F7011282
:10112300012254F8011201228FF801120122C0F8A2
:101133000112012222F9011201226EF90112012288
:10114300D9F90112012253FA0112012252FB0112B1
:101153000122D9FC011201225CFD01120122C2FD10
:1011630001120122D5FD01120122D0FE011201223A
:101173001DFF011201225584031201226B84031205
:1011830001220F85031201224E85031201226B8572
:10119300031201229C8503120122E9850312012215
:1011A3001D86031201225886031201224D88031261
:1011B300012209BC0212012215BD02120122CEBF77
:1011C300021201225DC00212012260C0021201223A
:1011D30064C20212012267C20212012286C20212F3
:1011E3000122C07F00120122F3B103E066701008F0
:1011F300A3E066700A08A3E066700408A3E0662211
:10120300C3E7960809E7960809E7960809E79622CF
:10121300C3E09608A3E09608A3E09608A3E096220D
:10122300C008C3E096F50808A3E096420808A3E0C7
:1012330096420808A3E09645087001D3D008220817
:101243000808EAC0E0EBC0E086F0E7A4FA180986D4
:10125300F0E7A42AFA180986F0E7A42AFA180986FF
:10126300F0E7A42AFA1986F0E7A4FBE5F02AFA19B5
:101273000886F0E7A42BFBE5F03AFA190886F0E7B5
:10128300A42BFBE5F03AFA18180986F0E7A4C5F099
:101293002BFBE43AFA1908E7C5F0C6A426F6E5F0F5
:1012A3003BFBE43AFA1886F0E7A4F6E5F00826F6E5
:1012B300E43B08F6E43A08F6D0E0FBD0E0FA22E497
:1012C300CFC0E0E4CEC0E0E4CDC0E0E4CCC0E07544
:1012D300F020E626F608E633F608E633F608E633AA
:1012E300F6181818EC33FCED33FDEE33FEEF33FF45
:1012F300C3EC9709ED9709EE9709EF971919194070
:101303000FFFEC97FC09ED97FD09EE97FE191906FF
:10131300D5F0BFECF709EDF709EEF709EFF7191967
:1013230019D0E0FCD0E0FDD0E0FED0E0FF22601653
:10133300080808C6C313C618C613C618C613C618AA
:10134300C613C6D5E0EA22700908080822601618F9
:101353001818C6C333C608C633C608C633C608C67C
:1013630033C6D5E0EA22E627F60809E637F6080988
:10137300E637F60809E637F622E026F608A3E03654
:10138300F608A3E036F608A3E036F622E026F008D6
:10139300A3E036F008A3E036F008A3E036F022C35A
:1013A300E697F60809E697F60809E697F60809E6C8
:1013B30097F622C3E096F008A3E096F008A3E09620
:1013C300F008A3E096F022E657F60809E657F60878
:1013D30009E657F60809E657F622E056F608A3E0B1
:1013E30056F608A3E056F608A3E056F622E056F0B8
:1013F30008A3E056F008A3E056F008A3E056F02255
:10140300E066F608A3E066F608A3E066F608A3E044
:1014130066F622E0F608A3E0F608A3E0F608A3E0E8
:10142300F622E6F008A3E6F008A3E6F008A3E6F048
:1014330022E0FAA3E0FBA3E0FCA3E0FD22EAF0A391
:10144300EBF0A3ECF0A3EDF022E0F8A3E0F9A3E0C6
:10145300FAA3E0FB22E8F0A3E9F0A3EAF0A3EBF0A0
:1014630022CAC0E0E6F0A308DAFAD0E0FA22CAC042
:10147300E0E0A3C582CCC582C583CDC583F0A3C5F7
:1014830082CCC582C583CDC583DAE6D0E0CA22C348
:10149300E498F8E499F91214D38026C3E49AFAE4A1
:1014A3009BFBE920E7E91214D3E498F8E499F922C5
:1014B300C3E498F8E499F91214D3E498F8E499F999
:1014C300C3E49AFAE49BFB22EB20E7CFE920E7E0B1
:1014D300B90010BB0008E88AF084F8AAF022E4FB04
:1014E300C8FA22EB70227B10C833C8C933C9335002
:1014F30007C39AC3DBF280069A50012ADBEAC8339A
:10150300F4C8C933F4C9FA2275F008E4C833C8C96A
:1015130033C933C99AC99B5004C92AC93BD5F0ECD6
:10152300FBC833F4C8E4C9FA22600D08C6A2E71366
:10153300C618C613C6D5E0F322600C08C6C313C68B
:1015430018C613C6D5E0F422700422600D18C6C372
:1015530033C608C633C6D5E0F41822251810AF08E1
:10156300F518400C15198008F51840021519D2AF6B
:101573002200C0D0251810AF08F518500C051980AB
:1015830008F51850020519D2AFD0D0222518F582DC
:1015930010AF08F518400C15198008F5184002150E
:1015A30019D2AF851983222518F582E43519F583FD
:1015B300222518F8E43519F9222518FAE43519FB20
:1015C300222518FCE43519FD22E4732518C582C0D1
:1015D300E0E51934FFC583C0E0E518C3958224F81C
:1015E30010AF088583198582188008858319858241
:1015F30018D2AFCEF0A3E520F0A37808E608F0A355
:10160300DEFAEFF0A3E58124FAF8E608F0A3E60892
:10161300F0A3E608F0A30808E608F0A3E608F0A3A1
:1016230015811581D0E0FED0E0F815811581158173
:10163300E8C0E0EEC0E0222518C582C0E0E5193419
:10164300FFC583C0E0E518C3958224F910AF088570
:1016530083198582188008858319858218D2AFCEB5
:10166300F0A3E520F0A37808E608F0A3DEFAEFF094
:10167300A3E58124FBF8E608F0A3E608F0A3080835
:10168300E608F0A3E608F0A315811581D0E0FED0AB
:10169300E0F815811581E8C0E0EEC0E022851983EA
:1016A300851882E0A3FEE0A3F5207808E0A3F608FE
:1016B300DFFAE0A3FFE0A3C0E0E0A3C0E0E0A3C043
:1016C300E0E0A3C0E0E0A3C0E010AF088582188586
:1016D30083198008858218858319D2AFD083D0827D
:1016E30002011F851983851882E0A3FEE0A3F5207C
:1016F3007808E0A3F608DFFAE0A3FFE0A3C0E0E088
:10170300A3C0E0E0A3C0E0E0A3C0E010AF0885827F
:10171300188583198008858218858319D2AFD083F1
:10172300D08222C0D02518C582C0E0E51934FFC598
:1017330083C0E0E518C3958224F310AF08858319AD
:101743008582188008858319858218D2AFC8F0A3D3
:10175300E9F0A3EAF0A3EBF0A37908E709F0A3D833
:10176300FAECF0A3EDF0A3EEF0A3EFF0A3D0E0F0DA
:10177300A3D0E0F0A3D0E0F0A3E520F0A3E5F0F0E0
:10178300A322851983851882E0C0E0A3E0F9A3E0D2
:10179300FAA3E0FBA37808E0F608A3DFFAE0FCA3D2
:1017A300E0FDA3E0FEA3E0FFA3E0C0E0A3E0C0E010
:1017B300A3E0F5D0A3E0F520A3E0A3F5F010AF0874
:1017C3008583198582188008858319858218D2AF8D
:1017D300D082D083D0E0F8D0E03274048006740263
:1017E30080027401C0E0F40412158FD0E012146477
:1017F300227404800474028000CCC0E0EDC0E0E5F4
:1018030018C39CCCAD1950011D10AF068C188D194F
:1018130080068C188D19D2AF121471D0E0FDD0E080
:10182300FC22D083D082E9C0E0E493A3C386F0C551
:10183300F095F0F908E493A386F0C5F095F0700BEA
:10184300E493A3C3994005E9048002A3E475F0027D
:10185300A42582F582E5F03583F583D0E0F9E4939E
:10186300A3C0E0E493C0E022D083D082ECC0E0EDDB
:10187300C0E0E493A3FCE493A3FDED4C600D1218C8
:10188300B7EC24FFFCED34FFFD80EFE493A3FCE40D
:1018930093A3FDED4C600D1218F6EC24FFFCED3420
:1018A300FFFD80EFD0E0FDD0E0FCE493A3C0E0E4D3
:1018B30093C0E022C0E0C3E49396087401939618A2
:1018C300400FE49366700808740193661870007003
:1018D30019A3A3C3E49396087401939618A3A34092
:1018E3000DD0E0D0E0D0E00218A7A3A3A3A3A3A345
:1018F300D0E022C0E0C0F088F0E49366700808747A
:10190300019366187000A8F0A3A3700BD0F0D0E089
:0E191300D0E0D0E00218A7A3A3D0F0D0E022CD
:1019240074F512163AEAFEEBFFEE2434F8EF3400B5
:10193400F988088909EE2435F582EF3400F583E04F
:10194400F8EE2437F582EF3400F583E0F50AEC85F0
:101954000AF0A4FCAAF0850AF0EDA42AFDE82CF80C
:10196400E43DF97A257B001214D3EA8508828509BF
:1019740083F05407F87401B800028004C333D8FC20
:10198400C0E0E0131313541FF8EE28F8EF3400F905
:10199400E8245DF582E93400F583D0E0F8E058608E
:1019A40008EE2434F582EF801EEE2436F582EF34FF
:1019B40000F583E0F5F0EA84A8F0EE28F8EF3400AF
:1019C400F9E82438F582E93400F583E0F97F04026C
:1019D40016E674F512163AEAFEEBFFEE2434F582AD
:1019E400EF3400F583E0C0E0EE2435F582EF3400F7
:1019F400F583D0E0F08E828F83A3A3A3A3A3A3A334
:101A0400C082C0838E828F83A3A3A3A3A3E0F8A381
:101A1400E0F9D083D082E0C398F508A3E099F509F2
:101A2400EE2480F582EF3400F583E064017069EE02
:101A34002481F582EF3400F583E0F8A3E0F98E8287
:101A44008F83A3A3A3A3A3A3A3E0FCA3E0FD8E829F
:101A54008F83A3A3A3A3A3E0FAA3E0FBC3EA9CEBB5
:101A64009D5027C3EC98ED99402EC3EA98EB99500A
:101A7400277CE27D07EEFAEFFB120A2CEE2480F5B8
:101A840082EF3400F583E4F0800EC3EA98EB9940CA
:101A9400E0C3EC98ED9950D9EE2434F8EF3400F912
:101AA400E8FCE9FDEE2435F582EF3400F583E0F837
:101AB400EE2437F582EF3400F583E0F50AE5088576
:101AC4000AF0A4F508AAF0850AF0E509A42AF509A4
:101AD400E82508F8E43509F97A257B001214D3EADD
:101AE4008C828D83F05407F87401B800028004C31B
:101AF40033D8FCC0E0E0131313541FF8EE28F8EFBA
:101B04003400F9E8245DF582E93400F583D0E0F887
:101B1400E0586008EE2434F582EF801EEE2436F59A
:101B240082EF3400F583E0F5F0EA84A8F0EE28F8BB
:101B3400EF3400F9E82438F582E93400F583E0F95C
:101B4400121EC00219D10000851A87851BC622C047
:101B5400E0C0D0E8C0E0E9C0E0EAC0E0EBC0E0ECFF
:101B6400C0E0EDC0E0C008C009C00AC00BC082C01C
:101B740083C0F0759B00906182E0A2E64003021CE2
:101B840031E591A2E64003021C317591BF9004999E
:101B9400E064057008120BA6120BB28003120BACA2
:101BA400751A00120C0CE990049AF07900120BEEED
:101BB40012099C7A017B00900498E0F91210869037
:101BC4007803E064426003021C7A900817E014F082
:101BD4006003021C7AC2AF121BDE00781DD0E0F64F
:101BE40018D0E0F6E59F5407F970059080F880035B
:101BF4009081507808121416E9C4C0E0781CE655A8
:101C040008F50808E65509F509740B780812153C1F
:101C1400D0E02508F8906270E0A2E740F8E8C3330A
:101C2400906272F0906270E0D2E0F08049E0A2E548
:101C34005024E591A2E5501E7591DF900499E0646B
:101C44000D70139004BBE004F064287002E4F07A91
:101C540000E0F9120C9C906181E0A2E35009E5E9EF
:101C6400A2E3500375E9F7A3E0A2E75009E591A2C6
:101C7400E7500375917FD0F0D083D082D00BD00A87
:101C8400D009D008D0E0FDD0E0FCD0E0FBD0E0FAF1
:101C9400D0E0F9D0E0F8D0D0D0E032C0E0C0D0C07D
:101CA40082C083906183E0A2E05009E5BFA2E050C6
:101CB4000375BFFEE0A2E15009E5BFA2E150037540
:101CC400BFFDE0A2E25009E5BFA2E2500375BFFBED
:101CD400E0A2E35009E5BFA2E3500375BFF7E0A219
:101CE400E45009E5BFA2E4500375BFEFE0A2E5505C
:101CF40009E5BFA2E5500375BFDFE0A2E65009E5A0
:101D0400BFA2E6500375BFBFD083D0828088C0E0F5
:101D1400C0D0E8C0E0E9C0E0EAC0E0EBC0E0ECC05D
:101D2400E0EDC0E0C0F0E5A7A2E6500FE5A1A2E611
:101D3400500953A7BF75A1BF121D77E5A7A2E550AF
:101D44000CE5A1A2E5500653A7DF75A1DFE5A7A224
:101D5400E15009E5A1A2E1500375A1FDE5A7A2E2C6
:101D6400500CE5A1A2E2500653A7FB75A1FBD0F0ED
:101D7400021C8874F812163A751A01900499E064EA
:101D8400067015120B5E8A828B83A3A3A3A3A3A35D
:101D9400E0FAA3E0FB120B94A2AFE433FED2AF90BF
:101DA400049FE0640170187A207B00900498E0F9A5
:101DB40012119A7A207B00900498E0F912108C900A
:101DC4006182E0D2E6F0900816E0602185C61B80AF
:101DD4001690049EE064017008E5C654F84405F5C5
:101DE400C653BEFC121B4C7401651A60E4EEA2E0FB
:101DF40092AF7F010216E674F112163A8A088B0933
:101E04008C0A8D0B740F1215AA780C12141690807C
:101E1400E478081213DD9080E4780C1213DD78085E
:101E2400790C12120350157808790C1213A29081C0
:101E34001C7808121223401579018013780C790854
:101E44001213A290811C780C12122340EB79007FAC
:101E5400080216E674ED12163A8A088B098C0A8D6C
:101E64000B74131215AA780C1214169080E47808D7
:101E74001213DD9080E4780C1213DD780C790812CB
:101E8400120340117808790C1213A2AA08AB09AC0A
:101E94000AAD0B80227510007511007512007513C0
:101EA400017810790C1213A278107908121369AA18
:101EB40010AB11AC12AD137F0C0216E6C082C083C6
:101EC400E9906000F0D083D08222C0E074F212174F
:101ED40026AEA8D2AF120FEAC2C5EEA2E792AF7F38
:101EE40001021785C0E074F2121726AEA8D2AF1211
:101EF4000FEAC2EB80E4C0E074F2121726A2AFE44A
:101F040033FED2AFE58BA2E05003120FEA758B00CB
:101F1400C2E8EEA2E080C6C0E0C0D0E8C0E0A8A855
:101F2400D2AFC2C7E8A2E792AFD0E0F8D0D0D0E0F9
:101F34003202011FFFFFFFFFFFFFFFFFC082C083CC
:101F44009061907404F0A37448F0A37402F090615B
:101F5400807440F09061BC7403F09061877419F050
:101F6400906265741BF090619C740DF090619A749A
:101F740033F0A37455F09061A0743AF0900814E023
:101F840064017009C29190049D7467800590049D5A
:101F94007461F0901F3EE493906186F0901F38E4E2
:101FA40093F46027E493540FF8906185E06860121D
:101FB400E5C654804449F5C6E59E547F644970F8EB
:101FC400E8F053C680E59E547F70FA7905120C7EC2
:101FD40002239DC082C083E5A8F853A87E90618146
:101FE400E4F0A3F0A3F0C2BA539AFEC289759B0031
:101FF400C2C275E90075910075BF0075A91175B964
:1020040005906181F0A374C0F0A3E4F0D2BA439ABE
:102014000174805842A802239DC082C08374F812C0
:10202400155E90049BE0F8A3E0F9E84970030221EF
:102034004B90049BE05440602379088518828519ED
:1020440083AA82AB83120A9E851882851983AA8289
:10205400AB8312078690049BE054BFF0E054806089
:1020640010790C7A387B08120A9E90049BE0547F06
:10207400F0E0A2E0503190619A7433F0A37455F00B
:102084009061A0743AF0900814E064017009C29160
:1020940090049D7467800590049D7461F012078C10
:1020A40090049BE054FEF0E05402603190619A7415
:1020B4003FF0A3745AF09061A0747FF0900814E08C
:1020C40064017009D29190049D7471800590049DFF
:1020D400746AF012078C90049BE054FDF0E0540401
:1020E4006013901F3CE493906186F0120792900471
:1020F4009BE054FBF0E054086013901F3DE4939080
:102104006186F012079290049BE054F7F0E05410BB
:102114006013901F3EE493906186F012079290043E
:102124009BE054EFF0E05420600A12079290049B65
:10213400E054DFF0A3E05401600D1209A8120798DF
:1021440090049CE054FEF0740812157402239D74EC
:10215400EC1215CE74F412155E851882851983ACC1
:1021640082AD837583807582E07404121471901FAC
:102174003C93F460030222E0907808E0C394025098
:10218400030222C074041215AAAC82AD8375838045
:102194007582B67408121471851882851983858234
:1021A4001285831374041215AAAC82AD83750EFFD5
:1021B400750FFF7FFF7E00750C48750D78801574D0
:1021C400086E700302225374096E70030222537462
:1021D4000A6E607B850C82850D8378081214168C38
:1021E400828D83A909E50AC9F88810741878081241
:1021F4001331E5104508F8C3E098A3E099850C82F3
:10220400850D83780812141640188C828D837418F7
:102214007808121331E5104508F8E0C398F8A3E0F4
:10222400801C74187808121331E5104508FAE9FB8C
:102234008C828D83E0F8A3E0F9EAC398F8EB99F96E
:10224400C3E8950EE9950F5006880E890FEEFF0E30
:10225400E50C2404F50CE50D3400F50DEEC39413E0
:1022640050030221C374FF650E700474FF650F6090
:10227400238F087402780812154B74482508F582D8
:1022840074783509F583780812141685128285133B
:1022940083E508F0EC24020C0CED3400FD85128279
:1022A400851383A3858212858313740C1215AAE502
:1022B400826C7003E5836D60030221B175080175BA
:1022C400090078081217E174021215AAAC82AD83D2
:1022D4007ACF7B07120FBA7402121574740C12159C
:1022E400747F0C0216A0C082C0839061AE7468F043
:1022F400A3746AF090624574FBF0A304F053F4FDF8
:1023040043FE029008147401F09061A0E0643A90D6
:10231400619A70237433F0A37455F09061A0743AF9
:10232400F0740164017009C29190049D746780285F
:1023340090049D74618021743FF0A3745AF09061FD
:10234400A0747FF0740164017009D29190049D74AB
:1023540071800590049D746A8000F002239DC08200
:10236400C0839007F2E0640170159007F8E06401FF
:102374006009E0700AA3E064017004790C80129093
:102384000809E06401700890080FE0640160EC79CA
:102394000002239DE0F9121EC0D083D08202011FE7
:1023A400C082C0839007FC7425F09007FA7401F092
:1023B400A3E4F07A01FB120BFA9007E8E02416F884
:1023C400A3E03400F98882898374CCF0A37409F003
:1023D4009007F9E0640170169007F8E07010790135
:1023E400120C5A120C2A120C547900120C6680A991
:1023F400C082C08374FA12155E9007F1E064017024
:10240400081209B49007F1E4F075E1F19007E8E0EF
:102414002415F8A3E03400F9888289837401F090CC
:1024240007F3E0640170769080C4C08285188285C9
:102434001983AC82AD83758380D0827406121471C3
:1024440075D90D9007EAE0C4333354C04403F5D979
:1024540078E8790788828983A3A3A3E0F5D98882E1
:102464008983A3A882A983E864EE7003E9640770F2
:10247400E3851882851983A882A98388828983E0E9
:10248400F5D9A3A882A98374061215AAE5826870F7
:1024940003E5836970E575E195790180027900129D
:1024A4000C009010117416F0A3740BF0A3741CF0BC
:1024B400A3740BF0A37416F0A3740BF0A37416F0BA
:1024C400A3740BF0A374E6F0A3740AF0A374E6F00B
:1024D400A3740AF0A37422F0A3740BF090101F7479
:1024E400E6F0A3740AF0A374E6F0A3740AF0A374EC
:1024F400E6F0A3740AF0A374E6F0A3740AF0A374DC
:10250400E6F0A3740AF0A374E6F0A3740AF090074B
:10251400EAE0F97AEB7B07120BDC9007FCE0F91296
:102524001EC07901120C069080DC121434120C1EA9
:102534009080FC121434120BE87900120C7290078C
:10254400E8E02414F8A3E03400F98882898374163F
:10255400F09004997405F00402214D74F71215CE1D
:102564008908A808E875F006A4C8AAF02AF974C96D
:1025740028FE740439FF900801E0F97A027B0812FE
:102584000BDC90080FE0701A7900120C3C9007DB0A
:10259400E0700B79007ADC7B07120BE28009790189
:1025A40080F37901120C3C75E1F175D9239008018F
:1025B400E0C4333354C04405F5D978FF79078882E1
:1025C4008983A3A3A3E0F5D988828983A3A882A9D8
:1025D40083E864057003E9640870E375D90075D96C
:1025E4000075D90075D90075D90075D900EEF8EFDA
:1025F400F9E82404FAE93400FBE82422F582E934FA
:1026040000F583E0F5D988828983A3A882A983EAA7
:10261400687002EB6970E2EEF8EFF9E824031AE956
:102624003400FBE82426F582E93400F583E0F5D98B
:1026340088828983A3A882A983EA687002EB6970FF
:10264400E2EE242BF582EF3400F583E0F5D9EEF8C1
:10265400EFF9E824021AE93400FBE8242CF582E9B6
:102664003400F583E0F5D988828983A3A882A983FD
:10267400EA687002EB6970E2EEF8EFF9E8242EF5EF
:1026840082E93400F583E0F5D988828983A3A8829E
:10269400A983EA687002EB6970E2EEF8EFF9E824C6
:1026A40030F582E93400F583E0F5D988828983A383
:1026B400A882A983EA687002EB6970E2EEF8EFF988
:1026C400E82432F582E93400F583E0F5D98882897B
:1026D40083A3A882A983EA687002EB6970E2EEF82A
:1026E400EFF9E824050A0A0AE93400FBE8245DF559
:1026F40082E93400F583E0F5D988828983A3A8822E
:10270400A983EA687002EB6970E2EE2437F582EF80
:102714003400F583E0541FF8EE242AF582EF3400E8
:10272400F583E0C43354E048F5D975E19590101170
:1027340074ECF0A3740AF0A374F2F0A3740AF0A387
:1027440074E6F0A3740AF0A374E6F0A3740AF0A389
:1027540074E6F0A3740AF0A374E6F0A3740AF0A379
:1027640074F8F0A3740AF090101F74E6F0A3740ACE
:10277400F0A374E6F0A3740AF0A374E6F0A3740A59
:10278400F0A374E6F0A3740AF0A374E6F0A3740A49
:10279400F0A374E6F0A3740AF090080EE0F9121E98
:1027A400C09080DC121434120C1E9080FC1214347D
:1027B400120BE890600DE4F07901120C7290049908
:1027C4007406F0022DBA74EC1215CE9007FFE0F8EF
:1027D400A3E0F5838882A3A378101214169008103E
:1027E400E0FAF875F006A4C8ACF02CF974F728F5F3
:1027F40082740439F583E0FEA3E0FFEEC333FEEFF9
:1028040033FF8E0CF50D750E00750F0085100885CD
:10281400110985120A85130B9080EC780812137C39
:1028240078081217DD85100885110985120A8513A9
:102834000B7808790C1213697810790C1212C2E41F
:10284400F50EF50F7808790C1213A28A0C750D0099
:102854007403780C12154B7808790C121369908064
:10286400E478081213DDAA08AB09AC0AAD0B121EFA
:102874005874041215748A088B09A808A909C3EEB0
:1028840098EF995006E82EF8E93FF9E890600EF0C9
:10289400E9A3F0EEA3F0EFA3F090600D74C1F00291
:1028A40022E5C082C0839007E8E0F8A3E0F58388BE
:1028B40082A3A3A3A3A3A3E4F0A3F09007FC0223A1
:1028C40098C082C0839007FFE0F8A3E0F583888274
:1028D400A3A3A3A3A3A3E4F0A3F090080E02239858
:1028E40002011F74F61215CE9061D0E0F87480C313
:1028F40098FCEA2483F582EB3400F583E0600478E5
:102904000480027800E8240EF8ECC3985003022AED
:10291400687E0C900818E4F0EA2477F582EB340022
:10292400F583E0900819F0EA2478FCEB3400FD7894
:102934001A79087F028C828D83E088828983F08CE7
:10294400828D83A3AC82AD8388828983A3A882A964
:10295400831FEF70E0EA247AFCEB3400FD7F028CE5
:10296400828D83E088828983F08C828D83A3AC82FC
:10297400AD8388828983A3A882A9831FEF70E0EACC
:10298400247CFCEB3400FD7F028C828D83E0888202
:102994008983F08C828D83A3AC82AD838882898302
:1029A400A3A882A9831FEF70E0EA247EFCEB340025
:1029B400FD7F028C828D83E088828983F08C828DF6
:1029C40083A3AC82AD8388828983A3A882A9831F51
:1029D400EF70E0EA2475FCEB3400FD8A828B83A35C
:1029E400A3A3A3A3E0F508A3E0F5098C828D83E0FB
:1029F4002508F0A3E03509F07F028C828D83E088FE
:102A0400828983F08C828D83A3AC82AD8388828992
:102A140083A3A882A9831FEF70E0EA2483F582EBE5
:102A24003400F583E06019750818750908780812F0
:102A340017E17C0C7903120ADA74021215747E1001
:102A440074012EF5D975D903758218758308EEFFC4
:102A5400E0F5D9A31FEF70F875E1957904120C2401
:102A6400790180027900022F9C74F61215CE9061D0
:102A7400D0E0F87480C398FCEA2483F582EB340038
:102A8400F583E06004780480027800E8240AF8EC16
:102A9400C3985003022B5D7508089008187401F060
:102AA4007CE27D07781979087E058C828D83E08825
:102AB400828983F08C828D83A3AC82AD83888289E2
:102AC40083A3A882A9831EEE70E0EA2481FCEB3480
:102AD40000FD8A828B83A3A3A3A3A3E0FEA3E0FF4C
:102AE4008C828D83E02EF0A3E03FF07E028C828DF9
:102AF40083E088828983F08C828D83A3AC82AD834A
:102B040088828983A3A882A9831EEE70E0EA2483C5
:102B1400F582EB3400F583E0601A7508187509082E
:102B240078081217E17C087903120ADA7402121584
:102B34007475080C74012508F5D975D903758218C4
:102B4400758308AE08E0F5D9A31EEE70F875E1951B
:102B54007904120C24790180027900022F9C74F705
:102B64001215CEEAFEEBFF9061D0E06003022C590F
:102B740075D91875D90375D903EEF8EFF9E8240867
:102B8400FAE93400FBE8249CF582E93400F583E09B
:102B9400F5D988828983A3A882A983EA687002EBA5
:102BA4006970E2EEF8EFF9E82402FAE93400FBE890
:102BB40024A4F582E93400F583E0F5D98882898379
:102BC400A3A882A983EA687002EB6970E2EE2494F8
:102BD400F582EF3400F583E5822408F8E5833400B8
:102BE400F9E0F5D9A3E865827003E9658370F2EE34
:102BF4002488F582EF3400F583E5822404F8E58324
:102C04003400F9E0F5D9A3E865827003E9658370BF
:102C1400F275E1957908EE2494FAEF3400FB120A78
:102C2400927904EE2488FAEF3400FB120A927904B4
:102C3400120C24EE2470F582EF3400F583E0F8A33F
:102C4400E0F9EE2472F582EF3400F583E8F0A3E9AD
:102C5400F0790180027900022DBA74F61215CEEAD9
:102C6400FEEBFF9008187406F075081875090878CB
:102C7400081217E17C017903120ADA74021215743E
:102C840075D90675D903758218758308E0F5D9A33B
:102C9400E582641D7004E583640870F075E1959025
:102CA4000499E06408701EEE2470F582EF3400F598
:102CB40083E0F8A3E0F9EE2472F582EF3400F583A3
:102CC400E8F0A3E9F07901022F9C74F61215CEEA1C
:102CD400FEEBFF9061D0E0705E900818740AF07506
:102CE400081875090878081217E17C017903120A9B
:102CF400DA740212157475D90675D90375821875BC
:102D04008308E0F5D9A3E582641D7004E5836408B3
:102D140070F075E195EE2470F582EF3400F583E0F0
:102D2400F8A3E0F9EE2472F582EF3400F583E8F0BD
:102D3400A3E9F0790180027900022F9C74F6121540
:102D4400CEEAFEEBFF9061D0E0706678019008183F
:102D5400740BF0900499E0640770197508187509EC
:102D64000878081217E17C017903120ADA74021256
:102D740015747805740128F5D975D9037582187509
:102D84008308E8FAE0F5D9A31AEA70F875E195EE3C
:102D94002470F582EF3400F583E0F8A3E0F9EE2423
:102DA40072F582EF3400F583E8F0A3E9F07901804D
:102DB400027900022F9C7F010216A074F61215CE30
:102DC400EAFEEBFF9061D0E0F87480C398FAEE2439
:102DD40083F582EF3400F583E060047804800278A0
:102DE40000E8240BF8EAC3985003022E957D09905D
:102DF40008187408F0EE24E5F8EF3400F97A197B2A
:102E0400087C0888828983E08A828B83F08882899F
:102E140083A3A882A9838A828B83A3AA82AB831CFF
:102E2400EC70E0EE2483F582EF3400F583E0601D5E
:102E340075081875090878081217E17C097903EEFA
:102E4400FAEFFB120ADA74021215747D0D74012D67
:102E5400F5D975D9037582187583088D08E0F5D9FD
:102E6400A31508E50870F675E1957904120C24EEB3
:102E74002470F582EF3400F583E0F8A3E0F9EE2442
:102E840072F582EF3400F583E8F0A3E9F07901806C
:102E9400027900022F9C74F61215CEEAFEEBFF9025
:102EA40061D0E0F87480C398FAEE2483F582EF349D
:102EB40000F583E06004780480027800E82408F8D0
:102EC400EAC3985003022F9A7D06900818740CF0F8
:102ED4009004B6E0900819F07AB77B04781A790860
:102EE4007C028A828B83E088828983F08A828B8346
:102EF400A3AA82AB8388828983A3A882A9831CECBA
:102F040070E07AB97B047C028A828B83E0888289B0
:102F140083F08A828B83A3AA82AB8388828983A36A
:102F2400A882A9831CEC70E0EE2483F582EF3400C0
:102F3400F583E0601D75081875090878081217E113
:102F44007C067903EEFAEFFB120ADA7402121574A6
:102F54007D0A74012DF5D975D90375821875830816
:102F64008D08E0F5D9A31508E50870F675E19579A3
:102F740004120C24EE2470F582EF3400F583E0F89B
:102F8400A3E0F9EE2472F582EF3400F583E8F0A3B0
:102F9400E9F07901800279007F020216A074F6122A
:102FA40015CEEAFEEBFF9061D0E0F87480C398FA86
:102FB400EE2483F582EF3400F583E0600478048026
:102FC400027800E82404F8EAC398500302307B78BE
:102FD40002900818E8F0EE24F7F582EF3400F58348
:102FE400E0900819F0EE2483F582EF3400F583E0D5
:102FF400601B75081875090878081217E17C0279B6
:1030040003EEFA120ADA74021215747806740128AF
:10301400F5D975D9037582187583088808E0F5D940
:10302400A31508E50870F675E195EE2474F582EFB2
:103034003400F583E4F0EE2480F582EF3400F58368
:10304400E4F0EE241DF582EF3400F583E4F0A3F000
:103054007904120C24EE240DF582EF3400F583E09C
:10306400F8A3E0F9EE2472F582EF3400F583E8F07A
:10307400A3E9F0790180027900022F9C74F61215FD
:10308400CE9061D0E0F87480C398FCEA2483F58282
:10309400EB3400F583E06004780480027800E824CF
:1030A40004F8ECC398405B79029008187407F0EABE
:1030B40024F8F582EB3400F583E0900819F0EA2453
:1030C40083F582EB3400F583E06018750818750900
:1030D4000878081217E17C0209120ADA7402121540
:1030E400747906740129F5D975D903758218758325
:1030F40008E9F8E0F5D9A318E870F875E1957901C5
:1031040080027900022F9C74F51215CEE9FCA2AF5F
:10311400E433F50AC2AF7D0080010DEA246FF58225
:10312400EB3400F583E0F8EDC398501A8D08EA25D6
:1031340008F8EB3400F9E8246BF582E93400F583F0
:10314400E06C70D68024EA246FF8EB3400F9E0FEDA
:10315400EA2EFAEB3400FBEA246BF582EB3400F53B
:1031640083ECF088828983E004F0E50AA2E092AF60
:103174007F030216A074F61215CEA2AFE433FDC28B
:10318400AFEA246FF582EB3400F583E014F07C00A1
:1031940060368C08EA2508F8EB3400F9E8246CF56D
:1031A40082E93400F583E0C0E0E8246BF582E93479
:1031B40000F583D0E0F00CEA246FF582EB3400F5DF
:1031C40083E0F8ECC39840CAEA246EF582EB34003D
:1031D400F58374FFF0EA246AF582EB3400F583E4A6
:1031E400F0EDA2E092AF022F9CC082C083E5A8F864
:1031F400C2AFEA246BF582EB3400F583E9F0EA24EC
:103204006AF582EB3400F583E4F0E8A2E792AF02BA
:10321400239D74F31215CEEAFEEBFFECFAEDFB8A64
:10322400828B83A3A3A3A3E0541FF0EE2436F5827C
:10323400EF3400F583E4F0F50AEEFCEFFD8A828BAF
:1032440083E0C0E0EC245DF582ED3400F583D0E04A
:10325400F0750B00E50A33333354F8F50C8A828B8E
:1032640083E0F508750900E50B780812152CE508CC
:10327400A2E0502FEE2436F8EF3400F988828983D7
:10328400E0F508EE2508F508EF3400F509E5082413
:1032940038F582E5093400F583E50CF088828983EA
:1032A400E004F0050B050CE50BC3940840AF050AD8
:1032B4008A828B83A3AA82AB838C828D83A3AC8204
:1032C400AD83E50AC3940550030232417F0502161B
:1032D400A074F71215CE9004C5E0640370077A0059
:1032E4007B00022DBA7B0078C5790488828983A388
:1032F400A3A3A3A3A3E060030235CFEBF875F00604
:10330400A4C8AAF02AF974C928F8740439F988827F
:103314008983A3A37401F088828983A3A3A3E4F01F
:10332400EB88828983A3A3A3A3F0E82462F582E94E
:103334003400F5837401F0E82465F582E93400F57E
:1033440083E4F0A3F0E82468F582E93400F583749B
:1033540001F088828983A3A3A3A3A3E4F0A3F08844
:10336400828983A3A3A3A3A3A3A3F0A3F0E8240FB8
:10337400F582E93400F5837401F0E82435F582E937
:103384003400F583E4F0908144121434E82418F5F1
:1033940082E93400F583121440E8241CF582E934F0
:1033A40000F583E4F0E8241DF582E93400F583E4B4
:1033B400F0A3F0E82480F582E93400F583E4F0E832
:1033C4002474F582E93400F583E4F0E82469F58295
:1033D400E93400F5837480F0E8246AF582E9340066
:1033E400F583E4F0E8246FF582E93400F583E4F032
:1033F400E82467F582E93400F583E4F0E824EDF588
:1034040082E93400F583E4F0E824EEF582E934003F
:10341400F583E4F0E824EFF582E93400F583E4F081
:10342400E824F0F582E93400F583E4F0E824F1F5CA
:1034340082E93400F583E4F0A3F0E824F3F582E9AB
:103444003400F583E4F0A3F0E824F6F582E93400CF
:10345400F583E4F0E82483F582E93400F583E4F0AD
:10346400E824D3F582E93400F583E4F0E824D4F5C4
:1034740082E93400F583E4F0908144121434E824A2
:10348400D5F582E93400F583121440908144121476
:1034940034E824D9F582E93400F583121440E82491
:1034A400DFF582E93400F583E4F0E824E1F582E90C
:1034B4003400F583E4F0E824DDF582E93400F58393
:1034C400E4F0E824E2F582E93400F583E4F0E8244A
:1034D400E3F582E93400F583E4F0E824F9F582E9C0
:1034E4003400F583E4F0A3F0E824FBF582E934002A
:1034F400F583E4F0A3F0E824FDF582E93400F583D4
:10350400E4F0A3F0E824FFF582E93400F583E4F065
:10351400A3F0E8FAE9FBEA2404FCEB3400FDEA2416
:103524006BF582EB3400F58374FFF08A828B83A3FE
:10353400AA82AB83EC6A7002ED6B70E2E8FAE9FBF5
:103544007CE27D078C828D83E0C0E0EA245DF58215
:10355400EB3400F583D0E0F08C828D83A3AC82AD94
:10356400838A828B83A3AA82AB83EC64E77003ED26
:10357400640770D0E8FAE9FB7CAC7D048C828D830F
:10358400A3E0C0E0EA24E5F582EB3400F583D0E063
:10359400F08C828D83A3AC82AD838A828B83A3AAB1
:1035A40082AB83EC64B47003ED640470CF9004C503
:1035B400E004F06401700D88828983A3A3A3A3E0CF
:1035C4009004C7F0E8FAE9FB0232E60BE82406F8B7
:1035D400E93401F9EBC3940340030232E20232EF0F
:1035E400C082C0838A828B83A3A3A3E0600F8A82F4
:1035F4008B83A3A3A3E4F09004C6E014F09004C565
:10360400E014F070069004C774FFF08A828B83A3E1
:10361400A3E4F09007E7E0700D9004C6E064017045
:10362400057900120BEE02239DC082C08378C57910
:103634000488828983A3A3A3A3A3A3A3E4F0888219
:103644008983A3A3A3A3A3A3F0E82406F8E9340180
:10365400F9E864D77003E9640770D69004C5E4F010
:10366400A3F0A374FFF075E1F102239D74F3121526
:10367400CE750800750900750C00750AC9750B0430
:10368400AE0AAF0B8E828F83A3A3A3E0603FE5084D
:103694004509700AEEF8EFF988088909802F850832
:1036A40082850983E0F8A3E0F5838882A3A3121737
:1036B400F48E828F83E0F8A3E0F5838882A3A312BB
:1036C4001434121DFB7404121574E960C7050CEE62
:1036D4002406F50AEF3401F50BE50CC3940340A06E
:1036E400850882850983A3A3A3A3E0F90232D074D9
:1036F400F61215CE78FF79FF7508007EC97F04EEB7
:10370400FCEFFD8C828D83A3A3A3E0606474FF6847
:10371400700374FF697025EC2474F582ED3400F5B0
:1037240083E064017011EC247AF582ED3400F583B2
:10373400E0F8A3E0F9803AEC242E80EDEC2474F553
:1037440082ED3400F583E064017014EC247AF58290
:10375400ED3400F583C3E098A3E099501480C7ECDE
:10376400242EF582ED3400F583C3E098A3E099405C
:10377400C60508EE2406FEEF3401FFE508C39403F2
:103784005003023703C3EA98EB994004E8FAE9FBD3
:10379400022F9C74F61215CEEAFEEBFF8E828F8305
:1037A400A3A3A3E0600F8E828F83A3A3A3E4F0906E
:1037B40004C6E014F09004C5E014F070069004C749
:1037C40074FFF08E828F83A3A3E4F09007E7E07088
:1037D4000D9004C6E0640170057900120BEEEE242E
:1037E40065F582EF3400F583E0F8A3E0F9E8496079
:1037F40029EE2465F8EF3400F9880889098882F5F0
:1038040083E0FCA3E0FD9004C7E0FA7B001207BC50
:10381400850882850983E4F0A3F0EEFAEFFB120B2E
:1038240058022F9C74F71215CEEAFEEBFF8E828F9E
:1038340083A3A3A3A3E0FA7B00120804EEFAEFFB30
:10384400120A50120B3A022DBAC082C0837C007A4D
:10385400C97B04EAF8EBF988828983A3A3A3E06017
:103864001EE8246FF582E93400F583E06011E82452
:103874006BF582E93400F583E07004790180110C62
:10388400EA2406FAEB3401FBECC3940340C5790047
:1038940002239DC082C08378AC790488828983A383
:1038A400E4F088828983A3A882A983E864B47003BE
:1038B400E9640470E69004AD740102235EC082C022
:1038C4008374FC12155E9081441214348518828529
:1038D4001983121440120A98E9851882851983F015
:1038E400120A9874011215AAE9F0120A98740212C5
:1038F40015AAE9F085188285198312143474040218
:10390400214D74F61215CEEAFEEBFFEC2403F8ED1C
:103914003400F988088909EC2407F8ED3400F9E843
:10392400FCE9FD8C828D83E0F8A3E0F985088285AB
:103934000983E0FAA3E0FB1214D3EE240DF582EF21
:103944003400F583E8F0A3E9F08C828D83E0F8A3DA
:10395400E0F9850882850983E0FAA3E0FB1214D319
:103964008B09EA45096013EE240DF582EF3400F566
:1039740083E02401F0A3E03400F0022F9C74F612DB
:1039840015CEEAFEEBFFEE242EF582EF3400F5832C
:10399400E0FCA3E0FD780079FAECFAEDFB1214D315
:1039A400EE2470F582EF3400F583E8F0A3E9F078B3
:1039B4000079FAECFAEDFB1214D38B09EA4509609D
:1039C40013EE2470F582EF3400F583E02401F0A3B4
:1039D400E03400F0022F9C74F01215CEEAFEEBFFE7
:1039E40074101215AA7808121416120BBE8A0C8BC6
:1039F4000D8C0E8D0F9080F0780C12137C9080E467
:103A0400780C1213DD780C1217DD8E828F83E0F8A8
:103A1400A3E0F5838882A3A3121434121DFB74045B
:103A2400121574E96003023B288E828F83E024021E
:103A3400F8A3E03400F9E8FAE9FB8A828B8378087A
:103A440012138F9080E478081214168A828B83787C
:103A5400081213F0EE240BF582EF3400F583C082D4
:103A6400C0838E828F83A3A3A3A3A3E02401F8A31E
:103A7400E03400F9D083D082E0687003A3E0697079
:103A8400057901023B2A8E828F83A3A3A3A3A3A358
:103A9400A3E02401F0A3E03400F0EE2474F582EFF7
:103AA4003400F583E064017036EE2475F582EF345A
:103AB40000F583E0F8A3E0F98E828F83A3A3A3A388
:103AC400A3A3A3E0687003A3E0697013EE2475F563
:103AD40082EF3400F583E02401F0A3E03400F0EE3B
:103AE4002480F582EF3400F583E064017036EE241F
:103AF40081F582EF3400F583E0F8A3E0F98E828F3C
:103B040083A3A3A3A3A3A3A3E0687003A3E06970A2
:103B140013EE2481F582EF3400F583E02401F0A351
:103B2400E03400F079007F080216A074F71215CE75
:103B34009004C7E0F875F006A4C8AAF02AF974C97D
:103B440028FE740439FF8028EE2465F8EF3400F968
:103B540088828983E0FCA3E0FD88828983E4F0A362
:103B6400F08E828F83A3A3A3A3E0FA7B001207BC89
:103B7400EE2465F582EF3400F583E0F8A3E0F9E87C
:103B840049604FEE2464F582EF3400F583E0F508D4
:103B940078081217E5EE2463F582EF3400F583E02C
:103BA400F9EE2465F582EF3400F583E0FCA3E0FD33
:103BB400EEFAEFFB120A867401121574E96089EEBD
:103BC4002465F582EF3400F583E0F8A3E0F9E849D1
:103BD40070137C007D008E828F83A3A3A3A3E0FADD
:103BE4007B001207BC022DBA74F21215CEEAFEEB6A
:103BF400FF890A740E1215AAE0FAEE2462F582EF28
:103C04003400F583E064016003023CB89061D0E0C5
:103C1400F87480C398F50CEE2483F582EF3400F534
:103C240083E060047804800278008908E928F8E4D5
:103C34003400F9E824020808E93400F9E50C98E4B2
:103C440099A2D265D0334068EA7005750B028003EF
:103C5400750B01E0603975090078081217E17A18CC
:103C64007B08120ABC7402121574750818750908C9
:103C740078081217E1AC0AA90BEEFAEFFB120ADA84
:103C840074021215747404250AF50A7C187D0874EC
:103C940001250AF5D9850BD9E50A600D8C828D833F
:103CA400F8E0F5D9A318E870F875E1957900800675
:103CB4007907800279FF7F060216A0C082C083E9DB
:103CC40060208C828D83E08A828B83F08C828D834A
:103CD400A3AC82AD838A828B83A3AA82AB8319E9C6
:103CE40070E0ECFAEDFB02239DC082C08378697911
:103CF4000888828983A3A3A3A3A3A3E4F088828969
:103D040083A3A3A3A3A374FFF0E82418F8E9340061
:103D1400F9E864C97003E9640870D690086B74FF0D
:103D2400F090086AE4F0900869F090086CF0A3F051
:103D340002541574EC1215CE90086CE0F508A3E05B
:103D4400F509E5084509700612099C0249E485084D
:103D540082850983E014601814601524FE60112420
:103D6400C470030244A624C070030244A60249E4BA
:103D7400E0F9120B4C8A0A8B0BAE0AAF0B9004C607
:103D8400E07003024124120A44E9F875F006A4C85D
:103D9400AAF02AF974C928F50C740439F50D850CB8
:103DA40082F583E0F50AA3E0F50BAC0AFDEEFAEF29
:103DB400FB120B46E9F50E7402650E70030240E334
:103DC4008E828F83E024FE600A24FE7003023FDBB0
:103DD4000249E4EE65087003EF650960211209BA2F
:103DE4009007F9E0640170169007F8E0701079010B
:103DF400120C5A120C2A120C547900120C60E50EA3
:103E04006021E5082415F582E5093400F583E060B6
:103E1400129007F4E0F8A3E0F9A3E0687003A3E0CC
:103E2400697026120BBE8A0C8B0D8C0E8D0F90813F
:103E340004780C12137C9080E4780C1213DD8E82CB
:103E44008F83A3A3780C121425E5082415F582E5C5
:103E5400093400F583E064016003023F01850A82AE
:103E6400850B83A3A3780C121416908108780C1286
:103E7400137C780C1217DD8E828F83A3A3C082C0BB
:103E8400839007F6E0F508A3E085080CF50DE4F54A
:103E94000EF50FD083D082780C12137CAA0CAB0DD4
:103EA400AC0EAD0F121DFB7404121574E9703C8E38
:103EB400828F83A3A3C082C0839007F6E0F508A392
:103EC400E0F509E4F50AF50BD083D08278081213E3
:103ED4007C9080E478081213DDEE240EF582EF3432
:103EE40000F5837808121425023FD3850A82850BD6
:103EF40083A3A3780812141690810880CFEE240EB1
:103F0400F582EF3400F5831217F48E828F83A3A316
:103F1400121434121DFB7404121574E96401600355
:103F2400023FD3850A82850B83A3A3780C1214164F
:103F3400908108780C12137C780C1217DD8E828F16
:103F440083A3A3C082C0839007F6E0F508A3E085AD
:103F5400080CF50DE4F50EF50FD083D082780C1221
:103F6400137CAA0CAB0DAC0EAD0F121DFB74041226
:103F74001574E9701F8E828F83A3A3C082C08390BF
:103F840007F6E0F508A3E0F509E4F50AF50BD0839C
:103F9400D0828010850A82850B83A3A3780812142B
:103FA40016908108780812137C9080E47808121324
:103FB400DDEE240EF582EF3400F583780812142523
:103FC4009007FCE06427700474258002E004F090FC
:103FD400086B74020249DCEE65087003EF65096042
:103FE40031900810E0F91209C0850882850983E040
:103FF4006402701E9007F9E0640170169007F8E0FF
:1040040070107900120C5A120C2A120C54790112F5
:104014000C60E50E601290080AE0F8A3E0F9A3E052
:10402400687003A3E0697026120BBE8A0C8B0D8C9A
:104034000E8D0F908104780C12137C9080E4780C20
:104044001213DD8E828F83A3A3780C121425850AA4
:1040540082850B83A3A3780C121416908108780C24
:1040640012137C780C1217DD8E828F83A3A3C08277
:10407400C08390080CE0F508A3E085080CF50DE476
:10408400F50EF50FD083D082780C12137CAA0CABFA
:104094000DAC0EAD0F121DFB7404121574E9701FE4
:1040A4008E828F83A3A3C082C08390080CE0F5089E
:1040B400A3E0F509E4F50AF50BD083D082801085DE
:1040C4000A82850B83A3A3780812141690810878BA
:1040D4000812137C9080E478081213DD0249C58528
:1040E4000882850983E0640270139007F9E0640193
:1040F400700B9007F8E070057900120C5AE50C2457
:1041040004FEE50D3400FF8E828F83E0F9120B82EA
:104114008E828F83E09004C7F0AA0AAB0B0249E1B8
:10412400EE65087003EF65098E828F836003024396
:1041340008E024FE600A24FE70030242630249DDA3
:10414400EE2415F582EF3400F583E060419007F426
:10415400E0F8A3E0F9A3E0687003A3E069602F121C
:104164000BBE8A088B098C0A8D0B90812878081263
:10417400137C78081217DD8E828F83A3A312143464
:10418400121DFB7404121574E960030249DD120B5D
:10419400BE8A088B098C0A8D0B908104780812134F
:1041A4007C9080E478081213DD8E828F83A3A37839
:1041B40008121425EE2415F582EF3400F583E0642B
:1041C4000170348E828F83A3A3C082C0839007F6CC
:1041D400E0F508A3E0F509E4F50AF50BD083D082F5
:1041E400780812137CEE240EF582EF3400F5837800
:1041F400081214250249DDEE240EF582EF3400F591
:10420400831217F48E828F83A3A3121434121DFB1E
:104214007404121574E9640160030249DD8E828F0F
:1042240083A3A3C082C0839007F6E0F508A3E0F55A
:1042340009E4F50AF50BD083D082780812137CEEDA
:10424400240EF582EF3400F58378081214259007C4
:10425400FCE06427700574250249DCE00480F990D1
:10426400080AE0F8A3E0F9A3E0687003A3E069603A
:104274002C120BBE8A088B098C0A8D0B908128782E
:104284000812137C78081217DD8E828F83A3A31281
:104294001434121DFB7404121574E97064EE2402C4
:1042A400F508EF3400F509120BBE8A0C8B0D8C0E49
:1042B4008D0F908104780C12137C9080E4780C129A
:1042C40013DD850882850983780C121425850882FC
:1042D400850983C082C08390080CE0F508A3E0F54B
:1042E40009E4F50AF50BD083D082780812137CEE2A
:1042F400240EF582EF3400F5837808121425120990
:10430400C60249DDE024FE600A24FE70030243CEA7
:104314000249E41209BA9007F9E0640170169007A3
:10432400F8E070107901120C5A120C2A120C54790C
:1043340000120C609007F4E0F8A3E0F9A3E06870C1
:1043440003A3E069602F120BBE8A088B098C0A8DC7
:104354000B908128780812137C78081217DD8E825E
:104364008F83A3A3121434121DFB7404121574E971
:104374006003023FD3EE2402F508EF3400F509127E
:104384000BBE8A0C8B0D8C0E8D0F908104780C1251
:10439400137C9080E4780C1213DD850882850983F0
:1043A400780C121425850882850983C082C0839005
:1043B40007F6E0F508A3E0F509E4F50AF50BD08368
:1043C400D082780812137C023EDD900810E0F912C6
:1043D40009C0850882850983E06402701E9007F98C
:1043E400E0640170169007F8E070107900120C5A1E
:1043F400120C2A120C547901120C6090080AE0F88D
:10440400A3E0F9A3E0687003A3E069602C120BBE7B
:104414008A088B098C0A8D0B908128780812137CEA
:1044240078081217DD8E828F83A3A3121434121D11
:10443400FB7404121574E97066EE2402F8EF34007C
:10444400F988088909120BBE8A0C8B0D8C0E8D0F0E
:10445400908104780C12137C9080E4780C1213DDA4
:10446400850882850983780C1214258508828509BC
:1044740083C082C08390080CE0F508A3E0F509E44A
:10448400F50AF50BD083D082780812137CEE240E43
:10449400F582EF3400F58378081214251209C60258
:1044A40049D79004C6E0700302483C120A44E9F874
:1044B40075F006A4C8AAF02AF974C928F510740482
:1044C40039F511851082F583E0F508A3E0F509902C
:1044D40004C7E0F875F006A4C8AAF02AF974C9283C
:1044E400F50C740439F50D90086AE0540770030262
:1044F4004765A3E0F9120B4C8A0A8B0BAE0AAF0B8B
:10450400AC08AD09120B46E9F50E7402650E700392
:10451400024765850C82850D83A3A3A3A3E0F875E8
:10452400F08AA4C8AAF02AF974CE28F50A740839C6
:10453400F50BAA0AFB120B76AA0AAB0B120B7075C9
:10454400128075130078121217E17C007D60E50A71
:104554002406FAE50B3401FB120ABC74021215742A
:10456400A80AA90B906195E0C0E0E82486F582E9E9
:104574003401F583D0E0F0906196E0C0E0E8248750
:10458400F582E93401F583D0E0F0906197E0C0E072
:10459400E82488F582E93401F583D0E0F09061984D
:1045A400E0C0E0E82489F582E93401F583D0E0F045
:1045B4008E828F83E024FE600A24FE70030246A0EC
:1045C4000247651209BA9007F9E064017011900777
:1045D400F8E0700B120C2A120C547900120C60E5EE
:1045E4000E60129007F4E0F8A3E0F9A3E06870030A
:1045F400A3E0697026120BBE8A0C8B0D8C0E8D0FF6
:10460400908104780C12137C9080E4780C1213DDF2
:104614008E828F83A3A3780C1214258508828509C2
:1046240083A3A3780C121416908108780C12137CBF
:10463400780C1217DD8E828F83A3A3C082C083906F
:1046440007F6E0F50CA3E0F50DE4F50EF50FD083C5
:10465400D082780C12137CAA0CAB0DAC0EAD0F12E9
:104664001DFB7404121574E9701F8E828F83A3A33B
:10467400C082C0839007F6E0F508A3E0F509E4F5ED
:104684000AF50BD083D0828010850882850983A324
:10469400A37808121416908108023ED0900810E006
:1046A400F91209C0E50E601290080AE0F8A3E0F9D7
:1046B400A3E0687003A3E0697026120BBE8A0C8B1A
:1046C4000D8C0E8D0F908104780C12137C9080E475
:1046D400780C1213DD8E828F83A3A3780C12142519
:1046E400850882850983A3A3780C12141690810887
:1046F400780C12137C780C1217DD8E828F83A3A39F
:10470400C082C08390080CE0F50CA3E0F50DE4F53D
:104714000EF50FD083D082780C12137CAA0CAB0D4B
:10472400AC0EAD0F121DFB7404121574E9701F8ECC
:10473400828F83A3A3C082C08390080CE0F508A3F2
:10474400E0F509E4F50AF50BD083D08280108508E2
:1047540082850983A3A37808121416908108024065
:10476400D3E510650C7004E511650D70030248353E
:10477400850C82850D83A3A3A3E0700302481985E9
:104784000C82850D83A3A3A3A3E0F875F08AA4C8C3
:10479400AAF02AF974CE28FE740839FFEEFAEFFB6A
:1047A400120B76EEFAEFFB120B70750A80750B0094
:1047B400780A1217E17C007D60EE2406FAEF3401DA
:1047C400FB120ABC7402121574906195E0C0E0EE0D
:1047D4002486F582EF3401F583D0E0F0906196E011
:1047E400C0E0EE2487F582EF3401F583D0E0F09049
:1047F4006197E0C0E0EE2488F582EF3401F583D0C0
:10480400E0F0906198E0C0E0EE2489F582EF340195
:10481400F583D0E0F0E5102404FEE5113400FF8EAA
:10482400828F83E0F9120B828E828F83E09004C71B
:10483400F0AA08AB090249E190086AE05407700342
:104844000249E4A3E0F9120B4C8A088B09AE08AFC5
:10485400098E828F83E024FE600A24FE70030249DD
:104864002B0249E41209BA9007F9E064017016902A
:1048740007F8E070107901120C5A120C2A120C5429
:104884007900120C609007F4E0F8A3E0F9A3E06863
:104894007003A3E069602C120BBE8A088B098C0A92
:1048A4008D0B908128780812137C78081217DD8EFE
:1048B400828F83A3A3121434121DFB740412157483
:1048C400E97061EE2402F508EF3400F509120BBE1D
:1048D4008A0C8B0D8C0E8D0F908104780C12137C36
:1048E4009080E4780C1213DD850882850983780CA6
:1048F400121425850882850983C082C0839007F637
:10490400E0F508A3E0F509E4F50AF50BD083D082BD
:10491400780812137CEE240EF582EF3400F58378C8
:1049240008121425023FD3900810E0F91209C09030
:10493400080AE0F8A3E0F9A3E0687003A3E0696063
:104944002C120BBE8A088B098C0A8D0B9081287857
:104954000812137C78081217DD8E828F83A3A312AA
:104964001434121DFB7404121574E97063EE2402EE
:10497400F8EF3400F988088909120BBE8A0C8B0DF4
:104984008C0E8D0F908104780C12137C9080E47847
:104994000C1213DD850882850983780C1214258591
:1049A4000882850983C082C08390080CE0F508A3BF
:1049B400E0F509E4F50AF50BD083D08278081213E8
:1049C4007CEE240EF582EF3400F58378081214256A
:1049D4001209C690086B7404F0EEFAEFFB120B4058
:1049E4007F0C0216A074F01215CEEAFEEBFFEE2443
:1049F40002F8EF3400F988088909EE2406F8EF3448
:104A040000F9880A890B8882F5831217F8850882D1
:104A1400850983121434120B9A7402121574850AD0
:104A240082850B831217F885088285098312143452
:104A3400120B8E7402121574EE240EF582EF3400FC
:104A4400F583121434120BA08E828F83E0644070BD
:104A54001CEE2412F8EF3400F988828983E0906018
:104A640064F088828983A3E0906065800690606426
:104A7400E4F0A3F090086CEEF0A3EFF0EE2416F54A
:104A840082EF3400F583E0F8A3E0F5838882121501
:104A9400CC906054E4F0A3F0A3F0A3F0A3F0A3F04F
:104AA400A3F0A3F0A3F0A3F0A3F0A3F0906182E03D
:104AB400C2E6F07591BFEE2415F582EF3400F5835C
:104AC400E064017003120BD0E5E170FCEE2414F5F0
:104AD40082EF3400F583E0F46003E0F5E1EE2415A1
:104AE400F582EF3400F5837401F090049FE06401D3
:104AF400706F120BBE8A088B098C0A8D0B78081212
:104B040017DD8E828F83A3A3121434121E587404EB
:104B14001215748A088B098C0A8D0B90810C780C01
:104B24001214167808790C121242740378081213BE
:104B340031E50824F4F508E5093401F5099008166F
:104B4400E060031210E6E4F50AF50B78081217DDAD
:104B54007A207B00900498E0F912118E74041215E7
:104B6400747F080216A074EC1215CEEAFEEBFF8CDB
:104B7400088D09EE4F70057902024C5F120BBE8A54
:104B84000C8B0D8C0E8D0F908158780C12137C9029
:104B940080E4780C1213DD8E828F83E06402701F30
:104BA4009007F4E0F8A3E0F9A3E0687003A3E069D8
:104BB40070248E828F83A3A3780C1214258017E0AF
:104BC4006404701290080AE0F8A3E0F9A3E06870A6
:104BD40003A3E06960DC780C1217DD85088285097F
:104BE40083A3A3121434121E5874041215748A1069
:104BF4008B118C128D1390811078101212234003A4
:104C0400024B7B850882850983A3A37808121416B6
:104C1400908154780812137C78081217DD8E828FE5
:104C240083A3A3121434121DFB7404121574E960D7
:104C340003024B7B908114780C12137C780C1217AE
:104C4400DD8E828F83A3A3121434121DFB7404120D
:104C54001574E970047900800279010249E474F062
:104C64001215CE890874FF65086003024DEE9008A2
:104C74006AE0540770030252BA7A007869790888A6
:104C8400828983A3A3A3A3A3E064047050EA75F00C
:104C940018A4F8A9F0746F28F582740839F583E034
:104CA400640170487A007869790888828983A3A3AB
:104CB400A3A3A3E064046003024D4688828983A30E
:104CC400A3A3A3A3A3E064017078EA75F018A4F881
:104CD400A9F0746E28FA740839FB0252BE0AE8245B
:104CE40018F8E93400F9EAC3940440937A00786927
:104CF400790888828983A3A3A3A3A3E064017057DE
:104D0400EA75F018A4F8A9F0746F28F582740839CC
:104D1400F583E06401704F7A0078697908888289A4
:104D240083A3A3A3A3A3E064016003024DCA888202
:104D34008983A3A3A3A3A3A3E064016003024DCAD0
:104D440080880AE82418F8E93400F9EAC394045086
:104D540003024CAE0252BA0AE82418F8E93400F906
:104D6400EAC39404408C7A0078697908888289833C
:104D7400A3A3A3A3A3E064027061EA75F018A4F8E6
:104D8400A9F0746F28F582740839F583E064017022
:104D9400597A007869790888828983A3A3A3A3A395
:104DA400E06402707A88828983A3A3A3A3A3A3E007
:104DB4006401706BEA75F018A4F8A9F0746E28FA0F
:104DC400740839FB806F0AE82418F8E93400F9EA1A
:104DD400C394045003024D210252BA0AE82418F87D
:104DE400E93400F9EAC3940440827A0078697908C6
:104DF40088828983A3A3A3A3A3E06508703D888266
:104E04008983A3A3A3A3A3A3E06401702EEA75F08E
:104E140018A4F8A9F0746E28FE740839FF802F0ACC
:104E2400E82418F8E93400F9EAC394045003024D65
:104E34009B7A007B000252BE0252BA0AE82418F898
:104E4400E93400F9EAC3940440A67E007F007A00A6
:104E54007869790888828983A3A3A3A3A3E065085A
:104E6400701BEA75F018A4F8A9F0746F28F5827421
:104E74000839F583E0640170137A0180110AE8248B
:104E840018F8E93400F9EAC3940440C87A00E50844
:104E940014600F14700302505724FE70030251B1C2
:104EA40080967B007869790888828983A3A3A3A369
:104EB400A3E064027055EB75F018A4F8A9F0746FC0
:104EC40028F582740839F583E06401704D7B00781D
:104ED40069790888828983A3A3A3A3A3E0640260F9
:104EE40003024F8D88828983A3A3A3A3A3A3E064B1
:104EF400016003024F8DEB75F018A4F8A9F0746EED
:104F040028F50A740839F50B024FA50BE82418F8A4
:104F1400E93400F9EBC39404408E7B007869790886
:104F240088828983A3A3A3A3A3E064046003024F3C
:104F3400E1EB75F018A4F8A9F0746F28F5827408F1
:104F440039F583E064016003024FF37B00786979EB
:104F54000888828983A3A3A3A3A3E0640460030253
:104F64004FFE88828983A3A3A3A3A3A3E064016063
:104F740003024FFEEB75F018A4F8A9F0746E28F53F
:104F84000A740839F50B0250160BE82418F8E934B2
:104F940000F9EBC394045003024ED7750A00750B55
:104FA40000EAA2E04003025049850A82850B83A3EC
:104FB400A3780C121416908118780C12137C780CB8
:104FC4001217DD8E828F83A3A3121434121DFB7477
:104FD40004121574E9706EEEFAEF024CDD0BE8244E
:104FE40018F8E93400F9EBC394045003024F24EA9F
:104FF400A2E05058EEFAEFFB80560BE82418F8E9CB
:105004003400F9EBC394045003024F55750A00753C
:105014000B00EAA2E0502E850A82850B83A3A378B5
:105024000C121416908118780C12137C780C121739
:10503400DD8E828F83A3A3121434121DFB74041219
:105044001574E96092AA0AAB0B0252BE7A007B0087
:105054000252BE7B007869790888828983A3A3A35E
:10506400A3A3E064047052EB75F018A4F8A9F074DB
:105074006F28F582740839F583E06401704A7B0077
:105084007869790888828983A3A3A3A3A3E064042D
:10509400600302512588828983A3A3A3A3A3A3E069
:1050A4006401707DEB75F018A4F8A9F0746E28F50E
:1050B4000A740839F50B02513D0BE82418F8E93459
:1050C40000F9EBC3940440917B00786979088882E5
:1050D4008983A3A3A3A3A3E064016003025179EB32
:1050E40075F018A4F8A9F0746F28F582740839F5DE
:1050F40083E06401600302518B7B0078697908883E
:10510400828983A3A3A3A3A3E0640160030251964D
:1051140088828983A3A3A3A3A3A3E06401707380FB
:10512400830BE82418F8E93400F9EBC39404500322
:10513400025088750A00750B00EAA2E04003025091
:1051440049850A82850B83A3A3780C1214169081D7
:1051540018780C12137C780C1217DD8E828F83A3BF
:10516400A3121434121DFB7404121574E9600302B3
:105174005049024FDB0BE82418F8E93400F9EBC37B
:10518400940450030250D2EAA2E0501AEEFAEFFB64
:1051940080180BE82418F8E93400F9EBC3940450A0
:1051A40003025103808D7A007B000252BE7B00789B
:1051B40069790888828983A3A3A3A3A3E064017007
:1051C40040EB75F018A4F8A9F0746F28F582740800
:1051D40039F583E0640170387B0078697908888246
:1051E4008983A3A3A3A3A3E0640160030252768886
:1051F400828983A3A3A3A3A3A3E0640170740250D0
:10520400A80BE82418F8E93400F9EBC3940440A38C
:105214007B007869790888828983A3A3A3A3A3E088
:1052240064027063EB75F018A4F8A9F0746F28F5A4
:1052340082740839F583E06401705B7B00786979D6
:105244000888828983A3A3A3A3A3E06402704F8880
:10525400828983A3A3A3A3A3A3E064017040EB7595
:10526400F018A4F8A9F0746E28F50A740839F50B3F
:1052740080410BE82418F8E93400F9EBC394045096
:10528400030251E20251370BE82418F8E93400F91B
:10529400EBC394044080EAA2E0501B024FDB0BE80E
:1052A4002418F8E93400F9EBC394044094750A0017
:1052B400750B0002513D7A007B00024B6574F612B7
:1052C40015CE89097508007869790888828983A3CD
:1052D400A3A3A3A3A3E0600302539DE50875F018FC
:1052E400A4F8A9F0746E28FE740839FF8E828F83A7
:1052F400A37401F08E828F83E509F0120BBE8E82B7
:105304008F83A3A31214408E828F83A3A3A3A3A38A
:10531400A3E4F0A3F0908148121434EE240EF58235
:10532400EF3400F583121440EE2414F582EF3400B8
:10533400F5837401F0EE2415F582EF3400F58374DF
:1053440001F0EE2416F582EF3400F583E4F0A3F0C7
:1053540090086AE04509F0900869E004F06401608F
:105364000C748065096006744065097019E5087558
:10537400F018A4F8A9F0746E28F8740839F99008A4
:105384006CE8F0A3E9F0E50875F018A4F8A9F07446
:105394006E28FA740839FB80180508E82418F8E91F
:1053A4003400F9E508C3940450030252CF7A007B19
:1053B4000080007F020216A0C082C0838A828B8391
:1053C400E0F8A3E0F98A828B83E4F0A3F088828971
:1053D40083A3F088828983E0F4F890086AE058F0A7
:1053E400900869E014F0700B90086CE4F0A3F0905E
:1053F4000499F0801CC082C083900869E0600A9020
:10540400086CE0FAA3E0FB80047A007B008002E0F1
:10541400F9D083D08202011FC082C083E9FB7A00E5
:105424007869790888828983A3A3A3A3A3E06B7016
:1054340016EA75F018A4F8A9F0746F28F5827408B8
:1054440039F583E0F980110AE82418F8E93400F901
:10545400EAC3940440CE790080B7C082C083900828
:105464006902541374F61215CEEAFEEBFF9061D074
:10547400E0C0E0EE2400F582EF3401F583D0E0F0E3
:105484009061D7E0FA9061D5E0C39A547FC0E0EE12
:105494002401F582EF3401F583D0E0F0EE2402F824
:1054A400EF3401F99061D6E0C39A547F88828983EE
:1054B400F0701A9061C5E0A2E45012E0A2E7500D2A
:1054C400EE2402F582EF3401F5837480F0120C842B
:1054D400EE2401F582EF3401F583E07034EE24020A
:1054E400F582EF3401F583E070279061C5E0A2E412
:1054F400501FE0A2E7501AEE2402F582EF3401F5C2
:10550400837480F0EE2401F582EF3401F583748016
:10551400F075E1957800EE2400F582EF3401F5830F
:10552400E060279061D3E0C0E08808EE2508F582AA
:10553400EF3400F583D0E0F008EE2400F582EF3478
:1055440001F583E0F9E8C39940D975E1910253B7B5
:1055540074F61215CEEAFEEBFF9061C8E0C0E0EEEF
:105564002403F582EF3401F583D0E0F09061CFE0BD
:10557400FA9061CDE0C39A547FC0E0EE2404F58232
:10558400EF3401F583D0E0F0EE2405F8EF3401F9AF
:105594009061CEE0C39A547F88828983F0701A9018
:1055A40061C5E0A2E05012E0A2E3500DEE2405F53F
:1055B40082EF3401F5837480F0120C8AEE2404F532
:1055C40082EF3401F583E07034EE2405F582EF3484
:1055D40001F583E070279061C5E0A2E0501FE0A2CE
:1055E400E3501AEE2405F582EF3401F5837480F05C
:1055F400EE2404F582EF3401F5837480F0120C90EC
:105604007A00EE2403F582EF3401F583E0602F90F5
:1056140061CBE0C0E08A08EE2508F8EF3400F9E831
:105624002480F582E93400F583D0E0F00AEE240307
:10563400F582EF3401F583E0F8EAC39840D175E1CF
:10564400810253B774F41215CE8908A808E875F0DE
:105654008AA4C8AAF02AF974CE28FE740839FFEE89
:10566400FAEFFB120B76EEFAEFFB120B70750A8061
:10567400750B00780A1217E17C007D60EE2406FAAF
:10568400EF3401FB120ABC7402121574906195E0A8
:10569400C0E0EE2486F582EF3401F583D0E0F0908B
:1056A4006196E0C0E0EE2487F582EF3401F583D003
:1056B400E0F0906197E0C0E0EE2488F582EF3401D9
:1056C400F583D0E0F0906198E0C0E0EE2489F582A3
:1056D400EF3401F583D0E0F07F040216A074F212D7
:1056E40015CE8908A808E875F08AA4C8AAF02AF992
:1056F40074CE28F8740839F99061C6E0FDE054F0DE
:10570400F075E1817C00E82403F582E93401F58336
:10571400E0602B8C0AE8250AFAE93400FBEA2480CD
:10572400F582EB3400F583E09061CAF00CE82403C1
:10573400F582E93401F583E0FAECC39A40D5E82414
:1057440005F582E93401F583E060049061CEF0E868
:105754002404F582E93401F583E060049061CDF01E
:10576400ED9061C6F0A808E875F08AA4C8AAF02AEA
:10577400F974CE28F8740839F9E0FCE0540FF07598
:10578400E1917A00E82400F582E93401F583E060D0
:10579400238A0AE8250AF582E93400F583E090615A
:1057A400D2F00AE82400F582E93401F583E0FBEA4B
:1057B400C39B40DDE82402F582E93401F583E0600F
:1057C400049061D6F0E82401F582E93401F583E020
:1057D40060049061D5F0EC9061C6F0850882AE82D9
:1057E400EEF875F08AA4C8AAF02AF974CE28F50A4E
:1057F400740839F50B750C80750D00780C1217E1DF
:10580400E50A2406FCE50B3401FD7A007B60120AEC
:10581400BC7402121574A80AA90BE82486F582E95F
:105824003401F583E0906195F0E82487F582E9344A
:1058340001F583E0906196F0E82488F582E934016B
:10584400F583E0906197F0E82489F582E93401F565
:1058540083E0906198F0EE75F006A4CEA8F028FFDE
:1058640074C92EF58274043FF583E0F8A3E0F58350
:105874008882E06480704190101174FEF0A3740A71
:10588400F0A374E6F0A3740AF0A374FEF0A3740A00
:10589400F0A374FEF0A3740AF0A374E6F0A3740AF0
:1058A400F0A374FEF0A3740AF0A37404F0A3740BC1
:1058B400F0900499740880059004997407F090108E
:1058C4001F74E6F0A3740AF0A374E6F0A3740AF05C
:1058D400A374E6F0A3740AF0A374E6F0A3740AF0C8
:1058E400A374E6F0A3740AF0A374E6F0A3740AF0B8
:1058F4007F060216A0C082C083E9900FEFF0D08328
:10590400D08202011F74F61215CEE9900364F07C74
:10591400A47D037AFF7BFF1206FC7A008A087509CE
:10592400007402780812154B74652508F874033561
:1059340009125958A3F00AEAC3940340DF79051207
:10594400068A900364E0F91205B27A147B07120800
:10595400CA026ED9F98882898374FF125965E4F00A
:1059640022F0A3126D66A32274F41215CE8A088B5A
:1059740009EB54806030900364E0F912106E8A0AD7
:105984008B0BAE0AAF0BEE4F60138E828F83E064F5
:10599400B0700312069CEEFAEFFB12105CAA08E545
:1059A400096480FB80047A007B00025B3574F21288
:1059B40015CE74FC12155EEAFEEBFF74121215AAE2
:1059C400126DAFEE4F7003025A5474021215AAEE10
:1059D400F0A3EF125D90ECF0A3ED125D90AA82AB00
:1059E400831205ACE9F50A706AE508450960648E1E
:1059F400828F83126D90EE4F60567A067B001210F0
:105A0400F88A0C8B0DA80CA90DE8497005750A13CA
:105A1400804188828983E4125965EEF0A3EF126D08
:105A2400C0E508F0A3E509F0900372125B2F900320
:105A340072700512684D801B12683B8003EAFCEB10
:105A4400FD8C828D83125B2F70F38C828D8380E3B7
:105A5400750A02A90A7404121574026FA374F2126F
:105A640015CE890AE975F045A4FEAFF0900371E400
:105A7400F0900367125B2F60281210FE79008908EA
:105A84007509007402780812154B74672508F582AD
:105A940074033509F583E4F0A3F009E9C3940340E2
:105AA400DDEEFAEFFB1210F88A088B09EA4509606B
:105AB40075EEFCEFFD790012104A7D008D0C750D1A
:105AC400007402780C12154B7467250CF8740335B6
:105AD4000DF9E50AF5F0EDA475F017A4FAABF0E5BD
:105AE400082AFAE5093BFB88828983EAF0A3EBF0F4
:105AF4007E00801BEE75F017A4FAABF088828983D0
:105B0400E02AFCA3E03B8C82F583E4F0A3F00EEEE4
:105B1400C3950A40DF0DEDC3940340A0E50A90034A
:105B240071F0790080027913026FA31264DFEA4BEB
