:020000040000FA
:0600000002011A021D833B
:03002B000222C9E5
:03005300021DF695
:03007B00022297C7
:10008300021C37E5C754F84401F5C7790122000083
:100093000080FB120086B90003020104E4791B7897
:1000A30002B800028004F709D8FCE4791D7802B88D
:1000B30000028004F709D8FCE490028178FF790DEF
:1000C3008002F0A3D8FCD9FA781A90014A7A01BACF
:1000D30000028007E493A3F608DAF97A7F7B0F9096
:1000E300014B78DB79018015E493A3AD82AE838A5B
:1000F300828B83F0A3AA82AB838D828E83D8E9D9C6
:10010300E77582A87583FF740112012C75829175BE
:100113008300740012012C75D00075813F7518811E
:10012300751902759F00020096C09FF59FE473D076
:100133009F22D083D082C09FE493C0E0740193C018
:10014300E0740293F59F22019903AB03D5039F0348
:10015300FF0000B4000028002800283075A000A08C
:1001630000A000A00000080008E001F0001000104B
:10017300001000100010001000500050005000103C
:10018300001000D0070000000000000F0001000570
:1001930000307507001000010081FF0000FF02021C
:1001A300027F830100006E83027783010000D50F75
:1001B300027383010000B102027783010000D60FAE
:1001C300027183010000C702FFFF0100FF20027FCD
:1001D300830100006B83027783010000041002791E
:1001E300830000000000027583030000A403010BD9
:1001F300010B010B010B010B010B010B010B010B9C
:10020300010B010B010B010BE10CFF0CDB0C01E8F3
:1002130003053F100203FFFFFF00FEFF544A47514F
:100223000401120135FFBA0312013515BB03120194
:100233003542BB0312013572BB0312013593BB0375
:10024300120135C4BB0312013515BC031201352C51
:10025300BC031201354EB30312013565B30312011A
:100263003594B303120135CDB303120135F5B3034E
:1002730012013523B4031201353AB4031201355187
:10028300B40312013567B4031201358EB4031201AE
:1002930035A1B403120135B7B403120135DFB4033A
:1002A30012013504A90212013503AA021201352DE8
:1002B300AA0212013582AA02120135A3AA0212016F
:1002C30035BCAA02120135BEAA02120135DFAA0209
:1002D300120135E2AB021201359FAC021201356CFB
:1002E300AD02120135D0AD0212013567AE02120123
:1002F300356AAE02120135F0AE0212013533AF0298
:1003030012013585AF02120135BCAF02120135422D
:10031300B002120135CBB00212013514B102120141
:100323003517B10212013575B1021201358DB102D3
:1003330012013507B2021201350AB2021201352D3C
:10034300B20212013530B202120135D7B2021201E4
:1003530035FAB20212013512B30212013542B30269
:100363001201354FB30212013552B302120135BEE9
:10037300B302120135ACB40212013562B5021201A7
:100383003504C002120135DFC0021201350DC1026E
:100393001201358DC102120135ADC102120135EBD7
:1003A300C1021201353EC202120135A6C202120178
:1003B3003537C30212013502C40212013511C702D7
:1003C3001201357DC802120135A0C8021201357031
:1003D300A10312013501A30312013552A303120134
:1003E30035B1A303120135BFA303120135E8A303FB
:1003F300120135A3F802120135CBF802120135F9C7
:10040300F80212013530F90212013598F90212018E
:1004130035E1F9021201352CFA021201356AFA02AA
:10042300120135A7FA02120135D5FA021201357C01
:10043300FB0212013586FB0212013593FB02120106
:1004430035C6FB0212013588FC0212013594FC0209
:10045300120135ACFC02120135B6FC02120135342F
:10046300FD021201354CBF031201355ABF031201BD
:100473003572BF031201358ABF03120135A2BF03D0
:10048300120135D1EB011201356FEC01120135E791
:10049300EC01120135FCED0112013536EE011201BA
:1004A30035DFEE01120135B4EF0112013518F10108
:1004B3001201356FF101120135F6F101120135DD3B
:1004C300F2011201352AF301120135B8F3011201C9
:1004D30035DCF301120135B1F501120135F2F501F5
:1004E30012013514F601120135D9F6011201359FB7
:1004F300F701120135D4F901120135029A031201F1
:1005030035189A031201353E9A03120135669B038F
:10051300120135709B03120135C99C03120135C9C1
:100523009D03120135C5840312013567850312014A
:10053300359A8503120135E485031201359E87033D
:1005430012013506AD0112013584AD011201359456
:10055300AD0112013577AE011201359AAE011201D8
:1005630035F9AE011201350FB00112013513B20195
:10057300120135CAB30112013546B4011201352304
:10058300B50112013551B801120135EFB80112015D
:10059300354CBA01120135BFBB0112013568BC01EC
:1005A300120135B1BC01120135E8BC011201358DD0
:1005B300BD011201350BBE0112013551CE011201ED
:1005C30035A6CE01120135EBCF01120135FBCF0168
:1005D3001201351ED00112013569D0011201350E09
:1005E300D10112013504D201120135CED20112011B
:1005F3003546D40112013588D40112013526D501BF
:100603001201354CD5011201353AD7011201353F9C
:10061300D70112013520D90112013574D901120114
:1006230035D6D901120135FED901120135A2DA01FD
:1006330012013564DB0112013595DB011201359896
:10064300DB01120135E0DB0112013522DC0112016D
:100653003589DC0112013544AB0312013557AB0375
:1006630012013560AB0312013579AB03120135C4B6
:10067300AB031201359FAC031201352EAD031201FA
:100683003579AD03120135D65C00120135E65C0005
:10069300120135495D001201358E5D001201353EB0
:1006A3005E00120135175F00120135405F00120131
:1006B30035705F00120135846100120135606300FB
:1006C300120135406500120135786600120135F1DB
:1006D3006800120135DD6900120135236B00120138
:1006E30035306C00120135726C00120135AA6C00B2
:1006F300120135C46C001201352C6D00120135C690
:100703007100120135677200120135BB72001201CC
:1007130035E272001201352073001201353F730078
:100723001201359373001201359B740012013524B5
:100733007500120135A2ED02120135ACED02120172
:100743003548EE0212013513EF0212013532EF0282
:1007530012013558EF0212013597EF02120135CF1E
:10076300EF02120135F8EF0212013532F0021201E5
:100773003547F00212013514F10212013537F10247
:1007830012013559F1021201356EF102120135F8E9
:10079300F10212013532F202120135A6F202120100
:1007A30035EFF20212013519F3021201353EF3025D
:1007B300120135169603120135E09603120135C373
:1007C30097031201353998031201357B98031201FF
:1007D30035A89903120135CF8D02120135F88D0228
:1007E300120135118E02120135568F021201353472
:1007F3009002120135539002120135E0900212016A
:10080300352391021201355B9202120135C7920220
:10081300120135BD94021201354B9702120135DEE8
:100823009702120135B2980212013555990212014D
:1008330035689A02120135FE9A0212013543BC0350
:10084300120135ACBC0312013500BD031201352F73
:10085300BD03120135B18D031201351E8E03120142
:1008630035698E031201355E8F031201355A9003E9
:1008730012013544910312013592E002120135D978
:10088300E002120135B2E102120135ADE2021201BA
:10089300358CE302120135F8E30212013514E50247
:1008A3001201357BE5021201357EE502120135A9FD
:1008B300E5021201351AE602120135BDE602120104
:1008C30035D2E6021201351AE70212013533E70287
:1008D30012013536E70212013500A5031201353C3A
:1008E300A5031201357AA50312013544A6031201AB
:1008F30035B7A603120135F2A60312013530A7035B
:1009030012013560A70312013587A703120135F2DF
:10091300A70312013534A8031201358A830112019A
:1009230035A8850112013557870112013507880162
:100933001201355288011201359D8801120135AF2C
:100943008801120135EF8801120135248901120152
:10095300357089011201359F8901120135C2890160
:10096300120135498A01120135358B0112013573A4
:100973008C01120135758D01120135518F01120160
:1009830035759401120135BB9401120135F99401B7
:100993001201352E97011201359FAF031201353F26
:1009A300B103120135F02200120135872300120131
:1009B30035B42300120135FA230012013530250026
:1009C300120135C726001201353F27001201358178
:1009D3002700120135D127001201353C29001201ED
:1009E30035A72B00120135832C00120135A22C00F0
:1009F300120135C12C00120135C42C001201354AF5
:100A03002E001201353F2F001201353B3000120139
:100A130035AB30001201351D31001201359C310018
:100A23001201357732001201357E33001201355D34
:100A33003400120135E83400120135563500120135
:100A430035CA3500120135F33500120135B23600CF
:100A5300120135C139001201350A3A001201354D30
:100A63003A00120135D03A00120135743B001201ED
:100A730035053C001201352A3C00120135743C0057
:100A83001201359E3C00120135E33C001201355E34
:100A93003D00120135B83D001201350C3F00120133
:100AA30035C93F001201359C400012013500800218
:100AB3001201355080021201355C80021201353972
:100AC3008102120135698102120135A181021201ED
:100AD30035208202120135588202120135AA8202A0
:100AE300120135E782021201350C850212013538F5
:100AF30087021201353389021201350E8B0212016E
:100B0300352BC403120135E3F90112013515FE013A
:100B130012013565FF01120135BFBE011201359186
:100B2300C50112013597C50112013547C8011201EC
:100B33003566F30212013512F402120135E0F402B4
:100B43001201350AF50212013558F702120135CAAE
:100B53004000120135144100120135C64D00120147
:100B630035474F001201353F50001201359E5600A4
:100B7300120135995700120135D65700120135F984
:100B830057001201353B5800120135455800120138
:100B930035315900120135255A00120135BE5A006C
:100BA300120135D39D03120135699E031201357F6E
:100BB3009E03120135F99E031201354F9F03120163
:100BC300358D9F03120135EA9F0312013567A00398
:100BD30012013570A0031201357CA0031201358F79
:100BE300A003120135CBA003120135E1A0031201CA
:100BF3003540A1031201355AE70212013567E702B6
:100C030012013581E702120135C0E702120135FEF8
:100C1300E70212013563E80212013578E802120196
:100C2300358FE8021201359DE802120135ACE80266
:100C3300120135C1E802120135D6E802120135E18D
:100C4300E802120135EDE802120135FAE802120159
:100C53003509E90212013514E90212013539E902B5
:100C6300120135E2E902120135F7E9021201350CEE
:100C7300EA0212013526EA0212013541EA021201A3
:100C8300355EEA0212013569EA0212013525EB02EB
:100C930012013511EC0212013536EC021201354016
:100CA300EC0212013554EC0212013573EC0212010D
:100CB30035D4EC02120135DAEC02120135E0EC0214
:100CC300120135E6EC02120135F2EC021201352570
:100CD300ED02120135CDB502120135F9B50212014B
:100CE30035DDB60212013577B9021201358DBA022C
:100CF300120135AABB021201354DBC02120135F3B4
:100D0300BC021201357A9B02120135FC9B021201CF
:100D130035A59C02120135ED9D02120135FB9F02A0
:100D2300120135E1A00212013516A1021201353874
:100D3300A102120135E1A102120135B1A302120190
:100D430035DAA30212013552A40212013584A4023A
:100D530012013591A402120135DCA40212013500FF
:100D6300A50212013551A7021201355BA802120137
:100D730035B7A80212013553DD0112013564DE01D6
:100D830012013548DF0112013552DF0112013574BA
:100D9300DF0112013580DF0112013524E101120167
:100DA3003551E10112013567E201120135BCE2015F
:100DB3001201350BE401120135E0E4011201353C67
:100DC300E501120135A7E501120135DCE501120148
:100DD300351FE601120135E9E80112013501E90188
:100DE30012013592E901120135A0E901120135ED35
:100DF300E901120135FBE90112013567EA0112012C
:100E030035E2EA0112013539EB0112013595B103DF
:100E1300120135BAB10312013530B203120135A301
:100E2300D902120135ACD902120135B5D90212012A
:100E3300358DDA021201353EDC021201356EDC0219
:100E430012013599DC02120135C9DC02120135F4B5
:100E5300DC0212013528DD0212013554DD021201D4
:100E63003597DD02120135C2DD0212013509DE02BA
:100E73001201355EDE02120135A0DE02120135FADF
:100E8300DE0212013525DF0212013574DF02120181
:100E930035A4DF02120135CFDF02120135F2DF0282
:100EA3001201355EC2031201358AC203120135B73E
:100EB300C203120135C1C203120135D1C2031201AB
:100EC300350080031201353F8003120135CF8003C3
:100ED3001201351A81031201355981031201356854
:100EE3008103120135C181031201351082031201FE
:100EF300356682031201355B830312013550840387
:100F03001201358D8403120135DBC203120135470B
:100F13009901120135459B01120135C69C0112014D
:100F230035C89D01120135509E01120135D59E0130
:100F3300120135FE9E011201354E9F01120135410A
:100F4300A301120135B2A3011201359EA4011201BE
:100F530035D8A40112013518A5011201354BA6019C
:100F63001201357CA601120135CFA60112013518F5
:100F7300A70112013586A701120135B8A701120195
:100F830035D2A701120135C4A801120135D4A80135
:100F930012013583AA011201359AAA01120135CC37
:100FA300AA011201354EAC01120135C7AC01120181
:100FB300351AC1031201352BC103120135F47F0029
:100FC30012013518C4031201353BC0031201354B1E
:100FD300C00312013560C00312013514C1031201AD
:100FE3003550BD03120135D4BD031201353CBE0398
:100FF30012013580B603120135A8B6031201352953
:10100300B70312013544B7031201355DB70312016B
:1010130035B6B70312013500B80312013503B8031F
:1010230012013506920312013520920312013599FC
:1010330092031201356E9303120135409503120199
:1010430035A59503120135029603120135F87F0089
:10105300120135C5FD0212013546FF02120135A703
:10106300FF02120135EDFF02120135F0FF021201FA
:1010730035F5FF02120135FCFF02120135FEFF02B6
:101083001201350CB80312013535B8031201355E70
:10109300B803120135F8B80312013510B903120170
:1010A3003552B903120135D8C902120135E2C9021A
:1010B30012013522CA021201356BCA02120135A58B
:1010C300CA02120135FBCA021201351ACB02120100
:1010D30035A2CD02120135ABCD02120135FCCD0292
:1010E30012013525CE021201352FCE02120135A091
:1010F300CE021201352ECF0212013583CF02120127
:1011030035B2CF021201352ED0021201356BD00257
:10111300120135A2D002120135B4D002120135D327
:10112300D002120135DCD00212013593D102120133
:1011330035F1B40312013541B503120135B3B503DB
:101143001201351BB6031201357CA803120135A623
:10115300A8031201356DA90312013549AA0312012F
:1011630035D1AA0312013555BE03120135A3AD03D0
:10117300120135D9AD031201350CAE0312013565E9
:10118300AF03120135C9C103120135DFC1031201D7
:1011930035E9C10312013533C2031201353BC303E1
:1011A300120135BFD1021201357CD202120135B7CB
:1011B300D202120135E8D2021201354AD3021201DA
:1011C3003596D30212013501D4021201357BD402C4
:1011D3001201357AD50212013501D7021201358485
:1011E300D702120135EAD702120135FDD7021201E7
:1011F30035F8D80212013545D90212013541890368
:10120300120135578903120135F889031201353765
:101213008A03120135548A03120135858A031201A8
:1012230035D28A03120135068B03120135418B0334
:101233001201353E8D03120135A48D03120135973A
:10124300B903120135A5B90312013510BA0312010E
:101253003556BA0312013574BA031201358B750082
:10126300120135A97600120135BF78001201358CC1
:101273007900120135237A00120135037B00120134
:10128300351A7B00120135987D00120135D67D0099
:101293001201352F7E001201354C7F00120135C833
:1012A3007F001201359AC303120135D1C303120122
:1012B30035FAC303E066701008A3E066700A08A35A
:1012C300E066700408A3E06622C3E7960809E79680
:1012D3000809E7960809E79622C3E09608A3E09673
:1012E30008A3E09608A3E09622C008C3E096F50899
:1012F30008A3E096420808A3E096420808A3E096F4
:1013030045087001D3D00822080808EAC0E0EBC002
:10131300E086F0E7A4FA180986F0E7A42AFA180988
:1013230086F0E7A42AFA180986F0E7A42AFA1986B0
:10133300F0E7A4FBE5F02AFA190886F0E7A42BFBF3
:10134300E5F03AFA190886F0E7A42BFBE5F03AFA40
:1013530018180986F0E7A4C5F02BFBE43AFA19083C
:10136300E7C5F0C6A426F6E5F03BFBE43AFA188697
:10137300F0E7A4F6E5F00826F6E43B08F6E43A08BD
:10138300F6D0E0FBD0E0FA22E4CFC0E0E4CEC0E048
:10139300E4CDC0E0E4CCC0E075F020E626F608E634
:1013A30033F608E633F608E633F6181818EC33FC80
:1013B300ED33FDEE33FEEF33FFC3EC9709ED9709F1
:1013C300EE9709EF97191919400FFFEC97FC09EDF8
:1013D30097FD09EE97FE191906D5F0BFECF709ED55
:1013E300F709EEF709EFF7191919D0E0FCD0E0FD82
:1013F300D0E0FED0E0FF226016080808C6C313C67B
:1014030018C613C618C613C618C613C6D5E0EA22F3
:101413007009080808226016181818C6C333C608CE
:10142300C633C608C633C608C633C6D5E0EA22E6C5
:1014330027F60809E637F60809E637F60809E63716
:10144300F622E026F608A3E036F608A3E036F6080F
:10145300A3E036F622E026F008A3E036F008A3E086
:1014630036F008A3E036F022C3E697F60809E697BC
:10147300F60809E697F60809E697F622C3E096F020
:1014830008A3E096F008A3E096F008A3E096F02204
:10149300E657F60809E657F60809E657F60809E697
:1014A30057F622E056F608A3E056F608A3E056F6F0
:1014B30008A3E056F622E056F008A3E056F008A38E
:1014C300E056F008A3E056F022E066F608A3E066D3
:1014D300F608A3E066F608A3E066F622E0F608A3A2
:1014E300E0F608A3E0F608A3E0F622E6F008A3E698
:1014F300F008A3E6F008A3E6F022E0FAA3E0FBA3DA
:10150300E0FCA3E0FD22EAF0A3EBF0A3ECF0A3EDF3
:10151300F022E0F8A3E0F9A3E0FAA3E0FB22E8F06D
:10152300A3E9F0A3EAF0A3EBF022CAC0E0E6F0A33C
:1015330008DAFAD0E0FA22CAC0E0E0A3C582CCC53B
:1015430082C583CDC583F0A3C582CCC582C583CDB7
:10155300C583DAE6D0E0CA22C3E498F8E499F91225
:10156300159C8026C3E49AFAE49BFBE920E7E91281
:10157300159CE498F8E499F922C3E498F8E499F9FE
:1015830012159CE498F8E499F9C3E49AFAE49BFBF6
:1015930022EB20E7CFE920E7E0B90010BB0008E821
:1015A3008AF084F8AAF022E4FBC8FA22EB70227BCB
:1015B30010C833C8C933C9335007C39AC3DBF28099
:1015C300069A50012ADBEAC833F4C8C933F4C9FACE
:1015D3002275F008E4C833C8C933C933C99AC99B13
:1015E3005004C92AC93BD5F0ECFBC833F4C8E4C99D
:1015F300FA22600D08C6A2E713C618C613C6D5E0C3
:10160300F322600C08C6C313C618C613C6D5E0F48C
:1016130022700422600D18C6C333C608C633C6D56C
:10162300E0F41822251810AF08F518400C1519809E
:1016330008F51840021519D2AF2200C0D0251810A2
:10164300AF08F518500C05198008F5185002051954
:10165300D2AFD0D0222518F58210AF08F518400C70
:1016630015198008F51840021519D2AF8519832280
:10167300C5822518C582C583351910AF07F51985AD
:1016830082188007F519858218D2AFC583222518E1
:10169300F582E43519F583222518F8E43519F92282
:1016A3002518FAE43519FB222518FCE43519FD2227
:1016B300E4732518C582C0E0E51934FFC583C0E093
:1016C300E518C3958224F810AF088583198582181D
:1016D3008008858319858218D2AFCEF0A3E520F068
:1016E300A37808E608F0A3DEFAEFF0A3E58124FA75
:1016F300F8E608F0A3E608F0A3E608F0A30808E676
:1017030008F0A3E608F0A315811581D0E0FED0E030
:10171300F8158115811581E8C0E0EEC0E022251897
:10172300C582C0E0E51934FFC583C0E0E518C39561
:101733008224F910AF088583198582188008858370
:1017430019858218D2AFCEF0A3E520F0A37808E67E
:1017530008F0A3DEFAEFF0A3E58124FBF8E608F036
:10176300A3E608F0A30808E608F0A3E608F0A3152B
:10177300811581D0E0FED0E0F815811581E8C0E045
:10178300EEC0E022851983851882E0A3FEE0A3F56D
:10179300207808E0A3F608DFFAE0A3FFE0A3C0E0A7
:1017A300E0A3C0E0E0A3C0E0E0A3C0E0E0A3C0E0AA
:1017B30010AF088582188583198008858218858370
:1017C30019D2AFD083D08202013285198385188262
:1017D300E0A3FEE0A3F5207808E0A3F608DFFAE033
:1017E300A3FFE0A3C0E0E0A3C0E0E0A3C0E0E0A368
:1017F300C0E010AF08858218858319800885821898
:10180300858319D2AFD083D08222C0D02518C58258
:10181300C0E0E51934FFC583C0E0E518C395822411
:10182300F310AF088583198582188008858319858D
:101833008218D2AFC8F0A3E9F0A3EAF0A3EBF0A3B8
:101843007908E709F0A3D8FAECF0A3EDF0A3EEF0E2
:10185300A3EFF0A3D0E0F0A3D0E0F0A3D0E0F0A397
:10186300E520F0A3E5F0F0A322851983851882E033
:10187300C0E0A3E0F9A3E0FAA3E0FBA37808E0F655
:1018830008A3DFFAE0FCA3E0FDA3E0FEA3E0FFA3CF
:10189300E0C0E0A3E0C0E0A3E0F5D0A3E0F520A31F
:1018A300E0A3F5F010AF08858319858218800885B9
:1018B3008319858218D2AFD082D083D0E0F8D0E0EC
:1018C3003274048006740280027401C0E0F40412CE
:1018D3001658D0E012152D2274048004740280007F
:1018E300CCC0E0EDC0E0E518C39CCCAD1950011DA0
:1018F30010AF068C188D1980068C188D19D2AF1273
:10190300153AD0E0FDD0E0FC22D083D082E9C0E0DC
:10191300E493A3C386F0C5F095F0F908E493A38696
:10192300F0C5F095F0700BE493A3C3994005E90467
:101933008002A3E475F002A42582F582E5F03583E5
:10194300F583D0E0F9E493A3C0E0E493C0E022D0B0
:1019530083D082ECC0E0EDC0E0E493A3FCE493A366
:10196300FDED4C600D12199EEC24FFFCED34FFFDE0
:1019730080EFE493A3FCE493A3FDED4C600D1219F7
:10198300DDEC24FFFCED34FFFD80EFD0E0FDD0E083
:10199300FCE493A3C0E0E493C0E022C0E0C3E4937B
:1019A30096087401939618400FE4936670080874C0
:1019B3000193661870007019A3A3C3E49396087487
:1019C30001939618A3A3400DD0E0D0E0D0E0021914
:1019D3008EA3A3A3A3A3A3D0E022C0E0C0F088F00A
:1019E300E4936670080874019366187000A8F0A366
:1019F300A3700BD0F0D0E0D0E0D0E002198EA3A307
:101A0300D0F0D0E02274F5121721EAFEEBFFEE24AA
:101A130034F8EF3400F988088909EE2435F582EFAC
:101A23003400F583E0F8EE2437F582EF3400F583D4
:101A3300E0F50AEC850AF0A4FCAAF0850AF0EDA40F
:101A43002AFDE82CF8E43DF97A257B0012159CEA7F
:101A5300850882850983F05407F87401B800028071
:101A630004C333D8FCC0E0E0131313541FF8EE286B
:101A7300F8EF3400F9E8245DF582E93400F583D00A
:101A8300E0F8E0586008EE2434F582EF801EEE247F
:101A930036F582EF3400F583E0F5F0EA84A8F0EE42
:101AA30028F8EF3400F9E82438F582E93400F583A7
:101AB300E0F97F040217CD74F5121721EAFEEBFF5C
:101AC300EE2434F582EF3400F583E0C0E0EE2435F4
:101AD300F582EF3400F583D0E0F08E828F83A3A3E9
:101AE300A3A3A3A3A3C082C0838E828F83A3A3A334
:101AF300A3A3E0F8A3E0F9D083D082E0C398F5086C
:101B0300A3E099F509EE2480F582EF3400F583E034
:101B130064017069EE2481F582EF3400F583E0F807
:101B2300A3E0F98E828F83A3A3A3A3A3A3A3E0FCC3
:101B3300A3E0FD8E828F83A3A3A3A3A3E0FAA3E074
:101B4300FBC3EA9CEB9D5027C3EC98ED99402EC351
:101B5300EA98EB9950277CE27D07EEFAEFFB120A35
:101B630047EE2480F582EF3400F583E4F0800EC362
:101B7300EA98EB9940E0C3EC98ED9950D9EE243400
:101B8300F8EF3400F9E8FCE9FDEE2435F582EF3493
:101B930000F583E0F8EE2437F582EF3400F583E0B7
:101BA300F50AE508850AF0A4F508AAF0850AF0E528
:101BB30009A42AF509E82508F8E43509F97A257B0B
:101BC3000012159CEA8C828D83F05407F87401B8D7
:101BD30000028004C333D8FCC0E0E0131313541F86
:101BE300F8EE28F8EF3400F9E8245DF582E93400D3
:101BF300F583D0E0F8E0586008EE2434F582EF80F6
:101C03001EEE2436F582EF3400F583E0F5F0EA8426
:101C1300A8F0EE28F8EF3400F9E82438F582E93427
:101C230000F583E0F9122289021AB50000851B87AB
:101C3300851CC622C0E0C0D0E8C0E0E9C0E0EAC02D
:101C4300E0EBC0E0ECC0E0EDC0E0C008C009C00AB2
:101C5300C00BC082C083C0F0759B00906182E0A27C
:101C6300E64003021D15E591A2E64003021D15752A
:101C730091BF900499E064057008120BCD120BD943
:101C83008003120BD3751B00120C39E990049AF0F0
:101C93007900120C1B1209B77A017B00900498E0BB
:101CA300F9121107907803E064426003021D5E900D
:101CB3000817E014F06003021D5EC2AF121CC200DD
:101CC300781ED0E0F618D0E0F6E59F5407F97005CA
:101CD3009082EB800390836378081214DFE9C4C019
:101CE300E0781DE65508F50808E65509F509740B73
:101CF3007808121605D0E02508F8906270E0A2E794
:101D030040F8E8C333906272F0906270E0D2E0F082
:101D13008049E0A2E55024E591A2E5501E7591DFCC
:101D2300900499E0640D70139004BBE004F0642800
:101D33007002E4F07A00E0F9120CC9906181E0A22C
:101D4300E35009E5E9A2E3500375E9F7A3E0A2E74D
:101D53005009E591A2E7500375917FD0F0D083D06D
:101D630082D00BD00AD009D008D0E0FDD0E0FCD05F
:101D7300E0FBD0E0FAD0E0F9D0E0F8D0D0D0E03208
:101D8300C0E0C0D0C082C083906183E0A2E050096C
:101D9300E5BFA2E0500375BFFEE0A2E15009E5BF35
:101DA300A2E1500375BFFDE0A2E25009E5BFA2E244
:101DB300500375BFFBE0A2E35009E5BFA2E3500364
:101DC30075BFF7E0A2E45009E5BFA2E4500375BF75
:101DD300EFE0A2E55009E5BFA2E5500375BFDFE0E0
:101DE300A2E65009E5BFA2E6500375BFBFD083D07A
:101DF300828088C0E0C0D0E8C0E0E9C0E0EAC0E08B
:101E0300EBC0E0ECC0E0EDC0E0C0F0E5A7A2E65017
:101E13000FE5A1A2E6500953A7BF75A1BF121E5B30
:101E2300E5A7A2E5500CE5A1A2E5500653A7DF758F
:101E3300A1DFE5A7A2E15009E5A1A2E1500375A145
:101E4300FDE5A7A2E2500CE5A1A2E2500653A7FBD1
:101E530075A1FBD0F0021D6C74F8121721751B01DC
:101E6300900499E064067015120B798A828B83A320
:101E7300A3A3A3A3A3E0FAA3E0FB120BBBA2AFE4CB
:101E830033FED2AF90049FE0640170187A207B0088
:101E9300900498E0F91212217A207B00900498E0D4
:101EA300F912110D906182E0D2E6F0900816E0601D
:101EB3002185C61C801690049EE064017008E5C667
:101EC30054F84405F5C653BEFC121C307401651B5F
:101ED30060E4EEA2E092AF7F010217CD74EB12171C
:101EE3002174FA1216278A088B098C148D15900415
:101EF30099E024F7C3940550069082CF0220411243
:101F03000B798A0A8B0BAE0AAF0BEE4F70030220DC
:101F13003EAC08AD09851882851983AA82AB83126A
:101F23000BEB8E828F83A3A378081214DF908307B1
:101F330078081214A6851882851983780C1214DF89
:101F4300908307780C1214A67808790C1212CC50DF
:101F53001F7808790C12146B9082E778081212EC40
:101F63004047850810850911850A12850B138041A6
:101F7300850C10850D11850E12850F1378107908C5
:101F830012146B9082E778101212EC501C7510003B
:101F93007511007512007513017810790C12146B0A
:101FA3007810790812143280089082CF78101214B6
:101FB300DF740978101214139082F778081214DF73
:101FC3007810790812138B8E828F83A3A3A3A3A304
:101FD300A3E0F8A3E0F97AD07B0312159C88088963
:101FE30009E4F50AF50B7810790812143274041217
:101FF3001691E0F8A3E0F97AD07B0312159CE8FA76
:102003008A08E4F509781079081212CC5007781081
:10201300790812146B900499E06408600AE064067E
:102023006005E06405701C90834F78101212EC5029
:10203300129082F37810121445800890835F781011
:102043001214DF85148285158378101214EE74063A
:1020530012163D7F0E0217CD74F7121721120BFDD6
:10206300900814E064017010906245E4F0A3F0530B
:10207300F4F343FE0C5390F3120BA9E5C6548044CA
:1020830049F5C6E59E547F644970F8906185740FE5
:10209300F0900812E0F47002A3E0604E900813E0A1
:1020A300600814601B14602E8040750801750900D8
:1020B300900812E07808121614E508F45280802A7A
:1020C300750801750900900812E07808121614E5E6
:1020D30008F452908014750801750900900812E005
:1020E3007808121614E508F452A079007F0202174B
:1020F300CD74F7121721E9FEEAFF74016E700C7AB2
:10210300807B00900498E0F91211079022E8E49391
:10211300F46008E493F91209AB800953C680E59E85
:10212300547F70FA120BAF900814E064017003122D
:1021330009C3900812E0F47002A3E0604B90081307
:10214300E0600814601A14602C803D75080175095D
:1021530000900812E07808121614E50842808028DF
:10216300750801750900900812E07808121614E545
:102173000842908013750801750900900812E078F1
:1021830008121614E50842A0120BFD120B798A08F7
:102193008B09A808A909E8496015E5E170FCE82462
:1021A30014F582E93400F583E0F46003E0F5E174AB
:1021B300016F700A7A01900498E0F91211910220DC
:1021C300EF74F11217218A088B098C0A8D0B740F97
:1021D300121691780C1214DF90830778081214A654
:1021E300908307780C1214A67808790C1212CC503D
:1021F300157808790C12146B9082E778081212ECA8
:10220300401579018013780C790812146B9082E7DA
:10221300780C1212EC40EB79007F080217CD74EDB5
:102223001217218A088B098C0A8D0B7413121691CD
:10223300780C1214DF90830778081214A690830792
:10224300780C1214A6780C79081212CC4011780875
:10225300790C12146BAA08AB09AC0AAD0B8022757A
:1022630010007511007512007513017810790C12A6
:10227300146B78107908121432AA10AB11AC12AD9A
:10228300137F0C0217CDC082C083E9906000F0D0A9
:1022930083D08222C0E074F212180DA2AFE433FEA1
:1022A300D2AFE58AA2E54006E58AA2E25003121006
:1022B30011758A00758A00C2EB751A00EEA2E092CE
:1022C300AF7F0102186CC0E0C0D0E8C0E0A8A8D27C
:1022D300AFC2C7751A00E8A2E792AFD0E0F8D0D03A
:0322E300D0E03216
:1022E800FFFFFFFFFFFFFFFFC082C0839061907474
:1022F80004F0A37448F0A37402F09061807440F075
:102308009061BC7403F09061877419F090626574F1
:102318001BF090619C740DF090619A7433F0A37473
:1023280055F09061A0743AF0900814E064017009C7
:10233800C29190049D7467800590049D7461F0902B
:1023480022EEE493906186F09022E8E493F460270B
:10235800E493540FF8906185E0686012E5C65480F4
:102368004449F5C6E59E547F644970F8E8F053C6C1
:1023780080E59E547F70FA7905120CAB02277AC06B
:1023880082C083E9540FF9906185E0696012E5C65F
:1023980054804449F5C6E59E547F644970F8E9F0D5
:1023A80053C680E59E547F70FA02277AC082C083A4
:1023B800E5A8F853A87E906181E4F0A3F0A3F0C2E9
:1023C800BA539AFEC289759B00C2C275E90075911D
:1023D8000075BF0075A91175B905906181F0A374E6
:1023E800C0F0A3E4F0D2BA439A0174805842A8021C
:1023F800277AC082C08374F812162790049BE0F8ED
:10240800A3E0F9E849700302252890049BE05440B2
:1024180060237908851882851983AA82AB83120AFA
:10242800B9851882851983AA82AB8312079B900409
:102438009BE054BFF0E054806010790C7A387B0838
:10244800120AB990049BE0547FF0E0A2E05031906A
:10245800619A7433F0A37455F09061A0743AF090C7
:102468000814E064017009C29190049D74678005A6
:1024780090049D7461F01207A190049BE054FEF053
:10248800E05402603190619A743FF0A3745AF0905E
:1024980061A0747FF0900814E064017009D29190F3
:1024A800049D7471800590049D746AF01207A190D0
:1024B800049BE054FDF0E0540460139022ECE49394
:1024C800906186F01207A790049BE054FBF0E0545B
:1024D8000860139022EDE493906186F01207A790AC
:1024E800049BE054F7F0E0541060139022EEE4935C
:1024F800906186F01207A790049BE054EFF0E05437
:1025080020600A1207A790049BE054DFF0A3E05470
:1025180001600D1209C31207AD90049CE054FEF04F
:10252800740812163D02277A74EC1216B574F41268
:102538001627851882851983AC82AD8375838275C9
:1025480082BF740412153A9022EC93F460030226B9
:10255800BD907808E0C39402500302269D740412CB
:102568001691AC82AD8375838275828674081215C4
:102578003A8518828519838582128583137404121B
:102588001691AC82AD83750EFF750FFF7FFF7E003D
:10259800750C48750D78801574086E700302263026
:1025A80074096E7003022630740A6E607B850C8293
:1025B800850D8378081214DF8C828D83A909E50ABA
:1025C800C9F88810741878081213FAE5104508F845
:1025D800C3E098A3E099850C82850D8378081214CE
:1025E800DF40188C828D83741878081213FAE5106E
:1025F8004508F8E0C398F8A3E0801C74187808121E
:1026080013FAE5104508FAE9FB8C828D83E0F8A3FC
:10261800E0F9EAC398F8EB99F9C3E8950EE9950F44
:102628005006880E890FEEFF0EE50C2404F50CE524
:102638000D3400F50DEEC3941350030225A074FF6A
:10264800650E700474FF650F60238F0874027808A4
:1026580012161474482508F58274783509F58378BC
:10266800081214DF851282851383E508F0EC240232
:102678000C0CED3400FD851282851383A38582122C
:10268800858313740C121691E5826C7003E5836DD3
:10269800600302258E75080175090078081218C8AC
:1026A8007402121691AC82AD837ABB7B08120FE7D5
:1026B800740212163D740C12163D7F0C021787C067
:1026C80082C0839061AE7468F0A3746AF09062452A
:1026D80074FBF0A304F053F4FD43FE029008147455
:1026E80001F09061A0E0643A90619A70237433F02D
:1026F800A37455F09061A0743AF0740164017009F4
:10270800C29190049D7467802890049D7461802113
:10271800743FF0A3745AF09061A0747FF074016460
:10272800017009D29190049D7471800590049D7484
:102738006A8000F002277AC082C0839007F2E064C2
:102748000170159007F8E064016009E0700AA3E0E1
:1027580064017004790C8012900809E06401700823
:1027680090080FE0640160EC790002277AE0F91222
:102778002289D083D082020132C082C0839007FCB4
:102788007425F09007FA7401F0A3E4F07A01FB12C3
:102798000C279007E8E02416F8A3E03400F98882B3
:1027A800898374E7F0A37409F09007F9E064017075
:1027B800169007F8E070107901120C87120C571266
:1027C8000C817900120C9380A9C082C08374FA121C
:1027D80016279007F1E0640170081209CF9007F1FD
:1027E800E4F075E1F19007E8E02415F8A3E034007F
:1027F800F9888289837401F09007F3E064017076A8
:1028080090829DC082851882851983AC82AD8375BC
:102818008382D082740612153A75D90D9007EAE0C2
:10282800C4333354C04403F5D978E87907888289DA
:1028380083A3A3A3E0F5D988828983A3A882A98367
:10284800E864EE7003E9640770E3851882851983EC
:10285800A882A98388828983E0F5D9A3A882A9835D
:102868007406121691E582687003E5836970E57550
:10287800E195790180027900120C2D9010257431B0
:10288800F0A3740BF0A37437F0A3740BF0A37431A6
:10289800F0A3740BF0A37431F0A3740BF0A37401CC
:1028A800F0A3740BF0A37401F0A3740BF0A3743DB0
:1028B800F0A3740BF09010337401F0A3740BF0A321
:1028C8007401F0A3740BF0A37401F0A3740BF0A3CC
:1028D8007401F0A3740BF0A37401F0A3740BF0A3BC
:1028E8007401F0A3740BF09007EAE0F97AEB7B0728
:1028F800120C099007FCE0F91222897901120C33B5
:102908009082C31214FD120C4B90831F1214FD12F7
:102918000C157900120C9F9007E8E02414F8A3E046
:102928003400F9888289837416F09004997405F04C
:102938000402252A74F71216B58908A808E875F064
:1029480006A4C8AAF02AF974C928FE740439FF90AD
:102958000801E0F97A027B08120C0990080FE07070
:102968001A7900120C699007DBE0700B79007ADCA9
:102978007B07120C0F8009790180F37901120C6929
:1029880075E1F175D923900801E0C4333354C0448C
:1029980005F5D978FF790788828983A3A3A3E0F591
:1029A800D988828983A3A882A983E864057003E98A
:1029B800640870E375D90075D90075D90075D90018
:1029C80075D90075D900EEF8EFF9E82404FAE9346E
:1029D80000FBE82422F582E93400F583E0F5D98884
:1029E800828983A3A882A983EA687002EB6970E2EE
:1029F800EEF8EFF9E824031AE93400FBE82426F599
:102A080082E93400F583E0F5D988828983A3A88216
:102A1800A983EA687002EB6970E2EE242BF582EF75
:102A28003400F583E0F5D9EEF8EFF9E824021AE965
:102A38003400FBE8242CF582E93400F583E0F5D96D
:102A480088828983A3A882A983EA687002EB6970E7
:102A5800E2EEF8EFF9E8242EF582E93400F583E098
:102A6800F5D988828983A3A882A983EA687002EBD2
:102A78006970E2EEF8EFF9E82430F582E93400F500
:102A880083E0F5D988828983A3A882A983EA68703C
:102A980002EB6970E2EEF8EFF9E82432F582E934E6
:102AA80000F583E0F5D988828983A3A882A983EAFF
:102AB800687002EB6970E2EEF8EFF9E824050A0A9B
:102AC8000AE93400FBE8245DF582E93400F583E087
:102AD800F5D988828983A3A882A983EA687002EB62
:102AE8006970E2EE2437F582EF3400F583E0541F75
:102AF800F8EE242AF582EF3400F583E0C43354E07D
:102B080048F5D975E1959010257407F0A3740BF07A
:102B1800A3740DF0A3740BF0A37401F0A3740BF06D
:102B2800A37401F0A3740BF0A37401F0A3740BF069
:102B3800A37401F0A3740BF0A37413F0A3740BF047
:102B48009010337401F0A3740BF0A37401F0A37414
:102B58000BF0A37401F0A3740BF0A37401F0A37439
:102B68000BF0A37401F0A3740BF0A37401F0A37429
:102B78000BF090080EE0F91222899082C31214FD1E
:102B8800120C4B90831F1214FD120C1590600DE46B
:102B9800F07901120C9F9004997406F00231977431
:102BA800EC1216B59007FFE0F8A3E0F5838882A33E
:102BB800A378101214DF900810E0FAF875F006A454
:102BC800C8ACF02CF974F728F582740439F583E061
:102BD800FEA3E0FFEEC333FEEF33FF8E0CF50D7559
:102BE8000E00750F0085100885110985120A8513D6
:102BF8000B908327780812144578081218C485109A
:102C08000885110985120A85130B7808790C1214A6
:102C1800327810790C12138BE4F50EF50F780879D9
:102C28000C12146B8A0C750D007403780C121614B0
:102C38007808790C12143290830778081214A6AA1F
:102C480008AB09AC0AAD0B122221740412163D8A96
:102C5800088B09A808A909C3EE98EF995006E82E31
:102C6800F8E93FF9E890600EF0E9A3F0EEA3F0EF81
:102C7800A3F090600D74C1F00226C2C082C0839098
:102C880007E8E0F8A3E0F5838882A3A3A3A3A3A39E
:102C9800E4F0A3F09007FC022775C082C083900778
:102CA800FFE0F8A3E0F5838882A3A3A3A3A3A3E48A
:102CB800F0A3F090080E02277502013274F612167E
:102CC800B59061D0E0F87480C398FCEA2483F5825B
:102CD800EB3400F583E06004780480027800E8248F
:102CE8000EF8ECC3985003022E457E0C900818E4A9
:102CF800F0EA2477F582EB3400F583E0900819F0C8
:102D0800EA2478FCEB3400FD781A79087F028C827B
:102D18008D83E088828983F08C828D83A3AC82AD19
:102D28008388828983A3A882A9831FEF70E0EA249D
:102D38007AFCEB3400FD7F028C828D83E0888289E7
:102D480083F08C828D83A3AC82AD8388828983A330
:102D5800A882A9831FEF70E0EA247CFCEB3400FD15
:102D68007F028C828D83E088828983F08C828D83B8
:102D7800A3AC82AD8388828983A3A882A9831FEF2D
:102D880070E0EA247EFCEB3400FD7F028C828D83A8
:102D9800E088828983F08C828D83A3AC82AD83889E
:102DA800828983A3A882A9831FEF70E0EA2475FCB7
:102DB800EB3400FD8A828B83A3A3A3A3A3E0F508C9
:102DC800A3E0F5098C828D83E02508F0A3E035099E
:102DD800F07F028C828D83E088828983F08C828DDB
:102DE80083A3AC82AD8388828983A3A882A9831F29
:102DF800EF70E0EA2483F582EB3400F583E0601994
:102E080075081875090878081218C87C0C79031217
:102E18000AF5740212163D7E1074012EF5D975D983
:102E280003758218758308EEFFE0F5D9A31FEF70CC
:102E3800F875E1957904120C517901800279000244
:102E4800337974F61216B59061D0E0F87480C3989F
:102E5800FCEA2483F582EB3400F583E0600478040F
:102E680080027800E8240AF8ECC3985003022F3A4D
:102E78007508089008187401F07CE27D07781979C4
:102E8800087E058C828D83E088828983F08C828D10
:102E980083A3AC82AD8388828983A3A882A9831E79
:102EA800EE70E0EA2481FCEB3400FD8A828B83A378
:102EB800A3A3A3A3E0FEA3E0FF8C828D83E02EF002
:102EC800A3E03FF07E028C828D83E088828983F0C4
:102ED8008C828D83A3AC82AD8388828983A3A882E8
:102EE800A9831EEE70E0EA2483F582EB3400F583B3
:102EF800E0601A75081875090878081218C87C085F
:102F08007903120AF5740212163D75080C7401252E
:102F180008F5D975D903758218758308AE08E0F5E8
:102F2800D9A31EEE70F875E1957904120C51790158
:102F38008002790002337974F71216B5EAFEEBFFC6
:102F48009061D0E0600302303675D91875D90375E1
:102F5800D903EEF8EFF9E82408FAE93400FBE8248D
:102F68009CF582E93400F583E0F5D988828983A34A
:102F7800A882A983EA687002EB6970E2EEF8EFF9BB
:102F8800E82402FAE93400FBE824A4F582E93400D5
:102F9800F583E0F5D988828983A3A882A983EA68A2
:102FA8007002EB6970E2EE2494F582EF3400F58349
:102FB800E5822408F8E5833400F9E0F5D9A3E8654B
:102FC800827003E9658370F2EE2488F582EF34009D
:102FD800F583E5822404F8E5833400F9E0F5D9A304
:102FE800E865827003E9658370F275E1957908EE0A
:102FF8002494FAEF3400FB120AAD7904EE2488FA1F
:10300800EF3400FB120AAD7904120C51EE2470F56E
:1030180082EF3400F583E0F8A3E0F9EE2472F5823C
:10302800EF3400F583E8F0A3E9F079018002790034
:1030380002319774F61216B5EAFEEBFF9008187481
:1030480006F075081875090878081218C87C0179FF
:1030580003120AF5740212163D75D90675D903755F
:103068008218758308E0F5D9A3E582641D7004E52C
:1030780083640870F075E195900499E06408701E07
:10308800EE2470F582EF3400F583E0F8A3E0F9EE62
:103098002472F582EF3400F583E8F0A3E9F07901B2
:1030A80002337974F61216B5EAFEEBFF9061D0E0B0
:1030B800705E900818740AF0750818750908780881
:1030C8001218C87C017903120AF5740212163D75AC
:1030D800D90675D903758218758308E0F5D9A3E573
:1030E80082641D7004E583640870F075E195EE2430
:1030F80070F582EF3400F583E0F8A3E0F9EE24726E
:10310800F582EF3400F583E8F0A3E9F07901800255
:10311800790002337974F61216B5EAFEEBFF906176
:10312800D0E070667801900818740BF0900499E06C
:103138006407701975081875090878081218C87C8A
:10314800017903120AF5740212163D7805740128F4
:10315800F5D975D903758218758308E8FAE0F5D9A9
:10316800A31AEA70F875E195EE2470F582EF340041
:10317800F583E0F8A3E0F9EE2472F582EF3400F568
:1031880083E8F0A3E9F07901800279000233797FBE
:103198000102178774F61216B5EAFEEBFF9061D0AC
:1031A800E0F87480C398FAEE2483F582EF3400F5D2
:1031B80083E06004780480027800E8240BF8EAC30E
:1031C8009850030232727D099008187408F0EE24B2
:1031D800E5F8EF3400F97A197B087C08888289833E
:1031E800E08A828B83F088828983A3A882A9838A54
:1031F800828B83A3AA82AB831CEC70E0EE2483F558
:1032080082EF3400F583E0601D75081875090878A9
:10321800081218C87C097903EEFAEFFB120AF57454
:103228000212163D7D0D74012DF5D975D9037582ED
:10323800187583088D08E0F5D9A31508E50870F618
:1032480075E1957904120C51EE2470F582EF340083
:10325800F583E0F8A3E0F9EE2472F582EF3400F587
:1032680083E8F0A3E9F079018002790002337974E8
:10327800F61216B5EAFEEBFF9061D0E0F87480C351
:1032880098FAEE2483F582EF3400F583E060047841
:103298000480027800E82408F8EAC398500302334F
:1032A800777D06900818740CF09004B6E090081921
:1032B800F07AB77B04781A79087C028A828B83E0DB
:1032C80088828983F08A828B83A3AA82AB838882CF
:1032D8008983A3A882A9831CEC70E07AB97B047C5B
:1032E800028A828B83E088828983F08A828B83A317
:1032F800AA82AB8388828983A3A882A9831CEC70E5
:10330800E0EE2483F582EF3400F583E0601D750854
:103318001875090878081218C87C067903EEFAEFC0
:10332800FB120AF5740212163D7D0A74012DF5D9B7
:1033380075D9037582187583088D08E0F5D9A3152A
:1033480008E50870F675E1957904120C51EE2470C1
:10335800F582EF3400F583E0F8A3E0F9EE2472F586
:1033680082EF3400F583E8F0A3E9F079018002796F
:10337800007F0202178774F61216B5EAFEEBFF907B
:1033880061D0E0F87480C398FAEE2483F582EF34B4
:1033980000F583E06004780480027800E82404F8EB
:1033A800EAC39850030234587802900818E8F0EEFF
:1033B80024F7F582EF3400F583E0900819F0EE2445
:1033C80083F582EF3400F583E0601B7508187509F2
:1033D8000878081218C87C027903EEFA120AF57404
:1033E8000212163D7806740128F5D975D90375823D
:1033F800187583088808E0F5D9A31508E50870F65C
:1034080075E195EE2474F582EF3400F583E4F0EE6F
:103418002480F582EF3400F583E4F0EE241DF58274
:10342800EF3400F583E4F0A3F07904120C51EE2494
:103438000DF582EF3400F583E0F8A3E0F9EE24728D
:10344800F582EF3400F583E8F0A3E9F07901800212
:10345800790002337974F61216B59061D0E0F874E9
:1034680080C398FCEA2483F582EB3400F583E0609E
:1034780004780480027800E82404F8ECC398405BE0
:1034880079029008187407F0EA24F8F582EB340002
:10349800F583E0900819F0EA2483F582EB3400F50F
:1034A80083E0601875081875090878081218C87C30
:1034B8000209120AF5740212163D7906740129F5FB
:1034C800D975D903758218758308E9F8E0F5D9A389
:1034D80018E870F875E1957901800279000233796E
:1034E80074F51216B5E9FCA2AFE433F50AC2AF7D54
:1034F8000080010DEA246FF582EB3400F583E0F8D3
:10350800EDC398501A8D08EA2508F8EB3400F9E85D
:10351800246BF582E93400F583E06C70D68024EAE8
:10352800246FF8EB3400F9E0FEEA2EFAEB3400FBE6
:10353800EA246BF582EB3400F583ECF0888289830A
:10354800E004F0E50AA2E092AF7F0302178774F661
:103558001216B5A2AFE433FDC2AFEA246FF582EBD1
:103568003400F583E014F07C0060368C08EA250806
:10357800F8EB3400F9E8246CF582E93400F583E0CF
:10358800C0E0E8246BF582E93400F583D0E0F00C64
:10359800EA246FF582EB3400F583E0F8ECC3984039
:1035A800CAEA246EF582EB3400F58374FFF0EA244E
:1035B8006AF582EB3400F583E4F0EDA2E092AF0205
:1035C8003379C082C083E5A8F8C2AFEA246BF582DC
:1035D800EB3400F583E9F0EA246AF582EB3400F570
:1035E80083E4F0E8A2E792AF02277A74F31216B5E3
:1035F800EAFEEBFFECFAEDFB8A828B83A3A3A3A37D
:10360800E0541FF0EE2436F582EF3400F583E4F041
:10361800F50AEEFCEFFD8A828B83E0C0E0EC245DC6
:10362800F582ED3400F583D0E0F0750B00E50A3340
:10363800333354F8F50C8A828B83E0F5087509005A
:10364800E50B78081215F5E508A2E0502FEE2436B0
:10365800F8EF3400F988828983E0F508EE2508F54B
:1036680008EF3400F509E5082438F582E509340047
:10367800F583E50CF088828983E004F0050B050CDE
:10368800E50BC3940840AF050A8A828B83A3AA82FC
:10369800AB838C828D83A3AC82AD83E50AC394058A
:1036A800500302361E7F0502178774F71216B5906D
:1036B80004C5E0640370077A007B000231977B0041
:1036C80078C5790488828983A3A3A3A3A3A3E06010
:1036D800030239ACEBF875F006A4C8AAF02AF9740D
:1036E800C928F8740439F988828983A3A37401F07E
:1036F80088828983A3A3A3E4F0EB88828983A3A3A8
:10370800A3A3F0E82462F582E93400F5837401F09C
:10371800E82465F582E93400F583E4F0A3F0E824B1
:1037280068F582E93400F5837401F088828983A3FF
:10373800A3A3A3A3E4F0A3F088828983A3A3A3A3EC
:10374800A3A3A3F0A3F0E8240FF582E93400F583DE
:103758007401F0E82435F582E93400F583E4F0904B
:10376800835F1214FDE82418F582E93400F583120A
:103778001509E8241CF582E93400F583E4F0E8240F
:103788001DF582E93400F583E4F0A3F0E82480F520
:1037980082E93400F583E4F0E82474F582E9340022
:1037A800F583E4F0E82469F582E93400F583748050
:1037B800F0E8246AF582E93400F583E4F0E8246F40
:1037C800F582E93400F583E4F0E82467F582E9340A
:1037D80000F583E4F0E824EDF582E93400F583E4AC
:1037E800F0E824EEF582E93400F583E4F0E824EF0C
:1037F800F582E93400F583E4F0E824F0F582E93451
:1038080000F583E4F0E824F1F582E93400F583E477
:10381800F0A3F0E824F3F582E93400F583E4F0A39B
:10382800F0E824F6F582E93400F583E4F0E824832F
:10383800F582E93400F583E4F0E824D3F582E9342D
:1038480000F583E4F0E824D4F582E93400F583E454
:10385800F090835F1214FDE824D5F582E93400F571
:103868008312150990835F1214FDE824D9F582E9C3
:103878003400F583121509E824DFF582E93400F5F0
:1038880083E4F0E824E1F582E93400F583E4F0E824
:1038980024DDF582E93400F583E4F0E824E2F582DA
:1038A800E93400F583E4F0E824E3F582E93400F52F
:1038B80083E4F0E824F9F582E93400F583E4F0A321
:1038C800F0E824FBF582E93400F583E4F0A3F0E89E
:1038D80024FDF582E93400F583E4F0A3F0E824FF41
:1038E800F582E93400F583E4F0A3F0E8FAE9FBEAAD
:1038F8002404FCEB3400FDEA246BF582EB3400F57C
:103908008374FFF08A828B83A3AA82AB83EC6A70EC
:1039180002ED6B70E2E8FAE9FB7CE27D078C828DB0
:1039280083E0C0E0EA245DF582EB3400F583D0E063
:10393800F08C828D83A3AC82AD838A828B83A3AA09
:1039480082AB83EC64E77003ED640770D0E8FAE9B2
:10395800FB7CAC7D048C828D83A3E0C0E0EA24E587
:10396800F582EB3400F583D0E0F08C828D83A3AC34
:1039780082AD838A828B83A3AA82AB83EC64B47002
:1039880003ED640470CF9004C5E004F06401700D89
:1039980088828983A3A3A3A3E09004C7F0E8FAE987
:1039A800FB0236C30BE82406F8E93401F9EBC394AB
:1039B8000340030236BF0236CCC082C0838A828BA2
:1039C80083A3A3A3E0600F8A828B83A3A3A3E4F05D
:1039D8009004C6E014F09004C5E014F0700690045A
:1039E800C774FFF08A828B83A3A3E4F09007E7E013
:1039F800700D9004C6E0640170057900120C1B027A
:103A0800277AC082C08378C5790488828983A3A372
:103A1800A3A3A3A3A3E4F088828983A3A3A3A3A356
:103A2800A3F0E82406F8E93401F9E864D77003E95B
:103A3800640770D69004C5E4F0A3F0A374FFF07592
:103A4800E1F102277A74F31216B5750800750900BA
:103A5800750C00750AC9750B04AE0AAF0B8E828F00
:103A680083A3A3A3E0603FE5084509700AEEF8EFD9
:103A7800F988088909802F850882850983E0F8A3D9
:103A8800E0F5838882A3A31218DB8E828F83E0F887
:103A9800A3E0F5838882A3A31214FD1221C4740441
:103AA80012163DE960C7050CEE2406F50AEF34014D
:103AB800F50BE50CC3940340A0850882850983A310
:103AC800A3A3A3E0F90236AD74F61216B578FF7910
:103AD800FF7508007EC97F04EEFCEFFD8C828D83A4
:103AE800A3A3A3E0606474FF68700374FF69702582
:103AF800EC2474F582ED3400F583E064017011EC78
:103B0800247AF582ED3400F583E0F8A3E0F9803AF1
:103B1800EC242E80EDEC2474F582ED3400F583E07E
:103B280064017014EC247AF582ED3400F583C3E067
:103B380098A3E099501480C7EC242EF582ED340048
:103B4800F583C3E098A3E09940C60508EE2406FE75
:103B5800EF3401FFE508C394035003023AE0C3EAD7
:103B680098EB994004E8FAE9FB02337974F61216E7
:103B7800B5EAFEEBFF8E828F83A3A3A3E0600F8ECE
:103B8800828F83A3A3A3E4F09004C6E014F090040A
:103B9800C5E014F070069004C774FFF08E828F831E
:103BA800A3A3E4F09007E7E0700D9004C6E0640179
:103BB80070057900120C1BEE2465F582EF3400F5D0
:103BC80083E0F8A3E0F9E8496029EE2465F8EF34CA
:103BD80000F9880889098882F583E0FCA3E0FD9054
:103BE80004C7E0FA7B001207D1850882850983E4BF
:103BF800F0A3F0EEFAEFFB120B7302337974F712AD
:103C080016B5EAFEEBFF8E828F83A3A3A3A3E0FA87
:103C18007B00120819EEFAEFFB120A6B120B550221
:103C28003197C082C0837C007AC97B04EAF8EBF93B
:103C380088828983A3A3A3E0601EE8246FF582E944
:103C48003400F583E06011E8246BF582E93400F56F
:103C580083E07004790180110CEA2406FAEB340140
:103C6800FBECC3940340C5790002277AC082C08365
:103C780078AC790488828983A3E4F088828983A355
:103C8800A882A983E864B47003E9640470E6900428
:103C9800AD740102273BC082C08374FC12162790C2
:103CA800835F1214FD851882851983121509120A7B
:103CB800B3E9851882851983F0120AB374011216C4
:103CC80091E9F0120AB37402121691E9F08518828C
:103CD8008519831214FD740402252A74F61216B588
:103CE800EAFEEBFFEC2403F8ED3400F988088909B3
:103CF800EC2407F8ED3400F9E8FCE9FD8C828D83AB
:103D0800E0F8A3E0F9850882850983E0FAA3E0FBDF
:103D180012159CEE240DF582EF3400F583E8F0A32C
:103D2800E9F08C828D83E0F8A3E0F98508828509A3
:103D380083E0FAA3E0FB12159C8B09EA450960139E
:103D4800EE240DF582EF3400F583E02401F0A3E0C2
:103D58003400F002337974F61216B5EAFEEBFFEE82
:103D6800242EF582EF3400F583E0FCA3E0FD780013
:103D780079FAECFAEDFB12159CEE2470F582EF341B
:103D880000F583E8F0A3E9F0780079FAECFAEDFBA6
:103D980012159C8B09EA45096013EE2470F582EF31
:103DA8003400F583E02401F0A3E03400F002337915
:103DB80074F01216B5EAFEEBFF741012169178082B
:103DC8001214DF120BE58A0C8B0D8C0E8D0F90836D
:103DD8003F780C121445908307780C1214A6780CBF
:103DE8001218C48E828F83E0F8A3E0F5838882A33B
:103DF800A31214FD1221C4740412163DE9600302D3
:103E08003F058E828F83E02402F8A3E03400F9E8AE
:103E1800FAE9FB8A828B8378081214589083077812
:103E2800081214DF8A828B8378081214B9EE240BE7
:103E3800F582EF3400F583C082C0838E828F83A31E
:103E4800A3A3A3A3E02401F8A3E03400F9D083D00E
:103E580082E0687003A3E06970057901023F078E6C
:103E6800828F83A3A3A3A3A3A3A3E02401F0A3E0C9
:103E78003400F0EE2474F582EF3400F583E0640139
:103E88007036EE2475F582EF3400F583E0F8A3E090
:103E9800F98E828F83A3A3A3A3A3A3A3E0687003CF
:103EA800A3E0697013EE2475F582EF3400F583E022
:103EB8002401F0A3E03400F0EE2480F582EF340012
:103EC800F583E064017036EE2481F582EF3400F565
:103ED80083E0F8A3E0F98E828F83A3A3A3A3A3A30F
:103EE800A3E0687003A3E0697013EE2481F582EF04
:103EF8003400F583E02401F0A3E03400F079007F7A
:103F08000802178774F71216B59004C7E0F875F021
:103F180006A4C8AAF02AF974C928FE740439FF80D7
:103F280028EE2465F8EF3400F988828983E0FCA341
:103F3800E0FD88828983E4F0A3F08E828F83A3A3B7
:103F4800A3A3E0FA7B001207D1EE2465F582EF34D3
:103F580000F583E0F8A3E0F9E849604FEE2464F542
:103F680082EF3400F583E0F50878081218CCEE24C7
:103F780063F582EF3400F583E0F9EE2465F582EF0E
:103F88003400F583E0FCA3E0FDEEFAEFFB120AA192
:103F9800740112163DE96089EE2465F582EF34005C
:103FA800F583E0F8A3E0F9E84970137C007D008E02
:103FB800828F83A3A3A3A3E0FA7B001207D1023167
:103FC8009774F21216B5EAFEEBFF890A740E121600
:103FD80091E0FAEE2462F582EF3400F583E06401A3
:103FE80060030240959061D0E0F87480C398F50CA6
:103FF800EE2483F582EF3400F583E06004780480D2
:104008000278008908E928F8E43400F9E82402086D
:1040180008E93400F9E50C98E499A2D265D0334058
:1040280068EA7005750B028003750B01E06039754D
:10403800090078081218C87A187B08120AD774027F
:1040480012163D75081875090878081218C8AC0AC0
:10405800A90BEEFAEFFB120AF5740212163D74046E
:10406800250AF50A7C187D087401250AF5D9850BFF
:10407800D9E50A600D8C828D83F8E0F5D9A318E89C
:1040880070F875E195790080067907800279FF7FDD
:1040980006021787C082C083E960208C828D83E086
:1040A8008A828B83F08C828D83A3AC82AD838A82D3
:1040B8008B83A3AA82AB8319E970E0ECFAEDFB02CB
:1040C800277AC082C0837869790888828983A3A304
:1040D800A3A3A3A3E4F088828983A3A3A3A3A374BF
:1040E800FFF0E82418F8E93400F9E864C97003E936
:1040F800640870D690086B74FFF090086AE4F0903A
:104108000869F090086CF0A3F00257F274EC1216EC
:10411800B590086CE0F508A3E0F509E508450970D5
:10412800061209B7024DC1850882850983E014602B
:104138001814601524FE601124C4700302488324F7
:10414800C07003024883024DC1E0F9120B678A0A66
:104158008B0BAE0AAF0B9004C6E070030245011248
:104168000A5FE9F875F006A4C8AAF02AF974C92804
:10417800F50C740439F50D850C82F583E0F50AA376
:10418800E0F50BAC0AFDEEFAEFFB120B61E9F50E58
:104198007402650E70030244C08E828F83E024FE91
:1041A800600A24FE70030243B8024DC1EE65087030
:1041B80003EF650960211209D59007F9E0640170E1
:1041C800169007F8E070107901120C87120C57123C
:1041D8000C817900120C8DE50E6021E5082415F597
:1041E80082E5093400F583E060129007F4E0F8A353
:1041F800E0F9A3E0687003A3E0697026120BE58A72
:104208000C8B0D8C0E8D0F908347780C12144590F3
:104218008307780C1214A68E828F83A3A3780C12BE
:1042280014EEE5082415F582E5093400F583E06409
:104238000160030242DE850A82850B83A3A3780C02
:104248001214DF908343780C121445780C1218C4AA
:104258008E828F83A3A3C082C0839007F6E0F508FF
:10426800A3E085080CF50DE4F50EF50FD083D08298
:10427800780C121445AA0CAB0DAC0EAD0F1221C46C
:10428800740412163DE9703C8E828F83A3A3C0820A
:10429800C0839007F6E0F508A3E0F509E4F50AF510
:1042A8000BD083D0827808121445908307780812BF
:1042B80014A6EE240EF582EF3400F5837808121464
:1042C800EE0243B0850A82850B83A3A378081214F3
:1042D800DF90834380CFEE240EF582EF3400F58320
:1042E8001218DB8E828F83A3A31214FD1221C474CB
:1042F8000412163DE9640160030243B0850A828511
:104308000B83A3A3780C1214DF908343780C121448
:1043180045780C1218C48E828F83A3A3C082C083F1
:104328009007F6E0F508A3E085080CF50DE4F50E16
:10433800F50FD083D082780C121445AA0CAB0DACC3
:104348000EAD0F1221C4740412163DE9701F8E823F
:104358008F83A3A3C082C0839007F6E0F508A3E08B
:10436800F509E4F50AF50BD083D0828010850A821E
:10437800850B83A3A378081214DF9083437808126F
:10438800144590830778081214A6EE240EF582EFE0
:104398003400F58378081214EE9007FCE064277067
:1043A8000474258002E004F090086B7402024DB991
:1043B800EE65087003EF65096031900810E0F912A6
:1043C80009DB850882850983E06402701E9007F97D
:1043D800E0640170169007F8E070107900120C87FD
:1043E800120C57120C817901120C8DE50E60129097
:1043F800080AE0F8A3E0F9A3E0687003A3E0697095
:1044080026120BE58A0C8B0D8C0E8D0F9083477846
:104418000C121445908307780C1214A68E828F8391
:10442800A3A3780C1214EE850A82850B83A3A378C4
:104438000C1214DF908343780C121445780C121870
:10444800C48E828F83A3A3C082C08390080CE0F53A
:1044580008A3E085080CF50DE4F50EF50FD083D020
:1044680082780C121445AA0CAB0DAC0EAD0F1221BC
:10447800C4740412163DE9701F8E828F83A3A3C0F3
:1044880082C08390080CE0F508A3E0F509E4F50A7A
:10449800F50BD083D0828010850A82850B83A3A375
:1044A80078081214DF908343780812144590830724
:1044B80078081214A6024DA2850882850983E06453
:1044C8000270139007F9E06401700B9007F8E07030
:1044D800057900120C87E50C2404FEE50D3400FF75
:1044E8008E828F83E0F9120B9D8E828F83E0900479
:1044F800C7F0AA0AAB0B024DBEEE65087003EF6564
:10450800098E828F8360030246E5E024FE600A2458
:10451800FE7003024640024DBAEE2415F582EF34D0
:1045280000F583E060419007F4E0F8A3E0F9A3E028
:10453800687003A3E069602F120BE58A088B098C69
:104548000A8D0B90835B780812144578081218C4FA
:104558008E828F83A3A31214FD1221C47404121631
:104568003DE96003024DBA120BE58A088B098C0AF3
:104578008D0B9083477808121445908307780812AA
:1045880014A68E828F83A3A378081214EEEE241546
:10459800F582EF3400F583E0640170348E828F83F6
:1045A800A3A3C082C0839007F6E0F508A3E0F5094D
:1045B800E4F50AF50BD083D0827808121445EE246E
:1045C8000EF582EF3400F58378081214EE024DBA26
:1045D800EE240EF582EF3400F5831218DB8E828FFD
:1045E80083A3A31214FD1221C4740412163DE964B6
:1045F800016003024DBA8E828F83A3A3C082C08359
:104608009007F6E0F508A3E0F509E4F50AF50BD004
:1046180083D0827808121445EE240EF582EF340018
:10462800F58378081214EE9007FCE064277005748F
:1046380025024DB9E00480F990080AE0F8A3E0F9F2
:10464800A3E0687003A3E069602C120BE58A088B6D
:10465800098C0A8D0B90835B780812144578081230
:1046680018C48E828F83A3A31214FD1221C474046C
:1046780012163DE97064EE2402F508EF3400F509DE
:10468800120BE58A0C8B0D8C0E8D0F908347780CDE
:10469800121445908307780C1214A68508828509A0
:1046A80083780C1214EE850882850983C082C08342
:1046B80090080CE0F508A3E0F509E4F50AF50BD03D
:1046C80083D0827808121445EE240EF582EF340068
:1046D800F58378081214EE1209E1024DBAE024FEBF
:1046E800600A24FE70030247AB024DC11209D5903F
:1046F80007F9E0640170169007F8E070107901126C
:104708000C87120C57120C817900120C8D9007F44B
:10471800E0F8A3E0F9A3E0687003A3E069602F1252
:104728000BE58A088B098C0A8D0B90835B7808123D
:10473800144578081218C48E828F83A3A31214FD1F
:104748001221C4740412163DE960030243B0EE243A
:1047580002F508EF3400F509120BE58A0C8B0D8C75
:104768000E8D0F908347780C121445908307780CB0
:104778001214A6850882850983780C1214EE850820
:1047880082850983C082C0839007F6E0F508A3E01C
:10479800F509E4F50AF50BD083D0827808121445A0
:1047A8000242BA900810E0F91209DB8508828509EF
:1047B80083E06402701E9007F9E0640170169007A8
:1047C800F8E070107900120C87120C57120C8179DE
:1047D80001120C8D90080AE0F8A3E0F9A3E06870D4
:1047E80003A3E069602C120BE58A088B098C0A8DFB
:1047F8000B90835B780812144578081218C48E82CF
:104808008F83A3A31214FD1221C4740412163DE968
:104818007066EE2402F8EF3400F988088909120B53
:10482800E58A0C8B0D8C0E8D0F908347780C121433
:1048380045908307780C1214A68508828509837829
:104848000C1214EE850882850983C082C083900803
:104858000CE0F508A3E0F509E4F50AF50BD083D0E0
:10486800827808121445EE240EF582EF3400F583A1
:1048780078081214EE1209E1024DB49004C6E070F3
:1048880003024C19120A5FE9F875F006A4C8AAF0E9
:104898002AF974C928F510740439F511851082F5C0
:1048A80083E0F508A3E0F5099004C7E0F875F00681
:1048B800A4C8AAF02AF974C928F50C740439F50DAE
:1048C80090086AE054077003024B42A3E0F9120B08
:1048D800678A0A8B0BAE0AAF0BAC08AD09120B61E5
:1048E800E9F50E7402650E7003024B42850C828551
:1048F8000D83A3A3A3A3E0F875F08AA4C8AAF02A9D
:10490800F974CE28F50A740839F50BAA0AFB120BBC
:1049180091AA0AAB0B120B8B7512807513007812D3
:104928001218C87C007D60E50A2406FAE50B3401FC
:10493800FB120AD7740212163DA80AA90B906195BA
:10494800E0C0E0E82486F582E93401F583D0E0F0A0
:10495800906196E0C0E0E82487F582E93401F583A8
:10496800D0E0F0906197E0C0E0E82488F582E9346F
:1049780001F583D0E0F0906198E0C0E0E82489F583
:1049880082E93401F583D0E0F08E828F83E024FE43
:10499800600A24FE7003024A7D024B421209D59038
:1049A80007F9E0640170119007F8E0700B120C57DA
:1049B800120C817900120C8DE50E60129007F4E05C
:1049C800F8A3E0F9A3E0687003A3E0697026120B6E
:1049D800E58A0C8B0D8C0E8D0F908347780C121482
:1049E80045908307780C1214A68E828F83A3A37830
:1049F8000C1214EE850882850983A3A3780C12147F
:104A0800DF908343780C121445780C1218C48E82F8
:104A18008F83A3A3C082C0839007F6E0F50CA3E0C0
:104A2800F50DE4F50EF50FD083D082780C121445FD
:104A3800AA0CAB0DAC0EAD0F1221C4740412163DB6
:104A4800E9701F8E828F83A3A3C082C0839007F66C
:104A5800E0F508A3E0F509E4F50AF50BD083D08268
:104A68008010850882850983A3A378081214DF9033
:104A780083430242AD900810E0F91209DBE50E60AD
:104A88001290080AE0F8A3E0F9A3E0687003A3E035
:104A9800697026120BE58A0C8B0D8C0E8D0F908396
:104AA80047780C121445908307780C1214A68E824E
:104AB8008F83A3A3780C1214EE850882850983A33B
:104AC800A3780C1214DF908343780C121445780CE9
:104AD8001218C48E828F83A3A3C082C08390080C4F
:104AE800E0F50CA3E0F50DE4F50EF50FD083D082C8
:104AF800780C121445AA0CAB0DAC0EAD0F1221C4E4
:104B0800740412163DE9701F8E828F83A3A3C0829E
:104B1800C08390080CE0F508A3E0F509E4F50AF570
:104B28000BD083D0828010850882850983A3A3785F
:104B3800081214DF9083430244B0E510650C70043A
:104B4800E511650D7003024C12850C82850D83A357
:104B5800A3A3E07003024BF6850C82850D83A3A303
:104B6800A3A3E0F875F08AA4C8AAF02AF974CE289D
:104B7800FE740839FFEEFAEFFB120B91EEFAEFFB29
:104B8800120B8B750A80750B00780A1218C87C0006
:104B98007D60EE2406FAEF3401FB120AD774021284
:104BA800163D906195E0C0E0EE2486F582EF340171
:104BB800F583D0E0F0906196E0C0E0EE2487F582BE
:104BC800EF3401F583D0E0F0906197E0C0E0EE2487
:104BD80088F582EF3401F583D0E0F0906198E0C069
:104BE800E0EE2489F582EF3401F583D0E0F0E5109A
:104BF8002404FEE5113400FF8E828F83E0F9120B46
:104C08009D8E828F83E09004C7F0AA08AB09024DFD
:104C1800BE90086AE054077003024DC1A3E0F91280
:104C28000B678A088B09AE08AF098E828F83E02450
:104C3800FE600A24FE7003024D08024DC11209D518
:104C48009007F9E0640170169007F8E07010790198
:104C5800120C87120C57120C817900120C8D9007D8
:104C6800F4E0F8A3E0F9A3E0687003A3E069602C1E
:104C7800120BE58A088B098C0A8D0B90835B7808E8
:104C880012144578081218C48E828F83A3A31214B5
:104C9800FD1221C4740412163DE97061EE2402F578
:104CA80008EF3400F509120BE58A0C8B0D8C0E8D7C
:104CB8000F908347780C121445908307780C1214D0
:104CC800A6850882850983780C1214EE85088285EA
:104CD8000983C082C0839007F6E0F508A3E0F509D0
:104CE800E4F50AF50BD083D0827808121445EE2437
:104CF8000EF582EF3400F58378081214EE0243B003
:104D0800900810E0F91209DB90080AE0F8A3E0F92E
:104D1800A3E0687003A3E069602C120BE58A088B96
:104D2800098C0A8D0B90835B780812144578081259
:104D380018C48E828F83A3A31214FD1221C4740495
:104D480012163DE97063EE2402F8EF3400F9880882
:104D58008909120BE58A0C8B0D8C0E8D0F908347F9
:104D6800780C121445908307780C1214A6850882D3
:104D7800850983780C1214EE850882850983C08220
:104D8800C08390080CE0F508A3E0F509E4F50AF5FE
:104D98000BD083D0827808121445EE240EF582EFEA
:104DA8003400F58378081214EE1209E190086B7448
:104DB80004F0EEFAEFFB120B5B7F0C02178774F01E
:104DC8001216B5EAFEEBFFEE2402F8EF3400F9887C
:104DD800088909EE2406F8EF3400F9880A890B8857
:104DE80082F5831218DF8508828509831214FD1263
:104DF8000BC1740212163D850A82850B831218DFD7
:104E08008508828509831214FD120BB574021216E7
:104E18003DEE240EF582EF3400F5831214FD120BDB
:104E2800C78E828F83E06440701CEE2412F8EF3442
:104E380000F988828983E0906064F088828983A37E
:104E4800E09060658006906064E4F0A3F090086CE0
:104E5800EEF0A3EFF0EE2416F582EF3400F583E0D0
:104E6800F8A3E0F58388821216B3906054E4F0A3A7
:104E7800F0A3F0A3F0A3F0A3F0A3F0A3F0A3F0A392
:104E8800F0A3F0A3F0906182E0C2E6F07591BFEE66
:104E98002415F582EF3400F583E064017003120BEA
:104EA800FDE5E170FCEE2414F582EF3400F583E0B3
:104EB800F46003E0F5E1EE2415F582EF3400F583A4
:104EC8007401F090049FE06401706F120BE58A088A
:104ED8008B098C0A8D0B78081218C48E828F83A3D5
:104EE800A31214FD122221740412163D8A088B099C
:104EF8008C0A8D0B90833B780C1214DF7808790CA0
:104F080012130B740378081213FAE50824F4F50851
:104F1800E5093401F509900816E06003121167E409
:104F2800F50AF50B78081218C47A207B00900498CB
:104F3800E0F9121215740412163D7F0802178774DF
:104F4800EC1216B5EAFEEBFF8C088D09EE4F7005E2
:104F5800790202503C120BE58A0C8B0D8C0E8D0FDA
:104F68009082CF780C121445908307780C1214A6FF
:104F78008E828F83E06402701F9007F4E0F8A3E04C
:104F8800F9A3E0687003A3E06970248E828F83A37D
:104F9800A3780C1214EE8017E06404701290080ACB
:104FA800E0F8A3E0F9A3E0687003A3E06960DC78A7
:104FB8000C1218C4850882850983A3A31214FD1254
:104FC8002221740412163D8A108B118C128D1390B5
:104FD80082D778101212EC4003024F588508828558
:104FE8000983A3A378081214DF9083377808121472
:104FF8004578081218C48E828F83A3A31214FD1259
:1050080021C4740412163DE96003024F589082C708
:10501800780C121445780C1218C48E828F83A3A3BF
:105028001214FD1221C4740412163DE970047900AB
:1050380080027901024DC174F01216B5890874FF17
:10504800650860030251CB90086AE05407700302B8
:1050580056977A007869790888828983A3A3A3A3DD
:10506800A3E064047050EA75F018A4F8A9F0746F0E
:1050780028F582740839F583E0640170487A00786D
:1050880069790888828983A3A3A3A3A3E064046041
:105098000302512388828983A3A3A3A3A3A3E06463
:1050A800017078EA75F018A4F8A9F0746E28FA74FB
:1050B8000839FB02569B0AE82418F8E93400F9EA93
:1050C800C3940440937A007869790888828983A315
:1050D800A3A3A3A3E064017057EA75F018A4F8A984
:1050E800F0746F28F582740839F583E06401704F15
:1050F8007A007869790888828983A3A3A3A3A3E0A7
:10510800640160030251A788828983A3A3A3A3A390
:10511800A3E0640160030251A780880AE82418F814
:10512800E93400F9EAC39404500302508B025697FD
:105138000AE82418F8E93400F9EAC39404408C7AA0
:10514800007869790888828983A3A3A3A3A3E0646C
:10515800027061EA75F018A4F8A9F0746F28F58256
:10516800740839F583E0640170597A007869790820
:1051780088828983A3A3A3A3A3E06402707A8882A8
:105188008983A3A3A3A3A3A3E06401706BEA75F0CA
:1051980018A4F8A9F0746E28FA740839FB806F0A0D
:1051A800E82418F8E93400F9EAC3940450030250DB
:1051B800FE0256970AE82418F8E93400F9EAC3947D
:1051C8000440827A007869790888828983A3A3A336
:1051D800A3A3E06508703D88828983A3A3A3A3A342
:1051E800A3E06401702EEA75F018A4F8A9F0746EB3
:1051F80028FE740839FF802F0AE82418F8E93400DB
:10520800F9EAC3940450030251787A007B000256ED
:105218009B0256970AE82418F8E93400F9EAC3947F
:105228000440A67E007F007A007869790888828920
:1052380083A3A3A3A3A3E06508701BEA75F018A4D1
:10524800F8A9F0746F28F582740839F583E06401D1
:1052580070137A0180110AE82418F8E93400F9EA91
:10526800C3940440C87A00E50814600F1470030260
:10527800543424FE700302558E80967B0078697939
:105288000888828983A3A3A3A3A3E064027055EBD3
:1052980075F018A4F8A9F0746F28F582740839F528
:1052A80083E06401704D7B0078697908888289837E
:1052B800A3A3A3A3A3E06402600302536A888289BC
:1052C80083A3A3A3A3A3A3E06401600302536AEB2F
:1052D80075F018A4F8A9F0746E28F50A740839F561
:1052E8000B0253820BE82418F8E93400F9EBC39455
:1052F80004408E7B007869790888828983A3A3A3F8
:10530800A3A3E0640460030253BEEB75F018A4F88D
:10531800A9F0746F28F582740839F583E064016098
:10532800030253D07B007869790888828983A3A314
:10533800A3A3A3E0640460030253DB88828983A3E8
:10534800A3A3A3A3A3E0640160030253DBEB75F0FE
:1053580018A4F8A9F0746E28F50A740839F50B0238
:1053680053F30BE82418F8E93400F9EBC39404501C
:10537800030252B4750A00750B00EAA2E04003026A
:105388005426850A82850B83A3A3780C1214DF9018
:1053980082BB780C121445780C1218C48E828F8345
:1053A800A3A31214FD1221C4740412163DE9706EF1
:1053B800EEFAEF0250BA0BE82418F8E93400F9EBDA
:1053C800C394045003025301EAA2E05058EEFAEFE6
:1053D800FB80560BE82418F8E93400F9EBC3940471
:1053E8005003025332750A00750B00EAA2E0502EF2
:1053F800850A82850B83A3A3780C1214DF9082BBE5
:10540800780C121445780C1218C48E828F83A3A3CB
:105418001214FD1221C4740412163DE96092AA0AFE
:10542800AB0B02569B7A007B0002569B7B00786987
:10543800790888828983A3A3A3A3A3E06404705294
:10544800EB75F018A4F8A9F0746F28F58274083980
:10545800F583E06401704A7B00786979088882895D
:1054680083A3A3A3A3A3E064046003025502888274
:105478008983A3A3A3A3A3A3E06401707DEB75F0C4
:1054880018A4F8A9F0746E28F50A740839F50B0207
:10549800551A0BE82418F8E93400F9EBC3940440D2
:1054A800917B007869790888828983A3A3A3A3A341
:1054B800E064016003025556EB75F018A4F8A9F0F2
:1054C800746F28F582740839F583E064016003027B
:1054D80055687B007869790888828983A3A3A3A388
:1054E800A3E06401600302557388828983A3A3A3A0
:1054F800A3A3A3E06401707380830BE82418F8E980
:105508003400F9EBC394045003025465750A00751E
:105518000B00EAA2E04003025426850A82850B8329
:10552800A3A3780C1214DF9082BB780C1214457870
:105538000C1218C48E828F83A3A31214FD1221C4E7
:10554800740412163DE960030254260253B80BE8AE
:105558002418F8E93400F9EBC3940450030254AF5B
:10556800EAA2E0501AEEFAEFFB80180BE82418F8CC
:10557800E93400F9EBC3940450030254E0808D7AB7
:10558800007B0002569B7B007869790888828983B2
:10559800A3A3A3A3A3E064017040EB75F018A4F8DB
:1055A800A9F0746F28F582740839F583E0640170F6
:1055B800387B007869790888828983A3A3A3A3A389
:1055C800E06401600302565388828983A3A3A3A3DE
:1055D800A3A3E0640170740254850BE82418F8E969
:1055E8003400F9EBC3940440A37B007869790888F8
:1055F800828983A3A3A3A3A3E064027063EB75F07D
:1056080018A4F8A9F0746F28F582740839F583E0B6
:105618006401705B7B007869790888828983A3A319
:10562800A3A3A3E06402704F88828983A3A3A3A3E2
:10563800A3A3E064017040EB75F018A4F8A9F07416
:105648006E28F50A740839F50B80410BE82418F820
:10565800E93400F9EBC3940450030255BF02551412
:105668000BE82418F8E93400F9EBC394044080EA05
:10567800A2E0501B0253B80BE82418F8E93400F9EB
:10568800EBC394044094750A00750B0002551A7A0E
:10569800007B00024F4274F61216B589097508009E
:1056A8007869790888828983A3A3A3A3A3A3E06068
:1056B8000302577AE50875F018A4F8A9F0746E2863
:1056C800FE740839FF8E828F83A37401F08E828F57
:1056D80083E509F0120BE58E828F83A3A3121509C7
:1056E8008E828F83A3A3A3A3A3A3E4F0A3F0908344
:1056F8000F1214FDEE240EF582EF3400F583121517
:1057080009EE2414F582EF3400F5837401F0EE24D9
:1057180015F582EF3400F5837401F0EE2416F58256
:10572800EF3400F583E4F0A3F090086AE04509F04F
:10573800900869E004F06401600C748065096006F3
:10574800744065097019E50875F018A4F8A9F07493
:105758006E28F8740839F990086CE8F0A3E9F0E5C8
:105768000875F018A4F8A9F0746E28FA740839FBC3
:1057780080180508E82418F8E93400F9E508C39406
:105788000450030256AC7A007B0080007F020217A7
:1057980087C082C0838A828B83E0F8A3E0F98A827B
:1057A8008B83E4F0A3F088828983A3F088828983BD
:1057B800E0F4F890086AE058F0900869E014F07096
:1057C8000B90086CE4F0A3F0900499F0801CC08260
:1057D800C083900869E0600A90086CE0FAA3E0FBD7
:1057E80080047A007B008002E0F9D083D082020135
:1057F80032C082C083E9FB7A007869790888828997
:1058080083A3A3A3A3A3E06B7016EA75F018A4F80A
:10581800A9F0746F28F582740839F583E0F98011CE
:105828000AE82418F8E93400F9EAC3940440CE7968
:105838000080B7C082C0839008690257F074F612DE
:1058480016B5EAFEEBFF9061D0E0C0E0EE2400F56B
:1058580082EF3401F583D0E0F09061D7E0FA9061EF
:10586800D5E0C39A547FC0E0EE2401F582EF3401FD
:10587800F583D0E0F0EE2402F8EF3401F99061D618
:10588800E0C39A547F88828983F0701A9061C5E0DA
:10589800A2E45012E0A2E7500DEE2402F582EF34A4
:1058A80001F5837480F0120CB1EE2401F582EF3417
:1058B80001F583E07034EE2402F582EF3401F583BC
:1058C800E070279061C5E0A2E4501FE0A2E7501AFB
:1058D800EE2402F582EF3401F5837480F0EE2401A2
:1058E800F582EF3401F5837480F075E1957800EE68
:1058F8002400F582EF3401F583E060279061D3E05E
:10590800C0E08808EE2508F582EF3400F583D0E082
:10591800F008EE2400F582EF3401F583E0F9E8C3DE
:105928009940D975E19102579474F61216B5EAFEBA
:10593800EBFF9061C8E0C0E0EE2403F582EF34018C
:10594800F583D0E0F09061CFE0FA9061CDE0C39AA2
:10595800547FC0E0EE2404F582EF3401F583D0E0F3
:10596800F0EE2405F8EF3401F99061CEE0C39A54C3
:105978007F88828983F0701A9061C5E0A2E0501296
:10598800E0A2E3500DEE2405F582EF3401F58374AF
:1059980080F0120CB7EE2404F582EF3401F583E0B1
:1059A8007034EE2405F582EF3401F583E07027901A
:1059B80061C5E0A2E0501FE0A2E3501AEE2405F50D
:1059C80082EF3401F5837480F0EE2404F582EF341D
:1059D80001F5837480F0120CBD7A00EE2403F58281
:1059E800EF3401F583E0602F9061CBE0C0E08A08D6
:1059F800EE2508F8EF3400F9E82480F582E9340050
:105A0800F583D0E0F00AEE2403F582EF3401F58344
:105A1800E0F8EAC39840D175E18102579474F41212
:105A280016B58908A808E875F08AA4C8AAF02AF962
:105A380074CE28FE740839FFEEFAEFFB120B91EED4
:105A4800FAEFFB120B8B750A80750B00780A121897
:105A5800C87C007D60EE2406FAEF3401FB120AD7F9
:105A6800740212163D906195E0C0E0EE2486F5823E
:105A7800EF3401F583D0E0F0906196E0C0E0EE24C9
:105A880087F582EF3401F583D0E0F0906197E0C0AC
:105A9800E0EE2488F582EF3401F583D0E0F09061E0
:105AA80098E0C0E0EE2489F582EF3401F583D0E078
:105AB800F07F0402178774F21216B58908A808E85F
:105AC80075F08AA4C8AAF02AF974CE28F87408399F
:105AD800F99061C6E0FDE054F0F075E1817C00E8E2
:105AE8002403F582E93401F583E0602B8C0AE8256C
:105AF8000AFAE93400FBEA2480F582EB3400F583E6
:105B0800E09061CAF00CE82403F582E93401F583DA
:105B1800E0FAECC39A40D5E82405F582E93401F5AA
:105B280083E060049061CEF0E82404F582E9340152
:105B3800F583E060049061CDF0ED9061C6F0A808AF
