:020000040000FA
:06000000020107021D1BB6
:03002B00021F8E23
:03005300021D8EFD
:03006B00021F4A27
:03007B00021F70F1
:10008300021BCFE5C754F84401F5C77901220000EC
:100093000080FB120086B900030200F1E4791A78AC
:1000A30002B800028004F709D8FCE4791C7802B88E
:1000B30000028004F709D8FCE490028178FD790DF1
:1000C3008002F0A3D8FCD9FA7A7D7B0F90013778B0
:1000D300DA79018015E493A3AD82AE838A828B83A0
:1000E300F0A3AA82AB838D828E83D8E9D9E7758288
:1000F300FA7583BA740312011975829175830074BA
:100103000012011975D00075813F751881751902A8
:10011300759F00020096C09FF59FE473D09F22D085
:1001230083D082C09FE493C0E0740193C0E0740263
:1001330093F59F2284039603C0038A03FF0000B450
:10014300000028002800283075A000A000A000A00F
:100153000000080008E001F000100010001000107B
:10016300001000100050005000500010001000D08C
:10017300070000000000000F0001000500307507B4
:10018300001000010081FF0000FF020202768301DC
:1001930000006783027083010000D30F026C8301A8
:1001A3000000B102027083010000D40F026A8301D0
:1001B3000000C702FFFF0100FF2002768301000059
:1001C3006483027083010000021002728300000046
:1001D3000000026E83030000A403E60AE60AE60AAF
:1001E300E60AE60AE60AE60AE60AE60AE60AE60A8C
:1001F300E60AE60AB40CD20CAE0C01E803053F1084
:1002030002FFFFFF00FEFF544A475104011201227F
:10021300EEB10312012204B20312012231B203121E
:10022300012261B20312012282B203120122B3B28C
:100233000312012204B3031201221BB3031201228E
:1002430026AD031201223DAD031201226CAD031250
:100253000122A5AD03120122CDAD03120122FBAD94
:100263000312012212AE0312012229AE031201224C
:100273003FAE0312012266AE0312012279AE0312CE
:1002830001228FAE03120122B7AE03120122359B66
:1002930002120122349C021201225E9C02120122EC
:1002A300B39C02120122D49C02120122ED9C021281
:1002B3000122EF9C02120122109D02120122139EC1
:1002C30002120122D09E021201229D9F02120122DC
:1002D30001A00212012298A0021201229BA0021285
:1002E300012221A10212012264A102120122B6A15C
:1002F30002120122EDA10212012273A202120122B3
:10030300FCA20212012245A30212012248A30212F7
:100313000122A6A302120122BEA30212012238A4C3
:10032300021201223BA4021201225EA40212012244
:1003330061A40212012208A5021201222BA50212B6
:10034300012243A50212012273A50212012280A5F4
:100353000212012283A502120122EFA50212012239
:10036300DDA60212012293A70212012235B2021264
:10037300012210B3021201223EB302120122BEB3C4
:1003830002120122DEB3021201221CB40212012264
:100393006FB402120122D7B40212012268B502120D
:1003A300012233B60212012242B902120122AEBA6D
:1003B30002120122D1BA021201223298031201223F
:1003C300C39903120122149A03120122739A03128E
:1003D3000122819A03120122AA9A031201229DF497
:1003E30002120122C5F402120122F3F402120122C5
:1003F3002AF50212012292F502120122DBF5021202
:10040300012226F60212012264F602120122A1F64B
:1004130002120122CFF60212012276F70212012202
:1004230080F7021201228DF702120122C0F7021295
:10043300012282F8021201228EF802120122A6F88A
:1004430002120122B0F8021201222EF90212012235
:1004530085B70312012293B703120122ABB703122C
:100463000122C3B703120122DBB703120122CAEB35
:100473000112012268EC01120122E0EC01120122B7
:10048300F5ED011201222FEE01120122D8EE011225
:100493000122ADEF0112012211F10112012268F1D3
:1004A30001120122EFF101120122D6F201120122FF
:1004B30023F301120122B1F301120122D5F3011238
:1004C3000122AAF501120122EBF5011201220DF618
:1004D30001120122D2F60112012298F70112012220
:1004E300CDF901120122C29003120122D890031206
:1004F3000122FE900312012226920312012230925E
:100503000312012289930312012289940312012207
:10051300008003120122A28003120122D58003125C
:1005230001221F8103120122D98203120122FFAC8F
:10053300011201227DAD011201228DAD01120122B2
:1005430070AE0112012293AE01120122F2AE01122A
:10055300012208B0011201220CB201120122C3B31D
:10056300011201223FB4011201221CB50112012222
:100573004AB801120122E8B80112012245BA011258
:100583000122B8BB0112012261BC01120122AABCE3
:1005930001120122E1BC0112012286BD01120122D6
:1005A30004BE011201224ACE011201229FCE011282
:1005B3000122E4CF01120122F4CF0112012217D04C
:1005C3000112012262D00112012207D1011201227C
:1005D300FDD101120122C7D2011201223FD401121F
:1005E300012281D4011201221FD50112012245D516
:1005F3000112012233D70112012238D7011201223D
:1006030019D9011201226DD901120122CFD9011288
:100613000122F7D9011201229BDA011201225DDBCB
:10062300011201228EDB0112012291DB0112012250
:10063300D9DB011201221BDC0112012282DC01122F
:1006430001221CA5031201222FA50312012238A5A2
:100653000312012251A5031201229CA503120122B8
:1006630077A60312012206A70312012251A7031240
:100673000122695900120122795900120122DC5921
:1006830000120122215A00120122D15A0012012222
:10069300AA5B00120122D35B00120122035C001249
:1006A3000122175E00120122F35F00120122D361BF
:1006B300001201220B630012012284650012012241
:1006C300706600120122B66700120122C36800128D
:1006D30001220569001201223D69001201225769B6
:1006E30000120122BF6900120122596E0012012279
:1006F300FA6E001201224E6F00120122756F001272
:100703000122B36F00120122D26F00120122267060
:10071300001201222E7100120122B7710012012270
:100723009CE902120122A6E90212012242EA021204
:1007330001220DEB021201222CEB0212012252EBD9
:100743000212012291EB02120122C9EB02120122D1
:10075300F2EB021201222CEC0212012241EC0212F2
:1007630001220EED0212012231ED0212012253ED9C
:100773000212012268ED02120122F2ED021201229D
:100783002CEE02120122A0EE02120122E9EE021265
:10079300012213EF0212012238EF02120122D68C3A
:1007A30003120122A08D03120122838E0312012260
:1007B300F98E031201223B8F031201226890031268
:1007C30001220080021201222980021201224280AA
:1007D3000212012287810212012265820212012282
:1007E3008482021201221183021201225483021213
:1007F30001228C8402120122F88402120122EE8665
:10080300021201227C89021201220F8A02120122A2
:10081300E38A02120122868B02120122998C0212B0
:1008230001222F8D021201227CB403120122E5B4AE
:100833000312012239B50312012268B50312012202
:100843007C8403120122E9840312012234850312FA
:1008530001222986031201222587031201220F8810
:10086300031201228CDC02120122D3DC02120122C8
:10087300ACDD02120122A7DE0212012286DF021280
:100883000122F2DF021201220EE10212012275E1BE
:100893000212012278E102120122A3E102120122D3
:1008A30014E202120122B7E202120122CCE2021286
:1008B300012214E3021201222DE30212012230E38A
:1008C30002120122C29B03120122FE9B0312012288
:1008D3003C9C03120122069D03120122799D0312FF
:1008E3000122B49D03120122F29D03120122229ED2
:1008F30003120122499E03120122B49E0312012214
:10090300F69E03120122838301120122A1850112A3
:1009130001225087011201220088011201224B8813
:1009230001120122968801120122A88801120122D4
:10093300E888011201221D8901120122698901122D
:100943000122988901120122BB8901120122428AE4
:10095300011201222E8B011201226C8C0112012241
:100963006E8D011201224A8F011201226E9401122F
:100973000122B49401120122F29401120122279759
:100983000112012277A90312012217AB03120122DC
:10099300B01F001201224720001201228D200012F5
:1009A3000122C321001201225A2300120122D22361
:1009B30000120122142400120122642400120122D5
:1009C300CF25001201223A28001201221629001213
:1009D300012235290012012254290012012257292C
:1009E30000120122DD2A00120122D22B0012012261
:1009F300CE2C001201223E2D00120122B02D001236
:100A030001222F2E001201220A2F0012012211307F
:100A130000120122F030001201227B310012012268
:100A2300E931001201225D320012012286320012E6
:100A330001224533001201225436001201229D3651
:100A430000120122E0360012012263370012012254
:100A5300073800120122983800120122BD38001213
:100A6300012207390012012231390012012276399D
:100A730000120122F139001201224B3A0012012225
:100A83009F3B001201225C3C001201222F3D001209
:100A930001221E72001201226E72001201227A726A
:100AA30000120122577300120122877300120122E0
:100AB300BF73001201223E740012012276740012E9
:100AC3000122C874001201220575001201222A773F
:100AD30000120122567900120122517B00120122D9
:100AE3002C7D00120122ECBB03120122DCF901125E
:100AF30001220EFE011201225EFF01120122B8BE85
:100B0300011201228AC50112012290C5011201229C
:100B130040C80112012260EF021201220CF00212FE
:100B23000122DAF00212012204F10212012252F32D
:100B3300021201225D3D00120122A73D0012012293
:100B4300594A00120122DA4B00120122D24C001240
:100B530001223153001201222C5400120122695444
:100B6300001201228C5400120122CE5400120122E1
:100B7300D85400120122C45500120122B8560012A3
:100B830001225157001201223E9F031201223CA071
:100B93000312012292A003120122D0A00312012208
:100BA3002DA103120122AAA103120122B3A1031250
:100BB3000122BFA103120122D2A1031201220EA21C
:100BC3000312012224A20312012254E3021201227E
:100BD30061E3021201227BE302120122BAE3021251
:100BE3000122F8E3021201225DE40212012272E4FF
:100BF3000212012289E40212012297E40212012265
:100C0300A6E402120122BBE402120122D0E4021282
:100C13000122DBE402120122E7E402120122F4E4DE
:100C23000212012203E5021201220EE50212012241
:100C330033E502120122DCE502120122F1E5021280
:100C4300012206E60212012220E6021201223BE6FD
:100C53000212012258E60212012263E60212012265
:100C63001FE7021201220BE80212012230E80212EE
:100C730001223AE8021201224EE8021201226DE833
:100C830002120122CEE802120122D4E8021201224A
:100C9300DAE802120122E0E802120122ECE8021271
:100CA30001221FE902120122FEA7021201222AA831
:100CB300021201220EA902120122A8AB0212012282
:100CC300BEAC02120122DBAD021201227EAE021281
:100CD300012224AF02120122AB8D021201222D8EBA
:100CE30002120122D68E021201221E90021201224A
:100CF3002C92021201221293021201224793021232
:100D03000122699302120122129402120122E29536
:100D1300021201220B960212012283960212012271
:100D2300B59602120122C296021201220D970212F7
:100D330001223197021201228299021201228C9A16
:100D430002120122E89A021201224CDD0112012251
:100D53005DDE0112012241DF011201224BDF01128C
:100D630001226DDF0112012279DF011201221DE14F
:100D7300011201224AE10112012260E20112012261
:100D8300B5E20112012204E401120122D9E40112A5
:100D9300012235E501120122A0E501120122D5E568
:100DA3000112012218E601120122E2E801120122D6
:100DB300FAE8011201228BE90112012299E90112D9
:100DC3000122E6E901120122F4E90112012260EA9B
:100DD30001120122DBEA0112012232EB011201228C
:100DE3006DAB0312012292AB0312012208AC031272
:100DF30001229DD502120122A6D502120122AFD5EE
:100E03000212012287D60212012238D802120122CD
:100E130068D80212012293D802120122C3D8021207
:100E23000122EED80212012222D9021201224ED946
:100E33000212012291D902120122BCD9021201220B
:100E430003DA0212012258DA021201229ADA02129A
:100E53000122F4DA021201221FDB021201226EDBED
:100E6300021201229EDB02120122C9DB02120122BD
:100E7300ECDB02120122B3B903120122DFB9031220
:100E830001220CBA0312012216BA0312012226BA56
:100E930003120122BFF902120122FEF902120122FA
:100EA3008EFA02120122D9FA0212012218FB02124F
:100EB300012227FB0212012280FB02120122CFFB37
:100EC3000212012225FC021201221AFD0212012242
:100ED3000FFE021201224CFE021201229ABA0312E1
:100EE30001224099011201223E9B01120122BF9C63
:100EF30001120122C19D01120122499E0112012208
:100F0300CE9E01120122F79E01120122479F011278
:100F130001223AA301120122ABA30112012297A4D9
:100F230001120122D1A40112012211A501120122F1
:100F330044A60112012275A601120122C8A60112BC
:100F4300012211A7011201227FA701120122B1A7D9
:100F530001120122CBA701120122BDA80112012215
:100F6300CDA8011201227CAA0112012293AA011227
:100F73000122C5AA0112012247AC01120122C0AC11
:100F83000112012274B80312012285B8031201224F
:100F9300E9BB03120122ED7F0012012223B90312E0
:100FA300012233B90312012248B903120122B0B955
:100FB3000312012289B5031201220DB60312012285
:100FC30075B60312012232B30312012254B3031282
:100FD3000122C0B303120122D3B303120122ECB3E3
:100FE300031201223DB4031201229394031201223E
:100FF300AD9403120122269503120122FB950312DD
:101003000122CD9703120122D9BB03120122DEBBB9
:1010130003120122E5BB03120122E7BB03120122E3
:1010230058B00312012281B003120122AAB00312A5
:10103300012244B1031201225CB1031201229EB1C9
:1010430003120122BBCD02120122C5CD02120122DD
:1010530005CE021201224ECE0212012288CE0212C6
:101063000122DECE02120122FDCE0212012285D11F
:10107300021201228ED102120122DFD102120122B9
:1010830008D20212012212D20212012283D20212C8
:10109300012211D30212012266D30212012295D337
:1010A3000212012211D4021201224ED40212012291
:1010B30085D40212012297D402120122B6D402125D
:1010C3000122BFD40212012271D502120122C9AE3C
:1010D3000312012219AF031201228BAF0312012263
:1010E300F3AF0312012254A2031201227EA20312C0
:1010F300012245A30312012221A403120122A9A460
:10110300031201228EB6031201227BA703120122CE
:10111300B1A703120122E4A7031201223DA903127E
:10112300012230BA0312012246BA0312012250BA35
:1011330003120122A1FF01120122D7C502120122CB
:1011430094C602120122CFC60212012200C7021264
:10115300012262C702120122AEC70212012219C87C
:101163000212012293C80212012292C90212012221
:1011730019CB021201229CCB0212012202CC0212D1
:10118300012215CC0212012210CD021201225DCDE3
:1011930002120122D18803120122E78803120122DD
:1011A3008B8903120122CA8903120122E7890312E0
:1011B3000122188A03120122658A03120122998AE5
:1011C30003120122D48A03120122C98C03120122C1
:1011D30084FE0212012292FE02120122FDFE02127D
:1011E300012243FF0212012261FF0212012209BC04
:1011F300021201220ABD0212012268BE021201225A
:101203000BBF02120122A2BF0212012282C00212EC
:10121300012209C10212012220C102120122A7C325
:1012230002120122E5C3021201223EC4021201226C
:101233005BC50212012284BB031201224DBB0312C0
:101243000122B0BB03120122E1FF02E06670100825
:10125300A3E066700A08A3E066700408A3E06622B0
:10126300C3E7960809E7960809E7960809E796226F
:10127300C3E09608A3E09608A3E09608A3E09622AD
:10128300C008C3E096F50808A3E096420808A3E067
:1012930096420808A3E09645087001D3D0082208B7
:1012A3000808EAC0E0EBC0E086F0E7A4FA18098674
:1012B300F0E7A42AFA180986F0E7A42AFA1809869F
:1012C300F0E7A42AFA1986F0E7A4FBE5F02AFA1955
:1012D3000886F0E7A42BFBE5F03AFA190886F0E755
:1012E300A42BFBE5F03AFA18180986F0E7A4C5F039
:1012F3002BFBE43AFA1908E7C5F0C6A426F6E5F095
:101303003BFBE43AFA1886F0E7A4F6E5F00826F684
:10131300E43B08F6E43A08F6D0E0FBD0E0FA22E436
:10132300CFC0E0E4CEC0E0E4CDC0E0E4CCC0E075E3
:10133300F020E626F608E633F608E633F608E63349
:10134300F6181818EC33FCED33FDEE33FEEF33FFE4
:10135300C3EC9709ED9709EE9709EF97191919400F
:101363000FFFEC97FC09ED97FD09EE97FE1919069F
:10137300D5F0BFECF709EDF709EEF709EFF7191907
:1013830019D0E0FCD0E0FDD0E0FED0E0FF226016F3
:10139300080808C6C313C618C613C618C613C6184A
:1013A300C613C6D5E0EA2270090808082260161899
:1013B3001818C6C333C608C633C608C633C608C61C
:1013C30033C6D5E0EA22E627F60809E637F6080928
:1013D300E637F60809E637F622E026F608A3E036F4
:1013E300F608A3E036F608A3E036F622E026F00876
:1013F300A3E036F008A3E036F008A3E036F022C3FA
:10140300E697F60809E697F60809E697F60809E667
:1014130097F622C3E096F008A3E096F008A3E096BF
:10142300F008A3E096F022E657F60809E657F60817
:1014330009E657F60809E657F622E056F608A3E050
:1014430056F608A3E056F608A3E056F622E056F057
:1014530008A3E056F008A3E056F008A3E056F022F4
:10146300E066F608A3E066F608A3E066F608A3E0E4
:1014730066F622E0F608A3E0F608A3E0F608A3E088
:10148300F622E6F008A3E6F008A3E6F008A3E6F0E8
:1014930022E0FAA3E0FBA3E0FCA3E0FD22EAF0A331
:1014A300EBF0A3ECF0A3EDF022E0F8A3E0F9A3E066
:1014B300FAA3E0FB22E8F0A3E9F0A3EAF0A3EBF040
:1014C30022CAC0E0E6F0A308DAFAD0E0FA22CAC0E2
:1014D300E0E0A3C582CCC582C583CDC583F0A3C597
:1014E30082CCC582C583CDC583DAE6D0E0CA22C3E8
:1014F300E498F8E499F91215338026C3E49AFAE4E0
:101503009BFBE920E7E9121533E498F8E499F92203
:10151300C3E498F8E499F9121533E498F8E499F9D7
:10152300C3E49AFAE49BFB22EB20E7CFE920E7E050
:10153300B90010BB0008E88AF084F8AAF022E4FBA3
:10154300C8FA22EB70227B10C833C8C933C93350A1
:1015530007C39AC3DBF280069A50012ADBEAC83339
:10156300F4C8C933F4C9FA2275F008E4C833C8C90A
:1015730033C933C99AC99B5004C92AC93BD5F0EC76
:10158300FBC833F4C8E4C9FA22600D08C6A2E71306
:10159300C618C613C6D5E0F322600C08C6C313C62B
:1015A30018C613C6D5E0F422700422600D18C6C312
:1015B30033C608C633C6D5E0F41822251810AF0881
:1015C300F518400C15198008F51840021519D2AF0B
:1015D3002200C0D0251810AF08F518500C0519804B
:1015E30008F51850020519D2AFD0D0222518F5827C
:1015F30010AF08F518400C15198008F518400215AE
:1016030019D2AF85198322C5822518C582C58335B2
:101613001910AF07F5198582188007F51985821807
:10162300D2AFC583222518F582E43519F583222527
:1016330018F8E43519F9222518FAE43519FB22259F
:1016430018FCE43519FD22E4732518C582C0E0E5D2
:101653001934FFC583C0E0E518C3958224F810AFA1
:10166300088583198582188008858319858218D295
:10167300AFCEF0A3E520F0A37808E608F0A3DEFAE6
:10168300EFF0A3E58124FAF8E608F0A3E608F0A357
:10169300E608F0A30808E608F0A3E608F0A315811E
:1016A3001581D0E0FED0E0F8158115811581E8C0E1
:1016B300E0EEC0E0222518C582C0E0E51934FFC57D
:1016C30083C0E0E518C3958224F910AF0885831918
:1016D3008582188008858319858218D2AFCEF0A33E
:1016E300E520F0A37808E608F0A3DEFAEFF0A3E51F
:1016F3008124FBF8E608F0A3E608F0A30808E6084F
:10170300F0A3E608F0A315811581D0E0FED0E0F840
:1017130015811581E8C0E0EEC0E0228519838518A4
:1017230082E0A3FEE0A3F5207808E0A3F608DFFA41
:10173300E0A3FFE0A3C0E0E0A3C0E0E0A3C0E0E0DB
:10174300A3C0E0E0A3C0E010AF0885821885831929
:101753008008858218858319D2AFD083D082020195
:101763001F851983851882E0A3FEE0A3F52078087E
:10177300E0A3F608DFFAE0A3FFE0A3C0E0E0A3C024
:10178300E0E0A3C0E0E0A3C0E010AF0885821885C5
:1017930083198008858218858319D2AFD083D082BC
:1017A30022C0D02518C582C0E0E51934FFC583C027
:1017B300E0E518C3958224F310AF08858319858269
:1017C300188008858319858218D2AFC8F0A3E9F081
:1017D300A3EAF0A3EBF0A37908E709F0A3D8FAECA6
:1017E300F0A3EDF0A3EEF0A3EFF0A3D0E0F0A3D0CD
:1017F300E0F0A3D0E0F0A3E520F0A3E5F0F0A3220E
:10180300851983851882E0C0E0A3E0F9A3E0FAA379
:10181300E0FBA37808E0F608A3DFFAE0FCA3E0FD11
:10182300A3E0FEA3E0FFA3E0C0E0A3E0C0E0A3E0E9
:10183300F5D0A3E0F520A3E0A3F5F010AF0885836E
:10184300198582188008858319858218D2AFD082C2
:10185300D083D0E0F8D0E0327404800674028002B2
:101863007401C0E0F4041215EFD0E01214C4227422
:1018730004800474028000CCC0E0EDC0E0E518C32E
:101883009CCCAD1950011D10AF068C188D19800624
:101893008C188D19D2AF1214D1D0E0FDD0E0FC2208
:1018A300D083D082E9C0E0E493A3C386F0C5F0956A
:1018B300F0F908E493A386F0C5F095F0700BE49378
:1018C300A3C3994005E9048002A3E475F002A425AB
:1018D30082F582E5F03583F583D0E0F9E493A3C084
:1018E300E0E493C0E022D083D082ECC0E0EDC0E01E
:1018F300E493A3FCE493A3FDED4C600D121935ECC6
:1019030024FFFCED34FFFD80EFE493A3FCE493A3F9
:10191300FDED4C600D121974EC24FFFCED34FFFD5A
:1019230080EFD0E0FDD0E0FCE493A3C0E0E493C0FB
:10193300E022C0E0C3E49396087401939618400F25
:10194300E49366700808740193661870007019A315
:10195300A3C3E49396087401939618A3A3400DD0F0
:10196300E0D0E0D0E0021925A3A3A3A3A3A3D0E072
:1019730022C0E0C0F088F0E4936670080874019315
:1019830066187000A8F0A3A3700BD0F0D0E0D0E0ED
:0C199300D0E0021925A3A3D0F0D0E02280
:1019A00074F51216B8EAFEEBFFEE2434F8EF3400BB
:1019B000F988088909EE2435F582EF3400F583E0D3
:1019C000F8EE2437F582EF3400F583E0F50AEC8574
:1019D0000AF0A4FCAAF0850AF0EDA42AFDE82CF890
:1019E000E43DF97A257B00121533EA8508828509E2
:1019F00083F05407F87401B800028004C333D8FCA4
:101A0000C0E0E0131313541FF8EE28F8EF3400F988
:101A1000E8245DF582E93400F583D0E0F8E0586011
:101A200008EE2434F582EF801EEE2436F582EF3482
:101A300000F583E0F5F0EA84A8F0EE28F8EF340032
:101A4000F9E82438F582E93400F583E0F97F0402EF
:101A5000176474F51216B8EAFEEBFFEE2434F58233
:101A6000EF3400F583E0C0E0EE2435F582EF34007A
:101A7000F583D0E0F08E828F83A3A3A3A3A3A3A3B7
:101A8000C082C0838E828F83A3A3A3A3A3E0F8A305
:101A9000E0F9D083D082E0C398F508A3E099F50976
:101AA000EE2480F582EF3400F583E064017069EE86
:101AB0002481F582EF3400F583E0F8A3E0F98E820B
:101AC0008F83A3A3A3A3A3A3A3E0FCA3E0FD8E8223
:101AD0008F83A3A3A3A3A3E0FAA3E0FBC3EA9CEB39
:101AE0009D5027C3EC98ED99402EC3EA98EB99508E
:101AF000277CE27D07EEFAEFFB120A2CEE2480F53C
:101B000082EF3400F583E4F0800EC3EA98EB99404D
:101B1000E0C3EC98ED9950D9EE2434F8EF3400F995
:101B2000E8FCE9FDEE2435F582EF3400F583E0F8BA
:101B3000EE2437F582EF3400F583E0F50AE50885F9
:101B40000AF0A4F508AAF0850AF0E509A42AF50927
:101B5000E82508F8E43509F97A257B00121533EAFF
:101B60008C828D83F05407F87401B800028004C39E
:101B700033D8FCC0E0E0131313541FF8EE28F8EF3D
:101B80003400F9E8245DF582E93400F583D0E0F80B
:101B9000E0586008EE2434F582EF801EEE2436F51E
:101BA00082EF3400F583E0F5F0EA84A8F0EE28F83F
:101BB000EF3400F9E82438F582E93400F583E0F9E0
:101BC000121F3C021A4D0000851A87851BC622C0D1
:101BD000E0C0D0E8C0E0E9C0E0EAC0E0EBC0E0EC83
:101BE000C0E0EDC0E0C008C009C00AC00BC082C0A0
:101BF00083C0F0759B00906182E0A2E64003021C66
:101C0000ADE591A2E64003021CAD7591BF90049929
:101C1000E064057008120BA6120BB28003120BAC25
:101C2000751A00120C0CE990049AF07900120BEE70
:101C300012099C7A017B00900498E0F91210A4909C
:101C40007803E064426003021CF6900817E014F089
:101C50006003021CF6C2AF121C5A00781DD0E0F6D9
:101C600018D0E0F6E59F5407F9700590834C800387
:101C70009083487808121476E9C4C0E0781CE655D1
:101C800008F50808E65509F509740B780812159C43
:101C9000D0E02508F8906270E0A2E740F8E8C3338E
:101CA000906272F0906270E0D2E0F08049E0A2E5CC
:101CB0005024E591A2E5501E7591DF900499E064EF
:101CC0000D70139004BBE004F064287002E4F07A15
:101CD00000E0F9120C9C906181E0A2E35009E5E973
:101CE000A2E3500375E9F7A3E0A2E75009E591A24A
:101CF000E7500375917FD0F0D083D082D00BD00A0B
:101D0000D009D008D0E0FDD0E0FCD0E0FBD0E0FA74
:101D1000D0E0F9D0E0F8D0D0D0E032C0E0C0D0C000
:101D200082C083906183E0A2E05009E5BFA2E05049
:101D30000375BFFEE0A2E15009E5BFA2E1500375C3
:101D4000BFFDE0A2E25009E5BFA2E2500375BFFB70
:101D5000E0A2E35009E5BFA2E3500375BFF7E0A29C
:101D6000E45009E5BFA2E4500375BFEFE0A2E550DF
:101D700009E5BFA2E5500375BFDFE0A2E65009E523
:101D8000BFA2E6500375BFBFD083D0828088C0E079
:101D9000C0D0E8C0E0E9C0E0EAC0E0EBC0E0ECC0E1
:101DA000E0EDC0E0C0F0E5A7A2E6500FE5A1A2E695
:101DB000500953A7BF75A1BF121DF3E5A7A2E550B7
:101DC0000CE5A1A2E5500653A7DF75A1DFE5A7A2A8
:101DD000E15009E5A1A2E1500375A1FDE5A7A2E24A
:101DE000500CE5A1A2E2500653A7FB75A1FBD0F071
:101DF000021D0474F81216B8751A01900499E06473
:101E0000067015120B5E8A828B83A3A3A3A3A3A3E0
:101E1000E0FAA3E0FB120B94A2AFE433FED2AF9042
:101E2000049FE0640170187A207B00900498E0F928
:101E30001211B87A207B00900498E0F91210AA9051
:101E40006182E0D2E6F0900816E0602185C61B8032
:101E50001690049EE064017008E5C654F84405F548
:101E6000C653BEFC121BC87401651A60E4EEA2E002
:101E700092AF7F0102176474F11216B88A088B09B9
:101E80008C0A8D0B740F121628780C12147690821F
:101E9000E4780812143D9082E4780C12143D78081E
:101EA000790C12126350157808790C121402908381
:101EB000287808121283401579018013780C79086C
:101EC000121402908328780C12128340EB79007F61
:101ED0000802176474ED1216B88A088B098C0A8DF3
:101EE0000B7413121628780C1214769082E478087A
:101EF00012143D9082E4780C12143D780C7908128B
:101F0000126340117808790C121402AA08AB09ACCC
:101F10000AAD0B8022751000751100751200751343
:101F2000017810790C121402781079081213C9AADA
:101F300010AB11AC12AD137F0C021764C082C083CA
:101F4000E9906000F0D083D08222C0E074F21217D2
:101F5000A4A2AFE433FED2AFE589A2E05003120F92
:101F6000E4758900C2C5EEA2E092AF7F01021803BA
:101F7000C0E074F21217A4A2AFE433FED2AFE58A38
:101F8000A2E55003120FE4758A00C2EB80D8C0E0CE
:101F9000C0D0E8C0E0A8A8D2AFC2C7E8A2E792AF1D
:101FA000D0E0F8D0D0D0E032FFFFFFFFFFFFFFFF0F
:101FB000C082C0839061907404F0A37448F0A3744D
:101FC00002F09061807440F09061BC7403F0906105
:101FD000877419F0906265741BF090619C740DF029
:101FE00090619A7433F0A37455F09061A0743AF044
:101FF000900814E064017009C29190049D74678098
:102000000590049D7461F0901FAEE493906186F09A
:10201000901FA8E493F46027E493540FF89061852F
:10202000E0686012E5C654804449F5C6E59E547FD9
:10203000644970F8E8F053C680E59E547F70FA79E1
:1020400005120C7E02240DC082C083E5A8F853A8B7
:102050007E906181E4F0A3F0A3F0C2BA539AFEC26D
:1020600089759B00C2C275E90075910075BF007546
:10207000A91175B905906181F0A374C0F0A3E4F0D3
:10208000D2BA439A0174805842A802240DC082C07B
:102090008374F81215BE90049BE0F8A3E0F9E849B8
:1020A00070030221BB90049BE054406023790885B3
:1020B0001882851983AA82AB83120A9E85188285AD
:1020C0001983AA82AB8312078690049BE054BFF069
:1020D000E054806010790C7A387B08120A9E9004D4
:1020E0009BE0547FF0E0A2E0503190619A7433F0AD
:1020F000A37455F09061A0743AF0900814E0640164
:102100007009C29190049D7467800590049D74616C
:10211000F012078C90049BE054FEF0E05402603112
:1021200090619A743FF0A3745AF09061A0747FF0AC
:10213000900814E064017009D29190049D7471803C
:102140000590049D746AF012078C90049BE054FD86
:10215000F0E054046013901FACE493906186F01299
:10216000079290049BE054FBF0E054086013901F2A
:10217000ADE493906186F012079290049BE054F7CF
:10218000F0E054106013901FAEE493906186F0125B
:10219000079290049BE054EFF0E05420600A12078D
:1021A0009290049BE054DFF0A3E05401600D12090B
:1021B000A812079890049CE054FEF074081215D4FD
:1021C00002240D74EC12164C74F41215BE8518829C
:1021D000851983AC82AD8375838375821474041270
:1021E00014D1901FAC93F46003022350907808E060
:1021F000C3940250030223307404121628AC82AD3B
:102200008375838275829F74081214D18518828524
:1022100019838582128583137404121628AC82AD4B
:1022200083750EFF750FFF7FFF7E00750C48750DDF
:1022300078801574086E70030222C374096E7003EF
:102240000222C3740A6E607B850C82850D83780838
:102250001214768C828D83A909E50AC9F888107456
:10226000187808121391E5104508F8C3E098A3E028
:1022700099850C82850D83780812147640188C821B
:102280008D8374187808121391E5104508F8E0C39F
:1022900098F8A3E0801C74187808121391E5104593
:1022A00008FAE9FB8C828D83E0F8A3E0F9EAC39891
:1022B000F8EB99F9C3E8950EE9950F5006880E8959
:1022C0000FEEFF0EE50C2404F50CE50D3400F50DC2
:1022D000EEC39413500302223374FF650E7004742E
:1022E000FF650F60238F08740278081215AB7448DD
:1022F0002508F58274783509F583780812147685F7
:102300001282851383E508F0EC24020C0CED3400F6
:10231000FD851282851383A3858212858313740C35
:10232000121628E5826C7003E5836D60030222219A
:10233000750801750900780812185F7402121628D2
:10234000AC82AD837AEB7B07120FBA74021215D4FC
:10235000740C1215D47F0C02171EC082C0839061CA
:10236000AE7468F0A3746AF090624574FBF0A30445
:10237000F053F4FD43FE029008147401F09061A044
:10238000E0643A90619A70237433F0A37455F0902E
:1023900061A0743AF0740164017009C29190049DC7
:1023A0007467802890049D74618021743FF0A37449
:1023B0005AF09061A0747FF0740164017009D291A9
:1023C00090049D7471800590049D746A8000F002F1
:1023D000240DC082C0839007F2E06401701590075D
:1023E000F8E064016009E0700AA3E0640170047918
:1023F0000C8012900809E06401700890080FE064F6
:102400000160EC790002240DE0F9121F3CD083D06A
:102410008202011FC082C0839007FC7425F09007E0
:10242000FA7401F0A3E4F07A01FB120BFA9007E8CA
:10243000E02416F8A3E03400F98882898374CCF094
:10244000A37409F09007F9E0640170169007F8E0B2
:1024500070107901120C5A120C2A120C54790012C5
:102460000C6680A9C082C08374FA1215BE9007F171
:10247000E0640170081209B49007F1E4F075E1F12D
:102480009007E8E02415F8A3E03400F988828983F6
:102490007401F09007F3E0640170769082BCC08212
:1024A000851882851983AC82AD83758382D082744E
:1024B000061214D175D90D9007EAE0C4333354C025
:1024C0004403F5D978E8790788828983A3A3A3E038
:1024D000F5D988828983A3A882A983E864EE700372
:1024E000E9640770E3851882851983A882A9838827
:1024F000828983E0F5D9A3A882A9837406121628DD
:10250000E582687003E5836970E575E1957901807E
:10251000027900120C009010237416F0A3740BF0D3
:10252000A3741CF0A3740BF0A37416F0A3740BF047
:10253000A37416F0A3740BF0A374E6F0A3740AF06E
:10254000A374E6F0A3740AF0A37422F0A3740BF052
:1025500090103174E6F0A3740AF0A374E6F0A3744B
:102560000AF0A374E6F0A3740AF0A374E6F0A3746F
:102570000AF0A374E6F0A3740AF0A374E6F0A3745F
:102580000AF09007EAE0F97AEB7B07120BDC900780
:10259000FCE0F9121F3C7901120C069082F812142B
:1025A00094120C1E9082DC121494120BE879001223
:1025B0000C729007E8E02414F8A3E03400F9888254
:1025C00089837416F09004997405F0040221BD7497
:1025D000F712164C8908A808E875F006A4C8AAF0F6
:1025E0002AF974C928FE740439FF900801E0F97AC9
:1025F000027B08120BDC90080FE0701A7900120CB5
:102600003C9007DBE0700B79007ADC7B07120BE271
:102610008009790180F37901120C3C75E1F175D9DB
:1026200023900801E0C4333354C04405F5D978FF42
:10263000790788828983A3A3A3E0F5D98882898357
:10264000A3A882A983E864057003E9640870E375B0
:10265000D90075D90075D90075D90075D90075D91B
:1026600000EEF8EFF9E82404FAE93400FBE824224C
:10267000F582E93400F583E0F5D988828983A3A83F
:1026800082A983EA687002EB6970E2EEF8EFF9E87C
:1026900024031AE93400FBE82426F582E93400F526
:1026A00083E0F5D988828983A3A882A983EA687028
:1026B00002EB6970E2EE242BF582EF3400F583E043
:1026C000F5D9EEF8EFF9E824021AE93400FBE82422
:1026D0002CF582E93400F583E0F5D988828983A35B
:1026E000A882A983EA687002EB6970E2EEF8EFF95C
:1026F000E8242EF582E93400F583E0F5D988828953
:1027000083A3A882A983EA687002EB6970E2EEF8FD
:10271000EFF9E82430F582E93400F583E0F5D98853
:10272000828983A3A882A983EA687002EB6970E2B8
:10273000EEF8EFF9E82432F582E93400F583E0F5AC
:10274000D988828983A3A882A983EA687002EB6989
:1027500070E2EEF8EFF9E824050A0A0AE93400FB12
:10276000E8245DF582E93400F583E0F5D9888289B3
:1027700083A3A882A983EA687002EB6970E2EE2461
:1027800037F582EF3400F583E0541FF8EE242AF584
:1027900082EF3400F583E0C43354E048F5D975E1A5
:1027A0009590102374ECF0A3740AF0A374F2F0A3D4
:1027B000740AF0A374E6F0A3740AF0A374E6F0A31D
:1027C000740AF0A374E6F0A3740AF0A374E6F0A30D
:1027D000740AF0A374F8F0A3740AF090103174E650
:1027E000F0A3740AF0A374E6F0A3740AF0A374E6ED
:1027F000F0A3740AF0A374E6F0A3740AF0A374E6DD
:10280000F0A3740AF0A374E6F0A3740AF090080E23
:10281000E0F9121F3C9082F8121494120C1E908260
:10282000DC121494120BE890600DE4F07901120CA4
:10283000729004997406F0022E2A74EC12164C90D1
:1028400007FFE0F8A3E0F5838882A3A378101214B1
:1028500076900810E0FAF875F006A4C8ACF02CF9F0
:1028600074F728F582740439F583E0FEA3E0FFEEE7
:10287000C333FEEF33FF8E0CF50D750E00750F00A0
:1028800085100885110985120A85130B90835478E9
:10289000081213DC780812185B8510088511098569
:1028A000120A85130B7808790C1213C97810790C69
:1028B000121322E4F50EF50F7808790C1214028A2F
:1028C0000C750D007403780C1215AB7808790C1296
:1028D00013C99082E4780812143DAA08AB09AC0A27
:1028E000AD0B121ED474041215D48A088B09A808E3
:1028F000A909C3EE98EF995006E82EF8E93FF9E8E8
:1029000090600EF0E9A3F0EEA3F0EFA3F090600D5D
:1029100074C1F0022355C082C0839007E8E0F8A399
:10292000E0F5838882A3A3A3A3A3A3E4F0A3F0907C
:1029300007FC022408C082C0839007FFE0F8A3E0F0
:10294000F5838882A3A3A3A3A3A3E4F0A3F0900834
:102950000E02240802011F74F612164C9061D0E09A
:10296000F87480C398FCEA2483F582EB3400F58385
:10297000E06004780480027800E8240EF8ECC39844
:102980005003022AD87E0C900818E4F0EA2477F568
:1029900082EB3400F583E0900819F0EA2478FCEB30
:1029A0003400FD781A79087F028C828D83E088825A
:1029B0008983F08C828D83A3AC82AD8388828983E6
:1029C000A3A882A9831FEF70E0EA247AFCEB34000D
:1029D000FD7F028C828D83E088828983F08C828DDA
:1029E00083A3AC82AD8388828983A3A882A9831F35
:1029F000EF70E0EA247CFCEB3400FD7F028C828DDA
:102A000083E088828983F08C828D83A3AC82AD833E
:102A100088828983A3A882A9831FEF70E0EA247EBD
:102A2000FCEB3400FD7F028C828D83E088828983F9
:102A3000F08C828D83A3AC82AD8388828983A3A826
:102A400082A9831FEF70E0EA2475FCEB3400FD8A55
:102A5000828B83A3A3A3A3A3E0F508A3E0F5098CCD
:102A6000828D83E02508F0A3E03509F07F028C8297
:102A70008D83E088828983F08C828D83A3AC82ADC4
:102A80008388828983A3A882A9831FEF70E0EA2448
:102A900083F582EB3400F583E06019750818750939
:102AA00008780812185F7C0C7903120ADA74021293
:102AB00015D47E1074012EF5D975D9037582187559
:102AC0008308EEFFE0F5D9A31FEF70F875E1957963
:102AD00004120C2479018002790002300C74F61281
:102AE000164C9061D0E0F87480C398FCEA2483F51A
:102AF00082EB3400F583E06004780480027800E81B
:102B0000240AF8ECC3985003022BCD7508089008EE
:102B1000187401F07CE27D07781979087E058C82B3
:102B20008D83E088828983F08C828D83A3AC82AD13
:102B30008388828983A3A882A9831EEE70E0EA2499
:102B400081FCEB3400FD8A828B83A3A3A3A3A3E0C3
:102B5000FEA3E0FF8C828D83E02EF0A3E03FF07EA9
:102B6000028C828D83E088828983F08C828D83A39E
:102B7000AC82AD8388828983A3A882A9831EEE706C
:102B8000E0EA2483F582EB3400F583E0601A7508EF
:102B900018750908780812185F7C087903120ADA98
:102BA00074021215D475080C74012508F5D975D96D
:102BB00003758218758308AE08E0F5D9A31EEE7080
:102BC000F875E1957904120C2479018002790002EC
:102BD000300C74F712164CEAFEEBFF9061D0E06007
:102BE00003022CC975D91875D90375D903EEF8EF0E
:102BF000F9E82408FAE93400FBE8249CF582E9347A
:102C000000F583E0F5D988828983A3A882A983EAA5
:102C1000687002EB6970E2EEF8EFF9E82402FAE975
:102C20003400FBE824A4F582E93400F583E0F5D90B
:102C300088828983A3A882A983EA687002EB6970FD
:102C4000E2EE2494F582EF3400F583E5822408F85F
:102C5000E5833400F9E0F5D9A3E865827003E965FE
:102C60008370F2EE2488F582EF3400F583E5822448
:102C700004F8E5833400F9E0F5D9A3E86582700330
:102C8000E9658370F275E1957908EE2494FAEF34E2
:102C900000FB120A927904EE2488FAEF3400FB124A
:102CA0000A927904120C24EE2470F582EF3400F5B8
:102CB00083E0F8A3E0F9EE2472F582EF3400F583A7
:102CC000E8F0A3E9F0790180027900022E2A74F677
:102CD00012164CEAFEEBFF9008187406F0750818FF
:102CE000750908780812185F7C017903120ADA74F2
:102CF000021215D475D90675D90375821875830823
:102D0000E0F5D9A3E582641D7004E583640870F0E2
:102D100075E195900499E06408701EEE2470F582C8
:102D2000EF3400F583E0F8A3E0F9EE2472F582EFCA
:102D30003400F583E8F0A3E9F0790102300C74F671
:102D400012164CEAFEEBFF9061D0E0705E9008181E
:102D5000740AF0750818750908780812185F7C0164
:102D60007903120ADA74021215D475D90675D903DB
:102D7000758218758308E0F5D9A3E582641D700497
:102D8000E583640870F075E195EE2470F582EF3408
:102D900000F583E0F8A3E0F9EE2472F582EF340049
:102DA000F583E8F0A3E9F079018002790002300CA4
:102DB00074F612164CEAFEEBFF9061D0E070667874
:102DC00001900818740BF0900499E064077019756D
:102DD0000818750908780812185F7C017903120A2F
:102DE000DA74021215D47805740128F5D975D9035F
:102DF000758218758308E8FAE0F5D9A31AEA70F825
:102E000075E195EE2470F582EF3400F583E0F8A3C8
:102E1000E0F9EE2472F582EF3400F583E8F0A3E9DF
:102E2000F079018002790002300C7F0102171E74D4
:102E3000F612164CEAFEEBFF9061D0E0F87480C306
:102E400098FAEE2483F582EF3400F583E06004788D
:102E50000480027800E8240BF8EAC3985003022F9C
:102E6000057D099008187408F0EE24E5F8EF3400A9
:102E7000F97A197B087C0888828983E08A828B83AF
:102E8000F088828983A3A882A9838A828B83A3AADC
:102E900082AB831CEC70E0EE2483F582EF3400F506
:102EA00083E0601D750818750908780812185F7CA2
:102EB000097903EEFAEFFB120ADA74021215D47DD7
:102EC0000D74012DF5D975D9037582187583088D98
:102ED00008E0F5D9A31508E50870F675E1957904C1
:102EE000120C24EE2470F582EF3400F583E0F8A391
:102EF000E0F9EE2472F582EF3400F583E8F0A3E9FF
:102F0000F079018002790002300C74F612164CEA56
:102F1000FEEBFF9061D0E0F87480C398FAEE248352
:102F2000F582EF3400F583E06004780480027800D5
:102F3000E82408F8EAC398500302300A7D06900896
:102F400018740CF09004B6E0900819F07AB77B047E
:102F5000781A79087C028A828B83E088828983F0E0
:102F60008A828B83A3AA82AB8388828983A3A88267
:102F7000A9831CEC70E07AB97B047C028A828B8383
:102F8000E088828983F08A828B83A3AA82AB8388BC
:102F9000828983A3A882A9831CEC70E0EE2483F5C8
:102FA00082EF3400F583E0601D7508187509087814
:102FB0000812185F7C067903EEFAEFFB120ADA7446
:102FC000021215D47D0A74012DF5D975D9037582C5
:102FD000187583088D08E0F5D9A31508E50870F683
:102FE00075E1957904120C24EE2470F582EF34001B
:102FF000F583E0F8A3E0F9EE2472F582EF3400F5F2
:1030000083E8F0A3E9F07901800279007F020217DA
:103010001E74F612164CEAFEEBFF9061D0E0F874D5
:1030200080C398FAEE2483F582EF3400F583E060E4
:1030300004780480027800E82404F8EAC398500376
:103040000230EB7802900818E8F0EE24F7F582EFF2
:103050003400F583E0900819F0EE2483F582EF3414
:1030600000F583E0601B75081875090878081218C8
:103070005F7C027903EEFA120ADA74021215D47830
:1030800006740128F5D975D90375821875830888E7
:1030900008E0F5D9A31508E50870F675E195EE246A
:1030A00074F582EF3400F583E4F0EE2480F582EFCE
:1030B0003400F583E4F0EE241DF582EF3400F5834F
:1030C000E4F0A3F07904120C24EE240DF582EF3421
:1030D00000F583E0F8A3E0F9EE2472F582EF340006
:1030E000F583E8F0A3E9F079018002790002300C61
:1030F00074F612164C9061D0E0F87480C398FCEA24
:103100002483F582EB3400F583E0600478048002C8
:103110007800E82404F8ECC398405B790290081822
:103120007407F0EA24F8F582EB3400F583E09008A8
:1031300019F0EA2483F582EB3400F583E06018751A
:103140000818750908780812185F7C0209120ADA53
:1031500074021215D47906740129F5D975D903754D
:103160008218758308E9F8E0F5D9A318E870F875B6
:10317000E19579018002790002300C74F512164C49
:10318000E9FCA2AFE433F50AC2AF7D0080010DEA8D
:10319000246FF582EB3400F583E0F8EDC398501A04
:1031A0008D08EA2508F8EB3400F9E8246BF582E98C
:1031B0003400F583E06C70D68024EA246FF8EB3499
:1031C00000F9E0FEEA2EFAEB3400FBEA246BF5820C
:1031D000EB3400F583ECF088828983E004F0E50AA3
:1031E000A2E092AF7F0302171E74F612164CA2AF34
:1031F000E433FDC2AFEA246FF582EB3400F583E0DF
:1032000014F07C0060368C08EA2508F8EB3400F9ED
:10321000E8246CF582E93400F583E0C0E0E8246B33
:10322000F582E93400F583D0E0F00CEA246FF582F2
:10323000EB3400F583E0F8ECC39840CAEA246EF55D
:1032400082EB3400F58374FFF0EA246AF582EB34F4
:1032500000F583E4F0EDA2E092AF02300CC082C032
:1032600083E5A8F8C2AFEA246BF582EB3400F5835E
:10327000E9F0EA246AF582EB3400F583E4F0E8A291
:10328000E792AF02240D74F312164CEAFEEBFFEC4A
:10329000FAEDFB8A828B83A3A3A3A3E0541FF0EE75
:1032A0002436F582EF3400F583E4F0F50AEEFCEF06
:1032B000FD8A828B83E0C0E0EC245DF582ED340072
:1032C000F583D0E0F0750B00E50A33333354F8F59D
:1032D0000C8A828B83E0F508750900E50B780812EB
:1032E000158CE508A2E0502FEE2436F8EF3400F9F3
:1032F00088828983E0F508EE2508F508EF3400F5AB
:1033000009E5082438F582E5093400F583E50CF079
:1033100088828983E004F0050B050CE50BC3940853
:1033200040AF050A8A828B83A3AA82AB838C828DED
:1033300083A3AC82AD83E50AC3940550030232B186
:103340007F0502171E74F712164C9004C5E0640343
:1033500070077A007B00022E2A7B0078C5790488EA
:10336000828983A3A3A3A3A3A3E0600302363FEB58
:10337000F875F006A4C8AAF02AF974C928F87404EC
:1033800039F988828983A3A37401F088828983A391
:10339000A3A3E4F0EB88828983A3A3A3A3F0E8248A
:1033A00062F582E93400F5837401F0E82465F58262
:1033B000E93400F583E4F0A3F0E82468F582E93409
:1033C00000F5837401F088828983A3A3A3A3A3E4F7
:1033D000F0A3F088828983A3A3A3A3A3A3A3F0A34C
:1033E000F0E8240FF582E93400F5837401F0E82455
:1033F00035F582E93400F583E4F0908324121494C7
:10340000E82418F582E93400F5831214A0E8241C9E
:10341000F582E93400F583E4F0E8241DF582E9340F
:1034200000F583E4F0A3F0E82480F582E93400F5A8
:1034300083E4F0E82474F582E93400F583E4F0E8ED
:103440002469F582E93400F5837480F0E8246AF594
:1034500082E93400F583E4F0E8246FF582E9340072
:10346000F583E4F0E82467F582E93400F583E4F0BD
:10347000E824EDF582E93400F583E4F0E824EEF584
:1034800082E93400F583E4F0E824EFF582E93400C2
:10349000F583E4F0E824F0F582E93400F583E4F004
:1034A000E824F1F582E93400F583E4F0A3F0E824A0
:1034B000F3F582E93400F583E4F0A3F0E824F6F5AF
:1034C00082E93400F583E4F0E82483F582E93400EE
:1034D000F583E4F0E824D3F582E93400F583E4F0E1
:1034E000E824D4F582E93400F583E4F090832412D3
:1034F0001494E824D5F582E93400F5831214A090E1
:103500008324121494E824D9F582E93400F5831257
:1035100014A0E824DFF582E93400F583E4F0E82420
:10352000E1F582E93400F583E4F0E824DDF582E991
:103530003400F583E4F0E824E2F582E93400F58311
:10354000E4F0E824E3F582E93400F583E4F0E824CC
:10355000F9F582E93400F583E4F0A3F0E824FBF503
:1035600082E93400F583E4F0A3F0E824FDF582E974
:103570003400F583E4F0A3F0E824FFF582E9340099
:10358000F583E4F0A3F0E8FAE9FBEA2404FCEB3469
:1035900000FDEA246BF582EB3400F58374FFF08ABA
:1035A000828B83A3AA82AB83EC6A7002ED6B70E21C
:1035B000E8FAE9FB7CE27D078C828D83E0C0E0EADB
:1035C000245DF582EB3400F583D0E0F08C828D83AE
:1035D000A3AC82AD838A828B83A3AA82AB83EC6483
:1035E000E77003ED640770D0E8FAE9FB7CAC7D047A
:1035F0008C828D83A3E0C0E0EA24E5F582EB340001
:10360000F583D0E0F08C828D83A3AC82AD838A8277
:103610008B83A3AA82AB83EC64B47003ED64047063
:10362000CF9004C5E004F06401700D88828983A303
:10363000A3A3A3E09004C7F0E8FAE9FB0233560B1A
:10364000E82406F8E93401F9EBC39403400302339C
:103650005202335FC082C0838A828B83A3A3A3E01C
:10366000600F8A828B83A3A3A3E4F09004C6E014C6
:10367000F09004C5E014F070069004C774FFF08A5F
:10368000828B83A3A3E4F09007E7E0700D9004C65B
:10369000E0640170057900120BEE02240DC082C0B7
:1036A0008378C5790488828983A3A3A3A3A3A3A352
:1036B000E4F088828983A3A3A3A3A3A3F0E824064C
:1036C000F8E93401F9E864D77003E9640770D6902B
:1036D00004C5E4F0A3F0A374FFF075E1F102240D3A
:1036E00074F312164C750800750900750C00750A04
:1036F000C9750B04AE0AAF0B8E828F83A3A3A3E020
:10370000603FE5084509700AEEF8EFF98808890975
:10371000802F850882850983E0F8A3E0F5838882FD
:10372000A3A31218728E828F83E0F8A3E0F583883A
:1037300082A3A3121494121E7774041215D4E960A4
:10374000C7050CEE2406F50AEF3401F50BE50CC3B2
:10375000940340A0850882850983A3A3A3A3E0F96D
:1037600002334074F612164C78FF79FF7508007E1C
:10377000C97F04EEFCEFFD8C828D83A3A3A3E060E0
:103780006474FF68700374FF697025EC2474F5821B
:10379000ED3400F583E064017011EC247AF582EDDC
:1037A0003400F583E0F8A3E0F9803AEC242E80EDB4
:1037B000EC2474F582ED3400F583E064017014ECC0
:1037C000247AF582ED3400F583C3E098A3E09950A4
:1037D0001480C7EC242EF582ED3400F583C3E09805
:1037E000A3E09940C60508EE2406FEEF3401FFE58C
:1037F00008C394035003023773C3EA98EB9940045B
:10380000E8FAE9FB02300C74F612164CEAFEEBFF04
:103810008E828F83A3A3A3E0600F8E828F83A3A3E6
:10382000A3E4F09004C6E014F09004C5E014F07036
:10383000069004C774FFF08E828F83A3A3E4F090F8
:1038400007E7E0700D9004C6E0640170057900128E
:103850000BEEEE2465F582EF3400F583E0F8A3E08B
:10386000F9E8496029EE2465F8EF3400F988088901
:10387000098882F583E0FCA3E0FD9004C7E0FA7BB1
:10388000001207BC850882850983E4F0A3F0EEFAF4
:10389000EFFB120B5802300C74F712164CEAFEEBD9
:1038A000FF8E828F83A3A3A3A3E0FA7B00120804F8
:1038B000EEFAEFFB120A50120B3A022E2AC082C017
:1038C000837C007AC97B04EAF8EBF988828983A3B8
:1038D000A3A3E0601EE8246FF582E93400F583E0DD
:1038E0006011E8246BF582E93400F583E070047917
:1038F0000180110CEA2406FAEB3401FBECC39403BB
:1039000040C5790002240DC082C08378AC79048858
:10391000828983A3E4F088828983A3A882A983E8AB
:1039200064B47003E9640470E69004AD740102238A
:10393000CEC082C08374FC1215BE908324121494EE
:103940008518828519831214A0120A98E9851882B5
:10395000851983F0120A987401121628E9F0120AE8
:10396000987402121628E9F08518828519831214BA
:103970009474040221BD74F612164CEAFEEBFFECBF
:103980002403F8ED3400F988088909EC2407F8EDE0
:103990003400F9E8FCE9FD8C828D83E0F8A3E0F9BE
:1039A000850882850983E0FAA3E0FB121533EE2433
:1039B0000DF582EF3400F583E8F0A3E9F08C828DF9
:1039C00083E0F8A3E0F9850882850983E0FAA3E0A3
:1039D000FB1215338B09EA45096013EE240DF582BD
:1039E000EF3400F583E02401F0A3E03400F002306E
:1039F0000C74F612164CEAFEEBFFEE242EF582EF65
:103A00003400F583E0FCA3E0FD780079FAECFAEDF0
:103A1000FB121533EE2470F582EF3400F583E8F0E5
:103A2000A3E9F0780079FAECFAEDFB1215338B0973
:103A3000EA45096013EE2470F582EF3400F583E067
:103A40002401F0A3E03400F002300C74F012164CA4
:103A5000EAFEEBFF74101216287808121476120B87
:103A6000BE8A0C8B0D8C0E8D0F908350780C121328
:103A7000DC9082E4780C12143D780C12185B8E8274
:103A80008F83E0F8A3E0F5838882A3A31214941235
:103A90001E7774041215D4E96003023B988E828F5E
:103AA00083E02402F8A3E03400F9E8FAE9FB8A8213
:103AB0008B8378081213EF9082E478081214768AC8
:103AC000828B837808121450EE240BF582EF3400B9
:103AD000F583C082C0838E828F83A3A3A3A3A3E0B8
:103AE0002401F8A3E03400F9D083D082E0687003A9
:103AF000A3E06970057901023B9A8E828F83A3A3AC
:103B0000A3A3A3A3A3E02401F0A3E03400F0EE24D8
:103B100074F582EF3400F583E064017036EE2475AD
:103B2000F582EF3400F583E0F8A3E0F98E828F830D
:103B3000A3A3A3A3A3A3A3E0687003A3E0697013E6
:103B4000EE2475F582EF3400F583E02401F0A3E064
:103B50003400F0EE2480F582EF3400F583E0640158
:103B60007036EE2481F582EF3400F583E0F8A3E0AF
:103B7000F98E828F83A3A3A3A3A3A3A3E0687003FA
:103B8000A3E0697013EE2481F582EF3400F583E041
:103B90002401F0A3E03400F079007F0802171E74BE
:103BA000F712164C9004C7E0F875F006A4C8AAF006
:103BB0002AF974C928FE740439FF8028EE2465F8B8
:103BC000EF3400F988828983E0FCA3E0FD888289D4
:103BD00083E4F0A3F08E828F83A3A3A3A3E0FA7BF8
:103BE000001207BCEE2465F582EF3400F583E0F89F
:103BF000A3E0F9E849604FEE2464F582EF3400F564
:103C000083E0F5087808121863EE2463F582EF3438
:103C100000F583E0F9EE2465F582EF3400F583E0EA
:103C2000FCA3E0FDEEFAEFFB120A8674011215D434
:103C3000E96089EE2465F582EF3400F583E0F8A3AE
:103C4000E0F9E84970137C007D008E828F83A3A386
:103C5000A3A3E0FA7B001207BC022E2A74F212160C
:103C60004CEAFEEBFF890A740E121628E0FAEE24E5
:103C700062F582EF3400F583E064016003023D28C1
:103C80009061D0E0F87480C398F50CEE2483F5823F
:103C9000EF3400F583E0600478048002780089083E
:103CA000E928F8E43400F9E824020808E93400F9C6
:103CB000E50C98E499A2D265D0334068EA700575A6
:103CC0000B028003750B01E060397509007808125A
:103CD000185F7A187B08120ABC74021215D4750892
:103CE00018750908780812185FAC0AA90BEEFAEFEC
:103CF000FB120ADA74021215D47404250AF50A7C40
:103D0000187D087401250AF5D9850BD9E50A600DDF
:103D10008C828D83F8E0F5D9A318E870F875E195E9
:103D2000790080067907800279FF7F0602171EC09E
:103D300082C083E960208C828D83E08A828B83F04D
:103D40008C828D83A3AC82AD838A828B83A3AA826B
:103D5000AB8319E970E0ECFAEDFB02240DC082C0E0
:103D6000837869790888828983A3A3A3A3A3A3E4A2
:103D7000F088828983A3A3A3A3A374FFF0E8241887
:103D8000F8E93400F9E864C97003E9640870D69072
:103D9000086B74FFF090086AE4F0900869F09008EE
:103DA0006CF0A3F002548574EC12164C90086CE091
:103DB000F508A3E0F509E5084509700612099C021B
:103DC0004A54850882850983E0146018146015241C
:103DD000FE601124C4700302451624C0700302451E
:103DE00016024A54E0F9120B4C8A0A8B0BAE0AAF4A
:103DF0000B9004C6E07003024194120A44E9F8757E
:103E0000F006A4C8AAF02AF974C928F50C7404397C
:103E1000F50D850C82F583E0F50AA3E0F50BAC0AFD
:103E2000FDEEFAEFFB120B46E9F50E7402650E701B
:103E3000030241538E828F83E024FE600A24FE70C9
:103E40000302404B024A54EE65087003EF650960B7
:103E5000211209BA9007F9E0640170169007F8E0A2
:103E600070107901120C5A120C2A120C547900129B
:103E70000C60E50E6021E5082415F582E5093400A3
:103E8000F583E060129007F4E0F8A3E0F9A3E0689E
:103E90007003A3E0697026120BBE8A0C8B0D8C0E8A
:103EA0008D0F908340780C1213DC9082E4780C1212
:103EB000143D8E828F83A3A3780C121485E5082409
:103EC00015F582E5093400F583E064016003023FE3
:103ED00071850A82850B83A3A3780C1214769083D4
:103EE0003C780C1213DC780C12185B8E828F83A343
:103EF000A3C082C0839007F6E0F508A3E085080C14
:103F0000F50DE4F50EF50FD083D082780C1213DC9A
:103F1000AA0CAB0DAC0EAD0F121E7774041215D4A3
:103F2000E9703C8E828F83A3A3C082C0839007F682
:103F3000E0F508A3E0F509E4F50AF50BD083D0829B
:103F400078081213DC9082E4780812143DEE240EF7
:103F5000F582EF3400F5837808121485024043851A
:103F60000A82850B83A3A3780812147690833C8081
:103F7000CFEE240EF582EF3400F5831218728E8294
:103F80008F83A3A3121494121E7774041215D4E91C
:103F900064016003024043850A82850B83A3A378F2
:103FA0000C12147690833C780C1213DC780C1218E7
:103FB0005B8E828F83A3A3C082C0839007F6E0F557
:103FC00008A3E085080CF50DE4F50EF50FD083D0BD
:103FD00082780C1213DCAA0CAB0DAC0EAD0F121EC6
:103FE0007774041215D4E9701F8E828F83A3A3C047
:103FF00082C0839007F6E0F508A3E0F509E4F50A2E
:10400000F50BD083D0828010850A82850B83A3A311
:10401000780812147690833C78081213DC9082E4BE
:10402000780812143DEE240EF582EF3400F5837803
:10403000081214859007FCE0642770047425800240
:10404000E004F090086B7402024A4CEE65087003BD
:10405000EF65096031900810E0F91209C085088207
:10406000850983E06402701E9007F9E06401701610
:104070009007F8E070107900120C5A120C2A120CFA
:10408000547901120C60E50E601290080AE0F8A362
:10409000E0F9A3E0687003A3E0697026120BBE8A02
:1040A0000C8B0D8C0E8D0F908340780C1213DC90CE
:1040B00082E4780C12143D8E828F83A3A3780C12B5
:1040C0001485850A82850B83A3A3780C121476903D
:1040D000833C780C1213DC780C12185B8E828F8371
:1040E000A3A3C082C08390080CE0F508A3E0850874
:1040F0000CF50DE4F50EF50FD083D082780C121379
:10410000DCAA0CAB0DAC0EAD0F121E7774041215A9
:10411000D4E9701F8E828F83A3A3C082C0839008CE
:104120000CE0F508A3E0F509E4F50AF50BD083D01F
:10413000828010850A82850B83A3A37808121476E7
:1041400090833C78081213DC9082E4780812143DC6
:10415000024A35850882850983E06402701390075E
:10416000F9E06401700B9007F8E070057900120C1B
:104170005AE50C2404FEE50D3400FF8E828F83E0A7
:10418000F9120B828E828F83E09004C7F0AA0AABEB
:104190000B024A51EE65087003EF65098E828F832A
:1041A0006003024378E024FE600A24FE70030242AA
:1041B000D3024A4DEE2415F582EF3400F583E0601A
:1041C000419007F4E0F8A3E0F9A3E0687003A3E0EE
:1041D00069602F120BBE8A088B098C0A8D0B9083A5
:1041E0001C78081213DC780812185B8E828F83A368
:1041F000A3121494121E7774041215D4E9600302FA
:104200004A4D120BBE8A088B098C0A8D0B90834095
:1042100078081213DC9082E4780812143D8E828FA5
:1042200083A3A37808121485EE2415F582EF3400D9
:10423000F583E0640170348E828F83A3A3C082C0B3
:10424000839007F6E0F508A3E0F509E4F50AF50B1D
:10425000D083D08278081213DCEE240EF582EF347E
:1042600000F5837808121485024A4DEE240EF5827B
:10427000EF3400F5831218728E828F83A3A3121479
:1042800094121E7774041215D4E964016003024A83
:104290004D8E828F83A3A3C082C0839007F6E0F582
:1042A00008A3E0F509E4F50AF50BD083D08278087D
:1042B0001213DCEE240EF582EF3400F58378081239
:1042C00014859007FCE0642770057425024A4CE0D1
:1042D0000480F990080AE0F8A3E0F9A3E06870030D
:1042E000A3E069602C120BBE8A088B098C0A8D0B27
:1042F00090831C78081213DC780812185B8E828F6A
:1043000083A3A3121494121E7774041215D4E970B7
:1043100064EE2402F508EF3400F509120BBE8A0C96
:104320008B0D8C0E8D0F908340780C1213DC9082D5
:10433000E4780C12143D850882850983780C1214E8
:1043400085850882850983C082C08390080CE0F5CA
:1043500008A3E0F509E4F50AF50BD083D0827808CC
:104360001213DCEE240EF582EF3400F58378081288
:1043700014851209C6024A4DE024FE600A24FE702C
:104380000302443E024A541209BA9007F9E064015C
:1043900070169007F8E070107901120C5A120C2A6E
:1043A000120C547900120C609007F4E0F8A3E0F9C5
:1043B000A3E0687003A3E069602F120BBE8A088B2C
:1043C000098C0A8D0B90831C78081213DC78081274
:1043D000185B8E828F83A3A3121494121E77740429
:1043E0001215D4E96003024043EE2402F508EF34CD
:1043F00000F509120BBE8A0C8B0D8C0E8D0F90836D
:1044000040780C1213DC9082E4780C12143D85087D
:1044100082850983780C121485850882850983C0FA
:1044200082C0839007F6E0F508A3E0F509E4F50AF9
:10443000F50BD083D08278081213DC023F4D900830
:1044400010E0F91209C0850882850983E0640270D2
:104450001E9007F9E0640170169007F8E07010797B
:1044600000120C5A120C2A120C547901120C609092
:10447000080AE0F8A3E0F9A3E0687003A3E069602C
:104480002C120BBE8A088B098C0A8D0B90831C782A
:10449000081213DC780812185B8E828F83A3A31294
:1044A0001494121E7774041215D4E97066EE240277
:1044B000F8EF3400F988088909120BBE8A0C8B0DBD
:1044C0008C0E8D0F908340780C1213DC9082E47870
:1044D0000C12143D850882850983780C1214858599
:1044E0000882850983C082C08390080CE0F508A388
:1044F000E0F509E4F50AF50BD083D08278081213B1
:10450000DCEE240EF582EF3400F583780812148572
:104510001209C6024A479004C6E070030248AC1272
:104520000A44E9F875F006A4C8AAF02AF974C92863
:10453000F510740439F511851082F583E0F508A3B0
:10454000E0F5099004C7E0F875F006A4C8AAF02ABF
:10455000F974C928F50C740439F50D90086AE05413
:104560000770030247D5A3E0F9120B4C8A0A8B0BA4
:10457000AE0AAF0BAC08AD09120B46E9F50E74029A
:10458000650E70030247D5850C82850D83A3A3A316
:10459000A3E0F875F08AA4C8AAF02AF974CE28F529
:1045A0000A740839F50BAA0AFB120B76AA0AAB0BA0
:1045B000120B70751280751300781212185F7C0050
:1045C0007D60E50A2406FAE50B3401FB120ABC748F
:1045D000021215D4A80AA90B906195E0C0E0E82466
:1045E00086F582E93401F583D0E0F0906196E0C071
:1045F000E0E82487F582E93401F583D0E0F09061AA
:1046000097E0C0E0E82488F582E93401F583D0E042
:10461000F0906198E0C0E0E82489F582E93401F582
:1046200083D0E0F08E828F83E024FE600A24FE7047
:10463000030247100247D51209BA9007F9E0640156
:1046400070119007F8E0700B120C2A120C547900CC
:10465000120C60E50E60129007F4E0F8A3E0F9A3F5
:10466000E0687003A3E0697026120BBE8A0C8B0D04
:104670008C0E8D0F908340780C1213DC9082E478BE
:104680000C12143D8E828F83A3A3780C121485859F
:104690000882850983A3A3780C12147690833C7852
:1046A0000C1213DC780C12185B8E828F83A3A3C0CC
:1046B00082C0839007F6E0F50CA3E0F50DE4F50E5B
:1046C000F50FD083D082780C1213DCAA0CAB0DACA2
:1046D0000EAD0F121E7774041215D4E9701F8E826E
:1046E0008F83A3A3C082C0839007F6E0F508A3E000
:1046F000F509E4F50AF50BD083D082801085088295
:10470000850983A3A3780812147690833C023F4066
:10471000900810E0F91209C0E50E601290080AE056
:10472000F8A3E0F9A3E0687003A3E0697026120B18
:10473000BE8A0C8B0D8C0E8D0F908340780C12135B
:10474000DC9082E4780C12143D8E828F83A3A378D0
:104750000C121485850882850983A3A3780C121492
:104760007690833C780C1213DC780C12185B8E82E6
:104770008F83A3A3C082C08390080CE0F50CA3E054
:10478000F50DE4F50EF50FD083D082780C1213DC12
:10479000AA0CAB0DAC0EAD0F121E7774041215D41B
:1047A000E9701F8E828F83A3A3C082C08390080C00
:1047B000E0F508A3E0F509E4F50AF50BD083D08213
:1047C0008010850882850983A3A378081214769047
:1047D000833C024143E510650C7004E511650D70E2
:1047E000030248A5850C82850D83A3A3A3E0700373
:1047F000024889850C82850D83A3A3A3A3E0F875E5
:10480000F08AA4C8AAF02AF974CE28FE740839FFE9
:10481000EEFAEFFB120B76EEFAEFFB120B70750A55
:1048200080750B00780A12185F7C007D60EE24060C
:10483000FAEF3401FB120ABC74021215D490619590
:10484000E0C0E0EE2486F582EF3401F583D0E0F09D
:10485000906196E0C0E0EE2487F582EF3401F583A5
:10486000D0E0F0906197E0C0E0EE2488F582EF346C
:1048700001F583D0E0F0906198E0C0E0EE2489F586
:1048800082EF3401F583D0E0F0E5102404FEE51159
:104890003400FF8E828F83E0F9120B828E828F8329
:1048A000E09004C7F0AA08AB09024A5190086AE0F8
:1048B00054077003024A54A3E0F9120B4C8A088B88
:1048C00009AE08AF098E828F83E024FE600A24FEC1
:1048D000700302499B024A541209BA9007F9E06436
:1048E0000170169007F8E070107901120C5A120C42
:1048F0002A120C547900120C609007F4E0F8A3E03F
:10490000F9A3E0687003A3E069602C120BBE8A086B
:104910008B098C0A8D0B90831C78081213DC7808A5
:1049200012185B8E828F83A3A3121494121E7774C5
:10493000041215D4E97061EE2402F508EF3400F595
:1049400009120BBE8A0C8B0D8C0E8D0F9083407854
:104950000C1213DC9082E4780C12143D85088285D9
:104960000983780C121485850882850983C082C06A
:10497000839007F6E0F508A3E0F509E4F50AF50BE6
:10498000D083D08278081213DCEE240EF582EF3447
:1049900000F5837808121485024043900810E0F96E
:1049A0001209C090080AE0F8A3E0F9A3E0687003D8
:1049B000A3E069602C120BBE8A088B098C0A8D0B50
:1049C00090831C78081213DC780812185B8E828F93
:1049D00083A3A3121494121E7774041215D4E970E1
:1049E00063EE2402F8EF3400F988088909120BBE3F
:1049F0008A0C8B0D8C0E8D0F908340780C1213DC7B
:104A00009082E4780C12143D850882850983780C25
:104A1000121485850882850983C082C08390080CA2
:104A2000E0F508A3E0F509E4F50AF50BD083D082A0
:104A300078081213DCEE240EF582EF3400F583784B
:104A4000081214851209C690086B7404F0EEFAEF90
:104A5000FB120B407F0C02171E74F012164CEAFE7C
:104A6000EBFFEE2402F8EF3400F988088909EE2400
:104A700006F8EF3400F9880A890B8882F58312184A
:104A800076850882850983121494120B9A74021297
:104A900015D4850A82850B831218768508828509CC
:104AA00083121494120B8E74021215D4EE240EF598
:104AB00082EF3400F583121494120BA08E828F8340
:104AC000E06440701CEE2412F8EF3400F98882890B
:104AD00083E0906064F088828983A3E090606580C1
:104AE00006906064E4F0A3F090086CEEF0A3EFF0A1
:104AF000EE2416F582EF3400F583E0F8A3E0F583A9
:104B0000888212164A906054E4F0A3F0A3F0A3F058
:104B1000A3F0A3F0A3F0A3F0A3F0A3F0A3F0A3F0FD
:104B2000906182E0C2E6F07591BFEE2415F582EF48
:104B30003400F583E064017003120BD0E5E170FCF2
:104B4000EE2414F582EF3400F583E0F46003E0F521
:104B5000E1EE2415F582EF3400F5837401F0900442
:104B60009FE06401706F120BBE8A088B098C0A8D5E
:104B70000B780812185B8E828F83A3A312149412F1
:104B80001ED474041215D48A088B098C0A8D0B90DC
:104B90008338780C1214767808790C1212A27403F8
:104BA0007808121391E50824F4F508E5093401F5B5
:104BB00009900816E06003121104E4F50AF50B7879
:104BC0000812185B7A207B00900498E0F91211AC6F
:104BD00074041215D47F0802171E74EC12164CEAE6
:104BE000FEEBFF8C088D09EE4F70057902024CCF69
:104BF000120BBE8A0C8B0D8C0E8D0F9082D8780C08
:104C00001213DC9082E4780C12143D8E828F83E0C4
:104C10006402701F9007F4E0F8A3E0F9A3E0687065
:104C200003A3E06970248E828F83A3A3780C1214EF
:104C3000858017E06404701290080AE0F8A3E0F998
:104C4000A3E0687003A3E06960DC780C12185B8550
:104C50000882850983A3A3121494121ED47404122B
:104C600015D48A108B118C128D1390833478101206
:104C700012834003024BEB850882850983A3A37846
:104C80000812147690835C78081213DC78081218E6
:104C90005B8E828F83A3A3121494121E7774041266
:104CA00015D4E96003024BEB908330780C1213DCCF
:104CB000780C12185B8E828F83A3A3121494121E99
:104CC0007774041215D4E970047900800279010226
:104CD0004A5474F012164C890874FF650860030288
:104CE0004E5E90086AE05407700302532A7A0078F7
:104CF00069790888828983A3A3A3A3A3E0640470CD
:104D000050EA75F018A4F8A9F0746F28F5827408B9
:104D100039F583E0640170487A00786979088882FF
:104D20008983A3A3A3A3A3E064046003024DB68810
:104D3000828983A3A3A3A3A3A3E064017078EA7587
:104D4000F018A4F8A9F0746E28FA740839FB02531D
:104D50002E0AE82418F8E93400F9EAC394044093D1
:104D60007A007869790888828983A3A3A3A3A3E042
:104D700064017057EA75F018A4F8A9F0746F28F56B
:104D800082740839F583E06401704F7A007869799C
:104D90000888828983A3A3A3A3A3E064016003021C
:104DA0004E3A88828983A3A3A3A3A3A3E0640160EE
:104DB00003024E3A80880AE82418F8E93400F9EA38
:104DC000C394045003024D1E02532A0AE82418F823
:104DD000E93400F9EAC39404408C7A0078697908D0
:104DE00088828983A3A3A3A3A3E064027061EA7508
:104DF000F018A4F8A9F0746F28F582740839F583C7
:104E0000E0640170597A007869790888828983A3FF
:104E1000A3A3A3A3E06402707A88828983A3A3A3D7
:104E2000A3A3A3E06401706BEA75F018A4F8A9F0DD
:104E3000746E28FA740839FB806F0AE82418F8E9C0
:104E40003400F9EAC394045003024D9102532A0A34
:104E5000E82418F8E93400F9EAC3940440827A009F
:104E60007869790888828983A3A3A3A3A3E065084E
:104E7000703D88828983A3A3A3A3A3A3E0640170E8
:104E80002EEA75F018A4F8A9F0746E28FE7408399B
:104E9000FF802F0AE82418F8E93400F9EAC39404E3
:104EA0005003024E0B7A007B0002532E02532A0A53
:104EB000E82418F8E93400F9EAC3940440A67E0017
:104EC0007F007A007869790888828983A3A3A3A3E5
:104ED000A3E06508701BEA75F018A4F8A9F0746FD8
:104EE00028F582740839F583E0640170137A018033
:104EF000110AE82418F8E93400F9EAC3940440C818
:104F00007A00E50814600F1470030250C724FE7085
:104F10000302522180967B00786979088882898310
:104F2000A3A3A3A3A3E064027055EB75F018A4F843
:104F3000A9F0746F28F582740839F583E064017074
:104F40004D7B007869790888828983A3A3A3A3A3F2
:104F5000E064026003024FFD88828983A3A3A3A3B8
:104F6000A3A3E064016003024FFDEB75F018A4F801
:104F7000A9F0746E28F50A740839F50B0250150B68
:104F8000E82418F8E93400F9EBC39404408E7B0060
:104F90007869790888828983A3A3A3A3A3E0640422
:104FA0006003025051EB75F018A4F8A9F0746F2853
:104FB000F582740839F583E0640160030250637B75
:104FC000007869790888828983A3A3A3A3A3E064F6
:104FD00004600302506E88828983A3A3A3A3A3A3C2
:104FE000E06401600302506EEB75F018A4F8A9F0BC
:104FF000746E28F50A740839F50B0250860BE82404
:1050000018F8E93400F9EBC394045003024F4775D4
:105010000A00750B00EAA2E040030250B9850A823B
:10502000850B83A3A3780C12147690832C780C1232
:1050300013DC780C12185B8E828F83A3A312149456
:10504000121E7774041215D4E9706EEEFAEF024D59
:105050004D0BE82418F8E93400F9EBC3940450032D
:10506000024F94EAA2E05058EEFAEFFB80560BE8AC
:105070002418F8E93400F9EBC394045003024FC537
:10508000750A00750B00EAA2E0502E850A82850B96
:1050900083A3A3780C12147690832C780C1213DC63
:1050A000780C12185B8E828F83A3A3121494121EA5
:1050B0007774041215D4E96092AA0AAB0B02532E3E
:1050C0007A007B0002532E7B0078697908888289F8
:1050D00083A3A3A3A3A3E064047052EB75F018A408
:1050E000F8A9F0746F28F582740839F583E064013B
:1050F000704A7B007869790888828983A3A3A3A377
:10510000A3E06404600302519588828983A3A3A36A
:10511000A3A3A3E06401707DEB75F018A4F8A9F0D7
:10512000746E28F50A740839F50B0251AD0BE824AA
:1051300018F8E93400F9EBC3940440917B007869D6
:10514000790888828983A3A3A3A3A3E064016003F1
:105150000251E9EB75F018A4F8A9F0746F28F582F4
:10516000740839F583E0640160030251FB7B007829
:1051700069790888828983A3A3A3A3A3E06401605B
:105180000302520688828983A3A3A3A3A3A3E06496
:1051900001707380830BE82418F8E93400F9EBC33D
:1051A000940450030250F8750A00750B00EAA2E05F
:1051B00040030250B9850A82850B83A3A3780C12A1
:1051C000147690832C780C1213DC780C12185B8EFA
:1051D000828F83A3A3121494121E7774041215D421
:1051E000E960030250B902504B0BE82418F8E93487
:1051F00000F9EBC394045003025142EAA2E0501AB2
:10520000EEFAEFFB80180BE82418F8E93400F9EB0C
:10521000C394045003025173808D7A007B000253C3
:105220002E7B007869790888828983A3A3A3A3A32E
:10523000E064017040EB75F018A4F8A9F0746F28D1
:10524000F582740839F583E0640170387B00786971
:10525000790888828983A3A3A3A3A3E064016003E0
:105260000252E688828983A3A3A3A3A3A3E06401D7
:1052700070740251180BE82418F8E93400F9EBC3F4
:10528000940440A37B007869790888828983A3A36A
:10529000A3A3A3E064027063EB75F018A4F8A9F06F
:1052A000746F28F582740839F583E06401705B7BC4
:1052B000007869790888828983A3A3A3A3A3E06403
:1052C00002704F88828983A3A3A3A3A3A3E06401F0
:1052D0007040EB75F018A4F8A9F0746E28F50A7404
:1052E0000839F50B80410BE82418F8E93400F9EB94
:1052F000C3940450030252520251A70BE82418F839
:10530000E93400F9EBC394044080EAA2E0501B02A8
:10531000504B0BE82418F8E93400F9EBC39404402F
:1053200094750A00750B000251AD7A007B00024BA8
:10533000D574F612164C89097508007869790888C1
:10534000828983A3A3A3A3A3A3E0600302540DE572
:105350000875F018A4F8A9F0746E28FE740839FFD7
:105360008E828F83A37401F08E828F83E509F01201
:105370000BBE8E828F83A3A31214A08E828F83A371
:10538000A3A3A3A3A3E4F0A3F0908304121494EEC8
:10539000240EF582EF3400F5831214A0EE2414F5E8
:1053A00082EF3400F5837401F0EE2415F582EF34BA
:1053B00000F5837401F0EE2416F582EF3400F583D6
:1053C000E4F0A3F090086AE04509F0900869E00471
:1053D000F06401600C7480650960067440650970B2
:1053E00019E50875F018A4F8A9F0746E28F8740887
:1053F00039F990086CE8F0A3E9F0E50875F018A415
:10540000F8A9F0746E28FA740839FB80180508E8CA
:105410002418F8E93400F9E508C394045003025352
:105420003F7A007B0080007F0202171EC082C0838B
:105430008A828B83E0F8A3E0F98A828B83E4F0A36D
:10544000F088828983A3F088828983E0F4F8900849
:105450006AE058F0900869E014F0700B90086CE472
:10546000F0A3F0900499F0801CC082C0839008697A
:10547000E0600A90086CE0FAA3E0FB80047A007B0D
:10548000008002E0F9D083D08202011FC082C08375
:10549000E9FB7A007869790888828983A3A3A3A3AA
:1054A000A3E06B7016EA75F018A4F8A9F0746F28E1
:1054B000F582740839F583E0F980110AE82418F8B8
:1054C000E93400F9EAC3940440CE790080B7C08281
:1054D000C08390086902548374F612164CEAFEEBFE
:1054E000FF9061D0E0C0E0EE2400F582EF3401F5DA
:1054F00083D0E0F09061D7E0FA9061D5E0C39A5490
:105500007FC0E0EE2401F582EF3401F583D0E0F0B6
:10551000EE2402F8EF3401F99061D6E0C39A547F8B
:1055200088828983F0701A9061C5E0A2E45012E08D
:10553000A2E7500DEE2402F582EF3401F58374806A
:10554000F0120C84EE2401F582EF3401F583E07053
:1055500034EE2402F582EF3401F583E07027906188
:10556000C5E0A2E4501FE0A2E7501AEE2402F58243
:10557000EF3401F5837480F0EE2401F582EF3401FD
:10558000F5837480F075E1957800EE2400F582EFE4
:105590003401F583E060279061D3E0C0E08808EE35
:1055A0002508F582EF3400F583D0E0F008EE240002
:1055B000F582EF3401F583E0F9E8C39940D975E14C
:1055C0009102542774F612164CEAFEEBFF9061C864
:1055D000E0C0E0EE2403F582EF3401F583D0E0F083
:1055E0009061CFE0FA9061CDE0C39A547FC0E0EEC5
:1055F0002404F582EF3401F583D0E0F0EE2405F8C1
:10560000EF3401F99061CEE0C39A547F8882898398
:10561000F0701A9061C5E0A2E05012E0A2E3500DD4
:10562000EE2405F582EF3401F5837480F0120C8AC4
:10563000EE2404F582EF3401F583E07034EE2405A6
:10564000F582EF3401F583E070279061C5E0A2E0B8
:10565000501FE0A2E3501AEE2405F582EF3401F565
:10566000837480F0EE2404F582EF3401F5837480B6
:10567000F0120C907A00EE2403F582EF3401F583EA
:10568000E0602F9061CBE0C0E08A08EE2508F8EFDB
:105690003400F9E82480F582E93400F583D0E0F0A5
:1056A0000AEE2403F582EF3401F583E0F8EAC398AB
:1056B00040D175E18102542774F412164C8908A870
:1056C00008E875F08AA4C8AAF02AF974CE28FE74F6
:1056D0000839FFEEFAEFFB120B76EEFAEFFB120B36
:1056E00070750A80750B00780A12185F7C007D6067
:1056F000EE2406FAEF3401FB120ABC74021215D430
:10570000906195E0C0E0EE2486F582EF3401F583E8
:10571000D0E0F0906196E0C0E0EE2487F582EF34AF
:1057200001F583D0E0F0906197E0C0E0EE2488F5C9
:1057300082EF3401F583D0E0F0906198E0C0E0EEB4
:105740002489F582EF3401F583D0E0F07F0402175D
:105750001E74F212164C8908A808E875F08AA4C8CD
:10576000AAF02AF974CE28F8740839F99061C6E0D5
:10577000FDE054F0F075E1817C00E82403F582E956
:105780003401F583E0602B8C0AE8250AFAE934003D
:10579000FBEA2480F582EB3400F583E09061CAF0E7
:1057A0000CE82403F582E93401F583E0FAECC39AAE
:1057B00040D5E82405F582E93401F583E0600490E2
:1057C00061CEF0E82404F582E93401F583E0600459
:1057D0009061CDF0ED9061C6F0A808E875F08AA45C
:1057E000C8AAF02AF974CE28F8740839F9E0FCE068
:1057F000540FF075E1917A00E82400F582E9340154
:10580000F583E060238A0AE8250AF582E93400F589
:1058100083E09061D2F00AE82400F582E93401F5D2
:1058200083E0FBEAC39B40DDE82402F582E9340112
:10583000F583E060049061D6F0E82401F582E93454
:1058400001F583E060049061D5F0EC9061C6F085CD
:105850000882AE82EEF875F08AA4C8AAF02AF9741C
:10586000CE28F50A740839F50B750C80750D007893
:105870000C12185FE50A2406FCE50B3401FD7A00E2
:105880007B60120ABC74021215D4A80AA90BE82482
:1058900086F582E93401F583E0906195F0E824878C
:1058A000F582E93401F583E0906196F0E82488F50B
:1058B00082E93401F583E0906197F0E82489F5826C
:1058C000E93401F583E0906198F0EE75F006A4CE1E
:1058D000A8F028FF74C92EF58274043FF583E0F820
:1058E000A3E0F5838882E06480704190102374FE09
:1058F000F0A3740AF0A374E6F0A3740AF0A374FE94
:10590000F0A3740AF0A374FEF0A3740AF0A374E683
:10591000F0A3740AF0A374FEF0A3740AF0A3740455
:10592000F0A3740BF09004997408800590049974A6
:1059300007F090103174E6F0A3740AF0A374E6F057
:10594000A3740AF0A374E6F0A3740AF0A374E6F05B
:10595000A3740AF0A374E6F0A3740AF0A374E6F04B
:10596000A3740AF07F0602171EC082C083E990105C
:1059700001F0D083D08202011F74F612164CE99018
:105980000364F07CA47D037AFF7BFF1206FC7A009F
:105990008A08750900740278081215AB7465250829
:1059A000F8740335091259C8A3F00AEAC3940340F6
:1059B000DF790512068A900364E0F91205B27A14C1
:1059C0007B071208CA026F49F98882898374FF1223
:1059D00059D5E4F022F0A3126DD6A32274F4121666
:1059E0004C8A088B09EB54806030900364E0F91214
:1059F000108C8A0A8B0BAE0AAF0BEE4F60138E82AF
:105A00008F83E064B0700312069CEEFAEFFB121075
:105A10007AAA08E5096480FB80047A007B00025BB7
:105A2000A574F212164C74FC1215BEEAFEEBFF745C
:105A300012121628126E1FEE4F7003025AC474021F
:105A4000121628EEF0A3EF125E00ECF0A3ED125E4A
:105A500000AA82AB831205ACE9F50A706AE5084535
:105A60000960648E828F83126E00EE4F60567A0654
:105A70007B001211168A0C8B0DA80CA90DE8497039
:105A800005750A13804188828983E41259D5EEF0A6
:105A9000A3EF126E30E508F0A3E509F0900372124F
:105AA0005B9F90037270051268BD801B1268AB800B
:105AB00003EAFCEBFD8C828D83125B9F70F38C827A
:105AC0008D8380E3750A02A90A74041215D402704A
:105AD0001374F212164C890AE975F045A4FEAFF072
:105AE000900371E4F0900367125B9F602812111C11
:105AF00079008908750900740278081215AB74677B
:105B00002508F58274033509F583E4F0A3F009E96B
:105B1000C3940340DDEEFAEFFB1211168A088B09DD
:105B2000EA45096075EEFCEFFD79001210627D0018
:105B30008D0C750D007402780C1215AB7467250C72
