:020000040000FA
:06000000020107021D9E33
:03002B0002201B95
:03003300021FFDAC
:03003B000220356B
:03004300021FB1E8
:03005300021E1476
:03006B00021FD79A
:10008300021C8FE5C754F84401F5C779012200002B
:100093000080FB120086B900030200F1E4791A78AC
:1000A30002B800028004F709D8FCE4791C7802B88E
:1000B30000028004F709D8FCE4900281788B790F61
:1000C3008002F0A3D8FCD9FA7A0B7B119001377820
:1000D300D479018015E493A3AD82AE838A828B83A6
:1000E300F0A3AA82AB838D828E83D8E9D9E7758288
:1000F300B67583C0740312011975829175830074F8
:100103000012011975D00075813F751881751902A8
:10011300759F00020096C09FF59FE473D09F22D085
:1001230083D082C09FE493C0E0740193C0E0740263
:1001330093F59F229603A803D2039C03FF0000B408
:10014300000028002800283075A000A000A000A00F
:100153000000080008E001F000100010001000107B
:10016300001000100050005000500010001000D08C
:10017300070000000000000F0001000500307507B4
:10018300001000010081FF0000FF020202A9940198
:1001930000008C9402A1940100006111029B940160
:1001A3000000B10202A194010000621102999401BE
:1001B3000000C702FFFF0100FF2002A99401000015
:1001C3008F9402A194010000901102959400000005
:1001D3000000029D94030000A403820B820B820B98
:1001E300820B820B820B820B820B820B820B820BA4
:1001F300820B820B980DB60D920D01E803053F109B
:1002030002FFFFFF00FEFF12012276B90312012253
:100213008CB903120122B9B903120122E9B90312FD
:10022300012200BA0312012221BA0312012252BA97
:1002330003120122A3BA03120122BABA0312012242
:10024300C8B103120122DFB1031201220EB203125D
:10025300012247B2031201226FB2031201229DB29F
:1002630003120122B4B203120122CBB20312012200
:10027300E1B20312012208B3031201221BB30312DA
:10028300012231B30312012259B303120122228D39
:1002930002120122218E021201224B8E021201222E
:1002A300A08E02120122C18E02120122DA8E0212E4
:1002B3000122DC8E02120122FD8E02120122009025
:1002C30002120122BD90021201228A91021201221E
:1002D300EE910212012285920212012288920212E9
:1002E30001220E9302120122519302120122A393BF
:1002F30002120122A69302120122DD9302120122AD
:100303000494021201229A940212012223950212EA
:1003130001226C95021201227995021201227C9529
:1003230002120122DA9502120122F295021201222F
:100333006C96021201226F96021201229296021209
:1003430001229596021201223C97021201225F9725
:1003530002120122779702120122A79702120122A9
:10036300B49702120122B7970212012223980212B4
:100373000122119902120122C7990212012221AF0F
:1003830002120122FCAF021201222AB00212012240
:10039300AAB002120122CAB00212012208B102124B
:1003A30001225BB102120122C3B10212012254B233
:1003B300021201221FB3021201222EB602120122DF
:1003C3009AB702120122BDB702120122EC9B03125B
:1003D30001227D9D03120122CE9D031201222D9E37
:1003E300031201223B9E03120122649E0312012287
:1003F30084EB02120122ACEB02120122DAEB0212AD
:10040300012211EC0212012279EC02120122C2EC48
:10041300021201220DED021201224BED0212012202
:1004230088ED02120122B6ED021201225DEE0212E4
:10043300012267EE0212012274EE02120122A7EEDC
:100443000212012269EF0212012275EF0212012248
:100453008DEF0212012297EF0212012215F0021210
:100463000122D5BC03120122E3BC03120122FBBC0F
:100473000312012213BD031201222BBD0312012219
:1004830089D60112012227D7011201229FD7011217
:100493000122B4D801120122EED80112012297D908
:1004A300011201226CDA01120122D0DB01120122B6
:1004B30027DC01120122AEDC0112012295DD0112BB
:1004C3000122E2DD0112012270DE0112012294DE1B
:1004D3000112012269E001120122AAE001120122A4
:1004E300CCE00112012291E10112012257E2011233
:1004F30001228CE4011201227C94031201229294C2
:1005030003120122B89403120122E095031201227F
:10051300EA9503120122439703120122439803121F
:1005230001227CFA021201221EFB0212012251FB5C
:10053300021201229BFB0212012255FD021201222B
:10054300AF94011201222D95011201223D95011252
:1005530001222096011201222A96011201225896A5
:10056300011201226396011201223C97011201221A
:100573009E97011201223A98011201223E9A01121A
:100583000122F59B01120122719C011201224E9D51
:10059300011201227CA0011201221AA101120122DF
:1005A30077A201120122EAA30112012293A40112EC
:1005B3000122DCA40112012213A501120122B8A514
:1005C3000112012236A60112012209B901120122E8
:1005D3005EB901120122A3BA01120122B3BA0112B8
:1005E3000122D6BA0112012221BB01120122C6BB8C
:1005F30001120122BCBC0112012286BD011201229B
:10060300FEBE0112012240BF01120122DEBF011210
:10061300012204C001120122F2C101120122F7C119
:1006230001120122D8C3011201222CC4011201229A
:100633008EC401120122B6C4011201225AC501124D
:1006430001221CC6011201224DC60112012250C60D
:100653000112012298C601120122DAC601120122F7
:1006630041C701120122B4AB03120122C7AB03122B
:100673000122D0AB03120122E9AB0312012234ACF5
:10068300031201220FAD031201229EAD03120122B8
:10069300E9AD03120122A82000120122B8200012A2
:1006A30001221B21001201226021001201221022CB
:1006B30000120122E9220012012212230012012258
:1006C3004223001201225625001201223227001272
:1006D30001221229001201224A2A00120122C32CEC
:1006E30000120122AF2D00120122F52E0012012269
:1006F3000230001201224430001201227C30001229
:100703000122963000120122FE3000120122983598
:10071300001201223936001201228D360012012205
:10072300B43600120122F2360012012211370012F0
:1007330001226537001201226D3800120122F638BA
:100743000012012209E00212012213E00212012227
:10075300AFE0021201227AE10212012299E10212B0
:100763000122BFE102120122FEE10212012236E25E
:10077300021201225FE20212012299E20212012215
:10078300AEE2021201227BE3021201229EE3021275
:100793000122C0E302120122D5E3021201225FE427
:1007A3000212012299E4021201220DE50212012232
:1007B30056E50212012280E502120122A5E502128A
:1007C30001229090031201225A91031201223D92B9
:1007D30003120122B39203120122F59203120122A2
:1007E3002294031201229BE401120122C4E40112A8
:1007F3000122DDE40112012222E60112012200E7B7
:10080300011201221FE701120122ACE701120122AA
:10081300EFE70112012227E90112012293E90112F4
:10082300012289EB0112012217EE01120122AAEE25
:10083300011201227EEF0112012221F00112012295
:1008430034F101120122CAF101120122D1BA0312B9
:1008530001223ABB031201228EBB03120122BDBB4C
:10086300031201220080031201226D800312012270
:10087300B88003120122AD8103120122A98203125F
:100883000122938303120122207900120122677946
:1008930000120122407A001201223B7B0012012246
:1008A3001A7C00120122867C00120122A27D001212
:1008B3000122097E001201220C7E00120122377EE2
:1008C30000120122A87E001201224B7F0012012296
:1008D300607F00120122A87F00120122C17F001253
:1008E3000122C47F001201227C9F03120122B89FC0
:1008F30003120122F69F03120122C0A00312012258
:1009030033A1031201226EA103120122ACA103122F
:100913000122DCA10312012203A2031201226EA20F
:1009230003120122B0A20312012255510012012227
:10093300175300120122AF54001201225655001220
:1009430001229D5500120122E15500120122F355A7
:1009530000120122335600120122625600120122B4
:10096300AD5600120122ED56001201221B57001250
:1009730001226C5700120122F95700120122425939
:1009830000120122365A00120122EB5B00120122EF
:100993008E6000120122D760001201221E61001234
:1009A30001223463001201220EA90312012280A93D
:1009B30003120122D6A9031201221AAA0312012249
:1009C3003AAA0312012287AA03120122CFAA031211
:1009D300012222AB0312012273AB031201225D3900
:1009E30000120122A63900120122D339001201227A
:1009F300063A00120122163A00120122223A00128C
:100A03000122333A00120122083B00120122663B05
:100A1300001201229B3B00120122373D00120122EA
:100A2300893D00120122D73D00120122333E0012FC
:100A330001222F3F00120122B540001201228C41F6
:100A4300001201229C4100120122B841001201222E
:100A5300BB41001201227542001201223E430012E3
:100A63000122E44300120122434400120122CB4439
:100A730000120122304500120122BF45001201225B
:100A8300884600120122254700120122AC470012BA
:100A930001220348001201226448001201229E48E9
:100AA300001201224C4900120122444B0012012280
:100AB300944B00120122D74B001201224C4C00121E
:100AC3000122D84C00120122234D00120122484D6D
:100AD30000120122994D00120122BB4D0012012286
:100AE300004E001201226F4E00120122B14E00127D
:100AF3000122B14F001201223950001201220A5182
:100B030000120122235100120122F5B80212012220
:100B130048B90212012254B90212012229BA02125F
:100B2300012250BA021201228BBA02120122F7BA31
:100B3300021201222BBB0212012264BB0212012208
:100B43007CBB02120122D5BB02120122EEBB0212B0
:100B5300012237BC021201224ABC0212012264BCE8
:100B6300021201227ABC0212012296BD0212012254
:100B7300A7BE02120122F4BF02120122D9C002123F
:100B83000122FD7F00120122A7F50212012219F9A9
:100B93000212012231FA0212012200800212012202
:100BA300F38502120122F9850212012279880212C9
:100BB3000122A6F00212012251F10212012201F2D6
:100BC3000212012226F2021201221DF40212012254
:100BD30070F502120122EAA6011201221EA70112D8
:100BE300012272AF01120122BEB001120122DBB158
:100BF3000112012265B30112012247B4011201223D
:100C030081B401120122A4B401120122E6B401123B
:100C1300012230B5011201223AB501120122E6B5D3
:100C230001120122BAB6011201220EB701120122EA
:100C330070B701120122C3B701120122F2B70112E8
:100C4300012231B801120122F8A2031201226EA37C
:100C53000312012284A303120122C1A3031201225E
:100C6300F9A30312012276A403120122B1A40312F1
:100C730001222CA50312012268A50312012271A5EA
:100C8300031201227DA50312012297A5031201225B
:100C9300BCA503120122D2A50312012216A6031238
:100CA30001224BD9021201225ED90212012278D904
:100CB30002120122A1D902120122E4D90212012255
:100CC30023DA0212012261DA02120122C6DA0212C7
:100CD3000122DBDA02120122F2DA0212012200DB24
:100CE300021201220FDB0212012224DB0212012273
:100CF30039DB0212012244DB0212012250DB021211
:100D030001225DDB0212012270DB021201227BDB76
:100D130002120122A0DB0212012249DC021201228B
:100D23005EDC0212012273DC021201228DDC02124C
:100D33000122A8DC02120122C5DC02120122D0DC4E
:100D4300021201228CDD0212012278DE021201223C
:100D53009DDE02120122A7DE02120122BBDE021275
:100D63000122DADE021201223BDF0212012241DFFD
:100D73000212012247DF021201224DDF0212012279
:100D830059DF021201228CDF02120122EAA40212AD
:100D9300012216A502120122FAA50212012294A829
:100DA30002120122AAA902120122C7AA02120122D7
:100DB3006AAB0212012210AC0212012246F20112A6
:100DC3000122C8F20112012271F301120122B9F4C6
:100DD30001120122C7F601120122ADF7011201220D
:100DE300E2F70112012204F801120122ADF8011207
:100DF30001227DFA01120122A6FA011201221EFB31
:100E03000112012250FB011201225DFB011201229A
:100E1300A8FB01120122CCFB011201221DFE0112CB
:100E2300012227FF0112012283FF011201220BC8B5
:100E3300011201221CC90112012200CA011201225E
:100E43000ACA011201222CCA0112012238CA011254
:100E53000122DCCB0112012209CC011201221FCD98
:100E63000112012274CD01120122C3CE011201220B
:100E730098CF01120122F4CF011201225FD0011297
:100E8300012294D001120122D7D001120122A1D351
:100E930001120122B9D3011201224AD40112012203
:100EA30058D401120122A5D401120122B3D4011294
:100EB30001221FD5011201229AD501120122F1D577
:100EC300011201220FB00312012234B003120122D6
:100ED300AAB0031201225CD20212012265D20212CD
:100EE30001226ED20212012246D302120122F7D44A
:100EF3000212012227D50212012252D50212012227
:100F030082D502120122ADD502120122E1D50212CD
:100F130001220DD60212012250D6021201227BD6E3
:100F230002120122C2D60212012217D70212012293
:100F330059D702120122B3D702120122DED70212BD
:100F430001222DD8021201225DD80212012288D873
:100F530002120122ABD80212012210BF0312012296
:100F63003CBF0312012269BF0312012273BF0312A4
:100F7300012283BF03120122CDE5021201220CE6F6
:100F83000212012295E602120122A8E602120122B0
:100F9300F3E60212012227E70212012266E7021298
:100FA300012275E70212012227E80212012280E8DA
:100FB30002120122CFE80212012225E902120122C4
:100FC3001AEA021201220FEB021201224CEB021267
:100FD3000122F7BF031201226165001201225F673C
:100FE30000120122E06800120122E26900120122CC
:100FF3006A6A00120122EF6A00120122186B0012C2
:101003000122686B001201225B6F00120122CC6F78
:1010130000120122B87000120122F27000120122A4
:1010230032710012012265720012012296720012BF
:101033000122E97200120122327300120122A0730D
:1010430000120122D27300120122EC73001201225A
:10105300DE7400120122EE74001201229D7600124A
:101063000122B47600120122E6760012012268788A
:1010730000120122E17800120122C4BD03120122F1
:10108300D5BD0312012209C10312012248C1031273
:101093000122E87F0012012273BE0312012283BEE4
:1010A300031201229EBE0312012206BF0312012274
:1010B300F8FE021201227CFF02120122E4FF021257
:1010C300012285B603120122AEB6031201221BB719
:1010D300031201226EB703120122C7B703120122C2
:1010E3005584031201228C8403120122FC8403120F
:1010F30001221185031201221886031201229F8601
:10110300031201226587031201228487031201223D
:10111300A98703120122DE8703120122F687031235
:1011230001224788031201224D9803120122679876
:1011330003120122E09803120122B599031201223E
:10114300879B031201227C88031201220C8903125C
:1011530001228A89031201220E8A03120122A08A24
:10116300031201225C8B03120122298C0312012238
:10117300338C03120122428C03120122588C031276
:1011830001226B8C03120122758C03120122888CBD
:1011930003120122FAB40312012223B5031201221E
:1011A3004CB503120122E6B503120122FEB5031268
:1011B300012240B6031201227ACA0212012284CA12
:1011C30002120122C4CA021201220DCB0212012211
:1011D30047CB021201229DCB02120122BCCB021289
:1011E300012244CE021201224DCE021201229ECED2
:1011F30002120122C7CE02120122D1CE0212012213
:1012030042CF02120122D0CF0212012225D00212B4
:10121300012254D002120122D0D0021201220DD198
:101223000212012244D10212012256D102120122DA
:1012330075D1021201227ED10212012230D2021292
:1012430001226BB303120122BBB3031201222DB49B
:101253000312012295B40312012246A603120122AE
:1012630070A60312012237A70312012213A8031247
:1012730001229BA803120122DEBB0312012213AE3B
:101283000312012249AE031201227CAE0312012292
:10129300D5AF031201228DBF03120122A3BF031294
:1012A3000122ADBF0312012257C00312012296C2CD
:1012B3000212012253C3021201228EC3021201221F
:1012C300BFC30212012221C4021201226DC4021201
:1012D3000122D8C40212012252C50212012251C6B0
:1012E30002120122D8C7021201225BC80212012294
:1012F300C1C802120122D4C802120122CFC90212AC
:1013030001221CCA021201228B8C03120122A18C1E
:1013130003120122458D03120122848D031201223F
:10132300A18D03120122D28D031201221F8E0312FB
:101333000122538E031201228E8E03120122839007
:101343000312012202B80312012210B80312012270
:101353007BB803120122CDB803120122EBB80312AA
:1013630001223F9A021201224B9B021201221A9C74
:1013730002120122D89E02120122B89F02120122F8
:10138300F89F0212012221A2021201228CA2021250
:10139300012245A3021201226EA402120122D0FFF0
:1013A3000112012252C10312012289C10312012237
:1013B300B2C103E066701008A3E066700A08A3E0F8
:1013C30066700408A3E06622C3E7960809E7960857
:1013D30009E7960809E79622C3E09608A3E0960872
:1013E300A3E09608A3E09622C008C3E096F5080898
:1013F300A3E096420808A3E096420808A3E09645B6
:10140300087001D3D00822080808EAC0E0EBC0E066
:1014130086F0E7A4FA180986F0E7A42AFA180986E1
:10142300F0E7A42AFA180986F0E7A42AFA1986F045
:10143300E7A4FBE5F02AFA190886F0E7A42BFBE5FD
:10144300F03AFA190886F0E7A42BFBE5F03AFA180C
:10145300180986F0E7A4C5F02BFBE43AFA1908E76C
:10146300C5F0C6A426F6E5F03BFBE43AFA1886F08D
:10147300E7A4F6E5F00826F6E43B08F6E43A08F6B6
:10148300D0E0FBD0E0FA22E4CFC0E0E4CEC0E0E459
:10149300CDC0E0E4CCC0E075F020E626F608E633E4
:1014A300F608E633F608E633F6181818EC33FCEDC5
:1014B30033FDEE33FEEF33FFC3EC9709ED9709EEEF
:1014C3009709EF97191919400FFFEC97FC09ED974E
:1014D300FD09EE97FE191906D5F0BFECF709EDF7F4
:1014E30009EEF709EFF7191919D0E0FCD0E0FDD0A8
:1014F300E0FED0E0FF226016080808C6C313C61832
:10150300C613C618C613C618C613C6D5E0EA22709A
:1015130009080808226016181818C6C333C608C677
:1015230033C608C633C608C633C6D5E0EA22E62763
:10153300F60809E637F60809E637F60809E637F646
:1015430022E026F608A3E036F608A3E036F608A361
:10155300E036F622E026F008A3E036F008A3E036F2
:10156300F008A3E036F022C3E697F60809E697F6FB
:101573000809E697F60809E697F622C3E096F0080D
:10158300A3E096F008A3E096F008A3E096F022E625
:1015930057F60809E657F60809E657F60809E65725
:1015A300F622E056F608A3E056F608A3E056F6083E
:1015B300A3E056F622E056F008A3E056F008A3E0B5
:1015C30056F008A3E056F022E066F608A3E066F6BC
:1015D30008A3E066F608A3E066F622E0F608A3E0B7
:1015E300F608A3E0F608A3E0F622E6F008A3E6F087
:1015F30008A3E6F008A3E6F022E0FAA3E0FBA3E0E9
:10160300FCA3E0FD22EAF0A3EBF0A3ECF0A3EDF0E2
:1016130022E0F8A3E0F9A3E0FAA3E0FB22E8F0A3B9
:10162300E9F0A3EAF0A3EBF022CAC0E0E6F0A308D6
:10163300DAFAD0E0FA22CAC0E0E0A3C582CCC582C0
:10164300C583CDC583F0A3C582CCC582C583CDC573
:1016530083DAE6D0E0CA22C3E498F8E499F91216D3
:101663009B8026C3E49AFAE49BFBE920E7E9121680
:101673009BE498F8E499F922C3E498F8E499F91201
:10168300169BE498F8E499F9C3E49AFAE49BFB22E5
:10169300EB20E7CFE920E7E0B90010BB0008E88AB8
:1016A300F084F8AAF022E4FBC8FA22EB70227B1044
:1016B300C833C8C933C9335007C39AC3DBF28006A2
:1016C3009A50012ADBEAC833F4C8C933F4C9FA22B1
:1016D30075F008E4C833C8C933C933C99AC99B50E4
:1016E30004C92AC93BD5F0ECFBC833F4C8E4C9FAF2
:1016F30022600D08C6A2E713C618C613C6D5E0F3C9
:1017030022600C08C6C313C618C613C6D5E0F4225C
:10171300700422600D18C6C333C608C633C6D5E0AD
:10172300F41822251810AF08F518400C1519800875
:10173300F51840021519D2AF2200C0D0251810AFFA
:1017430008F518500C05198008F51850020519D230
:10175300AFD0D0222518F58210AF08F518400C152C
:10176300198008F51840021519D2AF85198322C5CF
:10177300822518C582C583351910AF07F5198582EF
:10178300188007F519858218D2AFC583222518F56D
:1017930082E43519F583222518F8E43519F9222551
:1017A30018FAE43519FB222518FCE43519FD22E467
:1017B300732518C582C0E0E51934FFC583C0E0E591
:1017C30018C3958224F810AF088583198582188081
:1017D30008858319858218D2AFCEF0A3E520F0A344
:1017E3007808E608F0A3DEFAEFF0A3E58124FAF81F
:1017F300E608F0A3E608F0A3E608F0A30808E60865
:10180300F0A3E608F0A315811581D0E0FED0E0F83F
:10181300158115811581E8C0E0EEC0E0222518C5C9
:1018230082C0E0E51934FFC583C0E0E518C39582A3
:1018330024F910AF088583198582188008858319D8
:10184300858218D2AFCEF0A3E520F0A37808E6088E
:10185300F0A3DEFAEFF0A3E58124FBF8E608F0A39A
:10186300E608F0A30808E608F0A3E608F0A315814C
:101873001581D0E0FED0E0F815811581E8C0E0EED7
:10188300C0E022851983851882E0A3FEE0A3F5203A
:101893007808E0A3F608DFFAE0A3FFE0A3C0E0E0E6
:1018A300A3C0E0E0A3C0E0E0A3C0E0E0A3C0E01079
:1018B300AF08858218858319800885821885831966
:1018C300D2AFD083D08202011F851983851882E0AD
:1018D300A3FEE0A3F5207808E0A3F608DFFAE0A36F
:1018E300FFE0A3C0E0E0A3C0E0E0A3C0E0E0A3C04A
:1018F300E010AF08858218858319800885821885D2
:101903008319D2AFD083D08222C0D02518C582C01C
:10191300E0E51934FFC583C0E0E518C3958224F3DD
:1019230010AF0885831985821880088583198582FD
:1019330018D2AFC8F0A3E9F0A3EAF0A3EBF0A379C0
:1019430008E709F0A3D8FAECF0A3EDF0A3EEF0A3B7
:10195300EFF0A3D0E0F0A3D0E0F0A3D0E0F0A3E554
:1019630020F0A3E5F0F0A322851983851882E0C057
:10197300E0A3E0F9A3E0FAA3E0FBA37808E0F6080C
:10198300A3DFFAE0FCA3E0FDA3E0FEA3E0FFA3E0F6
:10199300C0E0A3E0C0E0A3E0F5D0A3E0F520A3E01E
:1019A300A3F5F010AF088583198582188008858315
:1019B30019858218D2AFD082D083D0E0F8D0E0323C
:1019C30074048006740280027401C0E0F4041217E8
:1019D30057D0E012162C227404800474028000CCC9
:1019E300C0E0EDC0E0E518C39CCCAD1950011D105B
:1019F300AF068C188D1980068C188D19D2AF12166C
:101A030039D0E0FDD0E0FC22D083D082E9C0E0E40D
:101A130093A3C386F0C5F095F0F908E493A386F089
:101A2300C5F095F0700BE493A3C3994005E90480D6
:101A330002A3E475F002A42582F582E5F03583F56F
:101A430083D0E0F9E493A3C0E0E493C0E022D08321
:101A5300D082ECC0E0EDC0E0E493A3FCE493A3FDEB
:101A6300ED4C600D121A9DEC24FFFCED34FFFD805C
:101A7300EFE493A3FCE493A3FDED4C600D121ADC99
:101A8300EC24FFFCED34FFFD80EFD0E0FDD0E0FC63
:101A9300E493A3C0E0E493C0E022C0E0C3E49396E0
:101AA300087401939618400FE49366700808740154
:101AB30093661870007019A3A3C3E4939608740186
:101AC300939618A3A3400DD0E0D0E0D0E0021A8D86
:101AD300A3A3A3A3A3A3D0E022C0E0C0F088F0E4B3
:101AE300936670080874019366187000A8F0A3A3A6
:101AF300700BD0F0D0E0D0E0D0E0021A8DA3A3D0D9
:041B0300F0D0E0221C
:101B080074F5121820EAFEEBFFEE2434F8EF3400E7
:101B1800F988088909EE2435121C40F8EE2437129A
:101B28001C40F50AEC850AF0A4FCAAF0850AF0ED41
:101B3800A42AFDE82CF8E43DF97A257B0012169BCF
:101B4800EA850882850983F05407F87401B8000211
:101B58008004C333D8FCC0E0E0131313541FF8EE1D
:101B680028F8EF3400F9E8245DF582E93400F583BC
:101B7800D0E0F8E0586008850882850983801DEE6A
:101B88002436121C40F5F0EA84A8F0EE28F8EF3469
:101B980000F9E82438F582E93400F583E0F97F0498
:101BA8000218CC74F5121820EAFEEBFFEE2434126A
:101BB8001C40C0E0EE2435F582EF3400F583D0E018
:101BC800F08E828F83A3A3A3A3A3E0FAA3E0FB8EE6
:101BD800828F83A3A3A3A3A3A3A3E0FCA3E0FDECAC
:101BE800C39AF50AED9BF50BEE2480F508EF340057
:101BF800F509850882F583E06401702BEE2481F5F0
:101C080082EF3400F5831219DE121C497402121790
:101C18003CE960137CE27D07EEFAEFFB120A9E8531
:101C28000882850983E4F0AC0AAD0BEEFAEFFB12EB
:101C38001B08121FA3021BA6F582EF3400F583E0F0
:101C480022C082C083851882851983E0F8A3E0F951
:101C5800C3EA9CEB9D5012C3EC98ED994019C3EA76
:101C680098EB99501279018010C3EA98EB9940F5E6
:101C7800C3EC98ED9950EE7900D083D08222000011
:101C8800851A87851BC622C0E074EF12190C759B54
:101C980000906182E0A2E64003021D50E591A2E6B1
:101CA8004003021D507591BF900499E064057008C7
:101CB800120C78120C848003120C7E751A00120C18
:101CC800F0E990049AF07900120CD2120A027A0113
:101CD8007B00900498E0F9121218907803E06442AF
:101CE8006003021D99900817E014F06003021D9923
:101CF800C2AF121CFD00781DD0E0F618D0E0F6E562
:101D08009F5407F970059094008003909410780808
:101D18001215DEE9C4C0E0781CE65508F50808E6A7
:101D28005509F509740B7808121704D0E02508F84E
:101D3800906270E0A2E740F8E8C333906272F090D6
:101D48006270E0D2E0F08049E0A2E55024E591A27B
:101D5800E5501E7591DF900499E0640D70139004AE
:101D6800BBE004F064287002E4F07A00E0F9120D98
:101D780080906181E0A2E35009E5E9A2E350037590
:101D8800E9F7A3E0A2E75009E591A2E750037591AE
:101D98007F7F0402196BC0E0C0D0C082C08390610D
:101DA80083E0A2E05009E5BFA2E0500375BFFEE062
:101DB800A2E15009E5BFA2E1500375BFFDE0A2E230
:101DC8005009E5BFA2E2500375BFFBE0A2E350094A
:101DD800E5BFA2E3500375BFF7E0A2E45009E5BFF1
:101DE800A2E4500375BFEFE0A2E55009E5BFA2E504
:101DF800500375BFDFE0A2E65009E5BFA2E6500335
:101E080075BFBFD083D082D0D0D0E032C0E074F2AA
:101E180012190CE5A7A2E4500FE5A1A2E45009535A
:101E2800A7EF75A1EF121E68E5A7A2E5500CE5A182
:101E3800A2E5500653A7DF75A1DFE5A7A2E1500987
:101E4800E5A1A2E1500375A1FDE5A7A2E2500CE5CA
:101E5800A1A2E2500653A7FB75A1FB7F0102196BF3
:101E680074F8121820751A01900499E06406700736
:101E78007A007B00120C60A2AFE433FED2AF90046C
:101E88009FE0640170187A207B00900498E0F912B2
:101E9800132C7A207B00900498E0F912121E9061AE
:101EA80082E0D2E6F0900816E0602185C61B801615
:101EB80090049EE064017008E5C654F84405F5C630
:101EC80053BEFC121C887401651A60E4EEA2E0920D
:101ED800AF7F010218CC74F11218208A088B098C84
:101EE8000A8D0B740F121790780C1215DE90943C23
:101EF80078081215A590943C780C1215A5780879E5
:101F08000C1213CB50157808790C12156A90941C92
:101F180078081213EB401579018013780C790812B0
:101F2800156A90941C780C1213EB40EB79007F082B
:101F38000218CC74ED1218208A088B098C0A8D0BB4
:101F48007413121790780C1215DE90943C780812CE
:101F580015A590943C780C1215A5780C79081213E5
:101F6800CB40117808790C12156AAA08AB09AC0A9B
:101F7800AD0B8022751000751100751200751301E4
:101F88007810790C12156A78107908121531AA1090
:101F9800AB11AC12AD137F0C0218CCC082C083E920
:101FA800906000F0D083D08222C0E074F212190C45
:101FB800A2AFE433FED2AFC2C0E5D1A2E4500653CB
:101FC800D1EF12118EEEA2E092AF7F0102196BC021
:101FD800E074F212190CA2AFE433FED2AFE589A285
:101FE800E150031210DA758900C2C5EEA2E092AF83
:101FF8007F0102196BC0E074F212190CA2AFE4332E
:10200800FED2AFE58BA2E050031210DA758B00C246
:10201800E880D8C0E0C0D0E8C0E0A8A8D2AFC2C766
:10202800E8A2E792AFD0E0F8D0D0D0E032C0E0C06C
:10203800D0E8C0E0E9C0E0EAC0E0EBC0E0C082C0A0
:1020480083A2AFE433F9D2AF901044E0F8A3E0687C
:102058007008539AFBA374018022C2E9901044E0EF
:10206800F8740128F074C428F582E4340FF583E08D
:10207800F5C1901044E0C394804002E4F0E9A2E086
:1020880092AFD083D082D0E0FBD0E0FAD0E0F9D094
:07209800E0F8D0D0D0E032E7
:1020A000FFFFFFFFFFFFFFFFC082C083E990118F9A
:1020B000F0D083D08202011F74F61217B4E99003A6
:1020C00064F07CA47D037AFF7BFF1207207A008AEC
:1020D000087509007402780812171374652508F84A
:1020E00074033509122107A3F00AEAC3940340DF01
:1020F00079051206AE900364E0F91205D67A387BB2
:10210000071208EE023688F98882898374FF12214B
:1021100014E4F022F0A3123515A32274F41217B4BC
:102120008A088B09EB54806030900364E0F9121246
:10213000008A0A8B0BAE0AAF0BEE4F60138E828FB4
:1021400083E064B070031206C0EEFAEFFB1211EEEA
:10215000AA08E5096480FB80047A007B000222E47F
:1021600074F21217B474FC121726EAFEEBFF741215
:1021700012179012355EEE4F7003022203740212A2
:102180001790EEF0A3EF12253FECF0A3ED12253FE0
:10219000AA82AB831205D0E9F50A706AE508450901
:1021A00060648E828F8312353FEE4F60567A067BD5
:1021B0000012128A8A0C8B0DA80CA90DE849700533
:1021C000750A13804188828983E4122114EEF0A3FA
:1021D000EF12356FE508F0A3E509F09003721222C3
:1021E000DE9003727005122FFC801B122FEA800311
:1021F000EAFCEBFD8C828D831222DE70F38C828DE3
:102200008380E3750A02A90A740412173C0237524C
:1022100074F21217B4890AE975F045A4FEAFF09084
:102220000371E4F09003671222DE602812129079A5
:10223000008908750900740278081217137467255D
:1022400008F58274033509F583E4F0A3F009E9C3C6
:10225000940340DDEEFAEFFB12128A8A088B09EA3A
:1022600045096075EEFCEFFD79001211D67D008DF9
:102270000C750D007402780C1217137467250CF896
:102280007403350DF9E50AF5F0EDA475F017A4FA1D
:10229000ABF0E5082AFAE5093BFB88828983EAF07E
:1022A000A3EBF07E00801BEE75F017A4FAABF0886C
:1022B000828983E02AFCA3E03B8C82F583E4F0A3CF
:1022C000F00EEEC3950A40DF0DEDC3940340A0E588
:1022D0000A900371F0790080027913023752122CB0
:1022E0008EEA4B227F0402188674F41217B4790028
:1022F000EAA2E0501B7508EE75099378081219C719
:102300007C047D007A917B111206A8740212173C9E
:1023100080D2C082C08390037212355949601C88F4
:10232000828983A3A3E06A7003A3E06B8882898318
:1023300070E7A3A3A3A3122C8A80047A007B000277
:1023400020B174EE1217B474FC121726EAFEEBFFEC
:10235000851882851983E4F0A3F0EE2402122FDCA5
:10236000EE240512351CEE2404F50EEF1228E9E0E8
:1023700024FE603924FC604624FE605224FE605E28
:1023800024FE700302245524FE70030224B924FEA7
:1023900070030224C824FE70030224D724FC7003B7
:1023A0000224E624FE70030224F502253290038BFA
:1023B0007417F0A3E412254712024602253285184D
:1023C00082851983AC82AD831206C6022502851868
:1023D00082851983AC82AD831206CC022502850C5E
:1023E00008850D097402121790AC82AD83850882AE
:1023F000850983122C8A1205F48A0C8B0DAC0CAD66
:102400000DEC4D603BE4F50CF50D780C1219C77519
:102410000C8B750D03780C1219C7750C8C750D0398
:10242000780C1219C774081217901219DE12385C52
:1024300012173CE9F50C700B122C8012025E800F13
:10244000750C01850882850983122535122FFC85BC
:102450000C080225057402121790AC82AD83850C1E
:1024600082850D83122A3C603C850C82850D83A3F6
:10247000A31219DE75108B75110378101219C77528
:10248000108C75110378101219C774081217901266
:1024900019DE12385C12173CE9F509700B122C801A
:1024A000120264800F750901850C82850D83122547
:1024B00035122FFC850908804C851882851983AC5C
:1024C00082AD831206D2803A851882851983AC8248
:1024D000AD831206D8802B851882851983AC82AD16
:1024E000831206DE801C851882851983AC82AD8339
:1024F0001206E4800D851882851983AC82AD8312A3
:1025000006EAE9F508E50860298E828F83A3E06476
:1025100014601F850E82850F83E090038B12253F88
:1025200012383490038C122FFCE508A312254712B1
:102530000240022EEB12383885188285198322F06A
:1025400085188285198322F07C8B7D03850A82851C
:102550000B83122C8E2274EE1217B474FC12172601
:102560008A0A8B0B8C0E8D0FEA2405F508EB3400DC
:10257000F5097C157D0079007A8B7B031211D6E575
:10258000082402F50CE50912351F85188285198388
:1025900085821085831178101219C78508828509F4
:1025A00083A3A3A3A3122A331219C7E5082405F5B0
:1025B00010E5093400F51178101219C7850C8285D1
:1025C0000D83122DA11205EE740612173C8A108B92
:1025D00011AE10AF11E50A2402F50AE50B122FDF48
:1025E000EE4F700302271480177402121790122CFA
:1025F0008A88828983EAF0A3EBF090038BE004F0F1
:1026000090038BE0C394054003022714E4F510F512
:102610001178101219C775107475110378101219FA
:10262000C775107575110378101219C77406121743
:10263000901219DE7910EEFCEFFD12385E12173C95
:10264000E9705E850882850983A3A3A3A3A3A3A33E
:10265000E0F8900374E0687048122A331219C77CBE
:10266000757D03E5082408FAE5093400FB1211D052
:10267000740212173CE960298E828F83A3A3A3A35F
:10268000122C8A90038BE0F5107402781012171345
:10269000748C2510F58274033511F583EAF0A3EBF1
:1026A000F074021217908582108583117810121928
:1026B000C774021217901219DE850C82850D8312E1
:1026C0002CB012173C8A108B11AE10AF1190038BF7
:1026D000E0F51075110074027810121713748B2531
:1026E00010F874033511F988828983A31222DE70F1
:1026F000030225E0E82403080808E93400F9EE4F56
:1027000060030225E98882898374FFF0A3F09003B7
:102710008BE004F090038BE0600A122C80120252CE
:102720007900800B850882850983122FF3790A02CC
:102730002EEB74EA1217B474FE1217268C128D1346
:10274000EA2405F50CEB123846123543750800757E
:102750000900EA2402F510EB3400F5118518828592
:10276000198385820A85830B780A1219C7850C8222
:10277000850D83A3A3A3A31228FF1219C7E50C2478
:1027800005F50AE50D122FDF780A1219C7850C82AC
:10279000850D831229031205EE740612173C8A0A6E
:1027A0008B0BEA450B70030228B4EA2404F50EEB08
:1027B0001228E91235438A828B83A3A3A3E0F9850B
:1027C0001082851183122C9460030228B4E4F5145E
:1027D000F51578141219C775147475150378141249
:1027E00019C775147575150378141219C774061274
:1027F00017901219DE7913AC0AAD0B851082851182
:102800008312386412173CE9F50960030228B4907A
:102810000374E0F8E5087009E0240290038CF0806E
:102820001790038CE0FCE82402FAE43400FBEA6C25
:102830007001EB60030228B8850882AA82122A2A56
:102840009414122A22506D850E82850F83E0C0E019
:10285000122C5AD0E0F00508850E82850F83A3E084
:10286000C0E085080A748D250AF58274033400F5EA
:1028700083D0E0F005089003741228FF1219C77C7A
:10288000757D0385080A748D250A1228F312173CFA
:10289000900374E02508F50874FF6E700374FF6FF1
:1028A0006012EE24010EEF3400FFE508C3941450CB
:1028B0000302275CE5086013122C9E8510828511A7
:1028C00083122C8A12025879008014E5097003756E
:1028D000090A851282851383EEF0A3EFF0A909742B
:1028E0000212173C7F0E0218863400F50F850E8207
:1028F000F58322FA74033400FB1211BE7402221213
:10290000357E22A3A312290922122FEAFDEEFAEF47
:10291000FB2274EE1217B474FE1217268C0E8D0F64
:10292000EA2405F50CEB12351F750B0090038BE4C0
:10293000F0F50AEA2402F508EB3400F5098044902A
:10294000038BE0FA900374E0F8122A2A9417122AF3
:1029500022400D90038BE0F87416C398900374F036
:10296000122A331219C77C757D03748C2AFA7403FA
:102970001228F612173C900374E0F890038BE028BD
:10298000F0050AE50C2416F582E50D3400F583E028
:10299000F8E50AC398507490038BE0C39416506B0B
:1029A000E50AC333F8E433F9E50C28FEE50D39FFF9
:1029B000851882851983AC82AD838E828F83122A1B
:1029C0003C7008750B01122FEF8050E4F510F511E3
:1029D00078101219C775107475110378101219C781
:1029E00075107575110378101219C77406121790B7
:1029F0001219DE7916850882850983123864121748
:102A00003CE9F50B700302293F80BB7C8B7D03857D
:102A10000882850983122C8A12026AA90B740202A9
:102A20002EEDE99400C365D03322EA28F8E434009F
:102A3000F9E822E0F510751100781022122EE28AD2
:102A4000108B11AC10AD11EC4D2274EA1217B47456
:102A5000FC1217268A0C8B0D8C128D13EA2405F5B7
:102A60000AEB122FDF750800750900E50A2402F54C
:102A700010E50B3400F511740212179085820E8553
:102A8000830F780E1219C7850A82850B83A3A3A32F
:102A9000A31235241219C7E50A2405F50EE50B34F7
:102AA00000F50F780E1219C7851082851183122F39
:102AB000E5122C841205EE740612173C8A0E8B0F59
:102AC000AE0EAF0FE50C2402F50EE50D3400F50F48
:102AD00080388882898374FFF00508122C6674FFA1
:102AE000F00508900374E0F50C750D00780C1219D0
:102AF000C77C757D0385080C748D250C1228F31294
:102B0000173C900374E02508F508EE4F60278E828D
:102B10008F83A3A3A3E0F9850E82850F83122C94E3
:102B2000EE240412351CE96027850C82850D831282
:102B30002C76122FFCE5087003022C40122C9E8587
:102B40000E82850F83122C8A1202707900022C5596
:102B5000E4F514F51578141219C775147475150376
:102B600078141219C775147575150378141219C7DE
:102B700074081217901219DE7911EEFCEFFD850E24
:102B800082850F8312386412173CE9F509709A8523
:102B90000882AA82EA9003747009E0240490038CEE
:102BA000F08025E0F890038CE0F514E82404FCE4C0
:102BB0003400FDEC65147001ED7081122A2A941224
:102BC000122A224003022B3C850C82850D83E0C033
:102BD000E0122C5AD0E0F00508850C82850D83A305
:102BE000E0C0E0122C66D0E0122CB985820C8583FF
:102BF0000D780C1219C774041217901219DE851083
:102C000082851183122CB012173C8A0C8B0DAE0CEE
:102C1000AF0D85080C748D250CF874033400F9EEA3
:102C20004F7003022AD2851882851983E088828931
:102C300083122CB9A3E0C0E0122C66D0E0022AE097
:102C4000E509700375090A850A82850B83122C76C3
:102C5000122FFCA90974040228E1748D2AF58274EC
:102C6000033400F5832285080C748D250CF58274DD
:102C7000033400F5832212383885128285138322AB
:102C80007C8B7D03850A82850B83122C8E22E0FAD1
:102C9000A3E0FB22122C8E1205DCE9F50922900339
:102CA0008CE0F5F0E5088490038BF07C8B7D0322AB
:102CB0001229091205FA740422F005088518828584
:102CC00019832274EC1217B474FE1217268A088B2B
:102CD000098C0E8D0FEA2405FEEB3400FF122ECC7A
:102CE000EE241812351CEA450B7003022D6F122ECC
:102CF000B55029122D948A108B11EA4511606B7919
:102D000012AC0AAD0B850882850983122C8A8510C6
:102D1000828511831217B2E9F50A7058E4F50AF5B5
:102D20000B780A1219C78E828F83A3A3E0F50A7865
:102D30000A1219C7EE2403122FDC780A1219C78E63
:102D4000828F83122DA112070E740612173CE9F52B
:102D50000A7021850C82850D83E0701F85088285AD
:102D60000983122C8A1202768011750A0E80097569
:102D70000A018004E50A6003122FEF850C82850D9D
:102D800083E0600479008002A90A740212173C7F74
:102D90000C021886851882851983122C8E1206FC67
:102DA00022122FEAFD850882850983122C8E227457
:102DB000EE1217B474FE1217268A088B098C0C8D3C
:102DC0000DEA2405FEEB3400FF750E00122ECCEA4E
:102DD000450B7003022E93122EB5502C122D948A9F
:102DE0000E8B0FEA450F604A7912AC0AAD0B8508CD
:102DF00082850983122C8A850E82850F831217B271
:102E0000E9F50E6003022E9685088285098312304B
:102E1000F6AA0AFB122EA770147AFF7BFF122EA7C8
:102E2000606C88828983E50AF0A3E50BF0750A00DF
:102E30008007750E0E805F050A900371E0FAE50ABF
:102E4000C39A504AE50A75F017A4FAABF088828954
:102E500083A3A3E02AFAA3E03BFB8A828B83122F91
:102E6000E5EC4D70D2750A17750B00780A1219C778
:102E7000EEFCEFFD1211BE740212173CEEFCEFFDEA
:102E8000850882850983122C8A12027C8014750EB3
:102E9000098003750E01123830850C82850D83126E
:102EA0002FFCA90E022A1D1206F08A108B11A81001
:102EB000A911E84922E5082402F508E5093400F5DE
:102EC000098A828B83A3A3A3E0A2E52285188285C9
:102ED0001983AC82AD838E828F83122EE28A0A8B95
:102EE0000B22E0FAA3E0FB1205F422740412173C53
:102EF0007F0A02188674EC1217B48C108D11EA2424
:102F000005F50CEB12351F750F00EA2402F50AEBEC
:102F1000122FDF850A82F583122C8A1238EB700398
:102F2000022FD1750E008071850C82850D83E064BF
:102F300001704F8E828F83A3A31219DE8E828F833E
:102F4000A3A3A3A3E0F51275130078121219C7EE1C
:102F50002405F512EF3400F51378121219C7122C5C
:102F60008412070E740612173CE9F50F6014850CE5
:102F700082850D83E4F0123830851082851183122A
:102F80002FFC7C177D007900EEFAEFFB1211D68E34
:102F9000828F83E4F0A3F0050E900371E0F8E50E54
:102FA000C398501EE50E75F017A4F8A9F0850882A5
:102FB000850983A3A3123850122FE5EC4D6003025C
:102FC0002F2885088285098374FFF0A3F0E50F7030
:102FD00006122C84120282A90F022D8FF50AEF34FB
:102FE00000F50B22A3122FEAFD22E0FCA3E0228EC3
:102FF000828F83123838850E82850F83E8F0A3E92B
:10300000F02274F61217B47C008C08750900740263
:1030100078081217131230346A7003A3E06B70063D
:10302000E8FAE9FB800B0CECC3940340DC7A007BEC
:103030000002368874652508F874033509F988821A
:103040008983E02274F71217B47F00EF75F003A4B0
:10305000F8A9F0EC28F8ED39F988828983E06A70E4
:1030600003A3E06B7006E8FAE9FB800B0FEFC39453
:103070000440D87A007B007F0102188674F612178C
:10308000B412362D70067A007B008007A3A3A3A399
:10309000122C8A02368874F21217B4E9FE740E12EA
:1030A00017901230F6741012179012355E8C828DC4
:1030B00083E06402703BA312383488828983E0F590
:1030C0000CA3E0F9A80C74026870037429697021DC
:1030D000750C02750D00780C1219C778081219C703
:1030E000780A1219C7EEF9120732740612173C80DB
:1030F000027901023752E0F50AA3E0F50B2274E8E9
:103100001217B474FB121726E9851882851983F00B
:103110008A168B178C0E8D0F741F12179012355E46
:1031200074211217901230F674231217901235433F
:103130007510008C828D83A3A3A3E0A2E4502A74AF
:103140001D121790122D9A8A828B83E58245837017
:103150000302320A790AAC0EAD0FAA16AB1712178A
:10316000B2E9F510600302320D850E82850F83E00F
:10317000640260030234C3A31238348508828509CF
:1031800083A3858212858313E50E2406F50CE50FD3
:1031900012351F88828983E0FAA3E0F9EA2400F55A
:1031A00014E439F5157814121A5101000028012889
:1031B000D23107000228A932032819320029D3335B
:1031C0000129FB330229A2330329D33304296434B0
:1031D000C334EE4F703E850C82850D83123559FA4B
:1031E000E9FB8A828B83E0850A82850B8312357521
:1031F0001219C78A828B83A3122FEAFDAA08AB0992
:103200001211BE740212173C800375100EA91074BF
:103210000502383E75100B80F4EE4F70F7850A8278
:10322000850B837401F0123549850882850983F086
:103230007C007D00850E82850F83A3A3A3A3E024D9
:1032400001FAA3E03400FB1205F4EA4B60418A82E4
:103250008B83E02402F8850A82850B83E028F0EA5C
:103260002404F8EB3400F988828983E08512828592
:1032700013831235871235751219C78A828B831210
:103280002FE4E5082403FAE5093400FB0232008547
:103290000A82850B83E02404F07C047D007900AA77
:1032A00012AB131211D602320DEE4F60030232142C
:1032B000123549FEA3E0FF850A82850B837404F072
:1032C000EE850882850983F0EF851282851383F0ED
:1032D0007403121790AC82AD83EEFAEFFB12361B2B
:1032E000700302337F8A828B83A3A312353F74015C
:1032F00012179085820E85830F780E1219C77405F8
:103300001217901219DE7CFF7DFF1205FA74041269
:10331000173C8B0FEA450F7033850C82850D8312A5
:1033200035241219C7850C82850D83A31219DE7C02
:10333000027D007AA57B94120372740412173CE993
:10334000700A740112179074FFF0A3F08E828F83BD
:10335000E064027034750C02750D00780C1219C708
:103360008E828F83122FE4E5082404FAE5091228DF
:10337000F612173C850A82850B83E02402800974CB
:1033800001121790EEF0A3EFF074011217901235AE
:1033900035F07401121790A312352DA3A3A3F002E8
:1033A000320DEE4F6003023214850C82850D8312BC
:1033B0002FE5AA16AB17120726850A82850B8374A0
:1033C00002F0EA850882850983F0851282851383DD
:1033D000EB80CBEE4F6003023214123549F8A3E0C4
:1033E000F9850A82850B837402F0E88508828509D5
:1033F00083F0E985128285138380A3850C82850D75
:1034000083122C8A1211B8EAFC8C82A882C39EE433
:103410009F404BE86E7001EF70047C00801F8518A0
:1034200082851983E0FAEE2AFAEF3400FBC3EA98AA
:10343000EB94005003E08004EECCC39CFCEC850AC6
:1034400082850B83F08C0A750B00780A1219C785E8
:103450000C82850D83E02EFCA3E03F0231FB75104A
:103460000702320DEE4F6003023214850C82850D87
:1034700083123834850A82850B837407F088828929
:103480008312352D123515E0851282851383F0E8FD
:103490002402FAE93400FB8A828B8312352D12351F
:1034A00066123535A312356F123539F0E82405F868
:1034B000E93400F988828983123539A3123587A34C
:1034C00002339B741D121790123626700302320AC3
:1034D000123834880C890DE8450D700302320A8ECB
:1034E000108F1178101219C7780A1219C7780812AC
:1034F00019C77406121790E0F9AC0EAD0FAA16ABFF
:1035000017850C82850D831217B2740612173CE9D9
:10351000F51002320DF088828983A322F50CEF3476
:1035200000F50D22E0F50E750F00780E22E08508FB
:10353000828509832212358E2212358EA3A322A3FF
:10354000A3A3A3E0FEA3E0FF22850C82850D83E008
:10355000F8A3E0F5838882E022123838E822E0F50B
:1035600008A3E0F50922A3A3F08A828B83A3221289
:103570002116A3A322F08A828B8312357E22E0F5E6
:103580000A750B00780A2212351512358E22E08555
:103590000882850983A3A32274EE1217B474FE1265
:1035A00017268A0A8B0BECFAEDFB7414121790E0C5
:1035B000F510A3E0F5117416121790E0FE741812BE
:1035C0001790E0F50EA3E0F50F851882851983ACFE
:1035D00082AD8312361B603E8518828519831236B0
:1035E00026602FA3A312355EE50845096024780EF6
:1035F0001219C778101219C7EEF9AC0CAD0DAA0A52
:10360000AB0B8508828509831217B2740412173C2C
:103610008006790E80027901022A1D1205F48A0CB7
:103620008B0DEA450D22122C8E12362D221206BA6F
:103630008A828B83E58245832274F61217B474FE66
:10364000121726740C121790123559851882851995
:1036500083F07401121790E9F0E4F508F509780891
:103660001219C775080278081219C7740412179046
:1036700085820885830978081219C712070E740617
:1036800012173C740212173C7F0202188674F7125C
:1036900017B4EAFEEBFF89087CA47D03120726EA33
:1036A0005402600BA908EEFAEFFB1205E8800279DC
:1036B0000102307774F61217B474FF6A700374FF56
:1036C0006B701B7B00EB75F003A4F8A9F0EC28F8F5
:1036D000ED391221070BEBC39404501480E7120656
:1036E000F68A088B09A808A909E84960031221088D
:1036F000809674F61217B41206F68A828B83E582DE
:1037000045836006A3A3E0FA80027A007B000236BC
:103710008874F21217B48A088B09ECFEEDFF740E60
:10372000121790E0F50A123757701CEEFCEFFD7A85
:10373000FF7BFF12375770047911801688828983C6
:10374000E508F0A3E509F088828983A3A3E50AF0E0
:1037500079007F060218861206F68A0C8B0DA80CDB
:10376000A90DE8492274EE1217B4EAFEEBFF8C08AB
:103770008D09890C741212179012383474141217B0
:1037800090122FE57416121790122C8A750D00EC0A
:103790004D60030238287402650C600302382388E8
:1037A000828983122FEAF9EC2400F50EE439F50F33
:1037B000EAF4F8EBF4F9EC58F8E50F59F9E8497038
:1037C0005DE5082406F8E5093400F9880A890B88C4
:1037D00082F5831229051207268A108B11E50E65E2
:1037E000107004E50F65116042780E1219C7850A42
:1037F00082850B8312290512072C740212173CE9EB
:10380000F50D7027780E1219C7850882850983A3E4
:10381000A312290312073E740212173C800D750D86
:10382000808008750D0D8003750D0BA90D022EF01B
:103830008E828F8312383822E0F8A3E0F922121723
:103840003C7F100218863400F50D850C82F583222A
:10385000E028FEA3E039FF8E828F83227916850A45
:1038600082850B83122C8E12070874082274F212C0
:1038700017B4EAFEEBFF890B7401650B600E74024E
:10388000650B7064790112090CE9705CEEFAEFFBCC
:103890001238EB6048750A00800B7C177D007900B8
:1038A0001211D6050A900371E0F8E50AC398502278
:1038B000E50A75F017A4F8A9F0850882850983A3A5
:1038C000A3E028FAA3E039FB8A828B831235594999
:1038D00070C885088285098374FFF0A3F07CA47DFD
:1038E00003EEFAEFFB1207200237521206F08A08A5
:1038F0008B09EA45092274F21217B48A088B09EC85
:10390000FEEDFF740E1217901230F690118FE0F456
:10391000603D7A097B001211E8EA4B60328A828BA3
:103920008374B1F0A3E4123568A3123566A3E508E9
:10393000F0A3E509123952EEF0A3EF123952A3A316
:10394000E50AF0A3E50BF090118FE0F91211F402F3
:103950003752F08A828B83A3A3A3A3A322C082C081
:10396000839061907404F0A37448F0A3E4F0906134
:10397000807440F09061BC7407F09061877469F0C6
:103980009061B67416F07900120A087902120A0ED4
:103990009020A0E493F46006E493F91209E4790519
:1039A000120D62023DC3C082C083E9540FF99061D9
:1039B00085E0696012E5C654804449F5C6E59E5429
:1039C0007F644970F8E9F053C680E59E547F70FA31
:1039D000023DC374F71217B4E5A8FE53A87E12097E
:1039E000F0C2BA539AFEC289759B00C2C21209F690
:1039F00075A91175B9051209FCD2BA439A017480F0
:103A00005E42A8024CC6C082C083906181E4F0A3EC
:103A1000F0A3F0023DC375E90075910075BF000287
:103A2000011FC082C083906181E4F0A374C0F0A341
:103A3000E480DFC082C08374F812172690049B12C2
:103A40004439E8497003023AEA90049BE05440602C
:103A5000237908851882851983AA82AB83120B16F5
:103A6000851882851983AA82AB831207AA90049BCA
:103A7000E054BFF0E054806010790C7A387B081273
:103A80000B1690049BE0547FF0E0A2E05008790010
:103A9000123AF254FEF0E0540260087901123AF250
:103AA00054FDF0E0540460087900123AFD54FBF034
:103AB000E0540860087901123AFD54F7F0E0541020
:103AC00060087902123AFD54EFF0E0542060087962
:103AD00003123AFD54DFF0A3E05401600D120A1AFC
:103AE0001207BC90049CE054FEF0740812173C02CC
:103AF0003DC3120A081207B090049BE022120A0E7E
:103B00001207B690049BE022C082C083E9600514CE
:103B1000602A804F90619A7433F0A37455F09061DD
:103B2000A0743AF0900814E064017009C291900406
:103B30009D7467802D90049D7461802690619A74B5
:103B40003FF0A3745AF09061A0747FF0900814E0E5
:103B500064017009D29190049D7471800590049D58
:103B6000746AF0023DC3C082C083E9600B14600D2B
:103B700014600F14601180209020A480159020A55F
:103B800080109020A6800B900814E0640160F390F0
:103B900020A7E493906186F0023DC374EE1217B43F
:103BA00074F4121726851882851983AC82AD83754B
:103BB000839475822474041216399020A493F460BF
:103BC00003023D2D907808E0C394025003023D0D9E
:103BD0007404121790AC82AD837583937582D3748D
:103BE00008121639F97AFF7BFF7FFF7E00898285F4
:103BF0008210801874086E7003023CC274096E70E3
:103C000003023CC2740A6E7003023CC2E510C33367
:103C1000FCE433FD7404121790E5822CF582E583F1
:103C20003DF583E0F50EA3E0F50F8E0875090074ED
:103C300002780812171374482508FC74783509FDBA
:103C40008C828D8378081215DE740878081214F9B6
:103C500085080C85090D8C828D8378081215DE7419
:103C60001878081214F9E50C4508F508E50DF50972
:103C7000C3E50E9508E50F95098C828D83780812AF
:103C800015DE8C828D8378081215DE741878084052
:103C9000141214F9E50C4508FCAD0DE50EC39CFCAF
:103CA000E50F9D800F1214F9E50C4508C3950EFC35
:103CB000E50D950FFDC3EC9AED9B5006ECFAEDFB7C
:103CC000EEFF0EEEC394135003023BF474FF6A70D0
:103CD0000374FF6B602D8F08740278081217137439
:103CE0004812494774783509F58378081215DE853E
:103CF0001882851983E5822510F582E583124885AF
:103D0000E508F009E9C394045003023BE575080196
:103D100075090078081219C77402121790AC82ADA9
:103D2000837A297B081210B6740212173C740C12A5
:103D3000173C7F0A021886C082C083906186E0F833
:103D40009020A7E4936870099020A6E49390618680
:103D5000F09061AE7468F0A3746AF090624574FBF1
:103D6000F0A304F053F4FD43FE029008147401F034
:103D70009061A0E0643A7004790080027901120A2F
:103D800008023DC37F04021886C082C0839007F2F8
:103D9000E0640170179007F8E0F87401686009E8C2
:103DA000700AA3E064017004790C8012900809E0A5
:103DB0006401700890080FE0640160EC79008003F2
:103DC000123F20D083D08202011F12449194062218
:103DD000E0C4333354C022C082C0839007FC7425F2
:103DE000F09007FA7401F0A3E4F07A01FB120CDE04
:103DF0009007E8E02416123E24743EF0A3740AF003
:103E00009007F9E0640170169007F8E070107901EE
:103E1000120D3E120D0E120D387900120D4A023DA0
:103E2000C3E02414F8A3E0123E2B223400F9888268
:103E300089832274F61217B474FA1217269007F1C8
:103E4000E064017008120A269007F1E4F075E1F1D0
:103E50009007E8E02415123E247401F09007F3E087
:103E6000640170539093FAC082851882851983ACDF
:103E700082AD83758393D082740612163975D90D7D
:103E80009007EA123DD04403F5D97800880874EB16
:103E90001249477407123DCA40F278008808851815
:103EA00082851983E582124947E583123DCA40ECB9
:103EB00075E195790180027900120CE49011B1123C
:103EC0003F2674B8F0A3740BF0A3123F26123F26CE
:103ED00012408574BEF0A3740B12409A9007EAE07A
:103EE000F97AEB7B07120CC09007FC123F20790196
:103EF000120CEA9094281215FC120D0290947C1278
:103F000015FC120CCC7900120D569007E8123E21D8
:103F10007416F09004997405F00412173C024522BF
:103F2000E0F9121FA32274B2F0A3740BF0A3227461
:103F3000F41217B48908A808124069900801E0F942
:103F40007A027B08120CC090080FE0701A790012F8
:103F50000D209007DBE0700B79007ADC7B07120CF8
:103F6000C68009790180F37901120D2075E1F175A0
:103F7000D923900801123DD04405F5D97800880A6C
:103F80007402250AF5827408123DCA40F175D90001
:103F900075D90075D90075D90075D90075D9007A21
:103FA000001250F524221243B440F67A001250F564
:103FB0002426F582E912452A0AEAC3940340EEEE6C
:103FC000242B1245277A001250F5242C1243BA40B4
:103FD000F67A001250F5242E1243BA40F67A0012F7
:103FE00050F524301243BA40F67A001250F52432CC
:103FF0001243BA40F67A008A0AEE250AF8EF12490F
:10400000351243C7940540EFEE2437124B87541FF7
:10401000F8EE242A124B87C43354E048F5D975E1F1
:10402000959011B17488F0A3740BF0A3748EF0A373
:10403000740B12407C7494F0A3740B12409A900895
:104040000E123F209094281215FC120D0290947CC1
:104050001215FC120CCC90600DE4F07901120D5693
:104060009004997406F0023D84E875F006A4C8AA8D
:10407000F02AF974C928FE740439FF22F0A3124013
:104080008512408522124089227482F0A3740BF0BD
:10409000A37482F0A3740BF0A32212409E22F0902E
:1040A00011BF1240AAA31240AA221240897482F0C2
:1040B000A3740BF02274EC1217B49007FF124C3D5E
:1040C00078101215DE900810E0FAF875F006A4C812
:1040D000ACF02CF974F728F582740439F583E0FE0E
:1040E000A3E0FFEEC333FEEF33FF8E0CF50D750E2C
:1040F00000750F0085100885110985120A85130BBC
:10410000909408780812154478081219C38510088D
:1041100085110985120A85130B7808790C1215315F
:104120007810790C12148AE4F50EF50F7808790CE2
:1041300012156A8A0C750D007403780C1217137827
:1041400008790C12153190943C78081215A5AA082C
:10415000AB09AC0AAD0B121F3B740412173C8A0862
:104160008B09A808A909C3EE98EF995006E82EF824
:10417000E93FF9E890600EF0E9A3F0EEA3F0EFA3B9
:10418000F090600D74C1F07F0C021886C082C0836D
:104190009007E81241AC9007FC023DC0C082C0838A
:1041A0009007FF1241AC90080E023DC0124C41A393
:1041B000A3A3A3E4F0A3F02202011F74F21217B428
:1041C000124306F50AEF12467D60047804800278F7
:1041D00000E8240EF8EAC398500302426475080C04
:1041E000900818E4F0EE2477124B87900819F079C4
:1041F00002EE2478FCEF3400FD7A1A7B08120B04DF
:104200007902EE247A124269247C124269247EFCEF
:10421000EF3400FD120B04EE247512431C850A8254
:10422000850B83E06016750818750908780812195F
:10423000C77C0C12479112173C75081074012508B1
:10424000F5D975D90378008009880A7418250A12EF
:1042500042FBE8C3950840F175E1957904120D0819
:10426000790180027900024930FCEF3400FD120B25
:10427000047902EE2274F21217B4124306F508EF25
:104280003400F509850882F583E060047804800233
:104290007800E8240AF8EAC3984055750A0890089F
:1042A000187401F079057CE27D077A197B08120BFE
:1042B00004EE248112431C850882850983E0601680
:1042C00075081875090878081219C77C08124791F3
:1042D00012173C750A0C12458480031242F5E8C39C
:1042E000950A40F775E1957904120D08790180026D
:1042F0007900024930880874182508F5827408127C
:104300004B8EF5D9082212430A22EAFEEBFF906198
:10431000D0E0F87480C398FAEE248322FCEF3400D6
:10432000FD8E828F83A3A3A3A3A312443D8C828D11
:1043300083E028F0A3E039F07902120B042274F62E
:104340001217B4EAFEEBFF9061D0E0706275D918E5
:1043500075D90375D9037A008A08EE25081250FA38
:10436000249C1243DE40F17A008A08EE25081250A0
:10437000FA24A41243BA40F17A008A08EE25081202
:1043800050FA24941243DE40F17A008A08EE2508A0
:104390001250FA24881243B440F175E1957908EE81
:1043A00024941243D724881243CE1244A980027960
:1043B000000245221243C09404221243C0940222F8
:1043C000F582E93400F583E0F5D90AEAC322FAEF71
:1043D0003400FB120B0A221243CE7904EE22124360
:1043E000C094082274F61217B4EAFEEBFF90081886
:1043F000740612449C1219C77C0179031247971264
:10440000173C75D90675D903780012448140FB75B5
:10441000E195900499E064087017EE2470F582EF3E
:10442000124436EE2472F582EF124885E8F0A3E9D3
:10443000F0790102452212494212443D22E0F8A3DC
:10444000E0F92274F61217B4EAFEEBFF9061D0E0B7
:10445000702A900818740A12449C1219C77C0179BA
:104460000312479712173C75D90675D903780012C5
:10447000448140FB75E1951244AE8002790002450B
:1044800022880874182508F582740812449194054E
:10449000223400F583E0F5D908E8C322F075081846
:1044A00075090878082275E1957904120D08EE2443
:1044B00070F582EF12494212443DEE2472F582EF0C
:1044C000124942E8F0A3E9F079012274F61217B418
:1044D000EAFEEBFF9061D0E0704379019008187418
:1044E0000BF0900499E064077017750818750908B7
:1044F00078081219C77C01090912479712173C79ED
:1045000005740129F5D975D903780080031242F5A5
:10451000E8C39940F875E1951244AE8002790080B5
:1045200001F07F02021886F582EF124B8EF5D92238
:1045300074F51217B41245B3600478048002780051
:10454000E8240BF8EAC3984036750A0990081874F5
:1045500008F0F912459C6014750818750908780868
:104560001219C712478F12173C750A0D1245848025
:10457000031242F5E8C3950A40F71244A680027977
:10458000000247FE7401250AF5D975D90378002287
:10459000EE241DF582EF124897A3F022EE24E5FCED
:1045A000EF3400FD7A197B08120B04850882850917
:1045B00083E02212430AF8EF124D11F583E02274D2
:1045C000F31217B48A088B091247A2FAE50824836C
:1045D000F50AEB12467D6004780480027800E82436
:1045E00008F8EAC3985003024676750C069008183E
:1045F000740CF09004B6E0900819F07402C0E0F971
:104600007CB77D047A1A7B08120B04D0E0F97CB9E0
:104610007D04120B04850A82850B83E0601C750AF9
:1046200018750B08780A1219C77C067903AA08AB1B
:104630000912479712173C750C0A7401250CF5D91D
:1046400075D90378008009880A7418250A1242FB7C
:10465000E8C3950C40F175E1957904120D08E50861
:104660002470F582E509124436E5082472F582E5E6
:10467000091244C0800279007F050218863400F5D3
:104680000B850A82F583E02274F61217B4EAFEEB7A
:10469000FF1247A2FCEE2483F8EF12479D60047AD4
:1046A0000480027A00EA2404FAECC39A405E7A029B
:1046B000900818EAF0EE24F7F582EF124718601917
:1046C00075081875090878081219C77C027903EE75
:1046D000FA12479712173C7A0674012AF5D975D950
:1046E00003780080031242F5E8C39A40F875E1951B
:1046F000EE2474124711EE2480124711124590796E
:1047000004120D08EE240D1244B180027900024516
:1047100022F582EF12489722124B8E900819F088EA
:10472000828983E02274F61217B41247A2FEEA24AB
:1047300083F8EB12479D60047C0480027C00EC242B
:1047400004FCEEC39C40437C029008187407F0EA16
:1047500024F8F582EB1247186015750818750908DA
:1047600078081219C7790312479712173C7C067410
:10477000012CF5D975D903780080031242F5E8C3FE
:104780009C40F875E1957901800279000245227C10
:10479000097903EEFAEFFB120B76740222123E2B1C
:1047A000E0229061D0E0F87480C3982274F512176B
:1047B000B4E9FEA2AFE433F50AC2AF7F00EA246F8A
:1047C000F8EB3400F980010F88828983E0FCEFC3A5
:1047D0009C50188F08EA2508FCEB3400FDEC246B94
:1047E000F582ED124B8A6E70DE800DEA2CFAEB1228
:1047F0004B1AEE12471E04F0E50AA2E092AF7F03C7
:1048000002188674F61217B4A2AFE433FFC2AFEAFF
:10481000246FF8EB1250FCFCE9FD8C828D83E014D0
:10482000F07E00801E8E08EA2508F8EB1250FC246A
:104830006CF582E9124B8AC0E0E8246B124882D002
:10484000E0F00E8C828D83E0F8EEC39840D7EA2426
:104850006EF582EB12488574FF124889EFA2E09250
:10486000AF024522C082C083E5A8F8C2AFEA246B3C
:10487000F582EB124885E9124889E8A2E792AF0277
:104880003DC3F582E912494222F0EA246AF582EB3F
:1048900012489722F582E93400F583E4F02274F29D
:1048A0001217B48C828D83A3A3A3A3E0541FF0EA54
:1048B0002436124E448E828F83E4F0F50C850C82F0
:1048C00085820AEC250AF8ED124D0DF583E0C0E073
:1048D000EA250AF8EB124935D0E0F0750D0085089D
:1048E00082850983E0F50A750B00E50D780A12163A
:1048F000F4E50AA2E05027E50C33333354F8250DD4
:10490000C0E08E828F83E0F8EA28F8EB1250FC2496
:1049100038124882D0E0F08E828F83E004F0050DDB
:10492000E50DC3940840B7050CE50CC39405408D14
:104930007F060218863400F9E8245D12493F22F50B
:1049400082E93400F583222508F5822274F61217D5
:10495000B49004C5E0640370077A007B000245222E
:104960007C00ECF875F006A4C8AAF02AF974CB28EC
:10497000F582740439F583E06003024AFE124D8625
:10498000124B2CE4F0E82404FAE93400FBEAFEEBD5
:10499000FFEC8E828F83F0E82462124B0B246512A9
:1049A0004B3B2468124882124B2CA3A3E4F0A312C1
:1049B0004BD0A3124B3F240F124B0B2435124B1339
:1049C0001215FCE82418124882121608E8241C125A
:1049D0004B27241D124B3B2480124B272474124B6F
:1049E0002724691248827480F0E8246A124B272435
:1049F0006F124B272467124B2724ED124B2724EE0E
:104A0000124B2724EF124B2724F0124B2724F112CC
:104A10004B3B24F3124B3B24F6124B272483124BBF
:104A20002724D3124B2724D4124B131215FCE8244D
:104A3000D51248821216089094581215FCE824D911
:104A4000124882121608E824DF124B2724E1124B89
:104A50002724DD124B2724E2124B2724E3124B2795
:104A600024F9124B3B24FB124B3B24FD124B3B24FD
:104A7000FFF582E9124596FC8C08E82508FAE91250
:104A80004B1A74FFF00CECC3940440EC7C008C8255
:104A9000AA8274E22AF5827407124B8AC0E0E82ADF
:104AA000FAE93400FBEA245DF582EB124885D0E098
:104AB000F00CECC3940540D67C008C82AA8274ADC5
:104AC0002AF5827404124B8AC0E0E82AFAE934001D
:104AD000FBEA24E5F582EB124885D0E0F00CECC34C
:104AE000940840D69004C5E004F0640170098E82F9
:104AF0008F83E09004C7F0E8FAE9FB02495D0CEC13
:104B0000C39403400302495902496212493F7401A8
:104B1000F0E822124894909458223400FBEA246B67
:104B2000F582EB12494222124894E8227401124B9A
:104B30003222F088828983A3A3A32212493FE4F0A2
:104B4000A3F0E822C082C083EA2403F582EB124B73
:104B50008A6008E4F09004C6E014F09004C5E01404
:104B6000F070069004C774FFF08A828B83A3A3E4DD
:104B7000F09007E7E0700D9004C6E06401700579DD
:104B800000120CD2023DC3F582EF124B8E2234008C
:104B9000F583E022C082C0837B00EBF875F006A4A9
:104BA000C8AAF02AF974C528F87404124D90A3A37A
:104BB000A3A3A3E4124BD0F00BEBC3940340DB9010
:104BC00004C5E4F0A3F0A374FFF075E1F1023DC366
:104BD000124B32A3A3A32274F51217B47508007503
:104BE0000900750A00A80A1240698E828F83A3A368
:104BF000A3E0602DE5084509700AEEF8EFF9880892
:104C00008909801D850882850983124C3D1219DAB5
:104C1000124C391215FC121EDE740412173CE960A6
:104C2000D9050AE50AC3940340BB85088285098338
:104C3000A3A3A3A3E0F90247FE8E828F83124C4107
:104C400022E0F8A3E0F5838882A3A32274F7121769
:104C5000B478FF79FF7F00EFFC75F006A4CCAEF0CE
:104C60002EFD74C92CFC74043DFD8C828D83A3A39E
:104C7000A3E06040EC2474F582ED124B8AFE74FFD1
:104C800068700374FF69701574016E700BEC247A00
:104C9000F582ED124436801CEC242E80F374016EF4
:104CA000700AEC247A124CCB500A80E1EC242E12CC
:104CB0004CCB40E40FEFC39403409CC3EA98EB99BC
:104CC0004004E8FAE9FB7F01021886F582ED1249FB
:104CD00042C3E098A3E0992274F61217B4EAFEEBFF
:104CE000FF120AAAEE2465F8EF124D0D124D1BECCF
:104CF0004D60109004C7125031850882850983E405
:104D0000F0A3F0EEFAEFFB120BFA024522124D115E
:104D1000223400F988088909888222F583E0FCA3FF
:104D2000E0FD2274F71217B4EAFEEBFF8E828F8348
:104D3000A3A3A3A3E0FA7B00120828EEFAEFFB126C
:104D40000AC2120BDC024CC6C082C0837B00EBF8A7
:104D500075F006A4C8AAF02AF9124D86A3E0601ADD
:104D6000E8246FF582E9124B8A600FE8246BF58224
:104D7000E9124B8A7004790180090BEBC39403405C
:104D8000CD7900023DC374C928F87404124D9022F5
:104D900039F988828983A3A32274F61217B47800A4
:104DA000880874AD124947740412471408E8C39484
:104DB0000840ED9004AD7401024521C082C08374A7
:104DC000FC1217269094581215FC851882851983B9
:104DD000121608120B10E9851882851983F0120B40
:104DE000107401121790E9F0120B10740212179050
:104DF000E9F08518828519831215FC7404023AECD7
:104E000074F61217B4EA240D124E44EC2403F8EDA4
:104E10003400F988088909EC2407F8ED1250FCFCED
:104E2000E9FD124E4E12169B8E828F83E8F0A3E9A5
:104E3000F0124E4E12169B8B09EA45096003124E82
:104E400061024522F8EB3400F9E8FEE9FF228C828A
:104E50008D8312443D850882850983E0FAA3E0FB37
:104E6000228E828F83E02401F0A3E03400F02274CC
:104E7000F61217B4EA242EF582EB3400124D1BEA29
:104E80002470124E44780079FAECFAEDFB12169B6E
:104E90008E828F83E8F0A3E9F0780079FAECFAEDDE
:104EA000FB12169B8B09EA45096003124E6102450D
:104EB0002274F01217B4EAFEEBFF74101217907808
:104EC000081215DE120C908A0C8B0D8C0E8D0F9033
:104ED0009404780C12154490943C780C1215A57823
:104EE0000C1219C3124C391215FC121EDE74041276
:104EF000173CE96003024F958E828F83E02402F80D
:104F0000A3E01250FCFAE9FB8A828B837808121521
:104F10005790943C78081215DE8A828B83780812A9
:104F200015B8EE240BF582EF124885C082C0838E3F
:104F3000828F83A3A3A3A3A3E02401F8A3E03400FA
:104F4000F9D083D082E0687003A3E069700479012E
:104F50008045EE2407F8EF123E2B124E65EE2474C6
:104F60001251017014EE2475124F9C7003A3E06D72
:104F700070078A828B83124E65EE24801251017075
:104F800014EE2481124F9C7003A3E06D70078A8297
:104F90008B83124E6579007F08021886FAEF340081
:104FA000FB8A828B83E0FCA3E0FD88828983E06C2E
:104FB0002274F31217B49004C7E0F812406AEE248A
:104FC00004F50AEF3400F50BEE2465F508EF340024
:104FD000F5098010124D1D850882850983E4F0A330
:104FE000F012502B850882850983124D1DEC4D600F
:104FF00030EE2464124B87F50C780C1219CBEE249A
:1050000063124B87F9EEFAEFFB120AF874011217DC
:105010003CE985088285098360BA124439E8497001
:10502000077C007D0012502B024678850A82850B92
:1050300083E0FA7B001207E02274F21217B4EAFE52
:10504000EBFF890A740E121790E0FAEE24621251F7
:105050000160030250F01247A2F50CEE2483124BBC
:1050600087FB60047804800278008908E928F8E466
:105070001250FC24020808E93400F9E50C98E49980
:10508000A2D265D0334065EA7005750B02800375C6
:105090000B01EB603375090078081219C77A187B89
:1050A00008120B40740212173C750818750908782D
:1050B000081219C7AC0AA90B12479312173C7404C3
:1050C000250AF50A7C187D087401250AF5D9850B97
:1050D000D97800800A8808EC124947ED1242FFE8AF
:1050E000C3950A40F075E195790080067907800242
:1050F00079FF0249308A0AEE250AF8EF3400F9E810
:1051000022F582EF124B8E640122C082C08380039D
:10511000125138E9F874FF28190470F4ECFAEDFB29
:10512000023DC3C082C0838003125138E9F874FF86
:1051300028190470F4023DC38C828D83E08A828B2F
:1051400083F08C828D83A3AC82AD838A828B83A310
:10515000AA82AB832274F41217B4E9900498F01277
:105160000CA2907800E0C4540F54076403700479D3
:105170003F8002797F75080675090078081219C703
:105180007C867D047AEA7B071210B0740212173C09
:10519000900486E0F47049A3E0F47044A3E0F47056
:1051A0003FA3E0F4703AA3E0F47035A3E0F470306C
:1051B00090780EE0900486F090780FE0900487F0ED
:1051C000907810E0900488F0907811E0900489F0D5
:1051D000907812E090048AF0907813E090048BF0BD
:1051E00090048C12530E1264F59004B67406F0A36A
:1051F000740D12592D7432F0A37401F09007EB1264
:10520000530E9007EAE4F09007F10412592D125260
:10521000FCE4F0A304F0A312592D12592BF09008CE
:105220000212530E900801E4F090080804F0A3E481
:105230001252FC12592BF0A37405F090081274FF5F
:10524000F0A3E4F0900814F090081604F0120A1489
:10525000120936120C4879017A177B08120B169046
:105260000817E075F01484E5F004F0790C7A387BC7
:1052700008120B16120B347A00900498E0F91212FF
:10528000A2907803E06442705E900817E014F0701A
:1052900056C2AF12529600781DD0E0F618D0E0F654
:1052A000E59F5407F970059094008003909410785E
:1052B000081215DEE9C4C0E0781CE65508F50808B8
:1052C000E65509F509740B7808121704D0E0250893
:1052D000F8906270E0A2E740F8E8C333906272F0A1
:1052E000906270E0D2E0F09004C3E4F0A3F07A8022
:1052F000FB900498E0F91212180256E212530512BC
:105300005305F0A322F0A37480F0A374022274FF6B
:1053100012554DF0A3F02274F61217B4EAFEEBFF1B
:10532000EEA2E0504390049AE0C39480E0500FC393
:1053300033F8E433F974B128F5827411800EF4C3A4
:1053400033F8E433F974BF28F582741139F5831208
:105350005BD41217B27A00900498E0F91212A2EE10
:105360006401FAEFFB0254A154086079900810E040
:10537000F875F006A4C8AAF012571075080078084E
:105380001219CBEA24321254A4F5097404780812D5
:10539000170478081219C7EA2430F582EB1259274E
:1053A0001219DEEA242E1254A4C313F509E50813DA
:1053B000F50878081219C77508DC7509077808120E
:1053C00019C79007DBE0FD7C008A828B83A3A3A32F
:1053D000A3E0FA7B007900120822740912173CEE50
:1053E0006408025362EE5410604275080078081297
:1053F00019CBE4F50978081219C778081219C7788B
:10540000081219C77508DC75090778081219C790C2
:1054100007DBE0FD7C007A007B0079021208227431
:105420000912173CEE6410FAEF025364EE548060E8
:1054300022790012129C9094681219DA7A007B018A
:10544000900498E0F9121320740412173CEE648063
:10545000025362EF5401600C790112129CEEFAEFD4
:10546000640180C590049FE064017031EE542060B7
:105470002C900499E024F9600314701B793F900488
:10548000C7E0FA75F006A4CAA8F028FB74C92AFA86
:1054900074043BFB120AC8EE64200253627A007B5C
:1054A000000264E4F582EB1264D0F508A3E022C0A8
:1054B00082C083C2AF120C7EE5E170FC75E101127F
:1054C0005938120CBA7907120D507901120D56791C
:1054D00002120CD8120D0E120D387900120D4A79F5
:1054E00001120D4A90947C1215FC120CCC9007DB33
:1054F000E4125310A3F09007F2F0900809F0120A9A
:10550000B0120BD6120AD47900120D5C9007E27427
:10551000FF12554D741FF0906012E4F0A3F09060FC
:1055200063F0751A00900499F090049BF0A3F0903A
:1055300007E7F090049EF090049F04F09004B57487
:1055400003F0900815E4F0D2AFF9026117F0A3F070
:10555000A3F0A3F0A322C082C083900486125597C3
:10556000F090048712558AF090048812558AA3F0AF
:1055700090048912558AA3A3F090048A12558FF0E3
:1055800090048B12558FA3026114125597A3221217
:105590005597A3A3A3A322E08A828B8322C082C053
:1055A000838A828B83E090048C1255DAE090048D1C
:1055B0001256E790048E1255D4E090048F1255CF06
:1055C000E09004901255CFA3E09004910261141270
:1055D00055D4A3221255DAA3A322F08A828B83A387
:1055E00022C082C083120A20E97005120D0E7900D4
:1055F00002611774F71217B4EAFEEBFF8908120A6A
:1056000020E9702CE508600A74016508600A7912C7
:10561000801E7C00790080047C007901EEFAEFFBAB
:10562000120D14E9F8740368700479078002790098
:1056300002593374F61217B4740A1217901264E9FF
:10564000600AEC4D6006E508450970047912800F88
:1056500078081219C7120B2E740212173C79000237
:1056600064E474F41217B4EAFEEBFF89089004991D
:10567000E064096014E0640A600FE0640B600AE013
:10568000640C6005E0640D7004790C801E120C003F
:105690008B0BEA450B700BA908EEFAEFFB120B1609
:1056A000800990049BE04440F0790D803574F41239
:1056B00017B4EAFEEBFF890BEE4F6003E970047943
:1056C00012801F750A00120B10850A08EE2508F5D6
:1056D00082EF125927E9F0050AE50AC3950B40E667
:1056E00079007F040218861255DAA3E022C082C036
:1056F00083E9F8740168700B9008157401F0790063
:10570000026117E87006900815E480F1791280F0C4
:105710002AF974C928FA740439FB2274F61217B4F2
:10572000EAFEEBFF8C088D09900499E0640C70058B
:1057300090618E80121264AD702F12653B74322E10
:10574000F58274053FF583E0F9748069700A850875
:1057500082850983747F800E90049DE0F8E9C398E8
:10576000850882850983F079000264E474F71217D2
:10577000B4EAFEEBFF8908740565086028741365B8
:1057800008602274146508601C741565086016743E
:105790001A6508601074296508600A743B65086022
:1057A00004791280411264AD703C1264D5EA241D64
:1057B000F8EB3400F9EA24F7FCEB3400FDEA246A44
:1057C0001264BC7019EA246BF582EB12604064022B
:1057D0007004793A80101257E9120A98800612571D
:1057E000E9120A8C79000259338C828D83E5081204
:1057F00064EFE4F0A3F079022274E81217B48A0A85
:105800008B0B8C108D1189097418121790E0F50814
:10581000EC45116010E9C3941C500AE508600B7454
:105820000165086005791202591E1264AD60030219
:10583000591EA80AE875F006A4C8AAF02AFA75F05D
:1058400006E50BA42AF974C928FE740439FFEE2476
:1058500065F516EF3400F517851682F583125BC1E6
:10586000E84970C1A2AFE433F512C2AF120C008A4E
:10587000148B158A828B83E0F87440686011748001
:1058800068706E9004C7E0650A7002E50B706212E2
:105890000C968A0A8B0B120C96EA650A7003EB656C
:1058A0000B604E12655190945C780C121544780C84
:1058B0001219C3851482851583A3A31215FC1264E3
:1058C000DE12173CE964017028E508F50A780A122F
:1058D00019CBA909AC10AD11EEFAEFFB120AF8745E
:1058E0000112173CE9700AE512A2E092AF7900803C
:1058F0002D851682851783E510F0A3E511F0EE24BF
:1059000063F582EF125927E509F0EE2464F582EF82
:10591000125927E508F0E512A2E092AF79077F104F
:10592000021886F582E509126323227425F0A3E4A8
:10593000F0A3227F010218861209EA1209DE75E13E
:10594000F12274F71217B4E9FE7409121790E0FF00
:10595000740A121790E0F508EE600574016E702D60
:10596000EF600574016F7025125BAC5020EC24FCD5
:10597000F8ED12652694FDE9943F5011C3EA9CEBC3
:105980009D400AE508600B74016508600579120204
:105990005A339007F2E064017005790C025A33EE35
:1059A000A3F0E5089007F8F0EF9007EA702FE4F015
:1059B000900486E09007EBF0900487E09007ECF00D
:1059C000900488E09007EDF0900489E09007EEF0F5
:1059D00090048AE09007EFF090048B802E7401F021
:1059E00090048CE09007EBF090048DE09007ECF0D1
:1059F00090048EE09007EDF090048FE09007EEF0B9
:105A0000900490E09007EFF0900491E09007F0F0A0
:105A10009007F4EAF0A3EBF0A3ECF0A3EDF0E508B7
:105A20007004790080087401650870057901120D11
:105A30001A790002593374F41217B4E9FEEAFF90A0
:105A40000499E064096014E0640A600FE0640B608C
:105A50000AE0640C6005E0640D70057921025BA921
:105A60009007F3E0F86005740168703B9007EAE086
:105A7000F86005740168702F9007F4125BB5125B33
:105A8000AC5024A3125BC1E824FCFCE934FFFDC345
:105A9000EC94FDED943F500FC3EA98EB994008EF6A
:105AA000600A74016F60057912025BA9EE7003024F
:105AB0005B341470F29007F2E06401609E79021288
:105AC0000BF49007E8EAF0A3EBF09007F27401F012
:105AD0009007F1F0EF9007F9F0900499E06003026D
:105AE0005BA7120A2C120C908A088B098C0A8D0B6A
:105AF000909444780812154490943C78081215A5A7
:105B0000125BC778081215ED9007E812606A125B05
:105B1000C7C082C0839007F6126044D083D08278D9
:105B2000081215449007E8125BDD78081215ED1293
